{"abi":[{"type":"constructor","inputs":[{"name":"_token","type":"address","internalType":"contract IERC20"},{"name":"_label","type":"string","internalType":"string"},{"name":"_maxActors","type":"uint256","internalType":"uint256"}],"stateMutability":"nonpayable"},{"type":"function","name":"actors","inputs":[],"outputs":[{"name":"","type":"address[]","internalType":"address[]"}],"stateMutability":"view"},{"type":"function","name":"approve","inputs":[{"name":"actorSeed","type":"uint256","internalType":"uint256"},{"name":"spenderSeed","type":"uint256","internalType":"uint256"},{"name":"amount","type":"uint256","internalType":"uint256"}],"outputs":[],"stateMutability":"nonpayable"},{"type":"function","name":"burn","inputs":[{"name":"actorSeed","type":"uint256","internalType":"uint256"},{"name":"amount","type":"uint256","internalType":"uint256"}],"outputs":[],"stateMutability":"nonpayable"},{"type":"function","name":"callKeys","inputs":[{"name":"","type":"uint256","internalType":"uint256"}],"outputs":[{"name":"","type":"bytes32","internalType":"bytes32"}],"stateMutability":"view"},{"type":"function","name":"callSummary","inputs":[],"outputs":[],"stateMutability":"view"},{"type":"function","name":"calls","inputs":[{"name":"","type":"bytes32","internalType":"bytes32"}],"outputs":[{"name":"","type":"uint256","internalType":"uint256"}],"stateMutability":"view"},{"type":"function","name":"forEachActor","inputs":[{"name":"func","type":"function","internalType":"function (address) external"}],"outputs":[],"stateMutability":"nonpayable"},{"type":"function","name":"ghost_burnSum","inputs":[],"outputs":[{"name":"","type":"uint256","internalType":"uint256"}],"stateMutability":"view"},{"type":"function","name":"ghost_mintSum","inputs":[],"outputs":[{"name":"","type":"uint256","internalType":"uint256"}],"stateMutability":"view"},{"type":"function","name":"ghost_zeroBurns","inputs":[],"outputs":[{"name":"","type":"uint256","internalType":"uint256"}],"stateMutability":"view"},{"type":"function","name":"ghost_zeroMints","inputs":[],"outputs":[{"name":"","type":"uint256","internalType":"uint256"}],"stateMutability":"view"},{"type":"function","name":"ghost_zeroTransferFroms","inputs":[],"outputs":[{"name":"","type":"uint256","internalType":"uint256"}],"stateMutability":"view"},{"type":"function","name":"ghost_zeroTransfers","inputs":[],"outputs":[{"name":"","type":"uint256","internalType":"uint256"}],"stateMutability":"view"},{"type":"function","name":"mint","inputs":[{"name":"actorSeed","type":"uint256","internalType":"uint256"},{"name":"amount","type":"uint256","internalType":"uint256"}],"outputs":[],"stateMutability":"nonpayable"},{"type":"function","name":"reduceActors","inputs":[{"name":"acc","type":"uint256","internalType":"uint256"},{"name":"func","type":"function","internalType":"function (uint256,address) external returns (uint256)"}],"outputs":[{"name":"","type":"uint256","internalType":"uint256"}],"stateMutability":"nonpayable"},{"type":"function","name":"transfer","inputs":[{"name":"actorSeed","type":"uint256","internalType":"uint256"},{"name":"toSeed","type":"uint256","internalType":"uint256"},{"name":"amount","type":"uint256","internalType":"uint256"}],"outputs":[],"stateMutability":"nonpayable"},{"type":"function","name":"transferFrom","inputs":[{"name":"actorSeed","type":"uint256","internalType":"uint256"},{"name":"fromSeed","type":"uint256","internalType":"uint256"},{"name":"toSeed","type":"uint256","internalType":"uint256"},{"name":"_approve","type":"bool","internalType":"bool"},{"name":"amount","type":"uint256","internalType":"uint256"}],"outputs":[],"stateMutability":"nonpayable"}],"bytecode":{"object":"0x60a060405234801561000f575f80fd5b50604051613d9b380380613d9b833981810160405281019061003191906105e4565b818181601790816100429190610854565b50806080818152505050508260185f6101000a81548173ffffffffffffffffffffffffffffffffffffffff021916908373ffffffffffffffffffffffffffffffffffffffff1602179055506100a9306b033b2e3c9fd0803ce80000006100b160201b60201c565b505050610b89565b5f81036100ff57601b5f8154809291906100ca90610950565b91905055506100fe7f6d696e742e7a65726f00000000000000000000000000000000000000000000006101a460201b60201c565b5b8060195f8282546101109190610997565b9250508190555060185f9054906101000a900473ffffffffffffffffffffffffffffffffffffffff1673ffffffffffffffffffffffffffffffffffffffff166340c10f1983836040518363ffffffff1660e01b81526004016101739291906109e8565b5f604051808303815f87803b15801561018a575f80fd5b505af115801561019c573d5f803e3d5ffd5b505050505050565b5f60115f8381526020019081526020015f205490505f81036101e757601282908060018154018082558091505060019003905f5260205f20015f90919091909150555b6102046101f98361020860201b60201c565b61025560201b60201c565b5050565b60605f8061021d845f1c61029f60201b60201c565b60ff0390506008600782018161023657610235610a0f565b5b0491505060405191506040820160405280825282602083015250919050565b61029c6040518060400160405280600481526020017f63616c6c0000000000000000000000000000000000000000000000000000000081525082600161032060201b60201c565b50565b5f60018219018216806fffffffffffffffffffffffffffffffff1060071b831560081b17915080821c67ffffffffffffffff1060061b8217915080821c63ffffffff1060051b821791507e1f0d1e100c1d070f090b19131c1706010e11080a1a141802121b1503160405601f82841c63d76453e004161a8217915050919050565b80156103f4575f826040516020016103389190610a9c565b60405160208183030381529060405290507f885cb69240a935d632d79c317109709ecfa91a80626ff3989d68f67f5b1dd12d5f1c73ffffffffffffffffffffffffffffffffffffffff1663619d897f856040516020016103989190610ae7565b604051602081830303815290604052836040518363ffffffff1660e01b81526004016103c5929190610b54565b5f604051808303815f87803b1580156103dc575f80fd5b505af11580156103ee573d5f803e3d5ffd5b50505050505b505050565b5f604051905090565b5f80fd5b5f80fd5b5f73ffffffffffffffffffffffffffffffffffffffff82169050919050565b5f6104338261040a565b9050919050565b5f61044482610429565b9050919050565b6104548161043a565b811461045e575f80fd5b50565b5f8151905061046f8161044b565b92915050565b5f80fd5b5f80fd5b5f601f19601f8301169050919050565b7f4e487b71000000000000000000000000000000000000000000000000000000005f52604160045260245ffd5b6104c38261047d565b810181811067ffffffffffffffff821117156104e2576104e161048d565b5b80604052505050565b5f6104f46103f9565b905061050082826104ba565b919050565b5f67ffffffffffffffff82111561051f5761051e61048d565b5b6105288261047d565b9050602081019050919050565b8281835e5f83830152505050565b5f61055561055084610505565b6104eb565b90508281526020810184848401111561057157610570610479565b5b61057c848285610535565b509392505050565b5f82601f83011261059857610597610475565b5b81516105a8848260208601610543565b91505092915050565b5f819050919050565b6105c3816105b1565b81146105cd575f80fd5b50565b5f815190506105de816105ba565b92915050565b5f805f606084860312156105fb576105fa610402565b5b5f61060886828701610461565b935050602084015167ffffffffffffffff81111561062957610628610406565b5b61063586828701610584565b9250506040610646868287016105d0565b9150509250925092565b5f81519050919050565b7f4e487b71000000000000000000000000000000000000000000000000000000005f52602260045260245ffd5b5f600282049050600182168061069e57607f821691505b6020821081036106b1576106b061065a565b5b50919050565b5f819050815f5260205f209050919050565b5f6020601f8301049050919050565b5f82821b905092915050565b5f600883026107137fffffffffffffffffffffffffffffffffffffffffffffffffffffffffffffffff826106d8565b61071d86836106d8565b95508019841693508086168417925050509392505050565b5f819050919050565b5f61075861075361074e846105b1565b610735565b6105b1565b9050919050565b5f819050919050565b6107718361073e565b61078561077d8261075f565b8484546106e4565b825550505050565b5f90565b61079961078d565b6107a4818484610768565b505050565b5b818110156107c7576107bc5f82610791565b6001810190506107aa565b5050565b601f82111561080c576107dd816106b7565b6107e6846106c9565b810160208510156107f5578190505b610809610801856106c9565b8301826107a9565b50505b505050565b5f82821c905092915050565b5f61082c5f1984600802610811565b1980831691505092915050565b5f610844838361081d565b9150826002028217905092915050565b61085d82610650565b67ffffffffffffffff8111156108765761087561048d565b5b6108808254610687565b61088b8282856107cb565b5f60209050601f8311600181146108bc575f84156108aa578287015190505b6108b48582610839565b86555061091b565b601f1984166108ca866106b7565b5f5b828110156108f1578489015182556001820191506020850194506020810190506108cc565b8683101561090e578489015161090a601f89168261081d565b8355505b6001600288020188555050505b505050505050565b7f4e487b71000000000000000000000000000000000000000000000000000000005f52601160045260245ffd5b5f61095a826105b1565b91507fffffffffffffffffffffffffffffffffffffffffffffffffffffffffffffffff820361098c5761098b610923565b5b600182019050919050565b5f6109a1826105b1565b91506109ac836105b1565b92508282019050808211156109c4576109c3610923565b5b92915050565b6109d381610429565b82525050565b6109e2816105b1565b82525050565b5f6040820190506109fb5f8301856109ca565b610a0860208301846109d9565b9392505050565b7f4e487b71000000000000000000000000000000000000000000000000000000005f52601260045260245ffd5b5f81905092915050565b5f610a5082610650565b610a5a8185610a3c565b9350610a6a818560208601610535565b80840191505092915050565b7f3a317c6300000000000000000000000000000000000000000000000000000000815250565b5f610aa78284610a46565b9150610ab282610a76565b60048201915081905092915050565b7f2d6d6574726963732e7478740000000000000000000000000000000000000000815250565b5f610af28284610a46565b9150610afd82610ac1565b600c8201915081905092915050565b5f82825260208201905092915050565b5f610b2682610650565b610b308185610b0c565b9350610b40818560208601610535565b610b498161047d565b840191505092915050565b5f6040820190508181035f830152610b6c8185610b1c565b90508181036020830152610b808184610b1c565b90509392505050565b6080516131de610bbd5f395f818161047101528181610bb101528181610fa1015281816115430152611bd201526131de5ff3fe608060405234801561000f575f80fd5b5060043610610109575f3560e01c8063b866c8a4116100a0578063cc7f0c241161006f578063cc7f0c2414610267578063cff1026514610285578063dd3648f4146102b5578063dd98a0b5146102d3578063fbca106d146102f157610109565b8063b866c8a4146101df578063bac35919146101fb578063bd5b2dc814610219578063cafdc7121461023757610109565b806390dd2627116100dc57806390dd26271461016d5780639699d8a814610189578063b390c0ab146101a5578063b7eb0059146101c157610109565b806313594d5c1461010d5780631b2ef1ca146101175780632a69cf3e146101335780638947cc481461014f575b5f80fd5b610115610321565b005b610131600480360381019061012c91906126be565b61046d565b005b61014d60048036038101906101489190612731565b6106a1565b005b610157610ba7565b60405161016491906127b7565b60405180910390f35b610187600480360381019061018291906127d0565b610bad565b005b6101a3600480360381019061019e91906128e3565b610f83565b005b6101bf60048036038101906101ba91906126be565b610f9d565b005b6101c9611539565b6040516101d691906127b7565b60405180910390f35b6101f960048036038101906101f491906127d0565b61153f565b005b6102036117fe565b60405161021091906127b7565b60405180910390f35b610221611804565b60405161022e91906127b7565b60405180910390f35b610251600480360381019061024c919061296c565b61180a565b60405161025e91906127b7565b60405180910390f35b61026f61182c565b60405161027c9190612a94565b60405180910390f35b61029f600480360381019061029a9190612ae7565b6118b9565b6040516102ac91906127b7565b60405180910390f35b6102bd6118ce565b6040516102ca91906127b7565b60405180910390f35b6102db6118d4565b6040516102e891906127b7565b60405180910390f35b61030b60048036038101906103069190612b12565b6118da565b6040516103189190612b4c565b60405180910390f35b6103296118fa565b6103676040518060400160405280601381526020017f2d2d2d2d2d2d2d2d2d2d2d2d2d2d2d2d2d2d2d000000000000000000000000008152506119c9565b6103a86040518060400160405280600b81526020017f5a65726f206d696e74733a000000000000000000000000000000000000000000815250601b54611a62565b6103e96040518060400160405280600b81526020017f5a65726f206275726e733a000000000000000000000000000000000000000000815250601c54611a62565b61042a6040518060400160405280601381526020017f5a65726f207472616e7366657246726f6d733a00000000000000000000000000815250601e54611a62565b61046b6040518060400160405280600f81526020017f5a65726f207472616e73666572733a0000000000000000000000000000000000815250601d54611a62565b565b81337f000000000000000000000000000000000000000000000000000000000000000061049a6013611afe565b14806104b657506104b5816013611b0d90919063ffffffff16565b5b15610513576104cf826013611b6290919063ffffffff16565b60155f6101000a81548173ffffffffffffffffffffffffffffffffffffffff021916908373ffffffffffffffffffffffffffffffffffffffff16021790555061051f565b61051e816001611bd0565b5b7f885cb69240a935d632d79c317109709ecfa91a80626ff3989d68f67f5b1dd12d5f1c73ffffffffffffffffffffffffffffffffffffffff166306447d5660155f9054906101000a900473ffffffffffffffffffffffffffffffffffffffff166040518263ffffffff1660e01b815260040161059b9190612b74565b5f604051808303815f87803b1580156105b2575f80fd5b505af11580156105c4573d5f803e3d5ffd5b505050507f6d696e74000000000000000000000000000000000000000000000000000000006105f281611d6e565b61061d60155f9054906101000a900473ffffffffffffffffffffffffffffffffffffffff1685611dc6565b507f885cb69240a935d632d79c317109709ecfa91a80626ff3989d68f67f5b1dd12d5f1c73ffffffffffffffffffffffffffffffffffffffff166390c5013b6040518163ffffffff1660e01b81526004015f604051808303815f87803b158015610685575f80fd5b505af1158015610697573d5f803e3d5ffd5b5050505050505050565b846106b6816013611b6290919063ffffffff16565b60155f6101000a81548173ffffffffffffffffffffffffffffffffffffffff021916908373ffffffffffffffffffffffffffffffffffffffff1602179055507f7472616e7366657246726f6d000000000000000000000000000000000000000061071f81611d6e565b5f610734876013611b6290919063ffffffff16565b90505f61074b876013611b6290919063ffffffff16565b90506107f0855f60185f9054906101000a900473ffffffffffffffffffffffffffffffffffffffff1673ffffffffffffffffffffffffffffffffffffffff166370a08231866040518263ffffffff1660e01b81526004016107ac9190612b74565b602060405180830381865afa1580156107c7573d5f803e3d5ffd5b505050506040513d601f19601f820116820180604052508101906107eb9190612ba1565b611eb3565b94508515610943577f885cb69240a935d632d79c317109709ecfa91a80626ff3989d68f67f5b1dd12d5f1c73ffffffffffffffffffffffffffffffffffffffff1663ca669fa7836040518263ffffffff1660e01b81526004016108539190612b74565b5f604051808303815f87803b15801561086a575f80fd5b505af115801561087c573d5f803e3d5ffd5b5050505060185f9054906101000a900473ffffffffffffffffffffffffffffffffffffffff1673ffffffffffffffffffffffffffffffffffffffff1663095ea7b360155f9054906101000a900473ffffffffffffffffffffffffffffffffffffffff16876040518363ffffffff1660e01b81526004016108fd929190612bcc565b6020604051808303815f875af1158015610919573d5f803e3d5ffd5b505050506040513d601f19601f8201168201806040525081019061093d9190612c07565b50610a0c565b610a09855f60185f9054906101000a900473ffffffffffffffffffffffffffffffffffffffff1673ffffffffffffffffffffffffffffffffffffffff1663dd62ed3e60155f9054906101000a900473ffffffffffffffffffffffffffffffffffffffff16876040518363ffffffff1660e01b81526004016109c5929190612c32565b602060405180830381865afa1580156109e0573d5f803e3d5ffd5b505050506040513d601f19601f82011682018060405250810190610a049190612ba1565b611eb3565b94505b5f8503610a5457601e5f815480929190610a2590612c86565b9190505550610a537f7472616e7366657246726f6d2e7a65726f000000000000000000000000000000611d6e565b5b7f885cb69240a935d632d79c317109709ecfa91a80626ff3989d68f67f5b1dd12d5f1c73ffffffffffffffffffffffffffffffffffffffff1663ca669fa760155f9054906101000a900473ffffffffffffffffffffffffffffffffffffffff166040518263ffffffff1660e01b8152600401610ad09190612b74565b5f604051808303815f87803b158015610ae7575f80fd5b505af1158015610af9573d5f803e3d5ffd5b5050505060185f9054906101000a900473ffffffffffffffffffffffffffffffffffffffff1673ffffffffffffffffffffffffffffffffffffffff166323b872dd8383886040518463ffffffff1660e01b8152600401610b5b93929190612ccd565b6020604051808303815f875af1158015610b77573d5f803e3d5ffd5b505050506040513d601f19601f82011682018060405250810190610b9b9190612c07565b50505050505050505050565b601c5481565b82337f0000000000000000000000000000000000000000000000000000000000000000610bda6013611afe565b1480610bf65750610bf5816013611b0d90919063ffffffff16565b5b15610c5357610c0f826013611b6290919063ffffffff16565b60155f6101000a81548173ffffffffffffffffffffffffffffffffffffffff021916908373ffffffffffffffffffffffffffffffffffffffff160217905550610c5f565b610c5e816001611bd0565b5b7f885cb69240a935d632d79c317109709ecfa91a80626ff3989d68f67f5b1dd12d5f1c73ffffffffffffffffffffffffffffffffffffffff166306447d5660155f9054906101000a900473ffffffffffffffffffffffffffffffffffffffff166040518263ffffffff1660e01b8152600401610cdb9190612b74565b5f604051808303815f87803b158015610cf2575f80fd5b505af1158015610d04573d5f803e3d5ffd5b505050507f7472616e73666572000000000000000000000000000000000000000000000000610d3281611d6e565b5f610d47866013611b6290919063ffffffff16565b9050610e0d855f60185f9054906101000a900473ffffffffffffffffffffffffffffffffffffffff1673ffffffffffffffffffffffffffffffffffffffff166370a0823160155f9054906101000a900473ffffffffffffffffffffffffffffffffffffffff166040518263ffffffff1660e01b8152600401610dc99190612b74565b602060405180830381865afa158015610de4573d5f803e3d5ffd5b505050506040513d601f19601f82011682018060405250810190610e089190612ba1565b611eb3565b94505f8503610e5757601d5f815480929190610e2890612c86565b9190505550610e567f7472616e736665722e7a65726f00000000000000000000000000000000000000611d6e565b5b5f851115610efd5760185f9054906101000a900473ffffffffffffffffffffffffffffffffffffffff1673ffffffffffffffffffffffffffffffffffffffff1663a9059cbb82876040518363ffffffff1660e01b8152600401610ebb929190612bcc565b6020604051808303815f875af1158015610ed7573d5f803e3d5ffd5b505050506040513d601f19601f82011682018060405250810190610efb9190612c07565b505b50507f885cb69240a935d632d79c317109709ecfa91a80626ff3989d68f67f5b1dd12d5f1c73ffffffffffffffffffffffffffffffffffffffff166390c5013b6040518163ffffffff1660e01b81526004015f604051808303815f87803b158015610f66575f80fd5b505af1158015610f78573d5f803e3d5ffd5b505050505050505050565b610f9982826013611f079092919063ffffffff16565b5050565b81337f0000000000000000000000000000000000000000000000000000000000000000610fca6013611afe565b1480610fe65750610fe5816013611b0d90919063ffffffff16565b5b1561104357610fff826013611b6290919063ffffffff16565b60155f6101000a81548173ffffffffffffffffffffffffffffffffffffffff021916908373ffffffffffffffffffffffffffffffffffffffff16021790555061104f565b61104e816001611bd0565b5b7f885cb69240a935d632d79c317109709ecfa91a80626ff3989d68f67f5b1dd12d5f1c73ffffffffffffffffffffffffffffffffffffffff166306447d5660155f9054906101000a900473ffffffffffffffffffffffffffffffffffffffff166040518263ffffffff1660e01b81526004016110cb9190612b74565b5f604051808303815f87803b1580156110e2575f80fd5b505af11580156110f4573d5f803e3d5ffd5b505050507f6275726e0000000000000000000000000000000000000000000000000000000061112281611d6e565b7f885cb69240a935d632d79c317109709ecfa91a80626ff3989d68f67f5b1dd12d5f1c73ffffffffffffffffffffffffffffffffffffffff166390c5013b6040518163ffffffff1660e01b81526004015f604051808303815f87803b158015611189575f80fd5b505af115801561119b573d5f803e3d5ffd5b50505050611242845f60185f9054906101000a900473ffffffffffffffffffffffffffffffffffffffff1673ffffffffffffffffffffffffffffffffffffffff166370a08231306040518263ffffffff1660e01b81526004016111fe9190612b74565b602060405180830381865afa158015611219573d5f803e3d5ffd5b505050506040513d601f19601f8201168201806040525081019061123d9190612ba1565b611eb3565b935060185f9054906101000a900473ffffffffffffffffffffffffffffffffffffffff1673ffffffffffffffffffffffffffffffffffffffff1663a9059cbb60155f9054906101000a900473ffffffffffffffffffffffffffffffffffffffff16866040518363ffffffff1660e01b81526004016112c1929190612bcc565b6020604051808303815f875af11580156112dd573d5f803e3d5ffd5b505050506040513d601f19601f820116820180604052508101906113019190612c07565b505f840361134a57601c5f81548092919061131b90612c86565b91905055506113497f6275726e2e7a65726f0000000000000000000000000000000000000000000000611d6e565b5b83601a5f82825461135b9190612d02565b925050819055507f885cb69240a935d632d79c317109709ecfa91a80626ff3989d68f67f5b1dd12d5f1c73ffffffffffffffffffffffffffffffffffffffff1663ca669fa760155f9054906101000a900473ffffffffffffffffffffffffffffffffffffffff166040518263ffffffff1660e01b81526004016113de9190612b74565b5f604051808303815f87803b1580156113f5575f80fd5b505af1158015611407573d5f803e3d5ffd5b5050505060185f9054906101000a900473ffffffffffffffffffffffffffffffffffffffff1673ffffffffffffffffffffffffffffffffffffffff16639dc29fac60155f9054906101000a900473ffffffffffffffffffffffffffffffffffffffff16866040518363ffffffff1660e01b8152600401611488929190612bcc565b5f604051808303815f87803b15801561149f575f80fd5b505af11580156114b1573d5f803e3d5ffd5b50505050507f885cb69240a935d632d79c317109709ecfa91a80626ff3989d68f67f5b1dd12d5f1c73ffffffffffffffffffffffffffffffffffffffff166390c5013b6040518163ffffffff1660e01b81526004015f604051808303815f87803b15801561151d575f80fd5b505af115801561152f573d5f803e3d5ffd5b5050505050505050565b601a5481565b82337f000000000000000000000000000000000000000000000000000000000000000061156c6013611afe565b14806115885750611587816013611b0d90919063ffffffff16565b5b156115e5576115a1826013611b6290919063ffffffff16565b60155f6101000a81548173ffffffffffffffffffffffffffffffffffffffff021916908373ffffffffffffffffffffffffffffffffffffffff1602179055506115f1565b6115f0816001611bd0565b5b7f885cb69240a935d632d79c317109709ecfa91a80626ff3989d68f67f5b1dd12d5f1c73ffffffffffffffffffffffffffffffffffffffff166306447d5660155f9054906101000a900473ffffffffffffffffffffffffffffffffffffffff166040518263ffffffff1660e01b815260040161166d9190612b74565b5f604051808303815f87803b158015611684575f80fd5b505af1158015611696573d5f803e3d5ffd5b505050507f617070726f7665000000000000000000000000000000000000000000000000006116c481611d6e565b5f6116d9866013611b6290919063ffffffff16565b905060185f9054906101000a900473ffffffffffffffffffffffffffffffffffffffff1673ffffffffffffffffffffffffffffffffffffffff1663095ea7b382876040518363ffffffff1660e01b8152600401611737929190612bcc565b6020604051808303815f875af1158015611753573d5f803e3d5ffd5b505050506040513d601f19601f820116820180604052508101906117779190612c07565b5050507f885cb69240a935d632d79c317109709ecfa91a80626ff3989d68f67f5b1dd12d5f1c73ffffffffffffffffffffffffffffffffffffffff166390c5013b6040518163ffffffff1660e01b81526004015f604051808303815f87803b1580156117e1575f80fd5b505af11580156117f3573d5f803e3d5ffd5b505050505050505050565b60195481565b601b5481565b5f6118238484846013611fb0909392919063ffffffff16565b90509392505050565b606060135f018054806020026020016040519081016040528092919081815260200182805480156118af57602002820191905f5260205f20905b815f9054906101000a900473ffffffffffffffffffffffffffffffffffffffff1673ffffffffffffffffffffffffffffffffffffffff1681526020019060010190808311611866575b5050505050905090565b6011602052805f5260405f205f915090505481565b601d5481565b601e5481565b601281815481106118e9575f80fd5b905f5260205f20015f915090505481565b611923601760405160200161190f9190612e54565b6040516020818303038152906040526119c9565b6119616040518060400160405280601381526020017f2d2d2d2d2d2d2d2d2d2d2d2d2d2d2d2d2d2d2d000000000000000000000000008152506119c9565b5f60128054905090505f5b818110156119c5575f6012828154811061198957611988612e79565b5b905f5260205f20015490506119b76119a082612077565b60115f8481526020019081526020015f2054611a62565b50808060010191505061196c565b5050565b611a5f816040516024016119dd9190612f16565b6040516020818303038152906040527f41304fac000000000000000000000000000000000000000000000000000000007bffffffffffffffffffffffffffffffffffffffffffffffffffffffff19166020820180517bffffffffffffffffffffffffffffffffffffffffffffffffffffffff83818316178352505050506120be565b50565b611afa8282604051602401611a78929190612f36565b6040516020818303038152906040527f9710a9d0000000000000000000000000000000000000000000000000000000007bffffffffffffffffffffffffffffffffffffffffffffffffffffffff19166020820180517bffffffffffffffffffffffffffffffffffffffffffffffffffffffff83818316178352505050506120be565b5050565b5f815f01805490509050919050565b5f826001015f8373ffffffffffffffffffffffffffffffffffffffff1673ffffffffffffffffffffffffffffffffffffffff1681526020019081526020015f205f9054906101000a900460ff16905092915050565b5f80835f01805490501115611bc657825f01835f018054905083611b869190612f91565b81548110611b9757611b96612e79565b5b905f5260205f20015f9054906101000a900473ffffffffffffffffffffffffffffffffffffffff169050611bca565b5f90505b92915050565b7f0000000000000000000000000000000000000000000000000000000000000000611bfb6013611afe565b03611c5a57611c297f6164644163746f722e6d61785265616368656400000000000000000000000000611d6e565b611c538273ffffffffffffffffffffffffffffffffffffffff166013611b6290919063ffffffff16565b9150611ce0565b611c6e826013611b0d90919063ffffffff16565b15611ca157611c9c7f6164644163746f722e6475706c69636174650000000000000000000000000000611d6e565b611cdf565b611cca7f6164644163746f72000000000000000000000000000000000000000000000000611d6e565b611cde8260136120e490919063ffffffff16565b5b5b80611d29578160165f6101000a81548173ffffffffffffffffffffffffffffffffffffffff021916908373ffffffffffffffffffffffffffffffffffffffff1602179055611d69565b8160155f6101000a81548173ffffffffffffffffffffffffffffffffffffffff021916908373ffffffffffffffffffffffffffffffffffffffff16021790555b505050565b5f60115f8381526020019081526020015f205490505f8103611db157601282908060018154018082558091505060019003905f5260205f20015f90919091909150555b611dc2611dbd83612077565b6121f1565b5050565b5f8103611e0e57601b5f815480929190611ddf90612c86565b9190505550611e0d7f6d696e742e7a65726f0000000000000000000000000000000000000000000000611d6e565b5b8060195f828254611e1f9190612d02565b9250508190555060185f9054906101000a900473ffffffffffffffffffffffffffffffffffffffff1673ffffffffffffffffffffffffffffffffffffffff166340c10f1983836040518363ffffffff1660e01b8152600401611e82929190612bcc565b5f604051808303815f87803b158015611e99575f80fd5b505af1158015611eab573d5f803e3d5ffd5b505050505050565b5f611ebf848484612235565b9050611f006040518060400160405280600c81526020017f426f756e6420526573756c7400000000000000000000000000000000000000008152508261243c565b9392505050565b5f5b835f0180549050811015611faa578282855f018381548110611f2e57611f2d612e79565b5b905f5260205f20015f9054906101000a900473ffffffffffffffffffffffffffffffffffffffff166040518263ffffffff1660e01b8152600401611f729190612b74565b5f604051808303815f87803b158015611f89575f80fd5b505af1158015611f9b573d5f803e3d5ffd5b50505050806001019050611f09565b50505050565b5f805b855f018054905081101561206b57838386885f018481548110611fd957611fd8612e79565b5b905f5260205f20015f9054906101000a900473ffffffffffffffffffffffffffffffffffffffff166040518363ffffffff1660e01b815260040161201e929190612fc1565b6020604051808303815f875af115801561203a573d5f803e3d5ffd5b505050506040513d601f19601f8201168201806040525081019061205e9190612ba1565b9450806001019050611fb3565b50839050949350505050565b60605f80612086845f1c6124d8565b60ff0390506008600782018161209f5761209e612f64565b5b0491505060405191506040820160405280825282602083015250919050565b5f815190505f6a636f6e736f6c652e6c6f679050602083015f808483855afa5050505050565b816001015f8273ffffffffffffffffffffffffffffffffffffffff1673ffffffffffffffffffffffffffffffffffffffff1681526020019081526020015f205f9054906101000a900460ff166121ed57815f0181908060018154018082558091505060019003905f5260205f20015f9091909190916101000a81548173ffffffffffffffffffffffffffffffffffffffff021916908373ffffffffffffffffffffffffffffffffffffffff1602179055506001826001015f8373ffffffffffffffffffffffffffffffffffffffff1673ffffffffffffffffffffffffffffffffffffffff1681526020019081526020015f205f6101000a81548160ff0219169083151502179055505b5050565b6122326040518060400160405280600481526020017f63616c6c00000000000000000000000000000000000000000000000000000000815250826001612559565b50565b5f81831115612279576040517f08c379a000000000000000000000000000000000000000000000000000000000815260040161227090613058565b60405180910390fd5b8284101580156122895750818411155b1561229657839050612435565b5f600184846122a59190613076565b6122af9190612d02565b9050600385111580156122c157508481115b156122da5784846122d29190612d02565b915050612435565b60037fffffffffffffffffffffffffffffffffffffffffffffffffffffffffffffffff6123079190613076565b85101580156123405750847fffffffffffffffffffffffffffffffffffffffffffffffffffffffffffffffff61233d9190613076565b81115b1561238457847fffffffffffffffffffffffffffffffffffffffffffffffffffffffffffffffff6123719190613076565b8361237c9190613076565b915050612435565b828511156123dd575f83866123999190613076565b90505f82826123a89190612f91565b90505f81036123bc57849350505050612435565b600181876123ca9190612d02565b6123d49190613076565b93505050612433565b83851015612432575f85856123f29190613076565b90505f82826124019190612f91565b90505f810361241557859350505050612435565b600181866124239190613076565b61242d9190612d02565b935050505b5b505b9392505050565b6124d48282604051602401612452929190612f36565b6040516020818303038152906040527fb60e72cc000000000000000000000000000000000000000000000000000000007bffffffffffffffffffffffffffffffffffffffffffffffffffffffff19166020820180517bffffffffffffffffffffffffffffffffffffffffffffffffffffffff8381831617835250505050612632565b5050565b5f60018219018216806fffffffffffffffffffffffffffffffff1060071b831560081b17915080821c67ffffffffffffffff1060061b8217915080821c63ffffffff1060051b821791507e1f0d1e100c1d070f090b19131c1706010e11080a1a141802121b1503160405601f82841c63d76453e004161a8217915050919050565b801561262d575f8260405160200161257191906130ff565b60405160208183030381529060405290507f885cb69240a935d632d79c317109709ecfa91a80626ff3989d68f67f5b1dd12d5f1c73ffffffffffffffffffffffffffffffffffffffff1663619d897f856040516020016125d1919061314a565b604051602081830303815290604052836040518363ffffffff1660e01b81526004016125fe92919061316f565b5f604051808303815f87803b158015612615575f80fd5b505af1158015612627573d5f803e3d5ffd5b50505050505b505050565b6126498161264161264c612672565b63ffffffff16565b50565b5f815190505f6a636f6e736f6c652e6c6f679050602083015f808483855afa5050505050565b61267d819050919050565b6126856131a4565b565b5f80fd5b5f819050919050565b61269d8161268b565b81146126a7575f80fd5b50565b5f813590506126b881612694565b92915050565b5f80604083850312156126d4576126d3612687565b5b5f6126e1858286016126aa565b92505060206126f2858286016126aa565b9150509250929050565b5f8115159050919050565b612710816126fc565b811461271a575f80fd5b50565b5f8135905061272b81612707565b92915050565b5f805f805f60a0868803121561274a57612749612687565b5b5f612757888289016126aa565b9550506020612768888289016126aa565b9450506040612779888289016126aa565b935050606061278a8882890161271d565b925050608061279b888289016126aa565b9150509295509295909350565b6127b18161268b565b82525050565b5f6020820190506127ca5f8301846127a8565b92915050565b5f805f606084860312156127e7576127e6612687565b5b5f6127f4868287016126aa565b9350506020612805868287016126aa565b9250506040612816868287016126aa565b9150509250925092565b5f7fffffffffffffffffffffffffffffffffffffffffffffffff000000000000000082169050919050565b5f61285582612820565b9050919050565b6128658161284b565b811461286f575f80fd5b50565b5f813590506128808161285c565b92915050565b5f8160201c9050919050565b5f8160401c9050919050565b5f806128a983612892565b925063ffffffff831690506128bd83612886565b9150915091565b5f806128d86128d38585612872565b61289e565b915091509250929050565b5f80602083850312156128f9576128f8612687565b5b5f612906858286016128c4565b92509250509250929050565b5f61291c82612820565b9050919050565b61292c81612912565b8114612936575f80fd5b50565b5f8135905061294781612923565b92915050565b5f8061296161295c8585612939565b61289e565b915091509250929050565b5f805f6040848603121561298357612982612687565b5b5f612990868287016126aa565b93505060206129a18682870161294d565b92509250509250925092565b5f81519050919050565b5f82825260208201905092915050565b5f819050602082019050919050565b5f73ffffffffffffffffffffffffffffffffffffffff82169050919050565b5f6129ff826129d6565b9050919050565b612a0f816129f5565b82525050565b5f612a208383612a06565b60208301905092915050565b5f602082019050919050565b5f612a42826129ad565b612a4c81856129b7565b9350612a57836129c7565b805f5b83811015612a87578151612a6e8882612a15565b9750612a7983612a2c565b925050600181019050612a5a565b5085935050505092915050565b5f6020820190508181035f830152612aac8184612a38565b905092915050565b5f819050919050565b612ac681612ab4565b8114612ad0575f80fd5b50565b5f81359050612ae181612abd565b92915050565b5f60208284031215612afc57612afb612687565b5b5f612b0984828501612ad3565b91505092915050565b5f60208284031215612b2757612b26612687565b5b5f612b34848285016126aa565b91505092915050565b612b4681612ab4565b82525050565b5f602082019050612b5f5f830184612b3d565b92915050565b612b6e816129f5565b82525050565b5f602082019050612b875f830184612b65565b92915050565b5f81519050612b9b81612694565b92915050565b5f60208284031215612bb657612bb5612687565b5b5f612bc384828501612b8d565b91505092915050565b5f604082019050612bdf5f830185612b65565b612bec60208301846127a8565b9392505050565b5f81519050612c0181612707565b92915050565b5f60208284031215612c1c57612c1b612687565b5b5f612c2984828501612bf3565b91505092915050565b5f604082019050612c455f830185612b65565b612c526020830184612b65565b9392505050565b7f4e487b71000000000000000000000000000000000000000000000000000000005f52601160045260245ffd5b5f612c908261268b565b91507fffffffffffffffffffffffffffffffffffffffffffffffffffffffffffffffff8203612cc257612cc1612c59565b5b600182019050919050565b5f606082019050612ce05f830186612b65565b612ced6020830185612b65565b612cfa60408301846127a8565b949350505050565b5f612d0c8261268b565b9150612d178361268b565b9250828201905080821115612d2f57612d2e612c59565b5b92915050565b7f43616c6c2073756d6d6172793a00000000000000000000000000000000000000815250565b7f4e487b71000000000000000000000000000000000000000000000000000000005f52602260045260245ffd5b5f6002820490506001821680612d9f57607f821691505b602082108103612db257612db1612d5b565b5b50919050565b5f81905092915050565b5f819050815f5260205f209050919050565b5f8154612de081612d88565b612dea8186612db8565b9450600182165f8114612e045760018114612e1957612e4b565b60ff1983168652811515820286019350612e4b565b612e2285612dc2565b5f5b83811015612e4357815481890152600182019150602081019050612e24565b838801955050505b50505092915050565b5f612e5e82612d35565b600d82019150612e6e8284612dd4565b915081905092915050565b7f4e487b71000000000000000000000000000000000000000000000000000000005f52603260045260245ffd5b5f81519050919050565b5f82825260208201905092915050565b8281835e5f83830152505050565b5f601f19601f8301169050919050565b5f612ee882612ea6565b612ef28185612eb0565b9350612f02818560208601612ec0565b612f0b81612ece565b840191505092915050565b5f6020820190508181035f830152612f2e8184612ede565b905092915050565b5f6040820190508181035f830152612f4e8185612ede565b9050612f5d60208301846127a8565b9392505050565b7f4e487b71000000000000000000000000000000000000000000000000000000005f52601260045260245ffd5b5f612f9b8261268b565b9150612fa68361268b565b925082612fb657612fb5612f64565b5b828206905092915050565b5f604082019050612fd45f8301856127a8565b612fe16020830184612b65565b9392505050565b7f5374645574696c7320626f756e642875696e743235362c75696e743235362c755f8201527f696e74323536293a204d6178206973206c657373207468616e206d696e2e0000602082015250565b5f613042603e83612eb0565b915061304d82612fe8565b604082019050919050565b5f6020820190508181035f83015261306f81613036565b9050919050565b5f6130808261268b565b915061308b8361268b565b92508282039050818111156130a3576130a2612c59565b5b92915050565b5f6130b382612ea6565b6130bd8185612db8565b93506130cd818560208601612ec0565b80840191505092915050565b7f3a317c6300000000000000000000000000000000000000000000000000000000815250565b5f61310a82846130a9565b9150613115826130d9565b60048201915081905092915050565b7f2d6d6574726963732e7478740000000000000000000000000000000000000000815250565b5f61315582846130a9565b915061316082613124565b600c8201915081905092915050565b5f6040820190508181035f8301526131878185612ede565b9050818103602083015261319b8184612ede565b90509392505050565b7f4e487b71000000000000000000000000000000000000000000000000000000005f52605160045260245ffdfea164736f6c6343000819000a","linkReferences":{}},"methodIdentifiers":{"actors()":"cc7f0c24","approve(uint256,uint256,uint256)":"b866c8a4","burn(uint256,uint256)":"b390c0ab","callKeys(uint256)":"fbca106d","callSummary()":"13594d5c","calls(bytes32)":"cff10265","forEachActor(function)":"9699d8a8","ghost_burnSum()":"b7eb0059","ghost_mintSum()":"bac35919","ghost_zeroBurns()":"8947cc48","ghost_zeroMints()":"bd5b2dc8","ghost_zeroTransferFroms()":"dd98a0b5","ghost_zeroTransfers()":"dd3648f4","mint(uint256,uint256)":"1b2ef1ca","reduceActors(uint256,function)":"cafdc712","transfer(uint256,uint256,uint256)":"90dd2627","transferFrom(uint256,uint256,uint256,bool,uint256)":"2a69cf3e"},"id":109}