{"abi":[{"type":"function","name":"accruedProtocolFees","inputs":[],"outputs":[{"name":"","type":"uint256","internalType":"uint256"}],"stateMutability":"view"},{"type":"function","name":"annualInterestBips","inputs":[],"outputs":[{"name":"","type":"uint256","internalType":"uint256"}],"stateMutability":"view"},{"type":"function","name":"archController","inputs":[],"outputs":[{"name":"","type":"address","internalType":"address"}],"stateMutability":"view"},{"type":"function","name":"asset","inputs":[],"outputs":[{"name":"","type":"address","internalType":"address"}],"stateMutability":"view"},{"type":"function","name":"borrowableAssets","inputs":[],"outputs":[{"name":"","type":"uint256","internalType":"uint256"}],"stateMutability":"view"},{"type":"function","name":"borrower","inputs":[],"outputs":[{"name":"","type":"address","internalType":"address"}],"stateMutability":"view"},{"type":"function","name":"changeSphereXEngine","inputs":[{"name":"newSphereXEngine","type":"address","internalType":"address"}],"outputs":[],"stateMutability":"nonpayable"},{"type":"function","name":"coverageLiquidity","inputs":[],"outputs":[{"name":"","type":"uint256","internalType":"uint256"}],"stateMutability":"view"},{"type":"function","name":"currentState","inputs":[],"outputs":[{"name":"state","type":"tuple","internalType":"struct MarketState","components":[{"name":"isClosed","type":"bool","internalType":"bool"},{"name":"maxTotalSupply","type":"uint128","internalType":"uint128"},{"name":"accruedProtocolFees","type":"uint128","internalType":"uint128"},{"name":"normalizedUnclaimedWithdrawals","type":"uint128","internalType":"uint128"},{"name":"scaledTotalSupply","type":"uint104","internalType":"uint104"},{"name":"scaledPendingWithdrawals","type":"uint104","internalType":"uint104"},{"name":"pendingWithdrawalExpiry","type":"uint32","internalType":"uint32"},{"name":"isDelinquent","type":"bool","internalType":"bool"},{"name":"timeDelinquent","type":"uint32","internalType":"uint32"},{"name":"protocolFeeBips","type":"uint16","internalType":"uint16"},{"name":"annualInterestBips","type":"uint16","internalType":"uint16"},{"name":"reserveRatioBips","type":"uint16","internalType":"uint16"},{"name":"scaleFactor","type":"uint112","internalType":"uint112"},{"name":"lastInterestAccruedTimestamp","type":"uint32","internalType":"uint32"}]}],"stateMutability":"view"},{"type":"function","name":"decimals","inputs":[],"outputs":[{"name":"","type":"uint8","internalType":"uint8"}],"stateMutability":"view"},{"type":"function","name":"delinquencyFeeBips","inputs":[],"outputs":[{"name":"","type":"uint256","internalType":"uint256"}],"stateMutability":"view"},{"type":"function","name":"delinquencyGracePeriod","inputs":[],"outputs":[{"name":"","type":"uint256","internalType":"uint256"}],"stateMutability":"view"},{"type":"function","name":"factory","inputs":[],"outputs":[{"name":"","type":"address","internalType":"address"}],"stateMutability":"view"},{"type":"function","name":"feeRecipient","inputs":[],"outputs":[{"name":"","type":"address","internalType":"address"}],"stateMutability":"view"},{"type":"function","name":"hooks","inputs":[],"outputs":[{"name":"","type":"uint256","internalType":"HooksConfig"}],"stateMutability":"view"},{"type":"function","name":"isClosed","inputs":[],"outputs":[{"name":"","type":"bool","internalType":"bool"}],"stateMutability":"view"},{"type":"function","name":"maxTotalSupply","inputs":[],"outputs":[{"name":"","type":"uint256","internalType":"uint256"}],"stateMutability":"view"},{"type":"function","name":"maximumDeposit","inputs":[],"outputs":[{"name":"","type":"uint256","internalType":"uint256"}],"stateMutability":"view"},{"type":"function","name":"name","inputs":[],"outputs":[{"name":"","type":"string","internalType":"string"}],"stateMutability":"view"},{"type":"function","name":"nukeFromOrbit","inputs":[{"name":"accountAddress","type":"address","internalType":"address"}],"outputs":[],"stateMutability":"nonpayable"},{"type":"function","name":"previousState","inputs":[],"outputs":[{"name":"","type":"tuple","internalType":"struct MarketState","components":[{"name":"isClosed","type":"bool","internalType":"bool"},{"name":"maxTotalSupply","type":"uint128","internalType":"uint128"},{"name":"accruedProtocolFees","type":"uint128","internalType":"uint128"},{"name":"normalizedUnclaimedWithdrawals","type":"uint128","internalType":"uint128"},{"name":"scaledTotalSupply","type":"uint104","internalType":"uint104"},{"name":"scaledPendingWithdrawals","type":"uint104","internalType":"uint104"},{"name":"pendingWithdrawalExpiry","type":"uint32","internalType":"uint32"},{"name":"isDelinquent","type":"bool","internalType":"bool"},{"name":"timeDelinquent","type":"uint32","internalType":"uint32"},{"name":"protocolFeeBips","type":"uint16","internalType":"uint16"},{"name":"annualInterestBips","type":"uint16","internalType":"uint16"},{"name":"reserveRatioBips","type":"uint16","internalType":"uint16"},{"name":"scaleFactor","type":"uint112","internalType":"uint112"},{"name":"lastInterestAccruedTimestamp","type":"uint32","internalType":"uint32"}]}],"stateMutability":"view"},{"type":"function","name":"reserveRatioBips","inputs":[],"outputs":[{"name":"","type":"uint256","internalType":"uint256"}],"stateMutability":"view"},{"type":"function","name":"scaleFactor","inputs":[],"outputs":[{"name":"","type":"uint256","internalType":"uint256"}],"stateMutability":"view"},{"type":"function","name":"scaledBalanceOf","inputs":[{"name":"account","type":"address","internalType":"address"}],"outputs":[{"name":"","type":"uint256","internalType":"uint256"}],"stateMutability":"view"},{"type":"function","name":"scaledTotalSupply","inputs":[],"outputs":[{"name":"","type":"uint256","internalType":"uint256"}],"stateMutability":"view"},{"type":"function","name":"sentinel","inputs":[],"outputs":[{"name":"","type":"address","internalType":"address"}],"stateMutability":"view"},{"type":"function","name":"setAnnualInterestAndReserveRatioBips","inputs":[{"name":"_annualInterestBips","type":"uint16","internalType":"uint16"},{"name":"_reserveRatioBips","type":"uint16","internalType":"uint16"}],"outputs":[],"stateMutability":"nonpayable"},{"type":"function","name":"setMaxTotalSupply","inputs":[{"name":"_maxTotalSupply","type":"uint256","internalType":"uint256"}],"outputs":[],"stateMutability":"nonpayable"},{"type":"function","name":"setProtocolFeeBips","inputs":[{"name":"_protocolFeeBips","type":"uint16","internalType":"uint16"}],"outputs":[],"stateMutability":"nonpayable"},{"type":"function","name":"sphereXEngine","inputs":[],"outputs":[{"name":"","type":"address","internalType":"address"}],"stateMutability":"view"},{"type":"function","name":"sphereXOperator","inputs":[],"outputs":[{"name":"","type":"address","internalType":"address"}],"stateMutability":"view"},{"type":"function","name":"symbol","inputs":[],"outputs":[{"name":"","type":"string","internalType":"string"}],"stateMutability":"view"},{"type":"function","name":"totalAssets","inputs":[],"outputs":[{"name":"","type":"uint256","internalType":"uint256"}],"stateMutability":"view"},{"type":"function","name":"totalDebts","inputs":[],"outputs":[{"name":"","type":"uint256","internalType":"uint256"}],"stateMutability":"view"},{"type":"function","name":"version","inputs":[],"outputs":[{"name":"","type":"string","internalType":"string"}],"stateMutability":"pure"},{"type":"function","name":"withdrawableProtocolFees","inputs":[],"outputs":[{"name":"","type":"uint128","internalType":"uint128"}],"stateMutability":"view"},{"type":"function","name":"withdrawalBatchDuration","inputs":[],"outputs":[{"name":"","type":"uint256","internalType":"uint256"}],"stateMutability":"view"},{"type":"event","name":"AccountSanctioned","inputs":[{"name":"account","type":"address","indexed":true,"internalType":"address"}],"anonymous":false},{"type":"event","name":"AnnualInterestBipsUpdated","inputs":[{"name":"annualInterestBipsUpdated","type":"uint256","indexed":false,"internalType":"uint256"}],"anonymous":false},{"type":"event","name":"Approval","inputs":[{"name":"owner","type":"address","indexed":true,"internalType":"address"},{"name":"spender","type":"address","indexed":true,"internalType":"address"},{"name":"value","type":"uint256","indexed":false,"internalType":"uint256"}],"anonymous":false},{"type":"event","name":"Borrow","inputs":[{"name":"assetAmount","type":"uint256","indexed":false,"internalType":"uint256"}],"anonymous":false},{"type":"event","name":"ChangedSpherexEngineAddress","inputs":[{"name":"oldEngineAddress","type":"address","indexed":false,"internalType":"address"},{"name":"newEngineAddress","type":"address","indexed":false,"internalType":"address"}],"anonymous":false},{"type":"event","name":"ChangedSpherexOperator","inputs":[{"name":"oldSphereXAdmin","type":"address","indexed":false,"internalType":"address"},{"name":"newSphereXAdmin","type":"address","indexed":false,"internalType":"address"}],"anonymous":false},{"type":"event","name":"DebtRepaid","inputs":[{"name":"from","type":"address","indexed":true,"internalType":"address"},{"name":"assetAmount","type":"uint256","indexed":false,"internalType":"uint256"}],"anonymous":false},{"type":"event","name":"Deposit","inputs":[{"name":"account","type":"address","indexed":true,"internalType":"address"},{"name":"assetAmount","type":"uint256","indexed":false,"internalType":"uint256"},{"name":"scaledAmount","type":"uint256","indexed":false,"internalType":"uint256"}],"anonymous":false},{"type":"event","name":"FeesCollected","inputs":[{"name":"assets","type":"uint256","indexed":false,"internalType":"uint256"}],"anonymous":false},{"type":"event","name":"InterestAndFeesAccrued","inputs":[{"name":"fromTimestamp","type":"uint256","indexed":false,"internalType":"uint256"},{"name":"toTimestamp","type":"uint256","indexed":false,"internalType":"uint256"},{"name":"scaleFactor","type":"uint256","indexed":false,"internalType":"uint256"},{"name":"baseInterestRay","type":"uint256","indexed":false,"internalType":"uint256"},{"name":"delinquencyFeeRay","type":"uint256","indexed":false,"internalType":"uint256"},{"name":"protocolFees","type":"uint256","indexed":false,"internalType":"uint256"}],"anonymous":false},{"type":"event","name":"MarketClosed","inputs":[{"name":"timestamp","type":"uint256","indexed":false,"internalType":"uint256"}],"anonymous":false},{"type":"event","name":"MaxTotalSupplyUpdated","inputs":[{"name":"assets","type":"uint256","indexed":false,"internalType":"uint256"}],"anonymous":false},{"type":"event","name":"ProtocolFeeBipsUpdated","inputs":[{"name":"protocolFeeBips","type":"uint256","indexed":false,"internalType":"uint256"}],"anonymous":false},{"type":"event","name":"ReserveRatioBipsUpdated","inputs":[{"name":"reserveRatioBipsUpdated","type":"uint256","indexed":false,"internalType":"uint256"}],"anonymous":false},{"type":"event","name":"SanctionedAccountAssetsQueuedForWithdrawal","inputs":[{"name":"account","type":"address","indexed":true,"internalType":"address"},{"name":"expiry","type":"uint256","indexed":false,"internalType":"uint256"},{"name":"scaledAmount","type":"uint256","indexed":false,"internalType":"uint256"},{"name":"normalizedAmount","type":"uint256","indexed":false,"internalType":"uint256"}],"anonymous":false},{"type":"event","name":"SanctionedAccountAssetsSentToEscrow","inputs":[{"name":"account","type":"address","indexed":true,"internalType":"address"},{"name":"escrow","type":"address","indexed":false,"internalType":"address"},{"name":"amount","type":"uint256","indexed":false,"internalType":"uint256"}],"anonymous":false},{"type":"event","name":"SanctionedAccountWithdrawalSentToEscrow","inputs":[{"name":"account","type":"address","indexed":true,"internalType":"address"},{"name":"escrow","type":"address","indexed":false,"internalType":"address"},{"name":"expiry","type":"uint32","indexed":false,"internalType":"uint32"},{"name":"amount","type":"uint256","indexed":false,"internalType":"uint256"}],"anonymous":false},{"type":"event","name":"StateUpdated","inputs":[{"name":"scaleFactor","type":"uint256","indexed":false,"internalType":"uint256"},{"name":"isDelinquent","type":"bool","indexed":false,"internalType":"bool"}],"anonymous":false},{"type":"event","name":"Transfer","inputs":[{"name":"from","type":"address","indexed":true,"internalType":"address"},{"name":"to","type":"address","indexed":true,"internalType":"address"},{"name":"value","type":"uint256","indexed":false,"internalType":"uint256"}],"anonymous":false},{"type":"event","name":"WithdrawalBatchClosed","inputs":[{"name":"expiry","type":"uint256","indexed":true,"internalType":"uint256"}],"anonymous":false},{"type":"event","name":"WithdrawalBatchCreated","inputs":[{"name":"expiry","type":"uint256","indexed":true,"internalType":"uint256"}],"anonymous":false},{"type":"event","name":"WithdrawalBatchExpired","inputs":[{"name":"expiry","type":"uint256","indexed":true,"internalType":"uint256"},{"name":"scaledTotalAmount","type":"uint256","indexed":false,"internalType":"uint256"},{"name":"scaledAmountBurned","type":"uint256","indexed":false,"internalType":"uint256"},{"name":"normalizedAmountPaid","type":"uint256","indexed":false,"internalType":"uint256"}],"anonymous":false},{"type":"event","name":"WithdrawalBatchPayment","inputs":[{"name":"expiry","type":"uint256","indexed":true,"internalType":"uint256"},{"name":"scaledAmountBurned","type":"uint256","indexed":false,"internalType":"uint256"},{"name":"normalizedAmountPaid","type":"uint256","indexed":false,"internalType":"uint256"}],"anonymous":false},{"type":"event","name":"WithdrawalExecuted","inputs":[{"name":"expiry","type":"uint256","indexed":true,"internalType":"uint256"},{"name":"account","type":"address","indexed":true,"internalType":"address"},{"name":"normalizedAmount","type":"uint256","indexed":false,"internalType":"uint256"}],"anonymous":false},{"type":"event","name":"WithdrawalQueued","inputs":[{"name":"expiry","type":"uint256","indexed":true,"internalType":"uint256"},{"name":"account","type":"address","indexed":true,"internalType":"address"},{"name":"scaledAmount","type":"uint256","indexed":false,"internalType":"uint256"},{"name":"normalizedAmount","type":"uint256","indexed":false,"internalType":"uint256"}],"anonymous":false},{"type":"error","name":"AccountBlocked","inputs":[]},{"type":"error","name":"AnnualInterestBipsTooHigh","inputs":[]},{"type":"error","name":"AprChangeOnClosedMarket","inputs":[]},{"type":"error","name":"BadLaunchCode","inputs":[]},{"type":"error","name":"BadRescueAsset","inputs":[]},{"type":"error","name":"BorrowAmountTooHigh","inputs":[]},{"type":"error","name":"BorrowFromClosedMarket","inputs":[]},{"type":"error","name":"BorrowWhileSanctioned","inputs":[]},{"type":"error","name":"CapacityChangeOnClosedMarket","inputs":[]},{"type":"error","name":"CloseMarketWithUnpaidWithdrawals","inputs":[]},{"type":"error","name":"DepositToClosedMarket","inputs":[]},{"type":"error","name":"InsufficientReservesForFeeWithdrawal","inputs":[]},{"type":"error","name":"InsufficientReservesForNewLiquidityRatio","inputs":[]},{"type":"error","name":"InsufficientReservesForOldLiquidityRatio","inputs":[]},{"type":"error","name":"InvalidArrayLength","inputs":[]},{"type":"error","name":"MarketAlreadyClosed","inputs":[]},{"type":"error","name":"MaxSupplyExceeded","inputs":[]},{"type":"error","name":"NoReentrantCalls","inputs":[]},{"type":"error","name":"NotApprovedBorrower","inputs":[]},{"type":"error","name":"NotApprovedLender","inputs":[]},{"type":"error","name":"NotFactory","inputs":[]},{"type":"error","name":"NullBurnAmount","inputs":[]},{"type":"error","name":"NullFeeAmount","inputs":[]},{"type":"error","name":"NullMintAmount","inputs":[]},{"type":"error","name":"NullRepayAmount","inputs":[]},{"type":"error","name":"NullTransferAmount","inputs":[]},{"type":"error","name":"NullWithdrawalAmount","inputs":[]},{"type":"error","name":"ProtocolFeeChangeOnClosedMarket","inputs":[]},{"type":"error","name":"ProtocolFeeNotChanged","inputs":[]},{"type":"error","name":"ProtocolFeeTooHigh","inputs":[]},{"type":"error","name":"RepayToClosedMarket","inputs":[]},{"type":"error","name":"ReserveRatioBipsTooHigh","inputs":[]},{"type":"error","name":"SphereXOperatorRequired","inputs":[]},{"type":"error","name":"WithdrawalBatchNotExpired","inputs":[]}],"bytecode":{"object":"0x610260604052348015610010575f80fd5b5033610100525f6100326101e560201b610d8a176001600160401b031660201c565b9050805f01516001600160a01b03166101c0816001600160a01b031681525050806020015160ff166101a08160ff168152505080604001516101e0818152505080606001516102008181525050806080015161022081815250508060a0015161024081815250505f8161012001516001600160801b031690505f826101c0015161ffff1690505f83610160015161ffff1690505f84610140015161ffff1690508360081b805f55508060201b8260301b178360401b6b033b2e3c9fd0803ce800000060501b4260c01b1717178060035f0155505050505080610240015160a081815250508061010001516001600160a01b031660c0816001600160a01b0316815250508060c001516001600160a01b031660e0816001600160a01b0316815250508060e001516001600160a01b0316610120816001600160a01b03168152505080610180015161ffff166101408181525050806101e0015163ffffffff166101608181525050806101a0015163ffffffff1661018081815250508061020001516001600160a01b03166080816001600160a01b0316815250506101df81610220015161021660201b60201c565b506102ed565b5f604051905061026081016040526304032dbb5f52610260816004601c335afa6102603d1416610213575f80fd5b90565b6102285f60805161026860201b60201c565b61025b61025660017f1777adabd324f814e2b0e28f6edf876dce01d7d66358c9acfe87b1b5f38338d66102c8565b829055565b6102655f82610298565b50565b815f52806020527f2ac55ae7ba47db34b5334622acafeb34a65daf143b47019273185d64c73a35a560405fa15050565b815f52806020527ff33499cccaa0611882086224cc48cd82ef54b66a4d2edf4ed67108dd516896d560405fa15050565b818103818111156102e757634e487b7160e01b5f52601160045260245ffd5b92915050565b60805160a05160c05160e05161010051610120516101405161016051610180516101a0516101c0516101e051610200516102205161024051612aa46104135f395f610a3301525f610a0f01525f6105db01525f6105b701525f8181610318015261058701525f6102df01525f61047901525f81816103d501528181611034015281816110ce015281816119260152611a0901525f818161039b01528181611013015281816110ad0152818161190501526119e801525f61037401525f81816104d00152610a8701525f818161044a015281816107fc01528181610c1e01526115cb01525f818161055701526115ef01525f81816104f70152818161086201528181610b0601528181610bed0152610c8e01525f81816103f901526108d30152612aa45ff3fe608060405234801561000f575f80fd5b506004361061021e575f3560e01c8063546355701161012a578063ae6ea191116100b4578063d98e0fe811610079578063d98e0fe814610519578063dcd549d41461052c578063e5adc6351461053f578063e7e5db4f146103f7578063f58c251c14610552575f80fd5b8063ae6ea1911461049b578063b1bf962d146104ae578063c2b6b58c146104b6578063c45a0155146104cb578063cd7033c4146104f2575f80fd5b8063739ccdd3116100fa578063739ccdd314610435578063766360171461043d5780637df1f1b91461044557806395d89b411461046c5780639e6f980214610474575f80fd5b806354635570146103f757806354b302c51461041d57806354fd4d5014610425578063683dd1911461042d575f80fd5b80632ab4d052116101ab5780633f3e4c111161017b5780633f3e4c111461035a578063469048401461036f5780634be687c6146103965780634c6c848f146103bd578063514a4cd6146103d0575f80fd5b80632ab4d052146102c5578063313ce567146102da57806338d52e0f146103135780633c23116614610352575f80fd5b80630cd1a5b6116101f15780630cd1a5b61461026f57806311057cd01461027757806314a1c32d1461028a5780631da24f3e146102925780631e3cef53146102a5575f80fd5b806301e1d1141461022257806306fdde031461023d5780630c1e3fea146102525780630c3f6acf14610267575b5f80fd5b61022a610579565b6040519081526020015b60405180910390f35b6102456105b2565b60405161023491906127d4565b61025a610611565b6040516102349190612809565b61025a61070f565b61022a610736565b600354600160301b900461ffff1661022a565b61022a61075d565b61022a6102a0366004612933565b610779565b6102ad6107aa565b6040516001600160801b039091168152602001610234565b5f5461010090046001600160801b031661022a565b6103017f000000000000000000000000000000000000000000000000000000000000000081565b60405160ff9091168152602001610234565b61033a7f000000000000000000000000000000000000000000000000000000000000000081565b6040516001600160a01b039091168152602001610234565b61033a6107c7565b61036d610368366004612959565b6107fa565b005b61033a7f000000000000000000000000000000000000000000000000000000000000000081565b61022a7f000000000000000000000000000000000000000000000000000000000000000081565b61036d6103cb366004612933565b6108c8565b61022a7f000000000000000000000000000000000000000000000000000000000000000081565b7f000000000000000000000000000000000000000000000000000000000000000061033a565b61022a61096e565b61024561098c565b61022a6109a2565b61022a6109c9565b61022a6109e5565b61033a7f000000000000000000000000000000000000000000000000000000000000000081565b610245610a0a565b61022a7f000000000000000000000000000000000000000000000000000000000000000081565b61036d6104a9366004612981565b610a69565b61022a610b8f565b5f5460ff166040519015158152602001610234565b61033a7f000000000000000000000000000000000000000000000000000000000000000081565b61022a7f000000000000000000000000000000000000000000000000000000000000000081565b600354600160401b900461ffff1661022a565b61036d61053a366004612933565b610bb5565b61036d61054d36600461299a565b610c1c565b61033a7f000000000000000000000000000000000000000000000000000000000000000081565b5f6105ad6001600160a01b037f00000000000000000000000000000000000000000000000000000000000000001630610db8565b905090565b60605f7f000000000000000000000000000000000000000000000000000000000000000090505f7f0000000000000000000000000000000000000000000000000000000000000000905060205f525f60205281603f5280605f5260805ff35b610619612761565b604080516101c080820183525f5460ff808216151584526001600160801b03610100928390048116602086015260015480821696860196909652600160801b90950490941660608401526002546001600160681b038082166080860152600160681b82041660a085015263ffffffff600160d01b8204811660c0860152600160f01b909104909416151560e08401526003548085169184019190915261ffff64010000000082048116610120850152600160301b82048116610140850152600160401b8204166101608401526001600160701b03600160501b820416610180840152600160c01b90049092166101a08201529081f35b610717612761565b61071f610ded565b61072e610e075b63ffffffff16565b90506101c081f35b5f61073f610ded565b61074a610e07610726565b604001516001600160801b031690505b90565b5f610766610ded565b6105ad610774610e07610726565b610e1b565b5f610782610ded565b506001600160a01b0381165f908152600460205260409020546001600160681b03165b919050565b5f6105ad6107b6610579565b6107c1610e07610726565b90610e72565b5f6105ad6107f660017f1777adabd324f814e2b0e28f6edf876dce01d7d66358c9acfe87b1b5f38338d66129df565b5490565b7f000000000000000000000000000000000000000000000000000000000000000033811461082f576302171e6a5f526004601cfd5b610837610eae565b5f610840610ed2565b90505f61084b610ee3565b80519091501561085d5761085d611232565b6108887f0000000000000000000000000000000000000000000000000000000000000000858361123f565b610891846112bb565b6001600160801b031660208201526108a8816112d0565b6108b184611429565b506108bb81611454565b506108c4611460565b5050565b336001600160a01b037f0000000000000000000000000000000000000000000000000000000000000000161461090057610900611469565b5f61092f6107f660017f1777adabd324f814e2b0e28f6edf876dce01d7d66358c9acfe87b1b5f38338d66129df565b905061096461095f60017f1777adabd324f814e2b0e28f6edf876dce01d7d66358c9acfe87b1b5f38338d66129df565b839055565b6108c48183611476565b5f8061097b610e07610726565b9050610986816114a6565b91505090565b60605f6040526101326041526020805260606020f35b5f6109ab610ded565b6109b6610e07610726565b61018001516001600160701b0316905090565b5f6109d2610ded565b6105ad6109e0610e07610726565b6114cb565b5f6109ee610ded565b6105ad6109f9610579565b610a04610e07610726565b9061155a565b60605f7f000000000000000000000000000000000000000000000000000000000000000090505f7f0000000000000000000000000000000000000000000000000000000000000000905060205f525f60205281603f5280605f5260805ff35b610a71610eae565b5f610a7a610ed2565b9050336001600160a01b037f00000000000000000000000000000000000000000000000000000000000000001614610ab457610ab4611578565b6103e88261ffff161115610aca57610aca611585565b5f610ad3610ee3565b805190915015610ae557610ae5611592565b80610120015161ffff168361ffff1603610b0157610b0161159f565b610b307f000000000000000000000000000000000000000000000000000000000000000061ffff8516836115ac565b61ffff831661012082018190526040519081527f4b34705283cdb9398d0e50b216b8fb424c6d4def5db9bfadc661ee3adc6076ee9060200160405180910390a1610b79816112d0565b50610b8381611454565b50610b8c611460565b50565b5f610b98610ded565b610ba3610e07610726565b608001516001600160681b0316905090565b610bbd610eae565b5f610bc6610ed2565b9050610bd1826115c7565b610bdd57610bdd61164d565b5f610be6610ee3565b9050610c137f0000000000000000000000000000000000000000000000000000000000000000848361165a565b610b79816112d0565b7f0000000000000000000000000000000000000000000000000000000000000000338114610c51576302171e6a5f526004601cfd5b610c59610eae565b5f610c62610ed2565b90505f610c6d610ee3565b805190915015610c7f57610c7f611675565b61016081015161ffff16610cb57f0000000000000000000000000000000000000000000000000000000000000000878785611682565b909650945061271061ffff87161115610cd057610cd061172e565b6127108561ffff161115610ce657610ce661173b565b808561ffff161015610d1157610cfa610579565b610d03836114cb565b1115610d1157610d11611748565b61ffff8086166101608401819052908716610140840152811015610d4e57610d37610579565b610d40836114cb565b1115610d4e57610d4e611755565b610d57826112d0565b610d648661ffff16611762565b610d718561ffff1661178d565b5050610d7c81611454565b50610d85611460565b505050565b5f604051905061026081016040526304032dbb5f52610260816004601c335afa6102603d141661075a575f80fd5b5f6370a082315f528160205260205f6024601c865afa601f3d1116610de457634963f6d55f526004601cfd5b50505f51919050565b63929eee145c15610e0557637fa8a9875f526004601cfd5b565b5f610e136117b8610726565b509092915050565b5f81604001516001600160801b031682606001516001600160801b0316610e5884608001516001600160681b031685611acb90919063ffffffff16565b610e6291906129f2565b610e6c91906129f2565b92915050565b5f8083606001516001600160801b031683610e8d91906129df565b9050610ea68185604001516001600160801b0316611aed565b949350505050565b63929eee145c8015610ec757637fa8a9875f526004601cfd5b50600163929eee145d565b5f6105ad813560e01c611afc610726565b610eeb612761565b50604080516101c0810182525f5460ff808216151583526001600160801b03610100928390048116602085015260015480821695850195909552600160801b90940490931660608301526002546001600160681b038082166080850152600160681b82041660a084015263ffffffff600160d01b8204811660c08501819052600160f01b909204909416151560e08401526003548085169284019290925261ffff64010000000083048116610120850152600160301b83048116610140850152600160401b8304166101608401526001600160701b03600160501b830416610180840152600160c01b9091049092166101a0820152908015154290911016156110915760c08101516101a082015163ffffffff9182169181168214611085575f8080611059867f00000000000000000000000000000000000000000000000000000000000000007f000000000000000000000000000000000000000000000000000000000000000088611c04565b9250925092506110818463ffffffff16868861018001516001600160701b0316868686611ca8565b5050505b61108e83611cfa565b50505b6101a08101514263ffffffff82161461111f575f80806110f3857f00000000000000000000000000000000000000000000000000000000000000007f000000000000000000000000000000000000000000000000000000000000000042611c04565b92509250925061111b8463ffffffff16428761018001516001600160701b0316868686611ca8565b5050505b60c082015163ffffffff161561122e5760c082015163ffffffff81165f90815260076020908152604091829020825160608101845281546001600160681b03808216808452600160681b909204169382018490526001909201546001600160801b031693810193909352111561122b575f6111a48561119c610579565b849190611e70565b90508015611229576111b882868584611eed565b505063ffffffff83165f9081526007602090815260409182902084518154928601516001600160681b03908116600160681b026001600160d01b031990941691161791909117815590830151600190910180546001600160801b039092166001600160801b03199092169190911790555b505b50505b5090565b6381b210785f526004601cfd5b5f61124a8460601c90565b905063849da12961125a8561206c565b156112b45760243603604051602081018382528681526101c086602083015e6102006101e08201528261020082015282602461022083013750816102240191505f8083601c84015f885af16112b1573d5f803e3d5ffd5b50505b5050505050565b806107a56001600160801b038216821461207a565b5f6112d9610579565b6112e2836114cb565b1160e08301819052825160208085015160081b70ffffffffffffffffffffffffffffffff00169091175f5560408085015160608601516001600160801b03909116608091821b6001600160801b0319161760015585015160a086015160c0808801516001600160681b0390931660689290921b6cffffffffffffffffffffffffff60681b1660d09390931b63ffffffff60d01b1660f087901b1792909217176002556101008601516101208701516101408801516101608901516101808a01516101a08b015163ffffffff9095169390971b65ffff000000001660309290921b67ffff0000000000001691909117941b69ffff000000000000000016605086901b6dffffffffffffffffffffffffffff60501b169290931b63ffffffff60c01b16919091179190911791909117176003559091506108c4906001600160701b031682612091565b805f527ff2672935fc79f5237559e2e2999dbe743bf65430894ac2b37666890e7c69e1af60205fa150565b610b8c816120c1610726565b5f63929eee145d565b634ee0b8f85f526004601cfd5b815f52806020527ff33499cccaa0611882086224cc48cd82ef54b66a4d2edf4ed67108dd516896d560405fa15050565b5f610e6c6114b383612149565b60208401516001600160801b03169080821191030290565b5f808260a001516001600160681b031690505f8161150b85610160015161ffff168487608001516001600160681b031661150591906129df565b90612173565b61151591906129f2565b905083606001516001600160801b031684604001516001600160801b03166115468387611acb90919063ffffffff16565b61155091906129f2565b610ea691906129f2565b5f611571611567846114cb565b8084039084110290565b9392505050565b6332cc72365f526004601cfd5b63499fddb15f526004601cfd5b6337f1a75f5f526004601cfd5b63e0cf78fc5f526004601cfd5b5f6115b78460601c90565b90506303473d8d61125a856121a5565b5f807f000000000000000000000000000000000000000000000000000000000000000090505f7f000000000000000000000000000000000000000000000000000000000000000090506040516306e744445f52826020528460405260205f6044601c855afa60203d141661163d573d5f803e3d5ffd5b5f51935080604052505050919050565b63a97ab1675f526004601cfd5b5f6116658460601c90565b9050638b3ce9b361125a856121b3565b63b9de88a25f526004601cfd5b5f805f61168f8760601c90565b905063cc45264261169f886121c1565b1561171c5760443603604051602081018382528981528860208201526101c088604083015e61022061020082015282610220820152826044610240830137508161024401915060405f83601c84015f885af11560403d101715611704573d5f803e3d5ffd5b505061ffff5f5116935061ffff602051169250611723565b8693508592505b505094509492505050565b63cf1f916f5f526004601cfd5b638ec830735f526004601cfd5b630a68e5bf5f526004601cfd5b63253ecbb95f526004601cfd5b805f527fff7b6c8be373823323d3c5d99f5d027dd409dce5db54eae511bbdd5546b7503760205fa150565b805f527f72877a153052500f5edbb2f9da96a0f45d671d4b4555fdf8628a709dc4eab43a60205fa150565b6117c0612761565b604080516060810182525f80825260208201819052918101829052604080516101c0810182525f5460ff80821615158352610100918290046001600160801b03908116602085015260015480821695850195909552600160801b90940490931660608301526002546001600160681b038082166080850152600160681b82041660a0840152600160d01b810463ffffffff90811660c08501819052600160f01b909204909416151560e084015260035480851692840192909252640100000000820461ffff908116610120850152600160301b83048116610140850152600160401b830416610160840152600160501b82046001600160701b0316610180840152600160c01b9091049092166101a0820152935042811090151516156119d0578260c001519150826101a0015163ffffffff168263ffffffff161461195857611954837f00000000000000000000000000000000000000000000000000000000000000007f000000000000000000000000000000000000000000000000000000000000000063ffffffff80871690611c0416565b5050505b5063ffffffff81165f908152600760209081526040808320815160608101835281546001600160681b038082168352600160681b9091041693810193909352600101546001600160801b031690820152906119b58461119c610579565b905080156119c8576119c88285836121cf565b505f60c08401525b42836101a0015163ffffffff1614611a3257611a2e837f00000000000000000000000000000000000000000000000000000000000000007f000000000000000000000000000000000000000000000000000000000000000042611c04565b5050505b60c083015163ffffffff1615611ac657505060c081015163ffffffff81165f90815260076020908152604091829020825160608101845281546001600160681b03808216808452600160681b909204169382018490526001909201546001600160801b0316938101939093521115611ac6575f611ab18461119c610579565b90508015611ac457611ac48285836121cf565b505b909192565b5f6115718361018001516001600160701b0316836122fa90919063ffffffff16565b5f818303828410028201611571565b611b2e604051806080016040528060608152602001606081526020015f81526020015f6001600160a01b031681525090565b80611b376107c7565b6001600160a01b03166060820181905215611bfe576060820151604051638925ca5a8152846020820152336040820152606080820152366080820152365f60a08301373660c40160405f82601c85015f875af160205f511416611b9c573d5f803e3d5ffd5b5060205191508160051b91506003820260e0018101604052602082016020823e8084526020820181019050845f038152608060408201526080810160208501528160a001606082015250505a6040830152611bfe825f0151836020015161234a565b50919050565b5f8080611c118785612379565b61012088015190935061ffff1615611c3057611c2d87846123a3565b90505b8515611c4557611c4287858888612431565b91505b6101808701516001600160701b03165f611c69611c6285876129f2565b83906122fa565b9050611c7d611c7882846129f2565b612472565b6001600160701b03166101808a0152505063ffffffff9093166101a090960195909552949092509050565b6040518681528560208201528460408201528360608201528260808201528160a08201527f18247a393d0531b65fbd94f5e78bc5639801a4efda62ae7b43533c4442116c3a60c082a150505050505050565b60c081015163ffffffff81165f90815260076020908152604091829020825160608101845281546001600160681b03808216808452600160681b909204169382018490526001909201546001600160801b0316938101939093521115611d80575f611d678461119c610579565b90508015611d7e57611d7b82858584611eed565b50505b505b611db88263ffffffff16825f01516001600160681b031683602001516001600160681b031684604001516001600160801b0316612487565b805f01516001600160681b031681602001516001600160681b03161015611de957611de46005836124c4565b611df8565b611df88263ffffffff16612522565b5f60c090930183905263ffffffff9190911682526007602090815260409283902082518154928401516001600160681b03908116600160681b026001600160d01b0319909416911617919091178155910151600190910180546001600160801b039092166001600160801b0319909216919091179055565b5f80611e7b8561254a565b8460a00151611e8a9190612a05565b6001600160681b031690505f84604001516001600160801b0316611eb78387611acb90919063ffffffff16565b86606001516001600160801b0316611ecf91906129f2565b611ed991906129f2565b9050808403818511025b9695505050505050565b5f805f8660200151875f0151611f039190612a05565b9050806001600160681b03165f03611f21575f809250925050612063565b5f611f2c878661255c565b9050611f49611f4482846001600160681b0316611aed565b61257e565b9350611f81611f7c856001600160681b03168961018001516001600160701b03166b033b2e3c9fd0803ce8000000612593565b6112bb565b92508388602001818151611f959190612a2c565b6001600160681b0316905250604088018051849190611fb5908390612a4c565b6001600160801b031690525060a087018051859190611fd5908390612a05565b6001600160681b0316905250606087018051849190611ff5908390612a4c565b6001600160801b0316905250608087018051859190612015908390612a05565b6001600160681b0316905250612040306120315f805236155190565b856001600160801b03166125b7565b6117238663ffffffff16856001600160681b0316856001600160801b03166125e6565b94509492505050565b5f610e6c8260571c60011690565b80610b8c57634e487b715f5260116020526024601cfd5b815f52806020527f9385f9ff65bcd2fb81cece54b27d4ec7376795fc4dcff686e370e347b0ed86c060405fa15050565b606081015181906001600160a01b03166120d9575050565b8151805190600682901b810160c0016120f2828261234a565b6060850151600584901b830160200160c4600686901b015a60408901510380602084015250602082039150815163f0bd946883525f8083601c86015f885af161213d573d5f803e3d5ffd5b90915250505050505050565b5f610e6c82608001516001600160681b031683611acb90919063ffffffff16565b80821191030290565b5f8115611388198390048411151761219757634e487b715f5260116020526024601cfd5b506127109102611388010490565b5f610e6c8260551c60011690565b5f610e6c8260581c60011690565b5f610e6c8260561c60011690565b602083015183515f916121e191612a05565b9050806001600160681b03165f036121f95750505050565b5f612204848461255c565b90505f61221d611f4483856001600160681b0316611aed565b90505f612251611f7c836001600160681b03168861018001516001600160701b03166b033b2e3c9fd0803ce8000000612593565b905081876020018181516122659190612a2c565b6001600160681b0316905250604087018051829190612285908390612a4c565b6001600160801b031690525060a0860180518391906122a5908390612a05565b6001600160681b03169052506060860180518291906122c5908390612a4c565b6001600160801b03169052506080860180518391906122e5908390612a05565b6001600160681b031690525050505050505050565b5f81156b019d971e4fe8401e74000000198390048411151761232857634e487b715f5260116020526024601cfd5b506b033b2e3c9fd0803ce800000091026b019d971e4fe8401e74000000010490565b815180825260208301602083018260051b810192505b828110156112b457815154815260209182019101612360565b5f61157183610140015161ffff16846101a0015163ffffffff168461239e91906129df565b612618565b5f806123c18385610120015161ffff1661217390919063ffffffff16565b90506123fb6123e7828661018001516001600160701b03166122fa90919063ffffffff16565b60808601516001600160681b0316906122fa565b91506124198285604001516001600160801b0316611f7c91906129f2565b6001600160801b031660409094019390935292915050565b5f806124548684886101a0015163ffffffff168861244f91906129df565b612640565b90508015612469576124668482612618565b91505b50949350505050565b806107a56001600160701b038216821461207a565b604051835f528260205281604052847f9262dc39b47cad3a0512e4c08dda248cb345e7163058f300bc63f56bda288b6e60605fa260405250505050565b8154600160801b90046001600160801b03165f81815260018085016020526040909120805463ffffffff191663ffffffff8516179055612505908290612a4c565b83546001600160801b03918216600160801b029116179092555050565b807fcbdf25bf6e096dd9030d89bb2ba2e3e7adb82d25a233c3ca3d92e9f098b74e555f80a250565b602081015181515f91610e6c91612a05565b5f6115718361018001516001600160701b0316836126d390919063ffffffff16565b806107a56001600160681b038216821461207a565b5f825f1904841183021582026125b05763ad251c275f526004601cfd5b5091020490565b805f5281837fddf252ad1be2c89b69c2b068fc378daa952ba7f163c4a11628f55a4df523b3ef60205fa3505050565b815f5280602052827f5272034725119f19d7236de4129fdb5093f0dcb80282ca5edbd587df91d2bd8960405fa2505050565b5f806126238461271e565b90505f6126308483612a6c565b6301e13380900495945050505050565b61010083015160e08401515f9163ffffffff16901561269a5761266b61266684836129f2565b612747565b63ffffffff9081166101008701525f90612689908690849061216a16565b808511908503029250611571915050565b6126a983820384831102612747565b63ffffffff9081166101008701525f906126c7908390879061216a16565b9050611ee38185611aed565b5f81156b033b2e3c9fd0803ce80000006002840419048411171561270357634e487b715f5260116020526024601cfd5b506b033b2e3c9fd0803ce80000009190910260028204010490565b69152d02c7e14af680000081810290810482146107a557634e487b715f5260116020526024601cfd5b806107a563ffffffff8216821461207a565b610e05612a83565b604080516101c0810182525f80825260208201819052918101829052606081018290526080810182905260a0810182905260c0810182905260e08101829052610100810182905261012081018290526101408101829052610160810182905261018081018290526101a081019190915290565b602081525f82518060208401528060208501604085015e5f604082850101526040601f19601f83011684010191505092915050565b8151151581526101c08101602083015161282e60208401826001600160801b03169052565b50604083015161284960408401826001600160801b03169052565b50606083015161286460608401826001600160801b03169052565b50608083015161287f60808401826001600160681b03169052565b5060a083015161289a60a08401826001600160681b03169052565b5060c08301516128b260c084018263ffffffff169052565b5060e08301516128c660e084018215159052565b506101008381015163ffffffff908116918401919091526101208085015161ffff90811691850191909152610140808601518216908501526101608086015190911690840152610180808501516001600160701b0316908401526101a09384015116929091019190915290565b5f60208284031215612943575f80fd5b81356001600160a01b0381168114611571575f80fd5b5f60208284031215612969575f80fd5b5035919050565b803561ffff811681146107a5575f80fd5b5f60208284031215612991575f80fd5b61157182612970565b5f80604083850312156129ab575f80fd5b6129b483612970565b91506129c260208401612970565b90509250929050565b634e487b7160e01b5f52601160045260245ffd5b81810381811115610e6c57610e6c6129cb565b80820180821115610e6c57610e6c6129cb565b6001600160681b03828116828216039080821115612a2557612a256129cb565b5092915050565b6001600160681b03818116838216019080821115612a2557612a256129cb565b6001600160801b03818116838216019080821115612a2557612a256129cb565b8082028115828204841417610e6c57610e6c6129cb565b634e487b7160e01b5f52605160045260245ffdfea164736f6c6343000819000a","linkReferences":{}},"methodIdentifiers":{"accruedProtocolFees()":"0cd1a5b6","annualInterestBips()":"11057cd0","archController()":"54635570","asset()":"38d52e0f","borrowableAssets()":"76636017","borrower()":"7df1f1b9","changeSphereXEngine(address)":"4c6c848f","coverageLiquidity()":"739ccdd3","currentState()":"0c3f6acf","decimals()":"313ce567","delinquencyFeeBips()":"4be687c6","delinquencyGracePeriod()":"514a4cd6","factory()":"c45a0155","feeRecipient()":"46904840","hooks()":"cd7033c4","isClosed()":"c2b6b58c","maxTotalSupply()":"2ab4d052","maximumDeposit()":"54b302c5","name()":"06fdde03","nukeFromOrbit(address)":"dcd549d4","previousState()":"0c1e3fea","reserveRatioBips()":"d98e0fe8","scaleFactor()":"683dd191","scaledBalanceOf(address)":"1da24f3e","scaledTotalSupply()":"b1bf962d","sentinel()":"f58c251c","setAnnualInterestAndReserveRatioBips(uint16,uint16)":"e5adc635","setMaxTotalSupply(uint256)":"3f3e4c11","setProtocolFeeBips(uint16)":"ae6ea191","sphereXEngine()":"3c231166","sphereXOperator()":"e7e5db4f","symbol()":"95d89b41","totalAssets()":"01e1d114","totalDebts()":"14a1c32d","version()":"54fd4d50","withdrawableProtocolFees()":"1e3cef53","withdrawalBatchDuration()":"9e6f9802"},"id":59}