{"abi":[{"type":"function","name":"excludeArtifacts","inputs":[],"outputs":[{"name":"excludedArtifacts_","type":"string[]","internalType":"string[]"}],"stateMutability":"view"},{"type":"function","name":"excludeContracts","inputs":[],"outputs":[{"name":"excludedContracts_","type":"address[]","internalType":"address[]"}],"stateMutability":"view"},{"type":"function","name":"excludeSenders","inputs":[],"outputs":[{"name":"excludedSenders_","type":"address[]","internalType":"address[]"}],"stateMutability":"view"},{"type":"function","name":"failed","inputs":[],"outputs":[{"name":"","type":"bool","internalType":"bool"}],"stateMutability":"view"},{"type":"function","name":"setUp","inputs":[],"outputs":[],"stateMutability":"nonpayable"},{"type":"function","name":"targetArtifactSelectors","inputs":[],"outputs":[{"name":"targetedArtifactSelectors_","type":"tuple[]","internalType":"struct StdInvariant.FuzzSelector[]","components":[{"name":"addr","type":"address","internalType":"address"},{"name":"selectors","type":"bytes4[]","internalType":"bytes4[]"}]}],"stateMutability":"view"},{"type":"function","name":"targetArtifacts","inputs":[],"outputs":[{"name":"targetedArtifacts_","type":"string[]","internalType":"string[]"}],"stateMutability":"view"},{"type":"function","name":"targetContracts","inputs":[],"outputs":[{"name":"targetedContracts_","type":"address[]","internalType":"address[]"}],"stateMutability":"view"},{"type":"function","name":"targetInterfaces","inputs":[],"outputs":[{"name":"targetedInterfaces_","type":"tuple[]","internalType":"struct StdInvariant.FuzzInterface[]","components":[{"name":"addr","type":"address","internalType":"address"},{"name":"artifacts","type":"string[]","internalType":"string[]"}]}],"stateMutability":"view"},{"type":"function","name":"targetSelectors","inputs":[],"outputs":[{"name":"targetedSelectors_","type":"tuple[]","internalType":"struct StdInvariant.FuzzSelector[]","components":[{"name":"addr","type":"address","internalType":"address"},{"name":"selectors","type":"bytes4[]","internalType":"bytes4[]"}]}],"stateMutability":"view"},{"type":"function","name":"targetSenders","inputs":[],"outputs":[{"name":"targetedSenders_","type":"address[]","internalType":"address[]"}],"stateMutability":"view"},{"type":"function","name":"testBalance","inputs":[],"outputs":[],"stateMutability":"nonpayable"},{"type":"function","name":"testCanReleaseEscrow","inputs":[],"outputs":[],"stateMutability":"nonpayable"},{"type":"function","name":"testEscrowedAsset","inputs":[],"outputs":[],"stateMutability":"nonpayable"},{"type":"function","name":"testFail_ReleaseEscrowTransferFailure","inputs":[],"outputs":[],"stateMutability":"nonpayable"},{"type":"function","name":"testFuzzBalance","inputs":[{"name":"borrower","type":"address","internalType":"address"},{"name":"account","type":"address","internalType":"address"},{"name":"assetSalt","type":"bytes32","internalType":"bytes32"},{"name":"amount","type":"uint256","internalType":"uint256"}],"outputs":[],"stateMutability":"nonpayable"},{"type":"function","name":"testFuzzCanReleaseEscrow","inputs":[{"name":"borrower","type":"address","internalType":"address"},{"name":"account","type":"address","internalType":"address"},{"name":"asset","type":"address","internalType":"address"},{"name":"sanctioned","type":"bool","internalType":"bool"}],"outputs":[],"stateMutability":"nonpayable"},{"type":"function","name":"testFuzzEscrowedAsset","inputs":[{"name":"borrower","type":"address","internalType":"address"},{"name":"account","type":"address","internalType":"address"},{"name":"assetSalt","type":"bytes32","internalType":"bytes32"},{"name":"amount","type":"uint256","internalType":"uint256"}],"outputs":[],"stateMutability":"nonpayable"},{"type":"function","name":"testFuzzImmutables","inputs":[{"name":"borrower","type":"address","internalType":"address"},{"name":"account","type":"address","internalType":"address"},{"name":"assetSalt","type":"bytes32","internalType":"bytes32"}],"outputs":[],"stateMutability":"nonpayable"},{"type":"function","name":"testFuzzReleaseEscrow","inputs":[{"name":"caller","type":"address","internalType":"address"},{"name":"borrower","type":"address","internalType":"address"},{"name":"account","type":"address","internalType":"address"},{"name":"assetSalt","type":"bytes32","internalType":"bytes32"},{"name":"amount","type":"uint256","internalType":"uint256"},{"name":"sanctioned","type":"bool","internalType":"bool"}],"outputs":[],"stateMutability":"nonpayable"},{"type":"function","name":"testImmutables","inputs":[],"outputs":[],"stateMutability":"nonpayable"},{"type":"function","name":"testReleaseEscrowCanNotReleaseEscrow","inputs":[],"outputs":[],"stateMutability":"nonpayable"},{"type":"function","name":"testReleaseEscrowNotSanctioned","inputs":[],"outputs":[],"stateMutability":"nonpayable"},{"type":"function","name":"testReleaseEscrowWithOverride","inputs":[],"outputs":[],"stateMutability":"nonpayable"},{"type":"event","name":"EscrowReleased","inputs":[{"name":"account","type":"address","indexed":true,"internalType":"address"},{"name":"asset","type":"address","indexed":true,"internalType":"address"},{"name":"amount","type":"uint256","indexed":false,"internalType":"uint256"}],"anonymous":false},{"type":"event","name":"log","inputs":[{"name":"","type":"string","indexed":false,"internalType":"string"}],"anonymous":false},{"type":"event","name":"log_address","inputs":[{"name":"","type":"address","indexed":false,"internalType":"address"}],"anonymous":false},{"type":"event","name":"log_array","inputs":[{"name":"val","type":"uint256[]","indexed":false,"internalType":"uint256[]"}],"anonymous":false},{"type":"event","name":"log_array","inputs":[{"name":"val","type":"int256[]","indexed":false,"internalType":"int256[]"}],"anonymous":false},{"type":"event","name":"log_array","inputs":[{"name":"val","type":"address[]","indexed":false,"internalType":"address[]"}],"anonymous":false},{"type":"event","name":"log_bytes","inputs":[{"name":"","type":"bytes","indexed":false,"internalType":"bytes"}],"anonymous":false},{"type":"event","name":"log_bytes32","inputs":[{"name":"","type":"bytes32","indexed":false,"internalType":"bytes32"}],"anonymous":false},{"type":"event","name":"log_int","inputs":[{"name":"","type":"int256","indexed":false,"internalType":"int256"}],"anonymous":false},{"type":"event","name":"log_named_address","inputs":[{"name":"key","type":"string","indexed":false,"internalType":"string"},{"name":"val","type":"address","indexed":false,"internalType":"address"}],"anonymous":false},{"type":"event","name":"log_named_array","inputs":[{"name":"key","type":"string","indexed":false,"internalType":"string"},{"name":"val","type":"uint256[]","indexed":false,"internalType":"uint256[]"}],"anonymous":false},{"type":"event","name":"log_named_array","inputs":[{"name":"key","type":"string","indexed":false,"internalType":"string"},{"name":"val","type":"int256[]","indexed":false,"internalType":"int256[]"}],"anonymous":false},{"type":"event","name":"log_named_array","inputs":[{"name":"key","type":"string","indexed":false,"internalType":"string"},{"name":"val","type":"address[]","indexed":false,"internalType":"address[]"}],"anonymous":false},{"type":"event","name":"log_named_bytes","inputs":[{"name":"key","type":"string","indexed":false,"internalType":"string"},{"name":"val","type":"bytes","indexed":false,"internalType":"bytes"}],"anonymous":false},{"type":"event","name":"log_named_bytes32","inputs":[{"name":"key","type":"string","indexed":false,"internalType":"string"},{"name":"val","type":"bytes32","indexed":false,"internalType":"bytes32"}],"anonymous":false},{"type":"event","name":"log_named_decimal_int","inputs":[{"name":"key","type":"string","indexed":false,"internalType":"string"},{"name":"val","type":"int256","indexed":false,"internalType":"int256"},{"name":"decimals","type":"uint256","indexed":false,"internalType":"uint256"}],"anonymous":false},{"type":"event","name":"log_named_decimal_uint","inputs":[{"name":"key","type":"string","indexed":false,"internalType":"string"},{"name":"val","type":"uint256","indexed":false,"internalType":"uint256"},{"name":"decimals","type":"uint256","indexed":false,"internalType":"uint256"}],"anonymous":false},{"type":"event","name":"log_named_int","inputs":[{"name":"key","type":"string","indexed":false,"internalType":"string"},{"name":"val","type":"int256","indexed":false,"internalType":"int256"}],"anonymous":false},{"type":"event","name":"log_named_string","inputs":[{"name":"key","type":"string","indexed":false,"internalType":"string"},{"name":"val","type":"string","indexed":false,"internalType":"string"}],"anonymous":false},{"type":"event","name":"log_named_uint","inputs":[{"name":"key","type":"string","indexed":false,"internalType":"string"},{"name":"val","type":"uint256","indexed":false,"internalType":"uint256"}],"anonymous":false},{"type":"event","name":"log_string","inputs":[{"name":"","type":"string","indexed":false,"internalType":"string"}],"anonymous":false},{"type":"event","name":"log_uint","inputs":[{"name":"","type":"uint256","indexed":false,"internalType":"uint256"}],"anonymous":false},{"type":"event","name":"logs","inputs":[{"name":"","type":"bytes","indexed":false,"internalType":"bytes"}],"anonymous":false}],"bytecode":{"object":"0x6080604052600c805460ff19166001179055348015601b575f80fd5b5061590f806100295f395ff3fe608060405234801561000f575f80fd5b5060043610610153575f3560e01c806366d9a9a0116100bf578063ba414fa611610079578063ba414fa61461025d578063c627666914610275578063dce3b4d31461027d578063e0e779f814610285578063e20c9f711461028d578063edede60114610295575f80fd5b806366d9a9a0146102085780636a8b66991461021d57806385226c8114610225578063916a17c61461023a578063b2a0eca914610242578063b5508aa914610255575f80fd5b80632ade3880116101105780632ade3880146101b55780633e5e3c23146101ca5780633f7286f4146101d257806345f9e312146101da57806349a7c34d146101ed578063552cf40314610200575f80fd5b806305dbfaab146101575780630a9254e41461016c57806310448ff4146101745780631ed7831c1461017c578063254e2a511461019a5780632a1b371c146101ad575b5f80fd5b61016a610165366004612a4d565b61029d565b005b61016a61047b565b61016a610590565b610184610774565b6040516101919190612a90565b60405180910390f35b61016a6101a8366004612adc565b6107d4565b61016a6109cf565b6101bd610d43565b6040516101919190612b48565b610184610e7f565b610184610edd565b61016a6101e8366004612c12565b610f3b565b61016a6101fb366004612c7e565b61138e565b61016a61155d565b610210611823565b6040516101919190612cd7565b61016a611904565b61022d611ac5565b6040516101919190612d88565b610210611b90565b61016a610250366004612a4d565b611c71565b61022d611e66565b610265611f31565b6040519015158152602001610191565b61016a611fd1565b61016a6121c9565b61016a612479565b610184612643565b61016a6126a1565b5f826040516102ab906129f8565b8190604051809103905ff59050801580156102c8573d5f803e3d5ffd5b50601f5460405163a1054f6b60e01b81529192505f916001600160a01b039091169063a1054f6b9061030290899089908790600401612dea565b6020604051808303815f875af115801561031e573d5f803e3d5ffd5b505050506040513d601f19601f820116820180604052508101906103429190612e0d565b90506103ad816001600160a01b031663b69ef8a86040518163ffffffff1660e01b8152600401602060405180830381865afa158015610383573d5f803e3d5ffd5b505050506040513d601f19601f820116820180604052508101906103a79190612e2f565b5f612825565b6040516340c10f1960e01b81526001600160a01b038281166004830152602482018590528316906340c10f19906044015f604051808303815f87803b1580156103f4575f80fd5b505af1158015610406573d5f803e3d5ffd5b50505050610473816001600160a01b031663b69ef8a86040518163ffffffff1660e01b8152600401602060405180830381865afa158015610449573d5f803e3d5ffd5b505050506040513d601f19601f8201168201806040525081019061046d9190612e2f565b84612825565b505050505050565b610483612888565b60405161048f90612a05565b604051809103905ff0801580156104a8573d5f803e3d5ffd5b50601e80546001600160a01b0319166001600160a01b039290921691821790556040517340c57923924b5c5c5455c48d93317139addac8fb906104ea90612a12565b6001600160a01b03928316815291166020820152604001604051809103905ff08015801561051a573d5f803e3d5ffd5b50601f80546001600160a01b0319166001600160a01b03928316179055601e54604051630229d94f60e11b815230600482015260016024820152911690630453b29e906044015b5f604051808303815f87803b158015610578575f80fd5b505af115801561058a573d5f803e3d5ffd5b50505050565b6040516001906002905f906105a4906129f8565b604051809103905ff0801580156105bd573d5f803e3d5ffd5b50601f5460405163a1054f6b60e01b81529192505f916001600160a01b039091169063a1054f6b906105f790879087908790600401612dea565b6020604051808303815f875af1158015610613573d5f803e3d5ffd5b505050506040513d601f19601f820116820180604052508101906106379190612e0d565b90506106a3816001600160a01b031663a4972b476040518163ffffffff1660e01b8152600401602060405180830381865afa158015610678573d5f803e3d5ffd5b505050506040513d601f19601f8201168201806040525081019061069c9190612e46565b60016128fa565b604051633b661b1b60e21b81526001600160a01b03841660048201527340c57923924b5c5c5455c48d93317139addac8fb9063ed986c6c906024015f604051808303815f87803b1580156106f5575f80fd5b505af1158015610707573d5f803e3d5ffd5b5050505061058a816001600160a01b031663a4972b476040518163ffffffff1660e01b8152600401602060405180830381865afa15801561074a573d5f803e3d5ffd5b505050506040513d601f19601f8201168201806040525081019061076e9190612e46565b5f6128fa565b606060168054806020026020016040519081016040528092919081815260200182805480156107ca57602002820191905f5260205f20905b81546001600160a01b031681526001909101906020018083116107ac575b5050505050905090565b5f816040516107e2906129f8565b8190604051809103905ff59050801580156107ff573d5f803e3d5ffd5b50601f5460405163a1054f6b60e01b81529192505f916001600160a01b039091169063a1054f6b9061083990889088908790600401612dea565b6020604051808303815f875af1158015610855573d5f803e3d5ffd5b505050506040513d601f19601f820116820180604052508101906108799190612e0d565b90505f80826001600160a01b0316633d02b19c6040518163ffffffff1660e01b81526004016040805180830381865afa1580156108b8573d5f803e3d5ffd5b505050506040513d601f19601f820116820180604052508101906108dc9190612e61565b91509150610949836001600160a01b0316637df1f1b96040518163ffffffff1660e01b8152600401602060405180830381865afa15801561091f573d5f803e3d5ffd5b505050506040513d601f19601f820116820180604052508101906109439190612e0d565b8861293b565b6109b2836001600160a01b0316635dab24206040518163ffffffff1660e01b8152600401602060405180830381865afa158015610988573d5f803e3d5ffd5b505050506040513d601f19601f820116820180604052508101906109ac9190612e0d565b8761293b565b6109bc828561293b565b6109c6815f612825565b50505050505050565b6040516001906002905f906109e390612a1f565b604051809103905ff0801580156109fc573d5f803e3d5ffd5b50601f5460405163a1054f6b60e01b81529192505f916001600160a01b039091169063a1054f6b90610a3690879087908790600401612dea565b6020604051808303815f875af1158015610a52573d5f803e3d5ffd5b505050506040513d601f19601f82011682018060405250810190610a769190612e0d565b6040516340c10f1960e01b81526001600160a01b03808316600483015260016024830152919250908316906340c10f19906044015f604051808303815f87803b158015610ac1575f80fd5b505af1158015610ad3573d5f803e3d5ffd5b50505050610b41816001600160a01b031663b69ef8a86040518163ffffffff1660e01b8152600401602060405180830381865afa158015610b16573d5f803e3d5ffd5b505050506040513d601f19601f82011682018060405250810190610b3a9190612e2f565b6001612825565b7f885cb69240a935d632d79c317109709ecfa91a80626ff3989d68f67f5b1dd12d5f1c6001600160a01b031663f48448146040518163ffffffff1660e01b81526004015f604051808303815f87803b158015610b9b575f80fd5b505af1158015610bad573d5f803e3d5ffd5b50505050806001600160a01b031663757a55436040518163ffffffff1660e01b81526004015f604051808303815f87803b158015610be9575f80fd5b505af1158015610bfb573d5f803e3d5ffd5b50506040805180820182526014815273030b2323932b9b9941914903130b630b731b29d160651b602082015290516370a0823160e01b81526001600160a01b038781166004830152610c9c9450919250908516906370a0823190602401602060405180830381865afa158015610c73573d5f803e3d5ffd5b505050506040513d601f19601f82011682018060405250810190610c979190612e2f565b612983565b610d046040518060400160405280601081526020016f032b9b1b937bb903130b630b731b29d160851b815250826001600160a01b031663b69ef8a86040518163ffffffff1660e01b8152600401602060405180830381865afa158015610c73573d5f803e3d5ffd5b61058a816001600160a01b031663b69ef8a86040518163ffffffff1660e01b8152600401602060405180830381865afa158015610b16573d5f803e3d5ffd5b6060601d805480602002602001604051908101604052809291908181526020015f905b82821015610e76575f84815260208082206040805180820182526002870290920180546001600160a01b03168352600181018054835181870281018701909452808452939591948681019491929084015b82821015610e5f578382905f5260205f20018054610dd490612e8d565b80601f0160208091040260200160405190810160405280929190818152602001828054610e0090612e8d565b8015610e4b5780601f10610e2257610100808354040283529160200191610e4b565b820191905f5260205f20905b815481529060010190602001808311610e2e57829003601f168201915b505050505081526020019060010190610db7565b505050508152505081526020019060010190610d66565b50505050905090565b606060188054806020026020016040519081016040528092919081815260200182805480156107ca57602002820191905f5260205f209081546001600160a01b031681526001909101906020018083116107ac575050505050905090565b606060178054806020026020016040519081016040528092919081815260200182805480156107ca57602002820191905f5260205f209081546001600160a01b031681526001909101906020018083116107ac575050505050905090565b5f83604051610f49906129f8565b8190604051809103905ff5905080158015610f66573d5f803e3d5ffd5b50601f5460405163a1054f6b60e01b81529192505f916001600160a01b039091169063a1054f6b90610fa0908a908a908790600401612dea565b6020604051808303815f875af1158015610fbc573d5f803e3d5ffd5b505050506040513d601f19601f82011682018060405250810190610fe09190612e0d565b9050821561105157604051633b661b1b60e21b81526001600160a01b03871660048201527340c57923924b5c5c5455c48d93317139addac8fb9063ed986c6c906024015f604051808303815f87803b15801561103a575f80fd5b505af115801561104c573d5f803e3d5ffd5b505050505b6040516340c10f1960e01b81526001600160a01b038281166004830152602482018690528316906340c10f19906044015f604051808303815f87803b158015611098575f80fd5b505af11580156110aa573d5f803e3d5ffd5b50505050611117816001600160a01b031663b69ef8a86040518163ffffffff1660e01b8152600401602060405180830381865afa1580156110ed573d5f803e3d5ffd5b505050506040513d601f19601f820116820180604052508101906111119190612e2f565b85612825565b82156111d557604051630618f58760e51b81526268221d60e41b6004820152737109709ecfa91a80626ff3989d68f67f5b1dd12d9063c31eb0e0906024015f604051808303815f87803b15801561116c575f80fd5b505af115801561117e573d5f803e3d5ffd5b50505050806001600160a01b031663757a55436040518163ffffffff1660e01b81526004015f604051808303815f87803b1580156111ba575f80fd5b505af11580156111cc573d5f803e3d5ffd5b50505050611384565b6040516381bad6f360e01b8152737109709ecfa91a80626ff3989d68f67f5b1dd12d906381bad6f390611215906001908190819081908890600401612ec5565b5f604051808303815f87803b15801561122c575f80fd5b505af115801561123e573d5f803e3d5ffd5b50505050816001600160a01b0316866001600160a01b03167fddb6c73499c01e62ac80461b3609b0aa26779cb2da76ed6eff1f3e11ebae23488660405161128791815260200190565b60405180910390a360405163ca669fa760e01b81526001600160a01b0389166004820152737109709ecfa91a80626ff3989d68f67f5b1dd12d9063ca669fa7906024015f604051808303815f87803b1580156112e1575f80fd5b505af11580156112f3573d5f803e3d5ffd5b50505050806001600160a01b031663757a55436040518163ffffffff1660e01b81526004015f604051808303815f87803b15801561132f575f80fd5b505af1158015611341573d5f803e3d5ffd5b50505050611384816001600160a01b031663b69ef8a86040518163ffffffff1660e01b8152600401602060405180830381865afa158015610383573d5f803e3d5ffd5b5050505050505050565b601f5460405163a1054f6b60e01b81525f916001600160a01b03169063a1054f6b906113c290889088908890600401612dea565b6020604051808303815f875af11580156113de573d5f803e3d5ffd5b505050506040513d601f19601f820116820180604052508101906114029190612e0d565b9050811561147357604051633b661b1b60e21b81526001600160a01b03851660048201527340c57923924b5c5c5455c48d93317139addac8fb9063ed986c6c906024015f604051808303815f87803b15801561145c575f80fd5b505af115801561146e573d5f803e3d5ffd5b505050505b611556816001600160a01b031663a4972b476040518163ffffffff1660e01b8152600401602060405180830381865afa1580156114b2573d5f803e3d5ffd5b505050506040513d601f19601f820116820180604052508101906114d69190612e46565b60405163df592f7d60e01b81526001600160a01b03871660048201527340c57923924b5c5c5455c48d93317139addac8fb9063df592f7d90602401602060405180830381865afa15801561152c573d5f803e3d5ffd5b505050506040513d601f19601f820116820180604052508101906115509190612e46565b156128fa565b5050505050565b6040516001906002905f90611571906129f8565b604051809103905ff08015801561158a573d5f803e3d5ffd5b50601f5460405163a1054f6b60e01b81529192505f916001600160a01b039091169063a1054f6b906115c490879087908790600401612dea565b6020604051808303815f875af11580156115e0573d5f803e3d5ffd5b505050506040513d601f19601f820116820180604052508101906116049190612e0d565b6040516340c10f1960e01b81526001600160a01b03808316600483015260016024830152919250908316906340c10f19906044015f604051808303815f87803b15801561164f575f80fd5b505af1158015611661573d5f803e3d5ffd5b505050506116a4816001600160a01b031663b69ef8a86040518163ffffffff1660e01b8152600401602060405180830381865afa158015610b16573d5f803e3d5ffd5b604080518082019091526014815273030b2323932b9b9941914903130b630b731b29d160651b60208201526116db90600231612983565b6040516381bad6f360e01b8152737109709ecfa91a80626ff3989d68f67f5b1dd12d906381bad6f39061171b906001908190819081908890600401612ec5565b5f604051808303815f87803b158015611732575f80fd5b505af1158015611744573d5f803e3d5ffd5b50505050816001600160a01b0316836001600160a01b03167fddb6c73499c01e62ac80461b3609b0aa26779cb2da76ed6eff1f3e11ebae2348600160405161178e91815260200190565b60405180910390a3806001600160a01b031663757a55436040518163ffffffff1660e01b81526004015f604051808303815f87803b1580156117ce575f80fd5b505af11580156117e0573d5f803e3d5ffd5b5050505061058a816001600160a01b031663b69ef8a86040518163ffffffff1660e01b8152600401602060405180830381865afa158015610383573d5f803e3d5ffd5b6060601b805480602002602001604051908101604052809291908181526020015f905b82821015610e76575f8481526020908190206040805180820182526002860290920180546001600160a01b031683526001810180548351818702810187019094528084529394919385830193928301828280156118ec57602002820191905f5260205f20905f905b82829054906101000a900460e01b6001600160e01b031916815260200190600401906020826003010492830192600103820291508084116118ae5790505b50505050508152505081526020019060010190611846565b6040516001906002905f90611918906129f8565b604051809103905ff080158015611931573d5f803e3d5ffd5b50601f5460405163a1054f6b60e01b81529192505f916001600160a01b039091169063a1054f6b9061196b90879087908790600401612dea565b6020604051808303815f875af1158015611987573d5f803e3d5ffd5b505050506040513d601f19601f820116820180604052508101906119ab9190612e0d565b604051633b661b1b60e21b81526001600160a01b03851660048201529091507340c57923924b5c5c5455c48d93317139addac8fb9063ed986c6c906024015f604051808303815f87803b158015611a00575f80fd5b505af1158015611a12573d5f803e3d5ffd5b5050604051630618f58760e51b81526268221d60e41b6004820152737109709ecfa91a80626ff3989d68f67f5b1dd12d925063c31eb0e091506024015f604051808303815f87803b158015611a65575f80fd5b505af1158015611a77573d5f803e3d5ffd5b50505050806001600160a01b031663757a55436040518163ffffffff1660e01b81526004015f604051808303815f87803b158015611ab3575f80fd5b505af1158015611384573d5f803e3d5ffd5b6060601a805480602002602001604051908101604052809291908181526020015f905b82821015610e76578382905f5260205f20018054611b0590612e8d565b80601f0160208091040260200160405190810160405280929190818152602001828054611b3190612e8d565b8015611b7c5780601f10611b5357610100808354040283529160200191611b7c565b820191905f5260205f20905b815481529060010190602001808311611b5f57829003601f168201915b505050505081526020019060010190611ae8565b6060601c805480602002602001604051908101604052809291908181526020015f905b82821015610e76575f8481526020908190206040805180820182526002860290920180546001600160a01b03168352600181018054835181870281018701909452808452939491938583019392830182828015611c5957602002820191905f5260205f20905f905b82829054906101000a900460e01b6001600160e01b03191681526020019060040190602082600301049283019260010382029150808411611c1b5790505b50505050508152505081526020019060010190611bb3565b5f82604051611c7f906129f8565b8190604051809103905ff5905080158015611c9c573d5f803e3d5ffd5b50601f5460405163a1054f6b60e01b81529192505f916001600160a01b039091169063a1054f6b90611cd690899089908790600401612dea565b6020604051808303815f875af1158015611cf2573d5f803e3d5ffd5b505050506040513d601f19601f82011682018060405250810190611d169190612e0d565b90505f80826001600160a01b0316633d02b19c6040518163ffffffff1660e01b81526004016040805180830381865afa158015611d55573d5f803e3d5ffd5b505050506040513d601f19601f82011682018060405250810190611d799190612e61565b91509150611d87828561293b565b611d91815f612825565b6040516340c10f1960e01b81526001600160a01b038481166004830152602482018790528516906340c10f19906044015f604051808303815f87803b158015611dd8575f80fd5b505af1158015611dea573d5f803e3d5ffd5b50505050826001600160a01b0316633d02b19c6040518163ffffffff1660e01b81526004016040805180830381865afa158015611e29573d5f803e3d5ffd5b505050506040513d601f19601f82011682018060405250810190611e4d9190612e61565b9092509050611e5c828561293b565b6113848186612825565b60606019805480602002602001604051908101604052809291908181526020015f905b82821015610e76578382905f5260205f20018054611ea690612e8d565b80601f0160208091040260200160405190810160405280929190818152602001828054611ed290612e8d565b8015611f1d5780601f10611ef457610100808354040283529160200191611f1d565b820191905f5260205f20905b815481529060010190602001808311611f0057829003601f168201915b505050505081526020019060010190611e89565b6008545f9060ff1615611f48575060085460ff1690565b604051630667f9d760e41b8152737109709ecfa91a80626ff3989d68f67f5b1dd12d600482018190526519985a5b195960d21b60248301525f9163667f9d7090604401602060405180830381865afa158015611fa6573d5f803e3d5ffd5b505050506040513d601f19601f82011682018060405250810190611fca9190612e2f565b1415905090565b6040516001906002905f90611fe5906129f8565b604051809103905ff080158015611ffe573d5f803e3d5ffd5b50601f5460405163a1054f6b60e01b81529192505f916001600160a01b039091169063a1054f6b9061203890879087908790600401612dea565b6020604051808303815f875af1158015612054573d5f803e3d5ffd5b505050506040513d601f19601f820116820180604052508101906120789190612e0d565b90505f80826001600160a01b0316633d02b19c6040518163ffffffff1660e01b81526004016040805180830381865afa1580156120b7573d5f803e3d5ffd5b505050506040513d601f19601f820116820180604052508101906120db9190612e61565b915091506120e9828561293b565b6120f3815f612825565b6040516340c10f1960e01b81526001600160a01b038481166004830152600160248301528516906340c10f19906044015f604051808303815f87803b15801561213a575f80fd5b505af115801561214c573d5f803e3d5ffd5b50505050826001600160a01b0316633d02b19c6040518163ffffffff1660e01b81526004016040805180830381865afa15801561218b573d5f803e3d5ffd5b505050506040513d601f19601f820116820180604052508101906121af9190612e61565b90925090506121be828561293b565b610473816001612825565b6040516001906002905f906121dd906129f8565b604051809103905ff0801580156121f6573d5f803e3d5ffd5b50601f5460405163a1054f6b60e01b81529192505f916001600160a01b039091169063a1054f6b9061223090879087908790600401612dea565b6020604051808303815f875af115801561224c573d5f803e3d5ffd5b505050506040513d601f19601f820116820180604052508101906122709190612e0d565b604051633b661b1b60e21b81526001600160a01b03851660048201529091507340c57923924b5c5c5455c48d93317139addac8fb9063ed986c6c906024015f604051808303815f87803b1580156122c5575f80fd5b505af11580156122d7573d5f803e3d5ffd5b50506040516340c10f1960e01b81526001600160a01b03848116600483015260016024830152851692506340c10f1991506044015f604051808303815f87803b158015612322575f80fd5b505af1158015612334573d5f803e3d5ffd5b50505050612377816001600160a01b031663b69ef8a86040518163ffffffff1660e01b8152600401602060405180830381865afa158015610b16573d5f803e3d5ffd5b60405163ca669fa760e01b81526001600160a01b0385166004820152737109709ecfa91a80626ff3989d68f67f5b1dd12d9063ca669fa7906024015f604051808303815f87803b1580156123c9575f80fd5b505af11580156123db573d5f803e3d5ffd5b5050601f54604051630340c84d60e51b81526001600160a01b038781166004830152909116925063681909a091506024015f604051808303815f87803b158015612423575f80fd5b505af1158015612435573d5f803e3d5ffd5b50506040516381bad6f360e01b8152737109709ecfa91a80626ff3989d68f67f5b1dd12d92506381bad6f3915061171b906001908190819081908890600401612ec5565b6040516001906002905f9061248d906129f8565b604051809103905ff0801580156124a6573d5f803e3d5ffd5b50601f5460405163a1054f6b60e01b81529192505f916001600160a01b039091169063a1054f6b906124e090879087908790600401612dea565b6020604051808303815f875af11580156124fc573d5f803e3d5ffd5b505050506040513d601f19601f820116820180604052508101906125209190612e0d565b90505f80826001600160a01b0316633d02b19c6040518163ffffffff1660e01b81526004016040805180830381865afa15801561255f573d5f803e3d5ffd5b505050506040513d601f19601f820116820180604052508101906125839190612e61565b915091506125c6836001600160a01b0316637df1f1b96040518163ffffffff1660e01b8152600401602060405180830381865afa158015610988573d5f803e3d5ffd5b61262f836001600160a01b0316635dab24206040518163ffffffff1660e01b8152600401602060405180830381865afa158015612605573d5f803e3d5ffd5b505050506040513d601f19601f820116820180604052508101906126299190612e0d565b8661293b565b612639828561293b565b610473815f612825565b606060158054806020026020016040519081016040528092919081815260200182805480156107ca57602002820191905f5260205f209081546001600160a01b031681526001909101906020018083116107ac575050505050905090565b6040516001906002905f906126b5906129f8565b604051809103905ff0801580156126ce573d5f803e3d5ffd5b50601f5460405163a1054f6b60e01b81529192505f916001600160a01b039091169063a1054f6b9061270890879087908790600401612dea565b6020604051808303815f875af1158015612724573d5f803e3d5ffd5b505050506040513d601f19601f820116820180604052508101906127489190612e0d565b9050612789816001600160a01b031663b69ef8a86040518163ffffffff1660e01b8152600401602060405180830381865afa158015610383573d5f803e3d5ffd5b6040516340c10f1960e01b81526001600160a01b038281166004830152600160248301528316906340c10f19906044015f604051808303815f87803b1580156127d0575f80fd5b505af11580156127e2573d5f803e3d5ffd5b5050505061058a816001600160a01b031663b69ef8a86040518163ffffffff1660e01b8152600401602060405180830381865afa158015610b16573d5f803e3d5ffd5b60405163260a5b1560e21b81526004810183905260248101829052737109709ecfa91a80626ff3989d68f67f5b1dd12d906398296c54906044015b5f6040518083038186803b158015612876575f80fd5b505afa158015610473573d5f803e3d5ffd5b604051737109709ecfa91a80626ff3989d68f67f5b1dd12d9063b4d6c782907340c57923924b5c5c5455c48d93317139addac8fb906128c960208201612a2c565b6020820181038252601f19601f820116604052506040518363ffffffff1660e01b8152600401610561929190612ef5565b60405163f7fe347760e01b815282151560048201528115156024820152737109709ecfa91a80626ff3989d68f67f5b1dd12d9063f7fe347790604401612860565b6040516328a9b0fb60e11b81526001600160a01b03808416600483015282166024820152737109709ecfa91a80626ff3989d68f67f5b1dd12d9063515361f690604401612860565b6129c88282604051602401612999929190612f20565b60408051601f198184030181529190526020810180516001600160e01b0316632d839cb360e21b1790526129cc565b5050565b6129d5816129d8565b50565b80516a636f6e736f6c652e6c6f67602083015f808483855afa5050505050565b610ddc80612f4283390190565b61014580613d1e83390190565b610d7380613e6383390190565b610c1980614bd683390190565b610114806157ef83390190565b6001600160a01b03811681146129d5575f80fd5b5f805f8060808587031215612a60575f80fd5b8435612a6b81612a39565b93506020850135612a7b81612a39565b93969395505050506040820135916060013590565b602080825282518282018190525f9190848201906040850190845b81811015612ad05783516001600160a01b031683529284019291840191600101612aab565b50909695505050505050565b5f805f60608486031215612aee575f80fd5b8335612af981612a39565b92506020840135612b0981612a39565b929592945050506040919091013590565b5f81518084528060208401602086015e5f602082860101526020601f19601f83011685010191505092915050565b602080825282518282018190525f919060409081850190600581811b87018401888601875b84811015612bf657603f198a8403018652815180516001600160a01b03168452880151888401889052805188850181905290890190606081871b8601810191908601905f5b81811015612be057605f19888503018352612bce848651612b1a565b948d01949350918c0191600101612bb2565b5050509689019693505090870190600101612b6d565b50909998505050505050505050565b80151581146129d5575f80fd5b5f805f805f8060c08789031215612c27575f80fd5b8635612c3281612a39565b95506020870135612c4281612a39565b94506040870135612c5281612a39565b9350606087013592506080870135915060a0870135612c7081612c05565b809150509295509295509295565b5f805f8060808587031215612c91575f80fd5b8435612c9c81612a39565b93506020850135612cac81612a39565b92506040850135612cbc81612a39565b91506060850135612ccc81612c05565b939692955090935050565b5f60208083018184528085518083526040925060408601915060408160051b8701018488015f5b83811015612d7a57888303603f19018552815180516001600160a01b031684528701518784018790528051878501819052908801905f9060608601905b80831015612d655783516001600160e01b0319168252928a019260019290920191908a0190612d3b565b50968901969450505090860190600101612cfe565b509098975050505050505050565b5f60208083016020845280855180835260408601915060408160051b8701019250602087015f5b82811015612ddd57603f19888603018452612dcb858351612b1a565b94509285019290850190600101612daf565b5092979650505050505050565b6001600160a01b0393841681529183166020830152909116604082015260600190565b5f60208284031215612e1d575f80fd5b8151612e2881612a39565b9392505050565b5f60208284031215612e3f575f80fd5b5051919050565b5f60208284031215612e56575f80fd5b8151612e2881612c05565b5f8060408385031215612e72575f80fd5b8251612e7d81612a39565b6020939093015192949293505050565b600181811c90821680612ea157607f821691505b602082108103612ebf57634e487b7160e01b5f52602260045260245ffd5b50919050565b941515855292151560208501529015156040840152151560608301526001600160a01b0316608082015260a00190565b6001600160a01b03831681526040602082018190525f90612f1890830184612b1a565b949350505050565b604081525f612f326040830185612b1a565b9050826020830152939250505056fe60e060405234801561000f575f80fd5b506040518060400160405280600981526020016804d6f636b45524332360bc1b815250604051806040016040528060048152602001634d45524360e01b8152506012825f908161005f91906101bc565b50600161006c83826101bc565b5060ff81166080524660a05261008061008c565b60c052506102ed915050565b5f7f8b73c3c69bb8fe3d512ecc4cf759cc79239f7b179b0ffacaa9a75d522b39400f5f6040516100bc919061027b565b6040805191829003822060208301939093528101919091527fc89efdaa54c0f20c7adf612882df0950f5a951637e0307cdcb4c672f298b8bc660608201524660808201523060a082015260c00160405160208183030381529060405280519060200120905090565b634e487b7160e01b5f52604160045260245ffd5b600181811c9082168061014c57607f821691505b60208210810361016a57634e487b7160e01b5f52602260045260245ffd5b50919050565b601f8211156101b757805f5260205f20601f840160051c810160208510156101955750805b601f840160051c820191505b818110156101b4575f81556001016101a1565b50505b505050565b81516001600160401b038111156101d5576101d5610124565b6101e9816101e38454610138565b84610170565b602080601f83116001811461021c575f84156102055750858301515b5f19600386901b1c1916600185901b178555610273565b5f85815260208120601f198616915b8281101561024a5788860151825594840194600190910190840161022b565b508582101561026757878501515f19600388901b60f8161c191681555b505060018460011b0185555b505050505050565b5f80835461028881610138565b600182811680156102a057600181146102b5576102e1565b60ff19841687528215158302870194506102e1565b875f526020805f205f5b858110156102d85781548a8201529084019082016102bf565b50505082870194505b50929695505050505050565b60805160a05160c051610ac56103175f395f61044201525f61040d01525f61013f0152610ac55ff3fe608060405234801561000f575f80fd5b50600436106100cb575f3560e01c806340c10f191161008857806395d89b411161006357806395d89b41146101ce578063a9059cbb146101d6578063d505accf146101e9578063dd62ed3e146101fc575f80fd5b806340c10f191461017b57806370a08231146101905780637ecebe00146101af575f80fd5b806306fdde03146100cf578063095ea7b3146100ed57806318160ddd1461011057806323b872dd14610127578063313ce5671461013a5780633644e51514610173575b5f80fd5b6100d7610226565b6040516100e49190610839565b60405180910390f35b6101006100fb366004610889565b6102b1565b60405190151581526020016100e4565b61011960025481565b6040519081526020016100e4565b6101006101353660046108b1565b61031d565b6101617f000000000000000000000000000000000000000000000000000000000000000081565b60405160ff90911681526020016100e4565b61011961040a565b61018e610189366004610889565b610464565b005b61011961019e3660046108ea565b60036020525f908152604090205481565b6101196101bd3660046108ea565b60056020525f908152604090205481565b6100d7610472565b6101006101e4366004610889565b61047f565b61018e6101f736600461090a565b6104f5565b61011961020a366004610977565b600460209081525f928352604080842090915290825290205481565b5f8054610232906109a8565b80601f016020809104026020016040519081016040528092919081815260200182805461025e906109a8565b80156102a95780601f10610280576101008083540402835291602001916102a9565b820191905f5260205f20905b81548152906001019060200180831161028c57829003601f168201915b505050505081565b335f8181526004602090815260408083206001600160a01b038716808552925280832085905551919290917f8c5be1e5ebec7d5bd14f71427d1e84f3dd0314c0f7b2291e5b200ac8c7c3b9259061030b9086815260200190565b60405180910390a35060015b92915050565b6001600160a01b0383165f9081526004602090815260408083203384529091528120545f1981146103765761035283826109f4565b6001600160a01b0386165f9081526004602090815260408083203384529091529020555b6001600160a01b0385165f908152600360205260408120805485929061039d9084906109f4565b90915550506001600160a01b038085165f81815260036020526040908190208054870190555190918716907fddf252ad1be2c89b69c2b068fc378daa952ba7f163c4a11628f55a4df523b3ef906103f79087815260200190565b60405180910390a3506001949350505050565b5f7f0000000000000000000000000000000000000000000000000000000000000000461461043f5761043a610738565b905090565b507f000000000000000000000000000000000000000000000000000000000000000090565b61046e82826107d0565b5050565b60018054610232906109a8565b335f9081526003602052604081208054839190839061049f9084906109f4565b90915550506001600160a01b0383165f81815260036020526040908190208054850190555133907fddf252ad1be2c89b69c2b068fc378daa952ba7f163c4a11628f55a4df523b3ef9061030b9086815260200190565b4284101561054a5760405162461bcd60e51b815260206004820152601760248201527f5045524d49545f444541444c494e455f4558504952454400000000000000000060448201526064015b60405180910390fd5b5f600161055561040a565b6001600160a01b038a81165f8181526005602090815260409182902080546001810190915582517f6e71edae12b1b97f4d1f60370fef10105fa2faae0126114a169c64845d6126c98184015280840194909452938d166060840152608083018c905260a083019390935260c08083018b90528151808403909101815260e08301909152805192019190912061190160f01b6101008301526101028201929092526101228101919091526101420160408051601f1981840301815282825280516020918201205f84529083018083525260ff871690820152606081018590526080810184905260a0016020604051602081039080840390855afa15801561065d573d5f803e3d5ffd5b5050604051601f1901519150506001600160a01b038116158015906106935750876001600160a01b0316816001600160a01b0316145b6106d05760405162461bcd60e51b815260206004820152600e60248201526d24a72b20a624a22fa9a4a3a722a960911b6044820152606401610541565b6001600160a01b039081165f9081526004602090815260408083208a8516808552908352928190208990555188815291928a16917f8c5be1e5ebec7d5bd14f71427d1e84f3dd0314c0f7b2291e5b200ac8c7c3b925910160405180910390a350505050505050565b5f7f8b73c3c69bb8fe3d512ecc4cf759cc79239f7b179b0ffacaa9a75d522b39400f5f6040516107689190610a07565b6040805191829003822060208301939093528101919091527fc89efdaa54c0f20c7adf612882df0950f5a951637e0307cdcb4c672f298b8bc660608201524660808201523060a082015260c00160405160208183030381529060405280519060200120905090565b8060025f8282546107e19190610aa5565b90915550506001600160a01b0382165f818152600360209081526040808320805486019055518481527fddf252ad1be2c89b69c2b068fc378daa952ba7f163c4a11628f55a4df523b3ef910160405180910390a35050565b602081525f82518060208401528060208501604085015e5f604082850101526040601f19601f83011684010191505092915050565b80356001600160a01b0381168114610884575f80fd5b919050565b5f806040838503121561089a575f80fd5b6108a38361086e565b946020939093013593505050565b5f805f606084860312156108c3575f80fd5b6108cc8461086e565b92506108da6020850161086e565b9150604084013590509250925092565b5f602082840312156108fa575f80fd5b6109038261086e565b9392505050565b5f805f805f805f60e0888a031215610920575f80fd5b6109298861086e565b96506109376020890161086e565b95506040880135945060608801359350608088013560ff8116811461095a575f80fd5b9699959850939692959460a0840135945060c09093013592915050565b5f8060408385031215610988575f80fd5b6109918361086e565b915061099f6020840161086e565b90509250929050565b600181811c908216806109bc57607f821691505b6020821081036109da57634e487b7160e01b5f52602260045260245ffd5b50919050565b634e487b7160e01b5f52601160045260245ffd5b81810381811115610317576103176109e0565b5f8083545f60018260011c91506001831680610a2457607f831692505b60208084108203610a4357634e487b7160e01b5f52602260045260245ffd5b818015610a575760018114610a6c57610a97565b60ff1986168952841515850289019650610a97565b5f8a8152602090205f5b86811015610a8f5781548b820152908501908301610a76565b505084890196505b509498975050505050505050565b80820180821115610317576103176109e056fea164736f6c6343000819000a6080604052348015600e575f80fd5b506101298061001c5f395ff3fe608060405234801561000f575f80fd5b5060043610610034575f3560e01c80630453b29e146100385780634a58e49e14610072575b5f80fd5b6100706100463660046100c3565b6001600160a01b03919091165f908152602081905260409020805460ff1916911515919091179055565b005b6100946100803660046100fc565b5f6020819052908152604090205460ff1681565b604051901515815260200160405180910390f35b80356001600160a01b03811681146100be575f80fd5b919050565b5f80604083850312156100d4575f80fd5b6100dd836100a8565b9150602083013580151581146100f1575f80fd5b809150509250929050565b5f6020828403121561010c575f80fd5b610115826100a8565b939250505056fea164736f6c6343000819000a60c060405234801561000f575f80fd5b50604051610d73380380610d7383398101604081905261002e916100ab565b6001600160a01b0380831660a05281166080526100896040805160608101825260018082526020820181905291018190525f80546001600160a01b031990811683179091558154811682178255600280549091169091179055565b50506100dc565b80516001600160a01b03811681146100a6575f80fd5b919050565b5f80604083850312156100bc575f80fd5b6100c583610090565b91506100d360208401610090565b90509250929050565b60805160a051610c6f6101045f395f61016b01525f818161014401526103a50152610c6f5ff3fe608060405234801561000f575f80fd5b50600436106100a6575f3560e01c8063546355701161006e5780635463557014610166578063681909a01461018d57806395c09839146101a0578063a1054f6b146101b3578063b1d62668146101c6578063b8b453611461020f575f80fd5b806306e74444146100aa5780631cdf58b0146100d2578063380c3431146100fd578063490a86531461012a5780634973203d1461013f575b5f80fd5b6100bd6100b8366004610608565b610225565b60405190151581526020015b60405180910390f35b6100e56100e0366004610639565b610267565b6040516001600160a01b0390911681526020016100c9565b6100bd61010b366004610608565b600360209081525f928352604080842090915290825290205460ff1681565b61013d610138366004610679565b6102d7565b005b6100e57f000000000000000000000000000000000000000000000000000000000000000081565b6100e57f000000000000000000000000000000000000000000000000000000000000000081565b61013d61019b366004610679565b61032c565b6100bd6101ae366004610679565b610384565b6100e56101c1366004610639565b610416565b5f546001546002546101e5926001600160a01b03908116928116911683565b604080516001600160a01b03948516815292841660208401529216918101919091526060016100c9565b6102176105b3565b6040519081526020016100c9565b6001600160a01b038083165f90815260036020908152604080832093851683529290529081205460ff16158015610260575061026082610384565b9392505050565b604080515f858152602085905283835260608120919092525f60405180602001610290906105e0565b601f1982820381018352601f909101166040818152825160209384012060ff60a01b30175f52949092529281526055600b20929052506001600160a01b0316949350505050565b335f8181526003602090815260408083206001600160a01b0386168085529252808320805460ff19169055519092917f23bb3a3ab36fcdc5884abde2529508c7edd18ebea79d7213cd6632c71086216e91a350565b335f8181526003602090815260408083206001600160a01b0386168085529252808320805460ff19166001179055519092917ff7314dc6493fd11dd1939dc062aeea73f1c783016ddb31776a402712098e5db591a350565b60405163df592f7d60e01b81526001600160a01b0382811660048301525f917f00000000000000000000000000000000000000000000000000000000000000009091169063df592f7d90602401602060405180830381865afa1580156103ec573d5f803e3d5ffd5b505050506040513d601f19601f820116820180604052508101906104109190610692565b92915050565b5f610422848484610267565b9050806001600160a01b03163b5f036102605760408051606080820183526001600160a01b0387811680845287821660208086018290529288169486018590525f80546001600160a01b03199081169093178155600180548416909217909155600280549092169094179055835188845290879052858452912091526040516104aa906105e0565b8190604051809103905ff59050801580156104c7573d5f803e3d5ffd5b5050816001600160a01b0316836001600160a01b0316856001600160a01b03167f23e05aa548aba14c84d0a45e65bab80c7409d1a00129f53cfdf85bed0b5fbb2560405160405180910390a46001600160a01b038085165f81815260036020908152604080832094861680845294909152808220805460ff19166001179055517ff7314dc6493fd11dd1939dc062aeea73f1c783016ddb31776a402712098e5db59190a36102606040805160608101825260018082526020820181905291018190525f80546001600160a01b031990811683179091558154811682178255600280549091169091179055565b6040516105c2602082016105e0565b6020820181038252601f19601f820116604052508051906020012081565b6105b1806106b283390190565b80356001600160a01b0381168114610603575f80fd5b919050565b5f8060408385031215610619575f80fd5b610622836105ed565b9150610630602084016105ed565b90509250929050565b5f805f6060848603121561064b575f80fd5b610654846105ed565b9250610662602085016105ed565b9150610670604085016105ed565b90509250925092565b5f60208284031215610689575f80fd5b610260826105ed565b5f602082840312156106a2575f80fd5b81518015158114610260575f80fdfe610100604052348015610010575f80fd5b503360808190526040805163163ac4cd60e31b8152905163b1d62668916004808201926060929091908290030181865afa158015610050573d5f803e3d5ffd5b505050506040513d601f19601f8201168201806040525081019061007491906100ac565b6001600160a01b0390811660e05290811660c0521660a0526100ec565b80516001600160a01b03811681146100a7575f80fd5b919050565b5f805f606084860312156100be575f80fd5b6100c784610091565b92506100d560208501610091565b91506100e360408501610091565b90509250925092565b60805160a05160c05160e05161046a6101475f395f8181610173015281816101f4015261036a01525f818160af015281816101d301526102b801525f818160f8015261029001525f818161014d01526102e2015261046a5ff3fe608060405234801561000f575f80fd5b506004361061007a575f3560e01c80637df1f1b9116100585780637df1f1b9146100f3578063a4972b471461011a578063b69ef8a814610132578063f58c251c14610148575f80fd5b80633d02b19c1461007e5780635dab2420146100aa578063757a5543146100e9575b5f80fd5b61008661016f565b604080516001600160a01b0390931683526020830191909152015b60405180910390f35b6100d17f000000000000000000000000000000000000000000000000000000000000000081565b6040516001600160a01b0390911681526020016100a1565b6100f16101a2565b005b6100d17f000000000000000000000000000000000000000000000000000000000000000081565b610122610279565b60405190151581526020016100a1565b61013a610353565b6040519081526020016100a1565b6100d17f000000000000000000000000000000000000000000000000000000000000000081565b5f807f000000000000000000000000000000000000000000000000000000000000000061019a610353565b915091509091565b6101aa610279565b6101c6576040516268221d60e41b815260040160405180910390fd5b5f6101cf610353565b90507f00000000000000000000000000000000000000000000000000000000000000007f00000000000000000000000000000000000000000000000000000000000000006102276001600160a01b03821683856103e0565b806001600160a01b0316826001600160a01b03167fddb6c73499c01e62ac80461b3609b0aa26779cb2da76ed6eff1f3e11ebae23488560405161026c91815260200190565b60405180910390a3505050565b6040516301b9d11160e21b81526001600160a01b037f0000000000000000000000000000000000000000000000000000000000000000811660048301527f0000000000000000000000000000000000000000000000000000000000000000811660248301525f917f0000000000000000000000000000000000000000000000000000000000000000909116906306e7444490604401602060405180830381865afa158015610329573d5f803e3d5ffd5b505050506040513d601f19601f8201168201806040525081019061034d9190610420565b15905090565b6040516370a0823160e01b81523060048201525f907f00000000000000000000000000000000000000000000000000000000000000006001600160a01b0316906370a0823190602401602060405180830381865afa1580156103b7573d5f803e3d5ffd5b505050506040513d601f19601f820116820180604052508101906103db9190610446565b905090565b816014528060345263a9059cbb60601b5f5260205f604460105f875af13d1560015f51141716610417576390b8ec185f526004601cfd5b5f603452505050565b5f60208284031215610430575f80fd5b8151801515811461043f575f80fd5b9392505050565b5f60208284031215610456575f80fd5b505191905056fea164736f6c6343000819000aa164736f6c6343000819000a608060405234801561000f575f80fd5b506040518060400160405280601081526020016f04d6f636b4661696c696e6745524332360841b815250604051806040016040528060038152602001624d464560e81b81525081600390816100649190610111565b5060046100718282610111565b5050506101d0565b634e487b7160e01b5f52604160045260245ffd5b600181811c908216806100a157607f821691505b6020821081036100bf57634e487b7160e01b5f52602260045260245ffd5b50919050565b601f82111561010c57805f5260205f20601f840160051c810160208510156100ea5750805b601f840160051c820191505b81811015610109575f81556001016100f6565b50505b505050565b81516001600160401b0381111561012a5761012a610079565b61013e81610138845461008d565b846100c5565b602080601f831160018114610171575f841561015a5750858301515b5f19600386901b1c1916600185901b1785556101c8565b5f85815260208120601f198616915b8281101561019f57888601518255948401946001909101908401610180565b50858210156101bc57878501515f19600388901b60f8161c191681555b505060018460011b0185555b505050505050565b610a3c806101dd5f395ff3fe608060405234801561000f575f80fd5b50600436106100b1575f3560e01c806340c10f191161006e57806340c10f191461013d57806370a082311461015257806395d89b411461017a578063a457c2d714610182578063a9059cbb14610195578063dd62ed3e146101a8575f80fd5b806306fdde03146100b5578063095ea7b3146100d357806318160ddd146100f657806323b872dd14610108578063313ce5671461011b578063395093511461012a575b5f80fd5b6100bd6101bb565b6040516100ca91906108d6565b60405180910390f35b6100e66100e1366004610926565b61024b565b60405190151581526020016100ca565b6002545b6040519081526020016100ca565b6100e661011636600461094e565b610264565b604051601281526020016100ca565b6100e6610138366004610926565b610287565b61015061014b366004610926565b6102a8565b005b6100fa610160366004610987565b6001600160a01b03165f9081526020819052604090205490565b6100bd6102b6565b6100e6610190366004610926565b6102c5565b6100e66101a3366004610926565b610344565b6100fa6101b63660046109a7565b610389565b6060600380546101ca906109d8565b80601f01602080910402602001604051908101604052809291908181526020018280546101f6906109d8565b80156102415780601f1061021857610100808354040283529160200191610241565b820191905f5260205f20905b81548152906001019060200180831161022457829003601f168201915b5050505050905090565b5f336102588185856103b3565b60019150505b92915050565b5f336102718582856104d7565b61027c85858561054f565b506001949350505050565b5f336102588185856102998383610389565b6102a39190610a10565b6103b3565b6102b282826106f1565b5050565b6060600480546101ca906109d8565b5f33816102d28286610389565b9050838110156103375760405162461bcd60e51b815260206004820152602560248201527f45524332303a2064656372656173656420616c6c6f77616e63652062656c6f77604482015264207a65726f60d81b60648201526084015b60405180910390fd5b61027c82868684036103b3565b5f61034f33836107ae565b60405162461bcd60e51b815260206004820152600f60248201526e151c985b9cd9995c8819985a5b1959608a1b604482015260640161032e565b6001600160a01b039182165f90815260016020908152604080832093909416825291909152205490565b6001600160a01b0383166104155760405162461bcd60e51b8152602060048201526024808201527f45524332303a20617070726f76652066726f6d20746865207a65726f206164646044820152637265737360e01b606482015260840161032e565b6001600160a01b0382166104765760405162461bcd60e51b815260206004820152602260248201527f45524332303a20617070726f766520746f20746865207a65726f206164647265604482015261737360f01b606482015260840161032e565b6001600160a01b038381165f8181526001602090815260408083209487168084529482529182902085905590518481527f8c5be1e5ebec7d5bd14f71427d1e84f3dd0314c0f7b2291e5b200ac8c7c3b92591015b60405180910390a3505050565b5f6104e28484610389565b90505f198114610549578181101561053c5760405162461bcd60e51b815260206004820152601d60248201527f45524332303a20696e73756666696369656e7420616c6c6f77616e6365000000604482015260640161032e565b61054984848484036103b3565b50505050565b6001600160a01b0383166105b35760405162461bcd60e51b815260206004820152602560248201527f45524332303a207472616e736665722066726f6d20746865207a65726f206164604482015264647265737360d81b606482015260840161032e565b6001600160a01b0382166106155760405162461bcd60e51b815260206004820152602360248201527f45524332303a207472616e7366657220746f20746865207a65726f206164647260448201526265737360e81b606482015260840161032e565b6001600160a01b0383165f908152602081905260409020548181101561068c5760405162461bcd60e51b815260206004820152602660248201527f45524332303a207472616e7366657220616d6f756e7420657863656564732062604482015265616c616e636560d01b606482015260840161032e565b6001600160a01b038481165f81815260208181526040808320878703905593871680835291849020805487019055925185815290927fddf252ad1be2c89b69c2b068fc378daa952ba7f163c4a11628f55a4df523b3ef910160405180910390a3610549565b6001600160a01b0382166107475760405162461bcd60e51b815260206004820152601f60248201527f45524332303a206d696e7420746f20746865207a65726f206164647265737300604482015260640161032e565b8060025f8282546107589190610a10565b90915550506001600160a01b0382165f81815260208181526040808320805486019055518481527fddf252ad1be2c89b69c2b068fc378daa952ba7f163c4a11628f55a4df523b3ef910160405180910390a35050565b6001600160a01b03821661080e5760405162461bcd60e51b815260206004820152602160248201527f45524332303a206275726e2066726f6d20746865207a65726f206164647265736044820152607360f81b606482015260840161032e565b6001600160a01b0382165f90815260208190526040902054818110156108815760405162461bcd60e51b815260206004820152602260248201527f45524332303a206275726e20616d6f756e7420657863656564732062616c616e604482015261636560f01b606482015260840161032e565b6001600160a01b0383165f818152602081815260408083208686039055600280548790039055518581529192917fddf252ad1be2c89b69c2b068fc378daa952ba7f163c4a11628f55a4df523b3ef91016104ca565b602081525f82518060208401528060208501604085015e5f604082850101526040601f19601f83011684010191505092915050565b80356001600160a01b0381168114610921575f80fd5b919050565b5f8060408385031215610937575f80fd5b6109408361090b565b946020939093013593505050565b5f805f60608486031215610960575f80fd5b6109698461090b565b92506109776020850161090b565b9150604084013590509250925092565b5f60208284031215610997575f80fd5b6109a08261090b565b9392505050565b5f80604083850312156109b8575f80fd5b6109c18361090b565b91506109cf6020840161090b565b90509250929050565b600181811c908216806109ec57607f821691505b602082108103610a0a57634e487b7160e01b5f52602260045260245ffd5b50919050565b8082018082111561025e57634e487b7160e01b5f52601160045260245ffdfea164736f6c6343000819000a608060405234801561000f575f80fd5b506004361061003f575f3560e01c8063298eb83f14610043578063df592f7d14610073578063ed986c6c146100a9575b5f80fd5b6100716100513660046100da565b6001600160a01b03165f908152602081905260409020805460ff19169055565b005b6100956100813660046100da565b5f6020819052908152604090205460ff1681565b604051901515815260200160405180910390f35b6100716100b73660046100da565b6001600160a01b03165f908152602081905260409020805460ff19166001179055565b5f602082840312156100ea575f80fd5b81356001600160a01b0381168114610100575f80fd5b939250505056fea164736f6c6343000819000aa164736f6c6343000819000a","linkReferences":{}},"methodIdentifiers":{"excludeArtifacts()":"b5508aa9","excludeContracts()":"e20c9f71","excludeSenders()":"1ed7831c","failed()":"ba414fa6","setUp()":"0a9254e4","targetArtifactSelectors()":"66d9a9a0","targetArtifacts()":"85226c81","targetContracts()":"3f7286f4","targetInterfaces()":"2ade3880","targetSelectors()":"916a17c6","targetSenders()":"3e5e3c23","testBalance()":"edede601","testCanReleaseEscrow()":"10448ff4","testEscrowedAsset()":"c6276669","testFail_ReleaseEscrowTransferFailure()":"2a1b371c","testFuzzBalance(address,address,bytes32,uint256)":"05dbfaab","testFuzzCanReleaseEscrow(address,address,address,bool)":"49a7c34d","testFuzzEscrowedAsset(address,address,bytes32,uint256)":"b2a0eca9","testFuzzImmutables(address,address,bytes32)":"254e2a51","testFuzzReleaseEscrow(address,address,address,bytes32,uint256,bool)":"45f9e312","testImmutables()":"e0e779f8","testReleaseEscrowCanNotReleaseEscrow()":"6a8b6699","testReleaseEscrowNotSanctioned()":"552cf403","testReleaseEscrowWithOverride()":"dce3b4d3"},"id":38}