{"abi":[{"type":"constructor","inputs":[],"stateMutability":"nonpayable"},{"type":"function","name":"excludeArtifacts","inputs":[],"outputs":[{"name":"excludedArtifacts_","type":"string[]","internalType":"string[]"}],"stateMutability":"view"},{"type":"function","name":"excludeContracts","inputs":[],"outputs":[{"name":"excludedContracts_","type":"address[]","internalType":"address[]"}],"stateMutability":"view"},{"type":"function","name":"excludeSenders","inputs":[],"outputs":[{"name":"excludedSenders_","type":"address[]","internalType":"address[]"}],"stateMutability":"view"},{"type":"function","name":"failed","inputs":[],"outputs":[{"name":"","type":"bool","internalType":"bool"}],"stateMutability":"view"},{"type":"function","name":"targetArtifactSelectors","inputs":[],"outputs":[{"name":"targetedArtifactSelectors_","type":"tuple[]","internalType":"struct StdInvariant.FuzzSelector[]","components":[{"name":"addr","type":"address","internalType":"address"},{"name":"selectors","type":"bytes4[]","internalType":"bytes4[]"}]}],"stateMutability":"view"},{"type":"function","name":"targetArtifacts","inputs":[],"outputs":[{"name":"targetedArtifacts_","type":"string[]","internalType":"string[]"}],"stateMutability":"view"},{"type":"function","name":"targetContracts","inputs":[],"outputs":[{"name":"targetedContracts_","type":"address[]","internalType":"address[]"}],"stateMutability":"view"},{"type":"function","name":"targetInterfaces","inputs":[],"outputs":[{"name":"targetedInterfaces_","type":"tuple[]","internalType":"struct StdInvariant.FuzzInterface[]","components":[{"name":"addr","type":"address","internalType":"address"},{"name":"artifacts","type":"string[]","internalType":"string[]"}]}],"stateMutability":"view"},{"type":"function","name":"targetSelectors","inputs":[],"outputs":[{"name":"targetedSelectors_","type":"tuple[]","internalType":"struct StdInvariant.FuzzSelector[]","components":[{"name":"addr","type":"address","internalType":"address"},{"name":"selectors","type":"bytes4[]","internalType":"bytes4[]"}]}],"stateMutability":"view"},{"type":"function","name":"targetSenders","inputs":[],"outputs":[{"name":"targetedSenders_","type":"address[]","internalType":"address[]"}],"stateMutability":"view"},{"type":"event","name":"ChangedSpherexEngineAddress","inputs":[{"name":"oldEngineAddress","type":"address","indexed":false,"internalType":"address"},{"name":"newEngineAddress","type":"address","indexed":false,"internalType":"address"}],"anonymous":false},{"type":"event","name":"ChangedSpherexOperator","inputs":[{"name":"oldSphereXAdmin","type":"address","indexed":false,"internalType":"address"},{"name":"newSphereXAdmin","type":"address","indexed":false,"internalType":"address"}],"anonymous":false},{"type":"event","name":"ControllerAdded","inputs":[{"name":"controllerFactory","type":"address","indexed":true,"internalType":"address"},{"name":"controller","type":"address","indexed":false,"internalType":"address"}],"anonymous":false},{"type":"event","name":"HooksTemplateAdded","inputs":[{"name":"hooksTemplate","type":"address","indexed":false,"internalType":"address"},{"name":"name","type":"string","indexed":false,"internalType":"string"},{"name":"feeRecipient","type":"address","indexed":false,"internalType":"address"},{"name":"originationFeeAsset","type":"address","indexed":false,"internalType":"address"},{"name":"originationFeeAmount","type":"uint80","indexed":false,"internalType":"uint80"},{"name":"protocolFeeBips","type":"uint16","indexed":false,"internalType":"uint16"}],"anonymous":false},{"type":"event","name":"MarketAdded","inputs":[{"name":"controller","type":"address","indexed":true,"internalType":"address"},{"name":"market","type":"address","indexed":false,"internalType":"address"}],"anonymous":false},{"type":"event","name":"NewAllowedSenderOnchain","inputs":[{"name":"sender","type":"address","indexed":false,"internalType":"address"}],"anonymous":false},{"type":"event","name":"NewController","inputs":[{"name":"borrower","type":"address","indexed":false,"internalType":"address"},{"name":"controller","type":"address","indexed":false,"internalType":"address"}],"anonymous":false},{"type":"event","name":"NewSenderOnEngine","inputs":[{"name":"sender","type":"address","indexed":false,"internalType":"address"}],"anonymous":false},{"type":"event","name":"SpherexAdminTransferCompleted","inputs":[{"name":"oldAdmin","type":"address","indexed":false,"internalType":"address"},{"name":"newAdmin","type":"address","indexed":false,"internalType":"address"}],"anonymous":false},{"type":"event","name":"SpherexAdminTransferStarted","inputs":[{"name":"currentAdmin","type":"address","indexed":false,"internalType":"address"},{"name":"pendingAdmin","type":"address","indexed":false,"internalType":"address"}],"anonymous":false},{"type":"event","name":"UpdateProtocolFeeConfiguration","inputs":[{"name":"feeRecipient","type":"address","indexed":false,"internalType":"address"},{"name":"protocolFeeBips","type":"uint16","indexed":false,"internalType":"uint16"},{"name":"originationFeeAsset","type":"address","indexed":false,"internalType":"address"},{"name":"originationFeeAmount","type":"uint256","indexed":false,"internalType":"uint256"}],"anonymous":false},{"type":"event","name":"log","inputs":[{"name":"","type":"string","indexed":false,"internalType":"string"}],"anonymous":false},{"type":"event","name":"log_address","inputs":[{"name":"","type":"address","indexed":false,"internalType":"address"}],"anonymous":false},{"type":"event","name":"log_array","inputs":[{"name":"val","type":"uint256[]","indexed":false,"internalType":"uint256[]"}],"anonymous":false},{"type":"event","name":"log_array","inputs":[{"name":"val","type":"int256[]","indexed":false,"internalType":"int256[]"}],"anonymous":false},{"type":"event","name":"log_array","inputs":[{"name":"val","type":"address[]","indexed":false,"internalType":"address[]"}],"anonymous":false},{"type":"event","name":"log_bytes","inputs":[{"name":"","type":"bytes","indexed":false,"internalType":"bytes"}],"anonymous":false},{"type":"event","name":"log_bytes32","inputs":[{"name":"","type":"bytes32","indexed":false,"internalType":"bytes32"}],"anonymous":false},{"type":"event","name":"log_int","inputs":[{"name":"","type":"int256","indexed":false,"internalType":"int256"}],"anonymous":false},{"type":"event","name":"log_named_address","inputs":[{"name":"key","type":"string","indexed":false,"internalType":"string"},{"name":"val","type":"address","indexed":false,"internalType":"address"}],"anonymous":false},{"type":"event","name":"log_named_array","inputs":[{"name":"key","type":"string","indexed":false,"internalType":"string"},{"name":"val","type":"uint256[]","indexed":false,"internalType":"uint256[]"}],"anonymous":false},{"type":"event","name":"log_named_array","inputs":[{"name":"key","type":"string","indexed":false,"internalType":"string"},{"name":"val","type":"int256[]","indexed":false,"internalType":"int256[]"}],"anonymous":false},{"type":"event","name":"log_named_array","inputs":[{"name":"key","type":"string","indexed":false,"internalType":"string"},{"name":"val","type":"address[]","indexed":false,"internalType":"address[]"}],"anonymous":false},{"type":"event","name":"log_named_bytes","inputs":[{"name":"key","type":"string","indexed":false,"internalType":"string"},{"name":"val","type":"bytes","indexed":false,"internalType":"bytes"}],"anonymous":false},{"type":"event","name":"log_named_bytes32","inputs":[{"name":"key","type":"string","indexed":false,"internalType":"string"},{"name":"val","type":"bytes32","indexed":false,"internalType":"bytes32"}],"anonymous":false},{"type":"event","name":"log_named_decimal_int","inputs":[{"name":"key","type":"string","indexed":false,"internalType":"string"},{"name":"val","type":"int256","indexed":false,"internalType":"int256"},{"name":"decimals","type":"uint256","indexed":false,"internalType":"uint256"}],"anonymous":false},{"type":"event","name":"log_named_decimal_uint","inputs":[{"name":"key","type":"string","indexed":false,"internalType":"string"},{"name":"val","type":"uint256","indexed":false,"internalType":"uint256"},{"name":"decimals","type":"uint256","indexed":false,"internalType":"uint256"}],"anonymous":false},{"type":"event","name":"log_named_int","inputs":[{"name":"key","type":"string","indexed":false,"internalType":"string"},{"name":"val","type":"int256","indexed":false,"internalType":"int256"}],"anonymous":false},{"type":"event","name":"log_named_string","inputs":[{"name":"key","type":"string","indexed":false,"internalType":"string"},{"name":"val","type":"string","indexed":false,"internalType":"string"}],"anonymous":false},{"type":"event","name":"log_named_uint","inputs":[{"name":"key","type":"string","indexed":false,"internalType":"string"},{"name":"val","type":"uint256","indexed":false,"internalType":"uint256"}],"anonymous":false},{"type":"event","name":"log_string","inputs":[{"name":"","type":"string","indexed":false,"internalType":"string"}],"anonymous":false},{"type":"event","name":"log_uint","inputs":[{"name":"","type":"uint256","indexed":false,"internalType":"uint256"}],"anonymous":false},{"type":"event","name":"logs","inputs":[{"name":"","type":"bytes","indexed":false,"internalType":"bytes"}],"anonymous":false}],"bytecode":{"object":"0x6080604052600c805460ff19166001179055602880546001600160a01b03199081163017909155602980549091166308374708179055348015610040575f80fd5b5061004961005b565b610056636634cf86610067565b6111a4565b6100656001610098565b565b8060405161007490610f14565b908152602001604051809103905ff080158015610093573d5f803e3d5ffd5b505050565b6100a130610777565b6100a96108a6565b6040516100b590610f21565b604051809103905ff0801580156100ce573d5f803e3d5ffd5b50602080546001600160a01b0319166001600160a01b03929092169190911790558015610102576100fd610941565b610113565b602a80546001600160a01b03191690555b61011b610a8c565b6020546040516001600160a01b039091169061013690610f2f565b6001600160a01b039091168152602001604051809103905ff08015801561015f573d5f803e3d5ffd5b50602380546001600160a01b0319166001600160a01b03929092169190911790555f8061018a610b5a565b6020546023546040519395509193506001600160a01b0390811692911690849084906101b590610f3d565b6001600160a01b0394851681529284166020840152921660408201526060810191909152608001604051809103905ff0801580156101f5573d5f803e3d5ffd5b50601f80546001600160a01b0319166001600160a01b039283169081179091556020546040516306d3d44b60e21b8152600481019290925290911690631b4f512c906024015f604051808303815f87803b158015610251575f80fd5b505af1158015610263573d5f803e3d5ffd5b5050601f5460408051808201909152600c81526b486f6f6b73466163746f727960a01b60208201526102a293506001600160a01b039091169150610b9b565b6020546040516386b9620d60e01b81526001600160a01b0390911660048201525f80516020620129a9833981519152906386b9620d906024015f604051808303815f87803b1580156102f2575f80fd5b505af1158015610304573d5f803e3d5ffd5b5050601f546040516001600160a01b0390911680825292507f09703263c91de41f96b822b3995609acf9858ba081d151c4e7ec3398085ae326915060200160405180910390a2601f5f9054906101000a90046001600160a01b03166001600160a01b03166341f259b86040518163ffffffff1660e01b81526004015f604051808303815f87803b158015610396575f80fd5b505af11580156103a8573d5f803e3d5ffd5b5050601f5460408051808201909152600c81526b486f6f6b73466163746f727960a01b60208201526103e793506001600160a01b039091169150610b9b565b6027546001600160a01b0316610420576103ff610ccb565b602780546001600160a01b0319166001600160a01b03929092169190911790555b601f546040516386b9620d60e01b81526001600160a01b0390911660048201525f80516020620129a9833981519152906386b9620d906024015f604051808303815f87803b158015610470575f80fd5b505af1158015610482573d5f803e3d5ffd5b5050602754604080516001600160a01b03909216825260c06020808401829052908301525f80516020620129c983398151915260e08301525f828201819052606083018190526080830181905260a0830152517f7735fb05b8e8ddc6039fa70a50d11434f6ba73219f3cc820e8100b10dcaf89ed935090819003610100019150a1601f54602754604051633476b76d60e01b81526001600160a01b03918216600482015260c06024820152602060c48201525f80516020620129c983398151915260e48201525f60448201819052606482018190526084820181905260a4820152911690633476b76d90610104015f604051808303815f87803b158015610587575f80fd5b505af1158015610599573d5f803e3d5ffd5b505050506040516105a990610f4b565b604051809103905ff0801580156105c2573d5f803e3d5ffd5b50602480546001600160a01b0319166001600160a01b0392909216919091178155604051633a0278e960e11b815260206004820152601291810191909152713937b632a83937bb34b232b929b4b3b732b960711b60448201525f905f80516020620129a983398151915290637404f1d2906064016080604051808303815f875af1158015610652573d5f803e3d5ffd5b505050506040513d601f19601f820116820180604052508101906106769190610fac565b6060810151602c5560248054825160405163de46641f60e01b81526001600160a01b039182166004820152939450169163de46641f91015f604051808303815f87803b1580156106c4575f80fd5b505af11580156106d6573d5f803e3d5ffd5b505050506040516106e690610f4b565b604051809103905ff0801580156106ff573d5f803e3d5ffd5b50602580546001600160a01b0319166001600160a01b039290921691909117905560405161072c90610f4b565b604051809103905ff080158015610745573d5f803e3d5ffd5b50602680546001600160a01b0319166001600160a01b0392909216919091179055506107739150610cfc9050565b5050565b601e5480156107f1577f885cb69240a935d632d79c317109709ecfa91a80626ff3989d68f67f5b1dd12d5f1c6001600160a01b03166390c5013b6040518163ffffffff1660e01b81526004015f604051808303815f87803b1580156107da575f80fd5b505af11580156107ec573d5f803e3d5ffd5b505050505b6040516303223eab60e11b81526001600160a01b03831660048201525f80516020620129a9833981519152906306447d56906024015f604051808303815f87803b15801561083d575f80fd5b505af115801561084f573d5f803e3d5ffd5b5050601e80546001810182555f919091527f50bb669a95c7b50b7e8a6f09454034b2b14cf2b85c730dca9a539ca82cb6e3500180546001600160a01b0319166001600160a01b039590951694909417909355505050565b6040515f80516020620129a98339815191529063b4d6c782907340c57923924b5c5c5455c48d93317139addac8fb906108e160208201610f59565b6020820181038252601f19601f820116604052506040518363ffffffff1660e01b815260040161091292919061104e565b5f604051808303815f87803b158015610929575f80fd5b505af115801561093b573d5f803e3d5ffd5b50505050565b61094a30610777565b6020546040516001600160a01b039091169061096590610f67565b6001600160a01b039091168152602001604051809103905ff08015801561098e573d5f803e3d5ffd5b50602a80546001600160a01b0319166001600160a01b039283161790556020546029546040516309dd1f0b60e31b81529083166004820152911690634ee8f858906024015b5f604051808303815f87803b1580156109ea575f80fd5b505af11580156109fc573d5f803e3d5ffd5b5050602954610a1692506001600160a01b03169050610777565b602054602a54604051634c6c848f60e01b81526001600160a01b039182166004820152911690634c6c848f906024015f604051808303815f87803b158015610a5c575f80fd5b505af1158015610a6e573d5f803e3d5ffd5b50505050610a80610cfc60201b60201c565b50610a89610cfc565b50565b610a9530610777565b602954602080546040805163e7e5db4f60e01b815290516001600160a01b03948516949092169263e7e5db4f926004808401938290030181865afa158015610adf573d5f803e3d5ffd5b505050506040513d601f19601f82011682018060405250810190610b039190611079565b6001600160a01b031614610b45576020546029546040516309dd1f0b60e31b81526001600160a01b039182166004820152911690634ee8f858906024016109d3565b602954610a16906001600160a01b0316610777565b5f805f60405180602001610b6d90610f75565b601f1982820381018352601f909101166040528051602082012092509050610b9481610e6f565b9250509091565b610ba430610777565b5f829050610c3f816001600160a01b031663e7e5db4f6040518163ffffffff1660e01b8152600401602060405180830381865afa158015610be7573d5f803e3d5ffd5b505050506040513d601f19601f82011682018060405250810190610c0b9190611079565b602080546040516001600160a01b0390911691610c2a918791016110b0565b60408051601f19818403018152919052610eae565b610cc2816001600160a01b0316633c2311666040518163ffffffff1660e01b8152600401602060405180830381865afa158015610c7e573d5f803e3d5ffd5b505050506040513d601f19601f82011682018060405250810190610ca29190611079565b602a546040516001600160a01b0390911690610c2a9086906020016110dc565b50610093610cfc565b5f610cf760405180602001610cdf90610f83565b601f1982820381018352601f90910116604052610e6f565b905090565b601e545f90808203610d0f575f91505090565b601e610d1a8261111a565b91508181548110610d2d57610d2d61112f565b5f91825260209091200154601e80546001600160a01b0390921693509080610d5757610d57611143565b5f8281526020812082015f1990810180546001600160a01b0319169055909101909155604080516390c5013b60e01b815290515f80516020620129a9833981519152926390c5013b926004808201939182900301818387803b158015610dbb575f80fd5b505af1158015610dcd573d5f803e3d5ffd5b505050505f811115610e6b575f601e610de7600184611157565b81548110610df757610df761112f565b5f918252602090912001546040516303223eab60e11b81526001600160a01b039091166004820181905291505f80516020620129a9833981519152906306447d56906024015f604051808303815f87803b158015610e53575f80fd5b505af1158015610e65573d5f803e3d5ffd5b50505050505b5090565b5f8151600b81016a6100005f81600a5f39f3006001830160401b17845280601585015ff092505081610ea8576311c8c3c05f526004601cfd5b90915290565b604051632f2769d160e01b81525f80516020620129a983398151915290632f2769d190610ee390869086908690600401611170565b5f6040518083038186803b158015610ef9575f80fd5b505afa158015610f0b573d5f803e3d5ffd5b50505050505050565b60a18062001c3583390190565b6120388062001cd683390190565b610e098062003d0e83390190565b6139a48062004b1783390190565b61075b80620084bb83390190565b6101148062008c1683390190565b610fb68062008d2a83390190565b6159498062009ce083390190565b613380806200f62983390190565b80516001600160a01b0381168114610fa7575f80fd5b919050565b5f60808284031215610fbc575f80fd5b604051608081016001600160401b0381118282101715610fea57634e487b7160e01b5f52604160045260245ffd5b604052610ff683610f91565b81526020830151602082015260408301516040820152606083015160608201528091505092915050565b5f81518084528060208401602086015e5f602082860101526020601f19601f83011685010191505092915050565b6001600160a01b03831681526040602082018190525f9061107190830184611020565b949350505050565b5f60208284031215611089575f80fd5b61109282610f91565b9392505050565b5f81518060208401855e5f93019283525090919050565b5f6110bb8284611099565b701d1039b83432b932ac27b832b930ba37b960791b81526011019392505050565b5f6110e78284611099565b6e3a2073706865726558456e67696e6560881b8152600f019392505050565b634e487b7160e01b5f52601160045260245ffd5b5f8161112857611128611106565b505f190190565b634e487b7160e01b5f52603260045260245ffd5b634e487b7160e01b5f52603160045260245ffd5b8181038181111561116a5761116a611106565b92915050565b6001600160a01b038481168252831660208201526060604082018190525f9061119b90830184611020565b95945050505050565b610a8380620011b25f395ff3fe608060405234801561000f575f80fd5b506004361061009b575f3560e01c806385226c811161006357806385226c81146100f7578063916a17c61461010c578063b5508aa914610114578063ba414fa61461011c578063e20c9f7114610134575f80fd5b80631ed7831c1461009f5780632ade3880146100bd5780633e5e3c23146100d25780633f7286f4146100da57806366d9a9a0146100e2575b5f80fd5b6100a761013c565b6040516100b491906107ea565b60405180910390f35b6100c561019c565b6040516100b49190610836565b6100a76102d8565b6100a7610336565b6100ea610394565b6040516100b4919061090d565b6100ff610475565b6040516100b491906109b0565b6100ea610540565b6100ff610621565b6101246106ec565b60405190151581526020016100b4565b6100a761078c565b6060601680548060200260200160405190810160405280929190818152602001828054801561019257602002820191905f5260205f20905b81546001600160a01b03168152600190910190602001808311610174575b5050505050905090565b6060601d805480602002602001604051908101604052809291908181526020015f905b828210156102cf575f84815260208082206040805180820182526002870290920180546001600160a01b03168352600181018054835181870281018701909452808452939591948681019491929084015b828210156102b8578382905f5260205f2001805461022d90610a27565b80601f016020809104026020016040519081016040528092919081815260200182805461025990610a27565b80156102a45780601f1061027b576101008083540402835291602001916102a4565b820191905f5260205f20905b81548152906001019060200180831161028757829003601f168201915b505050505081526020019060010190610210565b5050505081525050815260200190600101906101bf565b50505050905090565b6060601880548060200260200160405190810160405280929190818152602001828054801561019257602002820191905f5260205f209081546001600160a01b03168152600190910190602001808311610174575050505050905090565b6060601780548060200260200160405190810160405280929190818152602001828054801561019257602002820191905f5260205f209081546001600160a01b03168152600190910190602001808311610174575050505050905090565b6060601b805480602002602001604051908101604052809291908181526020015f905b828210156102cf575f8481526020908190206040805180820182526002860290920180546001600160a01b0316835260018101805483518187028101870190945280845293949193858301939283018282801561045d57602002820191905f5260205f20905f905b82829054906101000a900460e01b6001600160e01b0319168152602001906004019060208260030104928301926001038202915080841161041f5790505b505050505081525050815260200190600101906103b7565b6060601a805480602002602001604051908101604052809291908181526020015f905b828210156102cf578382905f5260205f200180546104b590610a27565b80601f01602080910402602001604051908101604052809291908181526020018280546104e190610a27565b801561052c5780601f106105035761010080835404028352916020019161052c565b820191905f5260205f20905b81548152906001019060200180831161050f57829003601f168201915b505050505081526020019060010190610498565b6060601c805480602002602001604051908101604052809291908181526020015f905b828210156102cf575f8481526020908190206040805180820182526002860290920180546001600160a01b0316835260018101805483518187028101870190945280845293949193858301939283018282801561060957602002820191905f5260205f20905f905b82829054906101000a900460e01b6001600160e01b031916815260200190600401906020826003010492830192600103820291508084116105cb5790505b50505050508152505081526020019060010190610563565b60606019805480602002602001604051908101604052809291908181526020015f905b828210156102cf578382905f5260205f2001805461066190610a27565b80601f016020809104026020016040519081016040528092919081815260200182805461068d90610a27565b80156106d85780601f106106af576101008083540402835291602001916106d8565b820191905f5260205f20905b8154815290600101906020018083116106bb57829003601f168201915b505050505081526020019060010190610644565b6008545f9060ff1615610703575060085460ff1690565b604051630667f9d760e41b8152737109709ecfa91a80626ff3989d68f67f5b1dd12d600482018190526519985a5b195960d21b60248301525f9163667f9d7090604401602060405180830381865afa158015610761573d5f803e3d5ffd5b505050506040513d601f19601f820116820180604052508101906107859190610a5f565b1415905090565b6060601580548060200260200160405190810160405280929190818152602001828054801561019257602002820191905f5260205f209081546001600160a01b03168152600190910190602001808311610174575050505050905090565b602080825282518282018190525f9190848201906040850190845b8181101561082a5783516001600160a01b031683529284019291840191600101610805565b50909695505050505050565b5f60208083018184528085518083526040925060408601915060408160051b8701018488015f5b838110156108ff57603f19898403018552815180516001600160a01b031684528701518784018790528051878501819052908801906060600582901b8601810191908601905f5b818110156108e957878403605f1901835284518051808652808e83018f88015e5f8682018f0152958d0195601f01601f19169094018c019350918b01916001016108a4565b505050958801959350509086019060010161085d565b509098975050505050505050565b5f60208083018184528085518083526040925060408601915060408160051b8701018488015f5b838110156108ff57888303603f19018552815180516001600160a01b031684528701518784018790528051878501819052908801905f9060608601905b8083101561099b5783516001600160e01b0319168252928a019260019290920191908a0190610971565b50968901969450505090860190600101610934565b5f602080830181845280855180835260408601915060408160051b87010192508387015f5b82811015610a1a57878503603f1901845281518051808752808883018989015e5f878201890152601f01601f19169095018601945092850192908501906001016109d5565b5092979650505050505050565b600181811c90821680610a3b57607f821691505b602082108103610a5957634e487b7160e01b5f52602260045260245ffd5b50919050565b5f60208284031215610a6f575f80fd5b505191905056fea164736f6c6343000819000a6080604052348015600e575f80fd5b5060405160a138038060a1833981016040819052602991608a565b6040516372eb5f8160e11b815260048101829052737109709ecfa91a80626ff3989d68f67f5b1dd12d9063e5d6bf02906024015f604051808303815f87803b1580156072575f80fd5b505af11580156083573d5f803e3d5ffd5b5050505033ff5b5f602082840312156099575f80fd5b505191905056fe608060405234801561000f575f80fd5b50335f8061004661004160017fca334bf49ef20e9cbff039feda3bc1c2a853aff17b1b5187e4aa1380ec55829d610254565b849055565b6100505f846100b7565b61008361007e60017fadf90d75f0f2d657d5a22fa0f6e4dabb83c4598b77158eb4119cb38f1d864463610254565b839055565b61008d5f836100e7565b61009681610117565b6100a05f826101dc565b5050506100b23361020c60201b60201c565b61029f565b815f52806020527f67ebaebcd2ca5a91a404e898110f221747e8d15567f2388a34794aab151cf3e660405fa15050565b815f52806020527f2ac55ae7ba47db34b5334622acafeb34a65daf143b47019273185d64c73a35a560405fa15050565b6001600160a01b0381161580159061019957506040516301ffc9a760e01b81526329f20dd560e11b60048201526001600160a01b038216906301ffc9a790602401602060405180830381865afa158015610173573d5f803e3d5ffd5b505050506040513d601f19601f820116820180604052508101906101979190610279565b155b156101a6576101a6610247565b6101d96101d460017f1777adabd324f814e2b0e28f6edf876dce01d7d66358c9acfe87b1b5f38338d6610254565b829055565b50565b815f52806020527ff33499cccaa0611882086224cc48cd82ef54b66a4d2edf4ed67108dd516896d560405fa15050565b6001600160a01b0316638b78c6d819819055805f7f8be0079c531659141344cd1fd0a4f28419497f9722a3daafe3b4186f6b6457e08180a350565b637dcb7ada5f526004601cfd5b8181038181111561027357634e487b7160e01b5f52601160045260245ffd5b92915050565b5f60208284031215610289575f80fd5b81518015158114610298575f80fd5b9392505050565b611d8c806102ac5f395ff3fe608060405260043610610275575f3560e01c80638da5cb5b1161014a578063be736ff8116100be578063eb91e65111610078578063eb91e651146106aa578063f04e283e146106c9578063f2fde38b146106dc578063f631241e146106ef578063f6a74ed71461070e578063fee81cf41461072d575f80fd5b8063be736ff814610606578063d91ae8c214610625578063daba7ef714610644578063db316dbc14610663578063db91323614610677578063e7e5db4f14610696575f80fd5b8063a1c4bff81161010f578063a1c4bff814610562578063a79b9ec914610581578063abad7426146105a0578063b0018c60146105bf578063b9bccae8146105de578063b9d5dfe8146105f2575f80fd5b80638da5cb5b146104e457806399882f70146104fc57806399e80f3b1461051b5780639aa9019e1461052f5780639cfe42da14610543575f80fd5b806354d1f13d116101ec5780637ade7f20116101a65780637ade7f20146104405780638426b9681461045f57806384b870ab146104735780638b13e382146104875780638b984bb3146104a65780638cdcb3e6146104c5575f80fd5b806354d1f13d146103d55780636e0fb58d146103dd578063715018a6146103f157806376c7fc55146103f957806378e9c2241461041857806379adfa6c1461042c575f80fd5b80633c2311661161023d5780633c231166146103245780633d05a1d31461035057806346762101146103645780634a58e49e146103785780634c6c848f146103975780634ee8f858146103b6575f80fd5b80630787c1fe146102795780630e572082146102ad5780631b4f512c146102d95780631ce28ab7146102fa578063256929621461031c575b5f80fd5b348015610284575f80fd5b50610298610293366004611b7d565b61075e565b60405190151581526020015b60405180910390f35b3480156102b8575f80fd5b506102cc6102c7366004611ba3565b610770565b6040516102a49190611bc3565b3480156102e4575f80fd5b506102f86102f3366004611b7d565b610837565b005b348015610305575f80fd5b5061030e6108b0565b6040519081526020016102a4565b6102f86108c0565b34801561032f575f80fd5b5061033861090d565b6040516001600160a01b0390911681526020016102a4565b34801561035b575f80fd5b5061030e610940565b34801561036f575f80fd5b506102cc61094b565b348015610383575f80fd5b50610298610392366004611b7d565b610956565b3480156103a2575f80fd5b506102f86103b1366004611b7d565b610961565b3480156103c1575f80fd5b506102f86103d0366004611b7d565b6109d1565b6102f8610a67565b3480156103e8575f80fd5b506102cc610aa0565b6102f8610aac565b348015610404575f80fd5b506102f8610413366004611b7d565b610abf565b348015610423575f80fd5b5061030e610b28565b348015610437575f80fd5b506102cc610b33565b34801561044b575f80fd5b506102cc61045a366004611ba3565b610b3f565b34801561046a575f80fd5b506102f8610bfb565b34801561047e575f80fd5b5061030e610ca1565b348015610492575f80fd5b506102f86104a1366004611b7d565b610cab565b3480156104b1575f80fd5b506102cc6104c0366004611ba3565b610d14565b3480156104d0575f80fd5b506102986104df366004611b7d565b610dd2565b3480156104ef575f80fd5b50638b78c6d81954610338565b348015610507575f80fd5b50610298610516366004611b7d565b610dde565b348015610526575f80fd5b50610338610dea565b34801561053a575f80fd5b50610338610e19565b34801561054e575f80fd5b506102f861055d366004611b7d565b610e48565b34801561056d575f80fd5b506102cc61057c366004611ba3565b610eb1565b34801561058c575f80fd5b506102f861059b366004611b7d565b610f6f565b3480156105ab575f80fd5b506102f86105ba366004611b7d565b611009565b3480156105ca575f80fd5b506102986105d9366004611b7d565b611072565b3480156105e9575f80fd5b506102cc61107e565b3480156105fd575f80fd5b5061030e61108a565b348015610611575f80fd5b506102cc610620366004611ba3565b611095565b348015610630575f80fd5b506102f861063f366004611b7d565b611153565b34801561064f575f80fd5b506102f861065e366004611b7d565b6111e7565b34801561066e575f80fd5b506102cc611253565b348015610682575f80fd5b506102f8610691366004611b7d565b61125f565b3480156106a1575f80fd5b506103386112c7565b3480156106b5575f80fd5b506102f86106c4366004611b7d565b6112f6565b6102f86106d7366004611b7d565b61135f565b6102f86106ea366004611b7d565b611399565b3480156106fa575f80fd5b506102f8610709366004611c57565b6113bf565b348015610719575f80fd5b506102f8610728366004611b7d565b611588565b348015610738575f80fd5b5061030e610747366004611b7d565b63389a75e1600c9081525f91909152602090205490565b5f61076a6004836115f1565b92915050565b60605f61077d6002611615565b9050610789838261161e565b92505f6107968585611cfe565b90508067ffffffffffffffff8111156107b1576107b1611d11565b6040519080825280602002602001820160405280156107da578160200160208202803683370190505b5092505f5b8181101561082e576107fc6107f48288611d25565b60029061162d565b84828151811061080e5761080e611d38565b6001600160a01b03909216602092830291909101909101526001016107df565b50505092915050565b61083f611638565b61084a600282611652565b610867576040516304aa819d60e41b815260040160405180910390fd5b61087081611666565b6040516001600160a01b03821681527f8968daf7b2953d00c089355179545009ad3fc90082d096e28b028bbdad5cc5ab906020015b60405180910390a150565b5f6108bb6004611615565b905090565b5f6202a30067ffffffffffffffff164201905063389a75e1600c52335f52806020600c2055337fdbf36a107da19e49527a7176a1babf963b4b0ff8cde35ee35d6cd8f1f9ac7e1d5f80a250565b5f6108bb61093c60017f1777adabd324f814e2b0e28f6edf876dce01d7d66358c9acfe87b1b5f38338d6611cfe565b5490565b5f6108bb6006611615565b60606108bb5f6116df565b5f61076a81836115f1565b6109696112c7565b6001600160a01b0316336001600160a01b031614610989576109896116eb565b5f6109b861093c60017f1777adabd324f814e2b0e28f6edf876dce01d7d66358c9acfe87b1b5f38338d6611cfe565b90506109c3826116f8565b6109cd81836117b5565b5050565b6109d9610dea565b6001600160a01b0316336001600160a01b0316146109f9576109f96117e5565b5f610a2861093c60017fadf90d75f0f2d657d5a22fa0f6e4dabb83c4598b77158eb4119cb38f1d864463611cfe565b9050610a5d610a5860017fadf90d75f0f2d657d5a22fa0f6e4dabb83c4598b77158eb4119cb38f1d864463611cfe565b839055565b6109cd81836117f2565b63389a75e1600c52335f525f6020600c2055337ffa7b8eab7da67f412cc9575ed43464468f9bfbae89d1675917346ca6d8fe3c925f80a2565b60606108bb60026116df565b610ab4611638565b610abd5f611822565b565b610ac7611638565b610ad260048261185f565b610aef576040516332ffc55b60e11b815260040160405180910390fd5b6040516001600160a01b03821681527feb31998799e9a09df1e8e5fd968bfeb5519b82b1b88d59dec8c860eac0265864906020016108a5565b5f6108bb6002611615565b60606108bb60086116df565b60605f610b4b5f611615565b9050610b57838261161e565b92505f610b648585611cfe565b90508067ffffffffffffffff811115610b7f57610b7f611d11565b604051908082528060200260200182016040528015610ba8578160200160208202803683370190505b5092505f5b8181101561082e57610bc9610bc28288611d25565b5f9061162d565b848281518110610bdb57610bdb611d38565b6001600160a01b0390921660209283029190910190910152600101610bad565b610c03610e19565b6001600160a01b0316336001600160a01b031614610c2357610c23611873565b5f610c2c610dea565b9050610c61610c5c60017fca334bf49ef20e9cbff039feda3bc1c2a853aff17b1b5187e4aa1380ec55829d611cfe565b339055565b610c94610c8f60017f3a517dd736309b905c692160a21b5439bdc56db1dc77d6982b66d44814e3fa97611cfe565b5f9055565b610c9e8133611880565b50565b5f6108bb5f611615565b610cb3611638565b610cbe60028261185f565b610cdb576040516342ab212760e01b815260040160405180910390fd5b6040516001600160a01b03821681527f92b171cd00b60c6242c08403ef5f6b7258d81b3cba5956c115799d7a118874f9906020016108a5565b60605f610d216008611615565b9050610d2d838261161e565b92505f610d3a8585611cfe565b90508067ffffffffffffffff811115610d5557610d55611d11565b604051908082528060200260200182016040528015610d7e578160200160208202803683370190505b5092505f5b8181101561082e57610da0610d988288611d25565b60089061162d565b848281518110610db257610db2611d38565b6001600160a01b0390921660209283029190910190910152600101610d83565b5f61076a6006836115f1565b5f61076a6002836115f1565b5f6108bb61093c60017fca334bf49ef20e9cbff039feda3bc1c2a853aff17b1b5187e4aa1380ec55829d611cfe565b5f6108bb61093c60017f3a517dd736309b905c692160a21b5439bdc56db1dc77d6982b66d44814e3fa97611cfe565b610e50611638565b610e5b600882611652565b610e785760405163a99bf01360e01b815260040160405180910390fd5b6040516001600160a01b03821681527f10c0fc3aa3fe3ed617ce4c1f51f37e0203828eeab656b100bfb44b569779d638906020016108a5565b60605f610ebe6006611615565b9050610eca838261161e565b92505f610ed78585611cfe565b90508067ffffffffffffffff811115610ef257610ef2611d11565b604051908082528060200260200182016040528015610f1b578160200160208202803683370190505b5092505f5b8181101561082e57610f3d610f358288611d25565b60069061162d565b848281518110610f4f57610f4f611d38565b6001600160a01b0390921660209283029190910190910152600101610f20565b610f7a6006336115f1565b610f97576040516323019e6760e01b815260040160405180910390fd5b610fa15f82611652565b610fbe57604051630313b28560e01b815260040160405180910390fd5b610fc781611666565b6040516001600160a01b038216815233907f7772c85e68debdf74fad87834e2cc05fa763e74faf14de7096da305290651142906020015b60405180910390a250565b611011611638565b61101c600482611652565b611039576040516312635b0b60e21b815260040160405180910390fd5b6040516001600160a01b03821681527ff936762bbd5951fd80f529c57a3ca1141f0b79ab926abd60a3879f75eb6b72a6906020016108a5565b5f61076a6008836115f1565b60606108bb60046116df565b5f6108bb6008611615565b60605f6110a26004611615565b90506110ae838261161e565b92505f6110bb8585611cfe565b90508067ffffffffffffffff8111156110d6576110d6611d11565b6040519080825280602002602001820160405280156110ff578160200160208202803683370190505b5092505f5b8181101561082e576111216111198288611d25565b60049061162d565b84828151811061113357611133611d38565b6001600160a01b0390921660209283029190910190910152600101611104565b61115e6002336115f1565b61117b5760405163d11dcc5360e01b815260040160405180910390fd5b611186600682611652565b6111a35760405163983b8f4b60e01b815260040160405180910390fd5b6111ac81611666565b6040516001600160a01b038216815233907f09703263c91de41f96b822b3995609acf9858ba081d151c4e7ec3398085ae32690602001610ffe565b6111ef610dea565b6001600160a01b0316336001600160a01b03161461120f5761120f6117e5565b61124261123d60017f3a517dd736309b905c692160a21b5439bdc56db1dc77d6982b66d44814e3fa97611cfe565b829055565b610c9e61124d610dea565b826118b0565b60606108bb60066116df565b611267611638565b6112715f8261185f565b61128e5760405163b0cfa44760e01b815260040160405180910390fd5b6040516001600160a01b03821681527f59d7b1e52008dc342c9421dadfc773114b914a65682a4e4b53cf60a970df0d77906020016108a5565b5f6108bb61093c60017fadf90d75f0f2d657d5a22fa0f6e4dabb83c4598b77158eb4119cb38f1d864463611cfe565b6112fe611638565b61130960088261185f565b61132657604051630195408d60e01b815260040160405180910390fd5b6040516001600160a01b03821681527fbfd78d1acd7fdf715658096e9116ace58b0b335d6d8d4fc53e0aec7edbd7d441906020016108a5565b611367611638565b63389a75e1600c52805f526020600c20805442111561138d57636f5e88185f526004601cfd5b5f9055610c9e81611822565b6113a1611638565b8060601b6113b657637448fbae5f526004601cfd5b610c9e81611822565b6113c76112c7565b6001600160a01b0316336001600160a01b03161415801561140157506113eb610dea565b6001600160a01b0316336001600160a01b031614155b1561140e5761140e6118e0565b5f61141761090d565b604080516001600160a01b03831660248083018290528351808403909101815260449092019092526020810180516001600160e01b0316634c6c848f60e01b179052919250606090156114a05750604080515f6024808301919091528251808303909101815260449091019091526020810180516001600160e01b03166308f6f17360e11b1790525b6114ea6002848b8b808060200260200160405190810160405280939291908181526020018383602002808284375f920191909152508892508791506342ab212760e01b90506118ed565b6115346006848989808060200260200160405190810160405280939291908181526020018383602002808284375f920191909152508892508791506385e1605f60e01b90506118ed565b61157d5f848787808060200260200160405190810160405280939291908181526020018383602002808284375f9201919091525088925087915063b0cfa44760e01b90506118ed565b505050505050505050565b611590611638565b61159b60068261185f565b6115b8576040516385e1605f60e01b815260040160405180910390fd5b6040516001600160a01b03821681527f33d83959be2573f5453b12eb9d43b3499bc57d96bd2f067ba44803c859e81113906020016108a5565b6001600160a01b0381165f90815260018301602052604081205415155b9392505050565b5f61076a825490565b5f81830382841002820161160e565b5f61160e838361197f565b638b78c6d819543314610abd576382b429005f526004601cfd5b5f61160e836001600160a01b0384166119a5565b5f61166f61090d565b90506001600160a01b038116156109cd576040516308f6f17360e11b81526001600160a01b0383811660048301528216906311ede2e6906024015f604051808303815f87803b1580156116c0575f80fd5b505af11580156116d2573d5f803e3d5ffd5b505050506109cd826119f1565b60605f61160e83611a1c565b634ee0b8f85f526004601cfd5b6001600160a01b0381161580159061177a57506040516301ffc9a760e01b81526329f20dd560e11b60048201526001600160a01b038216906301ffc9a790602401602060405180830381865afa158015611754573d5f803e3d5ffd5b505050506040513d601f19601f820116820180604052508101906117789190611d4c565b155b1561178757611787611a75565b610c9e61123d60017f1777adabd324f814e2b0e28f6edf876dce01d7d66358c9acfe87b1b5f38338d6611cfe565b815f52806020527ff33499cccaa0611882086224cc48cd82ef54b66a4d2edf4ed67108dd516896d560405fa15050565b636222a5505f526004601cfd5b815f52806020527f2ac55ae7ba47db34b5334622acafeb34a65daf143b47019273185d64c73a35a560405fa15050565b638b78c6d81980546001600160a01b039092169182907f8be0079c531659141344cd1fd0a4f28419497f9722a3daafe3b4186f6b6457e05f80a355565b5f61160e836001600160a01b038416611a82565b634d28a58e5f526004601cfd5b815f52806020527f67ebaebcd2ca5a91a404e898110f221747e8d15567f2388a34794aab151cf3e660405fa15050565b815f52806020527f5778f1547abbbb86090a43c32aec38334b31df4beeb6f8f3fa063f593b53a52660405fa15050565b63b2dbeb595f526004601cfd5b5f5b8451811015611976575f85828151811061190b5761190b611d38565b6020026020010151905061192881896115f190919063ffffffff16565b61193b5760e083901c5f8190526004601cfd5b6119458186611b65565b6001600160a01b0387161561196d578060248501526119648785611b65565b61196d816119f1565b506001016118ef565b50505050505050565b5f825f01828154811061199457611994611d38565b905f5260205f200154905092915050565b5f8181526001830160205260408120546119ea57508154600181810184555f84815260208082209093018490558454848252828601909352604090209190915561076a565b505f61076a565b805f527f6de0a1fd3a59e5479e6480ba65ef28d4f3ab8143c2c631bbfd9969ab3907479760205fa150565b6060815f01805480602002602001604051908101604052809291908181526020018280548015611a6957602002820191905f5260205f20905b815481526020019060010190808311611a55575b50505050509050919050565b637dcb7ada5f526004601cfd5b5f8181526001830160205260408120548015611b5c575f611aa4600183611cfe565b85549091505f90611ab790600190611cfe565b9050818114611b16575f865f018281548110611ad557611ad5611d38565b905f5260205f200154905080875f018481548110611af557611af5611d38565b5f918252602080832090910192909255918252600188019052604090208390555b8554869080611b2757611b27611d6b565b600190038181905f5260205f20015f90559055856001015f8681526020019081526020015f205f90556001935050505061076a565b5f91505061076a565b5f808251602084015f865af16109cd573d5f803e3d5ffd5b5f60208284031215611b8d575f80fd5b81356001600160a01b038116811461160e575f80fd5b5f8060408385031215611bb4575f80fd5b50508035926020909101359150565b602080825282518282018190525f9190848201906040850190845b81811015611c035783516001600160a01b031683529284019291840191600101611bde565b50909695505050505050565b5f8083601f840112611c1f575f80fd5b50813567ffffffffffffffff811115611c36575f80fd5b6020830191508360208260051b8501011115611c50575f80fd5b9250929050565b5f805f805f8060608789031215611c6c575f80fd5b863567ffffffffffffffff80821115611c83575f80fd5b611c8f8a838b01611c0f565b90985096506020890135915080821115611ca7575f80fd5b611cb38a838b01611c0f565b90965094506040890135915080821115611ccb575f80fd5b50611cd889828a01611c0f565b979a9699509497509295939492505050565b634e487b7160e01b5f52601160045260245ffd5b8181038181111561076a5761076a611cea565b634e487b7160e01b5f52604160045260245ffd5b8082018082111561076a5761076a611cea565b634e487b7160e01b5f52603260045260245ffd5b5f60208284031215611d5c575f80fd5b8151801515811461160e575f80fd5b634e487b7160e01b5f52603160045260245ffdfea164736f6c6343000819000a60c060405234801561000f575f80fd5b50604051610e09380380610e0983398101604081905261002e916100a7565b6001600160a01b03811660a0527340c57923924b5c5c5455c48d93317139addac8fb6080819052819061009f6040805160608101825260018082526020820181905291018190525f80546001600160a01b031990811683179091558154811682178255600280549091169091179055565b5050506100d4565b5f602082840312156100b7575f80fd5b81516001600160a01b03811681146100cd575f80fd5b9392505050565b60805160a051610d066101035f395f61017601525f818161014f015281816103c3015261061d0152610d065ff3fe608060405234801561000f575f80fd5b50600436106100b1575f3560e01c8063681909a01161006e578063681909a01461019857806395c09839146101ab578063a1054f6b146101be578063b1d62668146101d1578063b8b453611461021a578063ed986c6c14610230575f80fd5b806306e74444146100b55780631cdf58b0146100dd578063380c343114610108578063490a8653146101355780634973203d1461014a5780635463557014610171575b5f80fd5b6100c86100c336600461069f565b610243565b60405190151581526020015b60405180910390f35b6100f06100eb3660046106d0565b610285565b6040516001600160a01b0390911681526020016100d4565b6100c861011636600461069f565b600360209081525f928352604080842090915290825290205460ff1681565b610148610143366004610710565b6102f5565b005b6100f07f000000000000000000000000000000000000000000000000000000000000000081565b6100f07f000000000000000000000000000000000000000000000000000000000000000081565b6101486101a6366004610710565b61034a565b6100c86101b9366004610710565b6103a2565b6100f06101cc3660046106d0565b610434565b5f546001546002546101f0926001600160a01b03908116928116911683565b604080516001600160a01b03948516815292841660208401529216918101919091526060016100d4565b6102226105d1565b6040519081526020016100d4565b61014861023e366004610710565b6105fe565b6001600160a01b038083165f90815260036020908152604080832093851683529290529081205460ff1615801561027e575061027e826103a2565b9392505050565b604080515f858152602085905283835260608120919092525f604051806020016102ae90610677565b601f1982820381018352601f909101166040818152825160209384012060ff60a01b30175f52949092529281526055600b20929052506001600160a01b0316949350505050565b335f8181526003602090815260408083206001600160a01b0386168085529252808320805460ff19169055519092917f23bb3a3ab36fcdc5884abde2529508c7edd18ebea79d7213cd6632c71086216e91a350565b335f8181526003602090815260408083206001600160a01b0386168085529252808320805460ff19166001179055519092917ff7314dc6493fd11dd1939dc062aeea73f1c783016ddb31776a402712098e5db591a350565b60405163df592f7d60e01b81526001600160a01b0382811660048301525f917f00000000000000000000000000000000000000000000000000000000000000009091169063df592f7d90602401602060405180830381865afa15801561040a573d5f803e3d5ffd5b505050506040513d601f19601f8201168201806040525081019061042e9190610729565b92915050565b5f610440848484610285565b9050806001600160a01b03163b5f0361027e5760408051606080820183526001600160a01b0387811680845287821660208086018290529288169486018590525f80546001600160a01b03199081169093178155600180548416909217909155600280549092169094179055835188845290879052858452912091526040516104c890610677565b8190604051809103905ff59050801580156104e5573d5f803e3d5ffd5b5050816001600160a01b0316836001600160a01b0316856001600160a01b03167f23e05aa548aba14c84d0a45e65bab80c7409d1a00129f53cfdf85bed0b5fbb2560405160405180910390a46001600160a01b038085165f81815260036020908152604080832094861680845294909152808220805460ff19166001179055517ff7314dc6493fd11dd1939dc062aeea73f1c783016ddb31776a402712098e5db59190a361027e6040805160608101825260018082526020820181905291018190525f80546001600160a01b031990811683179091558154811682178255600280549091169091179055565b6040516105e060208201610677565b6020820181038252601f19601f820116604052508051906020012081565b604051633b661b1b60e21b81526001600160a01b0382811660048301527f0000000000000000000000000000000000000000000000000000000000000000169063ed986c6c906024015f604051808303815f87803b15801561065e575f80fd5b505af1158015610670573d5f803e3d5ffd5b5050505050565b6105b18061074983390190565b80356001600160a01b038116811461069a575f80fd5b919050565b5f80604083850312156106b0575f80fd5b6106b983610684565b91506106c760208401610684565b90509250929050565b5f805f606084860312156106e2575f80fd5b6106eb84610684565b92506106f960208501610684565b915061070760408501610684565b90509250925092565b5f60208284031215610720575f80fd5b61027e82610684565b5f60208284031215610739575f80fd5b8151801515811461027e575f80fdfe610100604052348015610010575f80fd5b503360808190526040805163163ac4cd60e31b8152905163b1d62668916004808201926060929091908290030181865afa158015610050573d5f803e3d5ffd5b505050506040513d601f19601f8201168201806040525081019061007491906100ac565b6001600160a01b0390811660e05290811660c0521660a0526100ec565b80516001600160a01b03811681146100a7575f80fd5b919050565b5f805f606084860312156100be575f80fd5b6100c784610091565b92506100d560208501610091565b91506100e360408501610091565b90509250925092565b60805160a05160c05160e05161046a6101475f395f8181610173015281816101f4015261036a01525f818160af015281816101d301526102b801525f818160f8015261029001525f818161014d01526102e2015261046a5ff3fe608060405234801561000f575f80fd5b506004361061007a575f3560e01c80637df1f1b9116100585780637df1f1b9146100f3578063a4972b471461011a578063b69ef8a814610132578063f58c251c14610148575f80fd5b80633d02b19c1461007e5780635dab2420146100aa578063757a5543146100e9575b5f80fd5b61008661016f565b604080516001600160a01b0390931683526020830191909152015b60405180910390f35b6100d17f000000000000000000000000000000000000000000000000000000000000000081565b6040516001600160a01b0390911681526020016100a1565b6100f16101a2565b005b6100d17f000000000000000000000000000000000000000000000000000000000000000081565b610122610279565b60405190151581526020016100a1565b61013a610353565b6040519081526020016100a1565b6100d17f000000000000000000000000000000000000000000000000000000000000000081565b5f807f000000000000000000000000000000000000000000000000000000000000000061019a610353565b915091509091565b6101aa610279565b6101c6576040516268221d60e41b815260040160405180910390fd5b5f6101cf610353565b90507f00000000000000000000000000000000000000000000000000000000000000007f00000000000000000000000000000000000000000000000000000000000000006102276001600160a01b03821683856103e0565b806001600160a01b0316826001600160a01b03167fddb6c73499c01e62ac80461b3609b0aa26779cb2da76ed6eff1f3e11ebae23488560405161026c91815260200190565b60405180910390a3505050565b6040516301b9d11160e21b81526001600160a01b037f0000000000000000000000000000000000000000000000000000000000000000811660048301527f0000000000000000000000000000000000000000000000000000000000000000811660248301525f917f0000000000000000000000000000000000000000000000000000000000000000909116906306e7444490604401602060405180830381865afa158015610329573d5f803e3d5ffd5b505050506040513d601f19601f8201168201806040525081019061034d9190610420565b15905090565b6040516370a0823160e01b81523060048201525f907f00000000000000000000000000000000000000000000000000000000000000006001600160a01b0316906370a0823190602401602060405180830381865afa1580156103b7573d5f803e3d5ffd5b505050506040513d601f19601f820116820180604052508101906103db9190610446565b905090565b816014528060345263a9059cbb60601b5f5260205f604460105f875af13d1560015f51141716610417576390b8ec185f526004601cfd5b5f603452505050565b5f60208284031215610430575f80fd5b8151801515811461043f575f80fd5b9392505050565b5f60208284031215610456575f80fd5b505191905056fea164736f6c6343000819000aa164736f6c6343000819000a61012060405260ff60a01b301760a05234801561001a575f80fd5b506040516139a43803806139a483398101604081905261003991610197565b6001600160a01b0380831660c05260e082905284811660808190529084166101005260408051631e1188b360e11b815290516100c19291633c2311669160048083019260209291908290030181865afa158015610098573d5f803e3d5ffd5b505050506040513d601f19601f820116820180604052508101906100bc91906101df565b6100ca565b50505050610224565b6100dc5f60805161011c60201b60201c565b61010f61010a60017f1777adabd324f814e2b0e28f6edf876dce01d7d66358c9acfe87b1b5f38338d66101ff565b829055565b6101195f8261014c565b50565b815f52806020527f2ac55ae7ba47db34b5334622acafeb34a65daf143b47019273185d64c73a35a560405fa15050565b815f52806020527ff33499cccaa0611882086224cc48cd82ef54b66a4d2edf4ed67108dd516896d560405fa15050565b80516001600160a01b0381168114610192575f80fd5b919050565b5f805f80608085870312156101aa575f80fd5b6101b38561017c565b93506101c16020860161017c565b92506101cf6040860161017c565b6060959095015193969295505050565b5f602082840312156101ef575f80fd5b6101f88261017c565b9392505050565b8181038181111561021e57634e487b7160e01b5f52601160045260245ffd5b92915050565b60805160a05160c05160e051610100516136d36102d15f395f8181610312015261061901525f81816103d301528181611640015261201801525f818161029d015261229801525f81816116160152611ff001525f81816103490152818161071b01528181610b9001528181610efe01528181610f6a0152818161106a0152818161123c0152818161139f015281816116980152818161183d01528181611ea301526122dd01526136d35ff3fe608060405234801561000f575f80fd5b50600436106101bb575f3560e01c80636e50f960116100f3578063cdbb837411610093578063d9d580251161006e578063d9d5802514610491578063e7ca86e314610498578063e7e5db4f14610347578063eae6ff66146104ab575f80fd5b8063cdbb837414610429578063d19bd5711461043c578063d1a0745c14610469575f80fd5b8063ad78e45a116100ce578063ad78e45a1461039b578063aeefe08c146103ce578063c29a767714610403578063cd01e52a14610416575f80fd5b80636e50f9601461036d5780639c5cd31a146103755780639f2f94b314610388575f80fd5b8063356dd3521161015e57806341f259b81161013957806341f259b8146103055780634272711d1461030d5780634c6c848f146103345780635463557014610347575f80fd5b8063356dd352146102985780633c231166146102bf5780633fd83e1e146102c7575f80fd5b80632812d2de116101995780632812d2de146102125780632b07f2801461023257806333ee81f2146102725780633476b76d14610285575f80fd5b806304032dbb146101bf578063155733ef146101dd5780631caab59d146101f2575b5f80fd5b6101c76104be565b6040516101d49190612811565b60405180910390f35b6101f06101eb366004612977565b61077d565b005b610205610200366004612977565b61078c565b6040516101d49190612992565b610225610220366004612977565b6107ff565b6040516101d49190612a0c565b61025a610240366004612977565b60036020525f90815260409020546001600160a01b031681565b6040516001600160a01b0390911681526020016101d4565b6101f0610280366004612aa9565b610973565b6101f0610293366004612b4f565b610b8e565b61025a7f000000000000000000000000000000000000000000000000000000000000000081565b61025a610eb1565b6102f56102d5366004612977565b6001600160a01b03165f9081526002602052604090206001015460ff1690565b60405190151581526020016101d4565b6101f0610ee9565b61025a7f000000000000000000000000000000000000000000000000000000000000000081565b6101f0610342366004612977565b610f5f565b7f000000000000000000000000000000000000000000000000000000000000000061025a565b610205611009565b6101f0610383366004612be8565b611068565b6101f0610396366004612977565b61123a565b6103ae6103a9366004612e66565b611380565b604080516001600160a01b039384168152929091166020830152016101d4565b6103f57f000000000000000000000000000000000000000000000000000000000000000081565b6040519081526020016101d4565b61025a610411366004612f29565b611610565b61025a610424366004612f40565b61167a565b610205610437366004612f90565b611742565b6102f561044a366004612977565b6001600160a01b039081165f9081526003602052604090205416151590565b6103f5610477366004612977565b6001600160a01b03165f9081526001602052604090205490565b5f546103f5565b61025a6104a6366004612fb0565b61181f565b6102056104b9366004612aa9565b611a9c565b60408051610260810182525f80825260208201819052918101829052606081018290526080810182905260a0810182905260c0810182905260e08101829052610100810182905261012081018290526101408101829052610160810182905261018081018290526101a081018290526101c081018290526101e081018290526102008101829052610220810182905261024081018290529061055e611b93565b90508060200151825f01906001600160a01b031690816001600160a01b031681525050806101400151826040018181525050806101600151826060018181525050806101800151826080018181525050806101a001518260a0018181525050806101c00151826020019060ff16908160ff1681525050805f01518260c001906001600160a01b031690816001600160a01b03168152505080604001518260e001906001600160a01b031690816001600160a01b0316815250507f00000000000000000000000000000000000000000000000000000000000000008261010001906001600160a01b031690816001600160a01b03168152505080608001518261012001906001600160801b031690816001600160801b031681525050806060015182610140019061ffff16908161ffff16815250508060a0015182610160019061ffff16908161ffff16815250508060c0015182610180019061ffff16908161ffff16815250508060e00151826101a0019063ffffffff16908163ffffffff1681525050806101000151826101c0019061ffff16908161ffff1681525050806101200151826101e0019063ffffffff16908163ffffffff16815250507f00000000000000000000000000000000000000000000000000000000000000008261020001906001600160a01b031690816001600160a01b031681525050610760610eb1565b6001600160a01b03166102208301526101e0015161024082015290565b610789815f5f19610973565b50565b6001600160a01b0381165f908152600160209081526040918290208054835181840281018401909452808452606093928301828280156107f357602002820191905f5260205f20905b81546001600160a01b031681526001909101906020018083116107d5575b50505050509050919050565b60408051610100810182525f8082526020820181905291810182905260608082018390526080820183905260a0820183905260c082019290925260e08101919091526001600160a01b038281165f908152600260208181526040928390208351610100808201865282548088168352600160a01b81046001600160501b031694830194909452600160f01b90930461ffff1694810194909452600181015460ff808216151560608701529281049092161515608085015262010000820462ffffff1660a0850152600160281b90910490931660c08301528201805491929160e0840191906108ec90613041565b80601f016020809104026020016040519081016040528092919081815260200182805461091890613041565b80156109635780601f1061093a57610100808354040283529160200191610963565b820191905f5260205f20905b81548152906001019060200180831161094657829003601f168201915b5050505050815250509050919050565b61097b611c59565b6001600160a01b038381165f9081526002602081815260408084208151610100808201845282548089168352600160a01b81046001600160501b031695830195909552600160f01b90940461ffff1692810192909252600181015460ff808216151560608501529381049093161515608083015262010000830462ffffff1660a0830152600160281b90920490941660c0850152908101805492939260e084019190610a2690613041565b80601f0160208091040260200160405190810160405280929190818152602001828054610a5290613041565b8015610a9d5780601f10610a7457610100808354040283529160200191610a9d565b820191905f5260205f20905b815481529060010190602001808311610a8057829003601f168201915b50505050508152505090508060600151610aca57604051634659113f60e11b815260040160405180910390fd5b6001600160a01b0384165f9081526001602052604090208054610aee908490611c7d565b92505f610afb8585613087565b604080850151815180830190925263ae6ea191825260208201819052919250601c01905f5b83811015610b7b575f85610b34838b61309a565b81548110610b4457610b446130ad565b5f9182526020822001546001600160a01b031691508060248682855af1610b7257634484a4a95f526004601cfd5b50600101610b20565b505050505050610b89611c8c565b505050565b7f00000000000000000000000000000000000000000000000000000000000000006001600160a01b0316638da5cb5b6040518163ffffffff1660e01b8152600401602060405180830381865afa158015610bea573d5f803e3d5ffd5b505050506040513d601f19601f82011682018060405250810190610c0e91906130cc565b6001600160a01b0316336001600160a01b031614610c3f5760405163226bc1e360e11b815260040160405180910390fd5b6001600160a01b0387165f9081526002602052604090206001015460ff1615610c7b57604051633704fb4160e01b815260040160405180910390fd5b610c8784848484611c95565b604051806101000160405280846001600160a01b03168152602001836001600160501b031681526020018261ffff1681526020016001151581526020016001151581526020015f8054905062ffffff168152602001856001600160a01b0316815260200187878080601f0160208091040260200160405190810160405280939291908181526020018383808284375f9201829052509390945250506001600160a01b03808b1682526002602081815260409384902086518154928801519588015161ffff16600160f01b026001600160f01b036001600160501b03909716600160a01b026001600160f01b03199094169186169190911792909217949094161783556060850151600184018054608088015160a089015160c08a0151909616600160281b0265010000000000600160c81b031962ffffff90971662010000029690961662010000600160c81b03199115156101000261ff00199515159590951661ffff19909316929092179390931792909216919091179290921790915560e0840151919250820190610e1a9082613132565b50505f80546001810182559080527f290decd9548b62a8d60345a988386fc84ba6bc95484008f6362f93160ef3e5630180546001600160a01b0319166001600160a01b038a16179055506040517f7735fb05b8e8ddc6039fa70a50d11434f6ba73219f3cc820e8100b10dcaf89ed90610ea09089908990899089908990899089906131f1565b60405180910390a150505050505050565b5f610ee4610ee060017f1777adabd324f814e2b0e28f6edf876dce01d7d66358c9acfe87b1b5f38338d6613087565b5490565b905090565b604051636c8d746160e11b81523060048201527f00000000000000000000000000000000000000000000000000000000000000006001600160a01b03169063d91ae8c2906024015f604051808303815f87803b158015610f47575f80fd5b505af1158015610f59573d5f803e3d5ffd5b50505050565b336001600160a01b037f00000000000000000000000000000000000000000000000000000000000000001614610f9757610f97611d18565b5f610fc6610ee060017f1777adabd324f814e2b0e28f6edf876dce01d7d66358c9acfe87b1b5f38338d6613087565b9050610ffb610ff660017f1777adabd324f814e2b0e28f6edf876dce01d7d66358c9acfe87b1b5f38338d6613087565b839055565b6110058183611d25565b5050565b60605f80548060200260200160405190810160405280929190818152602001828054801561105e57602002820191905f5260205f20905b81546001600160a01b03168152600190910190602001808311611040575b5050505050905090565b7f00000000000000000000000000000000000000000000000000000000000000006001600160a01b0316638da5cb5b6040518163ffffffff1660e01b8152600401602060405180830381865afa1580156110c4573d5f803e3d5ffd5b505050506040513d601f19601f820116820180604052508101906110e891906130cc565b6001600160a01b0316336001600160a01b0316146111195760405163226bc1e360e11b815260040160405180910390fd5b6001600160a01b0385165f9081526002602052604090206001015460ff1661115457604051634659113f60e11b815260040160405180910390fd5b61116084848484611c95565b6001600160a01b038581165f818152600260209081526040918290206001810180548a8716600160281b810265010000000000600160c81b031990921691909117909155815461ffff8816600160f01b81026001600160f01b036001600160501b038c16600160a01b81026001600160f01b03199095169a8e169a8b17949094171617845585519687529386019190915292840194909452606083019190915260808201527fba32e46aec30b4be89696b127e3fc9923645feaf4184109ba3627ac28e4de3b59060a00160405180910390a1505050505050565b7f00000000000000000000000000000000000000000000000000000000000000006001600160a01b0316638da5cb5b6040518163ffffffff1660e01b8152600401602060405180830381865afa158015611296573d5f803e3d5ffd5b505050506040513d601f19601f820116820180604052508101906112ba91906130cc565b6001600160a01b0316336001600160a01b0316146112eb5760405163226bc1e360e11b815260040160405180910390fd5b6001600160a01b0381165f9081526002602052604090206001015460ff1661132657604051634659113f60e11b815260040160405180910390fd5b6001600160a01b0381165f81815260026020908152604091829020600101805461ff001916905590519182527ff53ee7e14e8211031e94d3dbef2a1d525daa5842da39bffef5aa54c2cb76214a910160405180910390a150565b5f8061138a611c59565b6040516303c3e0ff60e11b81523360048201527f00000000000000000000000000000000000000000000000000000000000000006001600160a01b031690630787c1fe90602401602060405180830381865afa1580156113ec573d5f803e3d5ffd5b505050506040513d601f19601f820116820180604052508101906114109190613260565b61142d5760405163010b8f3560e11b815260040160405180910390fd5b6001600160a01b038b81165f9081526002602081815260408084208151610100808201845282548089168352600160a01b81046001600160501b031695830195909552600160f01b90940461ffff1692810192909252600181015460ff808216151560608501529381049093161515608083015262010000830462ffffff1660a0830152600160281b90920490941660c0850152908101805492939260e0840191906114d890613041565b80601f016020809104026020016040519081016040528092919081815260200182805461150490613041565b801561154f5780601f106115265761010080835404028352916020019161154f565b820191905f5260205f20905b81548152906001019060200180831161153257829003601f168201915b5050505050815250509050806060015161157c57604051634659113f60e11b815260040160405180910390fd5b6115878c8c8c611d55565b6101208a01519092506001600160a01b0316606083901b176101208a0152604080516020601f8a018190048102820181019092528881526115f7918b91908b908b90819084018382808284375f81840152601f19601f820116905080830192505050505050508e848a8a8a611e80565b925050611602611c8c565b995099975050505050505050565b604080517f00000000000000000000000000000000000000000000000000000000000000005f90815260208490527f000000000000000000000000000000000000000000000000000000000000000083526055600b20919092526001600160a01b03165b92915050565b5f611683611c59565b6040516303c3e0ff60e11b81523360048201527f00000000000000000000000000000000000000000000000000000000000000006001600160a01b031690630787c1fe90602401602060405180830381865afa1580156116e5573d5f803e3d5ffd5b505050506040513d601f19601f820116820180604052508101906117099190613260565b6117265760405163010b8f3560e11b815260040160405180910390fd5b611731848484611d55565b905061173b611c8c565b9392505050565b5f546060906117518382611c7d565b92505f61175e8585613087565b9050806001600160401b0381111561177857611778612c53565b6040519080825280602002602001820160405280156117a1578160200160208202803683370190505b5092505f5b81811015611816575f6117b9828861309a565b815481106117c9576117c96130ad565b905f5260205f20015f9054906101000a90046001600160a01b03168482815181106117f6576117f66130ad565b6001600160a01b03909216602092830291909101909101526001016117a6565b50505092915050565b5f611828611c59565b6040516303c3e0ff60e11b81523360048201527f00000000000000000000000000000000000000000000000000000000000000006001600160a01b031690630787c1fe90602401602060405180830381865afa15801561188a573d5f803e3d5ffd5b505050506040513d601f19601f820116820180604052508101906118ae9190613260565b6118cb5760405163010b8f3560e11b815260040160405180910390fd5b61012087013560601c5f818152600360205260409020546001600160a01b031680611909576040516340b7f7d160e11b815260040160405180910390fd5b6001600160a01b038181165f9081526002602081815260408084208151610100808201845282548089168352600160a01b81046001600160501b031695830195909552600160f01b90940461ffff1692810192909252600181015460ff808216151560608501529381049093161515608083015262010000830462ffffff1660a0830152600160281b90920490941660c0850152908101805492939260e0840191906119b490613041565b80601f01602080910402602001604051908101604052809291908181526020018280546119e090613041565b8015611a2b5780601f10611a0257610100808354040283529160200191611a2b565b820191905f5260205f20905b815481529060010190602001808311611a0e57829003601f168201915b5050505050815250509050611a858a611a439061327f565b8a8a8080601f0160208091040260200160405190810160405280939291908181526020018383808284375f920191909152508792508691508c90508b8b611e80565b9350505050611a92611c8c565b9695505050505050565b6001600160a01b0383165f908152600160205260409020805460609190611ac38482611c7d565b93505f611ad08686613087565b9050806001600160401b03811115611aea57611aea612c53565b604051908082528060200260200182016040528015611b13578160200160208202803683370190505b5093505f5b81811015611b885783611b2b828961309a565b81548110611b3b57611b3b6130ad565b905f5260205f20015f9054906101000a90046001600160a01b0316858281518110611b6857611b686130ad565b6001600160a01b0390921660209283029190910190910152600101611b18565b505050509392505050565b60408051610200810182525f80825260208201819052918101829052606081018290526080810182905260a0810182905260c0810182905260e08101829052610100810182905261012081018290526101408101829052610160810182905261018081018290526101a081018290526101c081018290526101e0810191909152611c46611c4160017f78cf023adbf9fec5dbd8e980a6a3526d1d11c66c894ab342ade9ace71f561905613087565b612428565b806020019051810190610ee491906132bb565b63929eee145c8015611c7257637fa8a9875f526004601cfd5b50600163929eee145d565b5f81830382841002820161173b565b5f63929eee145d565b6001600160501b03821615156001600160a01b03858116159085161561ffff841615801590611cc15750815b80611cd15750828015611cd15750815b80611ce15750828015611ce15750805b80611cf157506103e88461ffff16115b15611d0f5760405163369276d760e11b815260040160405180910390fd5b50505050505050565b634ee0b8f85f526004601cfd5b815f52806020527ff33499cccaa0611882086224cc48cd82ef54b66a4d2edf4ed67108dd516896d560405fa15050565b6001600160a01b0383165f908152600260205260408120600181015460ff16611d9157604051634659113f60e11b815260040160405180910390fd5b6001810154610100900460ff16611dbb57604051630e8dc67760e01b815260040160405180910390fd5b6040516001863b0380600183893c80820133815260406020820152858060408301528088606084013791909101606001905080825ff09350505081611e075763301164255f526004601cfd5b604080516001600160a01b038085168252871660208201527fa1d2f67e073e80e6ec12790c669d64ea9a5dbe85ed539a27549f7e447c480dfe910160405180910390a1506001600160a01b038082165f9081526003602052604090208054919095166001600160a01b0319909116179093555090919050565b86516040516305800c6360e51b81526001600160a01b0391821660048201525f917f0000000000000000000000000000000000000000000000000000000000000000169063b0018c6090602401602060405180830381865afa158015611ee8573d5f803e3d5ffd5b505050506040513d601f19601f82011682018060405250810190611f0c9190613260565b15611f2a57604051634742664560e01b815260040160405180910390fd5b5f611f3a89610120015160601c90565b9050606085901c331480611f5b57506bffffffffffffffffffffffff198516155b611f785760405163861f5c0b60e01b815260040160405180910390fd5b85516001600160a01b038581169116141580611fa1575085602001516001600160501b03168314155b15611fbf576040516336a9d01160e01b815260040160405180910390fd5b6001600160a01b03841615611fea5760c0860151611fea906001600160a01b03861690339086612446565b604080517f00000000000000000000000000000000000000000000000000000000000000005f5260208790527f000000000000000000000000000000000000000000000000000000000000000082526055600b2091526001600160a01b03166040516328fd030760e01b81529092506001600160a01b038216906328fd03079061207e90339086908e908e906004016133cc565b6020604051808303815f875af115801561209a573d5f803e3d5ffd5b505050506040513d601f19601f820116820180604052508101906120be91906134d2565b6101208a015288515f906120da906001600160a01b0316612495565b90505f8a602001516120f78c5f01516001600160a01b03166124cb565b604051602001612108929190613500565b60405160208183030381529060405290505f8b604001516121348d5f01516001600160a01b03166124e0565b604051602001612145929190613500565b60405160208183030381529060405290505f604051806102000160405280336001600160a01b031681526020018e5f01516001600160a01b031681526020018b60c001516001600160a01b031681526020018b6040015161ffff1681526020018e606001516001600160801b031681526020018e6080015161ffff1681526020018e60a0015161ffff1681526020018e60c0015163ffffffff1681526020018e60e0015161ffff1681526020018e610100015163ffffffff1681526020015f801b81526020015f801b81526020015f801b81526020015f801b81526020018560ff1681526020018e61012001518152509050612240836124f5565b610160830152610140820152612255826124f5565b6101a083015261018082015261226a81612529565b6001600160a01b0386163b1561229357604051630313b28560e01b815260040160405180910390fd5b6122bd7f00000000000000000000000000000000000000000000000000000000000000008a61257e565b5060405163a79b9ec960e01b81526001600160a01b0387811660048301527f0000000000000000000000000000000000000000000000000000000000000000169063a79b9ec9906024015f604051808303815f87803b15801561231e575f80fd5b505af1158015612330573d5f803e3d5ffd5b5061236a92506123659150600190507f78cf023adbf9fec5dbd8e980a6a3526d1d11c66c894ab342ade9ace71f561905613087565b61258a565b6001600160a01b038b81165f8181526001602081815260408084208054938401815584529281902090910180546001600160a01b031916948b169485179055840151608085015160a086015160c087015160e08801516101008901516101208a01516101e08b015197517f6f8c7c94fc16393d1ebec38de9899ba8c6bd860a025aa60063b7cf4c40a16c0998612410988f988f9891979096919590949193909290613514565b60405180910390a35050505050979650505050505050565b6040515f808252819061243b8483612590565b604052509092915050565b60405181606052826040528360601b602c526323b872dd60601b600c5260205f6064601c5f895af13d1560015f5114171661248857637939f4245f526004601cfd5b5f60605260405250505050565b5f63313ce5675f5260205f6004601c855afa6101005f511060203d1416166124c457633394d1705f526004601cfd5b50505f5190565b6060611674826306fdde03632ed09f5461263b565b6060611674826395d89b41633ddcc60a61263b565b5f808251603f81111561250f576319a65cb65f526004601cfd5b50601f8301519150601f835111603f840151029050915091565b6107898160405160200161253d919061359d565b60408051601f1981840301815291905261257860017f78cf023adbf9fec5dbd8e980a6a3526d1d11c66c894ab342ade9ace71f561905613087565b906126e7565b5f61173b83835f61274d565b5f815d50565b5f6125cc565b6002810460018216806125aa57607f821691505b6020821081036125c657634e487b715f5260226020526024601cfd5b50919050565b825c6125d781612596565b8084526020909301926001821680156125f7576001811461260957611816565b60ff1983168552602085019350611816565b855f5260205f205f5b8381101561262e57815c87820152600190910190602001612612565b9095019695505050505050565b60605f835f525f806004601c885afa60203d149150605f3d1182171581151715612688578061267b573d15612672573d5f803e3d5ffd5b835f526004601cfd5b634cb9c0005f526004601cfd5b5080156126a9575f60205f803e505f516126a181612777565b9250506126df565b604051915063ffffffe060013d031680830160405260203d036020843e6020013d81146126dd57634cb9c0005f526004601cfd5b505b509392505050565b805160209182019181108015612704576001811461273a57610f59565b81600202600101845d835f5260205f205f5b838110156127335780850151825d60019190910190602001612716565b5050610f59565b816002028351818117865d505050505050565b5f6040516001853b0380600183883c84818386f5925050508061173b5763301164255f526004601cfd5b60605f806127e7847e1f0d1e100c1d070f090b19131c1706010e11080a1a141802121b150316040581196001018216911560081b6001600160801b03831160071b1782811c6001600160401b031060061b1782811c63ffffffff1060051b1791821c63d76453e004601f161a1790565b60ff0390506008600782010491505060405191506040820160405280825282602083015250919050565b81516001600160a01b0316815261026081016020830151612837602084018260ff169052565b5060408301516040830152606083015160608301526080830151608083015260a083015160a083015260c083015161287a60c08401826001600160a01b03169052565b5060e083015161289560e08401826001600160a01b03169052565b50610100838101516001600160a01b0390811691840191909152610120808501516001600160801b0316908401526101408085015161ffff9081169185019190915261016080860151821690850152610180808601518216908501526101a08086015163ffffffff908116918601919091526101c080870151909216918501919091526101e0808601519091169084015261020080850151821690840152610220808501519091169083015261024092830151929091019190915290565b6001600160a01b0381168114610789575f80fd5b803561297281612953565b919050565b5f60208284031215612987575f80fd5b813561173b81612953565b602080825282518282018190525f9190848201906040850190845b818110156129d25783516001600160a01b0316835292840192918401916001016129ad565b50909695505050505050565b5f81518084528060208401602086015e5f602082860101526020601f19601f83011685010191505092915050565b602080825282516001600160a01b0316828201528201516001600160501b031660408083019190915282015161ffff811660608301525f90506060830151801515608084015250608083015180151560a08401525060a083015162ffffff811660c08401525060c08301516001600160a01b03811660e08401525060e083015161010083810152612aa16101208401826129de565b949350505050565b5f805f60608486031215612abb575f80fd5b8335612ac681612953565b95602085013595506040909401359392505050565b5f8083601f840112612aeb575f80fd5b5081356001600160401b03811115612b01575f80fd5b602083019150836020828501011115612b18575f80fd5b9250929050565b80356001600160501b0381168114612972575f80fd5b61ffff81168114610789575f80fd5b803561297281612b35565b5f805f805f805f60c0888a031215612b65575f80fd5b8735612b7081612953565b965060208801356001600160401b03811115612b8a575f80fd5b612b968a828b01612adb565b9097509550506040880135612baa81612953565b93506060880135612bba81612953565b9250612bc860808901612b1f565b915060a0880135612bd881612b35565b8091505092959891949750929550565b5f805f805f60a08688031215612bfc575f80fd5b8535612c0781612953565b94506020860135612c1781612953565b93506040860135612c2781612953565b9250612c3560608701612b1f565b91506080860135612c4581612b35565b809150509295509295909350565b634e487b7160e01b5f52604160045260245ffd5b60405161014081016001600160401b0381118282101715612c8a57612c8a612c53565b60405290565b60405161020081016001600160401b0381118282101715612c8a57612c8a612c53565b5f82601f830112612cc2575f80fd5b81356001600160401b0380821115612cdc57612cdc612c53565b604051601f8301601f19908116603f01168101908282118183101715612d0457612d04612c53565b81604052838152866020858801011115612d1c575f80fd5b836020870160208301375f602085830101528094505050505092915050565b6001600160801b0381168114610789575f80fd5b803561297281612d3b565b63ffffffff81168114610789575f80fd5b803561297281612d5a565b5f6101408284031215612d87575f80fd5b612d8f612c67565b9050612d9a82612967565b815260208201356001600160401b0380821115612db5575f80fd5b612dc185838601612cb3565b60208401526040840135915080821115612dd9575f80fd5b50612de684828501612cb3565b604083015250612df860608301612d4f565b6060820152612e0960808301612b44565b6080820152612e1a60a08301612b44565b60a0820152612e2b60c08301612d6b565b60c0820152612e3c60e08301612b44565b60e0820152610100612e4f818401612d6b565b818301525061012080830135818301525092915050565b5f805f805f805f805f60e08a8c031215612e7e575f80fd5b8935612e8981612953565b985060208a01356001600160401b0380821115612ea4575f80fd5b612eb08d838e01612adb565b909a50985060408c0135915080821115612ec8575f80fd5b612ed48d838e01612d76565b975060608c0135915080821115612ee9575f80fd5b50612ef68c828d01612adb565b90965094505060808a0135925060a08a0135612f1181612953565b8092505060c08a013590509295985092959850929598565b5f60208284031215612f39575f80fd5b5035919050565b5f805f60408486031215612f52575f80fd5b8335612f5d81612953565b925060208401356001600160401b03811115612f77575f80fd5b612f8386828701612adb565b9497909650939450505050565b5f8060408385031215612fa1575f80fd5b50508035926020909101359150565b5f805f805f8060a08789031215612fc5575f80fd5b86356001600160401b0380821115612fdb575f80fd5b90880190610140828b031215612fef575f80fd5b90965060208801359080821115613004575f80fd5b5061301189828a01612adb565b90965094505060408701359250606087013561302c81612953565b80925050608087013590509295509295509295565b600181811c9082168061305557607f821691505b6020821081036125c657634e487b7160e01b5f52602260045260245ffd5b634e487b7160e01b5f52601160045260245ffd5b8181038181111561167457611674613073565b8082018082111561167457611674613073565b634e487b7160e01b5f52603260045260245ffd5b805161297281612953565b5f602082840312156130dc575f80fd5b815161173b81612953565b601f821115610b8957805f5260205f20601f840160051c8101602085101561310c5750805b601f840160051c820191505b8181101561312b575f8155600101613118565b5050505050565b81516001600160401b0381111561314b5761314b612c53565b61315f816131598454613041565b846130e7565b602080601f831160018114613192575f841561317b5750858301515b5f19600386901b1c1916600185901b1785556131e9565b5f85815260208120601f198616915b828110156131c0578886015182559484019460019091019084016131a1565b50858210156131dd57878501515f19600388901b60f8161c191681555b505060018460011b0185555b505050505050565b6001600160a01b03888116825260c06020830181905282018790525f90878960e08501375f60e089850181019190915296811660408401529490941660608201526001600160501b0392909216608083015261ffff1660a0820152601f909301601f1916909201019392505050565b5f60208284031215613270575f80fd5b8151801515811461173b575f80fd5b5f6116743683612d76565b805161297281612b35565b805161297281612d3b565b805161297281612d5a565b805160ff81168114612972575f80fd5b5f61020082840312156132cc575f80fd5b6132d4612c90565b6132dd836130c1565b81526132eb602084016130c1565b60208201526132fc604084016130c1565b604082015261330d6060840161328a565b606082015261331e60808401613295565b608082015261332f60a0840161328a565b60a082015261334060c0840161328a565b60c082015261335160e084016132a0565b60e082015261010061336481850161328a565b908201526101206133768482016132a0565b908201526101408381015190820152610160808401519082015261018080840151908201526101a080840151908201526101c06133b48185016132ab565b908201526101e0928301519281019290925250919050565b6001600160a01b03858116825284811660208301526080604083018190528451909116908201525f60208401516101408060a08501526134106101c08501836129de565b91506040860151607f198584030160c086015261342d83826129de565b925050606086015161344a60e08601826001600160801b03169052565b5060808601516101006134628187018361ffff169052565b60a0880151915061012061347b8188018461ffff169052565b60c089015163ffffffff9081169488019490945260e089015161ffff1661016088015290880151909216610180860152508501516101a084015282810360608401526134c781856129de565b979650505050505050565b5f602082840312156134e2575f80fd5b5051919050565b5f81518060208401855e5f93019283525090919050565b5f612aa161350e83866134e9565b846134e9565b5f6101408083526135278184018e6129de565b9050828103602084015261353b818d6129de565b6001600160a01b039b909b16604084015250506001600160801b0397909716606088015261ffff958616608088015293851660a087015263ffffffff92831660c0870152931660e0850152919091166101008301526101209091015292915050565b81516001600160a01b03168152610200810160208301516135c960208401826001600160a01b03169052565b5060408301516135e460408401826001600160a01b03169052565b5060608301516135fa606084018261ffff169052565b50608083015161361560808401826001600160801b03169052565b5060a083015161362b60a084018261ffff169052565b5060c083015161364160c084018261ffff169052565b5060e083015161365960e084018263ffffffff169052565b506101008381015161ffff16908301526101208084015163ffffffff16908301526101408084015190830152610160808401519083015261018080840151908301526101a080840151908301526101c08084015160ff16908301526101e09283015192909101919091529056fea164736f6c6343000819000a6080604052348015600e575f80fd5b5061073f8061001c5f395ff3fe608060405234801561000f575f80fd5b50600436106100e5575f3560e01c8063675f246411610088578063ccdad14b11610063578063ccdad14b14610261578063dbe4b10114610274578063de46641f14610299578063f109cd26146102d2575f80fd5b8063675f2464146101ff5780636e46695114610226578063706e468a1461024f575f80fd5b806340e698b4116100c357806340e698b414610152578063453d89601461019257806354560cb2146101cc57806361e27120146101df575f80fd5b806312e39aad146100e9578063256909f114610120578063281a5bac14610146575b5f80fd5b61011e6100f7366004610520565b5f91825260026020526040909120805463ffffffff191663ffffffff909216919091179055565b005b5f5461013190610100900460ff1681565b60405190151581526020015b60405180910390f35b5f546101319060ff1681565b61011e610160366004610560565b6001600160a01b03919091165f908152600160205260409020805463ffffffff191663ffffffff909216919091179055565b6101b76101a0366004610588565b60016020525f908152604090205463ffffffff1681565b60405163ffffffff909116815260200161013d565b6101b76101da3660046105a1565b610303565b61011e6101ed36600461061d565b5f805460ff1916911515919091179055565b61011e61020d36600461061d565b5f80549115156101000261ff0019909216919091179055565b61011e61023436600461061d565b5f8054911515620100000262ff000019909216919091179055565b5f546101319062010000900460ff1681565b6101b761026f366004610588565b61045f565b6101b761028236600461063c565b60026020525f908152604090205463ffffffff1681565b61011e6102a7366004610588565b5f80546001600160a01b039092166301000000026301000000600160b81b0319909216919091179055565b5f546102eb90630100000090046001600160a01b031681565b6040516001600160a01b03909116815260200161013d565b5f805460ff16156103265760405162e37a2360e51b815260040160405180910390fd5b5f5462010000900460ff161561033857005b5f54630100000090046001600160a01b031615610427575f8061035d84860186610667565b604080516001600160a01b038a1660208083019190915263ffffffff8516828401528251808303840181526060909201909252805191012091935091505f6103a582846104b5565b5f549091506001600160a01b038083166301000000909204161461041b5760405162461bcd60e51b815260206004820152602360248201527f4d6f636b526f6c6550726f76696465723a20696e76616c6964207369676e617460448201526275726560e81b606482015260840160405180910390fd5b83945050505050610458565b5f8383604051610438929190610723565b60408051918290039091205f9081526002602052205463ffffffff169150505b9392505050565b5f805460ff16156104825760405162e37a2360e51b815260040160405180910390fd5b5f5462010000900460ff161561049457005b506001600160a01b03165f9081526001602052604090205463ffffffff1690565b5f6040518251845f5260608401515f1a602052602084015160405260408401516060526020600160805f604185145afa519250503d6104fb57638baa579f5f526004601cfd5b5f60605260405292915050565b803563ffffffff8116811461051b575f80fd5b919050565b5f8060408385031215610531575f80fd5b8235915061054160208401610508565b90509250929050565b80356001600160a01b038116811461051b575f80fd5b5f8060408385031215610571575f80fd5b61057a8361054a565b915061054160208401610508565b5f60208284031215610598575f80fd5b6104588261054a565b5f805f604084860312156105b3575f80fd5b6105bc8461054a565b9250602084013567ffffffffffffffff808211156105d8575f80fd5b818601915086601f8301126105eb575f80fd5b8135818111156105f9575f80fd5b87602082850101111561060a575f80fd5b6020830194508093505050509250925092565b5f6020828403121561062d575f80fd5b81358015158114610458575f80fd5b5f6020828403121561064c575f80fd5b5035919050565b634e487b7160e01b5f52604160045260245ffd5b5f8060408385031215610678575f80fd5b61068183610508565b9150602083013567ffffffffffffffff8082111561069d575f80fd5b818501915085601f8301126106b0575f80fd5b8135818111156106c2576106c2610653565b604051601f8201601f19908116603f011681019083821181831017156106ea576106ea610653565b81604052828152886020848701011115610702575f80fd5b826020860160208301375f6020848301015280955050505050509250929050565b818382375f910190815291905056fea164736f6c6343000819000a608060405234801561000f575f80fd5b506004361061003f575f3560e01c8063298eb83f14610043578063df592f7d14610073578063ed986c6c146100a9575b5f80fd5b6100716100513660046100da565b6001600160a01b03165f908152602081905260409020805460ff19169055565b005b6100956100813660046100da565b5f6020819052908152604090205460ff1681565b604051901515815260200160405180910390f35b6100716100b73660046100da565b6001600160a01b03165f908152602081905260409020805460ff19166001179055565b5f602082840312156100ea575f80fd5b81356001600160a01b0381168114610100575f80fd5b939250505056fea164736f6c6343000819000a6080604052348015600e575f80fd5b50604051610fb6380380610fb6833981016040819052602b91604e565b5f80546001600160a01b0319166001600160a01b03929092169190911790556079565b5f60208284031215605d575f80fd5b81516001600160a01b03811681146072575f80fd5b9392505050565b610f30806100865f395ff3fe608060405234801561000f575f80fd5b506004361061004a575f3560e01c806301ffc9a71461004e57806311ede2e6146100775780638925ca5a1461008c578063f0bd9468146100ac575b5f80fd5b61006261005c366004610c22565b50600190565b60405190151581526020015b60405180910390f35b61008a610085366004610c66565b6100bf565b005b61009f61009a366004610c7f565b610159565b60405161006e9190610cff565b61008a6100ba366004610d8a565b61043f565b6001600160a01b03811661011a5760405162461bcd60e51b815260206004820152601a60248201527f4d6f636b456e67696e653a2073656e646572206973207a65726f00000000000060448201526064015b60405180910390fd5b6040516001600160a01b03821681527f8ae442dc772a9633ae87e53b912b61c96ab137f198394a033a3641c76ba0915c9060200160405180910390a150565b60605f80516020610f048339815191525f1c6001600160a01b031663d1a5b36f6040518163ffffffff1660e01b81526004015f604051808303815f87803b1580156101a2575f80fd5b505af11580156101b4573d5f803e3d5ffd5b505050506101e460405180606001604052805f6001600160a01b0316815260200160608152602001606081525090565b338082526101f19061090f565b6020820181905280519092501561032a57815167ffffffffffffffff81111561021c5761021c610e07565b604051908082528060200260200182016040528015610245578160200160208202803683370190505b5060408201525f5b8251811015610328575f80516020610f048339815191525f1c6001600160a01b031663667f9d703385848151811061028757610287610e1b565b60200260200101516040518363ffffffff1660e01b81526004016102c09291906001600160a01b03929092168252602082015260400190565b602060405180830381865afa1580156102db573d5f803e3d5ffd5b505050506040513d601f19601f820116820180604052508101906102ff9190610e2f565b8260400151828151811061031557610315610e1b565b602090810291909101015260010161024d565b505b6001805480820182555f9190915281517fb10e2d527612073b26eecdfd717e6a320cf44b4afac2b0732d9fcbe2b7fa0cf6600390920291820180546001600160a01b0319166001600160a01b03909216919091178155602080840151805185946103ba937fb10e2d527612073b26eecdfd717e6a320cf44b4afac2b0732d9fcbe2b7fa0cf7909101920190610ba7565b50604082015180516103d6916002840191602090910190610ba7565b5050505f80516020610f048339815191525f1c6001600160a01b0316632bcd50e06040518163ffffffff1660e01b81526004015f604051808303815f87803b158015610420575f80fd5b505af1158015610432573d5f803e3d5ffd5b5050505050949350505050565b5f80516020610f048339815191525f1c6001600160a01b031663d1a5b36f6040518163ffffffff1660e01b81526004015f604051808303815f87803b158015610486575f80fd5b505af1158015610498573d5f803e3d5ffd5b50506001541515915061050190505760405162461bcd60e51b815260206004820152602960248201527f4d6f636b456e67696e653a20756e65787065637465642063616368656443616c6044820152680d8e640d8cadccee8d60bb1b6064820152608401610111565b600180545f9190610513908290610e5a565b8154811061052357610523610e1b565b5f91825260209182902060408051606081018252600390930290910180546001600160a01b0316835260018101805483518187028101870190945280845293949193858301939283018282801561059757602002820191905f5260205f20905b815481526020019060010190808311610583575b50505050508152602001600282018054806020026020016040519081016040528092919081815260200182805480156105ed57602002820191905f5260205f20905b8154815260200190600101908083116105d9575b5050509190925250505060208101518151919250906001600160a01b031633146106595760405162461bcd60e51b815260206004820152601d60248201527f4d6f636b456e67696e653a20756e65787065637465642073656e6465720000006044820152606401610111565b805185146106795760405162461bcd60e51b815260040161011190610e73565b805183146106995760405162461bcd60e51b815260040161011190610e73565b5f5b8151811015610856578686828181106106b6576106b6610e1b565b90506020020135836040015182815181106106d3576106d3610e1b565b6020026020010151146107345760405162461bcd60e51b815260206004820152602360248201527f4d6f636b456e67696e653a20756e65787065637465642076616c7565206265666044820152626f726560e81b6064820152608401610111565b84848281811061074657610746610e1b565b905060200201355f80516020610f048339815191525f1c6001600160a01b031663667f9d703385858151811061077e5761077e610e1b565b60200260200101516040518363ffffffff1660e01b81526004016107b79291906001600160a01b03929092168252602082015260400190565b602060405180830381865afa1580156107d2573d5f803e3d5ffd5b505050506040513d601f19601f820116820180604052508101906107f69190610e2f565b1461084e5760405162461bcd60e51b815260206004820152602260248201527f4d6f636b456e67696e653a20756e65787065637465642076616c75652061667460448201526132b960f11b6064820152608401610111565b60010161069b565b50600180548061086857610868610ebd565b5f8281526020812060035f199093019283020180546001600160a01b0319168155906108976001830182610bf0565b6108a4600283015f610bf0565b505090555f80516020610f048339815191525f1c6001600160a01b0316632bcd50e06040518163ffffffff1660e01b81526004015f604051808303815f87803b1580156108ef575f80fd5b505af1158015610901573d5f803e3d5ffd5b505050505050505050505050565b5f5460405163252c724f60e11b81526001600160a01b0383811660048301526060921690634a58e49e90602401602060405180830381865afa158015610957573d5f803e3d5ffd5b505050506040513d601f19601f8201168201806040525081019061097b9190610ed1565b156109db576040805160078082526101008201909252906020820160e0803683370190505090505f5b60078110156109d557805f1b8282815181106109c2576109c2610e1b565b60209081029190910101526001016109a4565b50919050565b5f5460405163466e59f360e11b81526001600160a01b03848116600483015290911690638cdcb3e690602401602060405180830381865afa158015610a22573d5f803e3d5ffd5b505050506040513d601f19601f82011682018060405250810190610a469190610ed1565b15610aa95760408051600680825260e08201909252906020820160c0803683370190505090505f5b60068110156109d557610a82816004610ef0565b5f1b828281518110610a9657610a96610e1b565b6020908102919091010152600101610a6e565b5f5460405163099882f760e41b81526001600160a01b038481166004830152909116906399882f7090602401602060405180830381865afa158015610af0573d5f803e3d5ffd5b505050506040513d601f19601f82011682018060405250810190610b149190610ed1565b15610ba2576040805160038082526080820190925290602082016060803683370190505090505f801b815f81518110610b4f57610b4f610e1b565b60200260200101818152505060015f1b81600181518110610b7257610b72610e1b565b60200260200101818152505060045f1b81600281518110610b9557610b95610e1b565b6020026020010181815250505b919050565b828054828255905f5260205f20908101928215610be0579160200282015b82811115610be0578251825591602001919060010190610bc5565b50610bec929150610c0e565b5090565b5080545f8255905f5260205f2090810190610c0b9190610c0e565b50565b5b80821115610bec575f8155600101610c0f565b5f60208284031215610c32575f80fd5b81356001600160e01b031981168114610c49575f80fd5b9392505050565b80356001600160a01b0381168114610ba2575f80fd5b5f60208284031215610c76575f80fd5b610c4982610c50565b5f805f8060608587031215610c92575f80fd5b84359350610ca260208601610c50565b9250604085013567ffffffffffffffff80821115610cbe575f80fd5b818701915087601f830112610cd1575f80fd5b813581811115610cdf575f80fd5b886020828501011115610cf0575f80fd5b95989497505060200194505050565b602080825282518282018190525f9190848201906040850190845b81811015610d3657835183529284019291840191600101610d1a565b50909695505050505050565b5f8083601f840112610d52575f80fd5b50813567ffffffffffffffff811115610d69575f80fd5b6020830191508360208260051b8501011115610d83575f80fd5b9250929050565b5f805f805f8060808789031215610d9f575f80fd5b8635955060208701359450604087013567ffffffffffffffff80821115610dc4575f80fd5b610dd08a838b01610d42565b90965094506060890135915080821115610de8575f80fd5b50610df589828a01610d42565b979a9699509497509295939492505050565b634e487b7160e01b5f52604160045260245ffd5b634e487b7160e01b5f52603260045260245ffd5b5f60208284031215610e3f575f80fd5b5051919050565b634e487b7160e01b5f52601160045260245ffd5b81810381811115610e6d57610e6d610e46565b92915050565b6020808252602a908201527f4d6f636b456e67696e653a20756e65787065637465642073746f72616765536c6040820152690dee8e640d8cadccee8d60b31b606082015260800190565b634e487b7160e01b5f52603160045260245ffd5b5f60208284031215610ee1575f80fd5b81518015158114610c49575f80fd5b80820180821115610e6d57610e6d610e4656fe885cb69240a935d632d79c317109709ecfa91a80626ff3989d68f67f5b1dd12da164736f6c6343000819000a610260604052348015610010575f80fd5b5033610100525f6100326101e560201b612073176001600160401b031660201c565b9050805f01516001600160a01b03166101c0816001600160a01b031681525050806020015160ff166101a08160ff168152505080604001516101e0818152505080606001516102008181525050806080015161022081815250508060a0015161024081815250505f8161012001516001600160801b031690505f826101c0015161ffff1690505f83610160015161ffff1690505f84610140015161ffff1690508360081b805f55508060201b8260301b178360401b6b033b2e3c9fd0803ce800000060501b4260c01b1717178060035f0155505050505080610240015160a081815250508061010001516001600160a01b031660c0816001600160a01b0316815250508060c001516001600160a01b031660e0816001600160a01b0316815250508060e001516001600160a01b0316610120816001600160a01b03168152505080610180015161ffff166101408181525050806101e0015163ffffffff166101608181525050806101a0015163ffffffff1661018081815250508061020001516001600160a01b03166080816001600160a01b0316815250506101df81610220015161021660201b60201c565b506102ed565b5f604051905061026081016040526304032dbb5f52610260816004601c335afa6102603d1416610213575f80fd5b90565b6102285f60805161026860201b60201c565b61025b61025660017f1777adabd324f814e2b0e28f6edf876dce01d7d66358c9acfe87b1b5f38338d66102c8565b829055565b6102655f82610298565b50565b815f52806020527f2ac55ae7ba47db34b5334622acafeb34a65daf143b47019273185d64c73a35a560405fa15050565b815f52806020527ff33499cccaa0611882086224cc48cd82ef54b66a4d2edf4ed67108dd516896d560405fa15050565b818103818111156102e757634e487b7160e01b5f52601160045260245ffd5b92915050565b60805160a05160c05160e05161010051610120516101405161016051610180516101a0516101c0516101e05161020051610220516102405161546b6104de5f395f61168d01525f61166901525f610a9d01525f610a7901525f818161057e01528181610971015281816109db01528181610fc8015281816112700152818161197201528181611cb601528181611d900152818161293101528181612dfa01528181612e52015281816137f501526145fe01525f61051f01525f818161076801526132cd01525f8181610639015281816122e3015281816123ce0152818161270701526127a101525f81816105ff015281816122c2015281816123ad015281816126e6015261278001525f81816105d80152611db301525f81816107f5015261170201525f818161072401528181610939015281816110a4015281816118a50152818161199401528181611bc201528181611c0d01528181611f0c01528181613c3f015261462201525f818161091501528181613b4c01528181613c63015261464601525f818161083f015281816110290152818161110a01528181611781015281816119cc01528181611c8301528181611eda01528181611f7c0152818161296801528181612b5401528181612d570152818161332301526137b801525f818161065d015261117b015261546b5ff3fe608060405234801561000f575f80fd5b50600436106103a8575f3560e01c80636731ba6d116101ea578063b67afb3311610114578063cd7033c4116100a9578063dd62ed3e11610079578063dd62ed3e146108d3578063e5adc635146108fd578063e7e5db4f1461065b578063f58c251c14610910575f80fd5b8063cd7033c41461083a578063d98e0fe814610861578063dbcd50b414610874578063dcd549d4146108c0575f80fd5b8063c45a0155116100e4578063c45a0155146107f0578063c511ed5e14610817578063c5ebeaec1461081f578063c879657214610832575f80fd5b8063b67afb33146107b8578063b68ce7a2146107c0578063b6b55f25146107d3578063c2b6b58c146107e6575f80fd5b8063766360171161018a5780639e6f98021161015a5780639e6f980214610763578063a9059cbb1461078a578063ae6ea1911461079d578063b1bf962d146107b0575f80fd5b806376636017146107175780637df1f1b91461071f578063878eb9211461074657806395d89b411461075b575f80fd5b806370a08231116101c557806370a08231146106d45780637243d96c146106e7578063739ccdd3146106ef57806374058859146106f7575f80fd5b80636731ba6d14610691578063683dd191146106a45780636b174f35146106ac575f80fd5b80631e3cef53116102d65780633f3e4c111161026b578063514a4cd61161023b578063514a4cd614610634578063546355701461065b57806354b302c51461068157806354fd4d5014610689575f80fd5b80633f3e4c11146105c057806346904840146105d35780634be687c6146105fa5780634c6c848f14610621575f80fd5b806334bca29c116102a657806334bca29c14610553578063371fd8e61461056657806338d52e0f146105795780633c231166146105b8575f80fd5b80631e3cef53146104d257806323b872dd146104f25780632ab4d05214610505578063313ce5671461051a575f80fd5b80630c3f6acf1161034c57806318160ddd1161031c57806318160ddd146104a757806319521311146104af5780631d8557d7146104b75780631da24f3e146104bf575f80fd5b80630c3f6acf1461047c5780630cd1a5b61461048457806311057cd01461048c57806314a1c32d1461049f575f80fd5b806306fdde031161038757806306fdde031461041c578063088fee5e14610431578063095ea7b3146104445780630c1e3fea14610467575f80fd5b8062ae3bf8146103ac57806301e1d114146103c157806302372c4f146103dc575b5f80fd5b6103bf6103ba366004614f1b565b610937565b005b6103c96109cd565b6040519081526020015b60405180910390f35b6103ef6103ea366004614f47565b610a06565b6040805182516001600160681b031681526020928301516001600160801b031692810192909252016103d3565b610424610a74565b6040516103d39190614f78565b6103c961043f366004614f47565b610ad3565b610457610452366004614fad565b610c23565b60405190151581526020016103d3565b61046f610c58565b6040516103d39190614fd5565b61046f610d56565b6103c9610d7d565b600354600160301b900461ffff166103c9565b6103c9610da4565b6103c9610dc0565b6103bf610ddc565b6103bf610e46565b6103c96104cd366004614f1b565b610e77565b6104da610ea8565b6040516001600160801b0390911681526020016103d3565b610457610500366004615100565b610ec5565b5f5461010090046001600160801b03166103c9565b6105417f000000000000000000000000000000000000000000000000000000000000000081565b60405160ff90911681526020016103d3565b6103c9610561366004614f47565b610f4a565b6103bf610574366004615139565b610f99565b6105a07f000000000000000000000000000000000000000000000000000000000000000081565b6040516001600160a01b0390911681526020016103d3565b6105a061106f565b6103bf6105ce366004615139565b6110a2565b6105a07f000000000000000000000000000000000000000000000000000000000000000081565b6103c97f000000000000000000000000000000000000000000000000000000000000000081565b6103bf61062f366004614f1b565b611170565b6103c97f000000000000000000000000000000000000000000000000000000000000000081565b7f00000000000000000000000000000000000000000000000000000000000000006105a0565b6103c9611216565b610424611234565b6103bf61069f366004615150565b61124a565b6103c9611377565b6106bf6106ba366004615139565b61139e565b60405163ffffffff90911681526020016103d3565b6103c96106e2366004614f1b565b611427565b6106bf611466565b6103c96114ef565b61070a6107053660046151b8565b61150b565b6040516103d3919061521f565b6103c961162b565b6105a07f000000000000000000000000000000000000000000000000000000000000000081565b61074e611650565b6040516103d39190615262565b610424611664565b6103c97f000000000000000000000000000000000000000000000000000000000000000081565b610457610798366004614fad565b6116c3565b6103bf6107ab3660046152b0565b6116e4565b6103c96117f4565b6103bf61181a565b6103c96107ce366004615139565b61184d565b6103bf6107e1366004615139565b611873565b5f5460ff16610457565b6105a07f000000000000000000000000000000000000000000000000000000000000000081565b6103bf6118a3565b6103bf61082d366004615139565b611bc0565b6103bf611cfa565b6103c97f000000000000000000000000000000000000000000000000000000000000000081565b600354600160401b900461ffff166103c9565b6108876108823660046152c9565b611df5565b6040805182516001600160681b03908116825260208085015190911690820152918101516001600160801b0316908201526060016103d3565b6103bf6108ce366004614f1b565b611ea2565b6103c96108e13660046152e2565b600960209081525f928352604080842090915290825290205481565b6103bf61090b36600461530a565b611f0a565b6105a07f000000000000000000000000000000000000000000000000000000000000000081565b7f000000000000000000000000000000000000000000000000000000000000000033811461096c576302171e6a5f526004601cfd5b6109a87f00000000000000000000000000000000000000000000000000000000000000006001600160a01b039081169084169081149030141790565b156109b5576109b56120a1565b6109c86001600160a01b038316336120ae565b505050565b5f610a016001600160a01b037f0000000000000000000000000000000000000000000000000000000000000000163061211d565b905090565b604080518082019091525f8082526020820152610a21612152565b63ffffffff9091165f9081526008602090815260408083206001600160a01b039095168352938152929020546001600160681b03811682526001600160801b03600160681b909104169181019190915290565b60605f7f000000000000000000000000000000000000000000000000000000000000000090505f7f0000000000000000000000000000000000000000000000000000000000000000905060205f525f60205281603f5280605f5260805ff35b5f610adc612152565b428263ffffffff1610610af157610af161216a565b5f80610afb612177565b9250925050610b22604080516060810182525f808252602082018190529181019190915290565b8263ffffffff168563ffffffff1603610b3c575080610b91565b5063ffffffff84165f90815260076020908152604091829020825160608101845281546001600160681b038082168352600160681b9091041692810192909252600101546001600160801b0316918101919091525b63ffffffff8086165f9081526008602090815260408083206001600160a01b038b16845282528083208151808301835290546001600160681b038082168084526001600160801b03600160681b90930483169584018690528851948901519397959695610c08959490931693909291169061249016565b9050610c148282615346565b96505050505050505b92915050565b5f610c2c6124b4565b5f610c356124d8565b9050610c423385856124e9565b60019150610c4f8161251b565b50610c1d612527565b610c60614e92565b604080516101c080820183525f5460ff808216151584526001600160801b03610100928390048116602086015260015480821696860196909652600160801b90950490941660608401526002546001600160681b038082166080860152600160681b82041660a085015263ffffffff600160d01b8204811660c0860152600160f01b909104909416151560e08401526003548085169184019190915261ffff64010000000082048116610120850152600160301b82048116610140850152600160401b8204166101608401526001600160701b03600160501b820416610180840152600160c01b90049092166101a08201529081f35b610d5e614e92565b610d66612152565b610d756125305b63ffffffff16565b90506101c081f35b5f610d86612152565b610d91612530610d6d565b604001516001600160801b031690505b90565b5f610dad612152565b610a01610dbb612530610d6d565b612544565b5f610dc9612152565b610a01610dd7612530610d6d565b612595565b610de46124b4565b5f610ded6124d8565b90505f610df86125b6565b90505f610e19610e066109cd565b610e0f84612544565b9080821191030290565b9050610e2782826004612906565b610e308261298f565b5050610e3b8161251b565b50610e44612527565b565b610e4e6124b4565b5f610e576124d8565b90505f610e626125b6565b9050610e6d8161298f565b50610e3b8161251b565b5f610e80612152565b506001600160a01b0381165f908152600460205260409020546001600160681b03165b919050565b5f610a01610eb46109cd565b610ebf612530610d6d565b90612ae8565b5f610ece6124b4565b5f610ed76124d8565b6001600160a01b0386165f9081526009602090815260408083203384529091529020549091505f198114610f1f575f610f108583615346565b9050610f1d8733836124e9565b505b610f2c8686866064612b1c565b6001925050610f3a8161251b565b50610f43612527565b9392505050565b5f610f536124b4565b5f610f5c6124d8565b90505f610f676125b6565b90505f610f82828787610f7d60445f5236155190565b612c57565b9050610f8d8261298f565b925050610c4f8161251b565b610fa16124b4565b5f610faa6124d8565b9050815f03610fbb57610fbb612eb1565b610ff06001600160a01b037f000000000000000000000000000000000000000000000000000000000000000016333085612ebe565b610ffa3383612f0d565b5f6110036125b6565b80519091501561101557611015612f3a565b611050838261102760245f5236155190565b7f0000000000000000000000000000000000000000000000000000000000000000929190612f47565b6110598161298f565b506110638161251b565b5061106c612527565b50565b5f610a0161109e60017f1777adabd324f814e2b0e28f6edf876dce01d7d66358c9acfe87b1b5f38338d6615346565b5490565b7f00000000000000000000000000000000000000000000000000000000000000003381146110d7576302171e6a5f526004601cfd5b6110df6124b4565b5f6110e86124d8565b90505f6110f36125b6565b80519091501561110557611105612fbf565b6111307f00000000000000000000000000000000000000000000000000000000000000008583612fcc565b61113984613048565b6001600160801b031660208201526111508161298f565b6111598461305d565b506111638161251b565b5061116c612527565b5050565b336001600160a01b037f000000000000000000000000000000000000000000000000000000000000000016146111a8576111a8613088565b5f6111d761109e60017f1777adabd324f814e2b0e28f6edf876dce01d7d66358c9acfe87b1b5f38338d6615346565b905061120c61120760017f1777adabd324f814e2b0e28f6edf876dce01d7d66358c9acfe87b1b5f38338d6615346565b839055565b61116c8183613095565b5f80611223612530610d6d565b905061122e816130c5565b91505090565b60605f6040526101326041526020805260606020f35b6112526124b4565b5f61125b6124d8565b905082156112a2576112986001600160a01b037f000000000000000000000000000000000000000000000000000000000000000016333086612ebe565b6112a23384612f0d565b5f6112ab6125b6565b8051909150156112bd576112bd612f3a565b83156112d5576112d5848261102760445f5236155190565b5f816040015182606001516112ea9190615359565b6001600160801b03166112fb6109cd565b6113059190615346565b90505f6113248561131660056130ea565b6001600160801b031661310b565b90505f5b818161133381615380565b925010801561134157505f83115b15611361575f611351858561311a565b8085119403939093029250611328565b61136a8461298f565b505050506111638161251b565b5f611380612152565b61138b612530610d6d565b61018001516001600160701b0316905090565b5f6113a76124b4565b5f6113b06124d8565b90505f6113bb6125b6565b90505f6113d06113cb8387613222565b613244565b9050806001600160681b03165f036113ea576113ea613259565b5f6113f433613266565b9050611410838233858a61140b60245f5236155190565b6132b5565b945050505061141e8161251b565b50610ea3612527565b5f611430612152565b6001600160a01b0382165f90815260046020526040902054610c1d906001600160681b0316611460612530610d6d565b9061354a565b5f61146f6124b4565b5f6114786124d8565b90505f6114836125b6565b90505f61148f33613266565b80519091506001600160681b0381165f036114ac576114ac613259565b5f6114c0846001600160681b03841661354a565b90506114d7848433858561140b60045f5236155190565b9550505050506114e68161251b565b50610da1612527565b5f6114f8612152565b610a01611506612530610d6d565b61356c565b60606115156124b4565b5f61151e6124d8565b905084831461152f5761152f6135fb565b8467ffffffffffffffff81111561154857611548615398565b604051908082528060200260200182016040528015611571578160200160208202803683370190505b5091505f61157d6125b6565b90505f5b86811015611606576115e18289898481811061159f5761159f6153ac565b90506020020160208101906115b49190614f1b565b8888858181106115c6576115c66153ac565b90506020020160208101906115db91906152c9565b36612c57565b8482815181106115f3576115f36153ac565b6020908102919091010152600101611581565b506116108161298f565b5061161a8161251b565b50611623612527565b949350505050565b5f611634612152565b610a0161163f6109cd565b61164a612530610d6d565b90613608565b606061165a612152565b610a01600561361f565b60605f7f000000000000000000000000000000000000000000000000000000000000000090505f7f0000000000000000000000000000000000000000000000000000000000000000905060205f525f60205281603f5280605f5260805ff35b5f6116cc6124b4565b5f6116d56124d8565b9050610c423385856044612b1c565b6116ec6124b4565b5f6116f56124d8565b9050336001600160a01b037f0000000000000000000000000000000000000000000000000000000000000000161461172f5761172f6136f8565b6103e88261ffff16111561174557611745613705565b5f61174e6125b6565b80519091501561176057611760613712565b80610120015161ffff168361ffff160361177c5761177c61371f565b6117ab7f000000000000000000000000000000000000000000000000000000000000000061ffff85168361372c565b61ffff831661012082018190526040519081527f4b34705283cdb9398d0e50b216b8fb424c6d4def5db9bfadc661ee3adc6076ee9060200160405180910390a16110598161298f565b5f6117fd612152565b611808612530610d6d565b608001516001600160681b0316905090565b6118226124b4565b5f61182b6124d8565b90505f6118366125b6565b90505f610e196118446109cd565b610e0f8461356c565b5f806118576124d8565b905061186283613747565b915061186d8161251b565b50919050565b5f61187c6124d8565b90505f61188883613747565b9050808314611899576118996138bb565b5061116c8161251b565b7f00000000000000000000000000000000000000000000000000000000000000003381146118d8576302171e6a5f526004601cfd5b6118e06124b4565b5f6118e96124d8565b90505f6118f46125b6565b805190915015611906576119066138c8565b5f61190f6109cd565b90505f61191b83612544565b905080821015611950575f6119308383615346565b905061193e84826004612906565b61194881846153c0565b9250506119c7565b808211156119c7575f6119638284615346565b90506119b96001600160a01b037f0000000000000000000000000000000000000000000000000000000000000000167f0000000000000000000000000000000000000000000000000000000000000000836138d5565b6119c38184615346565b9250505b6119f17f000000000000000000000000000000000000000000000000000000000000000084613915565b5f610140840181905260018452612710610160850152610100840181905260408401516060850151611a239190615359565b611a36906001600160801b031684615346565b90508360c0015163ffffffff165f14611b425760c084015163ffffffff81165f90815260076020908152604091829020825160608101845281546001600160681b03808216808452600160681b909204169382018490526001909201546001600160801b0316938101939093521115611b3f575f611ab682888587613987565b9150611acd90506001600160801b03821685615346565b63ffffffff84165f9081526007602090815260409182902085518154928701516001600160681b03908116600160681b026001600160d01b031990941691161791909117815590840151600190910180546001600160801b039092166001600160801b03199092169190911790559350505b50505b5f611b4d60056130ea565b6001600160801b031690505f5b81811015611b84575f611b6d878561311a565b9050611b798185615346565b935050600101611b5a565b5060a08501516001600160681b031615611ba057611ba0613b04565b611ba98561298f565b611bb242613b11565b50505050506110638161251b565b7f0000000000000000000000000000000000000000000000000000000000000000338114611bf5576302171e6a5f526004601cfd5b611bfd6124b4565b5f611c066124d8565b9050611c317f0000000000000000000000000000000000000000000000000000000000000000613b3c565b15611c3e57611c3e613b85565b5f611c476125b6565b805190915015611c5957611c59613b92565b5f611c6c611c656109cd565b8390613608565b905080851115611c7e57611c7e613b9f565b611ca97f00000000000000000000000000000000000000000000000000000000000000008684613bac565b611cdd6001600160a01b037f00000000000000000000000000000000000000000000000000000000000000001633876138d5565b611ce68261298f565b611cef85613bc7565b50506111638161251b565b611d026124b4565b5f611d0b6124d8565b90505f611d166125b6565b905080604001516001600160801b03165f03611d3457611d34613bf2565b5f611d47611d406109cd565b8390612ae8565b9050806001600160801b03165f03611d6157611d61613bff565b8082604001818151611d7391906153d3565b6001600160801b03908116909152611dda91506001600160a01b037f000000000000000000000000000000000000000000000000000000000000000016907f00000000000000000000000000000000000000000000000000000000000000009084166138d5565b611de38261298f565b610e30816001600160801b0316613c0c565b604080516060810182525f8082526020820181905291810191909152611e19612152565b5f80611e23612177565b9093509150611e45905063ffffffff85811681851681149190151590613c3716565b15611e53579150610ea39050565b505063ffffffff82165f9081526007602090815260409182902080546001600160681b038082168652600160681b9091041691840191909152600101546001600160801b031690820152919050565b611eaa6124b4565b5f611eb36124d8565b9050611ebe82613c3b565b611eca57611eca613cc1565b5f611ed36125b6565b9050611f007f00000000000000000000000000000000000000000000000000000000000000008483613cce565b6110508184613ce9565b7f0000000000000000000000000000000000000000000000000000000000000000338114611f3f576302171e6a5f526004601cfd5b611f476124b4565b5f611f506124d8565b90505f611f5b6125b6565b805190915015611f6d57611f6d613d5d565b61016081015161ffff16611fa37f0000000000000000000000000000000000000000000000000000000000000000878785613d6a565b909650945061271061ffff87161115611fbe57611fbe613e12565b6127108561ffff161115611fd457611fd4613e1f565b808561ffff161015611fff57611fe86109cd565b611ff18361356c565b1115611fff57611fff613e2c565b61ffff808616610160840181905290871661014084015281101561203c576120256109cd565b61202e8361356c565b111561203c5761203c613e39565b6120458261298f565b6120528661ffff16613e46565b61205f8561ffff16613e71565b505061206a8161251b565b506109c8612527565b5f604051905061026081016040526304032dbb5f52610260816004601c335afa6102603d1416610da1575f80fd5b6311530cde5f526004601cfd5b5f6370a082315f5230602052602060346024601c865afa601f3d11166120db576390b8ec185f526004601cfd5b81601452603451905063a9059cbb60601b5f5260205f604460105f875af13d1560015f51141716612113576390b8ec185f526004601cfd5b5f60345292915050565b5f6370a082315f528160205260205f6024601c865afa601f3d111661214957634963f6d55f526004601cfd5b50505f51919050565b63929eee145c15610e4457637fa8a9875f526004601cfd5b632561b8805f526004601cfd5b61217f614e92565b604080516060810182525f80825260208201819052918101829052604080516101c0810182525f5460ff808216151583526001600160801b03610100928390048116602085015260015480821695850195909552600160801b90940490931660608301526002546001600160681b038082166080850152600160681b82041660a084015263ffffffff600160d01b8204811660c08501819052600160f01b909204909416151560e08401526003548085169284019290925261ffff64010000000083048116610120850152600160301b83048116610140850152600160401b8304166101608401526001600160701b03600160501b830416610180840152600160c01b9091049092166101a08201529350801515429091101615612395578260c001519150826101a0015163ffffffff168263ffffffff161461231557612311837f00000000000000000000000000000000000000000000000000000000000000007f000000000000000000000000000000000000000000000000000000000000000063ffffffff80871690613e9c16565b5050505b5063ffffffff81165f908152600760209081526040808320815160608101835281546001600160681b038082168352600160681b9091041693810193909352600101546001600160801b0316908201529061237a846123726109cd565b849190613f40565b9050801561238d5761238d828583613fbd565b505f60c08401525b42836101a0015163ffffffff16146123f7576123f3837f00000000000000000000000000000000000000000000000000000000000000007f000000000000000000000000000000000000000000000000000000000000000042613e9c565b5050505b60c083015163ffffffff161561248b57505060c081015163ffffffff81165f90815260076020908152604091829020825160608101845281546001600160681b03808216808452600160681b909204169382018490526001909201546001600160801b031693810193909352111561248b575f612476846123726109cd565b9050801561248957612489828583613fbd565b505b909192565b5f825f1904841183021582026124ad5763ad251c275f526004601cfd5b5091020490565b63929eee145c80156124cd57637fa8a9875f526004601cfd5b50600163929eee145d565b5f610a01813560e01c6140e8610d6d565b6001600160a01b038084165f9081526009602090815260408083209386168352929052208190556109c88383836141ea565b61106c81614219610d6d565b5f63929eee145d565b5f61253c612177610d6d565b509092915050565b5f81604001516001600160801b031682606001516001600160801b031661258184608001516001600160681b03168561354a90919063ffffffff16565b61258b91906153c0565b610c1d91906153c0565b5f610c1d82608001516001600160681b03168361354a90919063ffffffff16565b6125be614e92565b50604080516101c0810182525f5460ff808216151583526001600160801b03610100928390048116602085015260015480821695850195909552600160801b90940490931660608301526002546001600160681b038082166080850152600160681b82041660a084015263ffffffff600160d01b8204811660c08501819052600160f01b909204909416151560e08401526003548085169284019290925261ffff64010000000083048116610120850152600160301b83048116610140850152600160401b8304166101608401526001600160701b03600160501b830416610180840152600160c01b9091049092166101a0820152908015154290911016156127645760c08101516101a082015163ffffffff9182169181168214612758575f808061272c867f00000000000000000000000000000000000000000000000000000000000000007f000000000000000000000000000000000000000000000000000000000000000088613e9c565b9250925092506127548463ffffffff16868861018001516001600160701b03168686866142a1565b5050505b612761836142f3565b50505b6101a08101514263ffffffff8216146127f2575f80806127c6857f00000000000000000000000000000000000000000000000000000000000000007f000000000000000000000000000000000000000000000000000000000000000042613e9c565b9250925092506127ee8463ffffffff16428761018001516001600160701b03168686866142a1565b5050505b60c082015163ffffffff16156128f95760c082015163ffffffff81165f90815260076020908152604091829020825160608101845281546001600160681b03808216808452600160681b909204169382018490526001909201546001600160801b03169381019390935211156128f6575f61286f856123726109cd565b905080156128f45761288382868584613987565b505063ffffffff83165f9081526007602090815260409182902084518154928601516001600160681b03908116600160681b026001600160d01b031990941691161791909117815590830151600190910180546001600160801b039092166001600160801b03199092169190911790555b505b50505b5090565b80821191030290565b815f0361291557612915612eb1565b82511561292457612924612f3a565b6129596001600160a01b037f000000000000000000000000000000000000000000000000000000000000000016333085612ebe565b6129633383612f0d565b6109c87f0000000000000000000000000000000000000000000000000000000000000000838584612f47565b5f6129986109cd565b6129a18361356c565b1160e08301819052825160208085015160081b70ffffffffffffffffffffffffffffffff00169091175f5560408085015160608601516001600160801b03909116608091821b6001600160801b0319161760015585015160a086015160c0808801516001600160681b0390931660689290921b6cffffffffffffffffffffffffff60681b1660d09390931b63ffffffff60d01b1660f087901b1792909217176002556101008601516101208701516101408801516101608901516101808a01516101a08b015163ffffffff9095169390971b65ffff000000001660309290921b67ffff0000000000001691909117941b69ffff000000000000000016605086901b6dffffffffffffffffffffffffffff60501b169290931b63ffffffff60c01b169190911791909117919091171760035590915061116c906001600160701b031682614469565b5f8083606001516001600160801b031683612b039190615346565b90506116238185604001516001600160801b031661310b565b5f612b256125b6565b90505f612b356113cb8386613222565b9050806001600160681b03165f03612b4f57612b4f614499565b612b867f000000000000000000000000000000000000000000000000000000000000000087876001600160681b03851686886144a6565b5f612b9087613266565b905081815f01818151612ba391906153f3565b6001600160681b039081169091526001600160a01b0389165f908152600460205260408120845181546001600160681b0319169316929092179091559050612bea87613266565b905082815f01818151612bfd9190615413565b6001600160681b039081169091526001600160a01b0389165f908152600460205260409020835181546001600160681b031916921691909117905550612c428461298f565b612c4d888888614534565b5050505050505050565b63ffffffff82165f818152600760209081526040808320815160608101835281546001600160681b038082168352600160681b9091041693810193909352600101546001600160801b03169082015290914211801590612cb657508551155b15612cc357612cc361216a565b63ffffffff84165f9081526008602090815260408083206001600160a01b03891684529091528082209083015181548451929392612d17926001600160801b0316916001600160681b039081169116612490565b82549091505f90612d3890600160681b90046001600160801b0316836153d3565b9050806001600160801b03165f03612d5257612d52614563565b612d887f0000000000000000000000000000000000000000000000000000000000000000896001600160801b0384168c8a614570565b82546fffffffffffffffffffffffffffffffff60681b1916600160681b6001600160801b03841602178355606089018051829190612dc79083906153d3565b6001600160801b0316905250612ddc88613c3b565b15612e45575f612deb896145fa565b9050612e2a6001600160a01b037f000000000000000000000000000000000000000000000000000000000000000016826001600160801b0385166138d5565b612e3f89828a856001600160801b03166146ae565b50612e82565b612e826001600160a01b037f000000000000000000000000000000000000000000000000000000000000000016896001600160801b0384166138d5565b612e9c8763ffffffff1689836001600160801b03166146eb565b6001600160801b031698975050505050505050565b637e0820885f526004601cfd5b60405181606052826040528360601b602c526323b872dd60601b600c5260205f6064601c5f895af13d1560015f51141716612f0057637939f4245f526004601cfd5b5f60605260405250505050565b805f52817fe8b606ac1e5df7657db58d297ca8f41c090fc94c5fd2d6958f043e41736e9fa660205fa25050565b6361d1bc8f5f526004601cfd5b5f612f528560601c90565b90506383d9e1eb612f628661471a565b15612fb757823603604051602081018382528781526101c087602083015e6102006101e082015282610200820152828661022083013750816102240191505f8083601c84015f885af1612c4d573d5f803e3d5ffd5b505050505050565b6381b210785f526004601cfd5b5f612fd78460601c90565b905063849da129612fe785614728565b156130415760243603604051602081018382528681526101c086602083015e6102006101e08201528261020082015282602461022083013750816102240191505f8083601c84015f885af161303e573d5f803e3d5ffd5b50505b5050505050565b80610ea36001600160801b0382168214614736565b805f527ff2672935fc79f5237559e2e2999dbe743bf65430894ac2b37666890e7c69e1af60205fa150565b634ee0b8f85f526004601cfd5b815f52806020527ff33499cccaa0611882086224cc48cd82ef54b66a4d2edf4ed67108dd516896d560405fa15050565b5f610c1d6130d283612595565b60208401516001600160801b03169080821191030290565b80545f90610c1d906001600160801b0380821691600160801b9004166153d3565b5f818303828410028201610f43565b5f80613126600561474d565b63ffffffff81165f90815260076020908152604091829020825160608101845281546001600160681b038082168352600160681b9091041692810192909252600101546001600160801b03169181019190915290915061318881868487613987565b63ffffffff84165f9081526007602090815260409182902085518154928701516001600160681b039182166001600160d01b03199094168417600160681b9290911691820217825592860151600190910180546001600160801b0319166001600160801b039283161790559290921695509003905061321a5761320b60056147a8565b61321a8263ffffffff1661482d565b505092915050565b5f610f438361018001516001600160701b03168361485590919063ffffffff16565b80610ea36001600160681b0382168214614736565b63d61c50f85f526004601cfd5b60408051602080820183525f918290526001600160a01b03841682526004815290829020825191820190925290546001600160681b031681526132a882613c3b565b15610ea357610ea36148a0565b60c086015163ffffffff81165f0361331e57865115157f00000000000000000000000000000000000000000000000000000000000000005f81900391909102016132ff81426153c0565b91506133108263ffffffff166148ad565b5063ffffffff811660c08801525b6133557f000000000000000000000000000000000000000000000000000000000000000086836001600160681b0388168b876148d5565b83865f0181815161336691906153f3565b6001600160681b039081169091526001600160a01b0387165f908152600460205260409020885181546001600160681b0319169216919091179055506133ad853085614534565b63ffffffff81165f818152600760209081526040808320815160608101835281546001600160681b038082168352600160681b9091048116828601526001909201546001600160801b031681840152948452600883528184206001600160a01b038b168552909252822080548893919261342991859116615413565b92506101000a8154816001600160681b0302191690836001600160681b0316021790555084815f0181815161345e9190615413565b6001600160681b031690525060a08801805186919061347e908390615413565b6001600160681b039081169091526134a3915063ffffffff8416908890881687614951565b5f6134b0896123726109cd565b905080156134c7576134c4828a8584613987565b50505b63ffffffff83165f9081526007602090815260409182902084518154928601516001600160681b03908116600160681b026001600160d01b031990941691161791909117815590830151600190910180546001600160801b039092166001600160801b031990921691909117905561353e8961298f565b50509695505050505050565b5f610f438361018001516001600160701b03168361498590919063ffffffff16565b5f808260a001516001600160681b031690505f816135ac85610160015161ffff168487608001516001600160681b03166135a69190615346565b906149d5565b6135b691906153c0565b905083606001516001600160801b031684604001516001600160801b03166135e7838761354a90919063ffffffff16565b6135f191906153c0565b61162391906153c0565b639d89020a5f526004601cfd5b5f610f436136158461356c565b8084039084110290565b80546060906001600160801b0380821691600160801b9004165f6136438383615346565b90508067ffffffffffffffff81111561365e5761365e615398565b604051908082528060200260200182016040528015613687578160200160208202803683370190505b5093505f5b818110156136ef57600186015f6136a383876153c0565b81526020019081526020015f205f9054906101000a900463ffffffff168582815181106136d2576136d26153ac565b63ffffffff9092166020928302919091019091015260010161368c565b50505050919050565b6332cc72365f526004601cfd5b63499fddb15f526004601cfd5b6337f1a75f5f526004601cfd5b63e0cf78fc5f526004601cfd5b5f6137378460601c90565b90506303473d8d612fe785614a07565b5f6137506124b4565b5f6137596125b6565b80519091501561376b5761376b614a15565b61377d83613778836130c5565b61310b565b92505f61378d6113cb8386613222565b9050806001600160681b03165f036137a7576137a7614a22565b5f6137b133613266565b90506137e87f0000000000000000000000000000000000000000000000000000000000000000336001600160681b03851686614a2f565b61381d6001600160a01b037f000000000000000000000000000000000000000000000000000000000000000016333088612ebe565b81815f0181815161382e9190615413565b6001600160681b03908116909152335f908152600460205260408120845181546001600160681b031916931692909217909155805250361551613872903387614534565b6138863386846001600160681b0316614aa7565b81836080018181516138989190615413565b6001600160681b03169052506138ad8361298f565b849350505050610ea3612527565b638a164f635f526004601cfd5b63449e5f505f526004601cfd5b816014528060345263a9059cbb60601b5f5260205f604460105f875af13d1560015f5114171661390c576390b8ec185f526004601cfd5b5f603452505050565b5f6139208360601c90565b9050639ecc64e661393084614ad9565b156139815760043603604051602081018382526101c086825e6101e06101c0820152826101e082015282600461020083013750816102040191505f8083601c84015f885af1612fb7573d5f803e3d5ffd5b50505050565b5f805f8660200151875f015161399d91906153f3565b9050806001600160681b03165f036139bb575f809250925050613afb565b5f6139c68786613222565b90506139de6113cb82846001600160681b031661310b565b9350613a16613a11856001600160681b03168961018001516001600160701b03166b033b2e3c9fd0803ce8000000612490565b613048565b92508388602001818151613a2a9190615413565b6001600160681b0316905250604088018051849190613a4a908390615359565b6001600160801b031690525060a087018051859190613a6a9083906153f3565b6001600160681b0316905250606087018051849190613a8a908390615359565b6001600160801b0316905250608087018051859190613aaa9083906153f3565b6001600160681b0316905250613ad530613ac65f805236155190565b856001600160801b0316614534565b613af88663ffffffff16856001600160681b0316856001600160801b0316614ae7565b50505b94509492505050565b634d7909975f526004601cfd5b805f527f9dc30b8eda31a6a144e092e5de600955523a6a925cc15cc1d1b9b4872cfa615560205fa150565b6395c098395f90815260208281527f000000000000000000000000000000000000000000000000000000000000000090826024601c845afa60203d1416612149573d5f803e3d5ffd5b634a1c13a95f526004601cfd5b63d0242b285f526004601cfd5b63119fe6e35f526004601cfd5b5f613bb78460601c90565b905063b1cfda0d612fe785614b19565b805f527fb848ae6b1253b6cb77e81464128ce8bd94d3d524fea54e801e0da869784dca3360205fa150565b6345c835cb5f526004601cfd5b63f784cfa45f526004601cfd5b805f527f860c0aa5520013080c2f65981705fcdea474d9f7c3daf954656ed5e65d692d1f60205fa150565b1690565b5f807f000000000000000000000000000000000000000000000000000000000000000090505f7f000000000000000000000000000000000000000000000000000000000000000090506040516306e744445f52826020528460405260205f6044601c855afa60203d1416613cb1573d5f803e3d5ffd5b5f51935080604052505050919050565b63a97ab1675f526004601cfd5b5f613cd98460601c90565b9050638b3ce9b3612fe785614b27565b6001600160a01b0381165f90815260046020908152604091829020825191820190925290546001600160681b0316808252156109c85780515f613d35856001600160681b03841661354a565b90505f613d468685878686366132b5565b9050612fb78582856001600160681b031685614b35565b63b9de88a25f526004601cfd5b5f805f613d778760601c90565b905063cc452642613d8788614b72565b15613e045760443603604051602081018382528981528860208201526101c088604083015e61022061020082015282610220820152826044610240830137508161024401915060405f83601c84015f885af11560403d101715613dec573d5f803e3d5ffd5b505061ffff5f5116935061ffff602051169250613af8565b509496939550929350505050565b63cf1f916f5f526004601cfd5b638ec830735f526004601cfd5b630a68e5bf5f526004601cfd5b63253ecbb95f526004601cfd5b805f527fff7b6c8be373823323d3c5d99f5d027dd409dce5db54eae511bbdd5546b7503760205fa150565b805f527f72877a153052500f5edbb2f9da96a0f45d671d4b4555fdf8628a709dc4eab43a60205fa150565b5f8080613ea98785614b80565b61012088015190935061ffff1615613ec857613ec58784614baa565b90505b8515613edd57613eda87858888614c38565b91505b6101808701516001600160701b03165f613f01613efa85876153c0565b8390614985565b9050613f15613f1082846153c0565b614c79565b6001600160701b03166101808a0152505063ffffffff9093166101a090960195909552949092509050565b5f80613f4b85614c8e565b8460a00151613f5a91906153f3565b6001600160681b031690505f84604001516001600160801b0316613f87838761354a90919063ffffffff16565b86606001516001600160801b0316613f9f91906153c0565b613fa991906153c0565b9050808403818511025b9695505050505050565b602083015183515f91613fcf916153f3565b9050806001600160681b03165f03613fe75750505050565b5f613ff28484613222565b90505f61400b6113cb83856001600160681b031661310b565b90505f61403f613a11836001600160681b03168861018001516001600160701b03166b033b2e3c9fd0803ce8000000612490565b905081876020018181516140539190615413565b6001600160681b0316905250604087018051829190614073908390615359565b6001600160801b031690525060a0860180518391906140939083906153f3565b6001600160681b03169052506060860180518291906140b3908390615359565b6001600160801b03169052506080860180518391906140d39083906153f3565b6001600160681b031690525050505050505050565b61411a604051806080016040528060608152602001606081526020015f81526020015f6001600160a01b031681525090565b8061412361106f565b6001600160a01b0316606082018190521561186d576060820151604051638925ca5a8152846020820152336040820152606080820152366080820152365f60a08301373660c40160405f82601c85015f875af160205f511416614188573d5f803e3d5ffd5b5060205191508160051b91506003820260e0018101604052602082016020823e8084526020820181019050845f038152608060408201526080810160208501528160a001606082015250505a604083015261186d825f01518360200151614ca0565b805f5281837f8c5be1e5ebec7d5bd14f71427d1e84f3dd0314c0f7b2291e5b200ac8c7c3b92560205fa3505050565b606081015181906001600160a01b0316614231575050565b8151805190600682901b810160c00161424a8282614ca0565b6060850151600584901b830160200160c4600686901b015a60408901510380602084015250602082039150815163f0bd946883525f8083601c86015f885af1614295573d5f803e3d5ffd5b90915250505050505050565b6040518681528560208201528460408201528360608201528260808201528160a08201527f18247a393d0531b65fbd94f5e78bc5639801a4efda62ae7b43533c4442116c3a60c082a150505050505050565b60c081015163ffffffff81165f90815260076020908152604091829020825160608101845281546001600160681b03808216808452600160681b909204169382018490526001909201546001600160801b0316938101939093521115614379575f614360846123726109cd565b905080156143775761437482858584613987565b50505b505b6143b18263ffffffff16825f01516001600160681b031683602001516001600160681b031684604001516001600160801b0316614ccf565b805f01516001600160681b031681602001516001600160681b031610156143e2576143dd600583614d0c565b6143f1565b6143f18263ffffffff1661482d565b5f60c090930183905263ffffffff9190911682526007602090815260409283902082518154928401516001600160681b03908116600160681b026001600160d01b0319909416911617919091178155910151600190910180546001600160801b039092166001600160801b0319909216919091179055565b815f52806020527f9385f9ff65bcd2fb81cece54b27d4ec7376795fc4dcff686e370e347b0ed86c060405fa15050565b63ddee9b305f526004601cfd5b5f6144b18760601c90565b905063a018f90e6144c188614d6a565b15612c4d57823603604051602081018382523381528960208201528860408201528760608201526101c087608083015e61026061024082015282610260820152828661028083013750816102840191505f8083601c84015f885af1614528573d5f803e3d5ffd5b50505050505050505050565b805f5281837fddf252ad1be2c89b69c2b068fc378daa952ba7f163c4a11628f55a4df523b3ef60205fa3505050565b63186334fe5f526004601cfd5b5f61457b8660601c90565b9050632970403d614594875f610c1d82605d1c60011690565b1561303e57823603604051602081018382528881528760208201526101c087604083015e61022061020082015282610220820152828661024083013750816102440191505f8083601c84015f885af16145ef573d5f803e3d5ffd5b505050505050505050565b5f807f000000000000000000000000000000000000000000000000000000000000000090505f7f000000000000000000000000000000000000000000000000000000000000000090505f7f0000000000000000000000000000000000000000000000000000000000000000905060405163a1054f6b5f5282602052856040528360605260205f6064601c5f865af160203d1416614699573d5f803e3d5ffd5b5f51945080604052505f606052505050919050565b604051835f528260205281604052847f0d0843a0fcb8b83f625aafb6e42f234ac48c6728b207d52d97cfa8fbd34d498f60605fa260405250505050565b805f5281837fd6cddb3d69146e96ebc2c87b1b3dd0b20ee2d3b0eadf134e011afb434a3e56e660205fa3505050565b5f610c1d82605a1c60011690565b5f610c1d8260571c60011690565b8061106c57634e487b715f5260116020526024601cfd5b80545f906001600160801b03600160801b8204811691160361478257604051638727480160e01b815260040160405180910390fd5b5080546001600160801b03165f9081526001909101602052604090205463ffffffff1690565b80546001600160801b0380821691600160801b90041681036147dd57604051638727480160e01b815260040160405180910390fd5b6001600160801b0381165f90815260018084016020526040909120805463ffffffff1916905561480e908290615359565b82546001600160801b0319166001600160801b03919091161790915550565b807fcbdf25bf6e096dd9030d89bb2ba2e3e7adb82d25a233c3ca3d92e9f098b74e555f80a250565b5f81156b033b2e3c9fd0803ce80000006002840419048411171561488557634e487b715f5260116020526024601cfd5b506b033b2e3c9fd0803ce80000009190910260028204010490565b636bc671fd5f526004601cfd5b807f5c9a946d3041134198ebefcd814de7748def6576efd3d1b48f48193e183e89ef5f80a250565b5f6148e08760601c90565b9050633521cccc6148f088614d78565b15612c4d57823603604051602081018382528981528860208201528760408201526101c087606083015e61024061022082015282610240820152828661026083013750816102640191505f8083601c84015f885af1614528573d5f803e3d5ffd5b815f528060205282847fecc966b282a372469fa4d3e497c2ac17983c3eaed03f3f17c9acf4b15591663e60405fa350505050565b5f81156b019d971e4fe8401e7400000019839004841115176149b357634e487b715f5260116020526024601cfd5b506b033b2e3c9fd0803ce800000091026b019d971e4fe8401e74000000010490565b5f811561138819839004841115176149f957634e487b715f5260116020526024601cfd5b506127109102611388010490565b5f610c1d8260551c60011690565b6322d7c0435f526004601cfd5b63e4aa50555f526004601cfd5b5f614a3a8560601c90565b9050635aeb713f614a4a86614d86565b15612fb75760243603604051602081018382528781528660208201526101c086604083015e6102206102008201528261022082015282602461024083013750816102440191505f8083601c84015f885af1612c4d573d5f803e3d5ffd5b815f5280602052827f90890809c654f11d6e72a28fa60149770a0d11ec6c92319d6ceb2bb0a4ea1a1560405fa2505050565b5f610c1d8260591c60011690565b815f5280602052827f5272034725119f19d7236de4129fdb5093f0dcb80282ca5edbd587df91d2bd8960405fa2505050565b5f610c1d82605b1c60011690565b5f610c1d8260581c60011690565b604051835f528260205281604052847fe12b220b92469ae28fb0d79de531f94161431be9f073b96b8aad3effb88be6fa60605fa260405250505050565b5f610c1d8260561c60011690565b5f610f4383610140015161ffff16846101a0015163ffffffff1684614ba59190615346565b614d94565b5f80614bc88385610120015161ffff166149d590919063ffffffff16565b9050614c02614bee828661018001516001600160701b031661498590919063ffffffff16565b60808601516001600160681b031690614985565b9150614c208285604001516001600160801b0316613a1191906153c0565b6001600160801b031660409094019390935292915050565b5f80614c5b8684886101a0015163ffffffff1688614c569190615346565b614dbc565b90508015614c7057614c6d8482614d94565b91505b50949350505050565b80610ea36001600160701b0382168214614736565b602081015181515f91610c1d916153f3565b815180825260208301602083018260051b810192505b8281101561304157815154815260209182019101614cb6565b604051835f528260205281604052847f9262dc39b47cad3a0512e4c08dda248cb345e7163058f300bc63f56bda288b6e60605fa260405250505050565b8154600160801b90046001600160801b03165f81815260018085016020526040909120805463ffffffff191663ffffffff8516179055614d4d908290615359565b83546001600160801b03918216600160801b029116179092555050565b5f610c1d82605c1c60011690565b5f610c1d82605e1c60011690565b5f610c1d82605f1c60011690565b5f80614d9f84614e4f565b90505f614dac8483615433565b6301e13380900495945050505050565b61010083015160e08401515f9163ffffffff169015614e1657614de7614de284836153c0565b614e78565b63ffffffff9081166101008701525f90614e0590869084906128fd16565b808511908503029250610f43915050565b614e2583820384831102614e78565b63ffffffff9081166101008701525f90614e4390839087906128fd16565b9050613fb3818561310b565b69152d02c7e14af68000008181029081048214610ea357634e487b715f5260116020526024601cfd5b80610ea363ffffffff82168214614736565b610e4461544a565b604080516101c0810182525f80825260208201819052918101829052606081018290526080810182905260a0810182905260c0810182905260e08101829052610100810182905261012081018290526101408101829052610160810182905261018081018290526101a081019190915290565b80356001600160a01b0381168114610ea3575f80fd5b5f60208284031215614f2b575f80fd5b610f4382614f05565b803563ffffffff81168114610ea3575f80fd5b5f8060408385031215614f58575f80fd5b614f6183614f05565b9150614f6f60208401614f34565b90509250929050565b602081525f82518060208401528060208501604085015e5f604082850101526040601f19601f83011684010191505092915050565b5f8060408385031215614fbe575f80fd5b614fc783614f05565b946020939093013593505050565b8151151581526101c081016020830151614ffa60208401826001600160801b03169052565b50604083015161501560408401826001600160801b03169052565b50606083015161503060608401826001600160801b03169052565b50608083015161504b60808401826001600160681b03169052565b5060a083015161506660a08401826001600160681b03169052565b5060c083015161507e60c084018263ffffffff169052565b5060e083015161509260e084018215159052565b506101008381015163ffffffff908116918401919091526101208085015161ffff90811691850191909152610140808601518216908501526101608086015190911690840152610180808501516001600160701b0316908401526101a080850151918216818501529061321a565b5f805f60608486031215615112575f80fd5b61511b84614f05565b925061512960208501614f05565b9150604084013590509250925092565b5f60208284031215615149575f80fd5b5035919050565b5f8060408385031215615161575f80fd5b50508035926020909101359150565b5f8083601f840112615180575f80fd5b50813567ffffffffffffffff811115615197575f80fd5b6020830191508360208260051b85010111156151b1575f80fd5b9250929050565b5f805f80604085870312156151cb575f80fd5b843567ffffffffffffffff808211156151e2575f80fd5b6151ee88838901615170565b90965094506020870135915080821115615206575f80fd5b5061521387828801615170565b95989497509550505050565b602080825282518282018190525f9190848201906040850190845b818110156152565783518352928401929184019160010161523a565b50909695505050505050565b602080825282518282018190525f9190848201906040850190845b8181101561525657835163ffffffff168352928401929184019160010161527d565b803561ffff81168114610ea3575f80fd5b5f602082840312156152c0575f80fd5b610f438261529f565b5f602082840312156152d9575f80fd5b610f4382614f34565b5f80604083850312156152f3575f80fd5b6152fc83614f05565b9150614f6f60208401614f05565b5f806040838503121561531b575f80fd5b6153248361529f565b9150614f6f6020840161529f565b634e487b7160e01b5f52601160045260245ffd5b81810381811115610c1d57610c1d615332565b6001600160801b0381811683821601908082111561537957615379615332565b5092915050565b5f6001820161539157615391615332565b5060010190565b634e487b7160e01b5f52604160045260245ffd5b634e487b7160e01b5f52603260045260245ffd5b80820180821115610c1d57610c1d615332565b6001600160801b0382811682821603908082111561537957615379615332565b6001600160681b0382811682821603908082111561537957615379615332565b6001600160681b0381811683821601908082111561537957615379615332565b8082028115828204841417610c1d57610c1d615332565b634e487b7160e01b5f52605160045260245ffdfea164736f6c6343000819000a60e060405234801561000f575f80fd5b5060405161338038038061338083398101604081905261002e91610098565b50336080526001600160a01b03811660a08190525f908152600460205260409081902091901b7fffffffff0000000000000000000000000000000000000000ffffff00000000001790556240d00060c052610161565b634e487b7160e01b5f52604160045260245ffd5b5f80604083850312156100a9575f80fd5b82516001600160a01b03811681146100bf575f80fd5b60208401519092506001600160401b03808211156100db575f80fd5b818501915085601f8301126100ee575f80fd5b81518181111561010057610100610084565b604051601f8201601f19908116603f0116810190838211818310171561012857610128610084565b81604052828152886020848701011115610140575f80fd5b8260208601602083015e5f6020848301015280955050505050509250929050565b60805160a05160c0516131bd6101c35f395f818161041701526118cf01525f818161043e0152818161074f0152818161090801528181610f54015281816112c40152818161141801526117aa01525f818161067c0152610b1c01526131bd5ff3fe608060405234801561000f575f80fd5b50600436106101e7575f3560e01c80638adfe0f811610109578063aa9486891161009e578063c45a01551161006e578063c45a015514610677578063cc4526421461069e578063ea5b13bd146106cc578063feb368e2146106df575f80fd5b8063aa948689146105a4578063b037096d146105b7578063b1cfda0d1461048b578063bfd269be1461064f575f80fd5b80639ecc64e6116100d95780639ecc64e6146104e2578063a018f90e146104f5578063a11ef06714610508578063a9ff2dbf14610567575f80fd5b80638adfe0f8146104995780638b3ce9b3146104ac5780638f8ef419146104ba5780639d2a76fe146104cf575f80fd5b806354fd4d501161017f5780637df1f1b91161014f5780637df1f1b91461043957806380e52e3f1461047857806383d9e1eb1461048b578063849da1291461048b575f80fd5b806354fd4d50146103ad5780635aeb713f146103ec5780636b2b369b146103ff57806379502c5514610412575f80fd5b806328fd0307116101ba57806328fd0307146102895780632970403d146102aa5780632ccf4667146102bf5780633521cccc1461039a575f80fd5b806303473d8d146101eb578063064ed53b146102015780631c4b36941461021457806322a4a19f14610227575b5f80fd5b6101ff6101f93660046128f0565b50505050565b005b6101ff61020f366004612a6e565b610744565b6101ff610222366004612a87565b6108fd565b61023a610235366004612a6e565b6109ee565b60405161028091908151151581526020808301516001600160a01b03169082015260408083015115159082015260609182015163ffffffff169181019190915260800190565b60405180910390f35b61029c610297366004612ab8565b610b10565b604051908152602001610280565b6101ff6102b8366004612b57565b5050505050565b6103586102cd366004612a6e565b604080516080810182525f808252602082018190529181018290526060810191909152506001600160a01b03165f908152600560209081526040918290208251608081018452905460ff8082161515835261010082048116151593830193909352620100008104909216151592810192909252630100000090046001600160801b0316606082015290565b60405161028091908151151581526020808301511515908201526040808301511515908201526060918201516001600160801b03169181019190915260800190565b6101ff6103a8366004612bba565b610b73565b60408051808201825260208082527f53696e676c65426f72726f776572416363657373436f6e74726f6c486f6f6b739082015290516102809190612c37565b6101ff6103fa366004612c6c565b610c21565b6101ff61040d366004612ca0565b610dc7565b61029c7f000000000000000000000000000000000000000000000000000000000000000081565b6104607f000000000000000000000000000000000000000000000000000000000000000081565b6040516001600160a01b039091168152602001610280565b6101ff610486366004612a6e565b610dff565b6101ff6101f9366004612cc8565b6101ff6104a7366004612a6e565b610f49565b6101ff6101f9366004612d09565b6104c2611048565b6040516102809190612d35565b6101ff6104dd366004612e0e565b61109e565b6101ff6104f0366004612ec8565b505050565b6101ff610503366004612f1a565b61113d565b60408051610140810182525f8082528183018190526080820181905260c082018190526101008201526276a70060208201526127106060820181905260a082018190526301e1338060e083015261012082015290516102809190612fa7565b61059461057536600461307d565b600260209081525f928352604080842090915290825290205460ff1681565b6040519015158152602001610280565b6101ff6105b2366004612a6e565b6112b9565b61023a6105c5366004612a6e565b604080516080810182525f808252602082018190529181018290526060810191909152506001600160a01b039081165f908152600160209081526040918290208251608081018452905460ff80821615158352610100820490951692820192909252600160a81b8204909316151591830191909152600160b01b900463ffffffff16606082015290565b61029c61065d366004612a6e565b6001600160a01b03165f9081526004602052604090205490565b6104607f000000000000000000000000000000000000000000000000000000000000000081565b6106b16106ac3660046130a5565b6113ef565b6040805161ffff938416815292909116602083015201610280565b6101ff6106da366004612ca0565b61140d565b61071d6106ed366004612a6e565b5f6020819052908152604090205461ffff8082169162010000810490911690640100000000900463ffffffff1683565b6040805161ffff948516815293909216602084015263ffffffff1690820152606001610280565b336001600160a01b037f0000000000000000000000000000000000000000000000000000000000000000161461078d57604051633c698d7960e01b815260040160405180910390fd5b6001600160a01b038181165f908152600160209081526040918290208251608081018452905460ff80821615158352610100820490951692820192909252600160a81b8204909316151591830191909152600160b01b900463ffffffff16606082018190521561083f575f604082018190526060820181905260208201526040516001600160a01b038316907f47695aa96e09db0d106b9bd402979d6aff7e51ada06ec6fe014e5eeadd8c1dc0905f90a25b60018082526001600160a01b038084165f8181526020938452604080822086518154968801518389015160608a015163ffffffff16600160b01b0263ffffffff60b01b19911515600160a81b029190911664ffffffffff60a81b199290981661010002610100600160a81b0319931515939093166001600160a81b0319909916989098179190911716949094179490941790925591517f25b0d1830e0d487402e2c828de3ccbc9d16bd911aaec75fbba1bffd32657fad49190a25050565b336001600160a01b037f0000000000000000000000000000000000000000000000000000000000000000161461094657604051633c698d7960e01b815260040160405180910390fd5b6001600160a01b0382165f908152600560205260409020805460ff1661097f5760405163b217907b60e01b815260040160405180910390fd5b80546301000000600160981b03191663010000006001600160801b038416908102919091178255604080516001600160a01b038616815260208101929092527f4e39f53293455dca8fe1725b2dfcbe6abd2f44d777b7f2a7279526e17d7ebede910160405180910390a1505050565b60408051608080820183525f808352602080840182905283850182905260609384018290526001600160a01b0386811683526001825291859020855193840186525460ff80821615158552610100820490931691840191909152600160a81b8104909116151593820193909352600160b01b90920463ffffffff169082018190525f199015610af4576020828101516001600160a01b03165f908152600490915260409020548015610ade57610aa48382611660565b15610ab0575050919050565b826040015115610ade57610ac583828661168a565b15610ad1575050919050565b62ffffff602882901c1691505b5f60408401819052606084018190526020840152505b610aff828483611735565b15610b0a5750919050565b50919050565b5f336001600160a01b037f00000000000000000000000000000000000000000000000000000000000000001614610b5a5760405163a84178ab60e01b815260040160405180910390fd5b610b678686868686611799565b90505b95945050505050565b6001600160a01b038681165f8181526001602090815260408083208151608081018352905460ff80821615158352610100820490971682850152600160a81b81048716151582840152600160b01b900463ffffffff16606082015293835260028252808320338452909152902054909116158015610bfa5750610bf8818885856119a4565b155b15610c185760405163728522e760e11b815260040160405180910390fd5b50505050505050565b335f908152600560209081526040918290208251608081018452905460ff8082161515808452610100830482161515948401949094526201000082041615159382019390935263010000009092046001600160801b03166060830152610c9a5760405163b217907b60e01b815260040160405180910390fd5b6001600160a01b038681165f908152600160209081526040918290208251608081018452905460ff8082161580158452610100830490961693830193909352600160a81b8104909216151592810192909252600160b01b900463ffffffff16606082015290610d1c5760405163728522e760e11b815260040160405180910390fd5b5f610d42610d326101a0880161018089016130d1565b88906001600160701b03166119cd565b90508083606001516001600160801b03161115610d725760405163c24b1b6160e01b815260040160405180910390fd5b5f80610d80848b8989611a1d565b60408701519193509150151582151615610dad5760405163728522e760e11b815260040160405180910390fd5b610dbb848b84846001611b35565b50505050505050505050565b335f9081526004602052604090205480610df45760405163b1cd090360e01b815260040160405180910390fd5b6104f0818484611d04565b6001600160a01b038181165f908152600160209081526040918290208251608081018452905460ff808216151583526101008204909516928201839052600160a81b8104909416151592810192909252600160b01b90920463ffffffff166060820152903314610e8257604051633a364f3d60e01b815260040160405180910390fd5b5f60408281018281526060840183815260208086018581526001600160a01b038881168088526001909352858720885181549351965195516001600160a81b0319909416901515610100600160a81b0319161761010096909216959095021764ffffffffff60a81b1916600160a81b9315159390930263ffffffff60b01b191692909217600160b01b63ffffffff9093169290920291909117909155905190917f47695aa96e09db0d106b9bd402979d6aff7e51ada06ec6fe014e5eeadd8c1dc091a25050565b336001600160a01b037f00000000000000000000000000000000000000000000000000000000000000001614610f9257604051633c698d7960e01b815260040160405180910390fd5b6001600160a01b0381165f9081526004602052604090205480610fc85760405163b1cd090360e01b815260040160405180910390fd5b6001600160a01b0382165f818152600460205260408120557f096f563e3528747c50a40c54ef564a28b9321ffc1c310e29a97f067e06f59aad602883901c62ffffff1660405162ffffff909116815260200160405180910390a262ffffff602882901c81161461104457611044602882901c62ffffff16611e34565b5050565b6060600380548060200260200160405190810160405280929190818152602001828054801561109457602002820191905f5260205f20905b815481526020019060010190808311611080575b5050505050905090565b335f90815260046020526040902054806110cb5760405163b1cd090360e01b815260040160405180910390fd5b81518351146110ed57604051634ec4810560e11b815260040160405180910390fd5b5f5b83518110156101f9576111358285838151811061110e5761110e6130ea565b6020026020010151858481518110611128576111286130ea565b6020026020010151611d04565b6001016110ef565b335f908152600560209081526040918290208251608081018452905460ff8082161515808452610100830482161515948401949094526201000082041615159382019390935263010000009092046001600160801b031660608301526111b65760405163b217907b60e01b815260040160405180910390fd5b6001600160a01b0386165f90815260026020908152604080832033845290915290205460ff166112af576001600160a01b038681165f908152600160209081526040918290208251608081018452905460ff8082161580158452610100830490961693830193909352600160a81b8104909216151592810192909252600160b01b900463ffffffff166060820152906112625760405163728522e760e11b815260040160405180910390fd5b5f80611270838a8888611a1d565b6020860151919350915015158215161561129d5760405163728522e760e11b815260040160405180910390fd5b6112ab838a84846001611b35565b5050505b5050505050505050565b336001600160a01b037f0000000000000000000000000000000000000000000000000000000000000000161461130257604051633c698d7960e01b815260040160405180910390fd5b6001600160a01b038181165f818152600160208181526040808420815160808101835281546101008082048a1683870190815260ff600160a81b808504919091161515858801908152600160b01b80860463ffffffff908116606089019081528d89528e8e529b909a528651935191519a516001600160a81b0319909616931515610100600160a81b031916939093179c169092029a909a1764ffffffffff60a81b19169615150263ffffffff60b01b1916959095179490931690960292909217909455517f7201a4017f7e2ac3b7164275daef1150d8fc64543b3f7196293722db50bc7fa09190a25050565b5f806113fe8787878787611f7b565b915091505b9550959350505050565b336001600160a01b037f0000000000000000000000000000000000000000000000000000000000000000161461145657604051633c698d7960e01b815260040160405180910390fd5b6001600160a01b0382165f90815260046020526040902054806115a8575f836001600160a01b031663256909f16040518163ffffffff1660e01b8152600401602060405180830381865afa1580156114b0573d5f803e3d5ffd5b505050506040513d601f19601f820116820180604052508101906114d491906130fe565b90506115148385836114fa5760e09190911b60409190911b1767ffffff00000000001790565b60035460e09290921b60409190911b1760289190911b1790565b9150801561155157600380546001810182555f919091527fc2575a0e9e593c00f959f8c92f12db2869c3395a3b0502d05e2516446f71f85b018290555b6040805163ffffffff8516815262ffffff602885901c16602082015281516001600160a01b038716927fbe2909d8cc20d11ba19a80df9673ad2fd54f3d18592c03aa1413fc921e185b0b928290030190a250611641565b6001600160e01b03811660e083901b17905062ffffff602882901c81169081146115f1578160038262ffffff16815481106115e5576115e56130ea565b5f918252602090912001555b6040805163ffffffff8516815262ffffff831660208201526001600160a01b038616917f0c641c0a4b692db5a80ac5db2cdc5d138e9878e3a42907e4ca46377d45e820f0910160405180910390a2505b6001600160a01b039092165f9081526004602052604090209190915550565b5f4261167f846060015163ffffffff16846122f090919063ffffffff16565b101590505b92915050565b5f80604084901c6001600160a01b031663ccdad14b5f818152602086815292935091826024601c865afa601f3d1116156116c95763ffffffff5f511691505b63ffffffff821615806116e15750428263ffffffff16115b156116f1575f935050505061172e565b426117058763ffffffff808616906122f016565b1061172a5761171e878763ffffffff8086169061231016565b6001935050505061172e565b5050505b9392505050565b6003545f90815b8181101561179057808414611788575f6003828154811061175f5761175f6130ea565b905f5260205f200154905061177587828861168a565b15611786576001935050505061172e565b505b60010161173c565b50509392505050565b5f6117a78686868686612343565b507f00000000000000000000000000000000000000000000000000000000000000006001600160a01b0316866001600160a01b0316146117fa57604051633c698d7960e01b815260040160405180910390fd5b506101208301355f602083900361185a5750604080516001600160a01b038716815284356001600160801b0381166020830152917f4e39f53293455dca8fe1725b2dfcbe6abd2f44d777b7f2a7279526e17d7ebede910160405180910390a15b5f60405180608001604052806001151581526020016118788561239f565b15158152602001611888856123ad565b15158152602001611898846123bb565b6001600160801b0316905290506118ae836123d5565b156118bd576009605c1b831792505b6bffffffffffffffffffffffff1983167f0000000000000000000000000000000000000000000000000000000000000000601081901c605086811c90921617901b61ffff60501b16176001600160a01b039097165f908152600560209081526040918290208351815492850151938501516060909501516001600160801b03166301000000026301000000600160981b031995151562010000029590951672ffffffffffffffffffffffffffffffffff0000199415156101000261ff00199215159290921661ffff1990941693909317179290921617919091179055509395945050505050565b5f806119b286868686611a1d565b90925090506119c4868684845f611b35565b50949350505050565b5f81156b019d971e4fe8401e7400000019839004841115176119fb57634e487b715f5260116020526024601cfd5b506b033b2e3c9fd0803ce800000091026b019d971e4fe8401e74000000010490565b5f805f611a33876060015163ffffffff16151590565b611a3d575f611a5b565b6020808801516001600160a01b03165f908152600490915260409020545b90508015158015611a715750611a718782611660565b15611a835760015f9250925050611b2c565b611a8f878787876123e3565b15611aa1576001809250925050611b2c565b5f198115158015611ab3575087604001515b15611ae257611ac388838961168a565b15611ad657600180935093505050611b2c565b5062ffffff602882901c165b611aed888883611735565b15611b0057600180935093505050611b2c565b606088015163ffffffff1615611b29575f60408901819052606089018190526020890152600192505b50505b94509492505050565b8115611bd9578215611ba557836001600160a01b031685602001516001600160a01b03167fa04eb478c9c6a13a6de14b7eb31b1b629511e804c3cfef31bd549accd4b155248760600151604051611b98919063ffffffff91909116815260200190565b60405180910390a3611bd9565b6040516001600160a01b038516907f47695aa96e09db0d106b9bd402979d6aff7e51ada06ec6fe014e5eeadd8c1dc0905f90a25b6001600160a01b0384165f908152600260209081526040808320338452909152902054611c0f9060ff1615821515851615151690565b15611c68576001600160a01b0384165f818152600260209081526040808320338452909152808220805460ff19166001179055517f69da6af30334fddc87acb34f52a47c7548a48aeee9ec3b0a5eef11539c0dce019190a25b81156102b8575050506001600160a01b039081165f908152600160209081526040918290208451815492860151938601516060909601516001600160a81b0319909316901515610100600160a81b0319161761010093909416929092029290921764ffffffffff60a81b1916600160a81b9315159390930263ffffffff60b01b191692909217600160b01b63ffffffff90921691909102179055565b6001600160a01b038083165f9081526001602090815260408083208151608081018352905460ff80821615158352610100820490961693820193909352600160a81b830490941615159084015263ffffffff600160b01b90910481166060840152611d75908690858116906122f016565b905042811015611d9857604051635a922a2f60e01b815260040160405180910390fd5b606082015163ffffffff1615611e28576020828101516001600160a01b03165f908152600490915260409020548015611e26575f611de9846060015163ffffffff16836122f090919063ffffffff16565b6020850151909150611e07906001600160a01b031633148285111790565b611e245760405163601fd52b60e11b815260040160405180910390fd5b505b505b6102b882868686612458565b6003545f90611e459060019061312d565b9050808262ffffff1603611e7b576003805480611e6457611e64613140565b600190038181905f5260205f20015f905590555050565b5f611eaa8360038481548110611e9357611e936130ea565b905f5260205f20015461254e90919063ffffffff16565b90508060038462ffffff1681548110611ec557611ec56130ea565b5f918252602090912001556003805480611ee157611ee1613140565b600190038181905f5260205f20015f905590555f611f0b826001600160a01b0360409190911c1690565b6001600160a01b0381165f8181526004602052604090208490559091507f0c641c0a4b692db5a80ac5db2cdc5d138e9878e3a42907e4ca46377d45e820f0611f538460e01c90565b6040805163ffffffff909216825262ffffff881660208301520160405180910390a250505050565b5f8086611f9061018087016101608801613154565b909250905033611faf61ffff89165f612710633a73673b60e11b612563565b6001600160a01b0381165f90815260208181526040918290208251606081018452905461ffff8082168352620100008204169282019290925264010000000090910463ffffffff1691810182905290156120fa5760408101515f906120389063ffffffff164210156120296101608b016101408c01613154565b61ffff908116908d1610151690565b825190915061ffff908116908b1610158115158117156120f7578115612090576040516001600160a01b038516907f145c143a918203cecb36063a1d70980ebb42b5b00490c5510d79c9d7717b77bb905f90a26120c4565b6040516001600160a01b038516907f2045c970b5c1a8f9b69dd33e70a1f9d07b9021e408716d5b8daeb83a776ea05f905f90a25b50506001600160a01b039091165f90815260208181526040909120805467ffffffffffffffff1916905501519050611403565b50505b5f80826040015163ffffffff165f14612119578251602084015161213d565b61212b6101608a016101408b01613154565b61213d6101808b016101608c01613154565b915091508161ffff168b61ffff1610156122e2575f6121698c61ffff168461ffff168461ffff16612577565b90505f612179426212750061316d565b9050846040015163ffffffff165f036121f6576040805161ffff85811682528416602082015263ffffffff83168183015290516001600160a01b038816917f16f9a191ecd86fd97f0ddc3dbed8fdc4d1e0d0644b93db99f8a577f52b0dec43919081900360600190a261ffff808516865283166020860152612274565b6122086101608c016101408d01613154565b61ffff168d61ffff161061221d575060408401515b6040805161ffff85811682528416602082015263ffffffff83168183015290516001600160a01b038816917ff813e17e21ecee3918b028c4e02f15f1fdd045f9f63183b6ab4f42c23c97b321919081900360600190a25b63ffffffff90811660408087019182526001600160a01b0388165f9081526020818152919020875181549289015193519094166401000000000267ffffffff000000001961ffff948516620100000263ffffffff199094169490951693909317919091179290921617905594505b505050509550959350505050565b5f61172e6122fe8460e01c90565b839063ffffffff908116906125d18116565b63ffffffff166060830152604081811c6001600160a01b0316602084015262ffffff60289290921c821690911415910152565b5f610b6a61235760a0860160808701613154565b61236760c0870160a08801613154565b61237760e0880160c08901613180565b612388610100890160e08a01613154565b61239a6101208a016101008b01613180565b6125df565b5f61168482605c1c60011690565b5f61168482605f1c60011690565b806123d06001600160801b0382168214612663565b919050565b5f61168482605e1c60011690565b5f601482900361243857823560601c5f818152600460205260409020548015801590612418575062ffffff602882901c811614155b156124315761242887828861168a565b92505050612450565b5050612450565b60148211156124505761244d8585858561267d565b90505b949350505050565b61246c848463ffffffff8085169061231016565b6001600160a01b038281165f8181526001602090815260409182902088518154928a01518a85015160608c01516001600160a81b0319909516921515610100600160a81b03191692909217610100918816919091021764ffffffffff60a81b1916600160a81b9115159190910263ffffffff60b01b191617600160b01b63ffffffff9093169290920291909117905590919085901c1660405163ffffffff841681526001600160a01b0391909116907fa04eb478c9c6a13a6de14b7eb31b1b629511e804c3cfef31bd549accd4b155249060200160405180910390a350505050565b60281b67ffffff000000000019919091161790565b81841183851017156101f957805f5260045ffd5b5f8061258f612710612589878761312d565b86612776565b90506109c481116125a2578291506125c9565b5f6125b96127106125b4846002613199565b61279a565b90506125c581856127a9565b9250505b509392505050565b910181811090829003020190565b6125f861ffff86165f612710633a73673b60e11b612563565b61261161ffff85165f6127106367e9111d60e11b612563565b61262e63ffffffff84165f6301e1338063772de36160e01b612563565b61264761ffff83165f61271063c7f3bbb960e01b612563565b6102b863ffffffff82165f6276a700632136673760e01b612563565b8061267a57634e487b715f5260116020526024601cfd5b50565b813560601c5f8181526004602052604081205490916354560cb291806126a8575f9350505050612450565b5f8063c177c70060e01b60e01c63ffffffff169050601488016040518681528a6020820152604080820152601489038060608301528083608084013760205f60648301601c85015f8b5af11561271e5760203d10600181146127135763ffffffff5f5116955061271c565b845f526004601cfd5b505b505050815f148061272e57504282115b15612740575f95505050505050612450565b4261274b84846122f0565b106127695761275b8a8484612310565b600195505050505050612450565b5050505050949350505050565b5f825f1904841183021582026127935763ad251c275f526004601cfd5b5091020490565b5f81830382841002820161172e565b5f82820382841002830161172e565b803561ffff811681146123d0575f80fd5b634e487b7160e01b5f52604160045260245ffd5b6040516101c0810167ffffffffffffffff81118282101715612801576128016127c9565b60405290565b604051601f8201601f1916810167ffffffffffffffff81118282101715612830576128306127c9565b604052919050565b801515811461267a575f80fd5b80356123d081612838565b80356001600160801b03811681146123d0575f80fd5b80356cffffffffffffffffffffffffff811681146123d0575f80fd5b803563ffffffff811681146123d0575f80fd5b80356001600160701b03811681146123d0575f80fd5b5f8083601f8401126128bb575f80fd5b50813567ffffffffffffffff8111156128d2575f80fd5b6020830191508360208285010111156128e9575f80fd5b9250929050565b5f805f80848603610200811215612905575f80fd5b61290e866127b8565b94506101c080601f1983011215612923575f80fd5b61292b6127dd565b915061293960208801612845565b825261294760408801612850565b602083015261295860608801612850565b604083015261296960808801612850565b606083015261297a60a08801612866565b608083015261298b60c08801612866565b60a083015261299c60e08801612882565b60c08301526101006129af818901612845565b60e08401526101206129c2818a01612882565b8285015261014091506129d6828a016127b8565b908401526101606129e88982016127b8565b8285015261018091506129fc828a016127b8565b908401526101a0612a0e898201612895565b82850152612a1d838a01612882565b9084015250909350506101e085013567ffffffffffffffff811115612a40575f80fd5b612a4c878288016128ab565b95989497509550505050565b80356001600160a01b03811681146123d0575f80fd5b5f60208284031215612a7e575f80fd5b61172e82612a58565b5f8060408385031215612a98575f80fd5b612aa183612a58565b9150612aaf60208401612850565b90509250929050565b5f805f805f60808688031215612acc575f80fd5b612ad586612a58565b9450612ae360208701612a58565b9350604086013567ffffffffffffffff80821115612aff575f80fd5b90870190610140828a031215612b13575f80fd5b90935060608701359080821115612b28575f80fd5b50612b35888289016128ab565b969995985093965092949392505050565b5f6101c08284031215610b0a575f80fd5b5f805f805f6102208688031215612b6c575f80fd5b612b7586612a58565b9450612b8360208701612850565b9350612b928760408801612b46565b925061020086013567ffffffffffffffff811115612bae575f80fd5b612b35888289016128ab565b5f805f805f806102408789031215612bd0575f80fd5b612bd987612a58565b9550612be760208801612882565b945060408701359350612bfd8860608901612b46565b925061022087013567ffffffffffffffff811115612c19575f80fd5b612c2589828a016128ab565b979a9699509497509295939492505050565b602081525f82518060208401528060208501604085015e5f604082850101526040601f19601f83011684010191505092915050565b5f805f805f6102208688031215612c81575f80fd5b612c8a86612a58565b945060208601359350612b928760408801612b46565b5f8060408385031215612cb1575f80fd5b612cba83612a58565b9150612aaf60208401612882565b5f805f806102008587031215612cdc575f80fd5b84359350612ced8660208701612b46565b92506101e085013567ffffffffffffffff811115612a40575f80fd5b5f805f806102008587031215612d1d575f80fd5b612d2685612a58565b9350612ced8660208701612b46565b602080825282518282018190525f9190848201906040850190845b81811015612d6c57835183529284019291840191600101612d50565b50909695505050505050565b5f67ffffffffffffffff821115612d9157612d916127c9565b5060051b60200190565b5f82601f830112612daa575f80fd5b81356020612dbf612dba83612d78565b612807565b8083825260208201915060208460051b870101935086841115612de0575f80fd5b602086015b84811015612e0357612df681612882565b8352918301918301612de5565b509695505050505050565b5f8060408385031215612e1f575f80fd5b823567ffffffffffffffff80821115612e36575f80fd5b818501915085601f830112612e49575f80fd5b81356020612e59612dba83612d78565b82815260059290921b84018101918181019089841115612e77575f80fd5b948201945b83861015612e9c57612e8d86612a58565b82529482019490820190612e7c565b96505086013592505080821115612eb1575f80fd5b50612ebe85828601612d9b565b9150509250929050565b5f805f6101e08486031215612edb575f80fd5b612ee58585612b46565b92506101c084013567ffffffffffffffff811115612f01575f80fd5b612f0d868287016128ab565b9497909650939450505050565b5f805f805f805f610260888a031215612f31575f80fd5b612f3a88612a58565b9650612f4860208901612a58565b9550612f5660408901612a58565b945060608801359350612f6c8960808a01612b46565b925061024088013567ffffffffffffffff811115612f88575f80fd5b612f948a828b016128ab565b989b979a50959850939692959293505050565b815163ffffffff16815261014081016020830151612fcd602084018263ffffffff169052565b506040830151612fe3604084018261ffff169052565b506060830151612ff9606084018261ffff169052565b50608083015161300f608084018261ffff169052565b5060a083015161302560a084018261ffff169052565b5060c083015161303d60c084018263ffffffff169052565b5060e083015161305560e084018263ffffffff169052565b506101008381015161ffff908116918401919091526101209384015116929091019190915290565b5f806040838503121561308e575f80fd5b61309783612a58565b9150612aaf60208401612a58565b5f805f805f61022086880312156130ba575f80fd5b6130c3866127b8565b9450612b83602087016127b8565b5f602082840312156130e1575f80fd5b61172e82612895565b634e487b7160e01b5f52603260045260245ffd5b5f6020828403121561310e575f80fd5b815161172e81612838565b634e487b7160e01b5f52601160045260245ffd5b8181038181111561168457611684613119565b634e487b7160e01b5f52603160045260245ffd5b5f60208284031215613164575f80fd5b61172e826127b8565b8082018082111561168457611684613119565b5f60208284031215613190575f80fd5b61172e82612882565b80820281158282048414176116845761168461311956fea164736f6c6343000819000a0000000000000000000000007109709ecfa91a80626ff3989d68f67f5b1dd12d53696e676c65426f72726f776572416363657373436f6e74726f6c486f6f6b73","linkReferences":{}},"methodIdentifiers":{"excludeArtifacts()":"b5508aa9","excludeContracts()":"e20c9f71","excludeSenders()":"1ed7831c","failed()":"ba414fa6","targetArtifactSelectors()":"66d9a9a0","targetArtifacts()":"85226c81","targetContracts()":"3f7286f4","targetInterfaces()":"2ade3880","targetSelectors()":"916a17c6","targetSenders()":"3e5e3c23"},"id":91}