{"abi":[{"type":"function","name":"calculateCreate2Address","inputs":[{"name":"create2Prefix","type":"uint256","internalType":"uint256"},{"name":"salt","type":"bytes32","internalType":"bytes32"},{"name":"initCodeHash","type":"uint256","internalType":"uint256"}],"outputs":[{"name":"create2Address","type":"address","internalType":"address"}],"stateMutability":"pure"},{"type":"function","name":"create2WithStoredInitCode","inputs":[{"name":"initCodeStorage","type":"address","internalType":"address"},{"name":"salt","type":"bytes32","internalType":"bytes32"},{"name":"value","type":"uint256","internalType":"uint256"}],"outputs":[{"name":"deployment","type":"address","internalType":"address"}],"stateMutability":"nonpayable"},{"type":"function","name":"create2WithStoredInitCode","inputs":[{"name":"initCodeStorage","type":"address","internalType":"address"},{"name":"salt","type":"bytes32","internalType":"bytes32"}],"outputs":[{"name":"deployment","type":"address","internalType":"address"}],"stateMutability":"nonpayable"},{"type":"function","name":"createWithStoredInitCode","inputs":[{"name":"initCodeStorage","type":"address","internalType":"address"}],"outputs":[{"name":"deployment","type":"address","internalType":"address"}],"stateMutability":"nonpayable"},{"type":"function","name":"createWithStoredInitCode","inputs":[{"name":"initCodeStorage","type":"address","internalType":"address"},{"name":"value","type":"uint256","internalType":"uint256"}],"outputs":[{"name":"deployment","type":"address","internalType":"address"}],"stateMutability":"nonpayable"},{"type":"function","name":"deployInitCode","inputs":[{"name":"data","type":"bytes","internalType":"bytes"}],"outputs":[{"name":"initCodeStorage","type":"address","internalType":"address"}],"stateMutability":"nonpayable"},{"type":"function","name":"getContractParameters","inputs":[],"outputs":[{"name":"","type":"uint256","internalType":"uint256"}],"stateMutability":"view"},{"type":"function","name":"getCreate2Prefix","inputs":[{"name":"deployer","type":"address","internalType":"address"}],"outputs":[{"name":"create2Prefix","type":"uint256","internalType":"uint256"}],"stateMutability":"pure"}],"bytecode":{"object":"0x60a0604052607b6080908152503480156016575f80fd5b506080516107b761002f5f395f61026a01526107b75ff3fe608060405234801561000f575f80fd5b5060043610610086575f3560e01c80639659f26f116100595780639659f26f1461014a578063bda5edd31461017a578063bfacd9ed146101aa578063e720b1e4146101c857610086565b806301b400c81461008a5780637bbcea90146100ba5780638558dbde146100ea5780638591b5401461011a575b5f80fd5b6100a4600480360381019061009f919061042a565b6101f8565b6040516100b19190610464565b60405180910390f35b6100d460048036038101906100cf91906104e3565b610209565b6040516100e19190610464565b60405180910390f35b61010460048036038101906100ff9190610533565b61021e565b6040516101119190610464565b60405180910390f35b610134600480360381019061012f919061042a565b610233565b6040516101419190610592565b60405180910390f35b610164600480360381019061015f91906106e7565b610244565b6040516101719190610464565b60405180910390f35b610194600480360381019061018f919061072e565b610255565b6040516101a19190610464565b60405180910390f35b6101b2610268565b6040516101bf9190610592565b60405180910390f35b6101e260048036038101906101dd919061076c565b61028c565b6040516101ef9190610464565b60405180910390f35b5f6102028261029f565b9050919050565b5f6102158484846102b1565b90509392505050565b5f61022a8484846102e9565b90509392505050565b5f61023d8261031a565b9050919050565b5f61024e8261033a565b9050919050565b5f610260838361037c565b905092915050565b7f000000000000000000000000000000000000000000000000000000000000000081565b5f61029783836103ab565b905092915050565b5f6102aa825f61037c565b9050919050565b5f604051845f52836020528260405273ffffffffffffffffffffffffffffffffffffffff6055600b2016915080604052509392505050565b5f6040516001853b0380600183883c84818386f59250826103115763301164255f526004601cfd5b50509392505050565b5f74ff000000000000000000000000000000000000000082179050919050565b5f8151600b81016a6100005f81600a5f39f3006001830160401b17845280601585015ff0925082610372576311c8c3c05f526004601cfd5b8184525050919050565b5f6040516001843b0380600183873c808285f09250826103a35763301164255f526004601cfd5b505092915050565b5f6103b783835f6102e9565b905092915050565b5f604051905090565b5f80fd5b5f80fd5b5f73ffffffffffffffffffffffffffffffffffffffff82169050919050565b5f6103f9826103d0565b9050919050565b610409816103ef565b8114610413575f80fd5b50565b5f8135905061042481610400565b92915050565b5f6020828403121561043f5761043e6103c8565b5b5f61044c84828501610416565b91505092915050565b61045e816103ef565b82525050565b5f6020820190506104775f830184610455565b92915050565b5f819050919050565b61048f8161047d565b8114610499575f80fd5b50565b5f813590506104aa81610486565b92915050565b5f819050919050565b6104c2816104b0565b81146104cc575f80fd5b50565b5f813590506104dd816104b9565b92915050565b5f805f606084860312156104fa576104f96103c8565b5b5f6105078682870161049c565b9350506020610518868287016104cf565b92505060406105298682870161049c565b9150509250925092565b5f805f6060848603121561054a576105496103c8565b5b5f61055786828701610416565b9350506020610568868287016104cf565b92505060406105798682870161049c565b9150509250925092565b61058c8161047d565b82525050565b5f6020820190506105a55f830184610583565b92915050565b5f80fd5b5f80fd5b5f601f19601f8301169050919050565b7f4e487b71000000000000000000000000000000000000000000000000000000005f52604160045260245ffd5b6105f9826105b3565b810181811067ffffffffffffffff82111715610618576106176105c3565b5b80604052505050565b5f61062a6103bf565b905061063682826105f0565b919050565b5f67ffffffffffffffff821115610655576106546105c3565b5b61065e826105b3565b9050602081019050919050565b828183375f83830152505050565b5f61068b6106868461063b565b610621565b9050828152602081018484840111156106a7576106a66105af565b5b6106b284828561066b565b509392505050565b5f82601f8301126106ce576106cd6105ab565b5b81356106de848260208601610679565b91505092915050565b5f602082840312156106fc576106fb6103c8565b5b5f82013567ffffffffffffffff811115610719576107186103cc565b5b610725848285016106ba565b91505092915050565b5f8060408385031215610744576107436103c8565b5b5f61075185828601610416565b92505060206107628582860161049c565b9150509250929050565b5f8060408385031215610782576107816103c8565b5b5f61078f85828601610416565b92505060206107a0858286016104cf565b915050925092905056fea164736f6c6343000819000a","linkReferences":{}},"methodIdentifiers":{"calculateCreate2Address(uint256,bytes32,uint256)":"7bbcea90","create2WithStoredInitCode(address,bytes32)":"e720b1e4","create2WithStoredInitCode(address,bytes32,uint256)":"8558dbde","createWithStoredInitCode(address)":"01b400c8","createWithStoredInitCode(address,uint256)":"bda5edd3","deployInitCode(bytes)":"9659f26f","getContractParameters()":"bfacd9ed","getCreate2Prefix(address)":"8591b540"},"id":133}