{"abi":[{"type":"constructor","inputs":[],"stateMutability":"payable"},{"type":"function","name":"getValue","inputs":[],"outputs":[{"name":"","type":"uint256","internalType":"uint256"}],"stateMutability":"view"}],"bytecode":{"object":"0x60a06040523373ffffffffffffffffffffffffffffffffffffffff1663bfacd9ed6040518163ffffffff1660e01b8152600401602060405180830381865afa15801561004d573d5f803e3d5ffd5b505050506040513d601f19601f8201168201806040525081019061007191906100b4565b608081815250506100df565b5f80fd5b5f819050919050565b61009381610081565b811461009d575f80fd5b50565b5f815190506100ae8161008a565b92915050565b5f602082840312156100c9576100c861007d565b5b5f6100d6848285016100a0565b91505092915050565b60805160a56100f45f395f6047015260a55ff3fe6080604052348015600e575f80fd5b50600436106026575f3560e01c80632096525514602a575b5f80fd5b60306044565b604051603b91906081565b60405180910390f35b5f7f0000000000000000000000000000000000000000000000000000000000000000905090565b5f819050919050565b607b81606b565b82525050565b5f60208201905060925f8301846074565b9291505056fea164736f6c6343000819000a","linkReferences":{}},"methodIdentifiers":{"getValue()":"20965255"},"id":133}