{"abi":[{"type":"function","name":"accruedProtocolFees","inputs":[],"outputs":[{"name":"","type":"uint256","internalType":"uint256"}],"stateMutability":"view"},{"type":"function","name":"allowance","inputs":[{"name":"","type":"address","internalType":"address"},{"name":"","type":"address","internalType":"address"}],"outputs":[{"name":"","type":"uint256","internalType":"uint256"}],"stateMutability":"view"},{"type":"function","name":"annualInterestBips","inputs":[],"outputs":[{"name":"","type":"uint256","internalType":"uint256"}],"stateMutability":"view"},{"type":"function","name":"approve","inputs":[{"name":"spender","type":"address","internalType":"address"},{"name":"amount","type":"uint256","internalType":"uint256"}],"outputs":[{"name":"","type":"bool","internalType":"bool"}],"stateMutability":"nonpayable"},{"type":"function","name":"archController","inputs":[],"outputs":[{"name":"","type":"address","internalType":"address"}],"stateMutability":"view"},{"type":"function","name":"asset","inputs":[],"outputs":[{"name":"","type":"address","internalType":"address"}],"stateMutability":"view"},{"type":"function","name":"balanceOf","inputs":[{"name":"account","type":"address","internalType":"address"}],"outputs":[{"name":"","type":"uint256","internalType":"uint256"}],"stateMutability":"view"},{"type":"function","name":"borrow","inputs":[{"name":"amount","type":"uint256","internalType":"uint256"}],"outputs":[],"stateMutability":"nonpayable"},{"type":"function","name":"borrowableAssets","inputs":[],"outputs":[{"name":"","type":"uint256","internalType":"uint256"}],"stateMutability":"view"},{"type":"function","name":"borrower","inputs":[],"outputs":[{"name":"","type":"address","internalType":"address"}],"stateMutability":"view"},{"type":"function","name":"changeSphereXEngine","inputs":[{"name":"newSphereXEngine","type":"address","internalType":"address"}],"outputs":[],"stateMutability":"nonpayable"},{"type":"function","name":"closeMarket","inputs":[],"outputs":[],"stateMutability":"nonpayable"},{"type":"function","name":"collectFees","inputs":[],"outputs":[],"stateMutability":"nonpayable"},{"type":"function","name":"coverageLiquidity","inputs":[],"outputs":[{"name":"","type":"uint256","internalType":"uint256"}],"stateMutability":"view"},{"type":"function","name":"currentState","inputs":[],"outputs":[{"name":"state","type":"tuple","internalType":"struct MarketState","components":[{"name":"isClosed","type":"bool","internalType":"bool"},{"name":"maxTotalSupply","type":"uint128","internalType":"uint128"},{"name":"accruedProtocolFees","type":"uint128","internalType":"uint128"},{"name":"normalizedUnclaimedWithdrawals","type":"uint128","internalType":"uint128"},{"name":"scaledTotalSupply","type":"uint104","internalType":"uint104"},{"name":"scaledPendingWithdrawals","type":"uint104","internalType":"uint104"},{"name":"pendingWithdrawalExpiry","type":"uint32","internalType":"uint32"},{"name":"isDelinquent","type":"bool","internalType":"bool"},{"name":"timeDelinquent","type":"uint32","internalType":"uint32"},{"name":"protocolFeeBips","type":"uint16","internalType":"uint16"},{"name":"annualInterestBips","type":"uint16","internalType":"uint16"},{"name":"reserveRatioBips","type":"uint16","internalType":"uint16"},{"name":"scaleFactor","type":"uint112","internalType":"uint112"},{"name":"lastInterestAccruedTimestamp","type":"uint32","internalType":"uint32"}]}],"stateMutability":"view"},{"type":"function","name":"decimals","inputs":[],"outputs":[{"name":"","type":"uint8","internalType":"uint8"}],"stateMutability":"view"},{"type":"function","name":"delinquencyFeeBips","inputs":[],"outputs":[{"name":"","type":"uint256","internalType":"uint256"}],"stateMutability":"view"},{"type":"function","name":"delinquencyGracePeriod","inputs":[],"outputs":[{"name":"","type":"uint256","internalType":"uint256"}],"stateMutability":"view"},{"type":"function","name":"deposit","inputs":[{"name":"amount","type":"uint256","internalType":"uint256"}],"outputs":[],"stateMutability":"nonpayable"},{"type":"function","name":"depositUpTo","inputs":[{"name":"amount","type":"uint256","internalType":"uint256"}],"outputs":[{"name":"","type":"uint256","internalType":"uint256"}],"stateMutability":"nonpayable"},{"type":"function","name":"executeWithdrawal","inputs":[{"name":"accountAddress","type":"address","internalType":"address"},{"name":"expiry","type":"uint32","internalType":"uint32"}],"outputs":[{"name":"","type":"uint256","internalType":"uint256"}],"stateMutability":"nonpayable"},{"type":"function","name":"executeWithdrawals","inputs":[{"name":"accountAddresses","type":"address[]","internalType":"address[]"},{"name":"expiries","type":"uint32[]","internalType":"uint32[]"}],"outputs":[{"name":"amounts","type":"uint256[]","internalType":"uint256[]"}],"stateMutability":"nonpayable"},{"type":"function","name":"factory","inputs":[],"outputs":[{"name":"","type":"address","internalType":"address"}],"stateMutability":"view"},{"type":"function","name":"feeRecipient","inputs":[],"outputs":[{"name":"","type":"address","internalType":"address"}],"stateMutability":"view"},{"type":"function","name":"getAccountWithdrawalStatus","inputs":[{"name":"accountAddress","type":"address","internalType":"address"},{"name":"expiry","type":"uint32","internalType":"uint32"}],"outputs":[{"name":"status","type":"tuple","internalType":"struct AccountWithdrawalStatus","components":[{"name":"scaledAmount","type":"uint104","internalType":"uint104"},{"name":"normalizedAmountWithdrawn","type":"uint128","internalType":"uint128"}]}],"stateMutability":"view"},{"type":"function","name":"getAvailableWithdrawalAmount","inputs":[{"name":"accountAddress","type":"address","internalType":"address"},{"name":"expiry","type":"uint32","internalType":"uint32"}],"outputs":[{"name":"","type":"uint256","internalType":"uint256"}],"stateMutability":"view"},{"type":"function","name":"getUnpaidBatchExpiries","inputs":[],"outputs":[{"name":"","type":"uint32[]","internalType":"uint32[]"}],"stateMutability":"view"},{"type":"function","name":"getWithdrawalBatch","inputs":[{"name":"expiry","type":"uint32","internalType":"uint32"}],"outputs":[{"name":"batch","type":"tuple","internalType":"struct WithdrawalBatch","components":[{"name":"scaledTotalAmount","type":"uint104","internalType":"uint104"},{"name":"scaledAmountBurned","type":"uint104","internalType":"uint104"},{"name":"normalizedAmountPaid","type":"uint128","internalType":"uint128"}]}],"stateMutability":"view"},{"type":"function","name":"hooks","inputs":[],"outputs":[{"name":"","type":"uint256","internalType":"HooksConfig"}],"stateMutability":"view"},{"type":"function","name":"isClosed","inputs":[],"outputs":[{"name":"","type":"bool","internalType":"bool"}],"stateMutability":"view"},{"type":"function","name":"maxTotalSupply","inputs":[],"outputs":[{"name":"","type":"uint256","internalType":"uint256"}],"stateMutability":"view"},{"type":"function","name":"maximumDeposit","inputs":[],"outputs":[{"name":"","type":"uint256","internalType":"uint256"}],"stateMutability":"view"},{"type":"function","name":"name","inputs":[],"outputs":[{"name":"","type":"string","internalType":"string"}],"stateMutability":"view"},{"type":"function","name":"nukeFromOrbit","inputs":[{"name":"accountAddress","type":"address","internalType":"address"}],"outputs":[],"stateMutability":"nonpayable"},{"type":"function","name":"previousState","inputs":[],"outputs":[{"name":"","type":"tuple","internalType":"struct MarketState","components":[{"name":"isClosed","type":"bool","internalType":"bool"},{"name":"maxTotalSupply","type":"uint128","internalType":"uint128"},{"name":"accruedProtocolFees","type":"uint128","internalType":"uint128"},{"name":"normalizedUnclaimedWithdrawals","type":"uint128","internalType":"uint128"},{"name":"scaledTotalSupply","type":"uint104","internalType":"uint104"},{"name":"scaledPendingWithdrawals","type":"uint104","internalType":"uint104"},{"name":"pendingWithdrawalExpiry","type":"uint32","internalType":"uint32"},{"name":"isDelinquent","type":"bool","internalType":"bool"},{"name":"timeDelinquent","type":"uint32","internalType":"uint32"},{"name":"protocolFeeBips","type":"uint16","internalType":"uint16"},{"name":"annualInterestBips","type":"uint16","internalType":"uint16"},{"name":"reserveRatioBips","type":"uint16","internalType":"uint16"},{"name":"scaleFactor","type":"uint112","internalType":"uint112"},{"name":"lastInterestAccruedTimestamp","type":"uint32","internalType":"uint32"}]}],"stateMutability":"view"},{"type":"function","name":"queueFullWithdrawal","inputs":[],"outputs":[{"name":"expiry","type":"uint32","internalType":"uint32"}],"stateMutability":"nonpayable"},{"type":"function","name":"queueWithdrawal","inputs":[{"name":"amount","type":"uint256","internalType":"uint256"}],"outputs":[{"name":"expiry","type":"uint32","internalType":"uint32"}],"stateMutability":"nonpayable"},{"type":"function","name":"repay","inputs":[{"name":"amount","type":"uint256","internalType":"uint256"}],"outputs":[],"stateMutability":"nonpayable"},{"type":"function","name":"repayAndProcessUnpaidWithdrawalBatches","inputs":[{"name":"repayAmount","type":"uint256","internalType":"uint256"},{"name":"maxBatches","type":"uint256","internalType":"uint256"}],"outputs":[],"stateMutability":"nonpayable"},{"type":"function","name":"repayDelinquentDebt","inputs":[],"outputs":[],"stateMutability":"nonpayable"},{"type":"function","name":"repayOutstandingDebt","inputs":[],"outputs":[],"stateMutability":"nonpayable"},{"type":"function","name":"rescueTokens","inputs":[{"name":"token","type":"address","internalType":"address"}],"outputs":[],"stateMutability":"nonpayable"},{"type":"function","name":"reserveRatioBips","inputs":[],"outputs":[{"name":"","type":"uint256","internalType":"uint256"}],"stateMutability":"view"},{"type":"function","name":"scaleFactor","inputs":[],"outputs":[{"name":"","type":"uint256","internalType":"uint256"}],"stateMutability":"view"},{"type":"function","name":"scaledBalanceOf","inputs":[{"name":"account","type":"address","internalType":"address"}],"outputs":[{"name":"","type":"uint256","internalType":"uint256"}],"stateMutability":"view"},{"type":"function","name":"scaledTotalSupply","inputs":[],"outputs":[{"name":"","type":"uint256","internalType":"uint256"}],"stateMutability":"view"},{"type":"function","name":"sentinel","inputs":[],"outputs":[{"name":"","type":"address","internalType":"address"}],"stateMutability":"view"},{"type":"function","name":"setAnnualInterestAndReserveRatioBips","inputs":[{"name":"_annualInterestBips","type":"uint16","internalType":"uint16"},{"name":"_reserveRatioBips","type":"uint16","internalType":"uint16"}],"outputs":[],"stateMutability":"nonpayable"},{"type":"function","name":"setMaxTotalSupply","inputs":[{"name":"_maxTotalSupply","type":"uint256","internalType":"uint256"}],"outputs":[],"stateMutability":"nonpayable"},{"type":"function","name":"setProtocolFeeBips","inputs":[{"name":"_protocolFeeBips","type":"uint16","internalType":"uint16"}],"outputs":[],"stateMutability":"nonpayable"},{"type":"function","name":"sphereXEngine","inputs":[],"outputs":[{"name":"","type":"address","internalType":"address"}],"stateMutability":"view"},{"type":"function","name":"sphereXOperator","inputs":[],"outputs":[{"name":"","type":"address","internalType":"address"}],"stateMutability":"view"},{"type":"function","name":"symbol","inputs":[],"outputs":[{"name":"","type":"string","internalType":"string"}],"stateMutability":"view"},{"type":"function","name":"totalAssets","inputs":[],"outputs":[{"name":"","type":"uint256","internalType":"uint256"}],"stateMutability":"view"},{"type":"function","name":"totalDebts","inputs":[],"outputs":[{"name":"","type":"uint256","internalType":"uint256"}],"stateMutability":"view"},{"type":"function","name":"totalSupply","inputs":[],"outputs":[{"name":"","type":"uint256","internalType":"uint256"}],"stateMutability":"view"},{"type":"function","name":"transfer","inputs":[{"name":"to","type":"address","internalType":"address"},{"name":"amount","type":"uint256","internalType":"uint256"}],"outputs":[{"name":"","type":"bool","internalType":"bool"}],"stateMutability":"nonpayable"},{"type":"function","name":"transferFrom","inputs":[{"name":"from","type":"address","internalType":"address"},{"name":"to","type":"address","internalType":"address"},{"name":"amount","type":"uint256","internalType":"uint256"}],"outputs":[{"name":"","type":"bool","internalType":"bool"}],"stateMutability":"nonpayable"},{"type":"function","name":"updateState","inputs":[],"outputs":[],"stateMutability":"nonpayable"},{"type":"function","name":"version","inputs":[],"outputs":[{"name":"","type":"string","internalType":"string"}],"stateMutability":"pure"},{"type":"function","name":"withdrawableProtocolFees","inputs":[],"outputs":[{"name":"","type":"uint128","internalType":"uint128"}],"stateMutability":"view"},{"type":"function","name":"withdrawalBatchDuration","inputs":[],"outputs":[{"name":"","type":"uint256","internalType":"uint256"}],"stateMutability":"view"},{"type":"event","name":"AccountSanctioned","inputs":[{"name":"account","type":"address","indexed":true,"internalType":"address"}],"anonymous":false},{"type":"event","name":"AnnualInterestBipsUpdated","inputs":[{"name":"annualInterestBipsUpdated","type":"uint256","indexed":false,"internalType":"uint256"}],"anonymous":false},{"type":"event","name":"Approval","inputs":[{"name":"owner","type":"address","indexed":true,"internalType":"address"},{"name":"spender","type":"address","indexed":true,"internalType":"address"},{"name":"value","type":"uint256","indexed":false,"internalType":"uint256"}],"anonymous":false},{"type":"event","name":"Borrow","inputs":[{"name":"assetAmount","type":"uint256","indexed":false,"internalType":"uint256"}],"anonymous":false},{"type":"event","name":"ChangedSpherexEngineAddress","inputs":[{"name":"oldEngineAddress","type":"address","indexed":false,"internalType":"address"},{"name":"newEngineAddress","type":"address","indexed":false,"internalType":"address"}],"anonymous":false},{"type":"event","name":"ChangedSpherexOperator","inputs":[{"name":"oldSphereXAdmin","type":"address","indexed":false,"internalType":"address"},{"name":"newSphereXAdmin","type":"address","indexed":false,"internalType":"address"}],"anonymous":false},{"type":"event","name":"DebtRepaid","inputs":[{"name":"from","type":"address","indexed":true,"internalType":"address"},{"name":"assetAmount","type":"uint256","indexed":false,"internalType":"uint256"}],"anonymous":false},{"type":"event","name":"Deposit","inputs":[{"name":"account","type":"address","indexed":true,"internalType":"address"},{"name":"assetAmount","type":"uint256","indexed":false,"internalType":"uint256"},{"name":"scaledAmount","type":"uint256","indexed":false,"internalType":"uint256"}],"anonymous":false},{"type":"event","name":"FeesCollected","inputs":[{"name":"assets","type":"uint256","indexed":false,"internalType":"uint256"}],"anonymous":false},{"type":"event","name":"InterestAndFeesAccrued","inputs":[{"name":"fromTimestamp","type":"uint256","indexed":false,"internalType":"uint256"},{"name":"toTimestamp","type":"uint256","indexed":false,"internalType":"uint256"},{"name":"scaleFactor","type":"uint256","indexed":false,"internalType":"uint256"},{"name":"baseInterestRay","type":"uint256","indexed":false,"internalType":"uint256"},{"name":"delinquencyFeeRay","type":"uint256","indexed":false,"internalType":"uint256"},{"name":"protocolFees","type":"uint256","indexed":false,"internalType":"uint256"}],"anonymous":false},{"type":"event","name":"MarketClosed","inputs":[{"name":"timestamp","type":"uint256","indexed":false,"internalType":"uint256"}],"anonymous":false},{"type":"event","name":"MaxTotalSupplyUpdated","inputs":[{"name":"assets","type":"uint256","indexed":false,"internalType":"uint256"}],"anonymous":false},{"type":"event","name":"ProtocolFeeBipsUpdated","inputs":[{"name":"protocolFeeBips","type":"uint256","indexed":false,"internalType":"uint256"}],"anonymous":false},{"type":"event","name":"ReserveRatioBipsUpdated","inputs":[{"name":"reserveRatioBipsUpdated","type":"uint256","indexed":false,"internalType":"uint256"}],"anonymous":false},{"type":"event","name":"SanctionedAccountAssetsQueuedForWithdrawal","inputs":[{"name":"account","type":"address","indexed":true,"internalType":"address"},{"name":"expiry","type":"uint256","indexed":false,"internalType":"uint256"},{"name":"scaledAmount","type":"uint256","indexed":false,"internalType":"uint256"},{"name":"normalizedAmount","type":"uint256","indexed":false,"internalType":"uint256"}],"anonymous":false},{"type":"event","name":"SanctionedAccountAssetsSentToEscrow","inputs":[{"name":"account","type":"address","indexed":true,"internalType":"address"},{"name":"escrow","type":"address","indexed":false,"internalType":"address"},{"name":"amount","type":"uint256","indexed":false,"internalType":"uint256"}],"anonymous":false},{"type":"event","name":"SanctionedAccountWithdrawalSentToEscrow","inputs":[{"name":"account","type":"address","indexed":true,"internalType":"address"},{"name":"escrow","type":"address","indexed":false,"internalType":"address"},{"name":"expiry","type":"uint32","indexed":false,"internalType":"uint32"},{"name":"amount","type":"uint256","indexed":false,"internalType":"uint256"}],"anonymous":false},{"type":"event","name":"StateUpdated","inputs":[{"name":"scaleFactor","type":"uint256","indexed":false,"internalType":"uint256"},{"name":"isDelinquent","type":"bool","indexed":false,"internalType":"bool"}],"anonymous":false},{"type":"event","name":"Transfer","inputs":[{"name":"from","type":"address","indexed":true,"internalType":"address"},{"name":"to","type":"address","indexed":true,"internalType":"address"},{"name":"value","type":"uint256","indexed":false,"internalType":"uint256"}],"anonymous":false},{"type":"event","name":"WithdrawalBatchClosed","inputs":[{"name":"expiry","type":"uint256","indexed":true,"internalType":"uint256"}],"anonymous":false},{"type":"event","name":"WithdrawalBatchCreated","inputs":[{"name":"expiry","type":"uint256","indexed":true,"internalType":"uint256"}],"anonymous":false},{"type":"event","name":"WithdrawalBatchExpired","inputs":[{"name":"expiry","type":"uint256","indexed":true,"internalType":"uint256"},{"name":"scaledTotalAmount","type":"uint256","indexed":false,"internalType":"uint256"},{"name":"scaledAmountBurned","type":"uint256","indexed":false,"internalType":"uint256"},{"name":"normalizedAmountPaid","type":"uint256","indexed":false,"internalType":"uint256"}],"anonymous":false},{"type":"event","name":"WithdrawalBatchPayment","inputs":[{"name":"expiry","type":"uint256","indexed":true,"internalType":"uint256"},{"name":"scaledAmountBurned","type":"uint256","indexed":false,"internalType":"uint256"},{"name":"normalizedAmountPaid","type":"uint256","indexed":false,"internalType":"uint256"}],"anonymous":false},{"type":"event","name":"WithdrawalExecuted","inputs":[{"name":"expiry","type":"uint256","indexed":true,"internalType":"uint256"},{"name":"account","type":"address","indexed":true,"internalType":"address"},{"name":"normalizedAmount","type":"uint256","indexed":false,"internalType":"uint256"}],"anonymous":false},{"type":"event","name":"WithdrawalQueued","inputs":[{"name":"expiry","type":"uint256","indexed":true,"internalType":"uint256"},{"name":"account","type":"address","indexed":true,"internalType":"address"},{"name":"scaledAmount","type":"uint256","indexed":false,"internalType":"uint256"},{"name":"normalizedAmount","type":"uint256","indexed":false,"internalType":"uint256"}],"anonymous":false},{"type":"error","name":"AccountBlocked","inputs":[]},{"type":"error","name":"AnnualInterestBipsTooHigh","inputs":[]},{"type":"error","name":"AprChangeOnClosedMarket","inputs":[]},{"type":"error","name":"BadLaunchCode","inputs":[]},{"type":"error","name":"BadRescueAsset","inputs":[]},{"type":"error","name":"BorrowAmountTooHigh","inputs":[]},{"type":"error","name":"BorrowFromClosedMarket","inputs":[]},{"type":"error","name":"BorrowWhileSanctioned","inputs":[]},{"type":"error","name":"CapacityChangeOnClosedMarket","inputs":[]},{"type":"error","name":"CloseMarketWithUnpaidWithdrawals","inputs":[]},{"type":"error","name":"DepositToClosedMarket","inputs":[]},{"type":"error","name":"FIFOQueueOutOfBounds","inputs":[]},{"type":"error","name":"InsufficientReservesForFeeWithdrawal","inputs":[]},{"type":"error","name":"InsufficientReservesForNewLiquidityRatio","inputs":[]},{"type":"error","name":"InsufficientReservesForOldLiquidityRatio","inputs":[]},{"type":"error","name":"InvalidArrayLength","inputs":[]},{"type":"error","name":"MarketAlreadyClosed","inputs":[]},{"type":"error","name":"MaxSupplyExceeded","inputs":[]},{"type":"error","name":"NoReentrantCalls","inputs":[]},{"type":"error","name":"NotApprovedBorrower","inputs":[]},{"type":"error","name":"NotApprovedLender","inputs":[]},{"type":"error","name":"NotFactory","inputs":[]},{"type":"error","name":"NullBurnAmount","inputs":[]},{"type":"error","name":"NullFeeAmount","inputs":[]},{"type":"error","name":"NullMintAmount","inputs":[]},{"type":"error","name":"NullRepayAmount","inputs":[]},{"type":"error","name":"NullTransferAmount","inputs":[]},{"type":"error","name":"NullWithdrawalAmount","inputs":[]},{"type":"error","name":"ProtocolFeeChangeOnClosedMarket","inputs":[]},{"type":"error","name":"ProtocolFeeNotChanged","inputs":[]},{"type":"error","name":"ProtocolFeeTooHigh","inputs":[]},{"type":"error","name":"RepayToClosedMarket","inputs":[]},{"type":"error","name":"ReserveRatioBipsTooHigh","inputs":[]},{"type":"error","name":"SphereXOperatorRequired","inputs":[]},{"type":"error","name":"WithdrawalBatchNotExpired","inputs":[]}],"bytecode":{"object":"0x610260604052348015610010575f80fd5b5033610100525f6100326101e560201b612073176001600160401b031660201c565b9050805f01516001600160a01b03166101c0816001600160a01b031681525050806020015160ff166101a08160ff168152505080604001516101e0818152505080606001516102008181525050806080015161022081815250508060a0015161024081815250505f8161012001516001600160801b031690505f826101c0015161ffff1690505f83610160015161ffff1690505f84610140015161ffff1690508360081b805f55508060201b8260301b178360401b6b033b2e3c9fd0803ce800000060501b4260c01b1717178060035f0155505050505080610240015160a081815250508061010001516001600160a01b031660c0816001600160a01b0316815250508060c001516001600160a01b031660e0816001600160a01b0316815250508060e001516001600160a01b0316610120816001600160a01b03168152505080610180015161ffff166101408181525050806101e0015163ffffffff166101608181525050806101a0015163ffffffff1661018081815250508061020001516001600160a01b03166080816001600160a01b0316815250506101df81610220015161021660201b60201c565b506102ed565b5f604051905061026081016040526304032dbb5f52610260816004601c335afa6102603d1416610213575f80fd5b90565b6102285f60805161026860201b60201c565b61025b61025660017f1777adabd324f814e2b0e28f6edf876dce01d7d66358c9acfe87b1b5f38338d66102c8565b829055565b6102655f82610298565b50565b815f52806020527f2ac55ae7ba47db34b5334622acafeb34a65daf143b47019273185d64c73a35a560405fa15050565b815f52806020527ff33499cccaa0611882086224cc48cd82ef54b66a4d2edf4ed67108dd516896d560405fa15050565b818103818111156102e757634e487b7160e01b5f52601160045260245ffd5b92915050565b60805160a05160c05160e05161010051610120516101405161016051610180516101a0516101c0516101e05161020051610220516102405161546b6104de5f395f61168d01525f61166901525f610a9d01525f610a7901525f818161057e01528181610971015281816109db01528181610fc8015281816112700152818161197201528181611cb601528181611d900152818161293101528181612dfa01528181612e52015281816137f501526145fe01525f61051f01525f818161076801526132cd01525f8181610639015281816122e3015281816123ce0152818161270701526127a101525f81816105ff015281816122c2015281816123ad015281816126e6015261278001525f81816105d80152611db301525f81816107f5015261170201525f818161072401528181610939015281816110a4015281816118a50152818161199401528181611bc201528181611c0d01528181611f0c01528181613c3f015261462201525f818161091501528181613b4c01528181613c63015261464601525f818161083f015281816110290152818161110a01528181611781015281816119cc01528181611c8301528181611eda01528181611f7c0152818161296801528181612b5401528181612d570152818161332301526137b801525f818161065d015261117b015261546b5ff3fe608060405234801561000f575f80fd5b50600436106103a8575f3560e01c80636731ba6d116101ea578063b67afb3311610114578063cd7033c4116100a9578063dd62ed3e11610079578063dd62ed3e146108d3578063e5adc635146108fd578063e7e5db4f1461065b578063f58c251c14610910575f80fd5b8063cd7033c41461083a578063d98e0fe814610861578063dbcd50b414610874578063dcd549d4146108c0575f80fd5b8063c45a0155116100e4578063c45a0155146107f0578063c511ed5e14610817578063c5ebeaec1461081f578063c879657214610832575f80fd5b8063b67afb33146107b8578063b68ce7a2146107c0578063b6b55f25146107d3578063c2b6b58c146107e6575f80fd5b8063766360171161018a5780639e6f98021161015a5780639e6f980214610763578063a9059cbb1461078a578063ae6ea1911461079d578063b1bf962d146107b0575f80fd5b806376636017146107175780637df1f1b91461071f578063878eb9211461074657806395d89b411461075b575f80fd5b806370a08231116101c557806370a08231146106d45780637243d96c146106e7578063739ccdd3146106ef57806374058859146106f7575f80fd5b80636731ba6d14610691578063683dd191146106a45780636b174f35146106ac575f80fd5b80631e3cef53116102d65780633f3e4c111161026b578063514a4cd61161023b578063514a4cd614610634578063546355701461065b57806354b302c51461068157806354fd4d5014610689575f80fd5b80633f3e4c11146105c057806346904840146105d35780634be687c6146105fa5780634c6c848f14610621575f80fd5b806334bca29c116102a657806334bca29c14610553578063371fd8e61461056657806338d52e0f146105795780633c231166146105b8575f80fd5b80631e3cef53146104d257806323b872dd146104f25780632ab4d05214610505578063313ce5671461051a575f80fd5b80630c3f6acf1161034c57806318160ddd1161031c57806318160ddd146104a757806319521311146104af5780631d8557d7146104b75780631da24f3e146104bf575f80fd5b80630c3f6acf1461047c5780630cd1a5b61461048457806311057cd01461048c57806314a1c32d1461049f575f80fd5b806306fdde031161038757806306fdde031461041c578063088fee5e14610431578063095ea7b3146104445780630c1e3fea14610467575f80fd5b8062ae3bf8146103ac57806301e1d114146103c157806302372c4f146103dc575b5f80fd5b6103bf6103ba366004614f1b565b610937565b005b6103c96109cd565b6040519081526020015b60405180910390f35b6103ef6103ea366004614f47565b610a06565b6040805182516001600160681b031681526020928301516001600160801b031692810192909252016103d3565b610424610a74565b6040516103d39190614f78565b6103c961043f366004614f47565b610ad3565b610457610452366004614fad565b610c23565b60405190151581526020016103d3565b61046f610c58565b6040516103d39190614fd5565b61046f610d56565b6103c9610d7d565b600354600160301b900461ffff166103c9565b6103c9610da4565b6103c9610dc0565b6103bf610ddc565b6103bf610e46565b6103c96104cd366004614f1b565b610e77565b6104da610ea8565b6040516001600160801b0390911681526020016103d3565b610457610500366004615100565b610ec5565b5f5461010090046001600160801b03166103c9565b6105417f000000000000000000000000000000000000000000000000000000000000000081565b60405160ff90911681526020016103d3565b6103c9610561366004614f47565b610f4a565b6103bf610574366004615139565b610f99565b6105a07f000000000000000000000000000000000000000000000000000000000000000081565b6040516001600160a01b0390911681526020016103d3565b6105a061106f565b6103bf6105ce366004615139565b6110a2565b6105a07f000000000000000000000000000000000000000000000000000000000000000081565b6103c97f000000000000000000000000000000000000000000000000000000000000000081565b6103bf61062f366004614f1b565b611170565b6103c97f000000000000000000000000000000000000000000000000000000000000000081565b7f00000000000000000000000000000000000000000000000000000000000000006105a0565b6103c9611216565b610424611234565b6103bf61069f366004615150565b61124a565b6103c9611377565b6106bf6106ba366004615139565b61139e565b60405163ffffffff90911681526020016103d3565b6103c96106e2366004614f1b565b611427565b6106bf611466565b6103c96114ef565b61070a6107053660046151b8565b61150b565b6040516103d3919061521f565b6103c961162b565b6105a07f000000000000000000000000000000000000000000000000000000000000000081565b61074e611650565b6040516103d39190615262565b610424611664565b6103c97f000000000000000000000000000000000000000000000000000000000000000081565b610457610798366004614fad565b6116c3565b6103bf6107ab3660046152b0565b6116e4565b6103c96117f4565b6103bf61181a565b6103c96107ce366004615139565b61184d565b6103bf6107e1366004615139565b611873565b5f5460ff16610457565b6105a07f000000000000000000000000000000000000000000000000000000000000000081565b6103bf6118a3565b6103bf61082d366004615139565b611bc0565b6103bf611cfa565b6103c97f000000000000000000000000000000000000000000000000000000000000000081565b600354600160401b900461ffff166103c9565b6108876108823660046152c9565b611df5565b6040805182516001600160681b03908116825260208085015190911690820152918101516001600160801b0316908201526060016103d3565b6103bf6108ce366004614f1b565b611ea2565b6103c96108e13660046152e2565b600960209081525f928352604080842090915290825290205481565b6103bf61090b36600461530a565b611f0a565b6105a07f000000000000000000000000000000000000000000000000000000000000000081565b7f000000000000000000000000000000000000000000000000000000000000000033811461096c576302171e6a5f526004601cfd5b6109a87f00000000000000000000000000000000000000000000000000000000000000006001600160a01b039081169084169081149030141790565b156109b5576109b56120a1565b6109c86001600160a01b038316336120ae565b505050565b5f610a016001600160a01b037f0000000000000000000000000000000000000000000000000000000000000000163061211d565b905090565b604080518082019091525f8082526020820152610a21612152565b63ffffffff9091165f9081526008602090815260408083206001600160a01b039095168352938152929020546001600160681b03811682526001600160801b03600160681b909104169181019190915290565b60605f7f000000000000000000000000000000000000000000000000000000000000000090505f7f0000000000000000000000000000000000000000000000000000000000000000905060205f525f60205281603f5280605f5260805ff35b5f610adc612152565b428263ffffffff1610610af157610af161216a565b5f80610afb612177565b9250925050610b22604080516060810182525f808252602082018190529181019190915290565b8263ffffffff168563ffffffff1603610b3c575080610b91565b5063ffffffff84165f90815260076020908152604091829020825160608101845281546001600160681b038082168352600160681b9091041692810192909252600101546001600160801b0316918101919091525b63ffffffff8086165f9081526008602090815260408083206001600160a01b038b16845282528083208151808301835290546001600160681b038082168084526001600160801b03600160681b90930483169584018690528851948901519397959695610c08959490931693909291169061249016565b9050610c148282615346565b96505050505050505b92915050565b5f610c2c6124b4565b5f610c356124d8565b9050610c423385856124e9565b60019150610c4f8161251b565b50610c1d612527565b610c60614e92565b604080516101c080820183525f5460ff808216151584526001600160801b03610100928390048116602086015260015480821696860196909652600160801b90950490941660608401526002546001600160681b038082166080860152600160681b82041660a085015263ffffffff600160d01b8204811660c0860152600160f01b909104909416151560e08401526003548085169184019190915261ffff64010000000082048116610120850152600160301b82048116610140850152600160401b8204166101608401526001600160701b03600160501b820416610180840152600160c01b90049092166101a08201529081f35b610d5e614e92565b610d66612152565b610d756125305b63ffffffff16565b90506101c081f35b5f610d86612152565b610d91612530610d6d565b604001516001600160801b031690505b90565b5f610dad612152565b610a01610dbb612530610d6d565b612544565b5f610dc9612152565b610a01610dd7612530610d6d565b612595565b610de46124b4565b5f610ded6124d8565b90505f610df86125b6565b90505f610e19610e066109cd565b610e0f84612544565b9080821191030290565b9050610e2782826004612906565b610e308261298f565b5050610e3b8161251b565b50610e44612527565b565b610e4e6124b4565b5f610e576124d8565b90505f610e626125b6565b9050610e6d8161298f565b50610e3b8161251b565b5f610e80612152565b506001600160a01b0381165f908152600460205260409020546001600160681b03165b919050565b5f610a01610eb46109cd565b610ebf612530610d6d565b90612ae8565b5f610ece6124b4565b5f610ed76124d8565b6001600160a01b0386165f9081526009602090815260408083203384529091529020549091505f198114610f1f575f610f108583615346565b9050610f1d8733836124e9565b505b610f2c8686866064612b1c565b6001925050610f3a8161251b565b50610f43612527565b9392505050565b5f610f536124b4565b5f610f5c6124d8565b90505f610f676125b6565b90505f610f82828787610f7d60445f5236155190565b612c57565b9050610f8d8261298f565b925050610c4f8161251b565b610fa16124b4565b5f610faa6124d8565b9050815f03610fbb57610fbb612eb1565b610ff06001600160a01b037f000000000000000000000000000000000000000000000000000000000000000016333085612ebe565b610ffa3383612f0d565b5f6110036125b6565b80519091501561101557611015612f3a565b611050838261102760245f5236155190565b7f0000000000000000000000000000000000000000000000000000000000000000929190612f47565b6110598161298f565b506110638161251b565b5061106c612527565b50565b5f610a0161109e60017f1777adabd324f814e2b0e28f6edf876dce01d7d66358c9acfe87b1b5f38338d6615346565b5490565b7f00000000000000000000000000000000000000000000000000000000000000003381146110d7576302171e6a5f526004601cfd5b6110df6124b4565b5f6110e86124d8565b90505f6110f36125b6565b80519091501561110557611105612fbf565b6111307f00000000000000000000000000000000000000000000000000000000000000008583612fcc565b61113984613048565b6001600160801b031660208201526111508161298f565b6111598461305d565b506111638161251b565b5061116c612527565b5050565b336001600160a01b037f000000000000000000000000000000000000000000000000000000000000000016146111a8576111a8613088565b5f6111d761109e60017f1777adabd324f814e2b0e28f6edf876dce01d7d66358c9acfe87b1b5f38338d6615346565b905061120c61120760017f1777adabd324f814e2b0e28f6edf876dce01d7d66358c9acfe87b1b5f38338d6615346565b839055565b61116c8183613095565b5f80611223612530610d6d565b905061122e816130c5565b91505090565b60605f6040526101326041526020805260606020f35b6112526124b4565b5f61125b6124d8565b905082156112a2576112986001600160a01b037f000000000000000000000000000000000000000000000000000000000000000016333086612ebe565b6112a23384612f0d565b5f6112ab6125b6565b8051909150156112bd576112bd612f3a565b83156112d5576112d5848261102760445f5236155190565b5f816040015182606001516112ea9190615359565b6001600160801b03166112fb6109cd565b6113059190615346565b90505f6113248561131660056130ea565b6001600160801b031661310b565b90505f5b818161133381615380565b925010801561134157505f83115b15611361575f611351858561311a565b8085119403939093029250611328565b61136a8461298f565b505050506111638161251b565b5f611380612152565b61138b612530610d6d565b61018001516001600160701b0316905090565b5f6113a76124b4565b5f6113b06124d8565b90505f6113bb6125b6565b90505f6113d06113cb8387613222565b613244565b9050806001600160681b03165f036113ea576113ea613259565b5f6113f433613266565b9050611410838233858a61140b60245f5236155190565b6132b5565b945050505061141e8161251b565b50610ea3612527565b5f611430612152565b6001600160a01b0382165f90815260046020526040902054610c1d906001600160681b0316611460612530610d6d565b9061354a565b5f61146f6124b4565b5f6114786124d8565b90505f6114836125b6565b90505f61148f33613266565b80519091506001600160681b0381165f036114ac576114ac613259565b5f6114c0846001600160681b03841661354a565b90506114d7848433858561140b60045f5236155190565b9550505050506114e68161251b565b50610da1612527565b5f6114f8612152565b610a01611506612530610d6d565b61356c565b60606115156124b4565b5f61151e6124d8565b905084831461152f5761152f6135fb565b8467ffffffffffffffff81111561154857611548615398565b604051908082528060200260200182016040528015611571578160200160208202803683370190505b5091505f61157d6125b6565b90505f5b86811015611606576115e18289898481811061159f5761159f6153ac565b90506020020160208101906115b49190614f1b565b8888858181106115c6576115c66153ac565b90506020020160208101906115db91906152c9565b36612c57565b8482815181106115f3576115f36153ac565b6020908102919091010152600101611581565b506116108161298f565b5061161a8161251b565b50611623612527565b949350505050565b5f611634612152565b610a0161163f6109cd565b61164a612530610d6d565b90613608565b606061165a612152565b610a01600561361f565b60605f7f000000000000000000000000000000000000000000000000000000000000000090505f7f0000000000000000000000000000000000000000000000000000000000000000905060205f525f60205281603f5280605f5260805ff35b5f6116cc6124b4565b5f6116d56124d8565b9050610c423385856044612b1c565b6116ec6124b4565b5f6116f56124d8565b9050336001600160a01b037f0000000000000000000000000000000000000000000000000000000000000000161461172f5761172f6136f8565b6103e88261ffff16111561174557611745613705565b5f61174e6125b6565b80519091501561176057611760613712565b80610120015161ffff168361ffff160361177c5761177c61371f565b6117ab7f000000000000000000000000000000000000000000000000000000000000000061ffff85168361372c565b61ffff831661012082018190526040519081527f4b34705283cdb9398d0e50b216b8fb424c6d4def5db9bfadc661ee3adc6076ee9060200160405180910390a16110598161298f565b5f6117fd612152565b611808612530610d6d565b608001516001600160681b0316905090565b6118226124b4565b5f61182b6124d8565b90505f6118366125b6565b90505f610e196118446109cd565b610e0f8461356c565b5f806118576124d8565b905061186283613747565b915061186d8161251b565b50919050565b5f61187c6124d8565b90505f61188883613747565b9050808314611899576118996138bb565b5061116c8161251b565b7f00000000000000000000000000000000000000000000000000000000000000003381146118d8576302171e6a5f526004601cfd5b6118e06124b4565b5f6118e96124d8565b90505f6118f46125b6565b805190915015611906576119066138c8565b5f61190f6109cd565b90505f61191b83612544565b905080821015611950575f6119308383615346565b905061193e84826004612906565b61194881846153c0565b9250506119c7565b808211156119c7575f6119638284615346565b90506119b96001600160a01b037f0000000000000000000000000000000000000000000000000000000000000000167f0000000000000000000000000000000000000000000000000000000000000000836138d5565b6119c38184615346565b9250505b6119f17f000000000000000000000000000000000000000000000000000000000000000084613915565b5f610140840181905260018452612710610160850152610100840181905260408401516060850151611a239190615359565b611a36906001600160801b031684615346565b90508360c0015163ffffffff165f14611b425760c084015163ffffffff81165f90815260076020908152604091829020825160608101845281546001600160681b03808216808452600160681b909204169382018490526001909201546001600160801b0316938101939093521115611b3f575f611ab682888587613987565b9150611acd90506001600160801b03821685615346565b63ffffffff84165f9081526007602090815260409182902085518154928701516001600160681b03908116600160681b026001600160d01b031990941691161791909117815590840151600190910180546001600160801b039092166001600160801b03199092169190911790559350505b50505b5f611b4d60056130ea565b6001600160801b031690505f5b81811015611b84575f611b6d878561311a565b9050611b798185615346565b935050600101611b5a565b5060a08501516001600160681b031615611ba057611ba0613b04565b611ba98561298f565b611bb242613b11565b50505050506110638161251b565b7f0000000000000000000000000000000000000000000000000000000000000000338114611bf5576302171e6a5f526004601cfd5b611bfd6124b4565b5f611c066124d8565b9050611c317f0000000000000000000000000000000000000000000000000000000000000000613b3c565b15611c3e57611c3e613b85565b5f611c476125b6565b805190915015611c5957611c59613b92565b5f611c6c611c656109cd565b8390613608565b905080851115611c7e57611c7e613b9f565b611ca97f00000000000000000000000000000000000000000000000000000000000000008684613bac565b611cdd6001600160a01b037f00000000000000000000000000000000000000000000000000000000000000001633876138d5565b611ce68261298f565b611cef85613bc7565b50506111638161251b565b611d026124b4565b5f611d0b6124d8565b90505f611d166125b6565b905080604001516001600160801b03165f03611d3457611d34613bf2565b5f611d47611d406109cd565b8390612ae8565b9050806001600160801b03165f03611d6157611d61613bff565b8082604001818151611d7391906153d3565b6001600160801b03908116909152611dda91506001600160a01b037f000000000000000000000000000000000000000000000000000000000000000016907f00000000000000000000000000000000000000000000000000000000000000009084166138d5565b611de38261298f565b610e30816001600160801b0316613c0c565b604080516060810182525f8082526020820181905291810191909152611e19612152565b5f80611e23612177565b9093509150611e45905063ffffffff85811681851681149190151590613c3716565b15611e53579150610ea39050565b505063ffffffff82165f9081526007602090815260409182902080546001600160681b038082168652600160681b9091041691840191909152600101546001600160801b031690820152919050565b611eaa6124b4565b5f611eb36124d8565b9050611ebe82613c3b565b611eca57611eca613cc1565b5f611ed36125b6565b9050611f007f00000000000000000000000000000000000000000000000000000000000000008483613cce565b6110508184613ce9565b7f0000000000000000000000000000000000000000000000000000000000000000338114611f3f576302171e6a5f526004601cfd5b611f476124b4565b5f611f506124d8565b90505f611f5b6125b6565b805190915015611f6d57611f6d613d5d565b61016081015161ffff16611fa37f0000000000000000000000000000000000000000000000000000000000000000878785613d6a565b909650945061271061ffff87161115611fbe57611fbe613e12565b6127108561ffff161115611fd457611fd4613e1f565b808561ffff161015611fff57611fe86109cd565b611ff18361356c565b1115611fff57611fff613e2c565b61ffff808616610160840181905290871661014084015281101561203c576120256109cd565b61202e8361356c565b111561203c5761203c613e39565b6120458261298f565b6120528661ffff16613e46565b61205f8561ffff16613e71565b505061206a8161251b565b506109c8612527565b5f604051905061026081016040526304032dbb5f52610260816004601c335afa6102603d1416610da1575f80fd5b6311530cde5f526004601cfd5b5f6370a082315f5230602052602060346024601c865afa601f3d11166120db576390b8ec185f526004601cfd5b81601452603451905063a9059cbb60601b5f5260205f604460105f875af13d1560015f51141716612113576390b8ec185f526004601cfd5b5f60345292915050565b5f6370a082315f528160205260205f6024601c865afa601f3d111661214957634963f6d55f526004601cfd5b50505f51919050565b63929eee145c15610e4457637fa8a9875f526004601cfd5b632561b8805f526004601cfd5b61217f614e92565b604080516060810182525f80825260208201819052918101829052604080516101c0810182525f5460ff808216151583526001600160801b03610100928390048116602085015260015480821695850195909552600160801b90940490931660608301526002546001600160681b038082166080850152600160681b82041660a084015263ffffffff600160d01b8204811660c08501819052600160f01b909204909416151560e08401526003548085169284019290925261ffff64010000000083048116610120850152600160301b83048116610140850152600160401b8304166101608401526001600160701b03600160501b830416610180840152600160c01b9091049092166101a08201529350801515429091101615612395578260c001519150826101a0015163ffffffff168263ffffffff161461231557612311837f00000000000000000000000000000000000000000000000000000000000000007f000000000000000000000000000000000000000000000000000000000000000063ffffffff80871690613e9c16565b5050505b5063ffffffff81165f908152600760209081526040808320815160608101835281546001600160681b038082168352600160681b9091041693810193909352600101546001600160801b0316908201529061237a846123726109cd565b849190613f40565b9050801561238d5761238d828583613fbd565b505f60c08401525b42836101a0015163ffffffff16146123f7576123f3837f00000000000000000000000000000000000000000000000000000000000000007f000000000000000000000000000000000000000000000000000000000000000042613e9c565b5050505b60c083015163ffffffff161561248b57505060c081015163ffffffff81165f90815260076020908152604091829020825160608101845281546001600160681b03808216808452600160681b909204169382018490526001909201546001600160801b031693810193909352111561248b575f612476846123726109cd565b9050801561248957612489828583613fbd565b505b909192565b5f825f1904841183021582026124ad5763ad251c275f526004601cfd5b5091020490565b63929eee145c80156124cd57637fa8a9875f526004601cfd5b50600163929eee145d565b5f610a01813560e01c6140e8610d6d565b6001600160a01b038084165f9081526009602090815260408083209386168352929052208190556109c88383836141ea565b61106c81614219610d6d565b5f63929eee145d565b5f61253c612177610d6d565b509092915050565b5f81604001516001600160801b031682606001516001600160801b031661258184608001516001600160681b03168561354a90919063ffffffff16565b61258b91906153c0565b610c1d91906153c0565b5f610c1d82608001516001600160681b03168361354a90919063ffffffff16565b6125be614e92565b50604080516101c0810182525f5460ff808216151583526001600160801b03610100928390048116602085015260015480821695850195909552600160801b90940490931660608301526002546001600160681b038082166080850152600160681b82041660a084015263ffffffff600160d01b8204811660c08501819052600160f01b909204909416151560e08401526003548085169284019290925261ffff64010000000083048116610120850152600160301b83048116610140850152600160401b8304166101608401526001600160701b03600160501b830416610180840152600160c01b9091049092166101a0820152908015154290911016156127645760c08101516101a082015163ffffffff9182169181168214612758575f808061272c867f00000000000000000000000000000000000000000000000000000000000000007f000000000000000000000000000000000000000000000000000000000000000088613e9c565b9250925092506127548463ffffffff16868861018001516001600160701b03168686866142a1565b5050505b612761836142f3565b50505b6101a08101514263ffffffff8216146127f2575f80806127c6857f00000000000000000000000000000000000000000000000000000000000000007f000000000000000000000000000000000000000000000000000000000000000042613e9c565b9250925092506127ee8463ffffffff16428761018001516001600160701b03168686866142a1565b5050505b60c082015163ffffffff16156128f95760c082015163ffffffff81165f90815260076020908152604091829020825160608101845281546001600160681b03808216808452600160681b909204169382018490526001909201546001600160801b03169381019390935211156128f6575f61286f856123726109cd565b905080156128f45761288382868584613987565b505063ffffffff83165f9081526007602090815260409182902084518154928601516001600160681b03908116600160681b026001600160d01b031990941691161791909117815590830151600190910180546001600160801b039092166001600160801b03199092169190911790555b505b50505b5090565b80821191030290565b815f0361291557612915612eb1565b82511561292457612924612f3a565b6129596001600160a01b037f000000000000000000000000000000000000000000000000000000000000000016333085612ebe565b6129633383612f0d565b6109c87f0000000000000000000000000000000000000000000000000000000000000000838584612f47565b5f6129986109cd565b6129a18361356c565b1160e08301819052825160208085015160081b70ffffffffffffffffffffffffffffffff00169091175f5560408085015160608601516001600160801b03909116608091821b6001600160801b0319161760015585015160a086015160c0808801516001600160681b0390931660689290921b6cffffffffffffffffffffffffff60681b1660d09390931b63ffffffff60d01b1660f087901b1792909217176002556101008601516101208701516101408801516101608901516101808a01516101a08b015163ffffffff9095169390971b65ffff000000001660309290921b67ffff0000000000001691909117941b69ffff000000000000000016605086901b6dffffffffffffffffffffffffffff60501b169290931b63ffffffff60c01b169190911791909117919091171760035590915061116c906001600160701b031682614469565b5f8083606001516001600160801b031683612b039190615346565b90506116238185604001516001600160801b031661310b565b5f612b256125b6565b90505f612b356113cb8386613222565b9050806001600160681b03165f03612b4f57612b4f614499565b612b867f000000000000000000000000000000000000000000000000000000000000000087876001600160681b03851686886144a6565b5f612b9087613266565b905081815f01818151612ba391906153f3565b6001600160681b039081169091526001600160a01b0389165f908152600460205260408120845181546001600160681b0319169316929092179091559050612bea87613266565b905082815f01818151612bfd9190615413565b6001600160681b039081169091526001600160a01b0389165f908152600460205260409020835181546001600160681b031916921691909117905550612c428461298f565b612c4d888888614534565b5050505050505050565b63ffffffff82165f818152600760209081526040808320815160608101835281546001600160681b038082168352600160681b9091041693810193909352600101546001600160801b03169082015290914211801590612cb657508551155b15612cc357612cc361216a565b63ffffffff84165f9081526008602090815260408083206001600160a01b03891684529091528082209083015181548451929392612d17926001600160801b0316916001600160681b039081169116612490565b82549091505f90612d3890600160681b90046001600160801b0316836153d3565b9050806001600160801b03165f03612d5257612d52614563565b612d887f0000000000000000000000000000000000000000000000000000000000000000896001600160801b0384168c8a614570565b82546fffffffffffffffffffffffffffffffff60681b1916600160681b6001600160801b03841602178355606089018051829190612dc79083906153d3565b6001600160801b0316905250612ddc88613c3b565b15612e45575f612deb896145fa565b9050612e2a6001600160a01b037f000000000000000000000000000000000000000000000000000000000000000016826001600160801b0385166138d5565b612e3f89828a856001600160801b03166146ae565b50612e82565b612e826001600160a01b037f000000000000000000000000000000000000000000000000000000000000000016896001600160801b0384166138d5565b612e9c8763ffffffff1689836001600160801b03166146eb565b6001600160801b031698975050505050505050565b637e0820885f526004601cfd5b60405181606052826040528360601b602c526323b872dd60601b600c5260205f6064601c5f895af13d1560015f51141716612f0057637939f4245f526004601cfd5b5f60605260405250505050565b805f52817fe8b606ac1e5df7657db58d297ca8f41c090fc94c5fd2d6958f043e41736e9fa660205fa25050565b6361d1bc8f5f526004601cfd5b5f612f528560601c90565b90506383d9e1eb612f628661471a565b15612fb757823603604051602081018382528781526101c087602083015e6102006101e082015282610200820152828661022083013750816102240191505f8083601c84015f885af1612c4d573d5f803e3d5ffd5b505050505050565b6381b210785f526004601cfd5b5f612fd78460601c90565b905063849da129612fe785614728565b156130415760243603604051602081018382528681526101c086602083015e6102006101e08201528261020082015282602461022083013750816102240191505f8083601c84015f885af161303e573d5f803e3d5ffd5b50505b5050505050565b80610ea36001600160801b0382168214614736565b805f527ff2672935fc79f5237559e2e2999dbe743bf65430894ac2b37666890e7c69e1af60205fa150565b634ee0b8f85f526004601cfd5b815f52806020527ff33499cccaa0611882086224cc48cd82ef54b66a4d2edf4ed67108dd516896d560405fa15050565b5f610c1d6130d283612595565b60208401516001600160801b03169080821191030290565b80545f90610c1d906001600160801b0380821691600160801b9004166153d3565b5f818303828410028201610f43565b5f80613126600561474d565b63ffffffff81165f90815260076020908152604091829020825160608101845281546001600160681b038082168352600160681b9091041692810192909252600101546001600160801b03169181019190915290915061318881868487613987565b63ffffffff84165f9081526007602090815260409182902085518154928701516001600160681b039182166001600160d01b03199094168417600160681b9290911691820217825592860151600190910180546001600160801b0319166001600160801b039283161790559290921695509003905061321a5761320b60056147a8565b61321a8263ffffffff1661482d565b505092915050565b5f610f438361018001516001600160701b03168361485590919063ffffffff16565b80610ea36001600160681b0382168214614736565b63d61c50f85f526004601cfd5b60408051602080820183525f918290526001600160a01b03841682526004815290829020825191820190925290546001600160681b031681526132a882613c3b565b15610ea357610ea36148a0565b60c086015163ffffffff81165f0361331e57865115157f00000000000000000000000000000000000000000000000000000000000000005f81900391909102016132ff81426153c0565b91506133108263ffffffff166148ad565b5063ffffffff811660c08801525b6133557f000000000000000000000000000000000000000000000000000000000000000086836001600160681b0388168b876148d5565b83865f0181815161336691906153f3565b6001600160681b039081169091526001600160a01b0387165f908152600460205260409020885181546001600160681b0319169216919091179055506133ad853085614534565b63ffffffff81165f818152600760209081526040808320815160608101835281546001600160681b038082168352600160681b9091048116828601526001909201546001600160801b031681840152948452600883528184206001600160a01b038b168552909252822080548893919261342991859116615413565b92506101000a8154816001600160681b0302191690836001600160681b0316021790555084815f0181815161345e9190615413565b6001600160681b031690525060a08801805186919061347e908390615413565b6001600160681b039081169091526134a3915063ffffffff8416908890881687614951565b5f6134b0896123726109cd565b905080156134c7576134c4828a8584613987565b50505b63ffffffff83165f9081526007602090815260409182902084518154928601516001600160681b03908116600160681b026001600160d01b031990941691161791909117815590830151600190910180546001600160801b039092166001600160801b031990921691909117905561353e8961298f565b50509695505050505050565b5f610f438361018001516001600160701b03168361498590919063ffffffff16565b5f808260a001516001600160681b031690505f816135ac85610160015161ffff168487608001516001600160681b03166135a69190615346565b906149d5565b6135b691906153c0565b905083606001516001600160801b031684604001516001600160801b03166135e7838761354a90919063ffffffff16565b6135f191906153c0565b61162391906153c0565b639d89020a5f526004601cfd5b5f610f436136158461356c565b8084039084110290565b80546060906001600160801b0380821691600160801b9004165f6136438383615346565b90508067ffffffffffffffff81111561365e5761365e615398565b604051908082528060200260200182016040528015613687578160200160208202803683370190505b5093505f5b818110156136ef57600186015f6136a383876153c0565b81526020019081526020015f205f9054906101000a900463ffffffff168582815181106136d2576136d26153ac565b63ffffffff9092166020928302919091019091015260010161368c565b50505050919050565b6332cc72365f526004601cfd5b63499fddb15f526004601cfd5b6337f1a75f5f526004601cfd5b63e0cf78fc5f526004601cfd5b5f6137378460601c90565b90506303473d8d612fe785614a07565b5f6137506124b4565b5f6137596125b6565b80519091501561376b5761376b614a15565b61377d83613778836130c5565b61310b565b92505f61378d6113cb8386613222565b9050806001600160681b03165f036137a7576137a7614a22565b5f6137b133613266565b90506137e87f0000000000000000000000000000000000000000000000000000000000000000336001600160681b03851686614a2f565b61381d6001600160a01b037f000000000000000000000000000000000000000000000000000000000000000016333088612ebe565b81815f0181815161382e9190615413565b6001600160681b03908116909152335f908152600460205260408120845181546001600160681b031916931692909217909155805250361551613872903387614534565b6138863386846001600160681b0316614aa7565b81836080018181516138989190615413565b6001600160681b03169052506138ad8361298f565b849350505050610ea3612527565b638a164f635f526004601cfd5b63449e5f505f526004601cfd5b816014528060345263a9059cbb60601b5f5260205f604460105f875af13d1560015f5114171661390c576390b8ec185f526004601cfd5b5f603452505050565b5f6139208360601c90565b9050639ecc64e661393084614ad9565b156139815760043603604051602081018382526101c086825e6101e06101c0820152826101e082015282600461020083013750816102040191505f8083601c84015f885af1612fb7573d5f803e3d5ffd5b50505050565b5f805f8660200151875f015161399d91906153f3565b9050806001600160681b03165f036139bb575f809250925050613afb565b5f6139c68786613222565b90506139de6113cb82846001600160681b031661310b565b9350613a16613a11856001600160681b03168961018001516001600160701b03166b033b2e3c9fd0803ce8000000612490565b613048565b92508388602001818151613a2a9190615413565b6001600160681b0316905250604088018051849190613a4a908390615359565b6001600160801b031690525060a087018051859190613a6a9083906153f3565b6001600160681b0316905250606087018051849190613a8a908390615359565b6001600160801b0316905250608087018051859190613aaa9083906153f3565b6001600160681b0316905250613ad530613ac65f805236155190565b856001600160801b0316614534565b613af88663ffffffff16856001600160681b0316856001600160801b0316614ae7565b50505b94509492505050565b634d7909975f526004601cfd5b805f527f9dc30b8eda31a6a144e092e5de600955523a6a925cc15cc1d1b9b4872cfa615560205fa150565b6395c098395f90815260208281527f000000000000000000000000000000000000000000000000000000000000000090826024601c845afa60203d1416612149573d5f803e3d5ffd5b634a1c13a95f526004601cfd5b63d0242b285f526004601cfd5b63119fe6e35f526004601cfd5b5f613bb78460601c90565b905063b1cfda0d612fe785614b19565b805f527fb848ae6b1253b6cb77e81464128ce8bd94d3d524fea54e801e0da869784dca3360205fa150565b6345c835cb5f526004601cfd5b63f784cfa45f526004601cfd5b805f527f860c0aa5520013080c2f65981705fcdea474d9f7c3daf954656ed5e65d692d1f60205fa150565b1690565b5f807f000000000000000000000000000000000000000000000000000000000000000090505f7f000000000000000000000000000000000000000000000000000000000000000090506040516306e744445f52826020528460405260205f6044601c855afa60203d1416613cb1573d5f803e3d5ffd5b5f51935080604052505050919050565b63a97ab1675f526004601cfd5b5f613cd98460601c90565b9050638b3ce9b3612fe785614b27565b6001600160a01b0381165f90815260046020908152604091829020825191820190925290546001600160681b0316808252156109c85780515f613d35856001600160681b03841661354a565b90505f613d468685878686366132b5565b9050612fb78582856001600160681b031685614b35565b63b9de88a25f526004601cfd5b5f805f613d778760601c90565b905063cc452642613d8788614b72565b15613e045760443603604051602081018382528981528860208201526101c088604083015e61022061020082015282610220820152826044610240830137508161024401915060405f83601c84015f885af11560403d101715613dec573d5f803e3d5ffd5b505061ffff5f5116935061ffff602051169250613af8565b509496939550929350505050565b63cf1f916f5f526004601cfd5b638ec830735f526004601cfd5b630a68e5bf5f526004601cfd5b63253ecbb95f526004601cfd5b805f527fff7b6c8be373823323d3c5d99f5d027dd409dce5db54eae511bbdd5546b7503760205fa150565b805f527f72877a153052500f5edbb2f9da96a0f45d671d4b4555fdf8628a709dc4eab43a60205fa150565b5f8080613ea98785614b80565b61012088015190935061ffff1615613ec857613ec58784614baa565b90505b8515613edd57613eda87858888614c38565b91505b6101808701516001600160701b03165f613f01613efa85876153c0565b8390614985565b9050613f15613f1082846153c0565b614c79565b6001600160701b03166101808a0152505063ffffffff9093166101a090960195909552949092509050565b5f80613f4b85614c8e565b8460a00151613f5a91906153f3565b6001600160681b031690505f84604001516001600160801b0316613f87838761354a90919063ffffffff16565b86606001516001600160801b0316613f9f91906153c0565b613fa991906153c0565b9050808403818511025b9695505050505050565b602083015183515f91613fcf916153f3565b9050806001600160681b03165f03613fe75750505050565b5f613ff28484613222565b90505f61400b6113cb83856001600160681b031661310b565b90505f61403f613a11836001600160681b03168861018001516001600160701b03166b033b2e3c9fd0803ce8000000612490565b905081876020018181516140539190615413565b6001600160681b0316905250604087018051829190614073908390615359565b6001600160801b031690525060a0860180518391906140939083906153f3565b6001600160681b03169052506060860180518291906140b3908390615359565b6001600160801b03169052506080860180518391906140d39083906153f3565b6001600160681b031690525050505050505050565b61411a604051806080016040528060608152602001606081526020015f81526020015f6001600160a01b031681525090565b8061412361106f565b6001600160a01b0316606082018190521561186d576060820151604051638925ca5a8152846020820152336040820152606080820152366080820152365f60a08301373660c40160405f82601c85015f875af160205f511416614188573d5f803e3d5ffd5b5060205191508160051b91506003820260e0018101604052602082016020823e8084526020820181019050845f038152608060408201526080810160208501528160a001606082015250505a604083015261186d825f01518360200151614ca0565b805f5281837f8c5be1e5ebec7d5bd14f71427d1e84f3dd0314c0f7b2291e5b200ac8c7c3b92560205fa3505050565b606081015181906001600160a01b0316614231575050565b8151805190600682901b810160c00161424a8282614ca0565b6060850151600584901b830160200160c4600686901b015a60408901510380602084015250602082039150815163f0bd946883525f8083601c86015f885af1614295573d5f803e3d5ffd5b90915250505050505050565b6040518681528560208201528460408201528360608201528260808201528160a08201527f18247a393d0531b65fbd94f5e78bc5639801a4efda62ae7b43533c4442116c3a60c082a150505050505050565b60c081015163ffffffff81165f90815260076020908152604091829020825160608101845281546001600160681b03808216808452600160681b909204169382018490526001909201546001600160801b0316938101939093521115614379575f614360846123726109cd565b905080156143775761437482858584613987565b50505b505b6143b18263ffffffff16825f01516001600160681b031683602001516001600160681b031684604001516001600160801b0316614ccf565b805f01516001600160681b031681602001516001600160681b031610156143e2576143dd600583614d0c565b6143f1565b6143f18263ffffffff1661482d565b5f60c090930183905263ffffffff9190911682526007602090815260409283902082518154928401516001600160681b03908116600160681b026001600160d01b0319909416911617919091178155910151600190910180546001600160801b039092166001600160801b0319909216919091179055565b815f52806020527f9385f9ff65bcd2fb81cece54b27d4ec7376795fc4dcff686e370e347b0ed86c060405fa15050565b63ddee9b305f526004601cfd5b5f6144b18760601c90565b905063a018f90e6144c188614d6a565b15612c4d57823603604051602081018382523381528960208201528860408201528760608201526101c087608083015e61026061024082015282610260820152828661028083013750816102840191505f8083601c84015f885af1614528573d5f803e3d5ffd5b50505050505050505050565b805f5281837fddf252ad1be2c89b69c2b068fc378daa952ba7f163c4a11628f55a4df523b3ef60205fa3505050565b63186334fe5f526004601cfd5b5f61457b8660601c90565b9050632970403d614594875f610c1d82605d1c60011690565b1561303e57823603604051602081018382528881528760208201526101c087604083015e61022061020082015282610220820152828661024083013750816102440191505f8083601c84015f885af16145ef573d5f803e3d5ffd5b505050505050505050565b5f807f000000000000000000000000000000000000000000000000000000000000000090505f7f000000000000000000000000000000000000000000000000000000000000000090505f7f0000000000000000000000000000000000000000000000000000000000000000905060405163a1054f6b5f5282602052856040528360605260205f6064601c5f865af160203d1416614699573d5f803e3d5ffd5b5f51945080604052505f606052505050919050565b604051835f528260205281604052847f0d0843a0fcb8b83f625aafb6e42f234ac48c6728b207d52d97cfa8fbd34d498f60605fa260405250505050565b805f5281837fd6cddb3d69146e96ebc2c87b1b3dd0b20ee2d3b0eadf134e011afb434a3e56e660205fa3505050565b5f610c1d82605a1c60011690565b5f610c1d8260571c60011690565b8061106c57634e487b715f5260116020526024601cfd5b80545f906001600160801b03600160801b8204811691160361478257604051638727480160e01b815260040160405180910390fd5b5080546001600160801b03165f9081526001909101602052604090205463ffffffff1690565b80546001600160801b0380821691600160801b90041681036147dd57604051638727480160e01b815260040160405180910390fd5b6001600160801b0381165f90815260018084016020526040909120805463ffffffff1916905561480e908290615359565b82546001600160801b0319166001600160801b03919091161790915550565b807fcbdf25bf6e096dd9030d89bb2ba2e3e7adb82d25a233c3ca3d92e9f098b74e555f80a250565b5f81156b033b2e3c9fd0803ce80000006002840419048411171561488557634e487b715f5260116020526024601cfd5b506b033b2e3c9fd0803ce80000009190910260028204010490565b636bc671fd5f526004601cfd5b807f5c9a946d3041134198ebefcd814de7748def6576efd3d1b48f48193e183e89ef5f80a250565b5f6148e08760601c90565b9050633521cccc6148f088614d78565b15612c4d57823603604051602081018382528981528860208201528760408201526101c087606083015e61024061022082015282610240820152828661026083013750816102640191505f8083601c84015f885af1614528573d5f803e3d5ffd5b815f528060205282847fecc966b282a372469fa4d3e497c2ac17983c3eaed03f3f17c9acf4b15591663e60405fa350505050565b5f81156b019d971e4fe8401e7400000019839004841115176149b357634e487b715f5260116020526024601cfd5b506b033b2e3c9fd0803ce800000091026b019d971e4fe8401e74000000010490565b5f811561138819839004841115176149f957634e487b715f5260116020526024601cfd5b506127109102611388010490565b5f610c1d8260551c60011690565b6322d7c0435f526004601cfd5b63e4aa50555f526004601cfd5b5f614a3a8560601c90565b9050635aeb713f614a4a86614d86565b15612fb75760243603604051602081018382528781528660208201526101c086604083015e6102206102008201528261022082015282602461024083013750816102440191505f8083601c84015f885af1612c4d573d5f803e3d5ffd5b815f5280602052827f90890809c654f11d6e72a28fa60149770a0d11ec6c92319d6ceb2bb0a4ea1a1560405fa2505050565b5f610c1d8260591c60011690565b815f5280602052827f5272034725119f19d7236de4129fdb5093f0dcb80282ca5edbd587df91d2bd8960405fa2505050565b5f610c1d82605b1c60011690565b5f610c1d8260581c60011690565b604051835f528260205281604052847fe12b220b92469ae28fb0d79de531f94161431be9f073b96b8aad3effb88be6fa60605fa260405250505050565b5f610c1d8260561c60011690565b5f610f4383610140015161ffff16846101a0015163ffffffff1684614ba59190615346565b614d94565b5f80614bc88385610120015161ffff166149d590919063ffffffff16565b9050614c02614bee828661018001516001600160701b031661498590919063ffffffff16565b60808601516001600160681b031690614985565b9150614c208285604001516001600160801b0316613a1191906153c0565b6001600160801b031660409094019390935292915050565b5f80614c5b8684886101a0015163ffffffff1688614c569190615346565b614dbc565b90508015614c7057614c6d8482614d94565b91505b50949350505050565b80610ea36001600160701b0382168214614736565b602081015181515f91610c1d916153f3565b815180825260208301602083018260051b810192505b8281101561304157815154815260209182019101614cb6565b604051835f528260205281604052847f9262dc39b47cad3a0512e4c08dda248cb345e7163058f300bc63f56bda288b6e60605fa260405250505050565b8154600160801b90046001600160801b03165f81815260018085016020526040909120805463ffffffff191663ffffffff8516179055614d4d908290615359565b83546001600160801b03918216600160801b029116179092555050565b5f610c1d82605c1c60011690565b5f610c1d82605e1c60011690565b5f610c1d82605f1c60011690565b5f80614d9f84614e4f565b90505f614dac8483615433565b6301e13380900495945050505050565b61010083015160e08401515f9163ffffffff169015614e1657614de7614de284836153c0565b614e78565b63ffffffff9081166101008701525f90614e0590869084906128fd16565b808511908503029250610f43915050565b614e2583820384831102614e78565b63ffffffff9081166101008701525f90614e4390839087906128fd16565b9050613fb3818561310b565b69152d02c7e14af68000008181029081048214610ea357634e487b715f5260116020526024601cfd5b80610ea363ffffffff82168214614736565b610e4461544a565b604080516101c0810182525f80825260208201819052918101829052606081018290526080810182905260a0810182905260c0810182905260e08101829052610100810182905261012081018290526101408101829052610160810182905261018081018290526101a081019190915290565b80356001600160a01b0381168114610ea3575f80fd5b5f60208284031215614f2b575f80fd5b610f4382614f05565b803563ffffffff81168114610ea3575f80fd5b5f8060408385031215614f58575f80fd5b614f6183614f05565b9150614f6f60208401614f34565b90509250929050565b602081525f82518060208401528060208501604085015e5f604082850101526040601f19601f83011684010191505092915050565b5f8060408385031215614fbe575f80fd5b614fc783614f05565b946020939093013593505050565b8151151581526101c081016020830151614ffa60208401826001600160801b03169052565b50604083015161501560408401826001600160801b03169052565b50606083015161503060608401826001600160801b03169052565b50608083015161504b60808401826001600160681b03169052565b5060a083015161506660a08401826001600160681b03169052565b5060c083015161507e60c084018263ffffffff169052565b5060e083015161509260e084018215159052565b506101008381015163ffffffff908116918401919091526101208085015161ffff90811691850191909152610140808601518216908501526101608086015190911690840152610180808501516001600160701b0316908401526101a080850151918216818501529061321a565b5f805f60608486031215615112575f80fd5b61511b84614f05565b925061512960208501614f05565b9150604084013590509250925092565b5f60208284031215615149575f80fd5b5035919050565b5f8060408385031215615161575f80fd5b50508035926020909101359150565b5f8083601f840112615180575f80fd5b50813567ffffffffffffffff811115615197575f80fd5b6020830191508360208260051b85010111156151b1575f80fd5b9250929050565b5f805f80604085870312156151cb575f80fd5b843567ffffffffffffffff808211156151e2575f80fd5b6151ee88838901615170565b90965094506020870135915080821115615206575f80fd5b5061521387828801615170565b95989497509550505050565b602080825282518282018190525f9190848201906040850190845b818110156152565783518352928401929184019160010161523a565b50909695505050505050565b602080825282518282018190525f9190848201906040850190845b8181101561525657835163ffffffff168352928401929184019160010161527d565b803561ffff81168114610ea3575f80fd5b5f602082840312156152c0575f80fd5b610f438261529f565b5f602082840312156152d9575f80fd5b610f4382614f34565b5f80604083850312156152f3575f80fd5b6152fc83614f05565b9150614f6f60208401614f05565b5f806040838503121561531b575f80fd5b6153248361529f565b9150614f6f6020840161529f565b634e487b7160e01b5f52601160045260245ffd5b81810381811115610c1d57610c1d615332565b6001600160801b0381811683821601908082111561537957615379615332565b5092915050565b5f6001820161539157615391615332565b5060010190565b634e487b7160e01b5f52604160045260245ffd5b634e487b7160e01b5f52603260045260245ffd5b80820180821115610c1d57610c1d615332565b6001600160801b0382811682821603908082111561537957615379615332565b6001600160681b0382811682821603908082111561537957615379615332565b6001600160681b0381811683821601908082111561537957615379615332565b8082028115828204841417610c1d57610c1d615332565b634e487b7160e01b5f52605160045260245ffdfea164736f6c6343000819000a","linkReferences":{}},"methodIdentifiers":{"accruedProtocolFees()":"0cd1a5b6","allowance(address,address)":"dd62ed3e","annualInterestBips()":"11057cd0","approve(address,uint256)":"095ea7b3","archController()":"54635570","asset()":"38d52e0f","balanceOf(address)":"70a08231","borrow(uint256)":"c5ebeaec","borrowableAssets()":"76636017","borrower()":"7df1f1b9","changeSphereXEngine(address)":"4c6c848f","closeMarket()":"c511ed5e","collectFees()":"c8796572","coverageLiquidity()":"739ccdd3","currentState()":"0c3f6acf","decimals()":"313ce567","delinquencyFeeBips()":"4be687c6","delinquencyGracePeriod()":"514a4cd6","deposit(uint256)":"b6b55f25","depositUpTo(uint256)":"b68ce7a2","executeWithdrawal(address,uint32)":"34bca29c","executeWithdrawals(address[],uint32[])":"74058859","factory()":"c45a0155","feeRecipient()":"46904840","getAccountWithdrawalStatus(address,uint32)":"02372c4f","getAvailableWithdrawalAmount(address,uint32)":"088fee5e","getUnpaidBatchExpiries()":"878eb921","getWithdrawalBatch(uint32)":"dbcd50b4","hooks()":"cd7033c4","isClosed()":"c2b6b58c","maxTotalSupply()":"2ab4d052","maximumDeposit()":"54b302c5","name()":"06fdde03","nukeFromOrbit(address)":"dcd549d4","previousState()":"0c1e3fea","queueFullWithdrawal()":"7243d96c","queueWithdrawal(uint256)":"6b174f35","repay(uint256)":"371fd8e6","repayAndProcessUnpaidWithdrawalBatches(uint256,uint256)":"6731ba6d","repayDelinquentDebt()":"b67afb33","repayOutstandingDebt()":"19521311","rescueTokens(address)":"00ae3bf8","reserveRatioBips()":"d98e0fe8","scaleFactor()":"683dd191","scaledBalanceOf(address)":"1da24f3e","scaledTotalSupply()":"b1bf962d","sentinel()":"f58c251c","setAnnualInterestAndReserveRatioBips(uint16,uint16)":"e5adc635","setMaxTotalSupply(uint256)":"3f3e4c11","setProtocolFeeBips(uint16)":"ae6ea191","sphereXEngine()":"3c231166","sphereXOperator()":"e7e5db4f","symbol()":"95d89b41","totalAssets()":"01e1d114","totalDebts()":"14a1c32d","totalSupply()":"18160ddd","transfer(address,uint256)":"a9059cbb","transferFrom(address,address,uint256)":"23b872dd","updateState()":"1d8557d7","version()":"54fd4d50","withdrawableProtocolFees()":"1e3cef53","withdrawalBatchDuration()":"9e6f9802"},"id":57}