{"abi":[{"type":"function","name":"accruedProtocolFees","inputs":[],"outputs":[{"name":"","type":"uint256","internalType":"uint256"}],"stateMutability":"view"},{"type":"function","name":"archController","inputs":[],"outputs":[{"name":"","type":"address","internalType":"address"}],"stateMutability":"view"},{"type":"function","name":"asset","inputs":[],"outputs":[{"name":"","type":"address","internalType":"address"}],"stateMutability":"view"},{"type":"function","name":"borrowableAssets","inputs":[],"outputs":[{"name":"","type":"uint256","internalType":"uint256"}],"stateMutability":"view"},{"type":"function","name":"borrower","inputs":[],"outputs":[{"name":"","type":"address","internalType":"address"}],"stateMutability":"view"},{"type":"function","name":"changeSphereXEngine","inputs":[{"name":"newSphereXEngine","type":"address","internalType":"address"}],"outputs":[],"stateMutability":"nonpayable"},{"type":"function","name":"coverageLiquidity","inputs":[],"outputs":[{"name":"","type":"uint256","internalType":"uint256"}],"stateMutability":"view"},{"type":"function","name":"currentState","inputs":[],"outputs":[{"name":"state","type":"tuple","internalType":"struct MarketState","components":[{"name":"isClosed","type":"bool","internalType":"bool"},{"name":"maxTotalSupply","type":"uint128","internalType":"uint128"},{"name":"accruedProtocolFees","type":"uint128","internalType":"uint128"},{"name":"normalizedUnclaimedWithdrawals","type":"uint128","internalType":"uint128"},{"name":"scaledTotalSupply","type":"uint104","internalType":"uint104"},{"name":"scaledPendingWithdrawals","type":"uint104","internalType":"uint104"},{"name":"pendingWithdrawalExpiry","type":"uint32","internalType":"uint32"},{"name":"isDelinquent","type":"bool","internalType":"bool"},{"name":"timeDelinquent","type":"uint32","internalType":"uint32"},{"name":"protocolFeeBips","type":"uint16","internalType":"uint16"},{"name":"annualInterestBips","type":"uint16","internalType":"uint16"},{"name":"reserveRatioBips","type":"uint16","internalType":"uint16"},{"name":"scaleFactor","type":"uint112","internalType":"uint112"},{"name":"lastInterestAccruedTimestamp","type":"uint32","internalType":"uint32"}]}],"stateMutability":"view"},{"type":"function","name":"decimals","inputs":[],"outputs":[{"name":"","type":"uint8","internalType":"uint8"}],"stateMutability":"view"},{"type":"function","name":"delinquencyFeeBips","inputs":[],"outputs":[{"name":"","type":"uint256","internalType":"uint256"}],"stateMutability":"view"},{"type":"function","name":"delinquencyGracePeriod","inputs":[],"outputs":[{"name":"","type":"uint256","internalType":"uint256"}],"stateMutability":"view"},{"type":"function","name":"executeWithdrawal","inputs":[{"name":"accountAddress","type":"address","internalType":"address"},{"name":"expiry","type":"uint32","internalType":"uint32"}],"outputs":[{"name":"","type":"uint256","internalType":"uint256"}],"stateMutability":"nonpayable"},{"type":"function","name":"executeWithdrawals","inputs":[{"name":"accountAddresses","type":"address[]","internalType":"address[]"},{"name":"expiries","type":"uint32[]","internalType":"uint32[]"}],"outputs":[{"name":"amounts","type":"uint256[]","internalType":"uint256[]"}],"stateMutability":"nonpayable"},{"type":"function","name":"factory","inputs":[],"outputs":[{"name":"","type":"address","internalType":"address"}],"stateMutability":"view"},{"type":"function","name":"feeRecipient","inputs":[],"outputs":[{"name":"","type":"address","internalType":"address"}],"stateMutability":"view"},{"type":"function","name":"getAccountWithdrawalStatus","inputs":[{"name":"accountAddress","type":"address","internalType":"address"},{"name":"expiry","type":"uint32","internalType":"uint32"}],"outputs":[{"name":"status","type":"tuple","internalType":"struct AccountWithdrawalStatus","components":[{"name":"scaledAmount","type":"uint104","internalType":"uint104"},{"name":"normalizedAmountWithdrawn","type":"uint128","internalType":"uint128"}]}],"stateMutability":"view"},{"type":"function","name":"getAvailableWithdrawalAmount","inputs":[{"name":"accountAddress","type":"address","internalType":"address"},{"name":"expiry","type":"uint32","internalType":"uint32"}],"outputs":[{"name":"","type":"uint256","internalType":"uint256"}],"stateMutability":"view"},{"type":"function","name":"getUnpaidBatchExpiries","inputs":[],"outputs":[{"name":"","type":"uint32[]","internalType":"uint32[]"}],"stateMutability":"view"},{"type":"function","name":"getWithdrawalBatch","inputs":[{"name":"expiry","type":"uint32","internalType":"uint32"}],"outputs":[{"name":"batch","type":"tuple","internalType":"struct WithdrawalBatch","components":[{"name":"scaledTotalAmount","type":"uint104","internalType":"uint104"},{"name":"scaledAmountBurned","type":"uint104","internalType":"uint104"},{"name":"normalizedAmountPaid","type":"uint128","internalType":"uint128"}]}],"stateMutability":"view"},{"type":"function","name":"hooks","inputs":[],"outputs":[{"name":"","type":"uint256","internalType":"HooksConfig"}],"stateMutability":"view"},{"type":"function","name":"name","inputs":[],"outputs":[{"name":"","type":"string","internalType":"string"}],"stateMutability":"view"},{"type":"function","name":"previousState","inputs":[],"outputs":[{"name":"","type":"tuple","internalType":"struct MarketState","components":[{"name":"isClosed","type":"bool","internalType":"bool"},{"name":"maxTotalSupply","type":"uint128","internalType":"uint128"},{"name":"accruedProtocolFees","type":"uint128","internalType":"uint128"},{"name":"normalizedUnclaimedWithdrawals","type":"uint128","internalType":"uint128"},{"name":"scaledTotalSupply","type":"uint104","internalType":"uint104"},{"name":"scaledPendingWithdrawals","type":"uint104","internalType":"uint104"},{"name":"pendingWithdrawalExpiry","type":"uint32","internalType":"uint32"},{"name":"isDelinquent","type":"bool","internalType":"bool"},{"name":"timeDelinquent","type":"uint32","internalType":"uint32"},{"name":"protocolFeeBips","type":"uint16","internalType":"uint16"},{"name":"annualInterestBips","type":"uint16","internalType":"uint16"},{"name":"reserveRatioBips","type":"uint16","internalType":"uint16"},{"name":"scaleFactor","type":"uint112","internalType":"uint112"},{"name":"lastInterestAccruedTimestamp","type":"uint32","internalType":"uint32"}]}],"stateMutability":"view"},{"type":"function","name":"queueFullWithdrawal","inputs":[],"outputs":[{"name":"expiry","type":"uint32","internalType":"uint32"}],"stateMutability":"nonpayable"},{"type":"function","name":"queueWithdrawal","inputs":[{"name":"amount","type":"uint256","internalType":"uint256"}],"outputs":[{"name":"expiry","type":"uint32","internalType":"uint32"}],"stateMutability":"nonpayable"},{"type":"function","name":"repayAndProcessUnpaidWithdrawalBatches","inputs":[{"name":"repayAmount","type":"uint256","internalType":"uint256"},{"name":"maxBatches","type":"uint256","internalType":"uint256"}],"outputs":[],"stateMutability":"nonpayable"},{"type":"function","name":"scaleFactor","inputs":[],"outputs":[{"name":"","type":"uint256","internalType":"uint256"}],"stateMutability":"view"},{"type":"function","name":"scaledBalanceOf","inputs":[{"name":"account","type":"address","internalType":"address"}],"outputs":[{"name":"","type":"uint256","internalType":"uint256"}],"stateMutability":"view"},{"type":"function","name":"scaledTotalSupply","inputs":[],"outputs":[{"name":"","type":"uint256","internalType":"uint256"}],"stateMutability":"view"},{"type":"function","name":"sentinel","inputs":[],"outputs":[{"name":"","type":"address","internalType":"address"}],"stateMutability":"view"},{"type":"function","name":"sphereXEngine","inputs":[],"outputs":[{"name":"","type":"address","internalType":"address"}],"stateMutability":"view"},{"type":"function","name":"sphereXOperator","inputs":[],"outputs":[{"name":"","type":"address","internalType":"address"}],"stateMutability":"view"},{"type":"function","name":"symbol","inputs":[],"outputs":[{"name":"","type":"string","internalType":"string"}],"stateMutability":"view"},{"type":"function","name":"totalAssets","inputs":[],"outputs":[{"name":"","type":"uint256","internalType":"uint256"}],"stateMutability":"view"},{"type":"function","name":"totalDebts","inputs":[],"outputs":[{"name":"","type":"uint256","internalType":"uint256"}],"stateMutability":"view"},{"type":"function","name":"version","inputs":[],"outputs":[{"name":"","type":"string","internalType":"string"}],"stateMutability":"pure"},{"type":"function","name":"withdrawableProtocolFees","inputs":[],"outputs":[{"name":"","type":"uint128","internalType":"uint128"}],"stateMutability":"view"},{"type":"function","name":"withdrawalBatchDuration","inputs":[],"outputs":[{"name":"","type":"uint256","internalType":"uint256"}],"stateMutability":"view"},{"type":"event","name":"AccountSanctioned","inputs":[{"name":"account","type":"address","indexed":true,"internalType":"address"}],"anonymous":false},{"type":"event","name":"AnnualInterestBipsUpdated","inputs":[{"name":"annualInterestBipsUpdated","type":"uint256","indexed":false,"internalType":"uint256"}],"anonymous":false},{"type":"event","name":"Approval","inputs":[{"name":"owner","type":"address","indexed":true,"internalType":"address"},{"name":"spender","type":"address","indexed":true,"internalType":"address"},{"name":"value","type":"uint256","indexed":false,"internalType":"uint256"}],"anonymous":false},{"type":"event","name":"Borrow","inputs":[{"name":"assetAmount","type":"uint256","indexed":false,"internalType":"uint256"}],"anonymous":false},{"type":"event","name":"ChangedSpherexEngineAddress","inputs":[{"name":"oldEngineAddress","type":"address","indexed":false,"internalType":"address"},{"name":"newEngineAddress","type":"address","indexed":false,"internalType":"address"}],"anonymous":false},{"type":"event","name":"ChangedSpherexOperator","inputs":[{"name":"oldSphereXAdmin","type":"address","indexed":false,"internalType":"address"},{"name":"newSphereXAdmin","type":"address","indexed":false,"internalType":"address"}],"anonymous":false},{"type":"event","name":"DebtRepaid","inputs":[{"name":"from","type":"address","indexed":true,"internalType":"address"},{"name":"assetAmount","type":"uint256","indexed":false,"internalType":"uint256"}],"anonymous":false},{"type":"event","name":"Deposit","inputs":[{"name":"account","type":"address","indexed":true,"internalType":"address"},{"name":"assetAmount","type":"uint256","indexed":false,"internalType":"uint256"},{"name":"scaledAmount","type":"uint256","indexed":false,"internalType":"uint256"}],"anonymous":false},{"type":"event","name":"FeesCollected","inputs":[{"name":"assets","type":"uint256","indexed":false,"internalType":"uint256"}],"anonymous":false},{"type":"event","name":"InterestAndFeesAccrued","inputs":[{"name":"fromTimestamp","type":"uint256","indexed":false,"internalType":"uint256"},{"name":"toTimestamp","type":"uint256","indexed":false,"internalType":"uint256"},{"name":"scaleFactor","type":"uint256","indexed":false,"internalType":"uint256"},{"name":"baseInterestRay","type":"uint256","indexed":false,"internalType":"uint256"},{"name":"delinquencyFeeRay","type":"uint256","indexed":false,"internalType":"uint256"},{"name":"protocolFees","type":"uint256","indexed":false,"internalType":"uint256"}],"anonymous":false},{"type":"event","name":"MarketClosed","inputs":[{"name":"timestamp","type":"uint256","indexed":false,"internalType":"uint256"}],"anonymous":false},{"type":"event","name":"MaxTotalSupplyUpdated","inputs":[{"name":"assets","type":"uint256","indexed":false,"internalType":"uint256"}],"anonymous":false},{"type":"event","name":"ProtocolFeeBipsUpdated","inputs":[{"name":"protocolFeeBips","type":"uint256","indexed":false,"internalType":"uint256"}],"anonymous":false},{"type":"event","name":"ReserveRatioBipsUpdated","inputs":[{"name":"reserveRatioBipsUpdated","type":"uint256","indexed":false,"internalType":"uint256"}],"anonymous":false},{"type":"event","name":"SanctionedAccountAssetsQueuedForWithdrawal","inputs":[{"name":"account","type":"address","indexed":true,"internalType":"address"},{"name":"expiry","type":"uint256","indexed":false,"internalType":"uint256"},{"name":"scaledAmount","type":"uint256","indexed":false,"internalType":"uint256"},{"name":"normalizedAmount","type":"uint256","indexed":false,"internalType":"uint256"}],"anonymous":false},{"type":"event","name":"SanctionedAccountAssetsSentToEscrow","inputs":[{"name":"account","type":"address","indexed":true,"internalType":"address"},{"name":"escrow","type":"address","indexed":false,"internalType":"address"},{"name":"amount","type":"uint256","indexed":false,"internalType":"uint256"}],"anonymous":false},{"type":"event","name":"SanctionedAccountWithdrawalSentToEscrow","inputs":[{"name":"account","type":"address","indexed":true,"internalType":"address"},{"name":"escrow","type":"address","indexed":false,"internalType":"address"},{"name":"expiry","type":"uint32","indexed":false,"internalType":"uint32"},{"name":"amount","type":"uint256","indexed":false,"internalType":"uint256"}],"anonymous":false},{"type":"event","name":"StateUpdated","inputs":[{"name":"scaleFactor","type":"uint256","indexed":false,"internalType":"uint256"},{"name":"isDelinquent","type":"bool","indexed":false,"internalType":"bool"}],"anonymous":false},{"type":"event","name":"Transfer","inputs":[{"name":"from","type":"address","indexed":true,"internalType":"address"},{"name":"to","type":"address","indexed":true,"internalType":"address"},{"name":"value","type":"uint256","indexed":false,"internalType":"uint256"}],"anonymous":false},{"type":"event","name":"WithdrawalBatchClosed","inputs":[{"name":"expiry","type":"uint256","indexed":true,"internalType":"uint256"}],"anonymous":false},{"type":"event","name":"WithdrawalBatchCreated","inputs":[{"name":"expiry","type":"uint256","indexed":true,"internalType":"uint256"}],"anonymous":false},{"type":"event","name":"WithdrawalBatchExpired","inputs":[{"name":"expiry","type":"uint256","indexed":true,"internalType":"uint256"},{"name":"scaledTotalAmount","type":"uint256","indexed":false,"internalType":"uint256"},{"name":"scaledAmountBurned","type":"uint256","indexed":false,"internalType":"uint256"},{"name":"normalizedAmountPaid","type":"uint256","indexed":false,"internalType":"uint256"}],"anonymous":false},{"type":"event","name":"WithdrawalBatchPayment","inputs":[{"name":"expiry","type":"uint256","indexed":true,"internalType":"uint256"},{"name":"scaledAmountBurned","type":"uint256","indexed":false,"internalType":"uint256"},{"name":"normalizedAmountPaid","type":"uint256","indexed":false,"internalType":"uint256"}],"anonymous":false},{"type":"event","name":"WithdrawalExecuted","inputs":[{"name":"expiry","type":"uint256","indexed":true,"internalType":"uint256"},{"name":"account","type":"address","indexed":true,"internalType":"address"},{"name":"normalizedAmount","type":"uint256","indexed":false,"internalType":"uint256"}],"anonymous":false},{"type":"event","name":"WithdrawalQueued","inputs":[{"name":"expiry","type":"uint256","indexed":true,"internalType":"uint256"},{"name":"account","type":"address","indexed":true,"internalType":"address"},{"name":"scaledAmount","type":"uint256","indexed":false,"internalType":"uint256"},{"name":"normalizedAmount","type":"uint256","indexed":false,"internalType":"uint256"}],"anonymous":false},{"type":"error","name":"AccountBlocked","inputs":[]},{"type":"error","name":"AnnualInterestBipsTooHigh","inputs":[]},{"type":"error","name":"AprChangeOnClosedMarket","inputs":[]},{"type":"error","name":"BadLaunchCode","inputs":[]},{"type":"error","name":"BadRescueAsset","inputs":[]},{"type":"error","name":"BorrowAmountTooHigh","inputs":[]},{"type":"error","name":"BorrowFromClosedMarket","inputs":[]},{"type":"error","name":"BorrowWhileSanctioned","inputs":[]},{"type":"error","name":"CapacityChangeOnClosedMarket","inputs":[]},{"type":"error","name":"CloseMarketWithUnpaidWithdrawals","inputs":[]},{"type":"error","name":"DepositToClosedMarket","inputs":[]},{"type":"error","name":"FIFOQueueOutOfBounds","inputs":[]},{"type":"error","name":"InsufficientReservesForFeeWithdrawal","inputs":[]},{"type":"error","name":"InsufficientReservesForNewLiquidityRatio","inputs":[]},{"type":"error","name":"InsufficientReservesForOldLiquidityRatio","inputs":[]},{"type":"error","name":"InvalidArrayLength","inputs":[]},{"type":"error","name":"MarketAlreadyClosed","inputs":[]},{"type":"error","name":"MaxSupplyExceeded","inputs":[]},{"type":"error","name":"NoReentrantCalls","inputs":[]},{"type":"error","name":"NotApprovedBorrower","inputs":[]},{"type":"error","name":"NotApprovedLender","inputs":[]},{"type":"error","name":"NotFactory","inputs":[]},{"type":"error","name":"NullBurnAmount","inputs":[]},{"type":"error","name":"NullFeeAmount","inputs":[]},{"type":"error","name":"NullMintAmount","inputs":[]},{"type":"error","name":"NullRepayAmount","inputs":[]},{"type":"error","name":"NullTransferAmount","inputs":[]},{"type":"error","name":"NullWithdrawalAmount","inputs":[]},{"type":"error","name":"ProtocolFeeChangeOnClosedMarket","inputs":[]},{"type":"error","name":"ProtocolFeeNotChanged","inputs":[]},{"type":"error","name":"ProtocolFeeTooHigh","inputs":[]},{"type":"error","name":"RepayToClosedMarket","inputs":[]},{"type":"error","name":"ReserveRatioBipsTooHigh","inputs":[]},{"type":"error","name":"SphereXOperatorRequired","inputs":[]},{"type":"error","name":"WithdrawalBatchNotExpired","inputs":[]}],"bytecode":{"object":"0x610260604052348015610010575f80fd5b5033610100525f6100326101e560201b611095176001600160401b031660201c565b9050805f01516001600160a01b03166101c0816001600160a01b031681525050806020015160ff166101a08160ff168152505080604001516101e0818152505080606001516102008181525050806080015161022081815250508060a0015161024081815250505f8161012001516001600160801b031690505f826101c0015161ffff1690505f83610160015161ffff1690505f84610140015161ffff1690508360081b805f55508060201b8260301b178360401b6b033b2e3c9fd0803ce800000060501b4260c01b1717178060035f0155505050505080610240015160a081815250508061010001516001600160a01b031660c0816001600160a01b0316815250508060c001516001600160a01b031660e0816001600160a01b0316815250508060e001516001600160a01b0316610120816001600160a01b03168152505080610180015161ffff166101408181525050806101e0015163ffffffff166101608181525050806101a0015163ffffffff1661018081815250508061020001516001600160a01b03166080816001600160a01b0316815250506101df81610220015161021660201b60201c565b506102ed565b5f604051905061026081016040526304032dbb5f52610260816004601c335afa6102603d1416610213575f80fd5b90565b6102285f60805161026860201b60201c565b61025b61025660017f1777adabd324f814e2b0e28f6edf876dce01d7d66358c9acfe87b1b5f38338d66102c8565b829055565b6102655f82610298565b50565b815f52806020527f2ac55ae7ba47db34b5334622acafeb34a65daf143b47019273185d64c73a35a560405fa15050565b815f52806020527ff33499cccaa0611882086224cc48cd82ef54b66a4d2edf4ed67108dd516896d560405fa15050565b818103818111156102e757634e487b7160e01b5f52601160045260245ffd5b92915050565b60805160a05160c05160e05161010051610120516101405161016051610180516101a0516101c0516101e0516102005161022051610240516138cc6104285f395f610f8c01525f610f6801525f6106cf01525f6106ab01525f81816103560152818161060d01528181610b7c01528181611a1401528181611a6c0152612b5c01525f61030a01525f81816105140152611f6c01525f81816104000152818161128b015281816113760152818161167b015261171501525f81816103c40152818161126a015281816113550152818161165a01526116f401525f61039d01525f61054301525f81816104d001528181612ad60152612b8001525f81816105dd01528181612afa0152612ba401525f818161056a01528181610be3015281816119710152611fc201525f81816104240152610aa101526138cc5ff3fe608060405234801561000f575f80fd5b506004361061021e575f3560e01c8063546355701161012a5780637df1f1b9116100b4578063c45a015511610079578063c45a01551461053e578063cd7033c414610565578063dbcd50b41461058c578063e7e5db4f14610422578063f58c251c146105d8575f80fd5b80637df1f1b9146104cb578063878eb921146104f257806395d89b41146105075780639e6f98021461050f578063b1bf962d14610536575f80fd5b80636b174f35116100fa5780636b174f351461046b5780637243d96c14610493578063739ccdd31461049b57806374058859146104a357806376636017146104c3575f80fd5b8063546355701461042257806354fd4d50146104485780636731ba6d14610450578063683dd19114610463575f80fd5b80631e3cef53116101ab5780633c2311661161017b5780633c2311661461039057806346904840146103985780634be687c6146103bf5780634c6c848f146103e6578063514a4cd6146103fb575f80fd5b80631e3cef53146102e5578063313ce5671461030557806334bca29c1461033e57806338d52e0f14610351575f80fd5b80630c1e3fea116101f15780630c1e3fea146102a55780630c3f6acf146102ba5780630cd1a5b6146102c257806314a1c32d146102ca5780631da24f3e146102d2575f80fd5b806301e1d1141461022257806302372c4f1461023d57806306fdde031461027d578063088fee5e14610292575b5f80fd5b61022a6105ff565b6040519081526020015b60405180910390f35b61025061024b36600461346a565b610638565b6040805182516001600160681b031681526020928301516001600160801b03169281019290925201610234565b6102856106a6565b604051610234919061349b565b61022a6102a036600461346a565b610705565b6102ad610855565b60405161023491906134d0565b6102ad610953565b61022a61097a565b61022a6109a1565b61022a6102e03660046135fb565b6109bd565b6102ed6109ee565b6040516001600160801b039091168152602001610234565b61032c7f000000000000000000000000000000000000000000000000000000000000000081565b60405160ff9091168152602001610234565b61022a61034c36600461346a565b610a0b565b6103787f000000000000000000000000000000000000000000000000000000000000000081565b6040516001600160a01b039091168152602001610234565b610378610a63565b6103787f000000000000000000000000000000000000000000000000000000000000000081565b61022a7f000000000000000000000000000000000000000000000000000000000000000081565b6103f96103f43660046135fb565b610a96565b005b61022a7f000000000000000000000000000000000000000000000000000000000000000081565b7f0000000000000000000000000000000000000000000000000000000000000000610378565b610285610b40565b6103f961045e366004613614565b610b56565b61022a610cb5565b61047e610479366004613634565b610cdc565b60405163ffffffff9091168152602001610234565b61047e610d65565b61022a610dee565b6104b66104b1366004613693565b610e0a565b60405161023491906136fa565b61022a610f2a565b6103787f000000000000000000000000000000000000000000000000000000000000000081565b6104fa610f4f565b604051610234919061373d565b610285610f63565b61022a7f000000000000000000000000000000000000000000000000000000000000000081565b61022a610fc2565b6103787f000000000000000000000000000000000000000000000000000000000000000081565b61022a7f000000000000000000000000000000000000000000000000000000000000000081565b61059f61059a36600461377a565b610fe8565b6040805182516001600160681b03908116825260208085015190911690820152918101516001600160801b031690820152606001610234565b6103787f000000000000000000000000000000000000000000000000000000000000000081565b5f6106336001600160a01b037f000000000000000000000000000000000000000000000000000000000000000016306110c3565b905090565b604080518082019091525f80825260208201526106536110f8565b63ffffffff9091165f9081526008602090815260408083206001600160a01b039095168352938152929020546001600160681b03811682526001600160801b03600160681b909104169181019190915290565b60605f7f000000000000000000000000000000000000000000000000000000000000000090505f7f0000000000000000000000000000000000000000000000000000000000000000905060205f525f60205281603f5280605f5260805ff35b5f61070e6110f8565b428263ffffffff161061072357610723611112565b5f8061072d61111f565b9250925050610754604080516060810182525f808252602082018190529181019190915290565b8263ffffffff168563ffffffff160361076e5750806107c3565b5063ffffffff84165f90815260076020908152604091829020825160608101845281546001600160681b038082168352600160681b9091041692810192909252600101546001600160801b0316918101919091525b63ffffffff8086165f9081526008602090815260408083206001600160a01b038b16845282528083208151808301835290546001600160681b038082168084526001600160801b03600160681b9093048316958401869052885194890151939795969561083a959490931693909291169061143816565b905061084682826137a7565b96505050505050505b92915050565b61085d6133ce565b604080516101c080820183525f5460ff808216151584526001600160801b03610100928390048116602086015260015480821696860196909652600160801b90950490941660608401526002546001600160681b038082166080860152600160681b82041660a085015263ffffffff600160d01b8204811660c0860152600160f01b909104909416151560e08401526003548085169184019190915261ffff64010000000082048116610120850152600160301b82048116610140850152600160401b8204166101608401526001600160701b03600160501b820416610180840152600160c01b90049092166101a08201529081f35b61095b6133ce565b6109636110f8565b61097261145c5b63ffffffff16565b90506101c081f35b5f6109836110f8565b61098e61145c61096a565b604001516001600160801b031690505b90565b5f6109aa6110f8565b6106336109b861145c61096a565b611470565b5f6109c66110f8565b506001600160a01b0381165f908152600460205260409020546001600160681b03165b919050565b5f6106336109fa6105ff565b610a0561145c61096a565b906114c1565b5f610a146114f5565b5f610a1d611519565b90505f610a2861152a565b90505f610a43828787610a3e60445f5236155190565b611871565b9050610a4e82611acb565b925050610a5a81611c24565b5061084f611c33565b5f610633610a9260017f1777adabd324f814e2b0e28f6edf876dce01d7d66358c9acfe87b1b5f38338d66137a7565b5490565b336001600160a01b037f00000000000000000000000000000000000000000000000000000000000000001614610ace57610ace611c3c565b5f610afd610a9260017f1777adabd324f814e2b0e28f6edf876dce01d7d66358c9acfe87b1b5f38338d66137a7565b9050610b32610b2d60017f1777adabd324f814e2b0e28f6edf876dce01d7d66358c9acfe87b1b5f38338d66137a7565b839055565b610b3c8183611c49565b5050565b60605f6040526101326041526020805260606020f35b610b5e6114f5565b5f610b67611519565b90508215610bae57610ba46001600160a01b037f000000000000000000000000000000000000000000000000000000000000000016333086611c79565b610bae3384611cc8565b5f610bb761152a565b805190915015610bc957610bc9611cf5565b8315610c0a57610c0a8482610be160445f5236155190565b7f0000000000000000000000000000000000000000000000000000000000000000929190611d02565b5f81604001518260600151610c1f91906137ba565b6001600160801b0316610c306105ff565b610c3a91906137a7565b90505f610c5985610c4b6005611d7d565b6001600160801b0316611d9e565b90505f5b8181610c68816137e1565b9250108015610c7657505f83115b15610c96575f610c868585611db0565b8085119403939093029250610c5d565b610c9f84611acb565b50505050610cac81611c24565b50610b3c611c33565b5f610cbe6110f8565b610cc961145c61096a565b61018001516001600160701b0316905090565b5f610ce56114f5565b5f610cee611519565b90505f610cf961152a565b90505f610d0e610d098387611ec1565b611ee3565b9050806001600160681b03165f03610d2857610d28611ef8565b5f610d3233611f05565b9050610d4e838233858a610d4960245f5236155190565b611f54565b9450505050610d5c81611c24565b506109e9611c33565b5f610d6e6114f5565b5f610d77611519565b90505f610d8261152a565b90505f610d8e33611f05565b80519091506001600160681b0381165f03610dab57610dab611ef8565b5f610dbf846001600160681b0384166121ef565b9050610dd68484338585610d4960045f5236155190565b955050505050610de581611c24565b5061099e611c33565b5f610df76110f8565b610633610e0561145c61096a565b612211565b6060610e146114f5565b5f610e1d611519565b9050848314610e2e57610e2e6122a0565b8467ffffffffffffffff811115610e4757610e476137f9565b604051908082528060200260200182016040528015610e70578160200160208202803683370190505b5091505f610e7c61152a565b90505f5b86811015610f0557610ee082898984818110610e9e57610e9e61380d565b9050602002016020810190610eb391906135fb565b888885818110610ec557610ec561380d565b9050602002016020810190610eda919061377a565b36611871565b848281518110610ef257610ef261380d565b6020908102919091010152600101610e80565b50610f0f81611acb565b50610f1981611c24565b50610f22611c33565b949350505050565b5f610f336110f8565b610633610f3e6105ff565b610f4961145c61096a565b906122ad565b6060610f596110f8565b61063360056122c4565b60605f7f000000000000000000000000000000000000000000000000000000000000000090505f7f0000000000000000000000000000000000000000000000000000000000000000905060205f525f60205281603f5280605f5260805ff35b5f610fcb6110f8565b610fd661145c61096a565b608001516001600160681b0316905090565b604080516060810182525f808252602082018190529181019190915261100c6110f8565b5f8061101661111f565b9093509150611038905063ffffffff8581168185168114919015159061239d16565b156110465791506109e99050565b505063ffffffff82165f9081526007602090815260409182902080546001600160681b038082168652600160681b9091041691840191909152600101546001600160801b031690820152919050565b5f604051905061026081016040526304032dbb5f52610260816004601c335afa6102603d141661099e575f80fd5b5f6370a082315f528160205260205f6024601c865afa601f3d11166110ef57634963f6d55f526004601cfd5b50505f51919050565b63929eee145c1561111057637fa8a9875f526004601cfd5b565b632561b8805f526004601cfd5b6111276133ce565b604080516060810182525f80825260208201819052918101829052604080516101c0810182525f5460ff808216151583526001600160801b03610100928390048116602085015260015480821695850195909552600160801b90940490931660608301526002546001600160681b038082166080850152600160681b82041660a084015263ffffffff600160d01b8204811660c08501819052600160f01b909204909416151560e08401526003548085169284019290925261ffff64010000000083048116610120850152600160301b83048116610140850152600160401b8304166101608401526001600160701b03600160501b830416610180840152600160c01b9091049092166101a0820152935080151542909110161561133d578260c001519150826101a0015163ffffffff168263ffffffff16146112bd576112b9837f00000000000000000000000000000000000000000000000000000000000000007f000000000000000000000000000000000000000000000000000000000000000063ffffffff808716906123a116565b5050505b5063ffffffff81165f908152600760209081526040808320815160608101835281546001600160681b038082168352600160681b9091041693810193909352600101546001600160801b031690820152906113228461131a6105ff565b849190612445565b90508015611335576113358285836124c2565b505f60c08401525b42836101a0015163ffffffff161461139f5761139b837f00000000000000000000000000000000000000000000000000000000000000007f0000000000000000000000000000000000000000000000000000000000000000426123a1565b5050505b60c083015163ffffffff161561143357505060c081015163ffffffff81165f90815260076020908152604091829020825160608101845281546001600160681b03808216808452600160681b909204169382018490526001909201546001600160801b0316938101939093521115611433575f61141e8461131a6105ff565b90508015611431576114318285836124c2565b505b909192565b5f825f1904841183021582026114555763ad251c275f526004601cfd5b5091020490565b5f61146861111f61096a565b509092915050565b5f81604001516001600160801b031682606001516001600160801b03166114ad84608001516001600160681b0316856121ef90919063ffffffff16565b6114b79190613821565b61084f9190613821565b5f8083606001516001600160801b0316836114dc91906137a7565b9050610f228185604001516001600160801b0316611d9e565b63929eee145c801561150e57637fa8a9875f526004601cfd5b50600163929eee145d565b5f610633813560e01c6125f261096a565b6115326133ce565b50604080516101c0810182525f5460ff808216151583526001600160801b03610100928390048116602085015260015480821695850195909552600160801b90940490931660608301526002546001600160681b038082166080850152600160681b82041660a084015263ffffffff600160d01b8204811660c08501819052600160f01b909204909416151560e08401526003548085169284019290925261ffff64010000000083048116610120850152600160301b83048116610140850152600160401b8304166101608401526001600160701b03600160501b830416610180840152600160c01b9091049092166101a0820152908015154290911016156116d85760c08101516101a082015163ffffffff91821691811682146116cc575f80806116a0867f00000000000000000000000000000000000000000000000000000000000000007f0000000000000000000000000000000000000000000000000000000000000000886123a1565b9250925092506116c88463ffffffff16868861018001516001600160701b03168686866126fa565b5050505b6116d58361274c565b50505b6101a08101514263ffffffff821614611766575f808061173a857f00000000000000000000000000000000000000000000000000000000000000007f0000000000000000000000000000000000000000000000000000000000000000426123a1565b9250925092506117628463ffffffff16428761018001516001600160701b03168686866126fa565b5050505b60c082015163ffffffff161561186d5760c082015163ffffffff81165f90815260076020908152604091829020825160608101845281546001600160681b03808216808452600160681b909204169382018490526001909201546001600160801b031693810193909352111561186a575f6117e38561131a6105ff565b90508015611868576117f7828685846128c2565b505063ffffffff83165f9081526007602090815260409182902084518154928601516001600160681b03908116600160681b026001600160d01b031990941691161791909117815590830151600190910180546001600160801b039092166001600160801b03199092169190911790555b505b50505b5090565b63ffffffff82165f818152600760209081526040808320815160608101835281546001600160681b038082168352600160681b9091041693810193909352600101546001600160801b031690820152909142118015906118d057508551155b156118dd576118dd611112565b63ffffffff84165f9081526008602090815260408083206001600160a01b03891684529091528082209083015181548451929392611931926001600160801b0316916001600160681b039081169116611438565b82549091505f9061195290600160681b90046001600160801b031683613834565b9050806001600160801b03165f0361196c5761196c612a3a565b6119a27f0000000000000000000000000000000000000000000000000000000000000000896001600160801b0384168c8a612a47565b82546fffffffffffffffffffffffffffffffff60681b1916600160681b6001600160801b038416021783556060890180518291906119e1908390613834565b6001600160801b03169052506119f688612ad2565b15611a5f575f611a0589612b58565b9050611a446001600160a01b037f000000000000000000000000000000000000000000000000000000000000000016826001600160801b038516612c0c565b611a5989828a856001600160801b0316612c4c565b50611a9c565b611a9c6001600160a01b037f000000000000000000000000000000000000000000000000000000000000000016896001600160801b038416612c0c565b611ab68763ffffffff1689836001600160801b0316612c89565b6001600160801b031698975050505050505050565b5f611ad46105ff565b611add83612211565b1160e08301819052825160208085015160081b70ffffffffffffffffffffffffffffffff00169091175f5560408085015160608601516001600160801b03909116608091821b6001600160801b0319161760015585015160a086015160c0808801516001600160681b0390931660689290921b6cffffffffffffffffffffffffff60681b1660d09390931b63ffffffff60d01b1660f087901b1792909217176002556101008601516101208701516101408801516101608901516101808a01516101a08b015163ffffffff9095169390971b65ffff000000001660309290921b67ffff0000000000001691909117941b69ffff000000000000000016605086901b6dffffffffffffffffffffffffffff60501b169290931b63ffffffff60c01b1691909117919091179190911717600355909150610b3c906001600160701b031682612cb8565b611c3081612ce861096a565b50565b5f63929eee145d565b634ee0b8f85f526004601cfd5b815f52806020527ff33499cccaa0611882086224cc48cd82ef54b66a4d2edf4ed67108dd516896d560405fa15050565b60405181606052826040528360601b602c526323b872dd60601b600c5260205f6064601c5f895af13d1560015f51141716611cbb57637939f4245f526004601cfd5b5f60605260405250505050565b805f52817fe8b606ac1e5df7657db58d297ca8f41c090fc94c5fd2d6958f043e41736e9fa660205fa25050565b6361d1bc8f5f526004601cfd5b5f611d0d8560601c90565b90506383d9e1eb611d1d86612d70565b15611d7557823603604051602081018382528781526101c087602083015e6102006101e082015282610200820152828661022083013750816102240191505f8083601c84015f885af1611d72573d5f803e3d5ffd5b50505b505050505050565b80545f9061084f906001600160801b0380821691600160801b900416613834565b5f8183038284100282015b9392505050565b5f80611dbc6005612d7e565b63ffffffff81165f90815260076020908152604091829020825160608101845281546001600160681b038082168352600160681b9091041692810192909252600101546001600160801b031691810191909152909150611e1e818684876128c2565b63ffffffff84165f9081526007602090815260409182902085518154928701516001600160681b039182166001600160d01b03199094168417600160681b9290911691820217825592860151600190910180546001600160801b0319166001600160801b0392831617905592909216955090039050611eb057611ea16005612dd9565b611eb08263ffffffff16612e5e565b505092915050565b80821191030290565b5f611da98361018001516001600160701b031683612e8690919063ffffffff16565b806109e96001600160681b0382168214612ed1565b63d61c50f85f526004601cfd5b60408051602080820183525f918290526001600160a01b03841682526004815290829020825191820190925290546001600160681b03168152611f4782612ad2565b156109e9576109e9612ee8565b60c086015163ffffffff81165f03611fbd57865115157f00000000000000000000000000000000000000000000000000000000000000005f8190039190910201611f9e8142613821565b9150611faf8263ffffffff16612ef5565b5063ffffffff811660c08801525b611ff47f000000000000000000000000000000000000000000000000000000000000000086836001600160681b0388168b87612f1d565b83865f018181516120059190613854565b6001600160681b039081169091526001600160a01b0387165f908152600460205260409020885181546cffffffffffffffffffffffffff1916921691909117905550612052853085612fa5565b63ffffffff81165f818152600760209081526040808320815160608101835281546001600160681b038082168352600160681b9091048116828601526001909201546001600160801b031681840152948452600883528184206001600160a01b038b16855290925282208054889391926120ce91859116613874565b92506101000a8154816001600160681b0302191690836001600160681b0316021790555084815f018181516121039190613874565b6001600160681b031690525060a088018051869190612123908390613874565b6001600160681b03908116909152612148915063ffffffff8416908890881687612fd4565b5f6121558961131a6105ff565b9050801561216c57612169828a85846128c2565b50505b63ffffffff83165f9081526007602090815260409182902084518154928601516001600160681b03908116600160681b026001600160d01b031990941691161791909117815590830151600190910180546001600160801b039092166001600160801b03199092169190911790556121e389611acb565b50509695505050505050565b5f611da98361018001516001600160701b03168361300890919063ffffffff16565b5f808260a001516001600160681b031690505f8161225185610160015161ffff168487608001516001600160681b031661224b91906137a7565b90613058565b61225b9190613821565b905083606001516001600160801b031684604001516001600160801b031661228c83876121ef90919063ffffffff16565b6122969190613821565b610f229190613821565b639d89020a5f526004601cfd5b5f611da96122ba84612211565b8084039084110290565b80546060906001600160801b0380821691600160801b9004165f6122e883836137a7565b90508067ffffffffffffffff811115612303576123036137f9565b60405190808252806020026020018201604052801561232c578160200160208202803683370190505b5093505f5b8181101561239457600186015f6123488387613821565b81526020019081526020015f205f9054906101000a900463ffffffff168582815181106123775761237761380d565b63ffffffff90921660209283029190910190910152600101612331565b50505050919050565b1690565b5f80806123ae878561308a565b61012088015190935061ffff16156123cd576123ca87846130b4565b90505b85156123e2576123df87858888613142565b91505b6101808701516001600160701b03165f6124066123ff8587613821565b8390613008565b905061241a6124158284613821565b613183565b6001600160701b03166101808a0152505063ffffffff9093166101a090960195909552949092509050565b5f8061245085613198565b8460a0015161245f9190613854565b6001600160681b031690505f84604001516001600160801b031661248c83876121ef90919063ffffffff16565b86606001516001600160801b03166124a49190613821565b6124ae9190613821565b9050808403818511025b9695505050505050565b602083015183515f916124d491613854565b9050806001600160681b03165f036124ec5750505050565b5f6124f78484611ec1565b90505f612510610d0983856001600160681b0316611d9e565b90505f612549612544836001600160681b03168861018001516001600160701b03166b033b2e3c9fd0803ce8000000611438565b6131aa565b9050818760200181815161255d9190613874565b6001600160681b031690525060408701805182919061257d9083906137ba565b6001600160801b031690525060a08601805183919061259d908390613854565b6001600160681b03169052506060860180518291906125bd9083906137ba565b6001600160801b03169052506080860180518391906125dd908390613854565b6001600160681b031690525050505050505050565b612624604051806080016040528060608152602001606081526020015f81526020015f6001600160a01b031681525090565b8061262d610a63565b6001600160a01b031660608201819052156126f4576060820151604051638925ca5a8152846020820152336040820152606080820152366080820152365f60a08301373660c40160405f82601c85015f875af160205f511416612692573d5f803e3d5ffd5b5060205191508160051b91506003820260e0018101604052602082016020823e8084526020820181019050845f038152608060408201526080810160208501528160a001606082015250505a60408301526126f4825f015183602001516131bf565b50919050565b6040518681528560208201528460408201528360608201528260808201528160a08201527f18247a393d0531b65fbd94f5e78bc5639801a4efda62ae7b43533c4442116c3a60c082a150505050505050565b60c081015163ffffffff81165f90815260076020908152604091829020825160608101845281546001600160681b03808216808452600160681b909204169382018490526001909201546001600160801b03169381019390935211156127d2575f6127b98461131a6105ff565b905080156127d0576127cd828585846128c2565b50505b505b61280a8263ffffffff16825f01516001600160681b031683602001516001600160681b031684604001516001600160801b03166131f5565b805f01516001600160681b031681602001516001600160681b0316101561283b57612836600583613232565b61284a565b61284a8263ffffffff16612e5e565b5f60c090930183905263ffffffff9190911682526007602090815260409283902082518154928401516001600160681b03908116600160681b026001600160d01b0319909416911617919091178155910151600190910180546001600160801b039092166001600160801b0319909216919091179055565b5f805f8660200151875f01516128d89190613854565b9050806001600160681b03165f036128f6575f809250925050612a31565b5f6129018786611ec1565b9050612919610d0982846001600160681b0316611d9e565b935061294c612544856001600160681b03168961018001516001600160701b03166b033b2e3c9fd0803ce8000000611438565b925083886020018181516129609190613874565b6001600160681b03169052506040880180518491906129809083906137ba565b6001600160801b031690525060a0870180518591906129a0908390613854565b6001600160681b03169052506060870180518491906129c09083906137ba565b6001600160801b03169052506080870180518591906129e0908390613854565b6001600160681b0316905250612a0b306129fc5f805236155190565b856001600160801b0316612fa5565b612a2e8663ffffffff16856001600160681b0316856001600160801b0316613290565b50505b94509492505050565b63186334fe5f526004601cfd5b5f612a528660601c90565b9050632970403d612a6b875f61084f82605d1c60011690565b15612ac957823603604051602081018382528881528760208201526101c087604083015e61022061020082015282610220820152828661024083013750816102440191505f8083601c84015f885af1612ac6573d5f803e3d5ffd5b50505b50505050505050565b5f807f000000000000000000000000000000000000000000000000000000000000000090505f7f000000000000000000000000000000000000000000000000000000000000000090506040516306e744445f52826020528460405260205f6044601c855afa60203d1416612b48573d5f803e3d5ffd5b5f51935080604052505050919050565b5f807f000000000000000000000000000000000000000000000000000000000000000090505f7f000000000000000000000000000000000000000000000000000000000000000090505f7f0000000000000000000000000000000000000000000000000000000000000000905060405163a1054f6b5f5282602052856040528360605260205f6064601c5f865af160203d1416612bf7573d5f803e3d5ffd5b5f51945080604052505f606052505050919050565b816014528060345263a9059cbb60601b5f5260205f604460105f875af13d1560015f51141716612c43576390b8ec185f526004601cfd5b5f603452505050565b604051835f528260205281604052847f0d0843a0fcb8b83f625aafb6e42f234ac48c6728b207d52d97cfa8fbd34d498f60605fa260405250505050565b805f5281837fd6cddb3d69146e96ebc2c87b1b3dd0b20ee2d3b0eadf134e011afb434a3e56e660205fa3505050565b815f52806020527f9385f9ff65bcd2fb81cece54b27d4ec7376795fc4dcff686e370e347b0ed86c060405fa15050565b606081015181906001600160a01b0316612d00575050565b8151805190600682901b810160c001612d1982826131bf565b6060850151600584901b830160200160c4600686901b015a60408901510380602084015250602082039150815163f0bd946883525f8083601c86015f885af1612d64573d5f803e3d5ffd5b90915250505050505050565b5f61084f82605a1c60011690565b80545f906001600160801b03600160801b82048116911603612db357604051638727480160e01b815260040160405180910390fd5b5080546001600160801b03165f9081526001909101602052604090205463ffffffff1690565b80546001600160801b0380821691600160801b9004168103612e0e57604051638727480160e01b815260040160405180910390fd5b6001600160801b0381165f90815260018084016020526040909120805463ffffffff19169055612e3f9082906137ba565b82546001600160801b0319166001600160801b03919091161790915550565b807fcbdf25bf6e096dd9030d89bb2ba2e3e7adb82d25a233c3ca3d92e9f098b74e555f80a250565b5f81156b033b2e3c9fd0803ce800000060028404190484111715612eb657634e487b715f5260116020526024601cfd5b506b033b2e3c9fd0803ce80000009190910260028204010490565b80611c3057634e487b715f5260116020526024601cfd5b636bc671fd5f526004601cfd5b807f5c9a946d3041134198ebefcd814de7748def6576efd3d1b48f48193e183e89ef5f80a250565b5f612f288760601c90565b9050633521cccc612f38886132c2565b15611d7257823603604051602081018382528981528860208201528760408201526101c087606083015e61024061022082015282610240820152828661026083013750816102640191505f8083601c84015f885af1612f99573d5f803e3d5ffd5b50505050505050505050565b805f5281837fddf252ad1be2c89b69c2b068fc378daa952ba7f163c4a11628f55a4df523b3ef60205fa3505050565b815f528060205282847fecc966b282a372469fa4d3e497c2ac17983c3eaed03f3f17c9acf4b15591663e60405fa350505050565b5f81156b019d971e4fe8401e74000000198390048411151761303657634e487b715f5260116020526024601cfd5b506b033b2e3c9fd0803ce800000091026b019d971e4fe8401e74000000010490565b5f8115611388198390048411151761307c57634e487b715f5260116020526024601cfd5b506127109102611388010490565b5f611da983610140015161ffff16846101a0015163ffffffff16846130af91906137a7565b6132d0565b5f806130d28385610120015161ffff1661305890919063ffffffff16565b905061310c6130f8828661018001516001600160701b031661300890919063ffffffff16565b60808601516001600160681b031690613008565b915061312a8285604001516001600160801b03166125449190613821565b6001600160801b031660409094019390935292915050565b5f806131658684886101a0015163ffffffff168861316091906137a7565b6132f8565b9050801561317a5761317784826132d0565b91505b50949350505050565b806109e96001600160701b0382168214612ed1565b602081015181515f9161084f91613854565b806109e96001600160801b0382168214612ed1565b815180825260208301602083018260051b810192505b828110156131ee578151548152602091820191016131d5565b5050505050565b604051835f528260205281604052847f9262dc39b47cad3a0512e4c08dda248cb345e7163058f300bc63f56bda288b6e60605fa260405250505050565b8154600160801b90046001600160801b03165f81815260018085016020526040909120805463ffffffff191663ffffffff85161790556132739082906137ba565b83546001600160801b03918216600160801b029116179092555050565b815f5280602052827f5272034725119f19d7236de4129fdb5093f0dcb80282ca5edbd587df91d2bd8960405fa2505050565b5f61084f82605e1c60011690565b5f806132db8461338b565b90505f6132e88483613894565b6301e13380900495945050505050565b61010083015160e08401515f9163ffffffff1690156133525761332361331e8483613821565b6133b4565b63ffffffff9081166101008701525f906133419086908490611eb816565b808511908503029250611da9915050565b613361838203848311026133b4565b63ffffffff9081166101008701525f9061337f9083908790611eb816565b90506124b88185611d9e565b69152d02c7e14af680000081810290810482146109e957634e487b715f5260116020526024601cfd5b806109e963ffffffff82168214612ed1565b6111106138ab565b604080516101c0810182525f80825260208201819052918101829052606081018290526080810182905260a0810182905260c0810182905260e08101829052610100810182905261012081018290526101408101829052610160810182905261018081018290526101a081019190915290565b80356001600160a01b03811681146109e9575f80fd5b803563ffffffff811681146109e9575f80fd5b5f806040838503121561347b575f80fd5b61348483613441565b915061349260208401613457565b90509250929050565b602081525f82518060208401528060208501604085015e5f604082850101526040601f19601f83011684010191505092915050565b8151151581526101c0810160208301516134f560208401826001600160801b03169052565b50604083015161351060408401826001600160801b03169052565b50606083015161352b60608401826001600160801b03169052565b50608083015161354660808401826001600160681b03169052565b5060a083015161356160a08401826001600160681b03169052565b5060c083015161357960c084018263ffffffff169052565b5060e083015161358d60e084018215159052565b506101008381015163ffffffff908116918401919091526101208085015161ffff90811691850191909152610140808601518216908501526101608086015190911690840152610180808501516001600160701b0316908401526101a0808501519182168185015290611eb0565b5f6020828403121561360b575f80fd5b611da982613441565b5f8060408385031215613625575f80fd5b50508035926020909101359150565b5f60208284031215613644575f80fd5b5035919050565b5f8083601f84011261365b575f80fd5b50813567ffffffffffffffff811115613672575f80fd5b6020830191508360208260051b850101111561368c575f80fd5b9250929050565b5f805f80604085870312156136a6575f80fd5b843567ffffffffffffffff808211156136bd575f80fd5b6136c98883890161364b565b909650945060208701359150808211156136e1575f80fd5b506136ee8782880161364b565b95989497509550505050565b602080825282518282018190525f9190848201906040850190845b8181101561373157835183529284019291840191600101613715565b50909695505050505050565b602080825282518282018190525f9190848201906040850190845b8181101561373157835163ffffffff1683529284019291840191600101613758565b5f6020828403121561378a575f80fd5b611da982613457565b634e487b7160e01b5f52601160045260245ffd5b8181038181111561084f5761084f613793565b6001600160801b038181168382160190808211156137da576137da613793565b5092915050565b5f600182016137f2576137f2613793565b5060010190565b634e487b7160e01b5f52604160045260245ffd5b634e487b7160e01b5f52603260045260245ffd5b8082018082111561084f5761084f613793565b6001600160801b038281168282160390808211156137da576137da613793565b6001600160681b038281168282160390808211156137da576137da613793565b6001600160681b038181168382160190808211156137da576137da613793565b808202811582820484141761084f5761084f613793565b634e487b7160e01b5f52605160045260245ffdfea164736f6c6343000819000a","linkReferences":{}},"methodIdentifiers":{"accruedProtocolFees()":"0cd1a5b6","archController()":"54635570","asset()":"38d52e0f","borrowableAssets()":"76636017","borrower()":"7df1f1b9","changeSphereXEngine(address)":"4c6c848f","coverageLiquidity()":"739ccdd3","currentState()":"0c3f6acf","decimals()":"313ce567","delinquencyFeeBips()":"4be687c6","delinquencyGracePeriod()":"514a4cd6","executeWithdrawal(address,uint32)":"34bca29c","executeWithdrawals(address[],uint32[])":"74058859","factory()":"c45a0155","feeRecipient()":"46904840","getAccountWithdrawalStatus(address,uint32)":"02372c4f","getAvailableWithdrawalAmount(address,uint32)":"088fee5e","getUnpaidBatchExpiries()":"878eb921","getWithdrawalBatch(uint32)":"dbcd50b4","hooks()":"cd7033c4","name()":"06fdde03","previousState()":"0c1e3fea","queueFullWithdrawal()":"7243d96c","queueWithdrawal(uint256)":"6b174f35","repayAndProcessUnpaidWithdrawalBatches(uint256,uint256)":"6731ba6d","scaleFactor()":"683dd191","scaledBalanceOf(address)":"1da24f3e","scaledTotalSupply()":"b1bf962d","sentinel()":"f58c251c","sphereXEngine()":"3c231166","sphereXOperator()":"e7e5db4f","symbol()":"95d89b41","totalAssets()":"01e1d114","totalDebts()":"14a1c32d","version()":"54fd4d50","withdrawableProtocolFees()":"1e3cef53","withdrawalBatchDuration()":"9e6f9802"},"id":61}