{"abi":[{"type":"constructor","inputs":[{"name":"_deployer","type":"address","internalType":"address"}],"stateMutability":"nonpayable"},{"type":"function","name":"addRoleProvider","inputs":[{"name":"providerAddress","type":"address","internalType":"address"},{"name":"timeToLive","type":"uint32","internalType":"uint32"}],"outputs":[],"stateMutability":"nonpayable"},{"type":"function","name":"blockFromDeposits","inputs":[{"name":"account","type":"address","internalType":"address"}],"outputs":[],"stateMutability":"nonpayable"},{"type":"function","name":"borrower","inputs":[],"outputs":[{"name":"","type":"address","internalType":"address"}],"stateMutability":"view"},{"type":"function","name":"config","inputs":[],"outputs":[{"name":"","type":"uint256","internalType":"HooksDeploymentConfig"}],"stateMutability":"view"},{"type":"function","name":"factory","inputs":[],"outputs":[{"name":"","type":"address","internalType":"address"}],"stateMutability":"view"},{"type":"function","name":"getHookedMarket","inputs":[{"name":"marketAddress","type":"address","internalType":"address"}],"outputs":[{"name":"","type":"tuple","internalType":"struct HookedMarket","components":[{"name":"isHooked","type":"bool","internalType":"bool"},{"name":"transferRequiresAccess","type":"bool","internalType":"bool"},{"name":"depositRequiresAccess","type":"bool","internalType":"bool"},{"name":"minimumDeposit","type":"uint128","internalType":"uint128"}]}],"stateMutability":"view"},{"type":"function","name":"getLenderStatus","inputs":[{"name":"accountAddress","type":"address","internalType":"address"}],"outputs":[{"name":"status","type":"tuple","internalType":"struct LenderStatus","components":[{"name":"isBlockedFromDeposits","type":"bool","internalType":"bool"},{"name":"lastProvider","type":"address","internalType":"address"},{"name":"canRefresh","type":"bool","internalType":"bool"},{"name":"lastApprovalTimestamp","type":"uint32","internalType":"uint32"}]}],"stateMutability":"view"},{"type":"function","name":"getParameterConstraints","inputs":[],"outputs":[{"name":"constraints","type":"tuple","internalType":"struct MarketParameterConstraints","components":[{"name":"minimumDelinquencyGracePeriod","type":"uint32","internalType":"uint32"},{"name":"maximumDelinquencyGracePeriod","type":"uint32","internalType":"uint32"},{"name":"minimumReserveRatioBips","type":"uint16","internalType":"uint16"},{"name":"maximumReserveRatioBips","type":"uint16","internalType":"uint16"},{"name":"minimumDelinquencyFeeBips","type":"uint16","internalType":"uint16"},{"name":"maximumDelinquencyFeeBips","type":"uint16","internalType":"uint16"},{"name":"minimumWithdrawalBatchDuration","type":"uint32","internalType":"uint32"},{"name":"maximumWithdrawalBatchDuration","type":"uint32","internalType":"uint32"},{"name":"minimumAnnualInterestBips","type":"uint16","internalType":"uint16"},{"name":"maximumAnnualInterestBips","type":"uint16","internalType":"uint16"}]}],"stateMutability":"pure"},{"type":"function","name":"getPreviousLenderStatus","inputs":[{"name":"accountAddress","type":"address","internalType":"address"}],"outputs":[{"name":"status","type":"tuple","internalType":"struct LenderStatus","components":[{"name":"isBlockedFromDeposits","type":"bool","internalType":"bool"},{"name":"lastProvider","type":"address","internalType":"address"},{"name":"canRefresh","type":"bool","internalType":"bool"},{"name":"lastApprovalTimestamp","type":"uint32","internalType":"uint32"}]}],"stateMutability":"view"},{"type":"function","name":"getPullProviders","inputs":[],"outputs":[{"name":"","type":"uint256[]","internalType":"RoleProvider[]"}],"stateMutability":"view"},{"type":"function","name":"getRoleProvider","inputs":[{"name":"providerAddress","type":"address","internalType":"address"}],"outputs":[{"name":"","type":"uint256","internalType":"RoleProvider"}],"stateMutability":"view"},{"type":"function","name":"grantRole","inputs":[{"name":"account","type":"address","internalType":"address"},{"name":"roleGrantedTimestamp","type":"uint32","internalType":"uint32"}],"outputs":[],"stateMutability":"nonpayable"},{"type":"function","name":"grantRoles","inputs":[{"name":"accounts","type":"address[]","internalType":"address[]"},{"name":"roleGrantedTimestamps","type":"uint32[]","internalType":"uint32[]"}],"outputs":[],"stateMutability":"nonpayable"},{"type":"function","name":"isKnownLenderOnMarket","inputs":[{"name":"lender","type":"address","internalType":"address"},{"name":"market","type":"address","internalType":"address"}],"outputs":[{"name":"","type":"bool","internalType":"bool"}],"stateMutability":"view"},{"type":"function","name":"onBorrow","inputs":[{"name":"","type":"uint256","internalType":"uint256"},{"name":"","type":"tuple","internalType":"struct MarketState","components":[{"name":"isClosed","type":"bool","internalType":"bool"},{"name":"maxTotalSupply","type":"uint128","internalType":"uint128"},{"name":"accruedProtocolFees","type":"uint128","internalType":"uint128"},{"name":"normalizedUnclaimedWithdrawals","type":"uint128","internalType":"uint128"},{"name":"scaledTotalSupply","type":"uint104","internalType":"uint104"},{"name":"scaledPendingWithdrawals","type":"uint104","internalType":"uint104"},{"name":"pendingWithdrawalExpiry","type":"uint32","internalType":"uint32"},{"name":"isDelinquent","type":"bool","internalType":"bool"},{"name":"timeDelinquent","type":"uint32","internalType":"uint32"},{"name":"protocolFeeBips","type":"uint16","internalType":"uint16"},{"name":"annualInterestBips","type":"uint16","internalType":"uint16"},{"name":"reserveRatioBips","type":"uint16","internalType":"uint16"},{"name":"scaleFactor","type":"uint112","internalType":"uint112"},{"name":"lastInterestAccruedTimestamp","type":"uint32","internalType":"uint32"}]},{"name":"","type":"bytes","internalType":"bytes"}],"outputs":[],"stateMutability":"nonpayable"},{"type":"function","name":"onCloseMarket","inputs":[{"name":"","type":"tuple","internalType":"struct MarketState","components":[{"name":"isClosed","type":"bool","internalType":"bool"},{"name":"maxTotalSupply","type":"uint128","internalType":"uint128"},{"name":"accruedProtocolFees","type":"uint128","internalType":"uint128"},{"name":"normalizedUnclaimedWithdrawals","type":"uint128","internalType":"uint128"},{"name":"scaledTotalSupply","type":"uint104","internalType":"uint104"},{"name":"scaledPendingWithdrawals","type":"uint104","internalType":"uint104"},{"name":"pendingWithdrawalExpiry","type":"uint32","internalType":"uint32"},{"name":"isDelinquent","type":"bool","internalType":"bool"},{"name":"timeDelinquent","type":"uint32","internalType":"uint32"},{"name":"protocolFeeBips","type":"uint16","internalType":"uint16"},{"name":"annualInterestBips","type":"uint16","internalType":"uint16"},{"name":"reserveRatioBips","type":"uint16","internalType":"uint16"},{"name":"scaleFactor","type":"uint112","internalType":"uint112"},{"name":"lastInterestAccruedTimestamp","type":"uint32","internalType":"uint32"}]},{"name":"","type":"bytes","internalType":"bytes"}],"outputs":[],"stateMutability":"nonpayable"},{"type":"function","name":"onCreateMarket","inputs":[{"name":"deployer","type":"address","internalType":"address"},{"name":"marketAddress","type":"address","internalType":"address"},{"name":"parameters","type":"tuple","internalType":"struct DeployMarketInputs","components":[{"name":"asset","type":"address","internalType":"address"},{"name":"namePrefix","type":"string","internalType":"string"},{"name":"symbolPrefix","type":"string","internalType":"string"},{"name":"maxTotalSupply","type":"uint128","internalType":"uint128"},{"name":"annualInterestBips","type":"uint16","internalType":"uint16"},{"name":"delinquencyFeeBips","type":"uint16","internalType":"uint16"},{"name":"withdrawalBatchDuration","type":"uint32","internalType":"uint32"},{"name":"reserveRatioBips","type":"uint16","internalType":"uint16"},{"name":"delinquencyGracePeriod","type":"uint32","internalType":"uint32"},{"name":"hooks","type":"uint256","internalType":"HooksConfig"}]},{"name":"extraData","type":"bytes","internalType":"bytes"}],"outputs":[{"name":"","type":"uint256","internalType":"HooksConfig"}],"stateMutability":"nonpayable"},{"type":"function","name":"onDeposit","inputs":[{"name":"lender","type":"address","internalType":"address"},{"name":"scaledAmount","type":"uint256","internalType":"uint256"},{"name":"state","type":"tuple","internalType":"struct MarketState","components":[{"name":"isClosed","type":"bool","internalType":"bool"},{"name":"maxTotalSupply","type":"uint128","internalType":"uint128"},{"name":"accruedProtocolFees","type":"uint128","internalType":"uint128"},{"name":"normalizedUnclaimedWithdrawals","type":"uint128","internalType":"uint128"},{"name":"scaledTotalSupply","type":"uint104","internalType":"uint104"},{"name":"scaledPendingWithdrawals","type":"uint104","internalType":"uint104"},{"name":"pendingWithdrawalExpiry","type":"uint32","internalType":"uint32"},{"name":"isDelinquent","type":"bool","internalType":"bool"},{"name":"timeDelinquent","type":"uint32","internalType":"uint32"},{"name":"protocolFeeBips","type":"uint16","internalType":"uint16"},{"name":"annualInterestBips","type":"uint16","internalType":"uint16"},{"name":"reserveRatioBips","type":"uint16","internalType":"uint16"},{"name":"scaleFactor","type":"uint112","internalType":"uint112"},{"name":"lastInterestAccruedTimestamp","type":"uint32","internalType":"uint32"}]},{"name":"hooksData","type":"bytes","internalType":"bytes"}],"outputs":[],"stateMutability":"nonpayable"},{"type":"function","name":"onExecuteWithdrawal","inputs":[{"name":"lender","type":"address","internalType":"address"},{"name":"","type":"uint128","internalType":"uint128"},{"name":"","type":"tuple","internalType":"struct MarketState","components":[{"name":"isClosed","type":"bool","internalType":"bool"},{"name":"maxTotalSupply","type":"uint128","internalType":"uint128"},{"name":"accruedProtocolFees","type":"uint128","internalType":"uint128"},{"name":"normalizedUnclaimedWithdrawals","type":"uint128","internalType":"uint128"},{"name":"scaledTotalSupply","type":"uint104","internalType":"uint104"},{"name":"scaledPendingWithdrawals","type":"uint104","internalType":"uint104"},{"name":"pendingWithdrawalExpiry","type":"uint32","internalType":"uint32"},{"name":"isDelinquent","type":"bool","internalType":"bool"},{"name":"timeDelinquent","type":"uint32","internalType":"uint32"},{"name":"protocolFeeBips","type":"uint16","internalType":"uint16"},{"name":"annualInterestBips","type":"uint16","internalType":"uint16"},{"name":"reserveRatioBips","type":"uint16","internalType":"uint16"},{"name":"scaleFactor","type":"uint112","internalType":"uint112"},{"name":"lastInterestAccruedTimestamp","type":"uint32","internalType":"uint32"}]},{"name":"hooksData","type":"bytes","internalType":"bytes"}],"outputs":[],"stateMutability":"nonpayable"},{"type":"function","name":"onNukeFromOrbit","inputs":[{"name":"","type":"address","internalType":"address"},{"name":"","type":"tuple","internalType":"struct MarketState","components":[{"name":"isClosed","type":"bool","internalType":"bool"},{"name":"maxTotalSupply","type":"uint128","internalType":"uint128"},{"name":"accruedProtocolFees","type":"uint128","internalType":"uint128"},{"name":"normalizedUnclaimedWithdrawals","type":"uint128","internalType":"uint128"},{"name":"scaledTotalSupply","type":"uint104","internalType":"uint104"},{"name":"scaledPendingWithdrawals","type":"uint104","internalType":"uint104"},{"name":"pendingWithdrawalExpiry","type":"uint32","internalType":"uint32"},{"name":"isDelinquent","type":"bool","internalType":"bool"},{"name":"timeDelinquent","type":"uint32","internalType":"uint32"},{"name":"protocolFeeBips","type":"uint16","internalType":"uint16"},{"name":"annualInterestBips","type":"uint16","internalType":"uint16"},{"name":"reserveRatioBips","type":"uint16","internalType":"uint16"},{"name":"scaleFactor","type":"uint112","internalType":"uint112"},{"name":"lastInterestAccruedTimestamp","type":"uint32","internalType":"uint32"}]},{"name":"","type":"bytes","internalType":"bytes"}],"outputs":[],"stateMutability":"nonpayable"},{"type":"function","name":"onQueueWithdrawal","inputs":[{"name":"lender","type":"address","internalType":"address"},{"name":"","type":"uint32","internalType":"uint32"},{"name":"","type":"uint256","internalType":"uint256"},{"name":"","type":"tuple","internalType":"struct MarketState","components":[{"name":"isClosed","type":"bool","internalType":"bool"},{"name":"maxTotalSupply","type":"uint128","internalType":"uint128"},{"name":"accruedProtocolFees","type":"uint128","internalType":"uint128"},{"name":"normalizedUnclaimedWithdrawals","type":"uint128","internalType":"uint128"},{"name":"scaledTotalSupply","type":"uint104","internalType":"uint104"},{"name":"scaledPendingWithdrawals","type":"uint104","internalType":"uint104"},{"name":"pendingWithdrawalExpiry","type":"uint32","internalType":"uint32"},{"name":"isDelinquent","type":"bool","internalType":"bool"},{"name":"timeDelinquent","type":"uint32","internalType":"uint32"},{"name":"protocolFeeBips","type":"uint16","internalType":"uint16"},{"name":"annualInterestBips","type":"uint16","internalType":"uint16"},{"name":"reserveRatioBips","type":"uint16","internalType":"uint16"},{"name":"scaleFactor","type":"uint112","internalType":"uint112"},{"name":"lastInterestAccruedTimestamp","type":"uint32","internalType":"uint32"}]},{"name":"hooksData","type":"bytes","internalType":"bytes"}],"outputs":[],"stateMutability":"nonpayable"},{"type":"function","name":"onRepay","inputs":[{"name":"normalizedAmount","type":"uint256","internalType":"uint256"},{"name":"state","type":"tuple","internalType":"struct MarketState","components":[{"name":"isClosed","type":"bool","internalType":"bool"},{"name":"maxTotalSupply","type":"uint128","internalType":"uint128"},{"name":"accruedProtocolFees","type":"uint128","internalType":"uint128"},{"name":"normalizedUnclaimedWithdrawals","type":"uint128","internalType":"uint128"},{"name":"scaledTotalSupply","type":"uint104","internalType":"uint104"},{"name":"scaledPendingWithdrawals","type":"uint104","internalType":"uint104"},{"name":"pendingWithdrawalExpiry","type":"uint32","internalType":"uint32"},{"name":"isDelinquent","type":"bool","internalType":"bool"},{"name":"timeDelinquent","type":"uint32","internalType":"uint32"},{"name":"protocolFeeBips","type":"uint16","internalType":"uint16"},{"name":"annualInterestBips","type":"uint16","internalType":"uint16"},{"name":"reserveRatioBips","type":"uint16","internalType":"uint16"},{"name":"scaleFactor","type":"uint112","internalType":"uint112"},{"name":"lastInterestAccruedTimestamp","type":"uint32","internalType":"uint32"}]},{"name":"hooksData","type":"bytes","internalType":"bytes"}],"outputs":[],"stateMutability":"nonpayable"},{"type":"function","name":"onSetAnnualInterestAndReserveRatioBips","inputs":[{"name":"annualInterestBips","type":"uint16","internalType":"uint16"},{"name":"reserveRatioBips","type":"uint16","internalType":"uint16"},{"name":"intermediateState","type":"tuple","internalType":"struct MarketState","components":[{"name":"isClosed","type":"bool","internalType":"bool"},{"name":"maxTotalSupply","type":"uint128","internalType":"uint128"},{"name":"accruedProtocolFees","type":"uint128","internalType":"uint128"},{"name":"normalizedUnclaimedWithdrawals","type":"uint128","internalType":"uint128"},{"name":"scaledTotalSupply","type":"uint104","internalType":"uint104"},{"name":"scaledPendingWithdrawals","type":"uint104","internalType":"uint104"},{"name":"pendingWithdrawalExpiry","type":"uint32","internalType":"uint32"},{"name":"isDelinquent","type":"bool","internalType":"bool"},{"name":"timeDelinquent","type":"uint32","internalType":"uint32"},{"name":"protocolFeeBips","type":"uint16","internalType":"uint16"},{"name":"annualInterestBips","type":"uint16","internalType":"uint16"},{"name":"reserveRatioBips","type":"uint16","internalType":"uint16"},{"name":"scaleFactor","type":"uint112","internalType":"uint112"},{"name":"lastInterestAccruedTimestamp","type":"uint32","internalType":"uint32"}]},{"name":"hooksData","type":"bytes","internalType":"bytes"}],"outputs":[{"name":"updatedAnnualInterestBips","type":"uint16","internalType":"uint16"},{"name":"updatedReserveRatioBips","type":"uint16","internalType":"uint16"}],"stateMutability":"nonpayable"},{"type":"function","name":"onSetMaxTotalSupply","inputs":[{"name":"","type":"uint256","internalType":"uint256"},{"name":"","type":"tuple","internalType":"struct MarketState","components":[{"name":"isClosed","type":"bool","internalType":"bool"},{"name":"maxTotalSupply","type":"uint128","internalType":"uint128"},{"name":"accruedProtocolFees","type":"uint128","internalType":"uint128"},{"name":"normalizedUnclaimedWithdrawals","type":"uint128","internalType":"uint128"},{"name":"scaledTotalSupply","type":"uint104","internalType":"uint104"},{"name":"scaledPendingWithdrawals","type":"uint104","internalType":"uint104"},{"name":"pendingWithdrawalExpiry","type":"uint32","internalType":"uint32"},{"name":"isDelinquent","type":"bool","internalType":"bool"},{"name":"timeDelinquent","type":"uint32","internalType":"uint32"},{"name":"protocolFeeBips","type":"uint16","internalType":"uint16"},{"name":"annualInterestBips","type":"uint16","internalType":"uint16"},{"name":"reserveRatioBips","type":"uint16","internalType":"uint16"},{"name":"scaleFactor","type":"uint112","internalType":"uint112"},{"name":"lastInterestAccruedTimestamp","type":"uint32","internalType":"uint32"}]},{"name":"","type":"bytes","internalType":"bytes"}],"outputs":[],"stateMutability":"nonpayable"},{"type":"function","name":"onSetProtocolFeeBips","inputs":[{"name":"","type":"uint16","internalType":"uint16"},{"name":"","type":"tuple","internalType":"struct MarketState","components":[{"name":"isClosed","type":"bool","internalType":"bool"},{"name":"maxTotalSupply","type":"uint128","internalType":"uint128"},{"name":"accruedProtocolFees","type":"uint128","internalType":"uint128"},{"name":"normalizedUnclaimedWithdrawals","type":"uint128","internalType":"uint128"},{"name":"scaledTotalSupply","type":"uint104","internalType":"uint104"},{"name":"scaledPendingWithdrawals","type":"uint104","internalType":"uint104"},{"name":"pendingWithdrawalExpiry","type":"uint32","internalType":"uint32"},{"name":"isDelinquent","type":"bool","internalType":"bool"},{"name":"timeDelinquent","type":"uint32","internalType":"uint32"},{"name":"protocolFeeBips","type":"uint16","internalType":"uint16"},{"name":"annualInterestBips","type":"uint16","internalType":"uint16"},{"name":"reserveRatioBips","type":"uint16","internalType":"uint16"},{"name":"scaleFactor","type":"uint112","internalType":"uint112"},{"name":"lastInterestAccruedTimestamp","type":"uint32","internalType":"uint32"}]},{"name":"","type":"bytes","internalType":"bytes"}],"outputs":[],"stateMutability":"nonpayable"},{"type":"function","name":"onTransfer","inputs":[{"name":"","type":"address","internalType":"address"},{"name":"","type":"address","internalType":"address"},{"name":"to","type":"address","internalType":"address"},{"name":"","type":"uint256","internalType":"uint256"},{"name":"","type":"tuple","internalType":"struct MarketState","components":[{"name":"isClosed","type":"bool","internalType":"bool"},{"name":"maxTotalSupply","type":"uint128","internalType":"uint128"},{"name":"accruedProtocolFees","type":"uint128","internalType":"uint128"},{"name":"normalizedUnclaimedWithdrawals","type":"uint128","internalType":"uint128"},{"name":"scaledTotalSupply","type":"uint104","internalType":"uint104"},{"name":"scaledPendingWithdrawals","type":"uint104","internalType":"uint104"},{"name":"pendingWithdrawalExpiry","type":"uint32","internalType":"uint32"},{"name":"isDelinquent","type":"bool","internalType":"bool"},{"name":"timeDelinquent","type":"uint32","internalType":"uint32"},{"name":"protocolFeeBips","type":"uint16","internalType":"uint16"},{"name":"annualInterestBips","type":"uint16","internalType":"uint16"},{"name":"reserveRatioBips","type":"uint16","internalType":"uint16"},{"name":"scaleFactor","type":"uint112","internalType":"uint112"},{"name":"lastInterestAccruedTimestamp","type":"uint32","internalType":"uint32"}]},{"name":"extraData","type":"bytes","internalType":"bytes"}],"outputs":[],"stateMutability":"nonpayable"},{"type":"function","name":"removeRoleProvider","inputs":[{"name":"providerAddress","type":"address","internalType":"address"}],"outputs":[],"stateMutability":"nonpayable"},{"type":"function","name":"revokeRole","inputs":[{"name":"account","type":"address","internalType":"address"}],"outputs":[],"stateMutability":"nonpayable"},{"type":"function","name":"setIsKnownLender","inputs":[{"name":"accountAddress","type":"address","internalType":"address"},{"name":"marketAddress","type":"address","internalType":"address"},{"name":"isKnownLender","type":"bool","internalType":"bool"}],"outputs":[],"stateMutability":"nonpayable"},{"type":"function","name":"setMinimumDeposit","inputs":[{"name":"market","type":"address","internalType":"address"},{"name":"newMinimumDeposit","type":"uint128","internalType":"uint128"}],"outputs":[],"stateMutability":"nonpayable"},{"type":"function","name":"temporaryExcessReserveRatio","inputs":[{"name":"","type":"address","internalType":"address"}],"outputs":[{"name":"originalAnnualInterestBips","type":"uint16","internalType":"uint16"},{"name":"originalReserveRatioBips","type":"uint16","internalType":"uint16"},{"name":"expiry","type":"uint32","internalType":"uint32"}],"stateMutability":"view"},{"type":"function","name":"tryValidateAccess","inputs":[{"name":"accountAddress","type":"address","internalType":"address"},{"name":"hooksData","type":"bytes","internalType":"bytes"}],"outputs":[{"name":"hasValidCredential","type":"bool","internalType":"bool"},{"name":"wasUpdated","type":"bool","internalType":"bool"}],"stateMutability":"nonpayable"},{"type":"function","name":"unblockFromDeposits","inputs":[{"name":"account","type":"address","internalType":"address"}],"outputs":[],"stateMutability":"nonpayable"},{"type":"function","name":"version","inputs":[],"outputs":[{"name":"","type":"string","internalType":"string"}],"stateMutability":"pure"},{"type":"event","name":"AccountAccessGranted","inputs":[{"name":"providerAddress","type":"address","indexed":true,"internalType":"address"},{"name":"accountAddress","type":"address","indexed":true,"internalType":"address"},{"name":"credentialTimestamp","type":"uint32","indexed":false,"internalType":"uint32"}],"anonymous":false},{"type":"event","name":"AccountAccessRevoked","inputs":[{"name":"accountAddress","type":"address","indexed":true,"internalType":"address"}],"anonymous":false},{"type":"event","name":"AccountBlockedFromDeposits","inputs":[{"name":"accountAddress","type":"address","indexed":true,"internalType":"address"}],"anonymous":false},{"type":"event","name":"AccountMadeFirstDeposit","inputs":[{"name":"accountAddress","type":"address","indexed":true,"internalType":"address"}],"anonymous":false},{"type":"event","name":"AccountUnblockedFromDeposits","inputs":[{"name":"accountAddress","type":"address","indexed":true,"internalType":"address"}],"anonymous":false},{"type":"event","name":"MinimumDepositUpdated","inputs":[{"name":"market","type":"address","indexed":false,"internalType":"address"},{"name":"newMinimumDeposit","type":"uint128","indexed":false,"internalType":"uint128"}],"anonymous":false},{"type":"event","name":"RoleProviderAdded","inputs":[{"name":"providerAddress","type":"address","indexed":true,"internalType":"address"},{"name":"timeToLive","type":"uint32","indexed":false,"internalType":"uint32"},{"name":"pullProviderIndex","type":"uint24","indexed":false,"internalType":"uint24"}],"anonymous":false},{"type":"event","name":"RoleProviderRemoved","inputs":[{"name":"providerAddress","type":"address","indexed":true,"internalType":"address"},{"name":"pullProviderIndex","type":"uint24","indexed":false,"internalType":"uint24"}],"anonymous":false},{"type":"event","name":"RoleProviderUpdated","inputs":[{"name":"providerAddress","type":"address","indexed":true,"internalType":"address"},{"name":"timeToLive","type":"uint32","indexed":false,"internalType":"uint32"},{"name":"pullProviderIndex","type":"uint24","indexed":false,"internalType":"uint24"}],"anonymous":false},{"type":"event","name":"TemporaryExcessReserveRatioActivated","inputs":[{"name":"market","type":"address","indexed":true,"internalType":"address"},{"name":"originalReserveRatioBips","type":"uint256","indexed":false,"internalType":"uint256"},{"name":"temporaryReserveRatioBips","type":"uint256","indexed":false,"internalType":"uint256"},{"name":"temporaryReserveRatioExpiry","type":"uint256","indexed":false,"internalType":"uint256"}],"anonymous":false},{"type":"event","name":"TemporaryExcessReserveRatioCanceled","inputs":[{"name":"market","type":"address","indexed":true,"internalType":"address"}],"anonymous":false},{"type":"event","name":"TemporaryExcessReserveRatioExpired","inputs":[{"name":"market","type":"address","indexed":true,"internalType":"address"}],"anonymous":false},{"type":"event","name":"TemporaryExcessReserveRatioUpdated","inputs":[{"name":"market","type":"address","indexed":true,"internalType":"address"},{"name":"originalReserveRatioBips","type":"uint256","indexed":false,"internalType":"uint256"},{"name":"temporaryReserveRatioBips","type":"uint256","indexed":false,"internalType":"uint256"},{"name":"temporaryReserveRatioExpiry","type":"uint256","indexed":false,"internalType":"uint256"}],"anonymous":false},{"type":"error","name":"AnnualInterestBipsOutOfBounds","inputs":[]},{"type":"error","name":"CallerNotBorrower","inputs":[]},{"type":"error","name":"CallerNotFactory","inputs":[]},{"type":"error","name":"DelinquencyFeeBipsOutOfBounds","inputs":[]},{"type":"error","name":"DelinquencyGracePeriodOutOfBounds","inputs":[]},{"type":"error","name":"DepositBelowMinimum","inputs":[]},{"type":"error","name":"GrantedCredentialExpired","inputs":[]},{"type":"error","name":"InvalidArrayLength","inputs":[]},{"type":"error","name":"InvalidCredentialReturned","inputs":[]},{"type":"error","name":"NotApprovedLender","inputs":[]},{"type":"error","name":"NotHookedMarket","inputs":[]},{"type":"error","name":"ProviderCanNotReplaceCredential","inputs":[]},{"type":"error","name":"ProviderCanNotRevokeCredential","inputs":[]},{"type":"error","name":"ProviderNotFound","inputs":[]},{"type":"error","name":"ReserveRatioBipsOutOfBounds","inputs":[]},{"type":"error","name":"WithdrawalBatchDurationOutOfBounds","inputs":[]}],"bytecode":{"object":"0x60e060405234801561000f575f80fd5b50604051615e02380380615e028339818101604052810190610031919061026d565b8060405180602001604052805f8152503373ffffffffffffffffffffffffffffffffffffffff1660808173ffffffffffffffffffffffffffffffffffffffff16815250508173ffffffffffffffffffffffffffffffffffffffff1660a08173ffffffffffffffffffffffffffffffffffffffff16815250506100c163ffffffff8362ffffff61015960201b60201c565b60045f8473ffffffffffffffffffffffffffffffffffffffff1673ffffffffffffffffffffffffffffffffffffffff1681526020019081526020015f20819055505f61011f5f6001805f60015f805f805f805f61017160201b60201c565b90505f61013660565f6101e060201b90919060201c565b905061014882826101ef60201b60201c565b60c081815250505050505050610298565b5f8160281b8360401b8560e01b171790509392505050565b5f8c60601b90508b605f1b811790508a605e1b8117905089605d1b8117905088605c1b8117905087605b1b8117905086605a1b811790508560591b811790508460581b811790508360571b811790508260561b811790508160551b811790509c9b505050505050505050505050565b5f6001821b8317905092915050565b5f8260501c61ffff168260401c63ffff0000168082179250505092915050565b5f80fd5b5f73ffffffffffffffffffffffffffffffffffffffff82169050919050565b5f61023c82610213565b9050919050565b61024c81610232565b8114610256575f80fd5b50565b5f8151905061026781610243565b92915050565b5f602082840312156102825761028161020f565b5b5f61028f84828501610259565b91505092915050565b60805160a05160c051615b086102fa5f395f818161177b0152612d8f01525f818161068c015281816109a40152818161179f01528181611a6901528181612216015281816126f70152612c2801525f8181610d2901526126b60152615b085ff3fe608060405234801561000f575f80fd5b5060043610610204575f3560e01c80638adfe0f811610118578063aa948689116100ab578063bfd269be1161007a578063bfd269be146105b7578063c45a0155146105e7578063cc45264214610605578063ea5b13bd14610636578063feb368e21461065257610204565b8063aa94868914610533578063b037096d1461054f578063b1cfda0d1461057f578063be47fd611461059b57610204565b80639ecc64e6116100e75780639ecc64e6146104ad578063a018f90e146104c9578063a11ef067146104e5578063a9ff2dbf1461050357610204565b80638adfe0f81461043b5780638b3ce9b3146104575780638f8ef419146104735780639d2a76fe1461049157610204565b806354fd4d501161019b57806379502c551161016a57806379502c55146103ab5780637df1f1b9146103c957806380e52e3f146103e757806383d9e1eb14610403578063849da1291461041f57610204565b806354fd4d50146103245780635aeb713f146103425780636573fe741461035e5780636b2b369b1461038f57610204565b806328fd0307116101d757806328fd03071461028c5780632970403d146102bc5780632ccf4667146102d85780633521cccc1461030857610204565b806303473d8d14610208578063064ed53b146102245780631c4b36941461024057806322a4a19f1461025c575b5f80fd5b610222600480360381019061021d9190614956565b610684565b005b61023e60048036038101906102399190614a23565b61068a565b005b61025a60048036038101906102559190614a4e565b6109a2565b005b61027660048036038101906102719190614a23565b610b25565b6040516102839190614b0c565b60405180910390f35b6102a660048036038101906102a19190614b48565b610d26565b6040516102b39190614c2a565b60405180910390f35b6102d660048036038101906102d19190614c62565b610dc4565b005b6102f260048036038101906102ed9190614a23565b610dcb565b6040516102ff9190614d4a565b60405180910390f35b610322600480360381019061031d9190614d8d565b610eb8565b005b61032c61108b565b6040516103399190614e85565b60405180910390f35b61035c60048036038101906103579190614ea5565b6110c8565b005b61037860048036038101906103739190614f2b565b61141c565b604051610386929190614f97565b60405180910390f35b6103a960048036038101906103a49190614fbe565b6116e8565b005b6103b3611779565b6040516103c0919061500b565b60405180910390f35b6103d161179d565b6040516103de9190615033565b60405180910390f35b61040160048036038101906103fc9190614a23565b6117c1565b005b61041d6004803603810190610418919061504c565b611a5b565b005b6104396004803603810190610434919061504c565b611a61565b005b61045560048036038101906104509190614a23565b611a67565b005b610471600480360381019061046c91906150bf565b611c29565b005b61047b611c2f565b60405161048891906151e9565b60405180910390f35b6104ab60048036038101906104a69190615389565b611c85565b005b6104c760048036038101906104c291906153ff565b611d9e565b005b6104e360048036038101906104de919061545e565b611da3565b005b6104ed6120f9565b6040516104fa91906155e3565b60405180910390f35b61051d600480360381019061051891906155fd565b6121ea565b60405161052a919061563b565b60405180910390f35b61054d60048036038101906105489190614a23565b612214565b005b61056960048036038101906105649190614a23565b6124d0565b6040516105769190614b0c565b60405180910390f35b6105996004803603810190610594919061504c565b6125d4565b005b6105b560048036038101906105b09190615654565b6125da565b005b6105d160048036038101906105cc9190614a23565b61266e565b6040516105de91906156b3565b60405180910390f35b6105ef6126b4565b6040516105fc9190615033565b60405180910390f35b61061f600480360381019061061a91906156cc565b6126d8565b60405161062d929190615761565b60405180910390f35b610650600480360381019061064b9190614fbe565b6126f5565b005b61066c60048036038101906106679190614a23565b6129dc565b60405161067b93929190615797565b60405180910390f35b50505050565b7f000000000000000000000000000000000000000000000000000000000000000073ffffffffffffffffffffffffffffffffffffffff163373ffffffffffffffffffffffffffffffffffffffff161461070f576040517f3c698d7900000000000000000000000000000000000000000000000000000000815260040160405180910390fd5b5f60015f8373ffffffffffffffffffffffffffffffffffffffff1673ffffffffffffffffffffffffffffffffffffffff1681526020019081526020015f206040518060800160405290815f82015f9054906101000a900460ff161515151581526020015f820160019054906101000a900473ffffffffffffffffffffffffffffffffffffffff1673ffffffffffffffffffffffffffffffffffffffff1673ffffffffffffffffffffffffffffffffffffffff1681526020015f820160159054906101000a900460ff161515151581526020015f820160169054906101000a900463ffffffff1663ffffffff1663ffffffff1681525050905061081081612a2a565b156108625761081e81612a3f565b8173ffffffffffffffffffffffffffffffffffffffff167f47695aa96e09db0d106b9bd402979d6aff7e51ada06ec6fe014e5eeadd8c1dc060405160405180910390a25b6001815f0190151590811515815250508060015f8473ffffffffffffffffffffffffffffffffffffffff1673ffffffffffffffffffffffffffffffffffffffff1681526020019081526020015f205f820151815f015f6101000a81548160ff0219169083151502179055506020820151815f0160016101000a81548173ffffffffffffffffffffffffffffffffffffffff021916908373ffffffffffffffffffffffffffffffffffffffff1602179055506040820151815f0160156101000a81548160ff0219169083151502179055506060820151815f0160166101000a81548163ffffffff021916908363ffffffff1602179055509050508173ffffffffffffffffffffffffffffffffffffffff167f25b0d1830e0d487402e2c828de3ccbc9d16bd911aaec75fbba1bffd32657fad460405160405180910390a25050565b7f000000000000000000000000000000000000000000000000000000000000000073ffffffffffffffffffffffffffffffffffffffff163373ffffffffffffffffffffffffffffffffffffffff1614610a27576040517f3c698d7900000000000000000000000000000000000000000000000000000000815260040160405180910390fd5b5f60055f8473ffffffffffffffffffffffffffffffffffffffff1673ffffffffffffffffffffffffffffffffffffffff1681526020019081526020015f209050805f015f9054906101000a900460ff16610aad576040517fb217907b00000000000000000000000000000000000000000000000000000000815260040160405180910390fd5b81815f0160036101000a8154816fffffffffffffffffffffffffffffffff02191690836fffffffffffffffffffffffffffffffff1602179055507f4e39f53293455dca8fe1725b2dfcbe6abd2f44d777b7f2a7279526e17d7ebede8383604051610b189291906157db565b60405180910390a1505050565b610b2d6144a5565b60015f8373ffffffffffffffffffffffffffffffffffffffff1673ffffffffffffffffffffffffffffffffffffffff1681526020019081526020015f206040518060800160405290815f82015f9054906101000a900460ff161515151581526020015f820160019054906101000a900473ffffffffffffffffffffffffffffffffffffffff1673ffffffffffffffffffffffffffffffffffffffff1673ffffffffffffffffffffffffffffffffffffffff1681526020015f820160159054906101000a900460ff161515151581526020015f820160169054906101000a900463ffffffff1663ffffffff1663ffffffff168152505090505f7fffffffffffffffffffffffffffffffffffffffffffffffffffffffffffffffff90505f826060015163ffffffff161115610d09575f60045f846020015173ffffffffffffffffffffffffffffffffffffffff1673ffffffffffffffffffffffffffffffffffffffff1681526020019081526020015f20549050610ca881612aa2565b610cfe57610cbf8184612aac90919063ffffffff16565b15610ccb575050610d21565b826040015115610cfd57610ce0838286612ad5565b15610cec575050610d21565b610cf581612b97565b62ffffff1691505b5b610d0783612a3f565b505b610d14828483612ba6565b15610d1f5750610d21565b505b919050565b5f7f000000000000000000000000000000000000000000000000000000000000000073ffffffffffffffffffffffffffffffffffffffff163373ffffffffffffffffffffffffffffffffffffffff1614610dac576040517fa84178ab00000000000000000000000000000000000000000000000000000000815260040160405180910390fd5b610db98686868686612c17565b905095945050505050565b5050505050565b610dd36144e9565b60055f8373ffffffffffffffffffffffffffffffffffffffff1673ffffffffffffffffffffffffffffffffffffffff1681526020019081526020015f206040518060800160405290815f82015f9054906101000a900460ff161515151581526020015f820160019054906101000a900460ff161515151581526020015f820160029054906101000a900460ff161515151581526020015f820160039054906101000a90046fffffffffffffffffffffffffffffffff166fffffffffffffffffffffffffffffffff166fffffffffffffffffffffffffffffffff16815250509050919050565b5f60015f8873ffffffffffffffffffffffffffffffffffffffff1673ffffffffffffffffffffffffffffffffffffffff1681526020019081526020015f206040518060800160405290815f82015f9054906101000a900460ff161515151581526020015f820160019054906101000a900473ffffffffffffffffffffffffffffffffffffffff1673ffffffffffffffffffffffffffffffffffffffff1673ffffffffffffffffffffffffffffffffffffffff1681526020015f820160159054906101000a900460ff161515151581526020015f820160169054906101000a900463ffffffff1663ffffffff1663ffffffff1681525050905060025f8873ffffffffffffffffffffffffffffffffffffffff1673ffffffffffffffffffffffffffffffffffffffff1681526020019081526020015f205f3373ffffffffffffffffffffffffffffffffffffffff1673ffffffffffffffffffffffffffffffffffffffff1681526020019081526020015f205f9054906101000a900460ff1615801561104b575061104981888585612ea4565b155b15611082576040517fe50a45ce00000000000000000000000000000000000000000000000000000000815260040160405180910390fd5b50505050505050565b60606040518060400160405280602081526020017f53696e676c65426f72726f776572416363657373436f6e74726f6c486f6f6b73815250905090565b5f60055f3373ffffffffffffffffffffffffffffffffffffffff1673ffffffffffffffffffffffffffffffffffffffff1681526020019081526020015f206040518060800160405290815f82015f9054906101000a900460ff161515151581526020015f820160019054906101000a900460ff161515151581526020015f820160029054906101000a900460ff161515151581526020015f820160039054906101000a90046fffffffffffffffffffffffffffffffff166fffffffffffffffffffffffffffffffff166fffffffffffffffffffffffffffffffff16815250509050805f01516111e3576040517fb217907b00000000000000000000000000000000000000000000000000000000815260040160405180910390fd5b5f60015f8873ffffffffffffffffffffffffffffffffffffffff1673ffffffffffffffffffffffffffffffffffffffff1681526020019081526020015f206040518060800160405290815f82015f9054906101000a900460ff161515151581526020015f820160019054906101000a900473ffffffffffffffffffffffffffffffffffffffff1673ffffffffffffffffffffffffffffffffffffffff1673ffffffffffffffffffffffffffffffffffffffff1681526020015f820160159054906101000a900460ff161515151581526020015f820160169054906101000a900463ffffffff1663ffffffff1663ffffffff16815250509050805f015115611316576040517fe50a45ce00000000000000000000000000000000000000000000000000000000815260040160405180910390fd5b5f61134d8661018001602081019061132e9190615802565b6dffffffffffffffffffffffffffff1688612ed090919063ffffffff16565b90508083606001516fffffffffffffffffffffffffffffffff16111561139f576040517fc24b1b6100000000000000000000000000000000000000000000000000000000815260040160405180910390fd5b5f806113ad848b8989612f26565b915091506113cb82158660400151151561308b90919063ffffffff16565b15611402576040517fe50a45ce00000000000000000000000000000000000000000000000000000000815260040160405180910390fd5b611410848b84846001613097565b50505050505050505050565b5f805f60015f8773ffffffffffffffffffffffffffffffffffffffff1673ffffffffffffffffffffffffffffffffffffffff1681526020019081526020015f206040518060800160405290815f82015f9054906101000a900460ff161515151581526020015f820160019054906101000a900473ffffffffffffffffffffffffffffffffffffffff1673ffffffffffffffffffffffffffffffffffffffff1673ffffffffffffffffffffffffffffffffffffffff1681526020015f820160159054906101000a900460ff161515151581526020015f820160169054906101000a900463ffffffff1663ffffffff1663ffffffff168152505090505f8160200151905061152a82888888612f26565b809450819550505082156116de578160015f8973ffffffffffffffffffffffffffffffffffffffff1673ffffffffffffffffffffffffffffffffffffffff1681526020019081526020015f205f820151815f015f6101000a81548160ff0219169083151502179055506020820151815f0160016101000a81548173ffffffffffffffffffffffffffffffffffffffff021916908373ffffffffffffffffffffffffffffffffffffffff1602179055506040820151815f0160156101000a81548160ff0219169083151502179055506060820151815f0160166101000a81548163ffffffff021916908363ffffffff1602179055509050508315611699578673ffffffffffffffffffffffffffffffffffffffff16826020015173ffffffffffffffffffffffffffffffffffffffff167fa04eb478c9c6a13a6de14b7eb31b1b629511e804c3cfef31bd549accd4b15524846060015160405161168c919061582d565b60405180910390a36116dd565b8673ffffffffffffffffffffffffffffffffffffffff167f47695aa96e09db0d106b9bd402979d6aff7e51ada06ec6fe014e5eeadd8c1dc060405160405180910390a25b5b5050935093915050565b5f60045f3373ffffffffffffffffffffffffffffffffffffffff1673ffffffffffffffffffffffffffffffffffffffff1681526020019081526020015f2054905061173281612aa2565b15611769576040517fb1cd090300000000000000000000000000000000000000000000000000000000815260040160405180910390fd5b6117748184846133d8565b505050565b7f000000000000000000000000000000000000000000000000000000000000000081565b7f000000000000000000000000000000000000000000000000000000000000000081565b5f60015f8373ffffffffffffffffffffffffffffffffffffffff1673ffffffffffffffffffffffffffffffffffffffff1681526020019081526020015f206040518060800160405290815f82015f9054906101000a900460ff161515151581526020015f820160019054906101000a900473ffffffffffffffffffffffffffffffffffffffff1673ffffffffffffffffffffffffffffffffffffffff1673ffffffffffffffffffffffffffffffffffffffff1681526020015f820160159054906101000a900460ff161515151581526020015f820160169054906101000a900463ffffffff1663ffffffff1663ffffffff168152505090503373ffffffffffffffffffffffffffffffffffffffff16816020015173ffffffffffffffffffffffffffffffffffffffff1614611922576040517f3a364f3d00000000000000000000000000000000000000000000000000000000815260040160405180910390fd5b61192b81612a3f565b8060015f8473ffffffffffffffffffffffffffffffffffffffff1673ffffffffffffffffffffffffffffffffffffffff1681526020019081526020015f205f820151815f015f6101000a81548160ff0219169083151502179055506020820151815f0160016101000a81548173ffffffffffffffffffffffffffffffffffffffff021916908373ffffffffffffffffffffffffffffffffffffffff1602179055506040820151815f0160156101000a81548160ff0219169083151502179055506060820151815f0160166101000a81548163ffffffff021916908363ffffffff1602179055509050508173ffffffffffffffffffffffffffffffffffffffff167f47695aa96e09db0d106b9bd402979d6aff7e51ada06ec6fe014e5eeadd8c1dc060405160405180910390a25050565b50505050565b50505050565b7f000000000000000000000000000000000000000000000000000000000000000073ffffffffffffffffffffffffffffffffffffffff163373ffffffffffffffffffffffffffffffffffffffff1614611aec576040517f3c698d7900000000000000000000000000000000000000000000000000000000815260040160405180910390fd5b5f60045f8373ffffffffffffffffffffffffffffffffffffffff1673ffffffffffffffffffffffffffffffffffffffff1681526020019081526020015f20549050611b3681612aa2565b15611b6d576040517fb1cd090300000000000000000000000000000000000000000000000000000000815260040160405180910390fd5b5f60045f8473ffffffffffffffffffffffffffffffffffffffff1673ffffffffffffffffffffffffffffffffffffffff1681526020019081526020015f20819055508173ffffffffffffffffffffffffffffffffffffffff167f096f563e3528747c50a40c54ef564a28b9321ffc1c310e29a97f067e06f59aad611bf083612b97565b604051611bfd9190615863565b60405180910390a2611c0e8161363c565b15611c2557611c24611c1f82612b97565b61365a565b5b5050565b50505050565b60606003805480602002602001604051908101604052809291908181526020018280548015611c7b57602002820191905f5260205f20905b815481526020019060010190808311611c67575b5050505050905090565b5f60045f3373ffffffffffffffffffffffffffffffffffffffff1673ffffffffffffffffffffffffffffffffffffffff1681526020019081526020015f20549050611ccf81612aa2565b15611d06576040517fb1cd090300000000000000000000000000000000000000000000000000000000815260040160405180910390fd5b8151835114611d41576040517f9d89020a00000000000000000000000000000000000000000000000000000000815260040160405180910390fd5b5f5b8351811015611d9857611d8b82858381518110611d6357611d6261587c565b5b6020026020010151858481518110611d7e57611d7d61587c565b5b60200260200101516133d8565b8080600101915050611d43565b50505050565b505050565b5f60055f3373ffffffffffffffffffffffffffffffffffffffff1673ffffffffffffffffffffffffffffffffffffffff1681526020019081526020015f206040518060800160405290815f82015f9054906101000a900460ff161515151581526020015f820160019054906101000a900460ff161515151581526020015f820160029054906101000a900460ff161515151581526020015f820160039054906101000a90046fffffffffffffffffffffffffffffffff166fffffffffffffffffffffffffffffffff166fffffffffffffffffffffffffffffffff16815250509050805f0151611ebe576040517fb217907b00000000000000000000000000000000000000000000000000000000815260040160405180910390fd5b60025f8773ffffffffffffffffffffffffffffffffffffffff1673ffffffffffffffffffffffffffffffffffffffff1681526020019081526020015f205f3373ffffffffffffffffffffffffffffffffffffffff1673ffffffffffffffffffffffffffffffffffffffff1681526020019081526020015f205f9054906101000a900460ff166120ef575f60015f8873ffffffffffffffffffffffffffffffffffffffff1673ffffffffffffffffffffffffffffffffffffffff1681526020019081526020015f206040518060800160405290815f82015f9054906101000a900460ff161515151581526020015f820160019054906101000a900473ffffffffffffffffffffffffffffffffffffffff1673ffffffffffffffffffffffffffffffffffffffff1673ffffffffffffffffffffffffffffffffffffffff1681526020015f820160159054906101000a900460ff161515151581526020015f820160169054906101000a900463ffffffff1663ffffffff1663ffffffff16815250509050805f01511561207a576040517fe50a45ce00000000000000000000000000000000000000000000000000000000815260040160405180910390fd5b5f80612088838a8888612f26565b915091506120a682158560200151151561308b90919063ffffffff16565b156120dd576040517fe50a45ce00000000000000000000000000000000000000000000000000000000815260040160405180910390fd5b6120eb838a84846001613097565b5050505b5050505050505050565b612101614525565b5f815f019063ffffffff16908163ffffffff16815250506276a700816020019063ffffffff16908163ffffffff16815250505f816040019061ffff16908161ffff1681525050612710816060019061ffff16908161ffff16815250505f816080019061ffff16908161ffff16815250506127108160a0019061ffff16908161ffff16815250505f8160c0019063ffffffff16908163ffffffff16815250506301e133808160e0019063ffffffff16908163ffffffff16815250505f81610100019061ffff16908161ffff168152505061271081610120019061ffff16908161ffff168152505090565b6002602052815f5260405f20602052805f5260405f205f915091509054906101000a900460ff1681565b7f000000000000000000000000000000000000000000000000000000000000000073ffffffffffffffffffffffffffffffffffffffff163373ffffffffffffffffffffffffffffffffffffffff1614612299576040517f3c698d7900000000000000000000000000000000000000000000000000000000815260040160405180910390fd5b5f60015f8373ffffffffffffffffffffffffffffffffffffffff1673ffffffffffffffffffffffffffffffffffffffff1681526020019081526020015f206040518060800160405290815f82015f9054906101000a900460ff161515151581526020015f820160019054906101000a900473ffffffffffffffffffffffffffffffffffffffff1673ffffffffffffffffffffffffffffffffffffffff1673ffffffffffffffffffffffffffffffffffffffff1681526020015f820160159054906101000a900460ff161515151581526020015f820160169054906101000a900463ffffffff1663ffffffff1663ffffffff168152505090505f815f0190151590811515815250508060015f8473ffffffffffffffffffffffffffffffffffffffff1673ffffffffffffffffffffffffffffffffffffffff1681526020019081526020015f205f820151815f015f6101000a81548160ff0219169083151502179055506020820151815f0160016101000a81548173ffffffffffffffffffffffffffffffffffffffff021916908373ffffffffffffffffffffffffffffffffffffffff1602179055506040820151815f0160156101000a81548160ff0219169083151502179055506060820151815f0160166101000a81548163ffffffff021916908363ffffffff1602179055509050508173ffffffffffffffffffffffffffffffffffffffff167f7201a4017f7e2ac3b7164275daef1150d8fc64543b3f7196293722db50bc7fa060405160405180910390a25050565b6124d86144a5565b60015f8373ffffffffffffffffffffffffffffffffffffffff1673ffffffffffffffffffffffffffffffffffffffff1681526020019081526020015f206040518060800160405290815f82015f9054906101000a900460ff161515151581526020015f820160019054906101000a900473ffffffffffffffffffffffffffffffffffffffff1673ffffffffffffffffffffffffffffffffffffffff1673ffffffffffffffffffffffffffffffffffffffff1681526020015f820160159054906101000a900460ff161515151581526020015f820160169054906101000a900463ffffffff1663ffffffff1663ffffffff16815250509050919050565b50505050565b8060025f8573ffffffffffffffffffffffffffffffffffffffff1673ffffffffffffffffffffffffffffffffffffffff1681526020019081526020015f205f8473ffffffffffffffffffffffffffffffffffffffff1673ffffffffffffffffffffffffffffffffffffffff1681526020019081526020015f205f6101000a81548160ff021916908315150217905550505050565b5f60045f8373ffffffffffffffffffffffffffffffffffffffff1673ffffffffffffffffffffffffffffffffffffffff1681526020019081526020015f20549050919050565b7f000000000000000000000000000000000000000000000000000000000000000081565b5f806126e787878787876137d0565b915091509550959350505050565b7f000000000000000000000000000000000000000000000000000000000000000073ffffffffffffffffffffffffffffffffffffffff163373ffffffffffffffffffffffffffffffffffffffff161461277a576040517f3c698d7900000000000000000000000000000000000000000000000000000000815260040160405180910390fd5b5f60045f8473ffffffffffffffffffffffffffffffffffffffff1673ffffffffffffffffffffffffffffffffffffffff1681526020019081526020015f205490506127c481612aa2565b156128e5575f8373ffffffffffffffffffffffffffffffffffffffff1663256909f16040518163ffffffff1660e01b8152600401602060405180830381865afa158015612813573d5f803e3d5ffd5b505050506040513d601f19601f8201168201806040525081019061283791906158bd565b905061285883858361284c5762ffffff612853565b6003805490505b613cd0565b9150801561288757600382908060018154018082558091505060019003905f5260205f20015f90919091909150555b8373ffffffffffffffffffffffffffffffffffffffff167fbe2909d8cc20d11ba19a80df9673ad2fd54f3d18592c03aa1413fc921e185b0b846128c985612b97565b6040516128d79291906158e8565b60405180910390a250612995565b6128f88282613ce890919063ffffffff16565b90505f61290482612b97565b905062ffffff80168162ffffff1614612942578160038262ffffff16815481106129315761293061587c565b5b905f5260205f200181905550612943565b5b8373ffffffffffffffffffffffffffffffffffffffff167f0c641c0a4b692db5a80ac5db2cdc5d138e9878e3a42907e4ca46377d45e820f0848360405161298b9291906158e8565b60405180910390a2505b8060045f8573ffffffffffffffffffffffffffffffffffffffff1673ffffffffffffffffffffffffffffffffffffffff1681526020019081526020015f2081905550505050565b5f602052805f5260405f205f91509050805f015f9054906101000a900461ffff1690805f0160029054906101000a900461ffff1690805f0160049054906101000a900463ffffffff16905083565b5f80826060015163ffffffff16119050919050565b5f8160400190151590811515815250505f816060019063ffffffff16908163ffffffff16815250505f816020019073ffffffffffffffffffffffffffffffffffffffff16908173ffffffffffffffffffffffffffffffffffffffff168152505050565b5f81159050919050565b5f42612acb846060015163ffffffff1684613cfd90919063ffffffff16565b1015905092915050565b5f80612ae084613d2f565b90505f8063ccdad14b60e01b60e01c63ffffffff169050805f528460205260205f6024601c865afa601f3d111615612b1d5763ffffffff5f511691505b5f8263ffffffff161480612b365750428263ffffffff16115b15612b46575f9350505050612b90565b42612b608363ffffffff1688613cfd90919063ffffffff16565b10612b8c57612b80868363ffffffff1689613d3e9092919063ffffffff16565b60019350505050612b90565b5050505b9392505050565b5f8160c01b60e81c9050919050565b5f8060038054905090505f5b81811015612c0d5783810315612c00575f60038281548110612bd757612bd661587c565b5b905f5260205f2001549050612bed878288612ad5565b15612bfe5760019350505050612c10565b505b8080600101915050612bb2565b50505b9392505050565b5f612c258686868686613db3565b507f000000000000000000000000000000000000000000000000000000000000000073ffffffffffffffffffffffffffffffffffffffff168673ffffffffffffffffffffffffffffffffffffffff1614612cab576040517f3c698d7900000000000000000000000000000000000000000000000000000000815260040160405180910390fd5b83610120013590505f60208484905003612cfd57833590507f4e39f53293455dca8fe1725b2dfcbe6abd2f44d777b7f2a7279526e17d7ebede8682604051612cf49291906157db565b60405180910390a15b5f6040518060800160405280600115158152602001612d1b85613e25565b15158152602001612d2b85613e41565b15158152602001612d3b84613e5d565b6fffffffffffffffffffffffffffffffff168152509050612d5b83613e83565b15612d8a57612d87605f612d79605c86613e9f90919063ffffffff16565b613e9f90919063ffffffff16565b92505b612dbd7f000000000000000000000000000000000000000000000000000000000000000084613eae90919063ffffffff16565b92508060055f8973ffffffffffffffffffffffffffffffffffffffff1673ffffffffffffffffffffffffffffffffffffffff1681526020019081526020015f205f820151815f015f6101000a81548160ff0219169083151502179055506020820151815f0160016101000a81548160ff0219169083151502179055506040820151815f0160026101000a81548160ff0219169083151502179055506060820151815f0160036101000a8154816fffffffffffffffffffffffffffffffff02191690836fffffffffffffffffffffffffffffffff160217905550905050505095945050505050565b5f80612eb286868686612f26565b8092508193505050612ec7868684845f613097565b50949350505050565b5f816b019d971e4fe8401e740000005f190304831115821517612eff57634e487b715f5260116020526024601cfd5b6b033b2e3c9fd0803ce80000006b019d971e4fe8401e740000008385020104905092915050565b5f805f612f3287612a2a565b612f3c575f612f7f565b60045f886020015173ffffffffffffffffffffffffffffffffffffffff1673ffffffffffffffffffffffffffffffffffffffff1681526020019081526020015f20545b9050612f8a81612aa2565b158015612fa65750612fa58188612aac90919063ffffffff16565b5b15612fb85760015f9250925050613082565b612fc487878787613edb565b15612fd6576001809250925050613082565b5f7fffffffffffffffffffffffffffffffffffffffffffffffffffffffffffffffff905061300382612aa2565b158015613011575087604001515b1561304557613021888389612ad5565b1561303457600180935093505050613082565b61303d82612b97565b62ffffff1690505b613050888883612ba6565b1561306357600180935093505050613082565b61306c88612a2a565b1561307f5761307a88612a3f565b600192505b50505b94509492505050565b5f818316905092915050565b811561315a578215613115578373ffffffffffffffffffffffffffffffffffffffff16856020015173ffffffffffffffffffffffffffffffffffffffff167fa04eb478c9c6a13a6de14b7eb31b1b629511e804c3cfef31bd549accd4b155248760600151604051613108919061582d565b60405180910390a3613159565b8373ffffffffffffffffffffffffffffffffffffffff167f47695aa96e09db0d106b9bd402979d6aff7e51ada06ec6fe014e5eeadd8c1dc060405160405180910390a25b5b61320860025f8673ffffffffffffffffffffffffffffffffffffffff1673ffffffffffffffffffffffffffffffffffffffff1681526020019081526020015f205f3373ffffffffffffffffffffffffffffffffffffffff1673ffffffffffffffffffffffffffffffffffffffff1681526020019081526020015f205f9054906101000a900460ff16156131f88584151561308b90919063ffffffff16565b151561308b90919063ffffffff16565b156132e157600160025f8673ffffffffffffffffffffffffffffffffffffffff1673ffffffffffffffffffffffffffffffffffffffff1681526020019081526020015f205f3373ffffffffffffffffffffffffffffffffffffffff1673ffffffffffffffffffffffffffffffffffffffff1681526020019081526020015f205f6101000a81548160ff0219169083151502179055508373ffffffffffffffffffffffffffffffffffffffff167f69da6af30334fddc87acb34f52a47c7548a48aeee9ec3b0a5eef11539c0dce0160405160405180910390a25b81156133d1578460015f8673ffffffffffffffffffffffffffffffffffffffff1673ffffffffffffffffffffffffffffffffffffffff1681526020019081526020015f205f820151815f015f6101000a81548160ff0219169083151502179055506020820151815f0160016101000a81548173ffffffffffffffffffffffffffffffffffffffff021916908373ffffffffffffffffffffffffffffffffffffffff1602179055506040820151815f0160156101000a81548160ff0219169083151502179055506060820151815f0160166101000a81548163ffffffff021916908363ffffffff1602179055509050505b5050505050565b5f60015f8473ffffffffffffffffffffffffffffffffffffffff1673ffffffffffffffffffffffffffffffffffffffff1681526020019081526020015f206040518060800160405290815f82015f9054906101000a900460ff161515151581526020015f820160019054906101000a900473ffffffffffffffffffffffffffffffffffffffff1673ffffffffffffffffffffffffffffffffffffffff1673ffffffffffffffffffffffffffffffffffffffff1681526020015f820160159054906101000a900460ff161515151581526020015f820160169054906101000a900463ffffffff1663ffffffff1663ffffffff168152505090505f6134ea8363ffffffff1686613cfd90919063ffffffff16565b905042811015613526576040517f5a922a2f00000000000000000000000000000000000000000000000000000000815260040160405180910390fd5b61352f82612a2a565b15613629575f60045f846020015173ffffffffffffffffffffffffffffffffffffffff1673ffffffffffffffffffffffffffffffffffffffff1681526020019081526020015f2054905061358281612aa2565b613627575f6135a4846060015163ffffffff1683613cfd90919063ffffffff16565b90506135ef8184113373ffffffffffffffffffffffffffffffffffffffff16866020015173ffffffffffffffffffffffffffffffffffffffff16141515613f9990919063ffffffff16565b613625576040517fc03faa5600000000000000000000000000000000000000000000000000000000815260040160405180910390fd5b505b505b61363582868686613fa5565b5050505050565b5f62ffffff801661364c83612b97565b62ffffff1614159050919050565b5f600160038054905061366d919061593c565b9050808262ffffff16036136a657600380548061368d5761368c61596f565b5b600190038181905f5260205f20015f90559055506137cd565b5f6136d683600384815481106136bf576136be61587c565b5b905f5260205f20015461411c90919063ffffffff16565b90508060038462ffffff16815481106136f2576136f161587c565b5b905f5260205f20018190555060038054806137105761370f61596f565b5b600190038181905f5260205f20015f905590555f61372d82613d2f565b90508160045f8373ffffffffffffffffffffffffffffffffffffffff1673ffffffffffffffffffffffffffffffffffffffff1681526020019081526020015f20819055508073ffffffffffffffffffffffffffffffffffffffff167f0c641c0a4b692db5a80ac5db2cdc5d138e9878e3a42907e4ca46377d45e820f06137b28461414d565b866040516137c19291906158e8565b60405180910390a25050505b50565b5f8086856101600160208101906137e7919061599c565b80925081935050505f3390506138148861ffff165f61ffff1661271061ffff166374e6ce7660e01b614159565b5f805f8373ffffffffffffffffffffffffffffffffffffffff1673ffffffffffffffffffffffffffffffffffffffff1681526020019081526020015f206040518060600160405290815f82015f9054906101000a900461ffff1661ffff1661ffff1681526020015f820160029054906101000a900461ffff1661ffff1661ffff1681526020015f820160049054906101000a900463ffffffff1663ffffffff1663ffffffff168152505090505f816040015163ffffffff161115613a65575f613913826040015163ffffffff16421015896101400160208101906138f8919061599c565b61ffff168c61ffff161015151561308b90919063ffffffff16565b90505f825f015161ffff168b61ffff161015905061393c81831515613f9990919063ffffffff16565b15613a6257811561398f578373ffffffffffffffffffffffffffffffffffffffff167f145c143a918203cecb36063a1d70980ebb42b5b00490c5510d79c9d7717b77bb60405160405180910390a26139d3565b8373ffffffffffffffffffffffffffffffffffffffff167f2045c970b5c1a8f9b69dd33e70a1f9d07b9021e408716d5b8daeb83a776ea05f60405160405180910390a25b5f808573ffffffffffffffffffffffffffffffffffffffff1673ffffffffffffffffffffffffffffffffffffffff1681526020019081526020015f205f8082015f6101000a81549061ffff02191690555f820160026101000a81549061ffff02191690555f820160046101000a81549063ffffffff021916905550508583602001519550955050505050613cc6565b50505b5f805f836040015163ffffffff1614613a8657825f01518360200151613aaf565b88610140016020810190613a9a919061599c565b89610160016020810190613aae919061599c565b5b915091508161ffff168b61ffff161015613cc1575f613adb8c61ffff168461ffff168461ffff16614173565b90505f6212750042613aed91906159c7565b90505f856040015163ffffffff1603613b7e578573ffffffffffffffffffffffffffffffffffffffff167f16f9a191ecd86fd97f0ddc3dbed8fdc4d1e0d0644b93db99f8a577f52b0dec43848484604051613b4a93929190615a5a565b60405180910390a283855f019061ffff16908161ffff168152505082856020019061ffff16908161ffff1681525050613bfb565b8a610140016020810190613b92919061599c565b61ffff168d61ffff1610613ba857846040015190505b8573ffffffffffffffffffffffffffffffffffffffff167ff813e17e21ecee3918b028c4e02f15f1fdd045f9f63183b6ab4f42c23c97b321848484604051613bf293929190615a5a565b60405180910390a25b80856040019063ffffffff16908163ffffffff1681525050845f808873ffffffffffffffffffffffffffffffffffffffff1673ffffffffffffffffffffffffffffffffffffffff1681526020019081526020015f205f820151815f015f6101000a81548161ffff021916908361ffff1602179055506020820151815f0160026101000a81548161ffff021916908361ffff1602179055506040820151815f0160046101000a81548163ffffffff021916908363ffffffff16021790555090505081965050505b505050505b9550959350505050565b5f8160281b8360401b8560e01b171790509392505050565b5f8160e01b8360201b60201c17905092915050565b5f613d27613d0a8461414d565b63ffffffff1663ffffffff8016846141d19092919063ffffffff16565b905092915050565b5f8160201b60601c9050919050565b80836060019063ffffffff16908163ffffffff1681525050613d5f82613d2f565b836020019073ffffffffffffffffffffffffffffffffffffffff16908173ffffffffffffffffffffffffffffffffffffffff1681525050613d9f8261363c565b836040019015159081151581525050505050565b5f613e1c846080016020810190613dca919061599c565b8560a0016020810190613ddd919061599c565b8660c0016020810190613df09190615a8f565b8760e0016020810190613e03919061599c565b88610100016020810190613e179190615a8f565b6141ed565b95945050505050565b5f613e3a605c836142a890919063ffffffff16565b9050919050565b5f613e56605f836142a890919063ffffffff16565b9050919050565b5f613e7e829150816fffffffffffffffffffffffffffffffff1683146142b7565b919050565b5f613e98605e836142a890919063ffffffff16565b9050919050565b5f6001821b8317905092915050565b5f8260601c60601b8360501c838460101c808284161761ffff168060501b85179550505050505092915050565b5f60148383905003613f70575f613ef284846142d1565b90505f60045f8373ffffffffffffffffffffffffffffffffffffffff1673ffffffffffffffffffffffffffffffffffffffff1681526020019081526020015f20549050613f3e81612aa2565b158015613f505750613f4f8161363c565b5b15613f6957613f60878288612ad5565b92505050613f91565b5050613f90565b6014838390501115613f8f57613f88858585856142df565b9050613f91565b5b5b949350505050565b5f818317905092915050565b613fc0838263ffffffff1686613d3e9092919063ffffffff16565b8360015f8473ffffffffffffffffffffffffffffffffffffffff1673ffffffffffffffffffffffffffffffffffffffff1681526020019081526020015f205f820151815f015f6101000a81548160ff0219169083151502179055506020820151815f0160016101000a81548173ffffffffffffffffffffffffffffffffffffffff021916908373ffffffffffffffffffffffffffffffffffffffff1602179055506040820151815f0160156101000a81548160ff0219169083151502179055506060820151815f0160166101000a81548163ffffffff021916908363ffffffff1602179055509050508173ffffffffffffffffffffffffffffffffffffffff166140c984613d2f565b73ffffffffffffffffffffffffffffffffffffffff167fa04eb478c9c6a13a6de14b7eb31b1b629511e804c3cfef31bd549accd4b155248360405161410e919061582d565b60405180910390a350505050565b5f8160281b7fffffffffffffffffffffffffffffffffffffffffffffffff000000ffffffffff841617905092915050565b5f8160e01c9050919050565b818411838510171561416d57805f5260045ffd5b50505050565b5f8061418d6127108686614187919061593c565b8661443d565b90506109c481116141a0578291506141c9565b5f6141b96127108360026141b49190615aba565b614468565b90506141c5818561447e565b9250505b509392505050565b5f82840190506141e48282108284614494565b90509392505050565b61420e8561ffff165f61ffff1661271061ffff166374e6ce7660e01b614159565b61422f8461ffff165f61ffff1661271061ffff1663cfd2223a60e01b614159565b6142588363ffffffff165f63ffffffff166301e1338063ffffffff1663772de36160e01b614159565b6142798261ffff165f61ffff1661271061ffff1663c7f3bbb960e01b614159565b6142a18163ffffffff165f63ffffffff166276a70063ffffffff16632136673760e01b614159565b5050505050565b5f600183831c16905092915050565b806142ce57634e487b715f5260116020526024601cfd5b50565b5f823560601c905092915050565b5f806354560cb260e01b60e01c63ffffffff1690505f6142ff85856142d1565b90505f60045f8373ffffffffffffffffffffffffffffffffffffffff1673ffffffffffffffffffffffffffffffffffffffff1681526020019081526020015f2054905061434b81612aa2565b1561435b575f9350505050614435565b5f8063c177c70060e01b60e01c63ffffffff169050601488016040518681528a6020820152604080820152601489038060608301528083608084013760205f60648301601c85015f8b5af1156143d15760203d10600181146143c65763ffffffff5f511695506143cf565b845f526004601cfd5b505b5050505f8214806143e157504282115b156143f3575f95505050505050614435565b426144078385613cfd90919063ffffffff16565b1061442f5761442183838c613d3e9092919063ffffffff16565b600195505050505050614435565b50505050505b949350505050565b5f825f19048411830215820261445a5763ad251c275f526004601cfd5b818385020490509392505050565b5f6144768284108484614494565b905092915050565b5f61448c8284108385614494565b905092915050565b5f8183038402820190509392505050565b60405180608001604052805f151581526020015f73ffffffffffffffffffffffffffffffffffffffff1681526020015f151581526020015f63ffffffff1681525090565b60405180608001604052805f151581526020015f151581526020015f151581526020015f6fffffffffffffffffffffffffffffffff1681525090565b6040518061014001604052805f63ffffffff1681526020015f63ffffffff1681526020015f61ffff1681526020015f61ffff1681526020015f61ffff1681526020015f61ffff1681526020015f63ffffffff1681526020015f63ffffffff1681526020015f61ffff1681526020015f61ffff1681525090565b5f604051905090565b5f80fd5b5f80fd5b5f61ffff82169050919050565b6145c5816145af565b81146145cf575f80fd5b50565b5f813590506145e0816145bc565b92915050565b5f80fd5b5f601f19601f8301169050919050565b7f4e487b71000000000000000000000000000000000000000000000000000000005f52604160045260245ffd5b614630826145ea565b810181811067ffffffffffffffff8211171561464f5761464e6145fa565b5b80604052505050565b5f61466161459e565b905061466d8282614627565b919050565b5f8115159050919050565b61468681614672565b8114614690575f80fd5b50565b5f813590506146a18161467d565b92915050565b5f6fffffffffffffffffffffffffffffffff82169050919050565b6146cb816146a7565b81146146d5575f80fd5b50565b5f813590506146e6816146c2565b92915050565b5f6cffffffffffffffffffffffffff82169050919050565b61470d816146ec565b8114614717575f80fd5b50565b5f8135905061472881614704565b92915050565b5f63ffffffff82169050919050565b6147468161472e565b8114614750575f80fd5b50565b5f813590506147618161473d565b92915050565b5f6dffffffffffffffffffffffffffff82169050919050565b61478981614767565b8114614793575f80fd5b50565b5f813590506147a481614780565b92915050565b5f6101c082840312156147c0576147bf6145e6565b5b6147cb6101c0614658565b90505f6147da84828501614693565b5f8301525060206147ed848285016146d8565b6020830152506040614801848285016146d8565b6040830152506060614815848285016146d8565b60608301525060806148298482850161471a565b60808301525060a061483d8482850161471a565b60a08301525060c061485184828501614753565b60c08301525060e061486584828501614693565b60e08301525061010061487a84828501614753565b61010083015250610120614890848285016145d2565b610120830152506101406148a6848285016145d2565b610140830152506101606148bc848285016145d2565b610160830152506101806148d284828501614796565b610180830152506101a06148e884828501614753565b6101a08301525092915050565b5f80fd5b5f80fd5b5f80fd5b5f8083601f840112614916576149156148f5565b5b8235905067ffffffffffffffff811115614933576149326148f9565b5b60208301915083600182028301111561494f5761494e6148fd565b5b9250929050565b5f805f80610200858703121561496f5761496e6145a7565b5b5f61497c878288016145d2565b945050602061498d878288016147aa565b9350506101e085013567ffffffffffffffff8111156149af576149ae6145ab565b5b6149bb87828801614901565b925092505092959194509250565b5f73ffffffffffffffffffffffffffffffffffffffff82169050919050565b5f6149f2826149c9565b9050919050565b614a02816149e8565b8114614a0c575f80fd5b50565b5f81359050614a1d816149f9565b92915050565b5f60208284031215614a3857614a376145a7565b5b5f614a4584828501614a0f565b91505092915050565b5f8060408385031215614a6457614a636145a7565b5b5f614a7185828601614a0f565b9250506020614a82858286016146d8565b9150509250929050565b614a9581614672565b82525050565b614aa4816149e8565b82525050565b614ab38161472e565b82525050565b608082015f820151614acd5f850182614a8c565b506020820151614ae06020850182614a9b565b506040820151614af36040850182614a8c565b506060820151614b066060850182614aaa565b50505050565b5f608082019050614b1f5f830184614ab9565b92915050565b5f80fd5b5f6101408284031215614b3f57614b3e614b25565b5b81905092915050565b5f805f805f60808688031215614b6157614b606145a7565b5b5f614b6e88828901614a0f565b9550506020614b7f88828901614a0f565b945050604086013567ffffffffffffffff811115614ba057614b9f6145ab565b5b614bac88828901614b29565b935050606086013567ffffffffffffffff811115614bcd57614bcc6145ab565b5b614bd988828901614901565b92509250509295509295909350565b5f819050919050565b5f819050919050565b5f614c14614c0f614c0a84614be8565b614bf1565b614be8565b9050919050565b614c2481614bfa565b82525050565b5f602082019050614c3d5f830184614c1b565b92915050565b5f6101c08284031215614c5957614c58614b25565b5b81905092915050565b5f805f805f6102208688031215614c7c57614c7b6145a7565b5b5f614c8988828901614a0f565b9550506020614c9a888289016146d8565b9450506040614cab88828901614c43565b93505061020086013567ffffffffffffffff811115614ccd57614ccc6145ab565b5b614cd988828901614901565b92509250509295509295909350565b614cf1816146a7565b82525050565b608082015f820151614d0b5f850182614a8c565b506020820151614d1e6020850182614a8c565b506040820151614d316040850182614a8c565b506060820151614d446060850182614ce8565b50505050565b5f608082019050614d5d5f830184614cf7565b92915050565b614d6c81614be8565b8114614d76575f80fd5b50565b5f81359050614d8781614d63565b92915050565b5f805f805f806102408789031215614da857614da76145a7565b5b5f614db589828a01614a0f565b9650506020614dc689828a01614753565b9550506040614dd789828a01614d79565b9450506060614de889828a01614c43565b93505061022087013567ffffffffffffffff811115614e0a57614e096145ab565b5b614e1689828a01614901565b92509250509295509295509295565b5f81519050919050565b5f82825260208201905092915050565b8281835e5f83830152505050565b5f614e5782614e25565b614e618185614e2f565b9350614e71818560208601614e3f565b614e7a816145ea565b840191505092915050565b5f6020820190508181035f830152614e9d8184614e4d565b905092915050565b5f805f805f6102208688031215614ebf57614ebe6145a7565b5b5f614ecc88828901614a0f565b9550506020614edd88828901614d79565b9450506040614eee88828901614c43565b93505061020086013567ffffffffffffffff811115614f1057614f0f6145ab565b5b614f1c88828901614901565b92509250509295509295909350565b5f805f60408486031215614f4257614f416145a7565b5b5f614f4f86828701614a0f565b935050602084013567ffffffffffffffff811115614f7057614f6f6145ab565b5b614f7c86828701614901565b92509250509250925092565b614f9181614672565b82525050565b5f604082019050614faa5f830185614f88565b614fb76020830184614f88565b9392505050565b5f8060408385031215614fd457614fd36145a7565b5b5f614fe185828601614a0f565b9250506020614ff285828601614753565b9150509250929050565b61500581614bfa565b82525050565b5f60208201905061501e5f830184614ffc565b92915050565b61502d816149e8565b82525050565b5f6020820190506150465f830184615024565b92915050565b5f805f806102008587031215615065576150646145a7565b5b5f61507287828801614d79565b945050602061508387828801614c43565b9350506101e085013567ffffffffffffffff8111156150a5576150a46145ab565b5b6150b187828801614901565b925092505092959194509250565b5f805f8061020085870312156150d8576150d76145a7565b5b5f6150e587828801614a0f565b94505060206150f687828801614c43565b9350506101e085013567ffffffffffffffff811115615118576151176145ab565b5b61512487828801614901565b925092505092959194509250565b5f81519050919050565b5f82825260208201905092915050565b5f819050602082019050919050565b61516481614bfa565b82525050565b5f615175838361515b565b60208301905092915050565b5f602082019050919050565b5f61519782615132565b6151a1818561513c565b93506151ac8361514c565b805f5b838110156151dc5781516151c3888261516a565b97506151ce83615181565b9250506001810190506151af565b5085935050505092915050565b5f6020820190508181035f830152615201818461518d565b905092915050565b5f67ffffffffffffffff821115615223576152226145fa565b5b602082029050602081019050919050565b5f61524661524184615209565b614658565b90508083825260208201905060208402830185811115615269576152686148fd565b5b835b81811015615292578061527e8882614a0f565b84526020840193505060208101905061526b565b5050509392505050565b5f82601f8301126152b0576152af6148f5565b5b81356152c0848260208601615234565b91505092915050565b5f67ffffffffffffffff8211156152e3576152e26145fa565b5b602082029050602081019050919050565b5f615306615301846152c9565b614658565b90508083825260208201905060208402830185811115615329576153286148fd565b5b835b81811015615352578061533e8882614753565b84526020840193505060208101905061532b565b5050509392505050565b5f82601f8301126153705761536f6148f5565b5b81356153808482602086016152f4565b91505092915050565b5f806040838503121561539f5761539e6145a7565b5b5f83013567ffffffffffffffff8111156153bc576153bb6145ab565b5b6153c88582860161529c565b925050602083013567ffffffffffffffff8111156153e9576153e86145ab565b5b6153f58582860161535c565b9150509250929050565b5f805f6101e08486031215615417576154166145a7565b5b5f61542486828701614c43565b9350506101c084013567ffffffffffffffff811115615446576154456145ab565b5b61545286828701614901565b92509250509250925092565b5f805f805f805f610260888a03121561547a576154796145a7565b5b5f6154878a828b01614a0f565b97505060206154988a828b01614a0f565b96505060406154a98a828b01614a0f565b95505060606154ba8a828b01614d79565b94505060806154cb8a828b01614c43565b93505061024088013567ffffffffffffffff8111156154ed576154ec6145ab565b5b6154f98a828b01614901565b925092505092959891949750929550565b615513816145af565b82525050565b61014082015f82015161552e5f850182614aaa565b5060208201516155416020850182614aaa565b506040820151615554604085018261550a565b506060820151615567606085018261550a565b50608082015161557a608085018261550a565b5060a082015161558d60a085018261550a565b5060c08201516155a060c0850182614aaa565b5060e08201516155b360e0850182614aaa565b506101008201516155c861010085018261550a565b506101208201516155dd61012085018261550a565b50505050565b5f610140820190506155f75f830184615519565b92915050565b5f8060408385031215615613576156126145a7565b5b5f61562085828601614a0f565b925050602061563185828601614a0f565b9150509250929050565b5f60208201905061564e5f830184614f88565b92915050565b5f805f6060848603121561566b5761566a6145a7565b5b5f61567886828701614a0f565b935050602061568986828701614a0f565b925050604061569a86828701614693565b9150509250925092565b6156ad81614bfa565b82525050565b5f6020820190506156c65f8301846156a4565b92915050565b5f805f805f61022086880312156156e6576156e56145a7565b5b5f6156f3888289016145d2565b9550506020615704888289016145d2565b945050604061571588828901614c43565b93505061020086013567ffffffffffffffff811115615737576157366145ab565b5b61574388828901614901565b92509250509295509295909350565b61575b816145af565b82525050565b5f6040820190506157745f830185615752565b6157816020830184615752565b9392505050565b6157918161472e565b82525050565b5f6060820190506157aa5f830186615752565b6157b76020830185615752565b6157c46040830184615788565b949350505050565b6157d5816146a7565b82525050565b5f6040820190506157ee5f830185615024565b6157fb60208301846157cc565b9392505050565b5f60208284031215615817576158166145a7565b5b5f61582484828501614796565b91505092915050565b5f6020820190506158405f830184615788565b92915050565b5f62ffffff82169050919050565b61585d81615846565b82525050565b5f6020820190506158765f830184615854565b92915050565b7f4e487b71000000000000000000000000000000000000000000000000000000005f52603260045260245ffd5b5f815190506158b78161467d565b92915050565b5f602082840312156158d2576158d16145a7565b5b5f6158df848285016158a9565b91505092915050565b5f6040820190506158fb5f830185615788565b6159086020830184615854565b9392505050565b7f4e487b71000000000000000000000000000000000000000000000000000000005f52601160045260245ffd5b5f61594682614be8565b915061595183614be8565b92508282039050818111156159695761596861590f565b5b92915050565b7f4e487b71000000000000000000000000000000000000000000000000000000005f52603160045260245ffd5b5f602082840312156159b1576159b06145a7565b5b5f6159be848285016145d2565b91505092915050565b5f6159d182614be8565b91506159dc83614be8565b92508282019050808211156159f4576159f361590f565b5b92915050565b5f615a14615a0f615a0a846145af565b614bf1565b614be8565b9050919050565b615a24816159fa565b82525050565b5f615a44615a3f615a3a8461472e565b614bf1565b614be8565b9050919050565b615a5481615a2a565b82525050565b5f606082019050615a6d5f830186615a1b565b615a7a6020830185615a1b565b615a876040830184615a4b565b949350505050565b5f60208284031215615aa457615aa36145a7565b5b5f615ab184828501614753565b91505092915050565b5f615ac482614be8565b9150615acf83614be8565b9250828202615add81614be8565b91508282048414831517615af457615af361590f565b5b509291505056fea164736f6c6343000819000a","linkReferences":{}},"methodIdentifiers":{"addRoleProvider(address,uint32)":"ea5b13bd","blockFromDeposits(address)":"064ed53b","borrower()":"7df1f1b9","config()":"79502c55","factory()":"c45a0155","getHookedMarket(address)":"2ccf4667","getLenderStatus(address)":"22a4a19f","getParameterConstraints()":"a11ef067","getPreviousLenderStatus(address)":"b037096d","getPullProviders()":"8f8ef419","getRoleProvider(address)":"bfd269be","grantRole(address,uint32)":"6b2b369b","grantRoles(address[],uint32[])":"9d2a76fe","isKnownLenderOnMarket(address,address)":"a9ff2dbf","onBorrow(uint256,(bool,uint128,uint128,uint128,uint104,uint104,uint32,bool,uint32,uint16,uint16,uint16,uint112,uint32),bytes)":"b1cfda0d","onCloseMarket((bool,uint128,uint128,uint128,uint104,uint104,uint32,bool,uint32,uint16,uint16,uint16,uint112,uint32),bytes)":"9ecc64e6","onCreateMarket(address,address,(address,string,string,uint128,uint16,uint16,uint32,uint16,uint32,uint256),bytes)":"28fd0307","onDeposit(address,uint256,(bool,uint128,uint128,uint128,uint104,uint104,uint32,bool,uint32,uint16,uint16,uint16,uint112,uint32),bytes)":"5aeb713f","onExecuteWithdrawal(address,uint128,(bool,uint128,uint128,uint128,uint104,uint104,uint32,bool,uint32,uint16,uint16,uint16,uint112,uint32),bytes)":"2970403d","onNukeFromOrbit(address,(bool,uint128,uint128,uint128,uint104,uint104,uint32,bool,uint32,uint16,uint16,uint16,uint112,uint32),bytes)":"8b3ce9b3","onQueueWithdrawal(address,uint32,uint256,(bool,uint128,uint128,uint128,uint104,uint104,uint32,bool,uint32,uint16,uint16,uint16,uint112,uint32),bytes)":"3521cccc","onRepay(uint256,(bool,uint128,uint128,uint128,uint104,uint104,uint32,bool,uint32,uint16,uint16,uint16,uint112,uint32),bytes)":"83d9e1eb","onSetAnnualInterestAndReserveRatioBips(uint16,uint16,(bool,uint128,uint128,uint128,uint104,uint104,uint32,bool,uint32,uint16,uint16,uint16,uint112,uint32),bytes)":"cc452642","onSetMaxTotalSupply(uint256,(bool,uint128,uint128,uint128,uint104,uint104,uint32,bool,uint32,uint16,uint16,uint16,uint112,uint32),bytes)":"849da129","onSetProtocolFeeBips(uint16,(bool,uint128,uint128,uint128,uint104,uint104,uint32,bool,uint32,uint16,uint16,uint16,uint112,uint32),bytes)":"03473d8d","onTransfer(address,address,address,uint256,(bool,uint128,uint128,uint128,uint104,uint104,uint32,bool,uint32,uint16,uint16,uint16,uint112,uint32),bytes)":"a018f90e","removeRoleProvider(address)":"8adfe0f8","revokeRole(address)":"80e52e3f","setIsKnownLender(address,address,bool)":"be47fd61","setMinimumDeposit(address,uint128)":"1c4b3694","temporaryExcessReserveRatio(address)":"feb368e2","tryValidateAccess(address,bytes)":"6573fe74","unblockFromDeposits(address)":"aa948689","version()":"54fd4d50"},"id":146}