{"abi":[{"type":"constructor","inputs":[{"name":"_caller","type":"address","internalType":"address"},{"name":"_constructorArgs","type":"bytes","internalType":"bytes"}],"stateMutability":"nonpayable"},{"type":"function","name":"addRoleProvider","inputs":[{"name":"providerAddress","type":"address","internalType":"address"},{"name":"timeToLive","type":"uint32","internalType":"uint32"}],"outputs":[],"stateMutability":"nonpayable"},{"type":"function","name":"annualInterestBipsToReturn","inputs":[],"outputs":[{"name":"","type":"uint16","internalType":"uint16"}],"stateMutability":"view"},{"type":"function","name":"config","inputs":[],"outputs":[{"name":"","type":"uint256","internalType":"HooksDeploymentConfig"}],"stateMutability":"view"},{"type":"function","name":"constructorArgs","inputs":[],"outputs":[{"name":"","type":"bytes","internalType":"bytes"}],"stateMutability":"view"},{"type":"function","name":"constructorArgsHash","inputs":[],"outputs":[{"name":"","type":"bytes32","internalType":"bytes32"}],"stateMutability":"view"},{"type":"function","name":"deployer","inputs":[],"outputs":[{"name":"","type":"address","internalType":"address"}],"stateMutability":"view"},{"type":"function","name":"factory","inputs":[],"outputs":[{"name":"","type":"address","internalType":"address"}],"stateMutability":"view"},{"type":"function","name":"grantRole","inputs":[{"name":"account","type":"address","internalType":"address"},{"name":"roleGrantedTimestamp","type":"uint32","internalType":"uint32"}],"outputs":[],"stateMutability":"nonpayable"},{"type":"function","name":"lastCalldataHash","inputs":[],"outputs":[{"name":"","type":"bytes32","internalType":"bytes32"}],"stateMutability":"view"},{"type":"function","name":"lastCreateMarketHooksData","inputs":[],"outputs":[{"name":"","type":"bytes","internalType":"bytes"}],"stateMutability":"view"},{"type":"function","name":"lastDeployMarketInputs","inputs":[],"outputs":[{"name":"","type":"tuple","internalType":"struct DeployMarketInputs","components":[{"name":"asset","type":"address","internalType":"address"},{"name":"namePrefix","type":"string","internalType":"string"},{"name":"symbolPrefix","type":"string","internalType":"string"},{"name":"maxTotalSupply","type":"uint128","internalType":"uint128"},{"name":"annualInterestBips","type":"uint16","internalType":"uint16"},{"name":"delinquencyFeeBips","type":"uint16","internalType":"uint16"},{"name":"withdrawalBatchDuration","type":"uint32","internalType":"uint32"},{"name":"reserveRatioBips","type":"uint16","internalType":"uint16"},{"name":"delinquencyGracePeriod","type":"uint32","internalType":"uint32"},{"name":"hooks","type":"uint256","internalType":"HooksConfig"}]}],"stateMutability":"view"},{"type":"function","name":"lastDeployer","inputs":[],"outputs":[{"name":"","type":"address","internalType":"address"}],"stateMutability":"view"},{"type":"function","name":"lastExtraData","inputs":[],"outputs":[{"name":"","type":"bytes","internalType":"bytes"}],"stateMutability":"view"},{"type":"function","name":"onBorrow","inputs":[{"name":"normalizedAmount","type":"uint256","internalType":"uint256"},{"name":"intermediateState","type":"tuple","internalType":"struct MarketState","components":[{"name":"isClosed","type":"bool","internalType":"bool"},{"name":"maxTotalSupply","type":"uint128","internalType":"uint128"},{"name":"accruedProtocolFees","type":"uint128","internalType":"uint128"},{"name":"normalizedUnclaimedWithdrawals","type":"uint128","internalType":"uint128"},{"name":"scaledTotalSupply","type":"uint104","internalType":"uint104"},{"name":"scaledPendingWithdrawals","type":"uint104","internalType":"uint104"},{"name":"pendingWithdrawalExpiry","type":"uint32","internalType":"uint32"},{"name":"isDelinquent","type":"bool","internalType":"bool"},{"name":"timeDelinquent","type":"uint32","internalType":"uint32"},{"name":"protocolFeeBips","type":"uint16","internalType":"uint16"},{"name":"annualInterestBips","type":"uint16","internalType":"uint16"},{"name":"reserveRatioBips","type":"uint16","internalType":"uint16"},{"name":"scaleFactor","type":"uint112","internalType":"uint112"},{"name":"lastInterestAccruedTimestamp","type":"uint32","internalType":"uint32"}]},{"name":"extraData","type":"bytes","internalType":"bytes"}],"outputs":[],"stateMutability":"nonpayable"},{"type":"function","name":"onCloseMarket","inputs":[{"name":"intermediateState","type":"tuple","internalType":"struct MarketState","components":[{"name":"isClosed","type":"bool","internalType":"bool"},{"name":"maxTotalSupply","type":"uint128","internalType":"uint128"},{"name":"accruedProtocolFees","type":"uint128","internalType":"uint128"},{"name":"normalizedUnclaimedWithdrawals","type":"uint128","internalType":"uint128"},{"name":"scaledTotalSupply","type":"uint104","internalType":"uint104"},{"name":"scaledPendingWithdrawals","type":"uint104","internalType":"uint104"},{"name":"pendingWithdrawalExpiry","type":"uint32","internalType":"uint32"},{"name":"isDelinquent","type":"bool","internalType":"bool"},{"name":"timeDelinquent","type":"uint32","internalType":"uint32"},{"name":"protocolFeeBips","type":"uint16","internalType":"uint16"},{"name":"annualInterestBips","type":"uint16","internalType":"uint16"},{"name":"reserveRatioBips","type":"uint16","internalType":"uint16"},{"name":"scaleFactor","type":"uint112","internalType":"uint112"},{"name":"lastInterestAccruedTimestamp","type":"uint32","internalType":"uint32"}]},{"name":"extraData","type":"bytes","internalType":"bytes"}],"outputs":[],"stateMutability":"nonpayable"},{"type":"function","name":"onCreateMarket","inputs":[{"name":"deployer","type":"address","internalType":"address"},{"name":"marketAddress","type":"address","internalType":"address"},{"name":"parameters","type":"tuple","internalType":"struct DeployMarketInputs","components":[{"name":"asset","type":"address","internalType":"address"},{"name":"namePrefix","type":"string","internalType":"string"},{"name":"symbolPrefix","type":"string","internalType":"string"},{"name":"maxTotalSupply","type":"uint128","internalType":"uint128"},{"name":"annualInterestBips","type":"uint16","internalType":"uint16"},{"name":"delinquencyFeeBips","type":"uint16","internalType":"uint16"},{"name":"withdrawalBatchDuration","type":"uint32","internalType":"uint32"},{"name":"reserveRatioBips","type":"uint16","internalType":"uint16"},{"name":"delinquencyGracePeriod","type":"uint32","internalType":"uint32"},{"name":"hooks","type":"uint256","internalType":"HooksConfig"}]},{"name":"extraData","type":"bytes","internalType":"bytes"}],"outputs":[{"name":"","type":"uint256","internalType":"HooksConfig"}],"stateMutability":"nonpayable"},{"type":"function","name":"onDeposit","inputs":[{"name":"lender","type":"address","internalType":"address"},{"name":"scaledAmount","type":"uint256","internalType":"uint256"},{"name":"intermediateState","type":"tuple","internalType":"struct MarketState","components":[{"name":"isClosed","type":"bool","internalType":"bool"},{"name":"maxTotalSupply","type":"uint128","internalType":"uint128"},{"name":"accruedProtocolFees","type":"uint128","internalType":"uint128"},{"name":"normalizedUnclaimedWithdrawals","type":"uint128","internalType":"uint128"},{"name":"scaledTotalSupply","type":"uint104","internalType":"uint104"},{"name":"scaledPendingWithdrawals","type":"uint104","internalType":"uint104"},{"name":"pendingWithdrawalExpiry","type":"uint32","internalType":"uint32"},{"name":"isDelinquent","type":"bool","internalType":"bool"},{"name":"timeDelinquent","type":"uint32","internalType":"uint32"},{"name":"protocolFeeBips","type":"uint16","internalType":"uint16"},{"name":"annualInterestBips","type":"uint16","internalType":"uint16"},{"name":"reserveRatioBips","type":"uint16","internalType":"uint16"},{"name":"scaleFactor","type":"uint112","internalType":"uint112"},{"name":"lastInterestAccruedTimestamp","type":"uint32","internalType":"uint32"}]},{"name":"extraData","type":"bytes","internalType":"bytes"}],"outputs":[],"stateMutability":"nonpayable"},{"type":"function","name":"onExecuteWithdrawal","inputs":[{"name":"lender","type":"address","internalType":"address"},{"name":"normalizedAmountWithdrawn","type":"uint128","internalType":"uint128"},{"name":"intermediateState","type":"tuple","internalType":"struct MarketState","components":[{"name":"isClosed","type":"bool","internalType":"bool"},{"name":"maxTotalSupply","type":"uint128","internalType":"uint128"},{"name":"accruedProtocolFees","type":"uint128","internalType":"uint128"},{"name":"normalizedUnclaimedWithdrawals","type":"uint128","internalType":"uint128"},{"name":"scaledTotalSupply","type":"uint104","internalType":"uint104"},{"name":"scaledPendingWithdrawals","type":"uint104","internalType":"uint104"},{"name":"pendingWithdrawalExpiry","type":"uint32","internalType":"uint32"},{"name":"isDelinquent","type":"bool","internalType":"bool"},{"name":"timeDelinquent","type":"uint32","internalType":"uint32"},{"name":"protocolFeeBips","type":"uint16","internalType":"uint16"},{"name":"annualInterestBips","type":"uint16","internalType":"uint16"},{"name":"reserveRatioBips","type":"uint16","internalType":"uint16"},{"name":"scaleFactor","type":"uint112","internalType":"uint112"},{"name":"lastInterestAccruedTimestamp","type":"uint32","internalType":"uint32"}]},{"name":"extraData","type":"bytes","internalType":"bytes"}],"outputs":[],"stateMutability":"nonpayable"},{"type":"function","name":"onNukeFromOrbit","inputs":[{"name":"lender","type":"address","internalType":"address"},{"name":"intermediateState","type":"tuple","internalType":"struct MarketState","components":[{"name":"isClosed","type":"bool","internalType":"bool"},{"name":"maxTotalSupply","type":"uint128","internalType":"uint128"},{"name":"accruedProtocolFees","type":"uint128","internalType":"uint128"},{"name":"normalizedUnclaimedWithdrawals","type":"uint128","internalType":"uint128"},{"name":"scaledTotalSupply","type":"uint104","internalType":"uint104"},{"name":"scaledPendingWithdrawals","type":"uint104","internalType":"uint104"},{"name":"pendingWithdrawalExpiry","type":"uint32","internalType":"uint32"},{"name":"isDelinquent","type":"bool","internalType":"bool"},{"name":"timeDelinquent","type":"uint32","internalType":"uint32"},{"name":"protocolFeeBips","type":"uint16","internalType":"uint16"},{"name":"annualInterestBips","type":"uint16","internalType":"uint16"},{"name":"reserveRatioBips","type":"uint16","internalType":"uint16"},{"name":"scaleFactor","type":"uint112","internalType":"uint112"},{"name":"lastInterestAccruedTimestamp","type":"uint32","internalType":"uint32"}]},{"name":"extraData","type":"bytes","internalType":"bytes"}],"outputs":[],"stateMutability":"nonpayable"},{"type":"function","name":"onQueueWithdrawal","inputs":[{"name":"lender","type":"address","internalType":"address"},{"name":"expiry","type":"uint32","internalType":"uint32"},{"name":"scaledAmount","type":"uint256","internalType":"uint256"},{"name":"intermediateState","type":"tuple","internalType":"struct MarketState","components":[{"name":"isClosed","type":"bool","internalType":"bool"},{"name":"maxTotalSupply","type":"uint128","internalType":"uint128"},{"name":"accruedProtocolFees","type":"uint128","internalType":"uint128"},{"name":"normalizedUnclaimedWithdrawals","type":"uint128","internalType":"uint128"},{"name":"scaledTotalSupply","type":"uint104","internalType":"uint104"},{"name":"scaledPendingWithdrawals","type":"uint104","internalType":"uint104"},{"name":"pendingWithdrawalExpiry","type":"uint32","internalType":"uint32"},{"name":"isDelinquent","type":"bool","internalType":"bool"},{"name":"timeDelinquent","type":"uint32","internalType":"uint32"},{"name":"protocolFeeBips","type":"uint16","internalType":"uint16"},{"name":"annualInterestBips","type":"uint16","internalType":"uint16"},{"name":"reserveRatioBips","type":"uint16","internalType":"uint16"},{"name":"scaleFactor","type":"uint112","internalType":"uint112"},{"name":"lastInterestAccruedTimestamp","type":"uint32","internalType":"uint32"}]},{"name":"extraData","type":"bytes","internalType":"bytes"}],"outputs":[],"stateMutability":"nonpayable"},{"type":"function","name":"onRepay","inputs":[{"name":"normalizedAmount","type":"uint256","internalType":"uint256"},{"name":"intermediateState","type":"tuple","internalType":"struct MarketState","components":[{"name":"isClosed","type":"bool","internalType":"bool"},{"name":"maxTotalSupply","type":"uint128","internalType":"uint128"},{"name":"accruedProtocolFees","type":"uint128","internalType":"uint128"},{"name":"normalizedUnclaimedWithdrawals","type":"uint128","internalType":"uint128"},{"name":"scaledTotalSupply","type":"uint104","internalType":"uint104"},{"name":"scaledPendingWithdrawals","type":"uint104","internalType":"uint104"},{"name":"pendingWithdrawalExpiry","type":"uint32","internalType":"uint32"},{"name":"isDelinquent","type":"bool","internalType":"bool"},{"name":"timeDelinquent","type":"uint32","internalType":"uint32"},{"name":"protocolFeeBips","type":"uint16","internalType":"uint16"},{"name":"annualInterestBips","type":"uint16","internalType":"uint16"},{"name":"reserveRatioBips","type":"uint16","internalType":"uint16"},{"name":"scaleFactor","type":"uint112","internalType":"uint112"},{"name":"lastInterestAccruedTimestamp","type":"uint32","internalType":"uint32"}]},{"name":"extraData","type":"bytes","internalType":"bytes"}],"outputs":[],"stateMutability":"nonpayable"},{"type":"function","name":"onSetAnnualInterestAndReserveRatioBips","inputs":[{"name":"annualInterestBips","type":"uint16","internalType":"uint16"},{"name":"reserveRatioBips","type":"uint16","internalType":"uint16"},{"name":"intermediateState","type":"tuple","internalType":"struct MarketState","components":[{"name":"isClosed","type":"bool","internalType":"bool"},{"name":"maxTotalSupply","type":"uint128","internalType":"uint128"},{"name":"accruedProtocolFees","type":"uint128","internalType":"uint128"},{"name":"normalizedUnclaimedWithdrawals","type":"uint128","internalType":"uint128"},{"name":"scaledTotalSupply","type":"uint104","internalType":"uint104"},{"name":"scaledPendingWithdrawals","type":"uint104","internalType":"uint104"},{"name":"pendingWithdrawalExpiry","type":"uint32","internalType":"uint32"},{"name":"isDelinquent","type":"bool","internalType":"bool"},{"name":"timeDelinquent","type":"uint32","internalType":"uint32"},{"name":"protocolFeeBips","type":"uint16","internalType":"uint16"},{"name":"annualInterestBips","type":"uint16","internalType":"uint16"},{"name":"reserveRatioBips","type":"uint16","internalType":"uint16"},{"name":"scaleFactor","type":"uint112","internalType":"uint112"},{"name":"lastInterestAccruedTimestamp","type":"uint32","internalType":"uint32"}]},{"name":"extraData","type":"bytes","internalType":"bytes"}],"outputs":[{"name":"updatedAnnualInterestBips","type":"uint16","internalType":"uint16"},{"name":"updatedReserveRatioBips","type":"uint16","internalType":"uint16"}],"stateMutability":"nonpayable"},{"type":"function","name":"onSetMaxTotalSupply","inputs":[{"name":"maxTotalSupply","type":"uint256","internalType":"uint256"},{"name":"intermediateState","type":"tuple","internalType":"struct MarketState","components":[{"name":"isClosed","type":"bool","internalType":"bool"},{"name":"maxTotalSupply","type":"uint128","internalType":"uint128"},{"name":"accruedProtocolFees","type":"uint128","internalType":"uint128"},{"name":"normalizedUnclaimedWithdrawals","type":"uint128","internalType":"uint128"},{"name":"scaledTotalSupply","type":"uint104","internalType":"uint104"},{"name":"scaledPendingWithdrawals","type":"uint104","internalType":"uint104"},{"name":"pendingWithdrawalExpiry","type":"uint32","internalType":"uint32"},{"name":"isDelinquent","type":"bool","internalType":"bool"},{"name":"timeDelinquent","type":"uint32","internalType":"uint32"},{"name":"protocolFeeBips","type":"uint16","internalType":"uint16"},{"name":"annualInterestBips","type":"uint16","internalType":"uint16"},{"name":"reserveRatioBips","type":"uint16","internalType":"uint16"},{"name":"scaleFactor","type":"uint112","internalType":"uint112"},{"name":"lastInterestAccruedTimestamp","type":"uint32","internalType":"uint32"}]},{"name":"extraData","type":"bytes","internalType":"bytes"}],"outputs":[],"stateMutability":"nonpayable"},{"type":"function","name":"onSetProtocolFeeBips","inputs":[{"name":"protocolFeeBips","type":"uint16","internalType":"uint16"},{"name":"intermediateState","type":"tuple","internalType":"struct MarketState","components":[{"name":"isClosed","type":"bool","internalType":"bool"},{"name":"maxTotalSupply","type":"uint128","internalType":"uint128"},{"name":"accruedProtocolFees","type":"uint128","internalType":"uint128"},{"name":"normalizedUnclaimedWithdrawals","type":"uint128","internalType":"uint128"},{"name":"scaledTotalSupply","type":"uint104","internalType":"uint104"},{"name":"scaledPendingWithdrawals","type":"uint104","internalType":"uint104"},{"name":"pendingWithdrawalExpiry","type":"uint32","internalType":"uint32"},{"name":"isDelinquent","type":"bool","internalType":"bool"},{"name":"timeDelinquent","type":"uint32","internalType":"uint32"},{"name":"protocolFeeBips","type":"uint16","internalType":"uint16"},{"name":"annualInterestBips","type":"uint16","internalType":"uint16"},{"name":"reserveRatioBips","type":"uint16","internalType":"uint16"},{"name":"scaleFactor","type":"uint112","internalType":"uint112"},{"name":"lastInterestAccruedTimestamp","type":"uint32","internalType":"uint32"}]},{"name":"extraData","type":"bytes","internalType":"bytes"}],"outputs":[],"stateMutability":"nonpayable"},{"type":"function","name":"onTransfer","inputs":[{"name":"caller","type":"address","internalType":"address"},{"name":"from","type":"address","internalType":"address"},{"name":"to","type":"address","internalType":"address"},{"name":"scaledAmount","type":"uint256","internalType":"uint256"},{"name":"intermediateState","type":"tuple","internalType":"struct MarketState","components":[{"name":"isClosed","type":"bool","internalType":"bool"},{"name":"maxTotalSupply","type":"uint128","internalType":"uint128"},{"name":"accruedProtocolFees","type":"uint128","internalType":"uint128"},{"name":"normalizedUnclaimedWithdrawals","type":"uint128","internalType":"uint128"},{"name":"scaledTotalSupply","type":"uint104","internalType":"uint104"},{"name":"scaledPendingWithdrawals","type":"uint104","internalType":"uint104"},{"name":"pendingWithdrawalExpiry","type":"uint32","internalType":"uint32"},{"name":"isDelinquent","type":"bool","internalType":"bool"},{"name":"timeDelinquent","type":"uint32","internalType":"uint32"},{"name":"protocolFeeBips","type":"uint16","internalType":"uint16"},{"name":"annualInterestBips","type":"uint16","internalType":"uint16"},{"name":"reserveRatioBips","type":"uint16","internalType":"uint16"},{"name":"scaleFactor","type":"uint112","internalType":"uint112"},{"name":"lastInterestAccruedTimestamp","type":"uint32","internalType":"uint32"}]},{"name":"extraData","type":"bytes","internalType":"bytes"}],"outputs":[],"stateMutability":"nonpayable"},{"type":"function","name":"reserveRatioBipsToReturn","inputs":[],"outputs":[{"name":"","type":"uint16","internalType":"uint16"}],"stateMutability":"view"},{"type":"function","name":"reset","inputs":[],"outputs":[],"stateMutability":"nonpayable"},{"type":"function","name":"setAnnualInterestAndReserveRatioBips","inputs":[{"name":"_annualInterestBips","type":"uint16","internalType":"uint16"},{"name":"_reserveRatioBips","type":"uint16","internalType":"uint16"}],"outputs":[],"stateMutability":"nonpayable"},{"type":"function","name":"setConfig","inputs":[{"name":"_config","type":"uint256","internalType":"HooksDeploymentConfig"}],"outputs":[],"stateMutability":"nonpayable"},{"type":"function","name":"version","inputs":[],"outputs":[{"name":"","type":"string","internalType":"string"}],"stateMutability":"view"},{"type":"event","name":"AccountAccessGranted","inputs":[{"name":"providerAddress","type":"address","indexed":true,"internalType":"address"},{"name":"accountAddress","type":"address","indexed":true,"internalType":"address"},{"name":"credentialTimestamp","type":"uint32","indexed":false,"internalType":"uint32"}],"anonymous":false},{"type":"event","name":"OnBorrowCalled","inputs":[{"name":"normalizedAmount","type":"uint256","indexed":false,"internalType":"uint256"},{"name":"intermediateState","type":"tuple","indexed":false,"internalType":"struct MarketState","components":[{"name":"isClosed","type":"bool","internalType":"bool"},{"name":"maxTotalSupply","type":"uint128","internalType":"uint128"},{"name":"accruedProtocolFees","type":"uint128","internalType":"uint128"},{"name":"normalizedUnclaimedWithdrawals","type":"uint128","internalType":"uint128"},{"name":"scaledTotalSupply","type":"uint104","internalType":"uint104"},{"name":"scaledPendingWithdrawals","type":"uint104","internalType":"uint104"},{"name":"pendingWithdrawalExpiry","type":"uint32","internalType":"uint32"},{"name":"isDelinquent","type":"bool","internalType":"bool"},{"name":"timeDelinquent","type":"uint32","internalType":"uint32"},{"name":"protocolFeeBips","type":"uint16","internalType":"uint16"},{"name":"annualInterestBips","type":"uint16","internalType":"uint16"},{"name":"reserveRatioBips","type":"uint16","internalType":"uint16"},{"name":"scaleFactor","type":"uint112","internalType":"uint112"},{"name":"lastInterestAccruedTimestamp","type":"uint32","internalType":"uint32"}]},{"name":"extraData","type":"bytes","indexed":false,"internalType":"bytes"}],"anonymous":false},{"type":"event","name":"OnCloseMarketCalled","inputs":[{"name":"intermediateState","type":"tuple","indexed":false,"internalType":"struct MarketState","components":[{"name":"isClosed","type":"bool","internalType":"bool"},{"name":"maxTotalSupply","type":"uint128","internalType":"uint128"},{"name":"accruedProtocolFees","type":"uint128","internalType":"uint128"},{"name":"normalizedUnclaimedWithdrawals","type":"uint128","internalType":"uint128"},{"name":"scaledTotalSupply","type":"uint104","internalType":"uint104"},{"name":"scaledPendingWithdrawals","type":"uint104","internalType":"uint104"},{"name":"pendingWithdrawalExpiry","type":"uint32","internalType":"uint32"},{"name":"isDelinquent","type":"bool","internalType":"bool"},{"name":"timeDelinquent","type":"uint32","internalType":"uint32"},{"name":"protocolFeeBips","type":"uint16","internalType":"uint16"},{"name":"annualInterestBips","type":"uint16","internalType":"uint16"},{"name":"reserveRatioBips","type":"uint16","internalType":"uint16"},{"name":"scaleFactor","type":"uint112","internalType":"uint112"},{"name":"lastInterestAccruedTimestamp","type":"uint32","internalType":"uint32"}]},{"name":"extraData","type":"bytes","indexed":false,"internalType":"bytes"}],"anonymous":false},{"type":"event","name":"OnDepositCalled","inputs":[{"name":"lender","type":"address","indexed":false,"internalType":"address"},{"name":"scaledAmount","type":"uint256","indexed":false,"internalType":"uint256"},{"name":"intermediateState","type":"tuple","indexed":false,"internalType":"struct MarketState","components":[{"name":"isClosed","type":"bool","internalType":"bool"},{"name":"maxTotalSupply","type":"uint128","internalType":"uint128"},{"name":"accruedProtocolFees","type":"uint128","internalType":"uint128"},{"name":"normalizedUnclaimedWithdrawals","type":"uint128","internalType":"uint128"},{"name":"scaledTotalSupply","type":"uint104","internalType":"uint104"},{"name":"scaledPendingWithdrawals","type":"uint104","internalType":"uint104"},{"name":"pendingWithdrawalExpiry","type":"uint32","internalType":"uint32"},{"name":"isDelinquent","type":"bool","internalType":"bool"},{"name":"timeDelinquent","type":"uint32","internalType":"uint32"},{"name":"protocolFeeBips","type":"uint16","internalType":"uint16"},{"name":"annualInterestBips","type":"uint16","internalType":"uint16"},{"name":"reserveRatioBips","type":"uint16","internalType":"uint16"},{"name":"scaleFactor","type":"uint112","internalType":"uint112"},{"name":"lastInterestAccruedTimestamp","type":"uint32","internalType":"uint32"}]},{"name":"extraData","type":"bytes","indexed":false,"internalType":"bytes"}],"anonymous":false},{"type":"event","name":"OnExecuteWithdrawalCalled","inputs":[{"name":"lender","type":"address","indexed":false,"internalType":"address"},{"name":"normalizedAmountWithdrawn","type":"uint128","indexed":false,"internalType":"uint128"},{"name":"intermediateState","type":"tuple","indexed":false,"internalType":"struct MarketState","components":[{"name":"isClosed","type":"bool","internalType":"bool"},{"name":"maxTotalSupply","type":"uint128","internalType":"uint128"},{"name":"accruedProtocolFees","type":"uint128","internalType":"uint128"},{"name":"normalizedUnclaimedWithdrawals","type":"uint128","internalType":"uint128"},{"name":"scaledTotalSupply","type":"uint104","internalType":"uint104"},{"name":"scaledPendingWithdrawals","type":"uint104","internalType":"uint104"},{"name":"pendingWithdrawalExpiry","type":"uint32","internalType":"uint32"},{"name":"isDelinquent","type":"bool","internalType":"bool"},{"name":"timeDelinquent","type":"uint32","internalType":"uint32"},{"name":"protocolFeeBips","type":"uint16","internalType":"uint16"},{"name":"annualInterestBips","type":"uint16","internalType":"uint16"},{"name":"reserveRatioBips","type":"uint16","internalType":"uint16"},{"name":"scaleFactor","type":"uint112","internalType":"uint112"},{"name":"lastInterestAccruedTimestamp","type":"uint32","internalType":"uint32"}]},{"name":"extraData","type":"bytes","indexed":false,"internalType":"bytes"}],"anonymous":false},{"type":"event","name":"OnNukeFromOrbitCalled","inputs":[{"name":"lender","type":"address","indexed":false,"internalType":"address"},{"name":"intermediateState","type":"tuple","indexed":false,"internalType":"struct MarketState","components":[{"name":"isClosed","type":"bool","internalType":"bool"},{"name":"maxTotalSupply","type":"uint128","internalType":"uint128"},{"name":"accruedProtocolFees","type":"uint128","internalType":"uint128"},{"name":"normalizedUnclaimedWithdrawals","type":"uint128","internalType":"uint128"},{"name":"scaledTotalSupply","type":"uint104","internalType":"uint104"},{"name":"scaledPendingWithdrawals","type":"uint104","internalType":"uint104"},{"name":"pendingWithdrawalExpiry","type":"uint32","internalType":"uint32"},{"name":"isDelinquent","type":"bool","internalType":"bool"},{"name":"timeDelinquent","type":"uint32","internalType":"uint32"},{"name":"protocolFeeBips","type":"uint16","internalType":"uint16"},{"name":"annualInterestBips","type":"uint16","internalType":"uint16"},{"name":"reserveRatioBips","type":"uint16","internalType":"uint16"},{"name":"scaleFactor","type":"uint112","internalType":"uint112"},{"name":"lastInterestAccruedTimestamp","type":"uint32","internalType":"uint32"}]},{"name":"extraData","type":"bytes","indexed":false,"internalType":"bytes"}],"anonymous":false},{"type":"event","name":"OnQueueWithdrawalCalled","inputs":[{"name":"lender","type":"address","indexed":false,"internalType":"address"},{"name":"expiry","type":"uint32","indexed":false,"internalType":"uint32"},{"name":"scaledAmount","type":"uint256","indexed":false,"internalType":"uint256"},{"name":"intermediateState","type":"tuple","indexed":false,"internalType":"struct MarketState","components":[{"name":"isClosed","type":"bool","internalType":"bool"},{"name":"maxTotalSupply","type":"uint128","internalType":"uint128"},{"name":"accruedProtocolFees","type":"uint128","internalType":"uint128"},{"name":"normalizedUnclaimedWithdrawals","type":"uint128","internalType":"uint128"},{"name":"scaledTotalSupply","type":"uint104","internalType":"uint104"},{"name":"scaledPendingWithdrawals","type":"uint104","internalType":"uint104"},{"name":"pendingWithdrawalExpiry","type":"uint32","internalType":"uint32"},{"name":"isDelinquent","type":"bool","internalType":"bool"},{"name":"timeDelinquent","type":"uint32","internalType":"uint32"},{"name":"protocolFeeBips","type":"uint16","internalType":"uint16"},{"name":"annualInterestBips","type":"uint16","internalType":"uint16"},{"name":"reserveRatioBips","type":"uint16","internalType":"uint16"},{"name":"scaleFactor","type":"uint112","internalType":"uint112"},{"name":"lastInterestAccruedTimestamp","type":"uint32","internalType":"uint32"}]},{"name":"extraData","type":"bytes","indexed":false,"internalType":"bytes"}],"anonymous":false},{"type":"event","name":"OnRepayCalled","inputs":[{"name":"normalizedAmount","type":"uint256","indexed":false,"internalType":"uint256"},{"name":"intermediateState","type":"tuple","indexed":false,"internalType":"struct MarketState","components":[{"name":"isClosed","type":"bool","internalType":"bool"},{"name":"maxTotalSupply","type":"uint128","internalType":"uint128"},{"name":"accruedProtocolFees","type":"uint128","internalType":"uint128"},{"name":"normalizedUnclaimedWithdrawals","type":"uint128","internalType":"uint128"},{"name":"scaledTotalSupply","type":"uint104","internalType":"uint104"},{"name":"scaledPendingWithdrawals","type":"uint104","internalType":"uint104"},{"name":"pendingWithdrawalExpiry","type":"uint32","internalType":"uint32"},{"name":"isDelinquent","type":"bool","internalType":"bool"},{"name":"timeDelinquent","type":"uint32","internalType":"uint32"},{"name":"protocolFeeBips","type":"uint16","internalType":"uint16"},{"name":"annualInterestBips","type":"uint16","internalType":"uint16"},{"name":"reserveRatioBips","type":"uint16","internalType":"uint16"},{"name":"scaleFactor","type":"uint112","internalType":"uint112"},{"name":"lastInterestAccruedTimestamp","type":"uint32","internalType":"uint32"}]},{"name":"extraData","type":"bytes","indexed":false,"internalType":"bytes"}],"anonymous":false},{"type":"event","name":"OnSetAnnualInterestAndReserveRatioBipsCalled","inputs":[{"name":"annualInterestBips","type":"uint16","indexed":false,"internalType":"uint16"},{"name":"reserveRatioBips","type":"uint16","indexed":false,"internalType":"uint16"},{"name":"intermediateState","type":"tuple","indexed":false,"internalType":"struct MarketState","components":[{"name":"isClosed","type":"bool","internalType":"bool"},{"name":"maxTotalSupply","type":"uint128","internalType":"uint128"},{"name":"accruedProtocolFees","type":"uint128","internalType":"uint128"},{"name":"normalizedUnclaimedWithdrawals","type":"uint128","internalType":"uint128"},{"name":"scaledTotalSupply","type":"uint104","internalType":"uint104"},{"name":"scaledPendingWithdrawals","type":"uint104","internalType":"uint104"},{"name":"pendingWithdrawalExpiry","type":"uint32","internalType":"uint32"},{"name":"isDelinquent","type":"bool","internalType":"bool"},{"name":"timeDelinquent","type":"uint32","internalType":"uint32"},{"name":"protocolFeeBips","type":"uint16","internalType":"uint16"},{"name":"annualInterestBips","type":"uint16","internalType":"uint16"},{"name":"reserveRatioBips","type":"uint16","internalType":"uint16"},{"name":"scaleFactor","type":"uint112","internalType":"uint112"},{"name":"lastInterestAccruedTimestamp","type":"uint32","internalType":"uint32"}]},{"name":"extraData","type":"bytes","indexed":false,"internalType":"bytes"}],"anonymous":false},{"type":"event","name":"OnSetMaxTotalSupplyCalled","inputs":[{"name":"maxTotalSupply","type":"uint256","indexed":false,"internalType":"uint256"},{"name":"intermediateState","type":"tuple","indexed":false,"internalType":"struct MarketState","components":[{"name":"isClosed","type":"bool","internalType":"bool"},{"name":"maxTotalSupply","type":"uint128","internalType":"uint128"},{"name":"accruedProtocolFees","type":"uint128","internalType":"uint128"},{"name":"normalizedUnclaimedWithdrawals","type":"uint128","internalType":"uint128"},{"name":"scaledTotalSupply","type":"uint104","internalType":"uint104"},{"name":"scaledPendingWithdrawals","type":"uint104","internalType":"uint104"},{"name":"pendingWithdrawalExpiry","type":"uint32","internalType":"uint32"},{"name":"isDelinquent","type":"bool","internalType":"bool"},{"name":"timeDelinquent","type":"uint32","internalType":"uint32"},{"name":"protocolFeeBips","type":"uint16","internalType":"uint16"},{"name":"annualInterestBips","type":"uint16","internalType":"uint16"},{"name":"reserveRatioBips","type":"uint16","internalType":"uint16"},{"name":"scaleFactor","type":"uint112","internalType":"uint112"},{"name":"lastInterestAccruedTimestamp","type":"uint32","internalType":"uint32"}]},{"name":"extraData","type":"bytes","indexed":false,"internalType":"bytes"}],"anonymous":false},{"type":"event","name":"OnSetProtocolFeeBipsCalled","inputs":[{"name":"protocolFeeBips","type":"uint256","indexed":false,"internalType":"uint256"},{"name":"intermediateState","type":"tuple","indexed":false,"internalType":"struct MarketState","components":[{"name":"isClosed","type":"bool","internalType":"bool"},{"name":"maxTotalSupply","type":"uint128","internalType":"uint128"},{"name":"accruedProtocolFees","type":"uint128","internalType":"uint128"},{"name":"normalizedUnclaimedWithdrawals","type":"uint128","internalType":"uint128"},{"name":"scaledTotalSupply","type":"uint104","internalType":"uint104"},{"name":"scaledPendingWithdrawals","type":"uint104","internalType":"uint104"},{"name":"pendingWithdrawalExpiry","type":"uint32","internalType":"uint32"},{"name":"isDelinquent","type":"bool","internalType":"bool"},{"name":"timeDelinquent","type":"uint32","internalType":"uint32"},{"name":"protocolFeeBips","type":"uint16","internalType":"uint16"},{"name":"annualInterestBips","type":"uint16","internalType":"uint16"},{"name":"reserveRatioBips","type":"uint16","internalType":"uint16"},{"name":"scaleFactor","type":"uint112","internalType":"uint112"},{"name":"lastInterestAccruedTimestamp","type":"uint32","internalType":"uint32"}]},{"name":"extraData","type":"bytes","indexed":false,"internalType":"bytes"}],"anonymous":false},{"type":"event","name":"OnTransferCalled","inputs":[{"name":"caller","type":"address","indexed":false,"internalType":"address"},{"name":"from","type":"address","indexed":false,"internalType":"address"},{"name":"to","type":"address","indexed":false,"internalType":"address"},{"name":"scaledAmount","type":"uint256","indexed":false,"internalType":"uint256"},{"name":"intermediateState","type":"tuple","indexed":false,"internalType":"struct MarketState","components":[{"name":"isClosed","type":"bool","internalType":"bool"},{"name":"maxTotalSupply","type":"uint128","internalType":"uint128"},{"name":"accruedProtocolFees","type":"uint128","internalType":"uint128"},{"name":"normalizedUnclaimedWithdrawals","type":"uint128","internalType":"uint128"},{"name":"scaledTotalSupply","type":"uint104","internalType":"uint104"},{"name":"scaledPendingWithdrawals","type":"uint104","internalType":"uint104"},{"name":"pendingWithdrawalExpiry","type":"uint32","internalType":"uint32"},{"name":"isDelinquent","type":"bool","internalType":"bool"},{"name":"timeDelinquent","type":"uint32","internalType":"uint32"},{"name":"protocolFeeBips","type":"uint16","internalType":"uint16"},{"name":"annualInterestBips","type":"uint16","internalType":"uint16"},{"name":"reserveRatioBips","type":"uint16","internalType":"uint16"},{"name":"scaleFactor","type":"uint112","internalType":"uint112"},{"name":"lastInterestAccruedTimestamp","type":"uint32","internalType":"uint32"}]},{"name":"extraData","type":"bytes","indexed":false,"internalType":"bytes"}],"anonymous":false},{"type":"event","name":"RoleProviderAdded","inputs":[{"name":"providerAddress","type":"address","indexed":true,"internalType":"address"},{"name":"timeToLive","type":"uint32","indexed":false,"internalType":"uint32"},{"name":"pullProviderIndex","type":"uint24","indexed":false,"internalType":"uint24"}],"anonymous":false},{"type":"error","name":"CallerNotFactory","inputs":[]}],"bytecode":{"object":"0x60c060405261ffff3060601b6bffe0000000000000000000001760501c1660035534801561002b575f80fd5b50604051611ec4380380611ec483398101604081905261004a916100bf565b33608052600180546001600160a01b0319166001600160a01b03841617905580518290829015610082576002610080828261020c565b505b805160209182012060a05282516100a09250830181019083016102cb565b600355506102e29050565b634e487b7160e01b5f52604160045260245ffd5b5f80604083850312156100d0575f80fd5b82516001600160a01b03811681146100e6575f80fd5b60208401519092506001600160401b0380821115610102575f80fd5b818501915085601f830112610115575f80fd5b815181811115610127576101276100ab565b604051601f8201601f19908116603f0116810190838211818310171561014f5761014f6100ab565b81604052828152886020848701011115610167575f80fd5b8260208601602083015e5f6020848301015280955050505050509250929050565b600181811c9082168061019c57607f821691505b6020821081036101ba57634e487b7160e01b5f52602260045260245ffd5b50919050565b601f82111561020757805f5260205f20601f840160051c810160208510156101e55750805b601f840160051c820191505b81811015610204575f81556001016101f1565b50505b505050565b81516001600160401b03811115610225576102256100ab565b610239816102338454610188565b846101c0565b602080601f83116001811461026c575f84156102555750858301515b5f19600386901b1c1916600185901b1785556102c3565b5f85815260208120601f198616915b8281101561029a5788860151825594840194600190910190840161027b565b50858210156102b757878501515f19600388901b60f8161c191681555b505060018460011b0185555b505050505050565b5f602082840312156102db575f80fd5b5051919050565b60805160a051611bba61030a5f395f61027801525f81816103e001526106c40152611bba5ff3fe608060405234801561000f575f80fd5b50600436106101d1575f3560e01c8063849da129116100fe578063b648226b1161009e578063d5f394881161006e578063d5f3948814610430578063d826f88f14610443578063e5adc6351461044b578063ea5b13bd14610490575f80fd5b8063b648226b146103a8578063bcf62ec8146103b0578063c45a0155146103db578063cc45264214610402575f80fd5b80639ecc64e6116100d95780639ecc64e614610367578063a018f90e1461037a578063a45ed4d91461038d578063b1cfda0d14610395575f80fd5b8063849da1291461032e578063893bcfbe146103415780638b3ce9b314610354575f80fd5b80633521cccc116101745780636e16bad2116101445780636e16bad21461030257806379502c551461030a5780637f8945821461031357806383d9e1eb1461031b575f80fd5b80633521cccc1461029a57806354fd4d50146102ad5780635aeb713f146102dc5780636b2b369b146102ef575f80fd5b8063282c86c5116101af578063282c86c51461022a57806328fd03071461023f5780632970403d146102605780632f27d64914610273575f80fd5b806303473d8d146101d55780630aec0dfa146101ea578063281e6de314610215575b5f80fd5b6101e86101e3366004610ea4565b6104a3565b005b600b546101fd90610100900461ffff1681565b60405161ffff90911681526020015b60405180910390f35b600b546101fd906301000000900461ffff1681565b6102326104ff565b60405161020c9190610f34565b61025261024d36600461102d565b6106b8565b60405190815260200161020c565b6101e861026e3660046110de565b610719565b6102527f000000000000000000000000000000000000000000000000000000000000000081565b6101e86102a8366004611161565b610778565b60408051808201909152600a8152696d6f636b2d686f6f6b7360b01b60208201525b60405161020c91906111e2565b6101e86102ea3660046111fb565b6107da565b6101e86102fd366004611231565b610838565b6102cf610882565b61025260035481565b6102cf61090e565b6101e8610329366004611268565b61091b565b6101e861033c366004611268565b610969565b6101e861034f36600461128d565b600355565b6101e86103623660046112a4565b6109b7565b6101e86103753660046112c3565b610a05565b6101e8610388366004611315565b610a5e565b6102cf610ac3565b6101e86103a3366004611268565b610ad0565b6102525f5481565b6004546103c3906001600160a01b031681565b6040516001600160a01b03909116815260200161020c565b6103c37f000000000000000000000000000000000000000000000000000000000000000081565b6104156104103660046113a8565b610b1e565b6040805161ffff93841681529290911660208301520161020c565b6001546103c3906001600160a01b031681565b6101e8610bae565b6101e86104593660046113d8565b600b805461ffff92831663010000000264ffff00000019939094166101000262ffffff199091161760011791909116919091179055565b6101e861049e366004611231565b610d11565b5f366040516104b3929190611404565b6040519081900381205f557f93e1d2832d137436ab372a036fe3cf22b70a8001309917b0dfd559e25156b347906104f19086908690869086906115c7565b60405180910390a150505050565b610507610dd2565b604080516101408101909152600580546001600160a01b0316825260068054602084019190610535906115fe565b80601f0160208091040260200160405190810160405280929190818152602001828054610561906115fe565b80156105ac5780601f10610583576101008083540402835291602001916105ac565b820191905f5260205f20905b81548152906001019060200180831161058f57829003601f168201915b505050505081526020016002820180546105c5906115fe565b80601f01602080910402602001604051908101604052809291908181526020018280546105f1906115fe565b801561063c5780601f106106135761010080835404028352916020019161063c565b820191905f5260205f20905b81548152906001019060200180831161061f57829003601f168201915b505050918352505060038201546001600160801b038116602083015261ffff600160801b820481166040840152600160901b82048116606084015263ffffffff600160a01b830481166080850152600160c01b830490911660a0840152600160d01b9091041660c082015260049091015460e090910152919050565b5f336001600160a01b037f000000000000000000000000000000000000000000000000000000000000000016146107025760405163a84178ab60e01b815260040160405180910390fd5b61070f8686868686610d5e565b9695505050505050565b5f36604051610729929190611404565b6040519081900381205f557f05a41875dc20c5909e132188a045bc0a31607239f8242af0e6ed67c84574871e906107699087908790879087908790611630565b60405180910390a15050505050565b5f36604051610788929190611404565b6040519081900381205f557fca64d920eccbbe5603740a089555b77fdbdf6b2c81a8329f0e441f6187f9019f906107ca9088908890889088908890889061167c565b60405180910390a1505050505050565b600c6107e782848361172d565b505f366040516107f8929190611404565b6040519081900381205f557f23aac23833a07faa7bfd7148461a5f857ca8971c9a4e4cedeee8050352ee9baf9061076990879087908790879087906117e7565b60405163ffffffff821681526001600160a01b0383169033907fa04eb478c9c6a13a6de14b7eb31b1b629511e804c3cfef31bd549accd4b155249060200160405180910390a35050565b6002805461088f906115fe565b80601f01602080910402602001604051908101604052809291908181526020018280546108bb906115fe565b80156109065780601f106108dd57610100808354040283529160200191610906565b820191905f5260205f20905b8154815290600101906020018083116108e957829003601f168201915b505050505081565b600c805461088f906115fe565b5f3660405161092b929190611404565b6040519081900381205f557fd7b7e3eba884566b2c19b8fe5f7e6af52b5d897ae3cdd16f8c7a6bf4bd34780d906104f190869086908690869061180b565b5f36604051610979929190611404565b6040519081900381205f557fa2ecd29ed77c55e3f890ec095abb889be367b7167896d0c99075625abbfeebe5906104f190869086908690869061180b565b5f366040516109c7929190611404565b6040519081900381205f557f6323e265153ab09489e56432c25348fb13835f2f3dcf9a1f7953c8f77cf4055f906104f190869086908690869061181f565b5f36604051610a15929190611404565b6040519081900381205f557fe4ea01b6e8737c9ced5fe53641abcb725b160a1d589676f3f9d42863e74bcdfc90610a519085908590859061183c565b60405180910390a1505050565b5f36604051610a6e929190611404565b6040519081900381205f557f8128d8a0814871f4f64cb75decd9680bd52f698ed62de8abb476edbe46d0bcbc90610ab290899089908990899089908990899061185e565b60405180910390a150505050505050565b600a805461088f906115fe565b5f36604051610ae0929190611404565b6040519081900381205f557f8137511959dacc2f46b2d8f65e57d7aa13daa6df2f74c0016462dfc5365b66fb906104f190869086908690869061180b565b5f805f36604051610b30929190611404565b6040519081900381205f557f0989c97aa9223e3f990d2ac78112f1a8df3f60f9ad270d4846399a0ec07aa0c390610b7090899089908990899089906118b4565b60405180910390a1600b5460ff16610b89578686610ba0565b600b5461ffff610100820481169163010000009004165b909890975095505050505050565b5f8055610bb9610dd2565b8051600580546001600160a01b0319166001600160a01b039092169190911781556020820151829190600690610bef90826118d4565b5060408201516002820190610c0490826118d4565b506060820151600382018054608085015160a086015160c087015160e088015161010089015163ffffffff908116600160d01b0263ffffffff60d01b1961ffff938416600160c01b021665ffffffffffff60c01b1992909416600160a01b0263ffffffff60a01b19958416600160901b029590951665ffffffffffff60901b1993909616600160801b0271ffffffffffffffffffffffffffffffffffff199097166001600160801b03909916989098179590951716929092171791909116179190911790556101209091015160049091015560408051602081019091525f8152600a90610cf190826118d4565b5060408051602081019091525f8152600c90610d0d90826118d4565b5050565b6040805163ffffffff831681525f60208201526001600160a01b038416917fbe2909d8cc20d11ba19a80df9673ad2fd54f3d18592c03aa1413fc921e185b0b910160405180910390a25050565b600480546001600160a01b0319166001600160a01b0387161790555f836005610d878282611a0d565b50600a9050610d9783858361172d565b506003546bffffffffffffffffffffffff19610120860135908116601083901c605092831c90931692909217901b61ffff60501b161761070f565b60408051610140810182525f8082526060602083018190529282018390529181018290526080810182905260a0810182905260c0810182905260e08101829052610100810182905261012081019190915290565b61ffff81168114610e35575f80fd5b50565b8035610e4381610e26565b919050565b5f6101c08284031215610e59575f80fd5b50919050565b5f8083601f840112610e6f575f80fd5b50813567ffffffffffffffff811115610e86575f80fd5b602083019150836020828501011115610e9d575f80fd5b9250929050565b5f805f806102008587031215610eb8575f80fd5b8435610ec381610e26565b9350610ed28660208701610e48565b92506101e085013567ffffffffffffffff811115610eee575f80fd5b610efa87828801610e5f565b95989497509550505050565b5f81518084528060208401602086015e5f602082860101526020601f19601f83011685010191505092915050565b60208152610f4e6020820183516001600160a01b03169052565b5f6020830151610140806040850152610f6b610160850183610f06565b91506040850151601f19858403016060860152610f888382610f06565b9250506060850151610fa560808601826001600160801b03169052565b50608085015161ffff811660a08601525060a085015161ffff811660c08601525060c085015163ffffffff811660e08601525060e0850151610100610fef8187018361ffff169052565b86015190506101206110088682018363ffffffff169052565b959095015193019290925250919050565b6001600160a01b0381168114610e35575f80fd5b5f805f805f60808688031215611041575f80fd5b853561104c81611019565b9450602086013561105c81611019565b9350604086013567ffffffffffffffff80821115611078575f80fd5b90870190610140828a03121561108c575f80fd5b909350606087013590808211156110a1575f80fd5b506110ae88828901610e5f565b969995985093965092949392505050565b6001600160801b0381168114610e35575f80fd5b8035610e43816110bf565b5f805f805f61022086880312156110f3575f80fd5b85356110fe81611019565b9450602086013561110e816110bf565b935061111d8760408801610e48565b925061020086013567ffffffffffffffff811115611139575f80fd5b6110ae88828901610e5f565b63ffffffff81168114610e35575f80fd5b8035610e4381611145565b5f805f805f806102408789031215611177575f80fd5b863561118281611019565b9550602087013561119281611145565b9450604087013593506111a88860608901610e48565b925061022087013567ffffffffffffffff8111156111c4575f80fd5b6111d089828a01610e5f565b979a9699509497509295939492505050565b602081525f6111f46020830184610f06565b9392505050565b5f805f805f6102208688031215611210575f80fd5b853561121b81611019565b94506020860135935061111d8760408801610e48565b5f8060408385031215611242575f80fd5b823561124d81611019565b9150602083013561125d81611145565b809150509250929050565b5f805f80610200858703121561127c575f80fd5b84359350610ed28660208701610e48565b5f6020828403121561129d575f80fd5b5035919050565b5f805f8061020085870312156112b8575f80fd5b8435610ec381611019565b5f805f6101e084860312156112d6575f80fd5b6112e08585610e48565b92506101c084013567ffffffffffffffff8111156112fc575f80fd5b61130886828701610e5f565b9497909650939450505050565b5f805f805f805f610260888a03121561132c575f80fd5b873561133781611019565b9650602088013561134781611019565b9550604088013561135781611019565b94506060880135935061136d8960808a01610e48565b925061024088013567ffffffffffffffff811115611389575f80fd5b6113958a828b01610e5f565b989b979a50959850939692959293505050565b5f805f805f61022086880312156113bd575f80fd5b85356113c881610e26565b9450602086013561110e81610e26565b5f80604083850312156113e9575f80fd5b82356113f481610e26565b9150602083013561125d81610e26565b818382375f9101908152919050565b80358015158114610e43575f80fd5b80356001600160681b0381168114610e43575f80fd5b80356001600160701b0381168114610e43575f80fd5b6114618261145b83611413565b15159052565b61146d602082016110d3565b6001600160801b03166020830152611487604082016110d3565b6001600160801b031660408301526114a1606082016110d3565b6001600160801b031660608301526114bb60808201611422565b6001600160681b031660808301526114d560a08201611422565b6001600160681b031660a08301526114ef60c08201611156565b63ffffffff1660c083015261150660e08201611413565b151560e083015261010061151b828201611156565b63ffffffff1690830152610120611533828201610e38565b61ffff1690830152610140611549828201610e38565b61ffff169083015261016061155f828201610e38565b61ffff1690830152610180611575828201611438565b6001600160701b0316908301526101a0611590828201611156565b63ffffffff1692019190915250565b81835281816020850137505f828201602090810191909152601f909101601f19169091010190565b5f61020061ffff871683526115df602084018761144e565b806101e08401526115f3818401858761159f565b979650505050505050565b600181811c9082168061161257607f821691505b602082108103610e5957634e487b7160e01b5f52602260045260245ffd5b6001600160a01b03861681526001600160801b03851660208201525f61022061165c604084018761144e565b80610200840152611670818401858761159f565b98975050505050505050565b6001600160a01b038716815263ffffffff86166020820152604081018590525f6102406116ac606084018761144e565b806102208401526116c0818401858761159f565b9998505050505050505050565b634e487b7160e01b5f52604160045260245ffd5b601f82111561172857805f5260205f20601f840160051c810160208510156117065750805b601f840160051c820191505b81811015611725575f8155600101611712565b50505b505050565b67ffffffffffffffff831115611745576117456116cd565b6117598361175383546115fe565b836116e1565b5f601f84116001811461178a575f85156117735750838201355b5f19600387901b1c1916600186901b178355611725565b5f83815260208120601f198716915b828110156117b95786850135825560209485019460019092019101611799565b50868210156117d5575f1960f88860031b161c19848701351681555b505060018560011b0183555050505050565b6001600160a01b0386168152602081018590525f61022061165c604084018761144e565b5f6102008683526115df602084018761144e565b6001600160a01b03851681525f6102006115df602084018761144e565b5f6101e061184a838761144e565b806101c084015261070f818401858761159f565b6001600160a01b038881168252878116602083015286166040820152606081018590525f610260611892608084018761144e565b806102408401526118a6818401858761159f565b9a9950505050505050505050565b61ffff8681168252851660208201525f61022061165c604084018761144e565b815167ffffffffffffffff8111156118ee576118ee6116cd565b611902816118fc84546115fe565b846116e1565b602080601f831160018114611935575f841561191e5750858301515b5f19600386901b1c1916600185901b17855561198c565b5f85815260208120601f198616915b8281101561196357888601518255948401946001909101908401611944565b508582101561198057878501515f19600388901b60f8161c191681555b505060018460011b0185555b505050505050565b5f81356119a081611019565b92915050565b5f808335601e198436030181126119bb575f80fd5b83018035915067ffffffffffffffff8211156119d5575f80fd5b602001915036819003821315610e9d575f80fd5b5f81356119a0816110bf565b5f81356119a081610e26565b5f81356119a081611145565b611a36611a1983611994565b82546001600160a01b0319166001600160a01b0391909116178255565b611a4360208301836119a6565b611a5181836001860161172d565b5050611a6060408301836119a6565b611a6e81836002860161172d565b505060038101611aa9611a83606085016119e9565b82546fffffffffffffffffffffffffffffffff19166001600160801b0391909116178255565b611ad8611ab8608085016119f5565b82805461ffff60801b191660809290921b61ffff60801b16919091179055565b611b07611ae760a085016119f5565b82805461ffff60901b191660909290921b61ffff60901b16919091179055565b611b3a611b1660c08501611a01565b82805463ffffffff60a01b191660a09290921b63ffffffff60a01b16919091179055565b611b69611b4960e085016119f5565b82805461ffff60c01b191660c09290921b61ffff60c01b16919091179055565b611b9d611b796101008501611a01565b82805463ffffffff60d01b191660d09290921b63ffffffff60d01b16919091179055565b506101208201356004820155505056fea164736f6c6343000819000a","linkReferences":{}},"methodIdentifiers":{"addRoleProvider(address,uint32)":"ea5b13bd","annualInterestBipsToReturn()":"0aec0dfa","config()":"79502c55","constructorArgs()":"6e16bad2","constructorArgsHash()":"2f27d649","deployer()":"d5f39488","factory()":"c45a0155","grantRole(address,uint32)":"6b2b369b","lastCalldataHash()":"b648226b","lastCreateMarketHooksData()":"a45ed4d9","lastDeployMarketInputs()":"282c86c5","lastDeployer()":"bcf62ec8","lastExtraData()":"7f894582","onBorrow(uint256,(bool,uint128,uint128,uint128,uint104,uint104,uint32,bool,uint32,uint16,uint16,uint16,uint112,uint32),bytes)":"b1cfda0d","onCloseMarket((bool,uint128,uint128,uint128,uint104,uint104,uint32,bool,uint32,uint16,uint16,uint16,uint112,uint32),bytes)":"9ecc64e6","onCreateMarket(address,address,(address,string,string,uint128,uint16,uint16,uint32,uint16,uint32,uint256),bytes)":"28fd0307","onDeposit(address,uint256,(bool,uint128,uint128,uint128,uint104,uint104,uint32,bool,uint32,uint16,uint16,uint16,uint112,uint32),bytes)":"5aeb713f","onExecuteWithdrawal(address,uint128,(bool,uint128,uint128,uint128,uint104,uint104,uint32,bool,uint32,uint16,uint16,uint16,uint112,uint32),bytes)":"2970403d","onNukeFromOrbit(address,(bool,uint128,uint128,uint128,uint104,uint104,uint32,bool,uint32,uint16,uint16,uint16,uint112,uint32),bytes)":"8b3ce9b3","onQueueWithdrawal(address,uint32,uint256,(bool,uint128,uint128,uint128,uint104,uint104,uint32,bool,uint32,uint16,uint16,uint16,uint112,uint32),bytes)":"3521cccc","onRepay(uint256,(bool,uint128,uint128,uint128,uint104,uint104,uint32,bool,uint32,uint16,uint16,uint16,uint112,uint32),bytes)":"83d9e1eb","onSetAnnualInterestAndReserveRatioBips(uint16,uint16,(bool,uint128,uint128,uint128,uint104,uint104,uint32,bool,uint32,uint16,uint16,uint16,uint112,uint32),bytes)":"cc452642","onSetMaxTotalSupply(uint256,(bool,uint128,uint128,uint128,uint104,uint104,uint32,bool,uint32,uint16,uint16,uint16,uint112,uint32),bytes)":"849da129","onSetProtocolFeeBips(uint16,(bool,uint128,uint128,uint128,uint104,uint104,uint32,bool,uint32,uint16,uint16,uint16,uint112,uint32),bytes)":"03473d8d","onTransfer(address,address,address,uint256,(bool,uint128,uint128,uint128,uint104,uint104,uint32,bool,uint32,uint16,uint16,uint16,uint112,uint32),bytes)":"a018f90e","reserveRatioBipsToReturn()":"281e6de3","reset()":"d826f88f","setAnnualInterestAndReserveRatioBips(uint16,uint16)":"e5adc635","setConfig(uint256)":"893bcfbe","version()":"54fd4d50"},"id":78}