{"abi":[{"type":"function","name":"time","inputs":[],"outputs":[{"name":"","type":"uint256","internalType":"uint256"}],"stateMutability":"view"}],"bytecode":{"object":"0x6080604052348015600e575f80fd5b50605880601a5f395ff3fe6080604052348015600e575f80fd5b50600436106026575f3560e01c806316ada54714602a575b5f80fd5b60306042565b60405190815260200160405180910390f35b5f425f5260205ff3fea164736f6c6343000819000a","linkReferences":{}},"deployedBytecode":{"object":"0x6080604052348015600e575f80fd5b50600436106026575f3560e01c806316ada54714602a575b5f80fd5b60306042565b60405190815260200160405180910390f35b5f425f5260205ff3fea164736f6c6343000819000a","linkReferences":{}},"methodIdentifiers":{"time()":"16ada547"},"id":80}