{"abi":[{"type":"function","name":"assertAccountBalanceLteTotalSupply","inputs":[{"name":"account","type":"address","internalType":"address"}],"outputs":[],"stateMutability":"nonpayable"},{"type":"function","name":"excludeArtifacts","inputs":[],"outputs":[{"name":"excludedArtifacts_","type":"string[]","internalType":"string[]"}],"stateMutability":"view"},{"type":"function","name":"excludeContracts","inputs":[],"outputs":[{"name":"excludedContracts_","type":"address[]","internalType":"address[]"}],"stateMutability":"view"},{"type":"function","name":"excludeSenders","inputs":[],"outputs":[{"name":"excludedSenders_","type":"address[]","internalType":"address[]"}],"stateMutability":"view"},{"type":"function","name":"failed","inputs":[],"outputs":[{"name":"","type":"bool","internalType":"bool"}],"stateMutability":"view"},{"type":"function","name":"handler","inputs":[],"outputs":[{"name":"","type":"address","internalType":"contract ERC20Handler"}],"stateMutability":"view"},{"type":"function","name":"invariant_callSummary","inputs":[],"outputs":[],"stateMutability":"view"},{"type":"function","name":"invariant_depositorBalances","inputs":[],"outputs":[],"stateMutability":"nonpayable"},{"type":"function","name":"invariant_supply","inputs":[],"outputs":[],"stateMutability":"nonpayable"},{"type":"function","name":"setUp","inputs":[],"outputs":[],"stateMutability":"nonpayable"},{"type":"function","name":"targetArtifactSelectors","inputs":[],"outputs":[{"name":"targetedArtifactSelectors_","type":"tuple[]","internalType":"struct StdInvariant.FuzzSelector[]","components":[{"name":"addr","type":"address","internalType":"address"},{"name":"selectors","type":"bytes4[]","internalType":"bytes4[]"}]}],"stateMutability":"view"},{"type":"function","name":"targetArtifacts","inputs":[],"outputs":[{"name":"targetedArtifacts_","type":"string[]","internalType":"string[]"}],"stateMutability":"view"},{"type":"function","name":"targetContracts","inputs":[],"outputs":[{"name":"targetedContracts_","type":"address[]","internalType":"address[]"}],"stateMutability":"view"},{"type":"function","name":"targetInterfaces","inputs":[],"outputs":[{"name":"targetedInterfaces_","type":"tuple[]","internalType":"struct StdInvariant.FuzzInterface[]","components":[{"name":"addr","type":"address","internalType":"address"},{"name":"artifacts","type":"string[]","internalType":"string[]"}]}],"stateMutability":"view"},{"type":"function","name":"targetSelectors","inputs":[],"outputs":[{"name":"targetedSelectors_","type":"tuple[]","internalType":"struct StdInvariant.FuzzSelector[]","components":[{"name":"addr","type":"address","internalType":"address"},{"name":"selectors","type":"bytes4[]","internalType":"bytes4[]"}]}],"stateMutability":"view"},{"type":"function","name":"targetSenders","inputs":[],"outputs":[{"name":"targetedSenders_","type":"address[]","internalType":"address[]"}],"stateMutability":"view"},{"type":"function","name":"token","inputs":[],"outputs":[{"name":"","type":"address","internalType":"contract MockERC20"}],"stateMutability":"view"},{"type":"event","name":"log","inputs":[{"name":"","type":"string","indexed":false,"internalType":"string"}],"anonymous":false},{"type":"event","name":"log_address","inputs":[{"name":"","type":"address","indexed":false,"internalType":"address"}],"anonymous":false},{"type":"event","name":"log_array","inputs":[{"name":"val","type":"uint256[]","indexed":false,"internalType":"uint256[]"}],"anonymous":false},{"type":"event","name":"log_array","inputs":[{"name":"val","type":"int256[]","indexed":false,"internalType":"int256[]"}],"anonymous":false},{"type":"event","name":"log_array","inputs":[{"name":"val","type":"address[]","indexed":false,"internalType":"address[]"}],"anonymous":false},{"type":"event","name":"log_bytes","inputs":[{"name":"","type":"bytes","indexed":false,"internalType":"bytes"}],"anonymous":false},{"type":"event","name":"log_bytes32","inputs":[{"name":"","type":"bytes32","indexed":false,"internalType":"bytes32"}],"anonymous":false},{"type":"event","name":"log_int","inputs":[{"name":"","type":"int256","indexed":false,"internalType":"int256"}],"anonymous":false},{"type":"event","name":"log_named_address","inputs":[{"name":"key","type":"string","indexed":false,"internalType":"string"},{"name":"val","type":"address","indexed":false,"internalType":"address"}],"anonymous":false},{"type":"event","name":"log_named_array","inputs":[{"name":"key","type":"string","indexed":false,"internalType":"string"},{"name":"val","type":"uint256[]","indexed":false,"internalType":"uint256[]"}],"anonymous":false},{"type":"event","name":"log_named_array","inputs":[{"name":"key","type":"string","indexed":false,"internalType":"string"},{"name":"val","type":"int256[]","indexed":false,"internalType":"int256[]"}],"anonymous":false},{"type":"event","name":"log_named_array","inputs":[{"name":"key","type":"string","indexed":false,"internalType":"string"},{"name":"val","type":"address[]","indexed":false,"internalType":"address[]"}],"anonymous":false},{"type":"event","name":"log_named_bytes","inputs":[{"name":"key","type":"string","indexed":false,"internalType":"string"},{"name":"val","type":"bytes","indexed":false,"internalType":"bytes"}],"anonymous":false},{"type":"event","name":"log_named_bytes32","inputs":[{"name":"key","type":"string","indexed":false,"internalType":"string"},{"name":"val","type":"bytes32","indexed":false,"internalType":"bytes32"}],"anonymous":false},{"type":"event","name":"log_named_decimal_int","inputs":[{"name":"key","type":"string","indexed":false,"internalType":"string"},{"name":"val","type":"int256","indexed":false,"internalType":"int256"},{"name":"decimals","type":"uint256","indexed":false,"internalType":"uint256"}],"anonymous":false},{"type":"event","name":"log_named_decimal_uint","inputs":[{"name":"key","type":"string","indexed":false,"internalType":"string"},{"name":"val","type":"uint256","indexed":false,"internalType":"uint256"},{"name":"decimals","type":"uint256","indexed":false,"internalType":"uint256"}],"anonymous":false},{"type":"event","name":"log_named_int","inputs":[{"name":"key","type":"string","indexed":false,"internalType":"string"},{"name":"val","type":"int256","indexed":false,"internalType":"int256"}],"anonymous":false},{"type":"event","name":"log_named_string","inputs":[{"name":"key","type":"string","indexed":false,"internalType":"string"},{"name":"val","type":"string","indexed":false,"internalType":"string"}],"anonymous":false},{"type":"event","name":"log_named_uint","inputs":[{"name":"key","type":"string","indexed":false,"internalType":"string"},{"name":"val","type":"uint256","indexed":false,"internalType":"uint256"}],"anonymous":false},{"type":"event","name":"log_string","inputs":[{"name":"","type":"string","indexed":false,"internalType":"string"}],"anonymous":false},{"type":"event","name":"log_uint","inputs":[{"name":"","type":"uint256","indexed":false,"internalType":"uint256"}],"anonymous":false},{"type":"event","name":"logs","inputs":[{"name":"","type":"bytes","indexed":false,"internalType":"bytes"}],"anonymous":false}],"bytecode":{"object":"0x60806040526001600c5f6101000a81548160ff0219169083151502179055503480156028575f80fd5b50617dd0806100365f395ff3fe608060405234801561000f575f80fd5b5060043610610109575f3560e01c806385226c81116100a0578063ba414fa61161006f578063ba414fa614610237578063c52108eb14610255578063c80916d41461025f578063e20c9f711461027d578063fc0c546a1461029b57610109565b806385226c81146101d3578063916a17c6146101f15780639e0afdc01461020f578063b5508aa91461021957610109565b80633e5e3c23116100dc5780633e5e3c231461015d5780633f7286f41461017b57806366d9a9a0146101995780637250b41d146101b757610109565b80630a9254e41461010d5780631ed7831c146101175780632ade3880146101355780633ae67c4414610153575b5f80fd5b6101156102b9565b005b61011f610693565b60405161012c91906117bb565b60405180910390f35b61013d61071e565b60405161014a91906119fb565b60405180910390f35b61015b6108a2565b005b610165610a60565b60405161017291906117bb565b60405180910390f35b610183610aeb565b60405161019091906117bb565b60405180910390f35b6101a1610b76565b6040516101ae9190611bf2565b60405180910390f35b6101d160048036038101906101cc9190611c40565b610cbd565b005b6101db610def565b6040516101e89190611cee565b60405180910390f35b6101f9610ec3565b6040516102069190611bf2565b60405180910390f35b61021761100a565b005b6102216110af565b60405161022e9190611cee565b60405180910390f35b61023f611183565b60405161024c9190611d28565b60405180910390f35b61025d611297565b005b610267611314565b6040516102749190611d9c565b60405180910390f35b610285611339565b60405161029291906117bb565b60405180910390f35b6102a36113c4565b6040516102b09190611dd5565b60405180910390f35b60126040516102c7906115f5565b6102d19190611e66565b604051809103905ff0801580156102ea573d5f803e3d5ffd5b50601e5f6101000a81548173ffffffffffffffffffffffffffffffffffffffff021916908373ffffffffffffffffffffffffffffffffffffffff160217905550601e5f9054906101000a900473ffffffffffffffffffffffffffffffffffffffff16600a60405161035a90611602565b610365929190611f51565b604051809103905ff08015801561037e573d5f803e3d5ffd5b50601f5f6101000a81548173ffffffffffffffffffffffffffffffffffffffff021916908373ffffffffffffffffffffffffffffffffffffffff1602179055505f600567ffffffffffffffff8111156103da576103d9611f8b565b5b6040519080825280602002602001820160405280156104085781602001602082028036833780820191505090505b509050631b2ef1ca60e01b815f8151811061042657610425611fb8565b5b60200260200101907bffffffffffffffffffffffffffffffffffffffffffffffffffffffff191690817bffffffffffffffffffffffffffffffffffffffffffffffffffffffff19168152505063b390c0ab60e01b8160018151811061048e5761048d611fb8565b5b60200260200101907bffffffffffffffffffffffffffffffffffffffffffffffffffffffff191690817bffffffffffffffffffffffffffffffffffffffffffffffffffffffff19168152505063b866c8a460e01b816002815181106104f6576104f5611fb8565b5b60200260200101907bffffffffffffffffffffffffffffffffffffffffffffffffffffffff191690817bffffffffffffffffffffffffffffffffffffffffffffffffffffffff1916815250506390dd262760e01b8160038151811061055e5761055d611fb8565b5b60200260200101907bffffffffffffffffffffffffffffffffffffffffffffffffffffffff191690817bffffffffffffffffffffffffffffffffffffffffffffffffffffffff191681525050632a69cf3e60e01b816004815181106105c6576105c5611fb8565b5b60200260200101907bffffffffffffffffffffffffffffffffffffffffffffffffffffffff191690817bffffffffffffffffffffffffffffffffffffffffffffffffffffffff1916815250506106666040518060400160405280601f5f9054906101000a900473ffffffffffffffffffffffffffffffffffffffff1673ffffffffffffffffffffffffffffffffffffffff168152602001838152506113e9565b610690601f5f9054906101000a900473ffffffffffffffffffffffffffffffffffffffff16611478565b50565b6060601680548060200260200160405190810160405280929190818152602001828054801561071457602002820191905f5260205f20905b815f9054906101000a900473ffffffffffffffffffffffffffffffffffffffff1673ffffffffffffffffffffffffffffffffffffffff16815260200190600101908083116106cb575b5050505050905090565b6060601d805480602002602001604051908101604052809291908181526020015f905b82821015610899578382905f5260205f2090600202016040518060400160405290815f82015f9054906101000a900473ffffffffffffffffffffffffffffffffffffffff1673ffffffffffffffffffffffffffffffffffffffff1673ffffffffffffffffffffffffffffffffffffffff16815260200160018201805480602002602001604051908101604052809291908181526020015f905b82821015610882578382905f5260205f200180546107f790612012565b80601f016020809104026020016040519081016040528092919081815260200182805461082390612012565b801561086e5780601f106108455761010080835404028352916020019161086e565b820191905f5260205f20905b81548152906001019060200180831161085157829003601f168201915b5050505050815260200190600101906107da565b505050508152505081526020019060010190610741565b50505050905090565b610a5e601e5f9054906101000a900473ffffffffffffffffffffffffffffffffffffffff1673ffffffffffffffffffffffffffffffffffffffff166318160ddd6040518163ffffffff1660e01b8152600401602060405180830381865afa15801561090f573d5f803e3d5ffd5b505050506040513d601f19601f82011682018060405250810190610933919061206c565b601f5f9054906101000a900473ffffffffffffffffffffffffffffffffffffffff1673ffffffffffffffffffffffffffffffffffffffff1663b7eb00596040518163ffffffff1660e01b8152600401602060405180830381865afa15801561099d573d5f803e3d5ffd5b505050506040513d601f19601f820116820180604052508101906109c1919061206c565b601f5f9054906101000a900473ffffffffffffffffffffffffffffffffffffffff1673ffffffffffffffffffffffffffffffffffffffff1663bac359196040518163ffffffff1660e01b8152600401602060405180830381865afa158015610a2b573d5f803e3d5ffd5b505050506040513d601f19601f82011682018060405250810190610a4f919061206c565b610a5991906120c4565b6114db565b565b60606018805480602002602001604051908101604052809291908181526020018280548015610ae157602002820191905f5260205f20905b815f9054906101000a900473ffffffffffffffffffffffffffffffffffffffff1673ffffffffffffffffffffffffffffffffffffffff1681526020019060010190808311610a98575b5050505050905090565b60606017805480602002602001604051908101604052809291908181526020018280548015610b6c57602002820191905f5260205f20905b815f9054906101000a900473ffffffffffffffffffffffffffffffffffffffff1673ffffffffffffffffffffffffffffffffffffffff1681526020019060010190808311610b23575b5050505050905090565b6060601b805480602002602001604051908101604052809291908181526020015f905b82821015610cb4578382905f5260205f2090600202016040518060400160405290815f82015f9054906101000a900473ffffffffffffffffffffffffffffffffffffffff1673ffffffffffffffffffffffffffffffffffffffff1673ffffffffffffffffffffffffffffffffffffffff16815260200160018201805480602002602001604051908101604052809291908181526020018280548015610c9c57602002820191905f5260205f20905f905b82829054906101000a900460e01b7bffffffffffffffffffffffffffffffffffffffffffffffffffffffff191681526020019060040190602082600301049283019260010382029150808411610c495790505b50505050508152505081526020019060010190610b99565b50505050905090565b610dec601e5f9054906101000a900473ffffffffffffffffffffffffffffffffffffffff1673ffffffffffffffffffffffffffffffffffffffff166370a08231836040518263ffffffff1660e01b8152600401610d1a9190612106565b602060405180830381865afa158015610d35573d5f803e3d5ffd5b505050506040513d601f19601f82011682018060405250810190610d59919061206c565b601e5f9054906101000a900473ffffffffffffffffffffffffffffffffffffffff1673ffffffffffffffffffffffffffffffffffffffff166318160ddd6040518163ffffffff1660e01b8152600401602060405180830381865afa158015610dc3573d5f803e3d5ffd5b505050506040513d601f19601f82011682018060405250810190610de7919061206c565b611568565b50565b6060601a805480602002602001604051908101604052809291908181526020015f905b82821015610eba578382905f5260205f20018054610e2f90612012565b80601f0160208091040260200160405190810160405280929190818152602001828054610e5b90612012565b8015610ea65780601f10610e7d57610100808354040283529160200191610ea6565b820191905f5260205f20905b815481529060010190602001808311610e8957829003601f168201915b505050505081526020019060010190610e12565b50505050905090565b6060601c805480602002602001604051908101604052809291908181526020015f905b82821015611001578382905f5260205f2090600202016040518060400160405290815f82015f9054906101000a900473ffffffffffffffffffffffffffffffffffffffff1673ffffffffffffffffffffffffffffffffffffffff1673ffffffffffffffffffffffffffffffffffffffff16815260200160018201805480602002602001604051908101604052809291908181526020018280548015610fe957602002820191905f5260205f20905f905b82829054906101000a900460e01b7bffffffffffffffffffffffffffffffffffffffffffffffffffffffff191681526020019060040190602082600301049283019260010382029150808411610f965790505b50505050508152505081526020019060010190610ee6565b50505050905090565b601f5f9054906101000a900473ffffffffffffffffffffffffffffffffffffffff1673ffffffffffffffffffffffffffffffffffffffff16639699d8a83073ffffffffffffffffffffffffffffffffffffffff16637250b41d6040518363ffffffff1660e01b8152600401611080929190612187565b5f604051808303815f87803b158015611097575f80fd5b505af11580156110a9573d5f803e3d5ffd5b50505050565b60606019805480602002602001604051908101604052809291908181526020015f905b8282101561117a578382905f5260205f200180546110ef90612012565b80601f016020809104026020016040519081016040528092919081815260200182805461111b90612012565b80156111665780601f1061113d57610100808354040283529160200191611166565b820191905f5260205f20905b81548152906001019060200180831161114957829003601f168201915b5050505050815260200190600101906110d2565b50505050905090565b5f60085f9054906101000a900460ff16156111ae5760085f9054906101000a900460ff169050611294565b5f801b7f885cb69240a935d632d79c317109709ecfa91a80626ff3989d68f67f5b1dd12d5f1c73ffffffffffffffffffffffffffffffffffffffff1663667f9d707f885cb69240a935d632d79c317109709ecfa91a80626ff3989d68f67f5b1dd12d5f1c7f6661696c656400000000000000000000000000000000000000000000000000006040518363ffffffff1660e01b81526004016112509291906121ba565b602060405180830381865afa15801561126b573d5f803e3d5ffd5b505050506040513d601f19601f8201168201806040525081019061128f919061220b565b141590505b90565b601f5f9054906101000a900473ffffffffffffffffffffffffffffffffffffffff1673ffffffffffffffffffffffffffffffffffffffff166313594d5c6040518163ffffffff1660e01b81526004015f6040518083038186803b1580156112fc575f80fd5b505afa15801561130e573d5f803e3d5ffd5b50505050565b601f5f9054906101000a900473ffffffffffffffffffffffffffffffffffffffff1681565b606060158054806020026020016040519081016040528092919081815260200182805480156113ba57602002820191905f5260205f20905b815f9054906101000a900473ffffffffffffffffffffffffffffffffffffffff1673ffffffffffffffffffffffffffffffffffffffff1681526020019060010190808311611371575b5050505050905090565b601e5f9054906101000a900473ffffffffffffffffffffffffffffffffffffffff1681565b601c81908060018154018082558091505060019003905f5260205f2090600202015f909190919091505f820151815f015f6101000a81548173ffffffffffffffffffffffffffffffffffffffff021916908373ffffffffffffffffffffffffffffffffffffffff160217905550602082015181600101908051906020019061147292919061160f565b50505050565b601781908060018154018082558091505060019003905f5260205f20015f9091909190916101000a81548173ffffffffffffffffffffffffffffffffffffffff021916908373ffffffffffffffffffffffffffffffffffffffff16021790555050565b7f885cb69240a935d632d79c317109709ecfa91a80626ff3989d68f67f5b1dd12d5f1c73ffffffffffffffffffffffffffffffffffffffff166398296c5483836040518363ffffffff1660e01b8152600401611538929190612245565b5f6040518083038186803b15801561154e575f80fd5b505afa158015611560573d5f803e3d5ffd5b505050505050565b7f885cb69240a935d632d79c317109709ecfa91a80626ff3989d68f67f5b1dd12d5f1c73ffffffffffffffffffffffffffffffffffffffff16638466f41583836040518363ffffffff1660e01b81526004016115c5929190612245565b5f6040518083038186803b1580156115db575f80fd5b505afa1580156115ed573d5f803e3d5ffd5b505050505050565b611dbc8061226d83390190565b613d9b8061402983390190565b828054828255905f5260205f20906007016008900481019282156116a8579160200282015f5b8382111561167657835183826101000a81548163ffffffff021916908360e01c02179055509260200192600401602081600301049283019260010302611635565b80156116a65782816101000a81549063ffffffff0219169055600401602081600301049283019260010302611676565b505b5090506116b591906116b9565b5090565b5b808211156116d0575f815f9055506001016116ba565b5090565b5f81519050919050565b5f82825260208201905092915050565b5f819050602082019050919050565b5f73ffffffffffffffffffffffffffffffffffffffff82169050919050565b5f611726826116fd565b9050919050565b6117368161171c565b82525050565b5f611747838361172d565b60208301905092915050565b5f602082019050919050565b5f611769826116d4565b61177381856116de565b935061177e836116ee565b805f5b838110156117ae578151611795888261173c565b97506117a083611753565b925050600181019050611781565b5085935050505092915050565b5f6020820190508181035f8301526117d3818461175f565b905092915050565b5f81519050919050565b5f82825260208201905092915050565b5f819050602082019050919050565b5f81519050919050565b5f82825260208201905092915050565b5f819050602082019050919050565b5f81519050919050565b5f82825260208201905092915050565b8281835e5f83830152505050565b5f601f19601f8301169050919050565b5f61186f8261182d565b6118798185611837565b9350611889818560208601611847565b61189281611855565b840191505092915050565b5f6118a88383611865565b905092915050565b5f602082019050919050565b5f6118c682611804565b6118d0818561180e565b9350836020820285016118e28561181e565b805f5b8581101561191d57848403895281516118fe858261189d565b9450611909836118b0565b925060208a019950506001810190506118e5565b50829750879550505050505092915050565b5f604083015f8301516119445f86018261172d565b506020830151848203602086015261195c82826118bc565b9150508091505092915050565b5f611974838361192f565b905092915050565b5f602082019050919050565b5f611992826117db565b61199c81856117e5565b9350836020820285016119ae856117f5565b805f5b858110156119e957848403895281516119ca8582611969565b94506119d58361197c565b925060208a019950506001810190506119b1565b50829750879550505050505092915050565b5f6020820190508181035f830152611a138184611988565b905092915050565b5f81519050919050565b5f82825260208201905092915050565b5f819050602082019050919050565b5f81519050919050565b5f82825260208201905092915050565b5f819050602082019050919050565b5f7fffffffff0000000000000000000000000000000000000000000000000000000082169050919050565b611aa181611a6d565b82525050565b5f611ab28383611a98565b60208301905092915050565b5f602082019050919050565b5f611ad482611a44565b611ade8185611a4e565b9350611ae983611a5e565b805f5b83811015611b19578151611b008882611aa7565b9750611b0b83611abe565b925050600181019050611aec565b5085935050505092915050565b5f604083015f830151611b3b5f86018261172d565b5060208301518482036020860152611b538282611aca565b9150508091505092915050565b5f611b6b8383611b26565b905092915050565b5f602082019050919050565b5f611b8982611a1b565b611b938185611a25565b935083602082028501611ba585611a35565b805f5b85811015611be05784840389528151611bc18582611b60565b9450611bcc83611b73565b925060208a01995050600181019050611ba8565b50829750879550505050505092915050565b5f6020820190508181035f830152611c0a8184611b7f565b905092915050565b5f80fd5b611c1f8161171c565b8114611c29575f80fd5b50565b5f81359050611c3a81611c16565b92915050565b5f60208284031215611c5557611c54611c12565b5b5f611c6284828501611c2c565b91505092915050565b5f82825260208201905092915050565b5f611c8582611804565b611c8f8185611c6b565b935083602082028501611ca18561181e565b805f5b85811015611cdc5784840389528151611cbd858261189d565b9450611cc8836118b0565b925060208a01995050600181019050611ca4565b50829750879550505050505092915050565b5f6020820190508181035f830152611d068184611c7b565b905092915050565b5f8115159050919050565b611d2281611d0e565b82525050565b5f602082019050611d3b5f830184611d19565b92915050565b5f819050919050565b5f611d64611d5f611d5a846116fd565b611d41565b6116fd565b9050919050565b5f611d7582611d4a565b9050919050565b5f611d8682611d6b565b9050919050565b611d9681611d7c565b82525050565b5f602082019050611daf5f830184611d8d565b92915050565b5f611dbf82611d6b565b9050919050565b611dcf81611db5565b82525050565b5f602082019050611de85f830184611dc6565b92915050565b5f82825260208201905092915050565b50565b5f611e0c5f83611dee565b9150611e1782611dfe565b5f82019050919050565b5f819050919050565b5f60ff82169050919050565b5f611e50611e4b611e4684611e21565b611d41565b611e2a565b9050919050565b611e6081611e36565b82525050565b5f6060820190508181035f830152611e7d81611e01565b90508181036020830152611e9081611e01565b9050611e9f6040830184611e57565b92915050565b5f611eaf82611d6b565b9050919050565b611ebf81611ea5565b82525050565b7f455243323020496e76617269616e7473000000000000000000000000000000005f82015250565b5f611ef9601083611dee565b9150611f0482611ec5565b602082019050919050565b5f819050919050565b5f819050919050565b5f611f3b611f36611f3184611f0f565b611d41565b611f18565b9050919050565b611f4b81611f21565b82525050565b5f606082019050611f645f830185611eb6565b8181036020830152611f7581611eed565b9050611f846040830184611f42565b9392505050565b7f4e487b71000000000000000000000000000000000000000000000000000000005f52604160045260245ffd5b7f4e487b71000000000000000000000000000000000000000000000000000000005f52603260045260245ffd5b7f4e487b71000000000000000000000000000000000000000000000000000000005f52602260045260245ffd5b5f600282049050600182168061202957607f821691505b60208210810361203c5761203b611fe5565b5b50919050565b61204b81611f18565b8114612055575f80fd5b50565b5f8151905061206681612042565b92915050565b5f6020828403121561208157612080611c12565b5b5f61208e84828501612058565b91505092915050565b7f4e487b71000000000000000000000000000000000000000000000000000000005f52601160045260245ffd5b5f6120ce82611f18565b91506120d983611f18565b92508282039050818111156120f1576120f0612097565b5b92915050565b6121008161171c565b82525050565b5f6020820190506121195f8301846120f7565b92915050565b5f8160201b9050919050565b5f8160401b9050919050565b5f61215163ffffffff841661214b8461211f565b1761212b565b905092915050565b5f808291508390509250929050565b6121728282612159565b925090506121808282612137565b8352505050565b5f60208201905061219b5f83018486612168565b9392505050565b5f819050919050565b6121b4816121a2565b82525050565b5f6040820190506121cd5f8301856120f7565b6121da60208301846121ab565b9392505050565b6121ea816121a2565b81146121f4575f80fd5b50565b5f81519050612205816121e1565b92915050565b5f602082840312156122205761221f611c12565b5b5f61222d848285016121f7565b91505092915050565b61223f81611f18565b82525050565b5f6040820190506122585f830185612236565b6122656020830184612236565b939250505056fe60e060405234801561000f575f80fd5b50604051611dbc380380611dbc83398181016040528101906100319190610296565b828282825f9081610042919061052b565b508160019081610052919061052b565b508060ff1660808160ff16815250504660a0818152505061007761008960201b60201c565b60c08181525050505050505050610763565b5f7f8b73c3c69bb8fe3d512ecc4cf759cc79239f7b179b0ffacaa9a75d522b39400f5f6040516100b99190610696565b60405180910390207fc89efdaa54c0f20c7adf612882df0950f5a951637e0307cdcb4c672f298b8bc646306040516020016100f8959493929190610712565b60405160208183030381529060405280519060200120905090565b5f604051905090565b5f80fd5b5f80fd5b5f80fd5b5f80fd5b5f601f19601f8301169050919050565b7f4e487b71000000000000000000000000000000000000000000000000000000005f52604160045260245ffd5b6101728261012c565b810181811067ffffffffffffffff821117156101915761019061013c565b5b80604052505050565b5f6101a3610113565b90506101af8282610169565b919050565b5f67ffffffffffffffff8211156101ce576101cd61013c565b5b6101d78261012c565b9050602081019050919050565b8281835e5f83830152505050565b5f6102046101ff846101b4565b61019a565b9050828152602081018484840111156102205761021f610128565b5b61022b8482856101e4565b509392505050565b5f82601f83011261024757610246610124565b5b81516102578482602086016101f2565b91505092915050565b5f60ff82169050919050565b61027581610260565b811461027f575f80fd5b50565b5f815190506102908161026c565b92915050565b5f805f606084860312156102ad576102ac61011c565b5b5f84015167ffffffffffffffff8111156102ca576102c9610120565b5b6102d686828701610233565b935050602084015167ffffffffffffffff8111156102f7576102f6610120565b5b61030386828701610233565b925050604061031486828701610282565b9150509250925092565b5f81519050919050565b7f4e487b71000000000000000000000000000000000000000000000000000000005f52602260045260245ffd5b5f600282049050600182168061036c57607f821691505b60208210810361037f5761037e610328565b5b50919050565b5f819050815f5260205f209050919050565b5f6020601f8301049050919050565b5f82821b905092915050565b5f600883026103e17fffffffffffffffffffffffffffffffffffffffffffffffffffffffffffffffff826103a6565b6103eb86836103a6565b95508019841693508086168417925050509392505050565b5f819050919050565b5f819050919050565b5f61042f61042a61042584610403565b61040c565b610403565b9050919050565b5f819050919050565b61044883610415565b61045c61045482610436565b8484546103b2565b825550505050565b5f90565b610470610464565b61047b81848461043f565b505050565b5b8181101561049e576104935f82610468565b600181019050610481565b5050565b601f8211156104e3576104b481610385565b6104bd84610397565b810160208510156104cc578190505b6104e06104d885610397565b830182610480565b50505b505050565b5f82821c905092915050565b5f6105035f19846008026104e8565b1980831691505092915050565b5f61051b83836104f4565b9150826002028217905092915050565b6105348261031e565b67ffffffffffffffff81111561054d5761054c61013c565b5b6105578254610355565b6105628282856104a2565b5f60209050601f831160018114610593575f8415610581578287015190505b61058b8582610510565b8655506105f2565b601f1984166105a186610385565b5f5b828110156105c8578489015182556001820191506020850194506020810190506105a3565b868310156105e557848901516105e1601f8916826104f4565b8355505b6001600288020188555050505b505050505050565b5f81905092915050565b5f819050815f5260205f209050919050565b5f815461062281610355565b61062c81866105fa565b9450600182165f8114610646576001811461065b5761068d565b60ff198316865281151582028601935061068d565b61066485610604565b5f5b8381101561068557815481890152600182019150602081019050610666565b838801955050505b50505092915050565b5f6106a18284610616565b915081905092915050565b5f819050919050565b6106be816106ac565b82525050565b6106cd81610403565b82525050565b5f73ffffffffffffffffffffffffffffffffffffffff82169050919050565b5f6106fc826106d3565b9050919050565b61070c816106f2565b82525050565b5f60a0820190506107255f8301886106b5565b61073260208301876106b5565b61073f60408301866106b5565b61074c60608301856106c4565b6107596080830184610703565b9695505050505050565b60805160a05160c05161162f61078d5f395f61070a01525f6106d601525f6106b1015261162f5ff3fe608060405234801561000f575f80fd5b50600436106100e8575f3560e01c806370a082311161008a5780639dc29fac116100645780639dc29fac1461025e578063a9059cbb1461027a578063d505accf146102aa578063dd62ed3e146102c6576100e8565b806370a08231146101e05780637ecebe001461021057806395d89b4114610240576100e8565b806323b872dd116100c657806323b872dd14610158578063313ce567146101885780633644e515146101a657806340c10f19146101c4576100e8565b806306fdde03146100ec578063095ea7b31461010a57806318160ddd1461013a575b5f80fd5b6100f46102f6565b6040516101019190610eab565b60405180910390f35b610124600480360381019061011f9190610f5c565b610381565b6040516101319190610fb4565b60405180910390f35b61014261046e565b60405161014f9190610fdc565b60405180910390f35b610172600480360381019061016d9190610ff5565b610474565b60405161017f9190610fb4565b60405180910390f35b6101906106af565b60405161019d9190611060565b60405180910390f35b6101ae6106d3565b6040516101bb9190611091565b60405180910390f35b6101de60048036038101906101d99190610f5c565b61072f565b005b6101fa60048036038101906101f591906110aa565b61073d565b6040516102079190610fdc565b60405180910390f35b61022a600480360381019061022591906110aa565b610752565b6040516102379190610fdc565b60405180910390f35b610248610767565b6040516102559190610eab565b60405180910390f35b61027860048036038101906102739190610f5c565b6107f3565b005b610294600480360381019061028f9190610f5c565b610801565b6040516102a19190610fb4565b60405180910390f35b6102c460048036038101906102bf9190611129565b61090e565b005b6102e060048036038101906102db91906111c6565b610bfb565b6040516102ed9190610fdc565b60405180910390f35b5f805461030290611231565b80601f016020809104026020016040519081016040528092919081815260200182805461032e90611231565b80156103795780601f1061035057610100808354040283529160200191610379565b820191905f5260205f20905b81548152906001019060200180831161035c57829003601f168201915b505050505081565b5f8160045f3373ffffffffffffffffffffffffffffffffffffffff1673ffffffffffffffffffffffffffffffffffffffff1681526020019081526020015f205f8573ffffffffffffffffffffffffffffffffffffffff1673ffffffffffffffffffffffffffffffffffffffff1681526020019081526020015f20819055508273ffffffffffffffffffffffffffffffffffffffff163373ffffffffffffffffffffffffffffffffffffffff167f8c5be1e5ebec7d5bd14f71427d1e84f3dd0314c0f7b2291e5b200ac8c7c3b9258460405161045c9190610fdc565b60405180910390a36001905092915050565b60025481565b5f8060045f8673ffffffffffffffffffffffffffffffffffffffff1673ffffffffffffffffffffffffffffffffffffffff1681526020019081526020015f205f3373ffffffffffffffffffffffffffffffffffffffff1673ffffffffffffffffffffffffffffffffffffffff1681526020019081526020015f205490507fffffffffffffffffffffffffffffffffffffffffffffffffffffffffffffffff81146105a1578281610524919061128e565b60045f8773ffffffffffffffffffffffffffffffffffffffff1673ffffffffffffffffffffffffffffffffffffffff1681526020019081526020015f205f3373ffffffffffffffffffffffffffffffffffffffff1673ffffffffffffffffffffffffffffffffffffffff1681526020019081526020015f20819055505b8260035f8773ffffffffffffffffffffffffffffffffffffffff1673ffffffffffffffffffffffffffffffffffffffff1681526020019081526020015f205f8282546105ed919061128e565b925050819055508260035f8673ffffffffffffffffffffffffffffffffffffffff1673ffffffffffffffffffffffffffffffffffffffff1681526020019081526020015f205f82825401925050819055508373ffffffffffffffffffffffffffffffffffffffff168573ffffffffffffffffffffffffffffffffffffffff167fddf252ad1be2c89b69c2b068fc378daa952ba7f163c4a11628f55a4df523b3ef8560405161069b9190610fdc565b60405180910390a360019150509392505050565b7f000000000000000000000000000000000000000000000000000000000000000081565b5f7f0000000000000000000000000000000000000000000000000000000000000000461461070857610703610c1b565b61072a565b7f00000000000000000000000000000000000000000000000000000000000000005b905090565b6107398282610ca5565b5050565b6003602052805f5260405f205f915090505481565b6005602052805f5260405f205f915090505481565b6001805461077490611231565b80601f01602080910402602001604051908101604052809291908181526020018280546107a090611231565b80156107eb5780601f106107c2576101008083540402835291602001916107eb565b820191905f5260205f20905b8154815290600101906020018083116107ce57829003601f168201915b505050505081565b6107fd8282610d70565b5050565b5f8160035f3373ffffffffffffffffffffffffffffffffffffffff1673ffffffffffffffffffffffffffffffffffffffff1681526020019081526020015f205f82825461084e919061128e565b925050819055508160035f8573ffffffffffffffffffffffffffffffffffffffff1673ffffffffffffffffffffffffffffffffffffffff1681526020019081526020015f205f82825401925050819055508273ffffffffffffffffffffffffffffffffffffffff163373ffffffffffffffffffffffffffffffffffffffff167fddf252ad1be2c89b69c2b068fc378daa952ba7f163c4a11628f55a4df523b3ef846040516108fc9190610fdc565b60405180910390a36001905092915050565b42841015610951576040517f08c379a00000000000000000000000000000000000000000000000000000000081526004016109489061130b565b60405180910390fd5b5f600161095c6106d3565b7f6e71edae12b1b97f4d1f60370fef10105fa2faae0126114a169c64845d6126c98a8a8a60055f8f73ffffffffffffffffffffffffffffffffffffffff1673ffffffffffffffffffffffffffffffffffffffff1681526020019081526020015f205f815480929190600101919050558b6040516020016109e196959493929190611338565b60405160208183030381529060405280519060200120604051602001610a0892919061140b565b604051602081830303815290604052805190602001208585856040515f8152602001604052604051610a3d9493929190611441565b6020604051602081039080840390855afa158015610a5d573d5f803e3d5ffd5b5050506020604051035190505f73ffffffffffffffffffffffffffffffffffffffff168173ffffffffffffffffffffffffffffffffffffffff1614158015610ad057508773ffffffffffffffffffffffffffffffffffffffff168173ffffffffffffffffffffffffffffffffffffffff16145b610b0f576040517f08c379a0000000000000000000000000000000000000000000000000000000008152600401610b06906114ce565b60405180910390fd5b8560045f8373ffffffffffffffffffffffffffffffffffffffff1673ffffffffffffffffffffffffffffffffffffffff1681526020019081526020015f205f8973ffffffffffffffffffffffffffffffffffffffff1673ffffffffffffffffffffffffffffffffffffffff1681526020019081526020015f2081905550508573ffffffffffffffffffffffffffffffffffffffff168773ffffffffffffffffffffffffffffffffffffffff167f8c5be1e5ebec7d5bd14f71427d1e84f3dd0314c0f7b2291e5b200ac8c7c3b92587604051610bea9190610fdc565b60405180910390a350505050505050565b6004602052815f5260405f20602052805f5260405f205f91509150505481565b5f7f8b73c3c69bb8fe3d512ecc4cf759cc79239f7b179b0ffacaa9a75d522b39400f5f604051610c4b9190611588565b60405180910390207fc89efdaa54c0f20c7adf612882df0950f5a951637e0307cdcb4c672f298b8bc64630604051602001610c8a95949392919061159e565b60405160208183030381529060405280519060200120905090565b8060025f828254610cb691906115ef565b925050819055508060035f8473ffffffffffffffffffffffffffffffffffffffff1673ffffffffffffffffffffffffffffffffffffffff1681526020019081526020015f205f82825401925050819055508173ffffffffffffffffffffffffffffffffffffffff165f73ffffffffffffffffffffffffffffffffffffffff167fddf252ad1be2c89b69c2b068fc378daa952ba7f163c4a11628f55a4df523b3ef83604051610d649190610fdc565b60405180910390a35050565b8060035f8473ffffffffffffffffffffffffffffffffffffffff1673ffffffffffffffffffffffffffffffffffffffff1681526020019081526020015f205f828254610dbc919061128e565b925050819055508060025f82825403925050819055505f73ffffffffffffffffffffffffffffffffffffffff168273ffffffffffffffffffffffffffffffffffffffff167fddf252ad1be2c89b69c2b068fc378daa952ba7f163c4a11628f55a4df523b3ef83604051610e2f9190610fdc565b60405180910390a35050565b5f81519050919050565b5f82825260208201905092915050565b8281835e5f83830152505050565b5f601f19601f8301169050919050565b5f610e7d82610e3b565b610e878185610e45565b9350610e97818560208601610e55565b610ea081610e63565b840191505092915050565b5f6020820190508181035f830152610ec38184610e73565b905092915050565b5f80fd5b5f73ffffffffffffffffffffffffffffffffffffffff82169050919050565b5f610ef882610ecf565b9050919050565b610f0881610eee565b8114610f12575f80fd5b50565b5f81359050610f2381610eff565b92915050565b5f819050919050565b610f3b81610f29565b8114610f45575f80fd5b50565b5f81359050610f5681610f32565b92915050565b5f8060408385031215610f7257610f71610ecb565b5b5f610f7f85828601610f15565b9250506020610f9085828601610f48565b9150509250929050565b5f8115159050919050565b610fae81610f9a565b82525050565b5f602082019050610fc75f830184610fa5565b92915050565b610fd681610f29565b82525050565b5f602082019050610fef5f830184610fcd565b92915050565b5f805f6060848603121561100c5761100b610ecb565b5b5f61101986828701610f15565b935050602061102a86828701610f15565b925050604061103b86828701610f48565b9150509250925092565b5f60ff82169050919050565b61105a81611045565b82525050565b5f6020820190506110735f830184611051565b92915050565b5f819050919050565b61108b81611079565b82525050565b5f6020820190506110a45f830184611082565b92915050565b5f602082840312156110bf576110be610ecb565b5b5f6110cc84828501610f15565b91505092915050565b6110de81611045565b81146110e8575f80fd5b50565b5f813590506110f9816110d5565b92915050565b61110881611079565b8114611112575f80fd5b50565b5f81359050611123816110ff565b92915050565b5f805f805f805f60e0888a03121561114457611143610ecb565b5b5f6111518a828b01610f15565b97505060206111628a828b01610f15565b96505060406111738a828b01610f48565b95505060606111848a828b01610f48565b94505060806111958a828b016110eb565b93505060a06111a68a828b01611115565b92505060c06111b78a828b01611115565b91505092959891949750929550565b5f80604083850312156111dc576111db610ecb565b5b5f6111e985828601610f15565b92505060206111fa85828601610f15565b9150509250929050565b7f4e487b71000000000000000000000000000000000000000000000000000000005f52602260045260245ffd5b5f600282049050600182168061124857607f821691505b60208210810361125b5761125a611204565b5b50919050565b7f4e487b71000000000000000000000000000000000000000000000000000000005f52601160045260245ffd5b5f61129882610f29565b91506112a383610f29565b92508282039050818111156112bb576112ba611261565b5b92915050565b7f5045524d49545f444541444c494e455f455850495245440000000000000000005f82015250565b5f6112f5601783610e45565b9150611300826112c1565b602082019050919050565b5f6020820190508181035f830152611322816112e9565b9050919050565b61133281610eee565b82525050565b5f60c08201905061134b5f830189611082565b6113586020830188611329565b6113656040830187611329565b6113726060830186610fcd565b61137f6080830185610fcd565b61138c60a0830184610fcd565b979650505050505050565b5f81905092915050565b7f19010000000000000000000000000000000000000000000000000000000000005f82015250565b5f6113d5600283611397565b91506113e0826113a1565b600282019050919050565b5f819050919050565b61140561140082611079565b6113eb565b82525050565b5f611415826113c9565b915061142182856113f4565b60208201915061143182846113f4565b6020820191508190509392505050565b5f6080820190506114545f830187611082565b6114616020830186611051565b61146e6040830185611082565b61147b6060830184611082565b95945050505050565b7f494e56414c49445f5349474e45520000000000000000000000000000000000005f82015250565b5f6114b8600e83610e45565b91506114c382611484565b602082019050919050565b5f6020820190508181035f8301526114e5816114ac565b9050919050565b5f81905092915050565b5f819050815f5260205f209050919050565b5f815461151481611231565b61151e81866114ec565b9450600182165f8114611538576001811461154d5761157f565b60ff198316865281151582028601935061157f565b611556856114f6565b5f5b8381101561157757815481890152600182019150602081019050611558565b838801955050505b50505092915050565b5f6115938284611508565b915081905092915050565b5f60a0820190506115b15f830188611082565b6115be6020830187611082565b6115cb6040830186611082565b6115d86060830185610fcd565b6115e56080830184611329565b9695505050505050565b5f6115f982610f29565b915061160483610f29565b925082820190508082111561161c5761161b611261565b5b9291505056fea164736f6c6343000819000a60a060405234801561000f575f80fd5b50604051613d9b380380613d9b833981810160405281019061003191906105e4565b818181601790816100429190610854565b50806080818152505050508260185f6101000a81548173ffffffffffffffffffffffffffffffffffffffff021916908373ffffffffffffffffffffffffffffffffffffffff1602179055506100a9306b033b2e3c9fd0803ce80000006100b160201b60201c565b505050610b89565b5f81036100ff57601b5f8154809291906100ca90610950565b91905055506100fe7f6d696e742e7a65726f00000000000000000000000000000000000000000000006101a460201b60201c565b5b8060195f8282546101109190610997565b9250508190555060185f9054906101000a900473ffffffffffffffffffffffffffffffffffffffff1673ffffffffffffffffffffffffffffffffffffffff166340c10f1983836040518363ffffffff1660e01b81526004016101739291906109e8565b5f604051808303815f87803b15801561018a575f80fd5b505af115801561019c573d5f803e3d5ffd5b505050505050565b5f60115f8381526020019081526020015f205490505f81036101e757601282908060018154018082558091505060019003905f5260205f20015f90919091909150555b6102046101f98361020860201b60201c565b61025560201b60201c565b5050565b60605f8061021d845f1c61029f60201b60201c565b60ff0390506008600782018161023657610235610a0f565b5b0491505060405191506040820160405280825282602083015250919050565b61029c6040518060400160405280600481526020017f63616c6c0000000000000000000000000000000000000000000000000000000081525082600161032060201b60201c565b50565b5f60018219018216806fffffffffffffffffffffffffffffffff1060071b831560081b17915080821c67ffffffffffffffff1060061b8217915080821c63ffffffff1060051b821791507e1f0d1e100c1d070f090b19131c1706010e11080a1a141802121b1503160405601f82841c63d76453e004161a8217915050919050565b80156103f4575f826040516020016103389190610a9c565b60405160208183030381529060405290507f885cb69240a935d632d79c317109709ecfa91a80626ff3989d68f67f5b1dd12d5f1c73ffffffffffffffffffffffffffffffffffffffff1663619d897f856040516020016103989190610ae7565b604051602081830303815290604052836040518363ffffffff1660e01b81526004016103c5929190610b54565b5f604051808303815f87803b1580156103dc575f80fd5b505af11580156103ee573d5f803e3d5ffd5b50505050505b505050565b5f604051905090565b5f80fd5b5f80fd5b5f73ffffffffffffffffffffffffffffffffffffffff82169050919050565b5f6104338261040a565b9050919050565b5f61044482610429565b9050919050565b6104548161043a565b811461045e575f80fd5b50565b5f8151905061046f8161044b565b92915050565b5f80fd5b5f80fd5b5f601f19601f8301169050919050565b7f4e487b71000000000000000000000000000000000000000000000000000000005f52604160045260245ffd5b6104c38261047d565b810181811067ffffffffffffffff821117156104e2576104e161048d565b5b80604052505050565b5f6104f46103f9565b905061050082826104ba565b919050565b5f67ffffffffffffffff82111561051f5761051e61048d565b5b6105288261047d565b9050602081019050919050565b8281835e5f83830152505050565b5f61055561055084610505565b6104eb565b90508281526020810184848401111561057157610570610479565b5b61057c848285610535565b509392505050565b5f82601f83011261059857610597610475565b5b81516105a8848260208601610543565b91505092915050565b5f819050919050565b6105c3816105b1565b81146105cd575f80fd5b50565b5f815190506105de816105ba565b92915050565b5f805f606084860312156105fb576105fa610402565b5b5f61060886828701610461565b935050602084015167ffffffffffffffff81111561062957610628610406565b5b61063586828701610584565b9250506040610646868287016105d0565b9150509250925092565b5f81519050919050565b7f4e487b71000000000000000000000000000000000000000000000000000000005f52602260045260245ffd5b5f600282049050600182168061069e57607f821691505b6020821081036106b1576106b061065a565b5b50919050565b5f819050815f5260205f209050919050565b5f6020601f8301049050919050565b5f82821b905092915050565b5f600883026107137fffffffffffffffffffffffffffffffffffffffffffffffffffffffffffffffff826106d8565b61071d86836106d8565b95508019841693508086168417925050509392505050565b5f819050919050565b5f61075861075361074e846105b1565b610735565b6105b1565b9050919050565b5f819050919050565b6107718361073e565b61078561077d8261075f565b8484546106e4565b825550505050565b5f90565b61079961078d565b6107a4818484610768565b505050565b5b818110156107c7576107bc5f82610791565b6001810190506107aa565b5050565b601f82111561080c576107dd816106b7565b6107e6846106c9565b810160208510156107f5578190505b610809610801856106c9565b8301826107a9565b50505b505050565b5f82821c905092915050565b5f61082c5f1984600802610811565b1980831691505092915050565b5f610844838361081d565b9150826002028217905092915050565b61085d82610650565b67ffffffffffffffff8111156108765761087561048d565b5b6108808254610687565b61088b8282856107cb565b5f60209050601f8311600181146108bc575f84156108aa578287015190505b6108b48582610839565b86555061091b565b601f1984166108ca866106b7565b5f5b828110156108f1578489015182556001820191506020850194506020810190506108cc565b8683101561090e578489015161090a601f89168261081d565b8355505b6001600288020188555050505b505050505050565b7f4e487b71000000000000000000000000000000000000000000000000000000005f52601160045260245ffd5b5f61095a826105b1565b91507fffffffffffffffffffffffffffffffffffffffffffffffffffffffffffffffff820361098c5761098b610923565b5b600182019050919050565b5f6109a1826105b1565b91506109ac836105b1565b92508282019050808211156109c4576109c3610923565b5b92915050565b6109d381610429565b82525050565b6109e2816105b1565b82525050565b5f6040820190506109fb5f8301856109ca565b610a0860208301846109d9565b9392505050565b7f4e487b71000000000000000000000000000000000000000000000000000000005f52601260045260245ffd5b5f81905092915050565b5f610a5082610650565b610a5a8185610a3c565b9350610a6a818560208601610535565b80840191505092915050565b7f3a317c6300000000000000000000000000000000000000000000000000000000815250565b5f610aa78284610a46565b9150610ab282610a76565b60048201915081905092915050565b7f2d6d6574726963732e7478740000000000000000000000000000000000000000815250565b5f610af28284610a46565b9150610afd82610ac1565b600c8201915081905092915050565b5f82825260208201905092915050565b5f610b2682610650565b610b308185610b0c565b9350610b40818560208601610535565b610b498161047d565b840191505092915050565b5f6040820190508181035f830152610b6c8185610b1c565b90508181036020830152610b808184610b1c565b90509392505050565b6080516131de610bbd5f395f818161047101528181610bb101528181610fa1015281816115430152611bd201526131de5ff3fe608060405234801561000f575f80fd5b5060043610610109575f3560e01c8063b866c8a4116100a0578063cc7f0c241161006f578063cc7f0c2414610267578063cff1026514610285578063dd3648f4146102b5578063dd98a0b5146102d3578063fbca106d146102f157610109565b8063b866c8a4146101df578063bac35919146101fb578063bd5b2dc814610219578063cafdc7121461023757610109565b806390dd2627116100dc57806390dd26271461016d5780639699d8a814610189578063b390c0ab146101a5578063b7eb0059146101c157610109565b806313594d5c1461010d5780631b2ef1ca146101175780632a69cf3e146101335780638947cc481461014f575b5f80fd5b610115610321565b005b610131600480360381019061012c91906126be565b61046d565b005b61014d60048036038101906101489190612731565b6106a1565b005b610157610ba7565b60405161016491906127b7565b60405180910390f35b610187600480360381019061018291906127d0565b610bad565b005b6101a3600480360381019061019e91906128e3565b610f83565b005b6101bf60048036038101906101ba91906126be565b610f9d565b005b6101c9611539565b6040516101d691906127b7565b60405180910390f35b6101f960048036038101906101f491906127d0565b61153f565b005b6102036117fe565b60405161021091906127b7565b60405180910390f35b610221611804565b60405161022e91906127b7565b60405180910390f35b610251600480360381019061024c919061296c565b61180a565b60405161025e91906127b7565b60405180910390f35b61026f61182c565b60405161027c9190612a94565b60405180910390f35b61029f600480360381019061029a9190612ae7565b6118b9565b6040516102ac91906127b7565b60405180910390f35b6102bd6118ce565b6040516102ca91906127b7565b60405180910390f35b6102db6118d4565b6040516102e891906127b7565b60405180910390f35b61030b60048036038101906103069190612b12565b6118da565b6040516103189190612b4c565b60405180910390f35b6103296118fa565b6103676040518060400160405280601381526020017f2d2d2d2d2d2d2d2d2d2d2d2d2d2d2d2d2d2d2d000000000000000000000000008152506119c9565b6103a86040518060400160405280600b81526020017f5a65726f206d696e74733a000000000000000000000000000000000000000000815250601b54611a62565b6103e96040518060400160405280600b81526020017f5a65726f206275726e733a000000000000000000000000000000000000000000815250601c54611a62565b61042a6040518060400160405280601381526020017f5a65726f207472616e7366657246726f6d733a00000000000000000000000000815250601e54611a62565b61046b6040518060400160405280600f81526020017f5a65726f207472616e73666572733a0000000000000000000000000000000000815250601d54611a62565b565b81337f000000000000000000000000000000000000000000000000000000000000000061049a6013611afe565b14806104b657506104b5816013611b0d90919063ffffffff16565b5b15610513576104cf826013611b6290919063ffffffff16565b60155f6101000a81548173ffffffffffffffffffffffffffffffffffffffff021916908373ffffffffffffffffffffffffffffffffffffffff16021790555061051f565b61051e816001611bd0565b5b7f885cb69240a935d632d79c317109709ecfa91a80626ff3989d68f67f5b1dd12d5f1c73ffffffffffffffffffffffffffffffffffffffff166306447d5660155f9054906101000a900473ffffffffffffffffffffffffffffffffffffffff166040518263ffffffff1660e01b815260040161059b9190612b74565b5f604051808303815f87803b1580156105b2575f80fd5b505af11580156105c4573d5f803e3d5ffd5b505050507f6d696e74000000000000000000000000000000000000000000000000000000006105f281611d6e565b61061d60155f9054906101000a900473ffffffffffffffffffffffffffffffffffffffff1685611dc6565b507f885cb69240a935d632d79c317109709ecfa91a80626ff3989d68f67f5b1dd12d5f1c73ffffffffffffffffffffffffffffffffffffffff166390c5013b6040518163ffffffff1660e01b81526004015f604051808303815f87803b158015610685575f80fd5b505af1158015610697573d5f803e3d5ffd5b5050505050505050565b846106b6816013611b6290919063ffffffff16565b60155f6101000a81548173ffffffffffffffffffffffffffffffffffffffff021916908373ffffffffffffffffffffffffffffffffffffffff1602179055507f7472616e7366657246726f6d000000000000000000000000000000000000000061071f81611d6e565b5f610734876013611b6290919063ffffffff16565b90505f61074b876013611b6290919063ffffffff16565b90506107f0855f60185f9054906101000a900473ffffffffffffffffffffffffffffffffffffffff1673ffffffffffffffffffffffffffffffffffffffff166370a08231866040518263ffffffff1660e01b81526004016107ac9190612b74565b602060405180830381865afa1580156107c7573d5f803e3d5ffd5b505050506040513d601f19601f820116820180604052508101906107eb9190612ba1565b611eb3565b94508515610943577f885cb69240a935d632d79c317109709ecfa91a80626ff3989d68f67f5b1dd12d5f1c73ffffffffffffffffffffffffffffffffffffffff1663ca669fa7836040518263ffffffff1660e01b81526004016108539190612b74565b5f604051808303815f87803b15801561086a575f80fd5b505af115801561087c573d5f803e3d5ffd5b5050505060185f9054906101000a900473ffffffffffffffffffffffffffffffffffffffff1673ffffffffffffffffffffffffffffffffffffffff1663095ea7b360155f9054906101000a900473ffffffffffffffffffffffffffffffffffffffff16876040518363ffffffff1660e01b81526004016108fd929190612bcc565b6020604051808303815f875af1158015610919573d5f803e3d5ffd5b505050506040513d601f19601f8201168201806040525081019061093d9190612c07565b50610a0c565b610a09855f60185f9054906101000a900473ffffffffffffffffffffffffffffffffffffffff1673ffffffffffffffffffffffffffffffffffffffff1663dd62ed3e60155f9054906101000a900473ffffffffffffffffffffffffffffffffffffffff16876040518363ffffffff1660e01b81526004016109c5929190612c32565b602060405180830381865afa1580156109e0573d5f803e3d5ffd5b505050506040513d601f19601f82011682018060405250810190610a049190612ba1565b611eb3565b94505b5f8503610a5457601e5f815480929190610a2590612c86565b9190505550610a537f7472616e7366657246726f6d2e7a65726f000000000000000000000000000000611d6e565b5b7f885cb69240a935d632d79c317109709ecfa91a80626ff3989d68f67f5b1dd12d5f1c73ffffffffffffffffffffffffffffffffffffffff1663ca669fa760155f9054906101000a900473ffffffffffffffffffffffffffffffffffffffff166040518263ffffffff1660e01b8152600401610ad09190612b74565b5f604051808303815f87803b158015610ae7575f80fd5b505af1158015610af9573d5f803e3d5ffd5b5050505060185f9054906101000a900473ffffffffffffffffffffffffffffffffffffffff1673ffffffffffffffffffffffffffffffffffffffff166323b872dd8383886040518463ffffffff1660e01b8152600401610b5b93929190612ccd565b6020604051808303815f875af1158015610b77573d5f803e3d5ffd5b505050506040513d601f19601f82011682018060405250810190610b9b9190612c07565b50505050505050505050565b601c5481565b82337f0000000000000000000000000000000000000000000000000000000000000000610bda6013611afe565b1480610bf65750610bf5816013611b0d90919063ffffffff16565b5b15610c5357610c0f826013611b6290919063ffffffff16565b60155f6101000a81548173ffffffffffffffffffffffffffffffffffffffff021916908373ffffffffffffffffffffffffffffffffffffffff160217905550610c5f565b610c5e816001611bd0565b5b7f885cb69240a935d632d79c317109709ecfa91a80626ff3989d68f67f5b1dd12d5f1c73ffffffffffffffffffffffffffffffffffffffff166306447d5660155f9054906101000a900473ffffffffffffffffffffffffffffffffffffffff166040518263ffffffff1660e01b8152600401610cdb9190612b74565b5f604051808303815f87803b158015610cf2575f80fd5b505af1158015610d04573d5f803e3d5ffd5b505050507f7472616e73666572000000000000000000000000000000000000000000000000610d3281611d6e565b5f610d47866013611b6290919063ffffffff16565b9050610e0d855f60185f9054906101000a900473ffffffffffffffffffffffffffffffffffffffff1673ffffffffffffffffffffffffffffffffffffffff166370a0823160155f9054906101000a900473ffffffffffffffffffffffffffffffffffffffff166040518263ffffffff1660e01b8152600401610dc99190612b74565b602060405180830381865afa158015610de4573d5f803e3d5ffd5b505050506040513d601f19601f82011682018060405250810190610e089190612ba1565b611eb3565b94505f8503610e5757601d5f815480929190610e2890612c86565b9190505550610e567f7472616e736665722e7a65726f00000000000000000000000000000000000000611d6e565b5b5f851115610efd5760185f9054906101000a900473ffffffffffffffffffffffffffffffffffffffff1673ffffffffffffffffffffffffffffffffffffffff1663a9059cbb82876040518363ffffffff1660e01b8152600401610ebb929190612bcc565b6020604051808303815f875af1158015610ed7573d5f803e3d5ffd5b505050506040513d601f19601f82011682018060405250810190610efb9190612c07565b505b50507f885cb69240a935d632d79c317109709ecfa91a80626ff3989d68f67f5b1dd12d5f1c73ffffffffffffffffffffffffffffffffffffffff166390c5013b6040518163ffffffff1660e01b81526004015f604051808303815f87803b158015610f66575f80fd5b505af1158015610f78573d5f803e3d5ffd5b505050505050505050565b610f9982826013611f079092919063ffffffff16565b5050565b81337f0000000000000000000000000000000000000000000000000000000000000000610fca6013611afe565b1480610fe65750610fe5816013611b0d90919063ffffffff16565b5b1561104357610fff826013611b6290919063ffffffff16565b60155f6101000a81548173ffffffffffffffffffffffffffffffffffffffff021916908373ffffffffffffffffffffffffffffffffffffffff16021790555061104f565b61104e816001611bd0565b5b7f885cb69240a935d632d79c317109709ecfa91a80626ff3989d68f67f5b1dd12d5f1c73ffffffffffffffffffffffffffffffffffffffff166306447d5660155f9054906101000a900473ffffffffffffffffffffffffffffffffffffffff166040518263ffffffff1660e01b81526004016110cb9190612b74565b5f604051808303815f87803b1580156110e2575f80fd5b505af11580156110f4573d5f803e3d5ffd5b505050507f6275726e0000000000000000000000000000000000000000000000000000000061112281611d6e565b7f885cb69240a935d632d79c317109709ecfa91a80626ff3989d68f67f5b1dd12d5f1c73ffffffffffffffffffffffffffffffffffffffff166390c5013b6040518163ffffffff1660e01b81526004015f604051808303815f87803b158015611189575f80fd5b505af115801561119b573d5f803e3d5ffd5b50505050611242845f60185f9054906101000a900473ffffffffffffffffffffffffffffffffffffffff1673ffffffffffffffffffffffffffffffffffffffff166370a08231306040518263ffffffff1660e01b81526004016111fe9190612b74565b602060405180830381865afa158015611219573d5f803e3d5ffd5b505050506040513d601f19601f8201168201806040525081019061123d9190612ba1565b611eb3565b935060185f9054906101000a900473ffffffffffffffffffffffffffffffffffffffff1673ffffffffffffffffffffffffffffffffffffffff1663a9059cbb60155f9054906101000a900473ffffffffffffffffffffffffffffffffffffffff16866040518363ffffffff1660e01b81526004016112c1929190612bcc565b6020604051808303815f875af11580156112dd573d5f803e3d5ffd5b505050506040513d601f19601f820116820180604052508101906113019190612c07565b505f840361134a57601c5f81548092919061131b90612c86565b91905055506113497f6275726e2e7a65726f0000000000000000000000000000000000000000000000611d6e565b5b83601a5f82825461135b9190612d02565b925050819055507f885cb69240a935d632d79c317109709ecfa91a80626ff3989d68f67f5b1dd12d5f1c73ffffffffffffffffffffffffffffffffffffffff1663ca669fa760155f9054906101000a900473ffffffffffffffffffffffffffffffffffffffff166040518263ffffffff1660e01b81526004016113de9190612b74565b5f604051808303815f87803b1580156113f5575f80fd5b505af1158015611407573d5f803e3d5ffd5b5050505060185f9054906101000a900473ffffffffffffffffffffffffffffffffffffffff1673ffffffffffffffffffffffffffffffffffffffff16639dc29fac60155f9054906101000a900473ffffffffffffffffffffffffffffffffffffffff16866040518363ffffffff1660e01b8152600401611488929190612bcc565b5f604051808303815f87803b15801561149f575f80fd5b505af11580156114b1573d5f803e3d5ffd5b50505050507f885cb69240a935d632d79c317109709ecfa91a80626ff3989d68f67f5b1dd12d5f1c73ffffffffffffffffffffffffffffffffffffffff166390c5013b6040518163ffffffff1660e01b81526004015f604051808303815f87803b15801561151d575f80fd5b505af115801561152f573d5f803e3d5ffd5b5050505050505050565b601a5481565b82337f000000000000000000000000000000000000000000000000000000000000000061156c6013611afe565b14806115885750611587816013611b0d90919063ffffffff16565b5b156115e5576115a1826013611b6290919063ffffffff16565b60155f6101000a81548173ffffffffffffffffffffffffffffffffffffffff021916908373ffffffffffffffffffffffffffffffffffffffff1602179055506115f1565b6115f0816001611bd0565b5b7f885cb69240a935d632d79c317109709ecfa91a80626ff3989d68f67f5b1dd12d5f1c73ffffffffffffffffffffffffffffffffffffffff166306447d5660155f9054906101000a900473ffffffffffffffffffffffffffffffffffffffff166040518263ffffffff1660e01b815260040161166d9190612b74565b5f604051808303815f87803b158015611684575f80fd5b505af1158015611696573d5f803e3d5ffd5b505050507f617070726f7665000000000000000000000000000000000000000000000000006116c481611d6e565b5f6116d9866013611b6290919063ffffffff16565b905060185f9054906101000a900473ffffffffffffffffffffffffffffffffffffffff1673ffffffffffffffffffffffffffffffffffffffff1663095ea7b382876040518363ffffffff1660e01b8152600401611737929190612bcc565b6020604051808303815f875af1158015611753573d5f803e3d5ffd5b505050506040513d601f19601f820116820180604052508101906117779190612c07565b5050507f885cb69240a935d632d79c317109709ecfa91a80626ff3989d68f67f5b1dd12d5f1c73ffffffffffffffffffffffffffffffffffffffff166390c5013b6040518163ffffffff1660e01b81526004015f604051808303815f87803b1580156117e1575f80fd5b505af11580156117f3573d5f803e3d5ffd5b505050505050505050565b60195481565b601b5481565b5f6118238484846013611fb0909392919063ffffffff16565b90509392505050565b606060135f018054806020026020016040519081016040528092919081815260200182805480156118af57602002820191905f5260205f20905b815f9054906101000a900473ffffffffffffffffffffffffffffffffffffffff1673ffffffffffffffffffffffffffffffffffffffff1681526020019060010190808311611866575b5050505050905090565b6011602052805f5260405f205f915090505481565b601d5481565b601e5481565b601281815481106118e9575f80fd5b905f5260205f20015f915090505481565b611923601760405160200161190f9190612e54565b6040516020818303038152906040526119c9565b6119616040518060400160405280601381526020017f2d2d2d2d2d2d2d2d2d2d2d2d2d2d2d2d2d2d2d000000000000000000000000008152506119c9565b5f60128054905090505f5b818110156119c5575f6012828154811061198957611988612e79565b5b905f5260205f20015490506119b76119a082612077565b60115f8481526020019081526020015f2054611a62565b50808060010191505061196c565b5050565b611a5f816040516024016119dd9190612f16565b6040516020818303038152906040527f41304fac000000000000000000000000000000000000000000000000000000007bffffffffffffffffffffffffffffffffffffffffffffffffffffffff19166020820180517bffffffffffffffffffffffffffffffffffffffffffffffffffffffff83818316178352505050506120be565b50565b611afa8282604051602401611a78929190612f36565b6040516020818303038152906040527f9710a9d0000000000000000000000000000000000000000000000000000000007bffffffffffffffffffffffffffffffffffffffffffffffffffffffff19166020820180517bffffffffffffffffffffffffffffffffffffffffffffffffffffffff83818316178352505050506120be565b5050565b5f815f01805490509050919050565b5f826001015f8373ffffffffffffffffffffffffffffffffffffffff1673ffffffffffffffffffffffffffffffffffffffff1681526020019081526020015f205f9054906101000a900460ff16905092915050565b5f80835f01805490501115611bc657825f01835f018054905083611b869190612f91565b81548110611b9757611b96612e79565b5b905f5260205f20015f9054906101000a900473ffffffffffffffffffffffffffffffffffffffff169050611bca565b5f90505b92915050565b7f0000000000000000000000000000000000000000000000000000000000000000611bfb6013611afe565b03611c5a57611c297f6164644163746f722e6d61785265616368656400000000000000000000000000611d6e565b611c538273ffffffffffffffffffffffffffffffffffffffff166013611b6290919063ffffffff16565b9150611ce0565b611c6e826013611b0d90919063ffffffff16565b15611ca157611c9c7f6164644163746f722e6475706c69636174650000000000000000000000000000611d6e565b611cdf565b611cca7f6164644163746f72000000000000000000000000000000000000000000000000611d6e565b611cde8260136120e490919063ffffffff16565b5b5b80611d29578160165f6101000a81548173ffffffffffffffffffffffffffffffffffffffff021916908373ffffffffffffffffffffffffffffffffffffffff1602179055611d69565b8160155f6101000a81548173ffffffffffffffffffffffffffffffffffffffff021916908373ffffffffffffffffffffffffffffffffffffffff16021790555b505050565b5f60115f8381526020019081526020015f205490505f8103611db157601282908060018154018082558091505060019003905f5260205f20015f90919091909150555b611dc2611dbd83612077565b6121f1565b5050565b5f8103611e0e57601b5f815480929190611ddf90612c86565b9190505550611e0d7f6d696e742e7a65726f0000000000000000000000000000000000000000000000611d6e565b5b8060195f828254611e1f9190612d02565b9250508190555060185f9054906101000a900473ffffffffffffffffffffffffffffffffffffffff1673ffffffffffffffffffffffffffffffffffffffff166340c10f1983836040518363ffffffff1660e01b8152600401611e82929190612bcc565b5f604051808303815f87803b158015611e99575f80fd5b505af1158015611eab573d5f803e3d5ffd5b505050505050565b5f611ebf848484612235565b9050611f006040518060400160405280600c81526020017f426f756e6420526573756c7400000000000000000000000000000000000000008152508261243c565b9392505050565b5f5b835f0180549050811015611faa578282855f018381548110611f2e57611f2d612e79565b5b905f5260205f20015f9054906101000a900473ffffffffffffffffffffffffffffffffffffffff166040518263ffffffff1660e01b8152600401611f729190612b74565b5f604051808303815f87803b158015611f89575f80fd5b505af1158015611f9b573d5f803e3d5ffd5b50505050806001019050611f09565b50505050565b5f805b855f018054905081101561206b57838386885f018481548110611fd957611fd8612e79565b5b905f5260205f20015f9054906101000a900473ffffffffffffffffffffffffffffffffffffffff166040518363ffffffff1660e01b815260040161201e929190612fc1565b6020604051808303815f875af115801561203a573d5f803e3d5ffd5b505050506040513d601f19601f8201168201806040525081019061205e9190612ba1565b9450806001019050611fb3565b50839050949350505050565b60605f80612086845f1c6124d8565b60ff0390506008600782018161209f5761209e612f64565b5b0491505060405191506040820160405280825282602083015250919050565b5f815190505f6a636f6e736f6c652e6c6f679050602083015f808483855afa5050505050565b816001015f8273ffffffffffffffffffffffffffffffffffffffff1673ffffffffffffffffffffffffffffffffffffffff1681526020019081526020015f205f9054906101000a900460ff166121ed57815f0181908060018154018082558091505060019003905f5260205f20015f9091909190916101000a81548173ffffffffffffffffffffffffffffffffffffffff021916908373ffffffffffffffffffffffffffffffffffffffff1602179055506001826001015f8373ffffffffffffffffffffffffffffffffffffffff1673ffffffffffffffffffffffffffffffffffffffff1681526020019081526020015f205f6101000a81548160ff0219169083151502179055505b5050565b6122326040518060400160405280600481526020017f63616c6c00000000000000000000000000000000000000000000000000000000815250826001612559565b50565b5f81831115612279576040517f08c379a000000000000000000000000000000000000000000000000000000000815260040161227090613058565b60405180910390fd5b8284101580156122895750818411155b1561229657839050612435565b5f600184846122a59190613076565b6122af9190612d02565b9050600385111580156122c157508481115b156122da5784846122d29190612d02565b915050612435565b60037fffffffffffffffffffffffffffffffffffffffffffffffffffffffffffffffff6123079190613076565b85101580156123405750847fffffffffffffffffffffffffffffffffffffffffffffffffffffffffffffffff61233d9190613076565b81115b1561238457847fffffffffffffffffffffffffffffffffffffffffffffffffffffffffffffffff6123719190613076565b8361237c9190613076565b915050612435565b828511156123dd575f83866123999190613076565b90505f82826123a89190612f91565b90505f81036123bc57849350505050612435565b600181876123ca9190612d02565b6123d49190613076565b93505050612433565b83851015612432575f85856123f29190613076565b90505f82826124019190612f91565b90505f810361241557859350505050612435565b600181866124239190613076565b61242d9190612d02565b935050505b5b505b9392505050565b6124d48282604051602401612452929190612f36565b6040516020818303038152906040527fb60e72cc000000000000000000000000000000000000000000000000000000007bffffffffffffffffffffffffffffffffffffffffffffffffffffffff19166020820180517bffffffffffffffffffffffffffffffffffffffffffffffffffffffff8381831617835250505050612632565b5050565b5f60018219018216806fffffffffffffffffffffffffffffffff1060071b831560081b17915080821c67ffffffffffffffff1060061b8217915080821c63ffffffff1060051b821791507e1f0d1e100c1d070f090b19131c1706010e11080a1a141802121b1503160405601f82841c63d76453e004161a8217915050919050565b801561262d575f8260405160200161257191906130ff565b60405160208183030381529060405290507f885cb69240a935d632d79c317109709ecfa91a80626ff3989d68f67f5b1dd12d5f1c73ffffffffffffffffffffffffffffffffffffffff1663619d897f856040516020016125d1919061314a565b604051602081830303815290604052836040518363ffffffff1660e01b81526004016125fe92919061316f565b5f604051808303815f87803b158015612615575f80fd5b505af1158015612627573d5f803e3d5ffd5b50505050505b505050565b6126498161264161264c612672565b63ffffffff16565b50565b5f815190505f6a636f6e736f6c652e6c6f679050602083015f808483855afa5050505050565b61267d819050919050565b6126856131a4565b565b5f80fd5b5f819050919050565b61269d8161268b565b81146126a7575f80fd5b50565b5f813590506126b881612694565b92915050565b5f80604083850312156126d4576126d3612687565b5b5f6126e1858286016126aa565b92505060206126f2858286016126aa565b9150509250929050565b5f8115159050919050565b612710816126fc565b811461271a575f80fd5b50565b5f8135905061272b81612707565b92915050565b5f805f805f60a0868803121561274a57612749612687565b5b5f612757888289016126aa565b9550506020612768888289016126aa565b9450506040612779888289016126aa565b935050606061278a8882890161271d565b925050608061279b888289016126aa565b9150509295509295909350565b6127b18161268b565b82525050565b5f6020820190506127ca5f8301846127a8565b92915050565b5f805f606084860312156127e7576127e6612687565b5b5f6127f4868287016126aa565b9350506020612805868287016126aa565b9250506040612816868287016126aa565b9150509250925092565b5f7fffffffffffffffffffffffffffffffffffffffffffffffff000000000000000082169050919050565b5f61285582612820565b9050919050565b6128658161284b565b811461286f575f80fd5b50565b5f813590506128808161285c565b92915050565b5f8160201c9050919050565b5f8160401c9050919050565b5f806128a983612892565b925063ffffffff831690506128bd83612886565b9150915091565b5f806128d86128d38585612872565b61289e565b915091509250929050565b5f80602083850312156128f9576128f8612687565b5b5f612906858286016128c4565b92509250509250929050565b5f61291c82612820565b9050919050565b61292c81612912565b8114612936575f80fd5b50565b5f8135905061294781612923565b92915050565b5f8061296161295c8585612939565b61289e565b915091509250929050565b5f805f6040848603121561298357612982612687565b5b5f612990868287016126aa565b93505060206129a18682870161294d565b92509250509250925092565b5f81519050919050565b5f82825260208201905092915050565b5f819050602082019050919050565b5f73ffffffffffffffffffffffffffffffffffffffff82169050919050565b5f6129ff826129d6565b9050919050565b612a0f816129f5565b82525050565b5f612a208383612a06565b60208301905092915050565b5f602082019050919050565b5f612a42826129ad565b612a4c81856129b7565b9350612a57836129c7565b805f5b83811015612a87578151612a6e8882612a15565b9750612a7983612a2c565b925050600181019050612a5a565b5085935050505092915050565b5f6020820190508181035f830152612aac8184612a38565b905092915050565b5f819050919050565b612ac681612ab4565b8114612ad0575f80fd5b50565b5f81359050612ae181612abd565b92915050565b5f60208284031215612afc57612afb612687565b5b5f612b0984828501612ad3565b91505092915050565b5f60208284031215612b2757612b26612687565b5b5f612b34848285016126aa565b91505092915050565b612b4681612ab4565b82525050565b5f602082019050612b5f5f830184612b3d565b92915050565b612b6e816129f5565b82525050565b5f602082019050612b875f830184612b65565b92915050565b5f81519050612b9b81612694565b92915050565b5f60208284031215612bb657612bb5612687565b5b5f612bc384828501612b8d565b91505092915050565b5f604082019050612bdf5f830185612b65565b612bec60208301846127a8565b9392505050565b5f81519050612c0181612707565b92915050565b5f60208284031215612c1c57612c1b612687565b5b5f612c2984828501612bf3565b91505092915050565b5f604082019050612c455f830185612b65565b612c526020830184612b65565b9392505050565b7f4e487b71000000000000000000000000000000000000000000000000000000005f52601160045260245ffd5b5f612c908261268b565b91507fffffffffffffffffffffffffffffffffffffffffffffffffffffffffffffffff8203612cc257612cc1612c59565b5b600182019050919050565b5f606082019050612ce05f830186612b65565b612ced6020830185612b65565b612cfa60408301846127a8565b949350505050565b5f612d0c8261268b565b9150612d178361268b565b9250828201905080821115612d2f57612d2e612c59565b5b92915050565b7f43616c6c2073756d6d6172793a00000000000000000000000000000000000000815250565b7f4e487b71000000000000000000000000000000000000000000000000000000005f52602260045260245ffd5b5f6002820490506001821680612d9f57607f821691505b602082108103612db257612db1612d5b565b5b50919050565b5f81905092915050565b5f819050815f5260205f209050919050565b5f8154612de081612d88565b612dea8186612db8565b9450600182165f8114612e045760018114612e1957612e4b565b60ff1983168652811515820286019350612e4b565b612e2285612dc2565b5f5b83811015612e4357815481890152600182019150602081019050612e24565b838801955050505b50505092915050565b5f612e5e82612d35565b600d82019150612e6e8284612dd4565b915081905092915050565b7f4e487b71000000000000000000000000000000000000000000000000000000005f52603260045260245ffd5b5f81519050919050565b5f82825260208201905092915050565b8281835e5f83830152505050565b5f601f19601f8301169050919050565b5f612ee882612ea6565b612ef28185612eb0565b9350612f02818560208601612ec0565b612f0b81612ece565b840191505092915050565b5f6020820190508181035f830152612f2e8184612ede565b905092915050565b5f6040820190508181035f830152612f4e8185612ede565b9050612f5d60208301846127a8565b9392505050565b7f4e487b71000000000000000000000000000000000000000000000000000000005f52601260045260245ffd5b5f612f9b8261268b565b9150612fa68361268b565b925082612fb657612fb5612f64565b5b828206905092915050565b5f604082019050612fd45f8301856127a8565b612fe16020830184612b65565b9392505050565b7f5374645574696c7320626f756e642875696e743235362c75696e743235362c755f8201527f696e74323536293a204d6178206973206c657373207468616e206d696e2e0000602082015250565b5f613042603e83612eb0565b915061304d82612fe8565b604082019050919050565b5f6020820190508181035f83015261306f81613036565b9050919050565b5f6130808261268b565b915061308b8361268b565b92508282039050818111156130a3576130a2612c59565b5b92915050565b5f6130b382612ea6565b6130bd8185612db8565b93506130cd818560208601612ec0565b80840191505092915050565b7f3a317c6300000000000000000000000000000000000000000000000000000000815250565b5f61310a82846130a9565b9150613115826130d9565b60048201915081905092915050565b7f2d6d6574726963732e7478740000000000000000000000000000000000000000815250565b5f61315582846130a9565b915061316082613124565b600c8201915081905092915050565b5f6040820190508181035f8301526131878185612ede565b9050818103602083015261319b8184612ede565b90509392505050565b7f4e487b71000000000000000000000000000000000000000000000000000000005f52605160045260245ffdfea164736f6c6343000819000aa164736f6c6343000819000a","linkReferences":{}},"methodIdentifiers":{"assertAccountBalanceLteTotalSupply(address)":"7250b41d","excludeArtifacts()":"b5508aa9","excludeContracts()":"e20c9f71","excludeSenders()":"1ed7831c","failed()":"ba414fa6","handler()":"c80916d4","invariant_callSummary()":"c52108eb","invariant_depositorBalances()":"9e0afdc0","invariant_supply()":"3ae67c44","setUp()":"0a9254e4","targetArtifactSelectors()":"66d9a9a0","targetArtifacts()":"85226c81","targetContracts()":"3f7286f4","targetInterfaces()":"2ade3880","targetSelectors()":"916a17c6","targetSenders()":"3e5e3c23","token()":"fc0c546a"},"id":100}