{"abi":[{"type":"function","name":"checkBalances","inputs":[],"outputs":[],"stateMutability":"view"},{"type":"function","name":"dumpERC1155Balances","inputs":[],"outputs":[{"name":"tokenDumps","type":"tuple[]","internalType":"struct ERC1155TokenDump[]","components":[{"name":"token","type":"address","internalType":"address"},{"name":"accounts","type":"tuple[]","internalType":"struct ERC1155AccountDump[]","components":[{"name":"account","type":"address","internalType":"address"},{"name":"identifiers","type":"uint256[]","internalType":"uint256[]"},{"name":"balances","type":"uint256[]","internalType":"uint256[]"}]}]}],"stateMutability":"view"},{"type":"function","name":"dumpERC20Balances","inputs":[],"outputs":[{"name":"tokenDumps","type":"tuple[]","internalType":"struct ERC20TokenDump[]","components":[{"name":"token","type":"address","internalType":"address"},{"name":"accounts","type":"address[]","internalType":"address[]"},{"name":"balances","type":"uint256[]","internalType":"uint256[]"}]}],"stateMutability":"view"},{"type":"function","name":"dumpERC721Balances","inputs":[],"outputs":[{"name":"tokenDumps","type":"tuple[]","internalType":"struct ERC721TokenDump[]","components":[{"name":"token","type":"address","internalType":"address"},{"name":"accounts","type":"address[]","internalType":"address[]"},{"name":"accountIdentifiers","type":"uint256[][]","internalType":"uint256[][]"}]}],"stateMutability":"view"},{"type":"function","name":"dumpNativeBalances","inputs":[],"outputs":[{"name":"accountBalances","type":"tuple[]","internalType":"struct NativeAccountDump[]","components":[{"name":"account","type":"address","internalType":"address"},{"name":"balance","type":"uint256","internalType":"uint256"}]}],"stateMutability":"view"},{"type":"function","name":"expectERC1155Transfer","inputs":[{"name":"details","type":"tuple","internalType":"struct ERC1155TransferDetails","components":[{"name":"token","type":"address","internalType":"address"},{"name":"from","type":"address","internalType":"address"},{"name":"to","type":"address","internalType":"address"},{"name":"identifier","type":"uint256","internalType":"uint256"},{"name":"amount","type":"uint256","internalType":"uint256"}]}],"outputs":[],"stateMutability":"nonpayable"},{"type":"function","name":"expectERC20Transfer","inputs":[{"name":"token","type":"address","internalType":"address"},{"name":"from","type":"address","internalType":"address"},{"name":"to","type":"address","internalType":"address"},{"name":"amount","type":"uint256","internalType":"uint256"}],"outputs":[],"stateMutability":"nonpayable"},{"type":"function","name":"expectERC721Transfer","inputs":[{"name":"token","type":"address","internalType":"address"},{"name":"from","type":"address","internalType":"address"},{"name":"to","type":"address","internalType":"address"},{"name":"identifier","type":"uint256","internalType":"uint256"}],"outputs":[],"stateMutability":"nonpayable"},{"type":"function","name":"expectNativeTransfer","inputs":[{"name":"from","type":"address","internalType":"address"},{"name":"to","type":"address","internalType":"address"},{"name":"amount","type":"uint256","internalType":"uint256"}],"outputs":[],"stateMutability":"nonpayable"}],"bytecode":{"object":"0x6080604052348015600e575f80fd5b50613f948061001c5f395ff3fe608060405234801561000f575f80fd5b5060043610610091575f3560e01c80637fe82bf7116100645780637fe82bf7146101095780639e241e8514610127578063a30e9d6c14610131578063c3fba3041461014d578063d849a3471461016957610091565b80630b6d63ef146100955780632a94a52d146100b15780633166fc74146100cf5780633c86300c146100eb575b5f80fd5b6100af60048036038101906100aa91906129c3565b610187565b005b6100b9610245565b6040516100c69190612c90565b60405180910390f35b6100e960048036038101906100e49190612dc5565b610437565b005b6100f36106fb565b6040516101009190612fba565b60405180910390f35b6101116107b3565b60405161011e91906130af565b60405180910390f35b61012f6108af565b005b61014b600480360381019061014691906130cf565b6108d1565b005b610167600480360381019061016291906130cf565b610aa7565b005b610171610eef565b60405161017e9190613337565b60405180910390f35b5f8061019c855f61128690919063ffffffff16565b91509150816101c0578473ffffffffffffffffffffffffffffffffffffffff163190505b6101e1856101d187878588886112c3565b5f61132c9092919063ffffffff16565b505f806101f7865f61128690919063ffffffff16565b915091508161021b578573ffffffffffffffffffffffffffffffffffffffff163190505b61023b86868361022b9190613384565b5f61132c9092919063ffffffff16565b5050505050505050565b60605f610252600361135d565b90508067ffffffffffffffff81111561026e5761026d612cc4565b5b6040519080825280602002602001820160405280156102a757816020015b610294612820565b81526020019060019003908161028c5790505b5091505f5b81811015610432575f6102c982600361137090919063ffffffff16565b90505f60055f8373ffffffffffffffffffffffffffffffffffffffff1673ffffffffffffffffffffffffffffffffffffffff1681526020019081526020015f2090505f61031582611387565b90505f60405180606001604052808573ffffffffffffffffffffffffffffffffffffffff168152602001838152602001835167ffffffffffffffff8111156103605761035f612cc4565b5b60405190808252806020026020018201604052801561038e5781602001602082028036833780820191505090505b508152509050808786815181106103a8576103a76133b7565b5b60200260200101819052505f5b8251811015610420575f8382815181106103d2576103d16133b7565b5b602002602001015190506103ef81866113a690919063ffffffff16565b83604001518381518110610406576104056133b7565b5b6020026020010181815250505080806001019150506103b5565b505050505080806001019150506102ac565b505090565b61044e815f015160096113d590919063ffffffff16565b505f600b5f835f015173ffffffffffffffffffffffffffffffffffffffff1673ffffffffffffffffffffffffffffffffffffffff1681526020019081526020015f2090506104ab8260200151825f016113d590919063ffffffff16565b506104c58260400151825f016113d590919063ffffffff16565b505f816002015f846020015173ffffffffffffffffffffffffffffffffffffffff1673ffffffffffffffffffffffffffffffffffffffff1681526020019081526020015f2090505f8061052585606001518461140290919063ffffffff16565b91509150816105b557845f015173ffffffffffffffffffffffffffffffffffffffff1662fdd58e866020015187606001516040518363ffffffff1660e01b8152600401610573929190613402565b602060405180830381865afa15801561058e573d5f803e3d5ffd5b505050506040513d601f19601f820116820180604052508101906105b2919061343d565b90505b6105d885606001516105c8878486611429565b856114ad9092919063ffffffff16565b505050505f816002015f846040015173ffffffffffffffffffffffffffffffffffffffff1673ffffffffffffffffffffffffffffffffffffffff1681526020019081526020015f2090505f8061063b85606001518461140290919063ffffffff16565b91509150816106cb57845f015173ffffffffffffffffffffffffffffffffffffffff1662fdd58e866040015187606001516040518363ffffffff1660e01b8152600401610689929190613402565b602060405180830381865afa1580156106a4573d5f803e3d5ffd5b505050506040513d601f19601f820116820180604052508101906106c8919061343d565b90505b6106f385606001518660800151836106e39190613384565b856114ad9092919063ffffffff16565b505050505050565b606080805167ffffffffffffffff81111561071957610718612cc4565b5b60405190808252806020026020018201604052801561075257816020015b61073f612856565b8152602001906001900390816107375790505b5091505f5b81518110156107ae57610783828281518110610776576107756133b7565b5b60200260200101516114c8565b838281518110610796576107956133b7565b5b60200260200101819052508080600101915050610757565b505090565b60605f6107bf5f611387565b9050805167ffffffffffffffff8111156107dc576107db612cc4565b5b60405190808252806020026020018201604052801561081557816020015b61080261288c565b8152602001906001900390816107fa5790505b5091505f5b81518110156108aa575f828281518110610837576108366133b7565b5b6020026020010151905060405180604001604052808273ffffffffffffffffffffffffffffffffffffffff16815260200161087b835f6113a690919063ffffffff16565b815250848381518110610891576108906133b7565b5b602002602001018190525050808060010191505061081a565b505090565b6108b761160e565b6108bf6116db565b6108c7611888565b6108cf611baf565b565b6108e58460036113d590919063ffffffff16565b505f60055f8673ffffffffffffffffffffffffffffffffffffffff1673ffffffffffffffffffffffffffffffffffffffff1681526020019081526020015f2090505f8061093b868461128690919063ffffffff16565b91509150816109bf578673ffffffffffffffffffffffffffffffffffffffff166370a08231876040518263ffffffff1660e01b815260040161097d9190613468565b602060405180830381865afa158015610998573d5f803e3d5ffd5b505050506040513d601f19601f820116820180604052508101906109bc919061343d565b90505b6109e1866109d1898989868a89611dfa565b8561132c9092919063ffffffff16565b505f806109f7878661128690919063ffffffff16565b9150915081610a7b578873ffffffffffffffffffffffffffffffffffffffff166370a08231886040518263ffffffff1660e01b8152600401610a399190613468565b602060405180830381865afa158015610a54573d5f803e3d5ffd5b505050506040513d601f19601f82011682018060405250810190610a78919061343d565b90505b610a9b878783610a8b9190613384565b8761132c9092919063ffffffff16565b50505050505050505050565b610abb8460066113d590919063ffffffff16565b505f60085f8673ffffffffffffffffffffffffffffffffffffffff1673ffffffffffffffffffffffffffffffffffffffff1681526020019081526020015f2090505f80610b14868460030161128690919063ffffffff16565b9150915081610b98578673ffffffffffffffffffffffffffffffffffffffff166370a08231876040518263ffffffff1660e01b8152600401610b569190613468565b602060405180830381865afa158015610b71573d5f803e3d5ffd5b505050506040513d601f19601f82011682018060405250810190610b95919061343d565b90505b5f8103610bda576040517f08c379a0000000000000000000000000000000000000000000000000000000008152600401610bd190613501565b60405180910390fd5b610bfe86600183610beb919061351f565b8560030161132c9092919063ffffffff16565b505f80610c17878660030161128690919063ffffffff16565b9150915081610c9b578873ffffffffffffffffffffffffffffffffffffffff166370a08231886040518263ffffffff1660e01b8152600401610c599190613468565b602060405180830381865afa158015610c74573d5f803e3d5ffd5b505050506040513d601f19601f82011682018060405250810190610c98919061343d565b90505b610cbf87600183610cac9190613384565b8760030161132c9092919063ffffffff16565b50610cd68686600101611e6590919063ffffffff16565b15610dc5578773ffffffffffffffffffffffffffffffffffffffff168973ffffffffffffffffffffffffffffffffffffffff16636352211e886040518263ffffffff1660e01b8152600401610d2b9190613552565b602060405180830381865afa158015610d46573d5f803e3d5ffd5b505050506040513d601f19601f82011682018060405250810190610d6a919061357f565b73ffffffffffffffffffffffffffffffffffffffff1614610dc0576040517f08c379a0000000000000000000000000000000000000000000000000000000008152600401610db79061361a565b60405180910390fd5b610e55565b610e1586865f015f8b73ffffffffffffffffffffffffffffffffffffffff1673ffffffffffffffffffffffffffffffffffffffff1681526020019081526020015f20611e7c90919063ffffffff16565b610e54576040517f08c379a0000000000000000000000000000000000000000000000000000000008152600401610e4b9061361a565b60405180910390fd5b5b610ea586865f015f8a73ffffffffffffffffffffffffffffffffffffffff1673ffffffffffffffffffffffffffffffffffffffff1681526020019081526020015f20611e6590919063ffffffff16565b610ee4576040517f08c379a0000000000000000000000000000000000000000000000000000000008152600401610edb906136a8565b60405180910390fd5b505050505050505050565b60605f610efc6009611e93565b90505f815190508067ffffffffffffffff811115610f1d57610f1c612cc4565b5b604051908082528060200260200182016040528015610f5657816020015b610f436128ba565b815260200190600190039081610f3b5790505b5092505f5b81811015611280575f838281518110610f7757610f766133b7565b5b602002602001015190505f600b5f8373ffffffffffffffffffffffffffffffffffffffff1673ffffffffffffffffffffffffffffffffffffffff1681526020019081526020015f2090505f610fcd825f0161135d565b90505f60405180604001604052808573ffffffffffffffffffffffffffffffffffffffff1681526020018367ffffffffffffffff81111561101157611010612cc4565b5b60405190808252806020026020018201604052801561104a57816020015b6110376128e9565b81526020019060019003908161102f5790505b50815250905080888681518110611064576110636133b7565b5b60200260200101819052505f5b8281101561126e575f61108f82865f0161137090919063ffffffff16565b90505f856002015f8373ffffffffffffffffffffffffffffffffffffffff1673ffffffffffffffffffffffffffffffffffffffff1681526020019081526020015f2090505f6110dd82611eb2565b90505f815190505f60405180606001604052808673ffffffffffffffffffffffffffffffffffffffff1681526020018367ffffffffffffffff81111561112657611125612cc4565b5b6040519080825280602002602001820160405280156111545781602001602082028036833780820191505090505b5081526020018367ffffffffffffffff81111561117457611173612cc4565b5b6040519080825280602002602001820160405280156111a25781602001602082028036833780820191505090505b50815250905080876020015187815181106111c0576111bf6133b7565b5b60200260200101819052505f5b8281101561125b575f8482815181106111e9576111e86133b7565b5b60200260200101519050808360200151838151811061120b5761120a6133b7565b5b60200260200101818152505061122a8187611ed190919063ffffffff16565b83604001518381518110611241576112406133b7565b5b6020026020010181815250505080806001019150506111cd565b5050505050508080600101915050611071565b50505050508080600101915050610f5b565b50505090565b5f805f806112ae865f018673ffffffffffffffffffffffffffffffffffffffff165f1b611eea565b9150915081815f1c9350935050509250929050565b5f82841015611315576112d98686868686611f33565b6040517f08c379a000000000000000000000000000000000000000000000000000000000815260040161130c9190613716565b60405180910390fd5b8284611321919061351f565b905095945050505050565b5f611354845f018473ffffffffffffffffffffffffffffffffffffffff165f1b845f1b611f66565b90509392505050565b5f611369825f01611f9d565b9050919050565b5f61137d835f0183611fac565b5f1c905092915050565b60605f611395835f01611fd3565b905060608190508092505050919050565b5f6113cb835f018373ffffffffffffffffffffffffffffffffffffffff165f1b611fe7565b5f1c905092915050565b5f6113fa835f018373ffffffffffffffffffffffffffffffffffffffff165f1b61205f565b905092915050565b5f805f80611414865f01865f1b611eea565b9150915081815f1c9350935050509250929050565b5f836080015183101561149457611458845f0151856060015186602001518760400151878960800151886120c6565b6040517f08c379a000000000000000000000000000000000000000000000000000000000815260040161148b9190613716565b60405180910390fd5b8360800151836114a4919061351f565b90509392505050565b5f6114bf845f01845f1b845f1b611f66565b90509392505050565b6114d0612856565b5f60085f8473ffffffffffffffffffffffffffffffffffffffff1673ffffffffffffffffffffffffffffffffffffffff1681526020019081526020015f20905061151c81600301611387565b82602001819052505f826020015151905083835f019073ffffffffffffffffffffffffffffffffffffffff16908173ffffffffffffffffffffffffffffffffffffffff16815250505f5b81811015611606575f84602001518281518110611586576115856133b7565b5b602002602001015190506115d6845f015f8373ffffffffffffffffffffffffffffffffffffffff1673ffffffffffffffffffffffffffffffffffffffff1681526020019081526020015f20612114565b856040015183815181106115ed576115ec6133b7565b5b6020026020010181905250508080600101915050611566565b505050919050565b5f6116185f611387565b90505f815190505f5b818110156116d6575f83828151811061163d5761163c6133b7565b5b602002602001015190505f61165b825f6113a690919063ffffffff16565b90505f8273ffffffffffffffffffffffffffffffffffffffff163190508082146116c65761168a838383612133565b6040517f08c379a00000000000000000000000000000000000000000000000000000000081526004016116bd9190613716565b60405180910390fd5b5050508080600101915050611621565b505050565b5f6116e6600361135d565b90505f5b81811015611884575f61170782600361137090919063ffffffff16565b90505f60055f8373ffffffffffffffffffffffffffffffffffffffff1673ffffffffffffffffffffffffffffffffffffffff1681526020019081526020015f2090505f61175382611387565b90505f815190505f5b81811015611872575f838281518110611778576117776133b7565b5b602002602001015190505f61179682876113a690919063ffffffff16565b90505f8773ffffffffffffffffffffffffffffffffffffffff166370a08231846040518263ffffffff1660e01b81526004016117d29190613468565b602060405180830381865afa1580156117ed573d5f803e3d5ffd5b505050506040513d601f19601f82011682018060405250810190611811919061343d565b90508082146118625761182688848484612163565b6040517f08c379a00000000000000000000000000000000000000000000000000000000081526004016118599190613716565b60405180910390fd5b505050808060010191505061175c565b505050505080806001019150506116ea565b5050565b5f6118936006611e93565b90505f815190505f5b81811015611baa575f8382815181106118b8576118b76133b7565b5b602002602001015190505f60085f8373ffffffffffffffffffffffffffffffffffffffff1673ffffffffffffffffffffffffffffffffffffffff1681526020019081526020015f2090505f61190f82600301611387565b90505f815190505f5b81811015611b98575f838281518110611934576119336133b7565b5b602002602001015190505f61195582876003016113a690919063ffffffff16565b90505f8773ffffffffffffffffffffffffffffffffffffffff166370a08231846040518263ffffffff1660e01b81526004016119919190613468565b602060405180830381865afa1580156119ac573d5f803e3d5ffd5b505050506040513d601f19601f820116820180604052508101906119d0919061343d565b9050818114611a21576119e588848484612194565b6040517f08c379a0000000000000000000000000000000000000000000000000000000008152600401611a189190613716565b60405180910390fd5b50505f611a6a865f015f8473ffffffffffffffffffffffffffffffffffffffff1673ffffffffffffffffffffffffffffffffffffffff1681526020019081526020015f20612114565b90505f815190505f5b81811015611b87578373ffffffffffffffffffffffffffffffffffffffff168973ffffffffffffffffffffffffffffffffffffffff16636352211e858481518110611ac157611ac06133b7565b5b60200260200101516040518263ffffffff1660e01b8152600401611ae59190613552565b602060405180830381865afa158015611b00573d5f803e3d5ffd5b505050506040513d601f19601f82011682018060405250810190611b24919061357f565b73ffffffffffffffffffffffffffffffffffffffff1614611b7a576040517f08c379a0000000000000000000000000000000000000000000000000000000008152600401611b71906137a6565b60405180910390fd5b8080600101915050611a73565b505050508080600101915050611918565b5050505050808060010191505061189c565b505050565b5f611bba6009611e93565b90505f815190505f5b81811015611df5575f838281518110611bdf57611bde6133b7565b5b602002602001015190505f600b5f8373ffffffffffffffffffffffffffffffffffffffff1673ffffffffffffffffffffffffffffffffffffffff1681526020019081526020015f2090505f611c35825f01611e93565b90505f815190505f5b81811015611de3575f838281518110611c5a57611c596133b7565b5b602002602001015190505f856002015f8373ffffffffffffffffffffffffffffffffffffffff1673ffffffffffffffffffffffffffffffffffffffff1681526020019081526020015f2090505f611cb082611eb2565b90505f815190505f5b81811015611dd1575f838281518110611cd557611cd46133b7565b5b602002602001015190505f611cf38287611ed190919063ffffffff16565b90505f8c73ffffffffffffffffffffffffffffffffffffffff1662fdd58e89856040518363ffffffff1660e01b8152600401611d30929190613402565b602060405180830381865afa158015611d4b573d5f803e3d5ffd5b505050506040513d601f19601f82011682018060405250810190611d6f919061343d565b9050808214611dc157611d858d898585856121c5565b6040517f08c379a0000000000000000000000000000000000000000000000000000000008152600401611db89190613716565b60405180910390fd5b5050508080600101915050611cb9565b50505050508080600101915050611c3e565b50505050508080600101915050611bc3565b505050565b5f82841015611e4d57611e118787878787876121f8565b6040517f08c379a0000000000000000000000000000000000000000000000000000000008152600401611e449190613716565b60405180910390fd5b8284611e59919061351f565b90509695505050505050565b5f611e74835f01835f1b61205f565b905092915050565b5f611e8b835f01835f1b61223b565b905092915050565b60605f611ea1835f01612337565b905060608190508092505050919050565b60605f611ec0835f01611fd3565b905060608190508092505050919050565b5f611ee0835f01835f1b611fe7565b5f1c905092915050565b5f805f846002015f8581526020019081526020015f205490505f801b8103611f2357611f168585612390565b5f801b9250925050611f2c565b60018192509250505b9250929050565b6060611f5b6040518060600160405280603a8152602001613f24603a913987878787876123ae565b905095945050505050565b5f81846002015f8581526020019081526020015f2081905550611f9483855f0161247c90919063ffffffff16565b90509392505050565b5f815f01805490509050919050565b5f825f018281548110611fc257611fc16133b7565b5b905f5260205f200154905092915050565b6060611fe0825f01612491565b9050919050565b5f80836002015f8481526020019081526020015f205490505f801b8114158061201657506120158484612390565b5b612055576040517f08c379a000000000000000000000000000000000000000000000000000000000815260040161204c9061380e565b60405180910390fd5b8091505092915050565b5f61206a83836124b0565b6120bc57825f0182908060018154018082558091505060019003905f5260205f20015f9091909190915055825f0180549050836001015f8481526020019081526020015f2081905550600190506120c0565b5f90505b92915050565b60606121076120d4896124d0565b6120dd8961252d565b6040516020016120ee929190613922565b60405160208183030381529060405287878787876123ae565b9050979650505050505050565b60605f612122835f01612337565b905060608190508092505050919050565b606061215a6040518060600160405280602b8152602001613e9b602b91395f86868661257c565b90509392505050565b606061218a6040518060600160405280602a8152602001613f5e602a91398686868661257c565b9050949350505050565b60606121bb6040518060600160405280602b8152602001613ef9602b91398686868661257c565b9050949350505050565b60606121ed604051806060016040528060338152602001613ec66033913987868887876125d1565b905095945050505050565b606061222f612206886124d0565b60405160200161221691906139f5565b60405160208183030381529060405287878787876123ae565b90509695505050505050565b5f80836001015f8481526020019081526020015f205490505f811461232c575f600182612268919061351f565b90505f6001865f018054905061227e919061351f565b90508181146122e4575f865f01828154811061229d5761229c6133b7565b5b905f5260205f200154905080875f0184815481106122be576122bd6133b7565b5b905f5260205f20018190555083876001015f8381526020019081526020015f2081905550505b855f018054806122f7576122f6613a16565b5b600190038181905f5260205f20015f90559055856001015f8681526020019081526020015f205f905560019350505050612331565b5f9150505b92915050565b6060815f0180548060200260200160405190810160405280929190818152602001828054801561238457602002820191905f5260205f20905b815481526020019060010190808311612370575b50505050509050919050565b5f6123a682845f0161263190919063ffffffff16565b905092915050565b6060866123ba876124d0565b836123fa576040518060400160405280601481526020017f0a2062616c616e6365202861637475616c293a20000000000000000000000000815250612431565b6040518060400160405280601581526020017f0a2062616c616e6365202864657269766564293a2000000000000000000000008152505b61243a8761252d565b6124438761252d565b61244c8a6124d0565b60405160200161246196959493929190613adb565b60405160208183030381529060405290509695505050505050565b5f612489835f018361205f565b905092915050565b60605f61249f835f01612337565b905060608190508092505050919050565b5f80836001015f8481526020019081526020015f20541415905092915050565b60606124db82612646565b90505f6124f2836124ea61266c565b63ffffffff16565b90505f815190505f811115612526578282604051602001612514929190613bba565b60405160208183030381529060405292505b5050919050565b60606080604051019050602081016040525f8152805f19835b600115612567578184019350600a81066030018453600a8104905080612546575b50828203602084039350808452505050919050565b606085612588866124d0565b612591866124d0565b61259a8661252d565b6125a38661252d565b6040516020016125b7959493929190613c93565b604051602081830303815290604052905095945050505050565b6060866125dd876124d0565b6125e68761252d565b6125ef876124d0565b6125f88761252d565b6126018761252d565b60405160200161261696959493929190613d28565b60405160208183030381529060405290509695505050505050565b5f61263e835f01836124b0565b905092915050565b60606126518261267e565b90506002815101613078825260028203915080825250919050565b61291f61291f6126ff90508091505090565b60606040519050608081016040526f30313233343536373839616263646566600f5260028101905060288152602081015f60288201528260601b92505f5b6001156126f857808101820184821a600f81165160018301538060041c518253600183019250601483036126f15750506126f8565b50506126bc565b5050919050565b60605f7f885cb69240a935d632d79c317109709ecfa91a80626ff3989d68f67f5b1dd12d5f1c73ffffffffffffffffffffffffffffffffffffffff1663667f9d707f17e74e78774a1830573256d5ed22d41f2a9c9a4c3a839056c7dfd57a4132d1aa5f1c8573ffffffffffffffffffffffffffffffffffffffff165f1b6040518363ffffffff1660e01b8152600401612799929190613df1565b602060405180830381865afa1580156127b4573d5f803e3d5ffd5b505050506040513d601f19601f820116820180604052508101906127d89190613e42565b90505f801b81146127f4576127ec816127fb565b9150506127f6565b505b919050565b60606040519050604081016040525f815281601f8201525f8151602083010152919050565b60405180606001604052805f73ffffffffffffffffffffffffffffffffffffffff16815260200160608152602001606081525090565b60405180606001604052805f73ffffffffffffffffffffffffffffffffffffffff16815260200160608152602001606081525090565b60405180604001604052805f73ffffffffffffffffffffffffffffffffffffffff1681526020015f81525090565b60405180604001604052805f73ffffffffffffffffffffffffffffffffffffffff168152602001606081525090565b60405180606001604052805f73ffffffffffffffffffffffffffffffffffffffff16815260200160608152602001606081525090565b612927613e6d565b565b5f604051905090565b5f80fd5b5f73ffffffffffffffffffffffffffffffffffffffff82169050919050565b5f61295f82612936565b9050919050565b61296f81612955565b8114612979575f80fd5b50565b5f8135905061298a81612966565b92915050565b5f819050919050565b6129a281612990565b81146129ac575f80fd5b50565b5f813590506129bd81612999565b92915050565b5f805f606084860312156129da576129d9612932565b5b5f6129e78682870161297c565b93505060206129f88682870161297c565b9250506040612a09868287016129af565b9150509250925092565b5f81519050919050565b5f82825260208201905092915050565b5f819050602082019050919050565b612a4581612955565b82525050565b5f81519050919050565b5f82825260208201905092915050565b5f819050602082019050919050565b5f612a7f8383612a3c565b60208301905092915050565b5f602082019050919050565b5f612aa182612a4b565b612aab8185612a55565b9350612ab683612a65565b805f5b83811015612ae6578151612acd8882612a74565b9750612ad883612a8b565b925050600181019050612ab9565b5085935050505092915050565b5f81519050919050565b5f82825260208201905092915050565b5f819050602082019050919050565b612b2581612990565b82525050565b5f612b368383612b1c565b60208301905092915050565b5f602082019050919050565b5f612b5882612af3565b612b628185612afd565b9350612b6d83612b0d565b805f5b83811015612b9d578151612b848882612b2b565b9750612b8f83612b42565b925050600181019050612b70565b5085935050505092915050565b5f606083015f830151612bbf5f860182612a3c565b5060208301518482036020860152612bd78282612a97565b91505060408301518482036040860152612bf18282612b4e565b9150508091505092915050565b5f612c098383612baa565b905092915050565b5f602082019050919050565b5f612c2782612a13565b612c318185612a1d565b935083602082028501612c4385612a2d565b805f5b85811015612c7e5784840389528151612c5f8582612bfe565b9450612c6a83612c11565b925060208a01995050600181019050612c46565b50829750879550505050505092915050565b5f6020820190508181035f830152612ca88184612c1d565b905092915050565b5f80fd5b5f601f19601f8301169050919050565b7f4e487b71000000000000000000000000000000000000000000000000000000005f52604160045260245ffd5b612cfa82612cb4565b810181811067ffffffffffffffff82111715612d1957612d18612cc4565b5b80604052505050565b5f612d2b612929565b9050612d378282612cf1565b919050565b5f60a08284031215612d5157612d50612cb0565b5b612d5b60a0612d22565b90505f612d6a8482850161297c565b5f830152506020612d7d8482850161297c565b6020830152506040612d918482850161297c565b6040830152506060612da5848285016129af565b6060830152506080612db9848285016129af565b60808301525092915050565b5f60a08284031215612dda57612dd9612932565b5b5f612de784828501612d3c565b91505092915050565b5f81519050919050565b5f82825260208201905092915050565b5f819050602082019050919050565b5f81519050919050565b5f82825260208201905092915050565b5f819050602082019050919050565b5f612e4d8383612b4e565b905092915050565b5f602082019050919050565b5f612e6b82612e19565b612e758185612e23565b935083602082028501612e8785612e33565b805f5b85811015612ec25784840389528151612ea38582612e42565b9450612eae83612e55565b925060208a01995050600181019050612e8a565b50829750879550505050505092915050565b5f606083015f830151612ee95f860182612a3c565b5060208301518482036020860152612f018282612a97565b91505060408301518482036040860152612f1b8282612e61565b9150508091505092915050565b5f612f338383612ed4565b905092915050565b5f602082019050919050565b5f612f5182612df0565b612f5b8185612dfa565b935083602082028501612f6d85612e0a565b805f5b85811015612fa85784840389528151612f898582612f28565b9450612f9483612f3b565b925060208a01995050600181019050612f70565b50829750879550505050505092915050565b5f6020820190508181035f830152612fd28184612f47565b905092915050565b5f81519050919050565b5f82825260208201905092915050565b5f819050602082019050919050565b604082015f8201516130175f850182612a3c565b50602082015161302a6020850182612b1c565b50505050565b5f61303b8383613003565b60408301905092915050565b5f602082019050919050565b5f61305d82612fda565b6130678185612fe4565b935061307283612ff4565b805f5b838110156130a25781516130898882613030565b975061309483613047565b925050600181019050613075565b5085935050505092915050565b5f6020820190508181035f8301526130c78184613053565b905092915050565b5f805f80608085870312156130e7576130e6612932565b5b5f6130f48782880161297c565b94505060206131058782880161297c565b93505060406131168782880161297c565b9250506060613127878288016129af565b91505092959194509250565b5f81519050919050565b5f82825260208201905092915050565b5f819050602082019050919050565b5f81519050919050565b5f82825260208201905092915050565b5f819050602082019050919050565b5f606083015f83015161319a5f860182612a3c565b50602083015184820360208601526131b28282612b4e565b915050604083015184820360408601526131cc8282612b4e565b9150508091505092915050565b5f6131e48383613185565b905092915050565b5f602082019050919050565b5f6132028261315c565b61320c8185613166565b93508360208202850161321e85613176565b805f5b85811015613259578484038952815161323a85826131d9565b9450613245836131ec565b925060208a01995050600181019050613221565b50829750879550505050505092915050565b5f604083015f8301516132805f860182612a3c565b506020830151848203602086015261329882826131f8565b9150508091505092915050565b5f6132b0838361326b565b905092915050565b5f602082019050919050565b5f6132ce82613133565b6132d8818561313d565b9350836020820285016132ea8561314d565b805f5b85811015613325578484038952815161330685826132a5565b9450613311836132b8565b925060208a019950506001810190506132ed565b50829750879550505050505092915050565b5f6020820190508181035f83015261334f81846132c4565b905092915050565b7f4e487b71000000000000000000000000000000000000000000000000000000005f52601160045260245ffd5b5f61338e82612990565b915061339983612990565b92508282019050808211156133b1576133b0613357565b5b92915050565b7f4e487b71000000000000000000000000000000000000000000000000000000005f52603260045260245ffd5b6133ed81612955565b82525050565b6133fc81612990565b82525050565b5f6040820190506134155f8301856133e4565b61342260208301846133f3565b9392505050565b5f8151905061343781612999565b92915050565b5f6020828403121561345257613451612932565b5b5f61345f84828501613429565b91505092915050565b5f60208201905061347b5f8301846133e4565b92915050565b5f82825260208201905092915050565b7f45524337323142616c616e6365733a2073656e64657220646f6573206e6f74205f8201527f6861766520612062616c616e6365000000000000000000000000000000000000602082015250565b5f6134eb602e83613481565b91506134f682613491565b604082019050919050565b5f6020820190508181035f830152613518816134df565b9050919050565b5f61352982612990565b915061353483612990565b925082820390508181111561354c5761354b613357565b5b92915050565b5f6020820190506135655f8301846133f3565b92915050565b5f8151905061357981612966565b92915050565b5f6020828403121561359457613593612932565b5b5f6135a18482850161356b565b91505092915050565b7f457870656374656442616c616e6365733a2073656e64657220646f6573206e6f5f8201527f74206f776e20746f6b656e000000000000000000000000000000000000000000602082015250565b5f613604602b83613481565b915061360f826135aa565b604082019050919050565b5f6020820190508181035f830152613631816135f8565b9050919050565b7f457870656374656442616c616e6365733a20726563656976657220616c7265615f8201527f6479206f776e7320746f6b656e00000000000000000000000000000000000000602082015250565b5f613692602d83613481565b915061369d82613638565b604082019050919050565b5f6020820190508181035f8301526136bf81613686565b9050919050565b5f81519050919050565b8281835e5f83830152505050565b5f6136e8826136c6565b6136f28185613481565b93506137028185602086016136d0565b61370b81612cb4565b840191505092915050565b5f6020820190508181035f83015261372e81846136de565b905092915050565b7f457870656374656442616c616e6365733a206163636f756e7420646f6573206e5f8201527f6f74206f776e20657870656374656420746f6b656e0000000000000000000000602082015250565b5f613790603583613481565b915061379b82613736565b604082019050919050565b5f6020820190508181035f8301526137bd81613784565b9050919050565b7f456e756d657261626c654d61703a206e6f6e6578697374656e74206b657900005f82015250565b5f6137f8601e83613481565b9150613803826137c4565b602082019050919050565b5f6020820190508181035f830152613825816137ec565b9050919050565b5f81905092915050565b7f457870656374656442616c616e6365733a20496e73756666696369656e7420455f8201527f5243313135352062616c616e636520666f72207472616e736665720a20746f6b60208201527f656e3a2000000000000000000000000000000000000000000000000000000000604082015250565b5f6138b660448361382c565b91506138c182613836565b604482019050919050565b5f6138d6826136c6565b6138e0818561382c565b93506138f08185602086016136d0565b80840191505092915050565b7f0a206964656e7469666965723a20000000000000000000000000000000000000815250565b5f61392c826138aa565b915061393882856138cc565b9150613943826138fc565b600e8201915061395382846138cc565b91508190509392505050565b7f457870656374656442616c616e6365733a20496e73756666696369656e7420455f8201527f524332302062616c616e636520666f72207472616e736665720a20746f6b656e60208201527f3a20000000000000000000000000000000000000000000000000000000000000604082015250565b5f6139df60428361382c565b91506139ea8261395f565b604282019050919050565b5f6139ff826139d3565b9150613a0b82846138cc565b915081905092915050565b7f4e487b71000000000000000000000000000000000000000000000000000000005f52603160045260245ffd5b7f0a2066726f6d3a20000000000000000000000000000000000000000000000000815250565b7f0a207472616e7366657220616d6f756e743a2000000000000000000000000000815250565b7f0a20746f3a200000000000000000000000000000000000000000000000000000815250565b7f0a00000000000000000000000000000000000000000000000000000000000000815250565b5f613ae682896138cc565b9150613af182613a43565b600882019150613b0182886138cc565b9150613b0d82876138cc565b9150613b1982866138cc565b9150613b2482613a69565b601382019150613b3482856138cc565b9150613b3f82613a8f565b600682019150613b4f82846138cc565b9150613b5a82613ab5565b600182019150819050979650505050505050565b7f2028000000000000000000000000000000000000000000000000000000000000815250565b7f2900000000000000000000000000000000000000000000000000000000000000815250565b5f613bc582856138cc565b9150613bd082613b6e565b600282019150613be082846138cc565b9150613beb82613b94565b6001820191508190509392505050565b7f0a20746f6b656e3a200000000000000000000000000000000000000000000000815250565b7f0a206163636f756e743a20000000000000000000000000000000000000000000815250565b7f0a2065787065637465643a200000000000000000000000000000000000000000815250565b7f0a2061637475616c3a2000000000000000000000000000000000000000000000815250565b5f613c9e82886138cc565b9150613ca982613bfb565b600982019150613cb982876138cc565b9150613cc482613c21565b600b82019150613cd482866138cc565b9150613cdf82613c47565b600c82019150613cef82856138cc565b9150613cfa82613c6d565b600a82019150613d0a82846138cc565b9150613d1582613ab5565b6001820191508190509695505050505050565b5f613d3382896138cc565b9150613d3e82613bfb565b600982019150613d4e82886138cc565b9150613d59826138fc565b600e82019150613d6982876138cc565b9150613d7482613c21565b600b82019150613d8482866138cc565b9150613d8f82613c47565b600c82019150613d9f82856138cc565b9150613daa82613c6d565b600a82019150613dba82846138cc565b9150613dc582613ab5565b600182019150819050979650505050505050565b5f819050919050565b613deb81613dd9565b82525050565b5f604082019050613e045f8301856133e4565b613e116020830184613de2565b9392505050565b613e2181613dd9565b8114613e2b575f80fd5b50565b5f81519050613e3c81613e18565b92915050565b5f60208284031215613e5757613e56612932565b5b5f613e6484828501613e2e565b91505092915050565b7f4e487b71000000000000000000000000000000000000000000000000000000005f52605160045260245ffdfe457870656374656442616c616e6365733a20556e6578706563746564206e61746976652062616c616e6365457870656374656442616c616e6365733a20556e657870656374656420455243313135352062616c616e636520666f72204944457870656374656442616c616e6365733a20556e6578706563746564204552433732312062616c616e6365457870656374656442616c616e6365733a20496e73756666696369656e74206e61746976652062616c616e636520666f72207472616e73666572457870656374656442616c616e6365733a20556e65787065637465642045524332302062616c616e6365a164736f6c6343000819000a","linkReferences":{}},"methodIdentifiers":{"checkBalances()":"9e241e85","dumpERC1155Balances()":"d849a347","dumpERC20Balances()":"2a94a52d","dumpERC721Balances()":"3c86300c","dumpNativeBalances()":"7fe82bf7","expectERC1155Transfer((address,address,address,uint256,uint256))":"3166fc74","expectERC20Transfer(address,address,address,uint256)":"a30e9d6c","expectERC721Transfer(address,address,address,uint256)":"c3fba304","expectNativeTransfer(address,address,uint256)":"0b6d63ef"},"id":113}