{"abi":[{"type":"function","name":"$applyProtocolFee","inputs":[{"name":"state","type":"tuple","internalType":"struct MarketState","components":[{"name":"isClosed","type":"bool","internalType":"bool"},{"name":"maxTotalSupply","type":"uint128","internalType":"uint128"},{"name":"accruedProtocolFees","type":"uint128","internalType":"uint128"},{"name":"normalizedUnclaimedWithdrawals","type":"uint128","internalType":"uint128"},{"name":"scaledTotalSupply","type":"uint104","internalType":"uint104"},{"name":"scaledPendingWithdrawals","type":"uint104","internalType":"uint104"},{"name":"pendingWithdrawalExpiry","type":"uint32","internalType":"uint32"},{"name":"isDelinquent","type":"bool","internalType":"bool"},{"name":"timeDelinquent","type":"uint32","internalType":"uint32"},{"name":"protocolFeeBips","type":"uint16","internalType":"uint16"},{"name":"annualInterestBips","type":"uint16","internalType":"uint16"},{"name":"reserveRatioBips","type":"uint16","internalType":"uint16"},{"name":"scaleFactor","type":"uint112","internalType":"uint112"},{"name":"lastInterestAccruedTimestamp","type":"uint32","internalType":"uint32"}]},{"name":"baseInterestRay","type":"uint256","internalType":"uint256"}],"outputs":[{"name":"newState","type":"tuple","internalType":"struct MarketState","components":[{"name":"isClosed","type":"bool","internalType":"bool"},{"name":"maxTotalSupply","type":"uint128","internalType":"uint128"},{"name":"accruedProtocolFees","type":"uint128","internalType":"uint128"},{"name":"normalizedUnclaimedWithdrawals","type":"uint128","internalType":"uint128"},{"name":"scaledTotalSupply","type":"uint104","internalType":"uint104"},{"name":"scaledPendingWithdrawals","type":"uint104","internalType":"uint104"},{"name":"pendingWithdrawalExpiry","type":"uint32","internalType":"uint32"},{"name":"isDelinquent","type":"bool","internalType":"bool"},{"name":"timeDelinquent","type":"uint32","internalType":"uint32"},{"name":"protocolFeeBips","type":"uint16","internalType":"uint16"},{"name":"annualInterestBips","type":"uint16","internalType":"uint16"},{"name":"reserveRatioBips","type":"uint16","internalType":"uint16"},{"name":"scaleFactor","type":"uint112","internalType":"uint112"},{"name":"lastInterestAccruedTimestamp","type":"uint32","internalType":"uint32"}]},{"name":"protocolFee","type":"uint256","internalType":"uint256"}],"stateMutability":"pure"},{"type":"function","name":"$calculateBaseInterest","inputs":[{"name":"state","type":"tuple","internalType":"struct MarketState","components":[{"name":"isClosed","type":"bool","internalType":"bool"},{"name":"maxTotalSupply","type":"uint128","internalType":"uint128"},{"name":"accruedProtocolFees","type":"uint128","internalType":"uint128"},{"name":"normalizedUnclaimedWithdrawals","type":"uint128","internalType":"uint128"},{"name":"scaledTotalSupply","type":"uint104","internalType":"uint104"},{"name":"scaledPendingWithdrawals","type":"uint104","internalType":"uint104"},{"name":"pendingWithdrawalExpiry","type":"uint32","internalType":"uint32"},{"name":"isDelinquent","type":"bool","internalType":"bool"},{"name":"timeDelinquent","type":"uint32","internalType":"uint32"},{"name":"protocolFeeBips","type":"uint16","internalType":"uint16"},{"name":"annualInterestBips","type":"uint16","internalType":"uint16"},{"name":"reserveRatioBips","type":"uint16","internalType":"uint16"},{"name":"scaleFactor","type":"uint112","internalType":"uint112"},{"name":"lastInterestAccruedTimestamp","type":"uint32","internalType":"uint32"}]},{"name":"timestamp","type":"uint256","internalType":"uint256"}],"outputs":[{"name":"baseInterestRay","type":"uint256","internalType":"uint256"}],"stateMutability":"pure"},{"type":"function","name":"$calculateLinearInterestFromBips","inputs":[{"name":"rateBip","type":"uint256","internalType":"uint256"},{"name":"timeDelta","type":"uint256","internalType":"uint256"}],"outputs":[{"name":"result","type":"uint256","internalType":"uint256"}],"stateMutability":"pure"},{"type":"function","name":"$updateDelinquency","inputs":[{"name":"state","type":"tuple","internalType":"struct MarketState","components":[{"name":"isClosed","type":"bool","internalType":"bool"},{"name":"maxTotalSupply","type":"uint128","internalType":"uint128"},{"name":"accruedProtocolFees","type":"uint128","internalType":"uint128"},{"name":"normalizedUnclaimedWithdrawals","type":"uint128","internalType":"uint128"},{"name":"scaledTotalSupply","type":"uint104","internalType":"uint104"},{"name":"scaledPendingWithdrawals","type":"uint104","internalType":"uint104"},{"name":"pendingWithdrawalExpiry","type":"uint32","internalType":"uint32"},{"name":"isDelinquent","type":"bool","internalType":"bool"},{"name":"timeDelinquent","type":"uint32","internalType":"uint32"},{"name":"protocolFeeBips","type":"uint16","internalType":"uint16"},{"name":"annualInterestBips","type":"uint16","internalType":"uint16"},{"name":"reserveRatioBips","type":"uint16","internalType":"uint16"},{"name":"scaleFactor","type":"uint112","internalType":"uint112"},{"name":"lastInterestAccruedTimestamp","type":"uint32","internalType":"uint32"}]},{"name":"timestamp","type":"uint256","internalType":"uint256"},{"name":"delinquencyFeeBips","type":"uint256","internalType":"uint256"},{"name":"delinquencyGracePeriod","type":"uint256","internalType":"uint256"}],"outputs":[{"name":"newState","type":"tuple","internalType":"struct MarketState","components":[{"name":"isClosed","type":"bool","internalType":"bool"},{"name":"maxTotalSupply","type":"uint128","internalType":"uint128"},{"name":"accruedProtocolFees","type":"uint128","internalType":"uint128"},{"name":"normalizedUnclaimedWithdrawals","type":"uint128","internalType":"uint128"},{"name":"scaledTotalSupply","type":"uint104","internalType":"uint104"},{"name":"scaledPendingWithdrawals","type":"uint104","internalType":"uint104"},{"name":"pendingWithdrawalExpiry","type":"uint32","internalType":"uint32"},{"name":"isDelinquent","type":"bool","internalType":"bool"},{"name":"timeDelinquent","type":"uint32","internalType":"uint32"},{"name":"protocolFeeBips","type":"uint16","internalType":"uint16"},{"name":"annualInterestBips","type":"uint16","internalType":"uint16"},{"name":"reserveRatioBips","type":"uint16","internalType":"uint16"},{"name":"scaleFactor","type":"uint112","internalType":"uint112"},{"name":"lastInterestAccruedTimestamp","type":"uint32","internalType":"uint32"}]},{"name":"delinquencyFeeRay","type":"uint256","internalType":"uint256"}],"stateMutability":"pure"},{"type":"function","name":"$updateScaleFactorAndFees","inputs":[{"name":"state","type":"tuple","internalType":"struct MarketState","components":[{"name":"isClosed","type":"bool","internalType":"bool"},{"name":"maxTotalSupply","type":"uint128","internalType":"uint128"},{"name":"accruedProtocolFees","type":"uint128","internalType":"uint128"},{"name":"normalizedUnclaimedWithdrawals","type":"uint128","internalType":"uint128"},{"name":"scaledTotalSupply","type":"uint104","internalType":"uint104"},{"name":"scaledPendingWithdrawals","type":"uint104","internalType":"uint104"},{"name":"pendingWithdrawalExpiry","type":"uint32","internalType":"uint32"},{"name":"isDelinquent","type":"bool","internalType":"bool"},{"name":"timeDelinquent","type":"uint32","internalType":"uint32"},{"name":"protocolFeeBips","type":"uint16","internalType":"uint16"},{"name":"annualInterestBips","type":"uint16","internalType":"uint16"},{"name":"reserveRatioBips","type":"uint16","internalType":"uint16"},{"name":"scaleFactor","type":"uint112","internalType":"uint112"},{"name":"lastInterestAccruedTimestamp","type":"uint32","internalType":"uint32"}]},{"name":"delinquencyFeeBips","type":"uint256","internalType":"uint256"},{"name":"delinquencyGracePeriod","type":"uint256","internalType":"uint256"},{"name":"timestamp","type":"uint256","internalType":"uint256"}],"outputs":[{"name":"newState","type":"tuple","internalType":"struct MarketState","components":[{"name":"isClosed","type":"bool","internalType":"bool"},{"name":"maxTotalSupply","type":"uint128","internalType":"uint128"},{"name":"accruedProtocolFees","type":"uint128","internalType":"uint128"},{"name":"normalizedUnclaimedWithdrawals","type":"uint128","internalType":"uint128"},{"name":"scaledTotalSupply","type":"uint104","internalType":"uint104"},{"name":"scaledPendingWithdrawals","type":"uint104","internalType":"uint104"},{"name":"pendingWithdrawalExpiry","type":"uint32","internalType":"uint32"},{"name":"isDelinquent","type":"bool","internalType":"bool"},{"name":"timeDelinquent","type":"uint32","internalType":"uint32"},{"name":"protocolFeeBips","type":"uint16","internalType":"uint16"},{"name":"annualInterestBips","type":"uint16","internalType":"uint16"},{"name":"reserveRatioBips","type":"uint16","internalType":"uint16"},{"name":"scaleFactor","type":"uint112","internalType":"uint112"},{"name":"lastInterestAccruedTimestamp","type":"uint32","internalType":"uint32"}]},{"name":"baseInterestRay","type":"uint256","internalType":"uint256"},{"name":"delinquencyFeeRay","type":"uint256","internalType":"uint256"},{"name":"protocolFee","type":"uint256","internalType":"uint256"}],"stateMutability":"pure"},{"type":"function","name":"$updateTimeDelinquentAndGetPenaltyTime","inputs":[{"name":"state","type":"tuple","internalType":"struct MarketState","components":[{"name":"isClosed","type":"bool","internalType":"bool"},{"name":"maxTotalSupply","type":"uint128","internalType":"uint128"},{"name":"accruedProtocolFees","type":"uint128","internalType":"uint128"},{"name":"normalizedUnclaimedWithdrawals","type":"uint128","internalType":"uint128"},{"name":"scaledTotalSupply","type":"uint104","internalType":"uint104"},{"name":"scaledPendingWithdrawals","type":"uint104","internalType":"uint104"},{"name":"pendingWithdrawalExpiry","type":"uint32","internalType":"uint32"},{"name":"isDelinquent","type":"bool","internalType":"bool"},{"name":"timeDelinquent","type":"uint32","internalType":"uint32"},{"name":"protocolFeeBips","type":"uint16","internalType":"uint16"},{"name":"annualInterestBips","type":"uint16","internalType":"uint16"},{"name":"reserveRatioBips","type":"uint16","internalType":"uint16"},{"name":"scaleFactor","type":"uint112","internalType":"uint112"},{"name":"lastInterestAccruedTimestamp","type":"uint32","internalType":"uint32"}]},{"name":"delinquencyGracePeriod","type":"uint256","internalType":"uint256"},{"name":"timeDelta","type":"uint256","internalType":"uint256"}],"outputs":[{"name":"newState","type":"tuple","internalType":"struct MarketState","components":[{"name":"isClosed","type":"bool","internalType":"bool"},{"name":"maxTotalSupply","type":"uint128","internalType":"uint128"},{"name":"accruedProtocolFees","type":"uint128","internalType":"uint128"},{"name":"normalizedUnclaimedWithdrawals","type":"uint128","internalType":"uint128"},{"name":"scaledTotalSupply","type":"uint104","internalType":"uint104"},{"name":"scaledPendingWithdrawals","type":"uint104","internalType":"uint104"},{"name":"pendingWithdrawalExpiry","type":"uint32","internalType":"uint32"},{"name":"isDelinquent","type":"bool","internalType":"bool"},{"name":"timeDelinquent","type":"uint32","internalType":"uint32"},{"name":"protocolFeeBips","type":"uint16","internalType":"uint16"},{"name":"annualInterestBips","type":"uint16","internalType":"uint16"},{"name":"reserveRatioBips","type":"uint16","internalType":"uint16"},{"name":"scaleFactor","type":"uint112","internalType":"uint112"},{"name":"lastInterestAccruedTimestamp","type":"uint32","internalType":"uint32"}]},{"name":"timeWithPenalty","type":"uint256","internalType":"uint256"}],"stateMutability":"pure"}],"bytecode":{"object":"0x61102161004d600b8282823980515f1a6073146041577f4e487b71000000000000000000000000000000000000000000000000000000005f525f60045260245ffd5b305f52607381538281f3fe730000000000000000000000000000000000000000301460806040526004361061006b575f3560e01c806305e6b79a1461006f578063320336ce146100a25780636368a75e146100d357806393629a4314610104578063d2c91c0414610134578063fd0cbbfa14610164575b5f80fd5b61008960048036038101906100849190610bca565b610195565b6040516100999493929190610db9565b60405180910390f35b6100bc60048036038101906100b79190610e00565b6101c6565b6040516100ca929190610e40565b60405180910390f35b6100ed60048036038101906100e89190610bca565b6101e5565b6040516100fb929190610e40565b60405180910390f35b61011e60048036038101906101199190610e69565b610208565b60405161012b9190610ea7565b60405180910390f35b61014e60048036038101906101499190610e00565b61021b565b60405161015b9190610ea7565b60405180910390f35b61017e60048036038101906101799190610ec0565b61022e565b60405161018c929190610e40565b60405180910390f35b61019d61075d565b5f805f8793506101af8888888861024f565b809350819450829550505050945094509450949050565b6101ce61075d565b5f6101d9848461034f565b90508391509250929050565b6101ed61075d565b5f8591506101fd8686868661041e565b905094509492505050565b5f6102138383610461565b905092915050565b5f610226838361049c565b905092915050565b61023661075d565b5f8491506102458585856104ce565b9050935093915050565b5f805f610265848861049c90919063ffffffff16565b92505f87610120015161ffff16111561028e5761028b838861034f90919063ffffffff16565b90505b5f8611156102b0576102ad8487878a61041e909392919063ffffffff16565b91505b5f8761018001516dffffffffffffffffffffffffffff1690505f6102e884866102d99190610f40565b836105a590919063ffffffff16565b90506102fe81836102f99190610f40565b6105fb565b8961018001906dffffffffffffffffffffffffffff1690816dffffffffffffffffffffffffffff168152505085896101a0019063ffffffff16908163ffffffff168152505050509450945094915050565b5f8061036d8385610120015161ffff1661061f90919063ffffffff16565b90506103bc61039a828661018001516dffffffffffffffffffffffffffff166105a590919063ffffffff16565b85608001516cffffffffffffffffffffffffff166105a590919063ffffffff16565b91506103e88285604001516fffffffffffffffffffffffffffffffff166103e39190610f40565b610657565b84604001906fffffffffffffffffffffffffffffffff1690816fffffffffffffffffffffffffffffffff16815250505092915050565b5f806104418684886101a0015163ffffffff168861043c9190610f73565b6104ce565b90505f811115610458576104558482610461565b91505b50949350505050565b5f8061046c8461067d565b90505f838261047b9190610fa6565b90506301e13380818161049157610490610fe7565b5b049250505092915050565b5f6104c683610140015161ffff16846101a0015163ffffffff16846104c19190610f73565b6106b7565b905092915050565b5f8084610100015163ffffffff1690508460e0015115610546576104fc83826104f79190610f40565b6106f2565b85610100019063ffffffff16908163ffffffff16815250505f610528828661070c90919063ffffffff16565b905061053d818561070c90919063ffffffff16565b9250505061059e565b61056161055c848361070c90919063ffffffff16565b6106f2565b85610100019063ffffffff16908163ffffffff16815250505f61058d858361070c90919063ffffffff16565b9050610599818561071c565b925050505b9392505050565b5f816b019d971e4fe8401e740000005f1903048311158215176105d457634e487b715f5260116020526024601cfd5b6b033b2e3c9fd0803ce80000006b019d971e4fe8401e740000008385020104905092915050565b5f61061a829150816dffffffffffffffffffffffffffff168314610732565b919050565b5f816113885f19030483111582151761064457634e487b715f5260116020526024601cfd5b6127106113888385020104905092915050565b5f610678829150816fffffffffffffffffffffffffffffffff168314610732565b919050565b5f69152d02c7e14af6800000820290508169152d02c7e14af68000008204146106b257634e487b715f5260116020526024601cfd5b919050565b5f806106c28461067d565b90505f83826106d19190610fa6565b90506301e1338081816106e7576106e6610fe7565b5b049250505092915050565b5f6107078291508163ffffffff168314610732565b919050565b5f81830382841102905092915050565b5f61072a828410848461074c565b905092915050565b8061074957634e487b715f5260116020526024601cfd5b50565b5f8183038402820190509392505050565b604051806101c001604052805f151581526020015f6fffffffffffffffffffffffffffffffff1681526020015f6fffffffffffffffffffffffffffffffff1681526020015f6fffffffffffffffffffffffffffffffff1681526020015f6cffffffffffffffffffffffffff1681526020015f6cffffffffffffffffffffffffff1681526020015f63ffffffff1681526020015f151581526020015f63ffffffff1681526020015f61ffff1681526020015f61ffff1681526020015f61ffff1681526020015f6dffffffffffffffffffffffffffff1681526020015f63ffffffff1681525090565b5f604051905090565b5f80fd5b5f80fd5b5f601f19601f8301169050919050565b7f4e487b71000000000000000000000000000000000000000000000000000000005f52604160045260245ffd5b61089b82610855565b810181811067ffffffffffffffff821117156108ba576108b9610865565b5b80604052505050565b5f6108cc610844565b90506108d88282610892565b919050565b5f8115159050919050565b6108f1816108dd565b81146108fb575f80fd5b50565b5f8135905061090c816108e8565b92915050565b5f6fffffffffffffffffffffffffffffffff82169050919050565b61093681610912565b8114610940575f80fd5b50565b5f813590506109518161092d565b92915050565b5f6cffffffffffffffffffffffffff82169050919050565b61097881610957565b8114610982575f80fd5b50565b5f813590506109938161096f565b92915050565b5f63ffffffff82169050919050565b6109b181610999565b81146109bb575f80fd5b50565b5f813590506109cc816109a8565b92915050565b5f61ffff82169050919050565b6109e8816109d2565b81146109f2575f80fd5b50565b5f81359050610a03816109df565b92915050565b5f6dffffffffffffffffffffffffffff82169050919050565b610a2b81610a09565b8114610a35575f80fd5b50565b5f81359050610a4681610a22565b92915050565b5f6101c08284031215610a6257610a61610851565b5b610a6d6101c06108c3565b90505f610a7c848285016108fe565b5f830152506020610a8f84828501610943565b6020830152506040610aa384828501610943565b6040830152506060610ab784828501610943565b6060830152506080610acb84828501610985565b60808301525060a0610adf84828501610985565b60a08301525060c0610af3848285016109be565b60c08301525060e0610b07848285016108fe565b60e083015250610100610b1c848285016109be565b61010083015250610120610b32848285016109f5565b61012083015250610140610b48848285016109f5565b61014083015250610160610b5e848285016109f5565b61016083015250610180610b7484828501610a38565b610180830152506101a0610b8a848285016109be565b6101a08301525092915050565b5f819050919050565b610ba981610b97565b8114610bb3575f80fd5b50565b5f81359050610bc481610ba0565b92915050565b5f805f806102208587031215610be357610be261084d565b5b5f610bf087828801610a4c565b9450506101c0610c0287828801610bb6565b9350506101e0610c1487828801610bb6565b925050610200610c2687828801610bb6565b91505092959194509250565b610c3b816108dd565b82525050565b610c4a81610912565b82525050565b610c5981610957565b82525050565b610c6881610999565b82525050565b610c77816109d2565b82525050565b610c8681610a09565b82525050565b6101c082015f820151610ca15f850182610c32565b506020820151610cb46020850182610c41565b506040820151610cc76040850182610c41565b506060820151610cda6060850182610c41565b506080820151610ced6080850182610c50565b5060a0820151610d0060a0850182610c50565b5060c0820151610d1360c0850182610c5f565b5060e0820151610d2660e0850182610c32565b50610100820151610d3b610100850182610c5f565b50610120820151610d50610120850182610c6e565b50610140820151610d65610140850182610c6e565b50610160820151610d7a610160850182610c6e565b50610180820151610d8f610180850182610c7d565b506101a0820151610da46101a0850182610c5f565b50505050565b610db381610b97565b82525050565b5f61022082019050610dcd5f830187610c8c565b610ddb6101c0830186610daa565b610de96101e0830185610daa565b610df7610200830184610daa565b95945050505050565b5f806101e08385031215610e1757610e1661084d565b5b5f610e2485828601610a4c565b9250506101c0610e3685828601610bb6565b9150509250929050565b5f6101e082019050610e545f830185610c8c565b610e626101c0830184610daa565b9392505050565b5f8060408385031215610e7f57610e7e61084d565b5b5f610e8c85828601610bb6565b9250506020610e9d85828601610bb6565b9150509250929050565b5f602082019050610eba5f830184610daa565b92915050565b5f805f6102008486031215610ed857610ed761084d565b5b5f610ee586828701610a4c565b9350506101c0610ef786828701610bb6565b9250506101e0610f0986828701610bb6565b9150509250925092565b7f4e487b71000000000000000000000000000000000000000000000000000000005f52601160045260245ffd5b5f610f4a82610b97565b9150610f5583610b97565b9250828201905080821115610f6d57610f6c610f13565b5b92915050565b5f610f7d82610b97565b9150610f8883610b97565b9250828203905081811115610fa057610f9f610f13565b5b92915050565b5f610fb082610b97565b9150610fbb83610b97565b9250828202610fc981610b97565b91508282048414831517610fe057610fdf610f13565b5b5092915050565b7f4e487b71000000000000000000000000000000000000000000000000000000005f52601260045260245ffdfea164736f6c6343000819000a","linkReferences":{}},"methodIdentifiers":{"$applyProtocolFee(MarketState,uint256)":"320336ce","$calculateBaseInterest(MarketState,uint256)":"d2c91c04","$calculateLinearInterestFromBips(uint256,uint256)":"93629a43","$updateDelinquency(MarketState,uint256,uint256,uint256)":"6368a75e","$updateScaleFactorAndFees(MarketState,uint256,uint256,uint256)":"05e6b79a","$updateTimeDelinquentAndGetPenaltyTime(MarketState,uint256,uint256)":"fd0cbbfa"},"id":132}