{"abi":[{"type":"function","name":"getCredential","inputs":[{"name":"","type":"address","internalType":"address"}],"outputs":[{"name":"timestamp","type":"uint32","internalType":"uint32"}],"stateMutability":"view"},{"type":"function","name":"isPullProvider","inputs":[],"outputs":[{"name":"","type":"bool","internalType":"bool"}],"stateMutability":"pure"},{"type":"function","name":"validateCredential","inputs":[{"name":"","type":"address","internalType":"address"},{"name":"","type":"bytes","internalType":"bytes"}],"outputs":[{"name":"timestamp","type":"uint32","internalType":"uint32"}],"stateMutability":"view"}],"bytecode":{"object":"0x6080604052348015600e575f80fd5b506101598061001c5f395ff3fe608060405234801561000f575f80fd5b506004361061003f575f3560e01c8063256909f11461004357806354560cb214610057578063ccdad14b14610082575b5f80fd5b604051600181526020015b60405180910390f35b61006d6100653660046100b0565b429392505050565b60405163ffffffff909116815260200161004e565b61006d61009036600461012c565b504290565b80356001600160a01b03811681146100ab575f80fd5b919050565b5f805f604084860312156100c2575f80fd5b6100cb84610095565b9250602084013567ffffffffffffffff808211156100e7575f80fd5b818601915086601f8301126100fa575f80fd5b813581811115610108575f80fd5b876020828501011115610119575f80fd5b6020830194508093505050509250925092565b5f6020828403121561013c575f80fd5b61014582610095565b939250505056fea164736f6c6343000819000a","linkReferences":{}},"methodIdentifiers":{"getCredential(address)":"ccdad14b","isPullProvider()":"256909f1","validateCredential(address,bytes)":"54560cb2"},"id":93}