{"abi":[{"type":"function","name":"isSanctioned","inputs":[{"name":"","type":"address","internalType":"address"}],"outputs":[{"name":"","type":"bool","internalType":"bool"}],"stateMutability":"view"},{"type":"function","name":"sanction","inputs":[{"name":"account","type":"address","internalType":"address"}],"outputs":[],"stateMutability":"nonpayable"},{"type":"function","name":"unsanction","inputs":[{"name":"account","type":"address","internalType":"address"}],"outputs":[],"stateMutability":"nonpayable"}],"bytecode":{"object":"0x6080604052348015600e575f80fd5b506101148061001c5f395ff3fe608060405234801561000f575f80fd5b506004361061003f575f3560e01c8063298eb83f14610043578063df592f7d14610073578063ed986c6c146100a9575b5f80fd5b6100716100513660046100da565b6001600160a01b03165f908152602081905260409020805460ff19169055565b005b6100956100813660046100da565b5f6020819052908152604090205460ff1681565b604051901515815260200160405180910390f35b6100716100b73660046100da565b6001600160a01b03165f908152602081905260409020805460ff19166001179055565b5f602082840312156100ea575f80fd5b81356001600160a01b0381168114610100575f80fd5b939250505056fea164736f6c6343000819000a","linkReferences":{}},"methodIdentifiers":{"isSanctioned(address)":"df592f7d","sanction(address)":"ed986c6c","unsanction(address)":"298eb83f"},"id":82}