{"abi":[{"type":"constructor","inputs":[{"name":"_deployer","type":"address","internalType":"address"},{"name":"","type":"bytes","internalType":"bytes"}],"stateMutability":"nonpayable"},{"type":"function","name":"addRoleProvider","inputs":[{"name":"providerAddress","type":"address","internalType":"address"},{"name":"timeToLive","type":"uint32","internalType":"uint32"}],"outputs":[],"stateMutability":"nonpayable"},{"type":"function","name":"blockFromDeposits","inputs":[{"name":"account","type":"address","internalType":"address"}],"outputs":[],"stateMutability":"nonpayable"},{"type":"function","name":"borrower","inputs":[],"outputs":[{"name":"","type":"address","internalType":"address"}],"stateMutability":"view"},{"type":"function","name":"config","inputs":[],"outputs":[{"name":"","type":"uint256","internalType":"HooksDeploymentConfig"}],"stateMutability":"view"},{"type":"function","name":"factory","inputs":[],"outputs":[{"name":"","type":"address","internalType":"address"}],"stateMutability":"view"},{"type":"function","name":"getHookedMarket","inputs":[{"name":"marketAddress","type":"address","internalType":"address"}],"outputs":[{"name":"","type":"tuple","internalType":"struct HookedMarket","components":[{"name":"isHooked","type":"bool","internalType":"bool"},{"name":"transferRequiresAccess","type":"bool","internalType":"bool"},{"name":"depositRequiresAccess","type":"bool","internalType":"bool"},{"name":"minimumDeposit","type":"uint128","internalType":"uint128"}]}],"stateMutability":"view"},{"type":"function","name":"getLenderStatus","inputs":[{"name":"accountAddress","type":"address","internalType":"address"}],"outputs":[{"name":"status","type":"tuple","internalType":"struct LenderStatus","components":[{"name":"isBlockedFromDeposits","type":"bool","internalType":"bool"},{"name":"lastProvider","type":"address","internalType":"address"},{"name":"canRefresh","type":"bool","internalType":"bool"},{"name":"lastApprovalTimestamp","type":"uint32","internalType":"uint32"}]}],"stateMutability":"view"},{"type":"function","name":"getParameterConstraints","inputs":[],"outputs":[{"name":"constraints","type":"tuple","internalType":"struct MarketParameterConstraints","components":[{"name":"minimumDelinquencyGracePeriod","type":"uint32","internalType":"uint32"},{"name":"maximumDelinquencyGracePeriod","type":"uint32","internalType":"uint32"},{"name":"minimumReserveRatioBips","type":"uint16","internalType":"uint16"},{"name":"maximumReserveRatioBips","type":"uint16","internalType":"uint16"},{"name":"minimumDelinquencyFeeBips","type":"uint16","internalType":"uint16"},{"name":"maximumDelinquencyFeeBips","type":"uint16","internalType":"uint16"},{"name":"minimumWithdrawalBatchDuration","type":"uint32","internalType":"uint32"},{"name":"maximumWithdrawalBatchDuration","type":"uint32","internalType":"uint32"},{"name":"minimumAnnualInterestBips","type":"uint16","internalType":"uint16"},{"name":"maximumAnnualInterestBips","type":"uint16","internalType":"uint16"}]}],"stateMutability":"pure"},{"type":"function","name":"getPreviousLenderStatus","inputs":[{"name":"accountAddress","type":"address","internalType":"address"}],"outputs":[{"name":"status","type":"tuple","internalType":"struct LenderStatus","components":[{"name":"isBlockedFromDeposits","type":"bool","internalType":"bool"},{"name":"lastProvider","type":"address","internalType":"address"},{"name":"canRefresh","type":"bool","internalType":"bool"},{"name":"lastApprovalTimestamp","type":"uint32","internalType":"uint32"}]}],"stateMutability":"view"},{"type":"function","name":"getPullProviders","inputs":[],"outputs":[{"name":"","type":"uint256[]","internalType":"RoleProvider[]"}],"stateMutability":"view"},{"type":"function","name":"getRoleProvider","inputs":[{"name":"providerAddress","type":"address","internalType":"address"}],"outputs":[{"name":"","type":"uint256","internalType":"RoleProvider"}],"stateMutability":"view"},{"type":"function","name":"grantRole","inputs":[{"name":"account","type":"address","internalType":"address"},{"name":"roleGrantedTimestamp","type":"uint32","internalType":"uint32"}],"outputs":[],"stateMutability":"nonpayable"},{"type":"function","name":"grantRoles","inputs":[{"name":"accounts","type":"address[]","internalType":"address[]"},{"name":"roleGrantedTimestamps","type":"uint32[]","internalType":"uint32[]"}],"outputs":[],"stateMutability":"nonpayable"},{"type":"function","name":"isKnownLenderOnMarket","inputs":[{"name":"lender","type":"address","internalType":"address"},{"name":"market","type":"address","internalType":"address"}],"outputs":[{"name":"","type":"bool","internalType":"bool"}],"stateMutability":"view"},{"type":"function","name":"onBorrow","inputs":[{"name":"","type":"uint256","internalType":"uint256"},{"name":"","type":"tuple","internalType":"struct MarketState","components":[{"name":"isClosed","type":"bool","internalType":"bool"},{"name":"maxTotalSupply","type":"uint128","internalType":"uint128"},{"name":"accruedProtocolFees","type":"uint128","internalType":"uint128"},{"name":"normalizedUnclaimedWithdrawals","type":"uint128","internalType":"uint128"},{"name":"scaledTotalSupply","type":"uint104","internalType":"uint104"},{"name":"scaledPendingWithdrawals","type":"uint104","internalType":"uint104"},{"name":"pendingWithdrawalExpiry","type":"uint32","internalType":"uint32"},{"name":"isDelinquent","type":"bool","internalType":"bool"},{"name":"timeDelinquent","type":"uint32","internalType":"uint32"},{"name":"protocolFeeBips","type":"uint16","internalType":"uint16"},{"name":"annualInterestBips","type":"uint16","internalType":"uint16"},{"name":"reserveRatioBips","type":"uint16","internalType":"uint16"},{"name":"scaleFactor","type":"uint112","internalType":"uint112"},{"name":"lastInterestAccruedTimestamp","type":"uint32","internalType":"uint32"}]},{"name":"","type":"bytes","internalType":"bytes"}],"outputs":[],"stateMutability":"nonpayable"},{"type":"function","name":"onCloseMarket","inputs":[{"name":"","type":"tuple","internalType":"struct MarketState","components":[{"name":"isClosed","type":"bool","internalType":"bool"},{"name":"maxTotalSupply","type":"uint128","internalType":"uint128"},{"name":"accruedProtocolFees","type":"uint128","internalType":"uint128"},{"name":"normalizedUnclaimedWithdrawals","type":"uint128","internalType":"uint128"},{"name":"scaledTotalSupply","type":"uint104","internalType":"uint104"},{"name":"scaledPendingWithdrawals","type":"uint104","internalType":"uint104"},{"name":"pendingWithdrawalExpiry","type":"uint32","internalType":"uint32"},{"name":"isDelinquent","type":"bool","internalType":"bool"},{"name":"timeDelinquent","type":"uint32","internalType":"uint32"},{"name":"protocolFeeBips","type":"uint16","internalType":"uint16"},{"name":"annualInterestBips","type":"uint16","internalType":"uint16"},{"name":"reserveRatioBips","type":"uint16","internalType":"uint16"},{"name":"scaleFactor","type":"uint112","internalType":"uint112"},{"name":"lastInterestAccruedTimestamp","type":"uint32","internalType":"uint32"}]},{"name":"","type":"bytes","internalType":"bytes"}],"outputs":[],"stateMutability":"nonpayable"},{"type":"function","name":"onCreateMarket","inputs":[{"name":"deployer","type":"address","internalType":"address"},{"name":"marketAddress","type":"address","internalType":"address"},{"name":"parameters","type":"tuple","internalType":"struct DeployMarketInputs","components":[{"name":"asset","type":"address","internalType":"address"},{"name":"namePrefix","type":"string","internalType":"string"},{"name":"symbolPrefix","type":"string","internalType":"string"},{"name":"maxTotalSupply","type":"uint128","internalType":"uint128"},{"name":"annualInterestBips","type":"uint16","internalType":"uint16"},{"name":"delinquencyFeeBips","type":"uint16","internalType":"uint16"},{"name":"withdrawalBatchDuration","type":"uint32","internalType":"uint32"},{"name":"reserveRatioBips","type":"uint16","internalType":"uint16"},{"name":"delinquencyGracePeriod","type":"uint32","internalType":"uint32"},{"name":"hooks","type":"uint256","internalType":"HooksConfig"}]},{"name":"extraData","type":"bytes","internalType":"bytes"}],"outputs":[{"name":"","type":"uint256","internalType":"HooksConfig"}],"stateMutability":"nonpayable"},{"type":"function","name":"onDeposit","inputs":[{"name":"lender","type":"address","internalType":"address"},{"name":"scaledAmount","type":"uint256","internalType":"uint256"},{"name":"state","type":"tuple","internalType":"struct MarketState","components":[{"name":"isClosed","type":"bool","internalType":"bool"},{"name":"maxTotalSupply","type":"uint128","internalType":"uint128"},{"name":"accruedProtocolFees","type":"uint128","internalType":"uint128"},{"name":"normalizedUnclaimedWithdrawals","type":"uint128","internalType":"uint128"},{"name":"scaledTotalSupply","type":"uint104","internalType":"uint104"},{"name":"scaledPendingWithdrawals","type":"uint104","internalType":"uint104"},{"name":"pendingWithdrawalExpiry","type":"uint32","internalType":"uint32"},{"name":"isDelinquent","type":"bool","internalType":"bool"},{"name":"timeDelinquent","type":"uint32","internalType":"uint32"},{"name":"protocolFeeBips","type":"uint16","internalType":"uint16"},{"name":"annualInterestBips","type":"uint16","internalType":"uint16"},{"name":"reserveRatioBips","type":"uint16","internalType":"uint16"},{"name":"scaleFactor","type":"uint112","internalType":"uint112"},{"name":"lastInterestAccruedTimestamp","type":"uint32","internalType":"uint32"}]},{"name":"hooksData","type":"bytes","internalType":"bytes"}],"outputs":[],"stateMutability":"nonpayable"},{"type":"function","name":"onExecuteWithdrawal","inputs":[{"name":"lender","type":"address","internalType":"address"},{"name":"","type":"uint128","internalType":"uint128"},{"name":"","type":"tuple","internalType":"struct MarketState","components":[{"name":"isClosed","type":"bool","internalType":"bool"},{"name":"maxTotalSupply","type":"uint128","internalType":"uint128"},{"name":"accruedProtocolFees","type":"uint128","internalType":"uint128"},{"name":"normalizedUnclaimedWithdrawals","type":"uint128","internalType":"uint128"},{"name":"scaledTotalSupply","type":"uint104","internalType":"uint104"},{"name":"scaledPendingWithdrawals","type":"uint104","internalType":"uint104"},{"name":"pendingWithdrawalExpiry","type":"uint32","internalType":"uint32"},{"name":"isDelinquent","type":"bool","internalType":"bool"},{"name":"timeDelinquent","type":"uint32","internalType":"uint32"},{"name":"protocolFeeBips","type":"uint16","internalType":"uint16"},{"name":"annualInterestBips","type":"uint16","internalType":"uint16"},{"name":"reserveRatioBips","type":"uint16","internalType":"uint16"},{"name":"scaleFactor","type":"uint112","internalType":"uint112"},{"name":"lastInterestAccruedTimestamp","type":"uint32","internalType":"uint32"}]},{"name":"hooksData","type":"bytes","internalType":"bytes"}],"outputs":[],"stateMutability":"nonpayable"},{"type":"function","name":"onNukeFromOrbit","inputs":[{"name":"","type":"address","internalType":"address"},{"name":"","type":"tuple","internalType":"struct MarketState","components":[{"name":"isClosed","type":"bool","internalType":"bool"},{"name":"maxTotalSupply","type":"uint128","internalType":"uint128"},{"name":"accruedProtocolFees","type":"uint128","internalType":"uint128"},{"name":"normalizedUnclaimedWithdrawals","type":"uint128","internalType":"uint128"},{"name":"scaledTotalSupply","type":"uint104","internalType":"uint104"},{"name":"scaledPendingWithdrawals","type":"uint104","internalType":"uint104"},{"name":"pendingWithdrawalExpiry","type":"uint32","internalType":"uint32"},{"name":"isDelinquent","type":"bool","internalType":"bool"},{"name":"timeDelinquent","type":"uint32","internalType":"uint32"},{"name":"protocolFeeBips","type":"uint16","internalType":"uint16"},{"name":"annualInterestBips","type":"uint16","internalType":"uint16"},{"name":"reserveRatioBips","type":"uint16","internalType":"uint16"},{"name":"scaleFactor","type":"uint112","internalType":"uint112"},{"name":"lastInterestAccruedTimestamp","type":"uint32","internalType":"uint32"}]},{"name":"","type":"bytes","internalType":"bytes"}],"outputs":[],"stateMutability":"nonpayable"},{"type":"function","name":"onQueueWithdrawal","inputs":[{"name":"lender","type":"address","internalType":"address"},{"name":"","type":"uint32","internalType":"uint32"},{"name":"","type":"uint256","internalType":"uint256"},{"name":"","type":"tuple","internalType":"struct MarketState","components":[{"name":"isClosed","type":"bool","internalType":"bool"},{"name":"maxTotalSupply","type":"uint128","internalType":"uint128"},{"name":"accruedProtocolFees","type":"uint128","internalType":"uint128"},{"name":"normalizedUnclaimedWithdrawals","type":"uint128","internalType":"uint128"},{"name":"scaledTotalSupply","type":"uint104","internalType":"uint104"},{"name":"scaledPendingWithdrawals","type":"uint104","internalType":"uint104"},{"name":"pendingWithdrawalExpiry","type":"uint32","internalType":"uint32"},{"name":"isDelinquent","type":"bool","internalType":"bool"},{"name":"timeDelinquent","type":"uint32","internalType":"uint32"},{"name":"protocolFeeBips","type":"uint16","internalType":"uint16"},{"name":"annualInterestBips","type":"uint16","internalType":"uint16"},{"name":"reserveRatioBips","type":"uint16","internalType":"uint16"},{"name":"scaleFactor","type":"uint112","internalType":"uint112"},{"name":"lastInterestAccruedTimestamp","type":"uint32","internalType":"uint32"}]},{"name":"hooksData","type":"bytes","internalType":"bytes"}],"outputs":[],"stateMutability":"nonpayable"},{"type":"function","name":"onRepay","inputs":[{"name":"normalizedAmount","type":"uint256","internalType":"uint256"},{"name":"state","type":"tuple","internalType":"struct MarketState","components":[{"name":"isClosed","type":"bool","internalType":"bool"},{"name":"maxTotalSupply","type":"uint128","internalType":"uint128"},{"name":"accruedProtocolFees","type":"uint128","internalType":"uint128"},{"name":"normalizedUnclaimedWithdrawals","type":"uint128","internalType":"uint128"},{"name":"scaledTotalSupply","type":"uint104","internalType":"uint104"},{"name":"scaledPendingWithdrawals","type":"uint104","internalType":"uint104"},{"name":"pendingWithdrawalExpiry","type":"uint32","internalType":"uint32"},{"name":"isDelinquent","type":"bool","internalType":"bool"},{"name":"timeDelinquent","type":"uint32","internalType":"uint32"},{"name":"protocolFeeBips","type":"uint16","internalType":"uint16"},{"name":"annualInterestBips","type":"uint16","internalType":"uint16"},{"name":"reserveRatioBips","type":"uint16","internalType":"uint16"},{"name":"scaleFactor","type":"uint112","internalType":"uint112"},{"name":"lastInterestAccruedTimestamp","type":"uint32","internalType":"uint32"}]},{"name":"hooksData","type":"bytes","internalType":"bytes"}],"outputs":[],"stateMutability":"nonpayable"},{"type":"function","name":"onSetAnnualInterestAndReserveRatioBips","inputs":[{"name":"annualInterestBips","type":"uint16","internalType":"uint16"},{"name":"reserveRatioBips","type":"uint16","internalType":"uint16"},{"name":"intermediateState","type":"tuple","internalType":"struct MarketState","components":[{"name":"isClosed","type":"bool","internalType":"bool"},{"name":"maxTotalSupply","type":"uint128","internalType":"uint128"},{"name":"accruedProtocolFees","type":"uint128","internalType":"uint128"},{"name":"normalizedUnclaimedWithdrawals","type":"uint128","internalType":"uint128"},{"name":"scaledTotalSupply","type":"uint104","internalType":"uint104"},{"name":"scaledPendingWithdrawals","type":"uint104","internalType":"uint104"},{"name":"pendingWithdrawalExpiry","type":"uint32","internalType":"uint32"},{"name":"isDelinquent","type":"bool","internalType":"bool"},{"name":"timeDelinquent","type":"uint32","internalType":"uint32"},{"name":"protocolFeeBips","type":"uint16","internalType":"uint16"},{"name":"annualInterestBips","type":"uint16","internalType":"uint16"},{"name":"reserveRatioBips","type":"uint16","internalType":"uint16"},{"name":"scaleFactor","type":"uint112","internalType":"uint112"},{"name":"lastInterestAccruedTimestamp","type":"uint32","internalType":"uint32"}]},{"name":"hooksData","type":"bytes","internalType":"bytes"}],"outputs":[{"name":"updatedAnnualInterestBips","type":"uint16","internalType":"uint16"},{"name":"updatedReserveRatioBips","type":"uint16","internalType":"uint16"}],"stateMutability":"nonpayable"},{"type":"function","name":"onSetMaxTotalSupply","inputs":[{"name":"","type":"uint256","internalType":"uint256"},{"name":"","type":"tuple","internalType":"struct MarketState","components":[{"name":"isClosed","type":"bool","internalType":"bool"},{"name":"maxTotalSupply","type":"uint128","internalType":"uint128"},{"name":"accruedProtocolFees","type":"uint128","internalType":"uint128"},{"name":"normalizedUnclaimedWithdrawals","type":"uint128","internalType":"uint128"},{"name":"scaledTotalSupply","type":"uint104","internalType":"uint104"},{"name":"scaledPendingWithdrawals","type":"uint104","internalType":"uint104"},{"name":"pendingWithdrawalExpiry","type":"uint32","internalType":"uint32"},{"name":"isDelinquent","type":"bool","internalType":"bool"},{"name":"timeDelinquent","type":"uint32","internalType":"uint32"},{"name":"protocolFeeBips","type":"uint16","internalType":"uint16"},{"name":"annualInterestBips","type":"uint16","internalType":"uint16"},{"name":"reserveRatioBips","type":"uint16","internalType":"uint16"},{"name":"scaleFactor","type":"uint112","internalType":"uint112"},{"name":"lastInterestAccruedTimestamp","type":"uint32","internalType":"uint32"}]},{"name":"","type":"bytes","internalType":"bytes"}],"outputs":[],"stateMutability":"nonpayable"},{"type":"function","name":"onSetProtocolFeeBips","inputs":[{"name":"","type":"uint16","internalType":"uint16"},{"name":"","type":"tuple","internalType":"struct MarketState","components":[{"name":"isClosed","type":"bool","internalType":"bool"},{"name":"maxTotalSupply","type":"uint128","internalType":"uint128"},{"name":"accruedProtocolFees","type":"uint128","internalType":"uint128"},{"name":"normalizedUnclaimedWithdrawals","type":"uint128","internalType":"uint128"},{"name":"scaledTotalSupply","type":"uint104","internalType":"uint104"},{"name":"scaledPendingWithdrawals","type":"uint104","internalType":"uint104"},{"name":"pendingWithdrawalExpiry","type":"uint32","internalType":"uint32"},{"name":"isDelinquent","type":"bool","internalType":"bool"},{"name":"timeDelinquent","type":"uint32","internalType":"uint32"},{"name":"protocolFeeBips","type":"uint16","internalType":"uint16"},{"name":"annualInterestBips","type":"uint16","internalType":"uint16"},{"name":"reserveRatioBips","type":"uint16","internalType":"uint16"},{"name":"scaleFactor","type":"uint112","internalType":"uint112"},{"name":"lastInterestAccruedTimestamp","type":"uint32","internalType":"uint32"}]},{"name":"","type":"bytes","internalType":"bytes"}],"outputs":[],"stateMutability":"nonpayable"},{"type":"function","name":"onTransfer","inputs":[{"name":"","type":"address","internalType":"address"},{"name":"","type":"address","internalType":"address"},{"name":"to","type":"address","internalType":"address"},{"name":"","type":"uint256","internalType":"uint256"},{"name":"","type":"tuple","internalType":"struct MarketState","components":[{"name":"isClosed","type":"bool","internalType":"bool"},{"name":"maxTotalSupply","type":"uint128","internalType":"uint128"},{"name":"accruedProtocolFees","type":"uint128","internalType":"uint128"},{"name":"normalizedUnclaimedWithdrawals","type":"uint128","internalType":"uint128"},{"name":"scaledTotalSupply","type":"uint104","internalType":"uint104"},{"name":"scaledPendingWithdrawals","type":"uint104","internalType":"uint104"},{"name":"pendingWithdrawalExpiry","type":"uint32","internalType":"uint32"},{"name":"isDelinquent","type":"bool","internalType":"bool"},{"name":"timeDelinquent","type":"uint32","internalType":"uint32"},{"name":"protocolFeeBips","type":"uint16","internalType":"uint16"},{"name":"annualInterestBips","type":"uint16","internalType":"uint16"},{"name":"reserveRatioBips","type":"uint16","internalType":"uint16"},{"name":"scaleFactor","type":"uint112","internalType":"uint112"},{"name":"lastInterestAccruedTimestamp","type":"uint32","internalType":"uint32"}]},{"name":"extraData","type":"bytes","internalType":"bytes"}],"outputs":[],"stateMutability":"nonpayable"},{"type":"function","name":"removeRoleProvider","inputs":[{"name":"providerAddress","type":"address","internalType":"address"}],"outputs":[],"stateMutability":"nonpayable"},{"type":"function","name":"revokeRole","inputs":[{"name":"account","type":"address","internalType":"address"}],"outputs":[],"stateMutability":"nonpayable"},{"type":"function","name":"setMinimumDeposit","inputs":[{"name":"market","type":"address","internalType":"address"},{"name":"newMinimumDeposit","type":"uint128","internalType":"uint128"}],"outputs":[],"stateMutability":"nonpayable"},{"type":"function","name":"temporaryExcessReserveRatio","inputs":[{"name":"","type":"address","internalType":"address"}],"outputs":[{"name":"originalAnnualInterestBips","type":"uint16","internalType":"uint16"},{"name":"originalReserveRatioBips","type":"uint16","internalType":"uint16"},{"name":"expiry","type":"uint32","internalType":"uint32"}],"stateMutability":"view"},{"type":"function","name":"unblockFromDeposits","inputs":[{"name":"account","type":"address","internalType":"address"}],"outputs":[],"stateMutability":"nonpayable"},{"type":"function","name":"version","inputs":[],"outputs":[{"name":"","type":"string","internalType":"string"}],"stateMutability":"pure"},{"type":"event","name":"AccountAccessGranted","inputs":[{"name":"providerAddress","type":"address","indexed":true,"internalType":"address"},{"name":"accountAddress","type":"address","indexed":true,"internalType":"address"},{"name":"credentialTimestamp","type":"uint32","indexed":false,"internalType":"uint32"}],"anonymous":false},{"type":"event","name":"AccountAccessRevoked","inputs":[{"name":"accountAddress","type":"address","indexed":true,"internalType":"address"}],"anonymous":false},{"type":"event","name":"AccountBlockedFromDeposits","inputs":[{"name":"accountAddress","type":"address","indexed":true,"internalType":"address"}],"anonymous":false},{"type":"event","name":"AccountMadeFirstDeposit","inputs":[{"name":"accountAddress","type":"address","indexed":true,"internalType":"address"}],"anonymous":false},{"type":"event","name":"AccountUnblockedFromDeposits","inputs":[{"name":"accountAddress","type":"address","indexed":true,"internalType":"address"}],"anonymous":false},{"type":"event","name":"MinimumDepositUpdated","inputs":[{"name":"market","type":"address","indexed":false,"internalType":"address"},{"name":"newMinimumDeposit","type":"uint128","indexed":false,"internalType":"uint128"}],"anonymous":false},{"type":"event","name":"RoleProviderAdded","inputs":[{"name":"providerAddress","type":"address","indexed":true,"internalType":"address"},{"name":"timeToLive","type":"uint32","indexed":false,"internalType":"uint32"},{"name":"pullProviderIndex","type":"uint24","indexed":false,"internalType":"uint24"}],"anonymous":false},{"type":"event","name":"RoleProviderRemoved","inputs":[{"name":"providerAddress","type":"address","indexed":true,"internalType":"address"},{"name":"pullProviderIndex","type":"uint24","indexed":false,"internalType":"uint24"}],"anonymous":false},{"type":"event","name":"RoleProviderUpdated","inputs":[{"name":"providerAddress","type":"address","indexed":true,"internalType":"address"},{"name":"timeToLive","type":"uint32","indexed":false,"internalType":"uint32"},{"name":"pullProviderIndex","type":"uint24","indexed":false,"internalType":"uint24"}],"anonymous":false},{"type":"event","name":"TemporaryExcessReserveRatioActivated","inputs":[{"name":"market","type":"address","indexed":true,"internalType":"address"},{"name":"originalReserveRatioBips","type":"uint256","indexed":false,"internalType":"uint256"},{"name":"temporaryReserveRatioBips","type":"uint256","indexed":false,"internalType":"uint256"},{"name":"temporaryReserveRatioExpiry","type":"uint256","indexed":false,"internalType":"uint256"}],"anonymous":false},{"type":"event","name":"TemporaryExcessReserveRatioCanceled","inputs":[{"name":"market","type":"address","indexed":true,"internalType":"address"}],"anonymous":false},{"type":"event","name":"TemporaryExcessReserveRatioExpired","inputs":[{"name":"market","type":"address","indexed":true,"internalType":"address"}],"anonymous":false},{"type":"event","name":"TemporaryExcessReserveRatioUpdated","inputs":[{"name":"market","type":"address","indexed":true,"internalType":"address"},{"name":"originalReserveRatioBips","type":"uint256","indexed":false,"internalType":"uint256"},{"name":"temporaryReserveRatioBips","type":"uint256","indexed":false,"internalType":"uint256"},{"name":"temporaryReserveRatioExpiry","type":"uint256","indexed":false,"internalType":"uint256"}],"anonymous":false},{"type":"error","name":"AnnualInterestBipsOutOfBounds","inputs":[]},{"type":"error","name":"CallerNotBorrower","inputs":[]},{"type":"error","name":"CallerNotFactory","inputs":[]},{"type":"error","name":"DelinquencyFeeBipsOutOfBounds","inputs":[]},{"type":"error","name":"DelinquencyGracePeriodOutOfBounds","inputs":[]},{"type":"error","name":"DepositBelowMinimum","inputs":[]},{"type":"error","name":"GrantedCredentialExpired","inputs":[]},{"type":"error","name":"InvalidArrayLength","inputs":[]},{"type":"error","name":"InvalidCredentialReturned","inputs":[]},{"type":"error","name":"NotApprovedLender","inputs":[]},{"type":"error","name":"NotHookedMarket","inputs":[]},{"type":"error","name":"ProviderCanNotReplaceCredential","inputs":[]},{"type":"error","name":"ProviderCanNotRevokeCredential","inputs":[]},{"type":"error","name":"ProviderNotFound","inputs":[]},{"type":"error","name":"ReserveRatioBipsOutOfBounds","inputs":[]},{"type":"error","name":"WithdrawalBatchDurationOutOfBounds","inputs":[]}],"bytecode":{"object":"0x60e060405234801561000f575f80fd5b5060405161338038038061338083398101604081905261002e91610098565b50336080526001600160a01b03811660a08190525f908152600460205260409081902091901b7fffffffff0000000000000000000000000000000000000000ffffff00000000001790556240d00060c052610161565b634e487b7160e01b5f52604160045260245ffd5b5f80604083850312156100a9575f80fd5b82516001600160a01b03811681146100bf575f80fd5b60208401519092506001600160401b03808211156100db575f80fd5b818501915085601f8301126100ee575f80fd5b81518181111561010057610100610084565b604051601f8201601f19908116603f0116810190838211818310171561012857610128610084565b81604052828152886020848701011115610140575f80fd5b8260208601602083015e5f6020848301015280955050505050509250929050565b60805160a05160c0516131bd6101c35f395f818161041701526118cf01525f818161043e0152818161074f0152818161090801528181610f54015281816112c40152818161141801526117aa01525f818161067c0152610b1c01526131bd5ff3fe608060405234801561000f575f80fd5b50600436106101e7575f3560e01c80638adfe0f811610109578063aa9486891161009e578063c45a01551161006e578063c45a015514610677578063cc4526421461069e578063ea5b13bd146106cc578063feb368e2146106df575f80fd5b8063aa948689146105a4578063b037096d146105b7578063b1cfda0d1461048b578063bfd269be1461064f575f80fd5b80639ecc64e6116100d95780639ecc64e6146104e2578063a018f90e146104f5578063a11ef06714610508578063a9ff2dbf14610567575f80fd5b80638adfe0f8146104995780638b3ce9b3146104ac5780638f8ef419146104ba5780639d2a76fe146104cf575f80fd5b806354fd4d501161017f5780637df1f1b91161014f5780637df1f1b91461043957806380e52e3f1461047857806383d9e1eb1461048b578063849da1291461048b575f80fd5b806354fd4d50146103ad5780635aeb713f146103ec5780636b2b369b146103ff57806379502c5514610412575f80fd5b806328fd0307116101ba57806328fd0307146102895780632970403d146102aa5780632ccf4667146102bf5780633521cccc1461039a575f80fd5b806303473d8d146101eb578063064ed53b146102015780631c4b36941461021457806322a4a19f14610227575b5f80fd5b6101ff6101f93660046128f0565b50505050565b005b6101ff61020f366004612a6e565b610744565b6101ff610222366004612a87565b6108fd565b61023a610235366004612a6e565b6109ee565b60405161028091908151151581526020808301516001600160a01b03169082015260408083015115159082015260609182015163ffffffff169181019190915260800190565b60405180910390f35b61029c610297366004612ab8565b610b10565b604051908152602001610280565b6101ff6102b8366004612b57565b5050505050565b6103586102cd366004612a6e565b604080516080810182525f808252602082018190529181018290526060810191909152506001600160a01b03165f908152600560209081526040918290208251608081018452905460ff8082161515835261010082048116151593830193909352620100008104909216151592810192909252630100000090046001600160801b0316606082015290565b60405161028091908151151581526020808301511515908201526040808301511515908201526060918201516001600160801b03169181019190915260800190565b6101ff6103a8366004612bba565b610b73565b60408051808201825260208082527f53696e676c65426f72726f776572416363657373436f6e74726f6c486f6f6b739082015290516102809190612c37565b6101ff6103fa366004612c6c565b610c21565b6101ff61040d366004612ca0565b610dc7565b61029c7f000000000000000000000000000000000000000000000000000000000000000081565b6104607f000000000000000000000000000000000000000000000000000000000000000081565b6040516001600160a01b039091168152602001610280565b6101ff610486366004612a6e565b610dff565b6101ff6101f9366004612cc8565b6101ff6104a7366004612a6e565b610f49565b6101ff6101f9366004612d09565b6104c2611048565b6040516102809190612d35565b6101ff6104dd366004612e0e565b61109e565b6101ff6104f0366004612ec8565b505050565b6101ff610503366004612f1a565b61113d565b60408051610140810182525f8082528183018190526080820181905260c082018190526101008201526276a70060208201526127106060820181905260a082018190526301e1338060e083015261012082015290516102809190612fa7565b61059461057536600461307d565b600260209081525f928352604080842090915290825290205460ff1681565b6040519015158152602001610280565b6101ff6105b2366004612a6e565b6112b9565b61023a6105c5366004612a6e565b604080516080810182525f808252602082018190529181018290526060810191909152506001600160a01b039081165f908152600160209081526040918290208251608081018452905460ff80821615158352610100820490951692820192909252600160a81b8204909316151591830191909152600160b01b900463ffffffff16606082015290565b61029c61065d366004612a6e565b6001600160a01b03165f9081526004602052604090205490565b6104607f000000000000000000000000000000000000000000000000000000000000000081565b6106b16106ac3660046130a5565b6113ef565b6040805161ffff938416815292909116602083015201610280565b6101ff6106da366004612ca0565b61140d565b61071d6106ed366004612a6e565b5f6020819052908152604090205461ffff8082169162010000810490911690640100000000900463ffffffff1683565b6040805161ffff948516815293909216602084015263ffffffff1690820152606001610280565b336001600160a01b037f0000000000000000000000000000000000000000000000000000000000000000161461078d57604051633c698d7960e01b815260040160405180910390fd5b6001600160a01b038181165f908152600160209081526040918290208251608081018452905460ff80821615158352610100820490951692820192909252600160a81b8204909316151591830191909152600160b01b900463ffffffff16606082018190521561083f575f604082018190526060820181905260208201526040516001600160a01b038316907f47695aa96e09db0d106b9bd402979d6aff7e51ada06ec6fe014e5eeadd8c1dc0905f90a25b60018082526001600160a01b038084165f8181526020938452604080822086518154968801518389015160608a015163ffffffff16600160b01b0263ffffffff60b01b19911515600160a81b029190911664ffffffffff60a81b199290981661010002610100600160a81b0319931515939093166001600160a81b0319909916989098179190911716949094179490941790925591517f25b0d1830e0d487402e2c828de3ccbc9d16bd911aaec75fbba1bffd32657fad49190a25050565b336001600160a01b037f0000000000000000000000000000000000000000000000000000000000000000161461094657604051633c698d7960e01b815260040160405180910390fd5b6001600160a01b0382165f908152600560205260409020805460ff1661097f5760405163b217907b60e01b815260040160405180910390fd5b80546301000000600160981b03191663010000006001600160801b038416908102919091178255604080516001600160a01b038616815260208101929092527f4e39f53293455dca8fe1725b2dfcbe6abd2f44d777b7f2a7279526e17d7ebede910160405180910390a1505050565b60408051608080820183525f808352602080840182905283850182905260609384018290526001600160a01b0386811683526001825291859020855193840186525460ff80821615158552610100820490931691840191909152600160a81b8104909116151593820193909352600160b01b90920463ffffffff169082018190525f199015610af4576020828101516001600160a01b03165f908152600490915260409020548015610ade57610aa48382611660565b15610ab0575050919050565b826040015115610ade57610ac583828661168a565b15610ad1575050919050565b62ffffff602882901c1691505b5f60408401819052606084018190526020840152505b610aff828483611735565b15610b0a5750919050565b50919050565b5f336001600160a01b037f00000000000000000000000000000000000000000000000000000000000000001614610b5a5760405163a84178ab60e01b815260040160405180910390fd5b610b678686868686611799565b90505b95945050505050565b6001600160a01b038681165f8181526001602090815260408083208151608081018352905460ff80821615158352610100820490971682850152600160a81b81048716151582840152600160b01b900463ffffffff16606082015293835260028252808320338452909152902054909116158015610bfa5750610bf8818885856119a4565b155b15610c185760405163728522e760e11b815260040160405180910390fd5b50505050505050565b335f908152600560209081526040918290208251608081018452905460ff8082161515808452610100830482161515948401949094526201000082041615159382019390935263010000009092046001600160801b03166060830152610c9a5760405163b217907b60e01b815260040160405180910390fd5b6001600160a01b038681165f908152600160209081526040918290208251608081018452905460ff8082161580158452610100830490961693830193909352600160a81b8104909216151592810192909252600160b01b900463ffffffff16606082015290610d1c5760405163728522e760e11b815260040160405180910390fd5b5f610d42610d326101a0880161018089016130d1565b88906001600160701b03166119cd565b90508083606001516001600160801b03161115610d725760405163c24b1b6160e01b815260040160405180910390fd5b5f80610d80848b8989611a1d565b60408701519193509150151582151615610dad5760405163728522e760e11b815260040160405180910390fd5b610dbb848b84846001611b35565b50505050505050505050565b335f9081526004602052604090205480610df45760405163b1cd090360e01b815260040160405180910390fd5b6104f0818484611d04565b6001600160a01b038181165f908152600160209081526040918290208251608081018452905460ff808216151583526101008204909516928201839052600160a81b8104909416151592810192909252600160b01b90920463ffffffff166060820152903314610e8257604051633a364f3d60e01b815260040160405180910390fd5b5f60408281018281526060840183815260208086018581526001600160a01b038881168088526001909352858720885181549351965195516001600160a81b0319909416901515610100600160a81b0319161761010096909216959095021764ffffffffff60a81b1916600160a81b9315159390930263ffffffff60b01b191692909217600160b01b63ffffffff9093169290920291909117909155905190917f47695aa96e09db0d106b9bd402979d6aff7e51ada06ec6fe014e5eeadd8c1dc091a25050565b336001600160a01b037f00000000000000000000000000000000000000000000000000000000000000001614610f9257604051633c698d7960e01b815260040160405180910390fd5b6001600160a01b0381165f9081526004602052604090205480610fc85760405163b1cd090360e01b815260040160405180910390fd5b6001600160a01b0382165f818152600460205260408120557f096f563e3528747c50a40c54ef564a28b9321ffc1c310e29a97f067e06f59aad602883901c62ffffff1660405162ffffff909116815260200160405180910390a262ffffff602882901c81161461104457611044602882901c62ffffff16611e34565b5050565b6060600380548060200260200160405190810160405280929190818152602001828054801561109457602002820191905f5260205f20905b815481526020019060010190808311611080575b5050505050905090565b335f90815260046020526040902054806110cb5760405163b1cd090360e01b815260040160405180910390fd5b81518351146110ed57604051634ec4810560e11b815260040160405180910390fd5b5f5b83518110156101f9576111358285838151811061110e5761110e6130ea565b6020026020010151858481518110611128576111286130ea565b6020026020010151611d04565b6001016110ef565b335f908152600560209081526040918290208251608081018452905460ff8082161515808452610100830482161515948401949094526201000082041615159382019390935263010000009092046001600160801b031660608301526111b65760405163b217907b60e01b815260040160405180910390fd5b6001600160a01b0386165f90815260026020908152604080832033845290915290205460ff166112af576001600160a01b038681165f908152600160209081526040918290208251608081018452905460ff8082161580158452610100830490961693830193909352600160a81b8104909216151592810192909252600160b01b900463ffffffff166060820152906112625760405163728522e760e11b815260040160405180910390fd5b5f80611270838a8888611a1d565b6020860151919350915015158215161561129d5760405163728522e760e11b815260040160405180910390fd5b6112ab838a84846001611b35565b5050505b5050505050505050565b336001600160a01b037f0000000000000000000000000000000000000000000000000000000000000000161461130257604051633c698d7960e01b815260040160405180910390fd5b6001600160a01b038181165f818152600160208181526040808420815160808101835281546101008082048a1683870190815260ff600160a81b808504919091161515858801908152600160b01b80860463ffffffff908116606089019081528d89528e8e529b909a528651935191519a516001600160a81b0319909616931515610100600160a81b031916939093179c169092029a909a1764ffffffffff60a81b19169615150263ffffffff60b01b1916959095179490931690960292909217909455517f7201a4017f7e2ac3b7164275daef1150d8fc64543b3f7196293722db50bc7fa09190a25050565b5f806113fe8787878787611f7b565b915091505b9550959350505050565b336001600160a01b037f0000000000000000000000000000000000000000000000000000000000000000161461145657604051633c698d7960e01b815260040160405180910390fd5b6001600160a01b0382165f90815260046020526040902054806115a8575f836001600160a01b031663256909f16040518163ffffffff1660e01b8152600401602060405180830381865afa1580156114b0573d5f803e3d5ffd5b505050506040513d601f19601f820116820180604052508101906114d491906130fe565b90506115148385836114fa5760e09190911b60409190911b1767ffffff00000000001790565b60035460e09290921b60409190911b1760289190911b1790565b9150801561155157600380546001810182555f919091527fc2575a0e9e593c00f959f8c92f12db2869c3395a3b0502d05e2516446f71f85b018290555b6040805163ffffffff8516815262ffffff602885901c16602082015281516001600160a01b038716927fbe2909d8cc20d11ba19a80df9673ad2fd54f3d18592c03aa1413fc921e185b0b928290030190a250611641565b6001600160e01b03811660e083901b17905062ffffff602882901c81169081146115f1578160038262ffffff16815481106115e5576115e56130ea565b5f918252602090912001555b6040805163ffffffff8516815262ffffff831660208201526001600160a01b038616917f0c641c0a4b692db5a80ac5db2cdc5d138e9878e3a42907e4ca46377d45e820f0910160405180910390a2505b6001600160a01b039092165f9081526004602052604090209190915550565b5f4261167f846060015163ffffffff16846122f090919063ffffffff16565b101590505b92915050565b5f80604084901c6001600160a01b031663ccdad14b5f818152602086815292935091826024601c865afa601f3d1116156116c95763ffffffff5f511691505b63ffffffff821615806116e15750428263ffffffff16115b156116f1575f935050505061172e565b426117058763ffffffff808616906122f016565b1061172a5761171e878763ffffffff8086169061231016565b6001935050505061172e565b5050505b9392505050565b6003545f90815b8181101561179057808414611788575f6003828154811061175f5761175f6130ea565b905f5260205f200154905061177587828861168a565b15611786576001935050505061172e565b505b60010161173c565b50509392505050565b5f6117a78686868686612343565b507f00000000000000000000000000000000000000000000000000000000000000006001600160a01b0316866001600160a01b0316146117fa57604051633c698d7960e01b815260040160405180910390fd5b506101208301355f602083900361185a5750604080516001600160a01b038716815284356001600160801b0381166020830152917f4e39f53293455dca8fe1725b2dfcbe6abd2f44d777b7f2a7279526e17d7ebede910160405180910390a15b5f60405180608001604052806001151581526020016118788561239f565b15158152602001611888856123ad565b15158152602001611898846123bb565b6001600160801b0316905290506118ae836123d5565b156118bd576009605c1b831792505b6bffffffffffffffffffffffff1983167f0000000000000000000000000000000000000000000000000000000000000000601081901c605086811c90921617901b61ffff60501b16176001600160a01b039097165f908152600560209081526040918290208351815492850151938501516060909501516001600160801b03166301000000026301000000600160981b031995151562010000029590951672ffffffffffffffffffffffffffffffffff0000199415156101000261ff00199215159290921661ffff1990941693909317179290921617919091179055509395945050505050565b5f806119b286868686611a1d565b90925090506119c4868684845f611b35565b50949350505050565b5f81156b019d971e4fe8401e7400000019839004841115176119fb57634e487b715f5260116020526024601cfd5b506b033b2e3c9fd0803ce800000091026b019d971e4fe8401e74000000010490565b5f805f611a33876060015163ffffffff16151590565b611a3d575f611a5b565b6020808801516001600160a01b03165f908152600490915260409020545b90508015158015611a715750611a718782611660565b15611a835760015f9250925050611b2c565b611a8f878787876123e3565b15611aa1576001809250925050611b2c565b5f198115158015611ab3575087604001515b15611ae257611ac388838961168a565b15611ad657600180935093505050611b2c565b5062ffffff602882901c165b611aed888883611735565b15611b0057600180935093505050611b2c565b606088015163ffffffff1615611b29575f60408901819052606089018190526020890152600192505b50505b94509492505050565b8115611bd9578215611ba557836001600160a01b031685602001516001600160a01b03167fa04eb478c9c6a13a6de14b7eb31b1b629511e804c3cfef31bd549accd4b155248760600151604051611b98919063ffffffff91909116815260200190565b60405180910390a3611bd9565b6040516001600160a01b038516907f47695aa96e09db0d106b9bd402979d6aff7e51ada06ec6fe014e5eeadd8c1dc0905f90a25b6001600160a01b0384165f908152600260209081526040808320338452909152902054611c0f9060ff1615821515851615151690565b15611c68576001600160a01b0384165f818152600260209081526040808320338452909152808220805460ff19166001179055517f69da6af30334fddc87acb34f52a47c7548a48aeee9ec3b0a5eef11539c0dce019190a25b81156102b8575050506001600160a01b039081165f908152600160209081526040918290208451815492860151938601516060909601516001600160a81b0319909316901515610100600160a81b0319161761010093909416929092029290921764ffffffffff60a81b1916600160a81b9315159390930263ffffffff60b01b191692909217600160b01b63ffffffff90921691909102179055565b6001600160a01b038083165f9081526001602090815260408083208151608081018352905460ff80821615158352610100820490961693820193909352600160a81b830490941615159084015263ffffffff600160b01b90910481166060840152611d75908690858116906122f016565b905042811015611d9857604051635a922a2f60e01b815260040160405180910390fd5b606082015163ffffffff1615611e28576020828101516001600160a01b03165f908152600490915260409020548015611e26575f611de9846060015163ffffffff16836122f090919063ffffffff16565b6020850151909150611e07906001600160a01b031633148285111790565b611e245760405163601fd52b60e11b815260040160405180910390fd5b505b505b6102b882868686612458565b6003545f90611e459060019061312d565b9050808262ffffff1603611e7b576003805480611e6457611e64613140565b600190038181905f5260205f20015f905590555050565b5f611eaa8360038481548110611e9357611e936130ea565b905f5260205f20015461254e90919063ffffffff16565b90508060038462ffffff1681548110611ec557611ec56130ea565b5f918252602090912001556003805480611ee157611ee1613140565b600190038181905f5260205f20015f905590555f611f0b826001600160a01b0360409190911c1690565b6001600160a01b0381165f8181526004602052604090208490559091507f0c641c0a4b692db5a80ac5db2cdc5d138e9878e3a42907e4ca46377d45e820f0611f538460e01c90565b6040805163ffffffff909216825262ffffff881660208301520160405180910390a250505050565b5f8086611f9061018087016101608801613154565b909250905033611faf61ffff89165f612710633a73673b60e11b612563565b6001600160a01b0381165f90815260208181526040918290208251606081018452905461ffff8082168352620100008204169282019290925264010000000090910463ffffffff1691810182905290156120fa5760408101515f906120389063ffffffff164210156120296101608b016101408c01613154565b61ffff908116908d1610151690565b825190915061ffff908116908b1610158115158117156120f7578115612090576040516001600160a01b038516907f145c143a918203cecb36063a1d70980ebb42b5b00490c5510d79c9d7717b77bb905f90a26120c4565b6040516001600160a01b038516907f2045c970b5c1a8f9b69dd33e70a1f9d07b9021e408716d5b8daeb83a776ea05f905f90a25b50506001600160a01b039091165f90815260208181526040909120805467ffffffffffffffff1916905501519050611403565b50505b5f80826040015163ffffffff165f14612119578251602084015161213d565b61212b6101608a016101408b01613154565b61213d6101808b016101608c01613154565b915091508161ffff168b61ffff1610156122e2575f6121698c61ffff168461ffff168461ffff16612577565b90505f612179426212750061316d565b9050846040015163ffffffff165f036121f6576040805161ffff85811682528416602082015263ffffffff83168183015290516001600160a01b038816917f16f9a191ecd86fd97f0ddc3dbed8fdc4d1e0d0644b93db99f8a577f52b0dec43919081900360600190a261ffff808516865283166020860152612274565b6122086101608c016101408d01613154565b61ffff168d61ffff161061221d575060408401515b6040805161ffff85811682528416602082015263ffffffff83168183015290516001600160a01b038816917ff813e17e21ecee3918b028c4e02f15f1fdd045f9f63183b6ab4f42c23c97b321919081900360600190a25b63ffffffff90811660408087019182526001600160a01b0388165f9081526020818152919020875181549289015193519094166401000000000267ffffffff000000001961ffff948516620100000263ffffffff199094169490951693909317919091179290921617905594505b505050509550959350505050565b5f61172e6122fe8460e01c90565b839063ffffffff908116906125d18116565b63ffffffff166060830152604081811c6001600160a01b0316602084015262ffffff60289290921c821690911415910152565b5f610b6a61235760a0860160808701613154565b61236760c0870160a08801613154565b61237760e0880160c08901613180565b612388610100890160e08a01613154565b61239a6101208a016101008b01613180565b6125df565b5f61168482605c1c60011690565b5f61168482605f1c60011690565b806123d06001600160801b0382168214612663565b919050565b5f61168482605e1c60011690565b5f601482900361243857823560601c5f818152600460205260409020548015801590612418575062ffffff602882901c811614155b156124315761242887828861168a565b92505050612450565b5050612450565b60148211156124505761244d8585858561267d565b90505b949350505050565b61246c848463ffffffff8085169061231016565b6001600160a01b038281165f8181526001602090815260409182902088518154928a01518a85015160608c01516001600160a81b0319909516921515610100600160a81b03191692909217610100918816919091021764ffffffffff60a81b1916600160a81b9115159190910263ffffffff60b01b191617600160b01b63ffffffff9093169290920291909117905590919085901c1660405163ffffffff841681526001600160a01b0391909116907fa04eb478c9c6a13a6de14b7eb31b1b629511e804c3cfef31bd549accd4b155249060200160405180910390a350505050565b60281b67ffffff000000000019919091161790565b81841183851017156101f957805f5260045ffd5b5f8061258f612710612589878761312d565b86612776565b90506109c481116125a2578291506125c9565b5f6125b96127106125b4846002613199565b61279a565b90506125c581856127a9565b9250505b509392505050565b910181811090829003020190565b6125f861ffff86165f612710633a73673b60e11b612563565b61261161ffff85165f6127106367e9111d60e11b612563565b61262e63ffffffff84165f6301e1338063772de36160e01b612563565b61264761ffff83165f61271063c7f3bbb960e01b612563565b6102b863ffffffff82165f6276a700632136673760e01b612563565b8061267a57634e487b715f5260116020526024601cfd5b50565b813560601c5f8181526004602052604081205490916354560cb291806126a8575f9350505050612450565b5f8063c177c70060e01b60e01c63ffffffff169050601488016040518681528a6020820152604080820152601489038060608301528083608084013760205f60648301601c85015f8b5af11561271e5760203d10600181146127135763ffffffff5f5116955061271c565b845f526004601cfd5b505b505050815f148061272e57504282115b15612740575f95505050505050612450565b4261274b84846122f0565b106127695761275b8a8484612310565b600195505050505050612450565b5050505050949350505050565b5f825f1904841183021582026127935763ad251c275f526004601cfd5b5091020490565b5f81830382841002820161172e565b5f82820382841002830161172e565b803561ffff811681146123d0575f80fd5b634e487b7160e01b5f52604160045260245ffd5b6040516101c0810167ffffffffffffffff81118282101715612801576128016127c9565b60405290565b604051601f8201601f1916810167ffffffffffffffff81118282101715612830576128306127c9565b604052919050565b801515811461267a575f80fd5b80356123d081612838565b80356001600160801b03811681146123d0575f80fd5b80356cffffffffffffffffffffffffff811681146123d0575f80fd5b803563ffffffff811681146123d0575f80fd5b80356001600160701b03811681146123d0575f80fd5b5f8083601f8401126128bb575f80fd5b50813567ffffffffffffffff8111156128d2575f80fd5b6020830191508360208285010111156128e9575f80fd5b9250929050565b5f805f80848603610200811215612905575f80fd5b61290e866127b8565b94506101c080601f1983011215612923575f80fd5b61292b6127dd565b915061293960208801612845565b825261294760408801612850565b602083015261295860608801612850565b604083015261296960808801612850565b606083015261297a60a08801612866565b608083015261298b60c08801612866565b60a083015261299c60e08801612882565b60c08301526101006129af818901612845565b60e08401526101206129c2818a01612882565b8285015261014091506129d6828a016127b8565b908401526101606129e88982016127b8565b8285015261018091506129fc828a016127b8565b908401526101a0612a0e898201612895565b82850152612a1d838a01612882565b9084015250909350506101e085013567ffffffffffffffff811115612a40575f80fd5b612a4c878288016128ab565b95989497509550505050565b80356001600160a01b03811681146123d0575f80fd5b5f60208284031215612a7e575f80fd5b61172e82612a58565b5f8060408385031215612a98575f80fd5b612aa183612a58565b9150612aaf60208401612850565b90509250929050565b5f805f805f60808688031215612acc575f80fd5b612ad586612a58565b9450612ae360208701612a58565b9350604086013567ffffffffffffffff80821115612aff575f80fd5b90870190610140828a031215612b13575f80fd5b90935060608701359080821115612b28575f80fd5b50612b35888289016128ab565b969995985093965092949392505050565b5f6101c08284031215610b0a575f80fd5b5f805f805f6102208688031215612b6c575f80fd5b612b7586612a58565b9450612b8360208701612850565b9350612b928760408801612b46565b925061020086013567ffffffffffffffff811115612bae575f80fd5b612b35888289016128ab565b5f805f805f806102408789031215612bd0575f80fd5b612bd987612a58565b9550612be760208801612882565b945060408701359350612bfd8860608901612b46565b925061022087013567ffffffffffffffff811115612c19575f80fd5b612c2589828a016128ab565b979a9699509497509295939492505050565b602081525f82518060208401528060208501604085015e5f604082850101526040601f19601f83011684010191505092915050565b5f805f805f6102208688031215612c81575f80fd5b612c8a86612a58565b945060208601359350612b928760408801612b46565b5f8060408385031215612cb1575f80fd5b612cba83612a58565b9150612aaf60208401612882565b5f805f806102008587031215612cdc575f80fd5b84359350612ced8660208701612b46565b92506101e085013567ffffffffffffffff811115612a40575f80fd5b5f805f806102008587031215612d1d575f80fd5b612d2685612a58565b9350612ced8660208701612b46565b602080825282518282018190525f9190848201906040850190845b81811015612d6c57835183529284019291840191600101612d50565b50909695505050505050565b5f67ffffffffffffffff821115612d9157612d916127c9565b5060051b60200190565b5f82601f830112612daa575f80fd5b81356020612dbf612dba83612d78565b612807565b8083825260208201915060208460051b870101935086841115612de0575f80fd5b602086015b84811015612e0357612df681612882565b8352918301918301612de5565b509695505050505050565b5f8060408385031215612e1f575f80fd5b823567ffffffffffffffff80821115612e36575f80fd5b818501915085601f830112612e49575f80fd5b81356020612e59612dba83612d78565b82815260059290921b84018101918181019089841115612e77575f80fd5b948201945b83861015612e9c57612e8d86612a58565b82529482019490820190612e7c565b96505086013592505080821115612eb1575f80fd5b50612ebe85828601612d9b565b9150509250929050565b5f805f6101e08486031215612edb575f80fd5b612ee58585612b46565b92506101c084013567ffffffffffffffff811115612f01575f80fd5b612f0d868287016128ab565b9497909650939450505050565b5f805f805f805f610260888a031215612f31575f80fd5b612f3a88612a58565b9650612f4860208901612a58565b9550612f5660408901612a58565b945060608801359350612f6c8960808a01612b46565b925061024088013567ffffffffffffffff811115612f88575f80fd5b612f948a828b016128ab565b989b979a50959850939692959293505050565b815163ffffffff16815261014081016020830151612fcd602084018263ffffffff169052565b506040830151612fe3604084018261ffff169052565b506060830151612ff9606084018261ffff169052565b50608083015161300f608084018261ffff169052565b5060a083015161302560a084018261ffff169052565b5060c083015161303d60c084018263ffffffff169052565b5060e083015161305560e084018263ffffffff169052565b506101008381015161ffff908116918401919091526101209384015116929091019190915290565b5f806040838503121561308e575f80fd5b61309783612a58565b9150612aaf60208401612a58565b5f805f805f61022086880312156130ba575f80fd5b6130c3866127b8565b9450612b83602087016127b8565b5f602082840312156130e1575f80fd5b61172e82612895565b634e487b7160e01b5f52603260045260245ffd5b5f6020828403121561310e575f80fd5b815161172e81612838565b634e487b7160e01b5f52601160045260245ffd5b8181038181111561168457611684613119565b634e487b7160e01b5f52603160045260245ffd5b5f60208284031215613164575f80fd5b61172e826127b8565b8082018082111561168457611684613119565b5f60208284031215613190575f80fd5b61172e82612882565b80820281158282048414176116845761168461311956fea164736f6c6343000819000a","linkReferences":{}},"methodIdentifiers":{"addRoleProvider(address,uint32)":"ea5b13bd","blockFromDeposits(address)":"064ed53b","borrower()":"7df1f1b9","config()":"79502c55","factory()":"c45a0155","getHookedMarket(address)":"2ccf4667","getLenderStatus(address)":"22a4a19f","getParameterConstraints()":"a11ef067","getPreviousLenderStatus(address)":"b037096d","getPullProviders()":"8f8ef419","getRoleProvider(address)":"bfd269be","grantRole(address,uint32)":"6b2b369b","grantRoles(address[],uint32[])":"9d2a76fe","isKnownLenderOnMarket(address,address)":"a9ff2dbf","onBorrow(uint256,(bool,uint128,uint128,uint128,uint104,uint104,uint32,bool,uint32,uint16,uint16,uint16,uint112,uint32),bytes)":"b1cfda0d","onCloseMarket((bool,uint128,uint128,uint128,uint104,uint104,uint32,bool,uint32,uint16,uint16,uint16,uint112,uint32),bytes)":"9ecc64e6","onCreateMarket(address,address,(address,string,string,uint128,uint16,uint16,uint32,uint16,uint32,uint256),bytes)":"28fd0307","onDeposit(address,uint256,(bool,uint128,uint128,uint128,uint104,uint104,uint32,bool,uint32,uint16,uint16,uint16,uint112,uint32),bytes)":"5aeb713f","onExecuteWithdrawal(address,uint128,(bool,uint128,uint128,uint128,uint104,uint104,uint32,bool,uint32,uint16,uint16,uint16,uint112,uint32),bytes)":"2970403d","onNukeFromOrbit(address,(bool,uint128,uint128,uint128,uint104,uint104,uint32,bool,uint32,uint16,uint16,uint16,uint112,uint32),bytes)":"8b3ce9b3","onQueueWithdrawal(address,uint32,uint256,(bool,uint128,uint128,uint128,uint104,uint104,uint32,bool,uint32,uint16,uint16,uint16,uint112,uint32),bytes)":"3521cccc","onRepay(uint256,(bool,uint128,uint128,uint128,uint104,uint104,uint32,bool,uint32,uint16,uint16,uint16,uint112,uint32),bytes)":"83d9e1eb","onSetAnnualInterestAndReserveRatioBips(uint16,uint16,(bool,uint128,uint128,uint128,uint104,uint104,uint32,bool,uint32,uint16,uint16,uint16,uint112,uint32),bytes)":"cc452642","onSetMaxTotalSupply(uint256,(bool,uint128,uint128,uint128,uint104,uint104,uint32,bool,uint32,uint16,uint16,uint16,uint112,uint32),bytes)":"849da129","onSetProtocolFeeBips(uint16,(bool,uint128,uint128,uint128,uint104,uint104,uint32,bool,uint32,uint16,uint16,uint16,uint112,uint32),bytes)":"03473d8d","onTransfer(address,address,address,uint256,(bool,uint128,uint128,uint128,uint104,uint104,uint32,bool,uint32,uint16,uint16,uint16,uint112,uint32),bytes)":"a018f90e","removeRoleProvider(address)":"8adfe0f8","revokeRole(address)":"80e52e3f","setMinimumDeposit(address,uint128)":"1c4b3694","temporaryExcessReserveRatio(address)":"feb368e2","unblockFromDeposits(address)":"aa948689","version()":"54fd4d50"},"id":30}