{"abi":[{"type":"function","name":"$availableLiquidityForPendingBatch","inputs":[{"name":"batch","type":"tuple","internalType":"struct WithdrawalBatch","components":[{"name":"scaledTotalAmount","type":"uint104","internalType":"uint104"},{"name":"scaledAmountBurned","type":"uint104","internalType":"uint104"},{"name":"normalizedAmountPaid","type":"uint128","internalType":"uint128"}]},{"name":"state","type":"tuple","internalType":"struct MarketState","components":[{"name":"isClosed","type":"bool","internalType":"bool"},{"name":"maxTotalSupply","type":"uint128","internalType":"uint128"},{"name":"accruedProtocolFees","type":"uint128","internalType":"uint128"},{"name":"normalizedUnclaimedWithdrawals","type":"uint128","internalType":"uint128"},{"name":"scaledTotalSupply","type":"uint104","internalType":"uint104"},{"name":"scaledPendingWithdrawals","type":"uint104","internalType":"uint104"},{"name":"pendingWithdrawalExpiry","type":"uint32","internalType":"uint32"},{"name":"isDelinquent","type":"bool","internalType":"bool"},{"name":"timeDelinquent","type":"uint32","internalType":"uint32"},{"name":"protocolFeeBips","type":"uint16","internalType":"uint16"},{"name":"annualInterestBips","type":"uint16","internalType":"uint16"},{"name":"reserveRatioBips","type":"uint16","internalType":"uint16"},{"name":"scaleFactor","type":"uint112","internalType":"uint112"},{"name":"lastInterestAccruedTimestamp","type":"uint32","internalType":"uint32"}]},{"name":"totalAssets","type":"uint256","internalType":"uint256"}],"outputs":[{"name":"","type":"uint256","internalType":"uint256"}],"stateMutability":"pure"},{"type":"function","name":"$scaledOwedAmount","inputs":[{"name":"batch","type":"tuple","internalType":"struct WithdrawalBatch","components":[{"name":"scaledTotalAmount","type":"uint104","internalType":"uint104"},{"name":"scaledAmountBurned","type":"uint104","internalType":"uint104"},{"name":"normalizedAmountPaid","type":"uint128","internalType":"uint128"}]}],"outputs":[{"name":"","type":"uint104","internalType":"uint104"}],"stateMutability":"pure"}],"bytecode":{"object":"0x61077d61004d600b8282823980515f1a6073146041577f4e487b71000000000000000000000000000000000000000000000000000000005f525f60045260245ffd5b305f52607381538281f3fe730000000000000000000000000000000000000000301460806040526004361061003f575f3560e01c806332bfefad146100435780633b1bac5114610073575b5f80fd5b61005d60048036038101906100589190610603565b6100a3565b60405161006a9190610664565b60405180910390f35b61008d6004803603810190610088919061067d565b6100b8565b60405161009a91906106b7565b60405180910390f35b5f6100af8484846100c9565b90509392505050565b5f6100c28261016a565b9050919050565b5f806100d48561016a565b8460a001516100e391906106fd565b6cffffffffffffffffffffffffff1690505f84604001516fffffffffffffffffffffffffffffffff1661011f838761018590919063ffffffff16565b86606001516fffffffffffffffffffffffffffffffff16610140919061073d565b61014a919061073d565b905061015f81856101b690919063ffffffff16565b925050509392505050565b5f8160200151825f015161017e91906106fd565b9050919050565b5f6101ae8361018001516dffffffffffffffffffffffffffff16836101c690919063ffffffff16565b905092915050565b5f81830382841102905092915050565b5f816b019d971e4fe8401e740000005f1903048311158215176101f557634e487b715f5260116020526024601cfd5b6b033b2e3c9fd0803ce80000006b019d971e4fe8401e740000008385020104905092915050565b5f604051905090565b5f80fd5b5f80fd5b5f601f19601f8301169050919050565b7f4e487b71000000000000000000000000000000000000000000000000000000005f52604160045260245ffd5b6102738261022d565b810181811067ffffffffffffffff821117156102925761029161023d565b5b80604052505050565b5f6102a461021c565b90506102b0828261026a565b919050565b5f6cffffffffffffffffffffffffff82169050919050565b6102d6816102b5565b81146102e0575f80fd5b50565b5f813590506102f1816102cd565b92915050565b5f6fffffffffffffffffffffffffffffffff82169050919050565b61031b816102f7565b8114610325575f80fd5b50565b5f8135905061033681610312565b92915050565b5f6060828403121561035157610350610229565b5b61035b606061029b565b90505f61036a848285016102e3565b5f83015250602061037d848285016102e3565b602083015250604061039184828501610328565b60408301525092915050565b5f8115159050919050565b6103b18161039d565b81146103bb575f80fd5b50565b5f813590506103cc816103a8565b92915050565b5f63ffffffff82169050919050565b6103ea816103d2565b81146103f4575f80fd5b50565b5f81359050610405816103e1565b92915050565b5f61ffff82169050919050565b6104218161040b565b811461042b575f80fd5b50565b5f8135905061043c81610418565b92915050565b5f6dffffffffffffffffffffffffffff82169050919050565b61046481610442565b811461046e575f80fd5b50565b5f8135905061047f8161045b565b92915050565b5f6101c0828403121561049b5761049a610229565b5b6104a66101c061029b565b90505f6104b5848285016103be565b5f8301525060206104c884828501610328565b60208301525060406104dc84828501610328565b60408301525060606104f084828501610328565b6060830152506080610504848285016102e3565b60808301525060a0610518848285016102e3565b60a08301525060c061052c848285016103f7565b60c08301525060e0610540848285016103be565b60e083015250610100610555848285016103f7565b6101008301525061012061056b8482850161042e565b610120830152506101406105818482850161042e565b610140830152506101606105978482850161042e565b610160830152506101806105ad84828501610471565b610180830152506101a06105c3848285016103f7565b6101a08301525092915050565b5f819050919050565b6105e2816105d0565b81146105ec575f80fd5b50565b5f813590506105fd816105d9565b92915050565b5f805f610240848603121561061b5761061a610225565b5b5f6106288682870161033c565b935050606061063986828701610485565b92505061022061064b868287016105ef565b9150509250925092565b61065e816105d0565b82525050565b5f6020820190506106775f830184610655565b92915050565b5f6060828403121561069257610691610225565b5b5f61069f8482850161033c565b91505092915050565b6106b1816102b5565b82525050565b5f6020820190506106ca5f8301846106a8565b92915050565b7f4e487b71000000000000000000000000000000000000000000000000000000005f52601160045260245ffd5b5f610707826102b5565b9150610712836102b5565b925082820390506cffffffffffffffffffffffffff811115610737576107366106d0565b5b92915050565b5f610747826105d0565b9150610752836105d0565b925082820190508082111561076a576107696106d0565b5b9291505056fea164736f6c6343000819000a","linkReferences":{}},"methodIdentifiers":{"$availableLiquidityForPendingBatch(WithdrawalBatch,MarketState,uint256)":"32bfefad","$scaledOwedAmount(WithdrawalBatch)":"3b1bac51"},"id":137}