{"abi":[{"type":"constructor","inputs":[],"stateMutability":"nonpayable"},{"type":"function","name":"acceptSphereXAdminRole","inputs":[],"outputs":[],"stateMutability":"nonpayable"},{"type":"function","name":"addBlacklist","inputs":[{"name":"asset","type":"address","internalType":"address"}],"outputs":[],"stateMutability":"nonpayable"},{"type":"function","name":"cancelOwnershipHandover","inputs":[],"outputs":[],"stateMutability":"payable"},{"type":"function","name":"changeSphereXEngine","inputs":[{"name":"newSphereXEngine","type":"address","internalType":"address"}],"outputs":[],"stateMutability":"nonpayable"},{"type":"function","name":"changeSphereXOperator","inputs":[{"name":"newSphereXOperator","type":"address","internalType":"address"}],"outputs":[],"stateMutability":"nonpayable"},{"type":"function","name":"completeOwnershipHandover","inputs":[{"name":"pendingOwner","type":"address","internalType":"address"}],"outputs":[],"stateMutability":"payable"},{"type":"function","name":"getBlacklistedAssets","inputs":[],"outputs":[{"name":"","type":"address[]","internalType":"address[]"}],"stateMutability":"view"},{"type":"function","name":"getBlacklistedAssets","inputs":[{"name":"start","type":"uint256","internalType":"uint256"},{"name":"end","type":"uint256","internalType":"uint256"}],"outputs":[{"name":"arr","type":"address[]","internalType":"address[]"}],"stateMutability":"view"},{"type":"function","name":"getBlacklistedAssetsCount","inputs":[],"outputs":[{"name":"","type":"uint256","internalType":"uint256"}],"stateMutability":"view"},{"type":"function","name":"getRegisteredBorrowers","inputs":[],"outputs":[{"name":"","type":"address[]","internalType":"address[]"}],"stateMutability":"view"},{"type":"function","name":"getRegisteredBorrowers","inputs":[{"name":"start","type":"uint256","internalType":"uint256"},{"name":"end","type":"uint256","internalType":"uint256"}],"outputs":[{"name":"arr","type":"address[]","internalType":"address[]"}],"stateMutability":"view"},{"type":"function","name":"getRegisteredBorrowersCount","inputs":[],"outputs":[{"name":"","type":"uint256","internalType":"uint256"}],"stateMutability":"view"},{"type":"function","name":"getRegisteredControllerFactories","inputs":[{"name":"start","type":"uint256","internalType":"uint256"},{"name":"end","type":"uint256","internalType":"uint256"}],"outputs":[{"name":"arr","type":"address[]","internalType":"address[]"}],"stateMutability":"view"},{"type":"function","name":"getRegisteredControllerFactories","inputs":[],"outputs":[{"name":"","type":"address[]","internalType":"address[]"}],"stateMutability":"view"},{"type":"function","name":"getRegisteredControllerFactoriesCount","inputs":[],"outputs":[{"name":"","type":"uint256","internalType":"uint256"}],"stateMutability":"view"},{"type":"function","name":"getRegisteredControllers","inputs":[{"name":"start","type":"uint256","internalType":"uint256"},{"name":"end","type":"uint256","internalType":"uint256"}],"outputs":[{"name":"arr","type":"address[]","internalType":"address[]"}],"stateMutability":"view"},{"type":"function","name":"getRegisteredControllers","inputs":[],"outputs":[{"name":"","type":"address[]","internalType":"address[]"}],"stateMutability":"view"},{"type":"function","name":"getRegisteredControllersCount","inputs":[],"outputs":[{"name":"","type":"uint256","internalType":"uint256"}],"stateMutability":"view"},{"type":"function","name":"getRegisteredMarkets","inputs":[],"outputs":[{"name":"","type":"address[]","internalType":"address[]"}],"stateMutability":"view"},{"type":"function","name":"getRegisteredMarkets","inputs":[{"name":"start","type":"uint256","internalType":"uint256"},{"name":"end","type":"uint256","internalType":"uint256"}],"outputs":[{"name":"arr","type":"address[]","internalType":"address[]"}],"stateMutability":"view"},{"type":"function","name":"getRegisteredMarketsCount","inputs":[],"outputs":[{"name":"","type":"uint256","internalType":"uint256"}],"stateMutability":"view"},{"type":"function","name":"isBlacklistedAsset","inputs":[{"name":"asset","type":"address","internalType":"address"}],"outputs":[{"name":"","type":"bool","internalType":"bool"}],"stateMutability":"view"},{"type":"function","name":"isRegisteredBorrower","inputs":[{"name":"borrower","type":"address","internalType":"address"}],"outputs":[{"name":"","type":"bool","internalType":"bool"}],"stateMutability":"view"},{"type":"function","name":"isRegisteredController","inputs":[{"name":"controller","type":"address","internalType":"address"}],"outputs":[{"name":"","type":"bool","internalType":"bool"}],"stateMutability":"view"},{"type":"function","name":"isRegisteredControllerFactory","inputs":[{"name":"factory","type":"address","internalType":"address"}],"outputs":[{"name":"","type":"bool","internalType":"bool"}],"stateMutability":"view"},{"type":"function","name":"isRegisteredMarket","inputs":[{"name":"market","type":"address","internalType":"address"}],"outputs":[{"name":"","type":"bool","internalType":"bool"}],"stateMutability":"view"},{"type":"function","name":"owner","inputs":[],"outputs":[{"name":"result","type":"address","internalType":"address"}],"stateMutability":"view"},{"type":"function","name":"ownershipHandoverExpiresAt","inputs":[{"name":"pendingOwner","type":"address","internalType":"address"}],"outputs":[{"name":"result","type":"uint256","internalType":"uint256"}],"stateMutability":"view"},{"type":"function","name":"pendingSphereXAdmin","inputs":[],"outputs":[{"name":"","type":"address","internalType":"address"}],"stateMutability":"view"},{"type":"function","name":"registerBorrower","inputs":[{"name":"borrower","type":"address","internalType":"address"}],"outputs":[],"stateMutability":"nonpayable"},{"type":"function","name":"registerController","inputs":[{"name":"controller","type":"address","internalType":"address"}],"outputs":[],"stateMutability":"nonpayable"},{"type":"function","name":"registerControllerFactory","inputs":[{"name":"factory","type":"address","internalType":"address"}],"outputs":[],"stateMutability":"nonpayable"},{"type":"function","name":"registerMarket","inputs":[{"name":"market","type":"address","internalType":"address"}],"outputs":[],"stateMutability":"nonpayable"},{"type":"function","name":"removeBlacklist","inputs":[{"name":"asset","type":"address","internalType":"address"}],"outputs":[],"stateMutability":"nonpayable"},{"type":"function","name":"removeBorrower","inputs":[{"name":"borrower","type":"address","internalType":"address"}],"outputs":[],"stateMutability":"nonpayable"},{"type":"function","name":"removeController","inputs":[{"name":"controller","type":"address","internalType":"address"}],"outputs":[],"stateMutability":"nonpayable"},{"type":"function","name":"removeControllerFactory","inputs":[{"name":"factory","type":"address","internalType":"address"}],"outputs":[],"stateMutability":"nonpayable"},{"type":"function","name":"removeMarket","inputs":[{"name":"market","type":"address","internalType":"address"}],"outputs":[],"stateMutability":"nonpayable"},{"type":"function","name":"renounceOwnership","inputs":[],"outputs":[],"stateMutability":"payable"},{"type":"function","name":"requestOwnershipHandover","inputs":[],"outputs":[],"stateMutability":"payable"},{"type":"function","name":"sphereXAdmin","inputs":[],"outputs":[{"name":"","type":"address","internalType":"address"}],"stateMutability":"view"},{"type":"function","name":"sphereXEngine","inputs":[],"outputs":[{"name":"","type":"address","internalType":"address"}],"stateMutability":"view"},{"type":"function","name":"sphereXOperator","inputs":[],"outputs":[{"name":"","type":"address","internalType":"address"}],"stateMutability":"view"},{"type":"function","name":"transferOwnership","inputs":[{"name":"newOwner","type":"address","internalType":"address"}],"outputs":[],"stateMutability":"payable"},{"type":"function","name":"transferSphereXAdminRole","inputs":[{"name":"newAdmin","type":"address","internalType":"address"}],"outputs":[],"stateMutability":"nonpayable"},{"type":"function","name":"updateSphereXEngineOnRegisteredContracts","inputs":[{"name":"controllerFactories","type":"address[]","internalType":"address[]"},{"name":"controllers","type":"address[]","internalType":"address[]"},{"name":"markets","type":"address[]","internalType":"address[]"}],"outputs":[],"stateMutability":"nonpayable"},{"type":"event","name":"AssetBlacklisted","inputs":[{"name":"asset","type":"address","indexed":false,"internalType":"address"}],"anonymous":false},{"type":"event","name":"AssetPermitted","inputs":[{"name":"asset","type":"address","indexed":false,"internalType":"address"}],"anonymous":false},{"type":"event","name":"BorrowerAdded","inputs":[{"name":"borrower","type":"address","indexed":false,"internalType":"address"}],"anonymous":false},{"type":"event","name":"BorrowerRemoved","inputs":[{"name":"borrower","type":"address","indexed":false,"internalType":"address"}],"anonymous":false},{"type":"event","name":"ChangedSpherexEngineAddress","inputs":[{"name":"oldEngineAddress","type":"address","indexed":false,"internalType":"address"},{"name":"newEngineAddress","type":"address","indexed":false,"internalType":"address"}],"anonymous":false},{"type":"event","name":"ChangedSpherexOperator","inputs":[{"name":"oldSphereXAdmin","type":"address","indexed":false,"internalType":"address"},{"name":"newSphereXAdmin","type":"address","indexed":false,"internalType":"address"}],"anonymous":false},{"type":"event","name":"ControllerAdded","inputs":[{"name":"controllerFactory","type":"address","indexed":true,"internalType":"address"},{"name":"controller","type":"address","indexed":false,"internalType":"address"}],"anonymous":false},{"type":"event","name":"ControllerFactoryAdded","inputs":[{"name":"controllerFactory","type":"address","indexed":false,"internalType":"address"}],"anonymous":false},{"type":"event","name":"ControllerFactoryRemoved","inputs":[{"name":"controllerFactory","type":"address","indexed":false,"internalType":"address"}],"anonymous":false},{"type":"event","name":"ControllerRemoved","inputs":[{"name":"controller","type":"address","indexed":false,"internalType":"address"}],"anonymous":false},{"type":"event","name":"MarketAdded","inputs":[{"name":"controller","type":"address","indexed":true,"internalType":"address"},{"name":"market","type":"address","indexed":false,"internalType":"address"}],"anonymous":false},{"type":"event","name":"MarketRemoved","inputs":[{"name":"market","type":"address","indexed":false,"internalType":"address"}],"anonymous":false},{"type":"event","name":"NewAllowedSenderOnchain","inputs":[{"name":"sender","type":"address","indexed":false,"internalType":"address"}],"anonymous":false},{"type":"event","name":"OwnershipHandoverCanceled","inputs":[{"name":"pendingOwner","type":"address","indexed":true,"internalType":"address"}],"anonymous":false},{"type":"event","name":"OwnershipHandoverRequested","inputs":[{"name":"pendingOwner","type":"address","indexed":true,"internalType":"address"}],"anonymous":false},{"type":"event","name":"OwnershipTransferred","inputs":[{"name":"oldOwner","type":"address","indexed":true,"internalType":"address"},{"name":"newOwner","type":"address","indexed":true,"internalType":"address"}],"anonymous":false},{"type":"event","name":"SpherexAdminTransferCompleted","inputs":[{"name":"oldAdmin","type":"address","indexed":false,"internalType":"address"},{"name":"newAdmin","type":"address","indexed":false,"internalType":"address"}],"anonymous":false},{"type":"event","name":"SpherexAdminTransferStarted","inputs":[{"name":"currentAdmin","type":"address","indexed":false,"internalType":"address"},{"name":"pendingAdmin","type":"address","indexed":false,"internalType":"address"}],"anonymous":false},{"type":"error","name":"AssetAlreadyBlacklisted","inputs":[]},{"type":"error","name":"AssetNotBlacklisted","inputs":[]},{"type":"error","name":"BorrowerAlreadyExists","inputs":[]},{"type":"error","name":"BorrowerDoesNotExist","inputs":[]},{"type":"error","name":"ControllerAlreadyExists","inputs":[]},{"type":"error","name":"ControllerDoesNotExist","inputs":[]},{"type":"error","name":"ControllerFactoryAlreadyExists","inputs":[]},{"type":"error","name":"ControllerFactoryDoesNotExist","inputs":[]},{"type":"error","name":"MarketAlreadyExists","inputs":[]},{"type":"error","name":"MarketDoesNotExist","inputs":[]},{"type":"error","name":"NewOwnerIsZeroAddress","inputs":[]},{"type":"error","name":"NoHandoverRequest","inputs":[]},{"type":"error","name":"NotController","inputs":[]},{"type":"error","name":"NotControllerFactory","inputs":[]},{"type":"error","name":"SphereXAdminRequired","inputs":[]},{"type":"error","name":"SphereXNotEngine","inputs":[]},{"type":"error","name":"SphereXNotPendingAdmin","inputs":[]},{"type":"error","name":"SphereXOperatorOrAdminRequired","inputs":[]},{"type":"error","name":"SphereXOperatorRequired","inputs":[]},{"type":"error","name":"Unauthorized","inputs":[]}],"bytecode":{"object":"0x608060405234801561000f575f80fd5b50335f8061004661004160017fca334bf49ef20e9cbff039feda3bc1c2a853aff17b1b5187e4aa1380ec55829d610254565b849055565b6100505f846100b7565b61008361007e60017fadf90d75f0f2d657d5a22fa0f6e4dabb83c4598b77158eb4119cb38f1d864463610254565b839055565b61008d5f836100e7565b61009681610117565b6100a05f826101dc565b5050506100b23361020c60201b60201c565b61029f565b815f52806020527f67ebaebcd2ca5a91a404e898110f221747e8d15567f2388a34794aab151cf3e660405fa15050565b815f52806020527f2ac55ae7ba47db34b5334622acafeb34a65daf143b47019273185d64c73a35a560405fa15050565b6001600160a01b0381161580159061019957506040516301ffc9a760e01b81526329f20dd560e11b60048201526001600160a01b038216906301ffc9a790602401602060405180830381865afa158015610173573d5f803e3d5ffd5b505050506040513d601f19601f820116820180604052508101906101979190610279565b155b156101a6576101a6610247565b6101d96101d460017f1777adabd324f814e2b0e28f6edf876dce01d7d66358c9acfe87b1b5f38338d6610254565b829055565b50565b815f52806020527ff33499cccaa0611882086224cc48cd82ef54b66a4d2edf4ed67108dd516896d560405fa15050565b6001600160a01b0316638b78c6d819819055805f7f8be0079c531659141344cd1fd0a4f28419497f9722a3daafe3b4186f6b6457e08180a350565b637dcb7ada5f526004601cfd5b8181038181111561027357634e487b7160e01b5f52601160045260245ffd5b92915050565b5f60208284031215610289575f80fd5b81518015158114610298575f80fd5b9392505050565b611d8c806102ac5f395ff3fe608060405260043610610275575f3560e01c80638da5cb5b1161014a578063be736ff8116100be578063eb91e65111610078578063eb91e651146106aa578063f04e283e146106c9578063f2fde38b146106dc578063f631241e146106ef578063f6a74ed71461070e578063fee81cf41461072d575f80fd5b8063be736ff814610606578063d91ae8c214610625578063daba7ef714610644578063db316dbc14610663578063db91323614610677578063e7e5db4f14610696575f80fd5b8063a1c4bff81161010f578063a1c4bff814610562578063a79b9ec914610581578063abad7426146105a0578063b0018c60146105bf578063b9bccae8146105de578063b9d5dfe8146105f2575f80fd5b80638da5cb5b146104e457806399882f70146104fc57806399e80f3b1461051b5780639aa9019e1461052f5780639cfe42da14610543575f80fd5b806354d1f13d116101ec5780637ade7f20116101a65780637ade7f20146104405780638426b9681461045f57806384b870ab146104735780638b13e382146104875780638b984bb3146104a65780638cdcb3e6146104c5575f80fd5b806354d1f13d146103d55780636e0fb58d146103dd578063715018a6146103f157806376c7fc55146103f957806378e9c2241461041857806379adfa6c1461042c575f80fd5b80633c2311661161023d5780633c231166146103245780633d05a1d31461035057806346762101146103645780634a58e49e146103785780634c6c848f146103975780634ee8f858146103b6575f80fd5b80630787c1fe146102795780630e572082146102ad5780631b4f512c146102d95780631ce28ab7146102fa578063256929621461031c575b5f80fd5b348015610284575f80fd5b50610298610293366004611b7d565b61075e565b60405190151581526020015b60405180910390f35b3480156102b8575f80fd5b506102cc6102c7366004611ba3565b610770565b6040516102a49190611bc3565b3480156102e4575f80fd5b506102f86102f3366004611b7d565b610837565b005b348015610305575f80fd5b5061030e6108b0565b6040519081526020016102a4565b6102f86108c0565b34801561032f575f80fd5b5061033861090d565b6040516001600160a01b0390911681526020016102a4565b34801561035b575f80fd5b5061030e610940565b34801561036f575f80fd5b506102cc61094b565b348015610383575f80fd5b50610298610392366004611b7d565b610956565b3480156103a2575f80fd5b506102f86103b1366004611b7d565b610961565b3480156103c1575f80fd5b506102f86103d0366004611b7d565b6109d1565b6102f8610a67565b3480156103e8575f80fd5b506102cc610aa0565b6102f8610aac565b348015610404575f80fd5b506102f8610413366004611b7d565b610abf565b348015610423575f80fd5b5061030e610b28565b348015610437575f80fd5b506102cc610b33565b34801561044b575f80fd5b506102cc61045a366004611ba3565b610b3f565b34801561046a575f80fd5b506102f8610bfb565b34801561047e575f80fd5b5061030e610ca1565b348015610492575f80fd5b506102f86104a1366004611b7d565b610cab565b3480156104b1575f80fd5b506102cc6104c0366004611ba3565b610d14565b3480156104d0575f80fd5b506102986104df366004611b7d565b610dd2565b3480156104ef575f80fd5b50638b78c6d81954610338565b348015610507575f80fd5b50610298610516366004611b7d565b610dde565b348015610526575f80fd5b50610338610dea565b34801561053a575f80fd5b50610338610e19565b34801561054e575f80fd5b506102f861055d366004611b7d565b610e48565b34801561056d575f80fd5b506102cc61057c366004611ba3565b610eb1565b34801561058c575f80fd5b506102f861059b366004611b7d565b610f6f565b3480156105ab575f80fd5b506102f86105ba366004611b7d565b611009565b3480156105ca575f80fd5b506102986105d9366004611b7d565b611072565b3480156105e9575f80fd5b506102cc61107e565b3480156105fd575f80fd5b5061030e61108a565b348015610611575f80fd5b506102cc610620366004611ba3565b611095565b348015610630575f80fd5b506102f861063f366004611b7d565b611153565b34801561064f575f80fd5b506102f861065e366004611b7d565b6111e7565b34801561066e575f80fd5b506102cc611253565b348015610682575f80fd5b506102f8610691366004611b7d565b61125f565b3480156106a1575f80fd5b506103386112c7565b3480156106b5575f80fd5b506102f86106c4366004611b7d565b6112f6565b6102f86106d7366004611b7d565b61135f565b6102f86106ea366004611b7d565b611399565b3480156106fa575f80fd5b506102f8610709366004611c57565b6113bf565b348015610719575f80fd5b506102f8610728366004611b7d565b611588565b348015610738575f80fd5b5061030e610747366004611b7d565b63389a75e1600c9081525f91909152602090205490565b5f61076a6004836115f1565b92915050565b60605f61077d6002611615565b9050610789838261161e565b92505f6107968585611cfe565b90508067ffffffffffffffff8111156107b1576107b1611d11565b6040519080825280602002602001820160405280156107da578160200160208202803683370190505b5092505f5b8181101561082e576107fc6107f48288611d25565b60029061162d565b84828151811061080e5761080e611d38565b6001600160a01b03909216602092830291909101909101526001016107df565b50505092915050565b61083f611638565b61084a600282611652565b610867576040516304aa819d60e41b815260040160405180910390fd5b61087081611666565b6040516001600160a01b03821681527f8968daf7b2953d00c089355179545009ad3fc90082d096e28b028bbdad5cc5ab906020015b60405180910390a150565b5f6108bb6004611615565b905090565b5f6202a30067ffffffffffffffff164201905063389a75e1600c52335f52806020600c2055337fdbf36a107da19e49527a7176a1babf963b4b0ff8cde35ee35d6cd8f1f9ac7e1d5f80a250565b5f6108bb61093c60017f1777adabd324f814e2b0e28f6edf876dce01d7d66358c9acfe87b1b5f38338d6611cfe565b5490565b5f6108bb6006611615565b60606108bb5f6116df565b5f61076a81836115f1565b6109696112c7565b6001600160a01b0316336001600160a01b031614610989576109896116eb565b5f6109b861093c60017f1777adabd324f814e2b0e28f6edf876dce01d7d66358c9acfe87b1b5f38338d6611cfe565b90506109c3826116f8565b6109cd81836117b5565b5050565b6109d9610dea565b6001600160a01b0316336001600160a01b0316146109f9576109f96117e5565b5f610a2861093c60017fadf90d75f0f2d657d5a22fa0f6e4dabb83c4598b77158eb4119cb38f1d864463611cfe565b9050610a5d610a5860017fadf90d75f0f2d657d5a22fa0f6e4dabb83c4598b77158eb4119cb38f1d864463611cfe565b839055565b6109cd81836117f2565b63389a75e1600c52335f525f6020600c2055337ffa7b8eab7da67f412cc9575ed43464468f9bfbae89d1675917346ca6d8fe3c925f80a2565b60606108bb60026116df565b610ab4611638565b610abd5f611822565b565b610ac7611638565b610ad260048261185f565b610aef576040516332ffc55b60e11b815260040160405180910390fd5b6040516001600160a01b03821681527feb31998799e9a09df1e8e5fd968bfeb5519b82b1b88d59dec8c860eac0265864906020016108a5565b5f6108bb6002611615565b60606108bb60086116df565b60605f610b4b5f611615565b9050610b57838261161e565b92505f610b648585611cfe565b90508067ffffffffffffffff811115610b7f57610b7f611d11565b604051908082528060200260200182016040528015610ba8578160200160208202803683370190505b5092505f5b8181101561082e57610bc9610bc28288611d25565b5f9061162d565b848281518110610bdb57610bdb611d38565b6001600160a01b0390921660209283029190910190910152600101610bad565b610c03610e19565b6001600160a01b0316336001600160a01b031614610c2357610c23611873565b5f610c2c610dea565b9050610c61610c5c60017fca334bf49ef20e9cbff039feda3bc1c2a853aff17b1b5187e4aa1380ec55829d611cfe565b339055565b610c94610c8f60017f3a517dd736309b905c692160a21b5439bdc56db1dc77d6982b66d44814e3fa97611cfe565b5f9055565b610c9e8133611880565b50565b5f6108bb5f611615565b610cb3611638565b610cbe60028261185f565b610cdb576040516342ab212760e01b815260040160405180910390fd5b6040516001600160a01b03821681527f92b171cd00b60c6242c08403ef5f6b7258d81b3cba5956c115799d7a118874f9906020016108a5565b60605f610d216008611615565b9050610d2d838261161e565b92505f610d3a8585611cfe565b90508067ffffffffffffffff811115610d5557610d55611d11565b604051908082528060200260200182016040528015610d7e578160200160208202803683370190505b5092505f5b8181101561082e57610da0610d988288611d25565b60089061162d565b848281518110610db257610db2611d38565b6001600160a01b0390921660209283029190910190910152600101610d83565b5f61076a6006836115f1565b5f61076a6002836115f1565b5f6108bb61093c60017fca334bf49ef20e9cbff039feda3bc1c2a853aff17b1b5187e4aa1380ec55829d611cfe565b5f6108bb61093c60017f3a517dd736309b905c692160a21b5439bdc56db1dc77d6982b66d44814e3fa97611cfe565b610e50611638565b610e5b600882611652565b610e785760405163a99bf01360e01b815260040160405180910390fd5b6040516001600160a01b03821681527f10c0fc3aa3fe3ed617ce4c1f51f37e0203828eeab656b100bfb44b569779d638906020016108a5565b60605f610ebe6006611615565b9050610eca838261161e565b92505f610ed78585611cfe565b90508067ffffffffffffffff811115610ef257610ef2611d11565b604051908082528060200260200182016040528015610f1b578160200160208202803683370190505b5092505f5b8181101561082e57610f3d610f358288611d25565b60069061162d565b848281518110610f4f57610f4f611d38565b6001600160a01b0390921660209283029190910190910152600101610f20565b610f7a6006336115f1565b610f97576040516323019e6760e01b815260040160405180910390fd5b610fa15f82611652565b610fbe57604051630313b28560e01b815260040160405180910390fd5b610fc781611666565b6040516001600160a01b038216815233907f7772c85e68debdf74fad87834e2cc05fa763e74faf14de7096da305290651142906020015b60405180910390a250565b611011611638565b61101c600482611652565b611039576040516312635b0b60e21b815260040160405180910390fd5b6040516001600160a01b03821681527ff936762bbd5951fd80f529c57a3ca1141f0b79ab926abd60a3879f75eb6b72a6906020016108a5565b5f61076a6008836115f1565b60606108bb60046116df565b5f6108bb6008611615565b60605f6110a26004611615565b90506110ae838261161e565b92505f6110bb8585611cfe565b90508067ffffffffffffffff8111156110d6576110d6611d11565b6040519080825280602002602001820160405280156110ff578160200160208202803683370190505b5092505f5b8181101561082e576111216111198288611d25565b60049061162d565b84828151811061113357611133611d38565b6001600160a01b0390921660209283029190910190910152600101611104565b61115e6002336115f1565b61117b5760405163d11dcc5360e01b815260040160405180910390fd5b611186600682611652565b6111a35760405163983b8f4b60e01b815260040160405180910390fd5b6111ac81611666565b6040516001600160a01b038216815233907f09703263c91de41f96b822b3995609acf9858ba081d151c4e7ec3398085ae32690602001610ffe565b6111ef610dea565b6001600160a01b0316336001600160a01b03161461120f5761120f6117e5565b61124261123d60017f3a517dd736309b905c692160a21b5439bdc56db1dc77d6982b66d44814e3fa97611cfe565b829055565b610c9e61124d610dea565b826118b0565b60606108bb60066116df565b611267611638565b6112715f8261185f565b61128e5760405163b0cfa44760e01b815260040160405180910390fd5b6040516001600160a01b03821681527f59d7b1e52008dc342c9421dadfc773114b914a65682a4e4b53cf60a970df0d77906020016108a5565b5f6108bb61093c60017fadf90d75f0f2d657d5a22fa0f6e4dabb83c4598b77158eb4119cb38f1d864463611cfe565b6112fe611638565b61130960088261185f565b61132657604051630195408d60e01b815260040160405180910390fd5b6040516001600160a01b03821681527fbfd78d1acd7fdf715658096e9116ace58b0b335d6d8d4fc53e0aec7edbd7d441906020016108a5565b611367611638565b63389a75e1600c52805f526020600c20805442111561138d57636f5e88185f526004601cfd5b5f9055610c9e81611822565b6113a1611638565b8060601b6113b657637448fbae5f526004601cfd5b610c9e81611822565b6113c76112c7565b6001600160a01b0316336001600160a01b03161415801561140157506113eb610dea565b6001600160a01b0316336001600160a01b031614155b1561140e5761140e6118e0565b5f61141761090d565b604080516001600160a01b03831660248083018290528351808403909101815260449092019092526020810180516001600160e01b0316634c6c848f60e01b179052919250606090156114a05750604080515f6024808301919091528251808303909101815260449091019091526020810180516001600160e01b03166308f6f17360e11b1790525b6114ea6002848b8b808060200260200160405190810160405280939291908181526020018383602002808284375f920191909152508892508791506342ab212760e01b90506118ed565b6115346006848989808060200260200160405190810160405280939291908181526020018383602002808284375f920191909152508892508791506385e1605f60e01b90506118ed565b61157d5f848787808060200260200160405190810160405280939291908181526020018383602002808284375f9201919091525088925087915063b0cfa44760e01b90506118ed565b505050505050505050565b611590611638565b61159b60068261185f565b6115b8576040516385e1605f60e01b815260040160405180910390fd5b6040516001600160a01b03821681527f33d83959be2573f5453b12eb9d43b3499bc57d96bd2f067ba44803c859e81113906020016108a5565b6001600160a01b0381165f90815260018301602052604081205415155b9392505050565b5f61076a825490565b5f81830382841002820161160e565b5f61160e838361197f565b638b78c6d819543314610abd576382b429005f526004601cfd5b5f61160e836001600160a01b0384166119a5565b5f61166f61090d565b90506001600160a01b038116156109cd576040516308f6f17360e11b81526001600160a01b0383811660048301528216906311ede2e6906024015f604051808303815f87803b1580156116c0575f80fd5b505af11580156116d2573d5f803e3d5ffd5b505050506109cd826119f1565b60605f61160e83611a1c565b634ee0b8f85f526004601cfd5b6001600160a01b0381161580159061177a57506040516301ffc9a760e01b81526329f20dd560e11b60048201526001600160a01b038216906301ffc9a790602401602060405180830381865afa158015611754573d5f803e3d5ffd5b505050506040513d601f19601f820116820180604052508101906117789190611d4c565b155b1561178757611787611a75565b610c9e61123d60017f1777adabd324f814e2b0e28f6edf876dce01d7d66358c9acfe87b1b5f38338d6611cfe565b815f52806020527ff33499cccaa0611882086224cc48cd82ef54b66a4d2edf4ed67108dd516896d560405fa15050565b636222a5505f526004601cfd5b815f52806020527f2ac55ae7ba47db34b5334622acafeb34a65daf143b47019273185d64c73a35a560405fa15050565b638b78c6d81980546001600160a01b039092169182907f8be0079c531659141344cd1fd0a4f28419497f9722a3daafe3b4186f6b6457e05f80a355565b5f61160e836001600160a01b038416611a82565b634d28a58e5f526004601cfd5b815f52806020527f67ebaebcd2ca5a91a404e898110f221747e8d15567f2388a34794aab151cf3e660405fa15050565b815f52806020527f5778f1547abbbb86090a43c32aec38334b31df4beeb6f8f3fa063f593b53a52660405fa15050565b63b2dbeb595f526004601cfd5b5f5b8451811015611976575f85828151811061190b5761190b611d38565b6020026020010151905061192881896115f190919063ffffffff16565b61193b5760e083901c5f8190526004601cfd5b6119458186611b65565b6001600160a01b0387161561196d578060248501526119648785611b65565b61196d816119f1565b506001016118ef565b50505050505050565b5f825f01828154811061199457611994611d38565b905f5260205f200154905092915050565b5f8181526001830160205260408120546119ea57508154600181810184555f84815260208082209093018490558454848252828601909352604090209190915561076a565b505f61076a565b805f527f6de0a1fd3a59e5479e6480ba65ef28d4f3ab8143c2c631bbfd9969ab3907479760205fa150565b6060815f01805480602002602001604051908101604052809291908181526020018280548015611a6957602002820191905f5260205f20905b815481526020019060010190808311611a55575b50505050509050919050565b637dcb7ada5f526004601cfd5b5f8181526001830160205260408120548015611b5c575f611aa4600183611cfe565b85549091505f90611ab790600190611cfe565b9050818114611b16575f865f018281548110611ad557611ad5611d38565b905f5260205f200154905080875f018481548110611af557611af5611d38565b5f918252602080832090910192909255918252600188019052604090208390555b8554869080611b2757611b27611d6b565b600190038181905f5260205f20015f90559055856001015f8681526020019081526020015f205f90556001935050505061076a565b5f91505061076a565b5f808251602084015f865af16109cd573d5f803e3d5ffd5b5f60208284031215611b8d575f80fd5b81356001600160a01b038116811461160e575f80fd5b5f8060408385031215611bb4575f80fd5b50508035926020909101359150565b602080825282518282018190525f9190848201906040850190845b81811015611c035783516001600160a01b031683529284019291840191600101611bde565b50909695505050505050565b5f8083601f840112611c1f575f80fd5b50813567ffffffffffffffff811115611c36575f80fd5b6020830191508360208260051b8501011115611c50575f80fd5b9250929050565b5f805f805f8060608789031215611c6c575f80fd5b863567ffffffffffffffff80821115611c83575f80fd5b611c8f8a838b01611c0f565b90985096506020890135915080821115611ca7575f80fd5b611cb38a838b01611c0f565b90965094506040890135915080821115611ccb575f80fd5b50611cd889828a01611c0f565b979a9699509497509295939492505050565b634e487b7160e01b5f52601160045260245ffd5b8181038181111561076a5761076a611cea565b634e487b7160e01b5f52604160045260245ffd5b8082018082111561076a5761076a611cea565b634e487b7160e01b5f52603260045260245ffd5b5f60208284031215611d5c575f80fd5b8151801515811461160e575f80fd5b634e487b7160e01b5f52603160045260245ffdfea164736f6c6343000819000a","linkReferences":{}},"methodIdentifiers":{"acceptSphereXAdminRole()":"8426b968","addBlacklist(address)":"9cfe42da","cancelOwnershipHandover()":"54d1f13d","changeSphereXEngine(address)":"4c6c848f","changeSphereXOperator(address)":"4ee8f858","completeOwnershipHandover(address)":"f04e283e","getBlacklistedAssets()":"79adfa6c","getBlacklistedAssets(uint256,uint256)":"8b984bb3","getBlacklistedAssetsCount()":"b9d5dfe8","getRegisteredBorrowers()":"b9bccae8","getRegisteredBorrowers(uint256,uint256)":"be736ff8","getRegisteredBorrowersCount()":"1ce28ab7","getRegisteredControllerFactories()":"6e0fb58d","getRegisteredControllerFactories(uint256,uint256)":"0e572082","getRegisteredControllerFactoriesCount()":"78e9c224","getRegisteredControllers()":"db316dbc","getRegisteredControllers(uint256,uint256)":"a1c4bff8","getRegisteredControllersCount()":"3d05a1d3","getRegisteredMarkets()":"46762101","getRegisteredMarkets(uint256,uint256)":"7ade7f20","getRegisteredMarketsCount()":"84b870ab","isBlacklistedAsset(address)":"b0018c60","isRegisteredBorrower(address)":"0787c1fe","isRegisteredController(address)":"8cdcb3e6","isRegisteredControllerFactory(address)":"99882f70","isRegisteredMarket(address)":"4a58e49e","owner()":"8da5cb5b","ownershipHandoverExpiresAt(address)":"fee81cf4","pendingSphereXAdmin()":"9aa9019e","registerBorrower(address)":"abad7426","registerController(address)":"d91ae8c2","registerControllerFactory(address)":"1b4f512c","registerMarket(address)":"a79b9ec9","removeBlacklist(address)":"eb91e651","removeBorrower(address)":"76c7fc55","removeController(address)":"f6a74ed7","removeControllerFactory(address)":"8b13e382","removeMarket(address)":"db913236","renounceOwnership()":"715018a6","requestOwnershipHandover()":"25692962","sphereXAdmin()":"99e80f3b","sphereXEngine()":"3c231166","sphereXOperator()":"e7e5db4f","transferOwnership(address)":"f2fde38b","transferSphereXAdminRole(address)":"daba7ef7","updateSphereXEngineOnRegisteredContracts(address[],address[],address[])":"f631241e"},"id":32}