{"abi":[{"type":"function","name":"isRegisteredMarket","inputs":[{"name":"market","type":"address","internalType":"address"}],"outputs":[{"name":"","type":"bool","internalType":"bool"}],"stateMutability":"view"},{"type":"function","name":"setIsRegsiteredMarket","inputs":[{"name":"market","type":"address","internalType":"address"},{"name":"isRegistered","type":"bool","internalType":"bool"}],"outputs":[],"stateMutability":"nonpayable"}],"bytecode":{"object":"0x6080604052348015600e575f80fd5b506101298061001c5f395ff3fe608060405234801561000f575f80fd5b5060043610610034575f3560e01c80630453b29e146100385780634a58e49e14610072575b5f80fd5b6100706100463660046100c3565b6001600160a01b03919091165f908152602081905260409020805460ff1916911515919091179055565b005b6100946100803660046100fc565b5f6020819052908152604090205460ff1681565b604051901515815260200160405180910390f35b80356001600160a01b03811681146100be575f80fd5b919050565b5f80604083850312156100d4575f80fd5b6100dd836100a8565b9150602083013580151581146100f1575f80fd5b809150509250929050565b5f6020828403121561010c575f80fd5b610115826100a8565b939250505056fea164736f6c6343000819000a","linkReferences":{}},"methodIdentifiers":{"isRegisteredMarket(address)":"4a58e49e","setIsRegsiteredMarket(address,bool)":"0453b29e"},"id":60}