{"abi":[{"type":"function","name":"excludeArtifacts","inputs":[],"outputs":[{"name":"excludedArtifacts_","type":"string[]","internalType":"string[]"}],"stateMutability":"view"},{"type":"function","name":"excludeContracts","inputs":[],"outputs":[{"name":"excludedContracts_","type":"address[]","internalType":"address[]"}],"stateMutability":"view"},{"type":"function","name":"excludeSenders","inputs":[],"outputs":[{"name":"excludedSenders_","type":"address[]","internalType":"address[]"}],"stateMutability":"view"},{"type":"function","name":"failed","inputs":[],"outputs":[{"name":"","type":"bool","internalType":"bool"}],"stateMutability":"view"},{"type":"function","name":"setUp","inputs":[],"outputs":[],"stateMutability":"nonpayable"},{"type":"function","name":"targetArtifactSelectors","inputs":[],"outputs":[{"name":"targetedArtifactSelectors_","type":"tuple[]","internalType":"struct StdInvariant.FuzzSelector[]","components":[{"name":"addr","type":"address","internalType":"address"},{"name":"selectors","type":"bytes4[]","internalType":"bytes4[]"}]}],"stateMutability":"view"},{"type":"function","name":"targetArtifacts","inputs":[],"outputs":[{"name":"targetedArtifacts_","type":"string[]","internalType":"string[]"}],"stateMutability":"view"},{"type":"function","name":"targetContracts","inputs":[],"outputs":[{"name":"targetedContracts_","type":"address[]","internalType":"address[]"}],"stateMutability":"view"},{"type":"function","name":"targetInterfaces","inputs":[],"outputs":[{"name":"targetedInterfaces_","type":"tuple[]","internalType":"struct StdInvariant.FuzzInterface[]","components":[{"name":"addr","type":"address","internalType":"address"},{"name":"artifacts","type":"string[]","internalType":"string[]"}]}],"stateMutability":"view"},{"type":"function","name":"targetSelectors","inputs":[],"outputs":[{"name":"targetedSelectors_","type":"tuple[]","internalType":"struct StdInvariant.FuzzSelector[]","components":[{"name":"addr","type":"address","internalType":"address"},{"name":"selectors","type":"bytes4[]","internalType":"bytes4[]"}]}],"stateMutability":"view"},{"type":"function","name":"targetSenders","inputs":[],"outputs":[{"name":"targetedSenders_","type":"address[]","internalType":"address[]"}],"stateMutability":"view"},{"type":"function","name":"testArchController","inputs":[],"outputs":[],"stateMutability":"nonpayable"},{"type":"function","name":"testChainalysisSanctionsList","inputs":[],"outputs":[],"stateMutability":"nonpayable"},{"type":"function","name":"testCreateEscrow","inputs":[],"outputs":[],"stateMutability":"nonpayable"},{"type":"function","name":"testCreateEscrowAddressValidation","inputs":[],"outputs":[],"stateMutability":"nonpayable"},{"type":"function","name":"testFuzzCreateEscrow","inputs":[{"name":"borrower","type":"address","internalType":"address"},{"name":"account","type":"address","internalType":"address"},{"name":"assetSalt","type":"bytes32","internalType":"bytes32"},{"name":"amount","type":"uint256","internalType":"uint256"},{"name":"sanctioned","type":"bool","internalType":"bool"}],"outputs":[],"stateMutability":"nonpayable"},{"type":"function","name":"testFuzzGetEscrowAddress","inputs":[{"name":"borrower","type":"address","internalType":"address"},{"name":"account","type":"address","internalType":"address"},{"name":"asset","type":"address","internalType":"address"}],"outputs":[],"stateMutability":"nonpayable"},{"type":"function","name":"testFuzzIsSanctioned","inputs":[{"name":"borrower","type":"address","internalType":"address"},{"name":"overrideSanctionStatus","type":"bool","internalType":"bool"},{"name":"forWhomTheBellTolls","type":"address","internalType":"address"},{"name":"sanctioned","type":"bool","internalType":"bool"}],"outputs":[],"stateMutability":"nonpayable"},{"type":"function","name":"testGetEscrowAddress","inputs":[],"outputs":[],"stateMutability":"nonpayable"},{"type":"function","name":"testIsSanctioned","inputs":[],"outputs":[],"stateMutability":"nonpayable"},{"type":"function","name":"testRemoveSanctionOverride","inputs":[],"outputs":[],"stateMutability":"nonpayable"},{"type":"function","name":"testSanctionOverride","inputs":[],"outputs":[],"stateMutability":"nonpayable"},{"type":"function","name":"testWildcatSanctionsEscrowInitcodeHash","inputs":[],"outputs":[],"stateMutability":"nonpayable"},{"type":"event","name":"NewSanctionsEscrow","inputs":[{"name":"borrower","type":"address","indexed":true,"internalType":"address"},{"name":"account","type":"address","indexed":true,"internalType":"address"},{"name":"asset","type":"address","indexed":true,"internalType":"address"}],"anonymous":false},{"type":"event","name":"SanctionOverride","inputs":[{"name":"borrower","type":"address","indexed":true,"internalType":"address"},{"name":"account","type":"address","indexed":true,"internalType":"address"}],"anonymous":false},{"type":"event","name":"log","inputs":[{"name":"","type":"string","indexed":false,"internalType":"string"}],"anonymous":false},{"type":"event","name":"log_address","inputs":[{"name":"","type":"address","indexed":false,"internalType":"address"}],"anonymous":false},{"type":"event","name":"log_array","inputs":[{"name":"val","type":"uint256[]","indexed":false,"internalType":"uint256[]"}],"anonymous":false},{"type":"event","name":"log_array","inputs":[{"name":"val","type":"int256[]","indexed":false,"internalType":"int256[]"}],"anonymous":false},{"type":"event","name":"log_array","inputs":[{"name":"val","type":"address[]","indexed":false,"internalType":"address[]"}],"anonymous":false},{"type":"event","name":"log_bytes","inputs":[{"name":"","type":"bytes","indexed":false,"internalType":"bytes"}],"anonymous":false},{"type":"event","name":"log_bytes32","inputs":[{"name":"","type":"bytes32","indexed":false,"internalType":"bytes32"}],"anonymous":false},{"type":"event","name":"log_int","inputs":[{"name":"","type":"int256","indexed":false,"internalType":"int256"}],"anonymous":false},{"type":"event","name":"log_named_address","inputs":[{"name":"key","type":"string","indexed":false,"internalType":"string"},{"name":"val","type":"address","indexed":false,"internalType":"address"}],"anonymous":false},{"type":"event","name":"log_named_array","inputs":[{"name":"key","type":"string","indexed":false,"internalType":"string"},{"name":"val","type":"uint256[]","indexed":false,"internalType":"uint256[]"}],"anonymous":false},{"type":"event","name":"log_named_array","inputs":[{"name":"key","type":"string","indexed":false,"internalType":"string"},{"name":"val","type":"int256[]","indexed":false,"internalType":"int256[]"}],"anonymous":false},{"type":"event","name":"log_named_array","inputs":[{"name":"key","type":"string","indexed":false,"internalType":"string"},{"name":"val","type":"address[]","indexed":false,"internalType":"address[]"}],"anonymous":false},{"type":"event","name":"log_named_bytes","inputs":[{"name":"key","type":"string","indexed":false,"internalType":"string"},{"name":"val","type":"bytes","indexed":false,"internalType":"bytes"}],"anonymous":false},{"type":"event","name":"log_named_bytes32","inputs":[{"name":"key","type":"string","indexed":false,"internalType":"string"},{"name":"val","type":"bytes32","indexed":false,"internalType":"bytes32"}],"anonymous":false},{"type":"event","name":"log_named_decimal_int","inputs":[{"name":"key","type":"string","indexed":false,"internalType":"string"},{"name":"val","type":"int256","indexed":false,"internalType":"int256"},{"name":"decimals","type":"uint256","indexed":false,"internalType":"uint256"}],"anonymous":false},{"type":"event","name":"log_named_decimal_uint","inputs":[{"name":"key","type":"string","indexed":false,"internalType":"string"},{"name":"val","type":"uint256","indexed":false,"internalType":"uint256"},{"name":"decimals","type":"uint256","indexed":false,"internalType":"uint256"}],"anonymous":false},{"type":"event","name":"log_named_int","inputs":[{"name":"key","type":"string","indexed":false,"internalType":"string"},{"name":"val","type":"int256","indexed":false,"internalType":"int256"}],"anonymous":false},{"type":"event","name":"log_named_string","inputs":[{"name":"key","type":"string","indexed":false,"internalType":"string"},{"name":"val","type":"string","indexed":false,"internalType":"string"}],"anonymous":false},{"type":"event","name":"log_named_uint","inputs":[{"name":"key","type":"string","indexed":false,"internalType":"string"},{"name":"val","type":"uint256","indexed":false,"internalType":"uint256"}],"anonymous":false},{"type":"event","name":"log_string","inputs":[{"name":"","type":"string","indexed":false,"internalType":"string"}],"anonymous":false},{"type":"event","name":"log_uint","inputs":[{"name":"","type":"uint256","indexed":false,"internalType":"uint256"}],"anonymous":false},{"type":"event","name":"logs","inputs":[{"name":"","type":"bytes","indexed":false,"internalType":"bytes"}],"anonymous":false}],"bytecode":{"object":"0x6080604052600c805460ff19166001179055348015601b575f80fd5b506151b7806100295f395ff3fe608060405234801561000f575f80fd5b5060043610610148575f3560e01c806386eb5424116100bf578063cc3754e511610079578063cc3754e51461022e578063d10b06c814610236578063dafd7a5414610249578063dd41cbd314610251578063e20c9f7114610259578063ef7594bf14610261575f80fd5b806386eb5424146101ee57806390132d4e146101f6578063916a17c6146101fe578063b5508aa914610206578063b589ed4f1461020e578063ba414fa614610216575f80fd5b80633e5e3c23116101105780633e5e3c23146101995780633f7286f4146101a157806354bb0d4c146101a957806366d9a9a0146101b15780637d6f99cd146101c657806385226c81146101d9575f80fd5b806308af0fb61461014c5780630a9254e414610156578063137d563d1461015e5780631ed7831c146101665780632ade388014610184575b5f80fd5b610154610274565b005b6101546102f4565b6101546103aa565b61016e6107e3565b60405161017b91906128e9565b60405180910390f35b61018c610843565b60405161017b9190612963565b61016e61097f565b61016e6109dd565b610154610a3b565b6101b9610ac2565b60405161017b9190612a20565b6101546101d4366004612af2565b610ba3565b6101e16111a5565b60405161017b9190612b4d565b610154611270565b610154611424565b6101b96115ac565b6101e161168d565b610154611758565b61021e6117f4565b604051901515815260200161017b565b61015461188d565b610154610244366004612baf565b611a8a565b610154611ac0565b610154611d40565b61016e612390565b61015461026f366004612bf7565b6123ee565b601f5460408051630546355760e41b815290516102f2926001600160a01b03169163546355709160048083019260209291908290030181865afa1580156102bd573d5f803e3d5ffd5b505050506040513d601f19601f820116820180604052508101906102e19190612c50565b601e546001600160a01b03166125d6565b565b6102fc612638565b604051610308906128a8565b604051809103905ff080158015610321573d5f803e3d5ffd5b50601e80546001600160a01b0319166001600160a01b039290921691821790556040517340c57923924b5c5c5455c48d93317139addac8fb90610363906128b5565b61036e929190612c72565b604051809103905ff080158015610387573d5f803e3d5ffd5b50601f80546001600160a01b0319166001600160a01b0392909216919091179055565b601f5460405163380c343160e01b8152600191600291610429916001600160a01b03169063380c3431906103e49086908690600401612c72565b602060405180830381865afa1580156103ff573d5f803e3d5ffd5b505050506040513d601f19601f820116820180604052508101906104239190612c8c565b5f6126cc565b60405163ca669fa760e01b81526001600160a01b03831660048201525f8051602061513d8339815191529063ca669fa7906024015f604051808303815f87803b158015610474575f80fd5b505af1158015610486573d5f803e3d5ffd5b5050601f54604051630340c84d60e51b81526001600160a01b038581166004830152909116925063681909a091506024015f604051808303815f87803b1580156104ce575f80fd5b505af11580156104e0573d5f803e3d5ffd5b5050601f5460405163380c343160e01b815261056093506001600160a01b03909116915063380c34319061051a9086908690600401612c72565b602060405180830381865afa158015610535573d5f803e3d5ffd5b505050506040513d601f19601f820116820180604052508101906105599190612c8c565b60016126cc565b601f546040516301b9d11160e21b81526105d8916001600160a01b0316906306e74444906105949086908690600401612c72565b602060405180830381865afa1580156105af573d5f803e3d5ffd5b505050506040513d601f19601f820116820180604052508101906105d39190612c8c565b612706565b604051633b661b1b60e21b81526001600160a01b03821660048201527340c57923924b5c5c5455c48d93317139addac8fb9063ed986c6c906024015f604051808303815f87803b15801561062a575f80fd5b505af115801561063c573d5f803e3d5ffd5b5050601f546040516301b9d11160e21b815261067693506001600160a01b0390911691506306e74444906105949086908690600401612c72565b60405163ca669fa760e01b81526001600160a01b03831660048201525f8051602061513d8339815191529063ca669fa7906024015f604051808303815f87803b1580156106c1575f80fd5b505af11580156106d3573d5f803e3d5ffd5b5050601f5460405163490a865360e01b81526001600160a01b038581166004830152909116925063490a865391506024015f604051808303815f87803b15801561071b575f80fd5b505af115801561072d573d5f803e3d5ffd5b5050601f5460405163380c343160e01b815261076793506001600160a01b03909116915063380c3431906103e49086908690600401612c72565b601f546040516301b9d11160e21b81526107df916001600160a01b0316906306e744449061079b9086908690600401612c72565b602060405180830381865afa1580156107b6573d5f803e3d5ffd5b505050506040513d601f19601f820116820180604052508101906107da9190612c8c565b612763565b5050565b6060601680548060200260200160405190810160405280929190818152602001828054801561083957602002820191905f5260205f20905b81546001600160a01b0316815260019091019060200180831161081b575b5050505050905090565b6060601d805480602002602001604051908101604052809291908181526020015f905b82821015610976575f84815260208082206040805180820182526002870290920180546001600160a01b03168352600181018054835181870281018701909452808452939591948681019491929084015b8282101561095f578382905f5260205f200180546108d490612ca7565b80601f016020809104026020016040519081016040528092919081815260200182805461090090612ca7565b801561094b5780601f106109225761010080835404028352916020019161094b565b820191905f5260205f20905b81548152906001019060200180831161092e57829003601f168201915b5050505050815260200190600101906108b7565b505050508152505081526020019060010190610866565b50505050905090565b6060601880548060200260200160405190810160405280929190818152602001828054801561083957602002820191905f5260205f209081546001600160a01b0316815260019091019060200180831161081b575050505050905090565b6060601780548060200260200160405190810160405280929190818152602001828054801561083957602002820191905f5260205f209081546001600160a01b0316815260019091019060200180831161081b575050505050905090565b601f5460408051634973203d60e01b815290516102f2926001600160a01b031691634973203d9160048083019260209291908290030181865afa158015610a84573d5f803e3d5ffd5b505050506040513d601f19601f82011682018060405250810190610aa89190612c50565b7340c57923924b5c5c5455c48d93317139addac8fb6125d6565b6060601b805480602002602001604051908101604052809291908181526020015f905b82821015610976575f8481526020908190206040805180820182526002860290920180546001600160a01b03168352600181018054835181870281018701909452808452939491938583019392830182828015610b8b57602002820191905f5260205f20905f905b82829054906101000a900460e01b6001600160e01b03191681526020019060040190602082600301049283019260010382029150808411610b4d5790505b50505050508152505081526020019060010190610ae5565b5f83604051610bb1906128c2565b8190604051809103905ff5905080158015610bce573d5f803e3d5ffd5b50601e54604051630229d94f60e11b8152306004820152600160248201529192506001600160a01b031690630453b29e906044015f604051808303815f87803b158015610c19575f80fd5b505af1158015610c2b573d5f803e3d5ffd5b505050508115610c9e57604051633b661b1b60e21b81526001600160a01b03861660048201527340c57923924b5c5c5455c48d93317139addac8fb9063ed986c6c906024015f604051808303815f87803b158015610c87575f80fd5b505af1158015610c99573d5f803e3d5ffd5b505050505b601f546040516381bad6f360e01b81525f8051602061513d833981519152916381bad6f391610ce2916001918291829182916001600160a01b031690600401612cdf565b5f604051808303815f87803b158015610cf9575f80fd5b505af1158015610d0b573d5f803e3d5ffd5b50505050806001600160a01b0316856001600160a01b0316876001600160a01b03167f23e05aa548aba14c84d0a45e65bab80c7409d1a00129f53cfdf85bed0b5fbb2560405160405180910390a4601f5460405163a1054f6b60e01b81525f916001600160a01b03169063a1054f6b90610d8d908a908a908790600401612d0f565b6020604051808303815f875af1158015610da9573d5f803e3d5ffd5b505050506040513d601f19601f82011682018060405250810190610dcd9190612c50565b6040516340c10f1960e01b81526001600160a01b03808316600483015260248201879052919250908316906340c10f19906044015f604051808303815f87803b158015610e18575f80fd5b505af1158015610e2a573d5f803e3d5ffd5b505050505f80826001600160a01b0316633d02b19c6040518163ffffffff1660e01b81526004016040805180830381865afa158015610e6b573d5f803e3d5ffd5b505050506040513d601f19601f82011682018060405250810190610e8f9190612d32565b601f546040516301cdf58b60e41b8152929450909250610f119185916001600160a01b031690631cdf58b090610ecd908e908e908b90600401612d0f565b602060405180830381865afa158015610ee8573d5f803e3d5ffd5b505050506040513d601f19601f82011682018060405250810190610f0c9190612c50565b6125d6565b601f5460405163a1054f6b60e01b8152610f679185916001600160a01b039091169063a1054f6b90610f4b908e908e908b90600401612d0f565b6020604051808303815f875af1158015610ee8573d5f803e3d5ffd5b610fd0836001600160a01b0316637df1f1b96040518163ffffffff1660e01b8152600401602060405180830381865afa158015610fa6573d5f803e3d5ffd5b505050506040513d601f19601f82011682018060405250810190610fca9190612c50565b8a6125d6565b611039836001600160a01b0316635dab24206040518163ffffffff1660e01b8152600401602060405180830381865afa15801561100f573d5f803e3d5ffd5b505050506040513d601f19601f820116820180604052508101906110339190612c50565b896125d6565b6110a2836001600160a01b031663b69ef8a86040518163ffffffff1660e01b8152600401602060405180830381865afa158015611078573d5f803e3d5ffd5b505050506040513d601f19601f8201168201806040525081019061109c9190612d5e565b87612795565b611186836001600160a01b031663a4972b476040518163ffffffff1660e01b8152600401602060405180830381865afa1580156110e1573d5f803e3d5ffd5b505050506040513d601f19601f820116820180604052508101906111059190612c8c565b60405163df592f7d60e01b81526001600160a01b038b1660048201527340c57923924b5c5c5455c48d93317139addac8fb9063df592f7d906024015b602060405180830381865afa15801561115c573d5f803e3d5ffd5b505050506040513d601f19601f820116820180604052508101906111809190612c8c565b156126cc565b61119082856125d6565b61119a8187612795565b505050505050505050565b6060601a805480602002602001604051908101604052809291908181526020015f905b82821015610976578382905f5260205f200180546111e590612ca7565b80601f016020809104026020016040519081016040528092919081815260200182805461121190612ca7565b801561125c5780601f106112335761010080835404028352916020019161125c565b820191905f5260205f20905b81548152906001019060200180831161123f57829003601f168201915b5050505050815260200190600101906111c8565b601f546040516301b9d11160e21b81526112a5916001600160a01b0316906306e74444906103e4905f90600190600401612c72565b604051633b661b1b60e21b8152600160048201527340c57923924b5c5c5455c48d93317139addac8fb9063ed986c6c906024015f604051808303815f87803b1580156112ef575f80fd5b505af1158015611301573d5f803e3d5ffd5b5050601f546040516301b9d11160e21b815261133c93506001600160a01b0390911691506306e744449061051a905f90600190600401612c72565b60405163ca669fa760e01b81525f60048201525f8051602061513d8339815191529063ca669fa7906024015f604051808303815f87803b15801561137e575f80fd5b505af1158015611390573d5f803e3d5ffd5b5050601f54604051630340c84d60e51b8152600160048201526001600160a01b03909116925063681909a091506024015f604051808303815f87803b1580156113d7575f80fd5b505af11580156113e9573d5f803e3d5ffd5b5050601f546040516301b9d11160e21b81526102f293506001600160a01b0390911691506306e74444906103e4905f90600190600401612c72565b601f546040516301cdf58b60e41b81526001916002916003916115a7916001600160a01b0390911690631cdf58b09061146590879087908790600401612d0f565b602060405180830381865afa158015611480573d5f803e3d5ffd5b505050506040513d601f19601f820116820180604052508101906114a49190612c50565b601f546040516001600160f81b0319916001600160a01b0316906114d090889088908890602001612d0f565b60408051601f198184030181528282528051602091820120601f5463b8b4536160e01b8552925190936001600160a01b039093169263b8b453619260048083019391928290030181865afa15801561152a573d5f803e3d5ffd5b505050506040513d601f19601f8201168201806040525081019061154e9190612d5e565b6040516001600160f81b031994909416602085015260609290921b6bffffffffffffffffffffffff1916602184015260358301526055820152607501604051602081830303815290604052805190602001205f1c6125d6565b505050565b6060601c805480602002602001604051908101604052809291908181526020015f905b82821015610976575f8481526020908190206040805180820182526002860290920180546001600160a01b0316835260018101805483518187028101870190945280845293949193858301939283018282801561167557602002820191905f5260205f20905f905b82829054906101000a900460e01b6001600160e01b031916815260200190600401906020826003010492830192600103820291508084116116375790505b505050505081525050815260200190600101906115cf565b60606019805480602002602001604051908101604052809291908181526020015f905b82821015610976578382905f5260205f200180546116cd90612ca7565b80601f01602080910402602001604051908101604052809291908181526020018280546116f990612ca7565b80156117445780601f1061171b57610100808354040283529160200191611744565b820191905f5260205f20905b81548152906001019060200180831161172757829003601f168201915b5050505050815260200190600101906116b0565b601f546040805163b8b4536160e01b815290516102f2926001600160a01b03169163b8b453619160048083019260209291908290030181865afa1580156117a1573d5f803e3d5ffd5b505050506040513d601f19601f820116820180604052508101906117c59190612d5e565b6040516117d4602082016128cf565b6020820181038252601f19601f82011660405250805190602001206127cd565b6008545f9060ff161561180b575060085460ff1690565b604051630667f9d760e41b81525f8051602061513d833981519152600482018190526519985a5b195960d21b60248301525f9163667f9d7090604401602060405180830381865afa158015611862573d5f803e3d5ffd5b505050506040513d601f19601f820116820180604052508101906118869190612d5e565b1415905090565b601f5460405163380c343160e01b81526001916002916118c7916001600160a01b03169063380c3431906103e49086908690600401612c72565b60405163ca669fa760e01b81526001600160a01b03831660048201525f8051602061513d8339815191529063ca669fa7906024015f604051808303815f87803b158015611912575f80fd5b505af1158015611924573d5f803e3d5ffd5b5050601f54604051630340c84d60e51b81526001600160a01b038581166004830152909116925063681909a091506024015f604051808303815f87803b15801561196c575f80fd5b505af115801561197e573d5f803e3d5ffd5b5050601f5460405163380c343160e01b81526119b893506001600160a01b03909116915063380c34319061051a9086908690600401612c72565b601f546040516301b9d11160e21b81526119ec916001600160a01b0316906306e74444906105949086908690600401612c72565b604051633b661b1b60e21b81526001600160a01b03821660048201527340c57923924b5c5c5455c48d93317139addac8fb9063ed986c6c906024015f604051808303815f87803b158015611a3e575f80fd5b505af1158015611a50573d5f803e3d5ffd5b5050601f546040516301b9d11160e21b81526107df93506001600160a01b0390911691506306e74444906105949086908690600401612c72565b601f546040516301cdf58b60e41b81526115a7916001600160a01b031690631cdf58b09061146590879087908790600401612d0f565b601f5460405163a1054f6b60e01b81525f91829182916001600160a01b03169063a1054f6b90611af890849081908190600401612d0f565b6020604051808303815f875af1158015611b14573d5f803e3d5ffd5b505050506040513d601f19601f82011682018060405250810190611b389190612c50565b50601f5460405163a1054f6b60e01b81525f916001600160a01b03169063a1054f6b90611b6d90879087908790600401612d0f565b6020604051808303815f875af1158015611b89573d5f803e3d5ffd5b505050506040513d601f19601f82011682018060405250810190611bad9190612c50565b9050611bd760405180604001604052806006815260200165657363726f7760d01b81525082612805565b611c40816001600160a01b0316637df1f1b96040518163ffffffff1660e01b8152600401602060405180830381865afa158015611c16573d5f803e3d5ffd5b505050506040513d601f19601f82011682018060405250810190611c3a9190612c50565b856125d6565b611ca9816001600160a01b0316635dab24206040518163ffffffff1660e01b8152600401602060405180830381865afa158015611c7f573d5f803e3d5ffd5b505050506040513d601f19601f82011682018060405250810190611ca39190612c50565b846125d6565b601f5460405163380c343160e01b8152611d3a916001600160a01b03169063380c343190611cdd9088908690600401612c72565b602060405180830381865afa158015611cf8573d5f803e3d5ffd5b505050506040513d601f19601f82011682018060405250810190611d1c9190612c8c565b6040518060600160405280602a8152602001615181602a913961284a565b50505050565b6040516001906002905f90611d54906128c2565b604051809103905ff080158015611d6d573d5f803e3d5ffd5b50601e54604051630229d94f60e11b81523060048201526001602482018190529293506001600160a01b0390911690630453b29e906044015f604051808303815f87803b158015611dbc575f80fd5b505af1158015611dce573d5f803e3d5ffd5b5050601f546040516301cdf58b60e41b81525f93506001600160a01b039091169150631cdf58b090611e0890889088908890600401612d0f565b602060405180830381865afa158015611e23573d5f803e3d5ffd5b505050506040513d601f19601f82011682018060405250810190611e479190612c50565b601f546040516381bad6f360e01b81529192505f8051602061513d833981519152916381bad6f391611e90916001918291829182916001600160a01b0390911690600401612cdf565b5f604051808303815f87803b158015611ea7575f80fd5b505af1158015611eb9573d5f803e3d5ffd5b50505050826001600160a01b0316846001600160a01b0316866001600160a01b03167f23e05aa548aba14c84d0a45e65bab80c7409d1a00129f53cfdf85bed0b5fbb2560405160405180910390a4601f546040516381bad6f360e01b81525f8051602061513d833981519152916381bad6f391611f4b916001918291829182916001600160a01b031690600401612cdf565b5f604051808303815f87803b158015611f62575f80fd5b505af1158015611f74573d5f803e3d5ffd5b50506040516001600160a01b038085169350881691507ff7314dc6493fd11dd1939dc062aeea73f1c783016ddb31776a402712098e5db5905f90a3601f5460405163a1054f6b60e01b81525f916001600160a01b03169063a1054f6b90611fe390899089908990600401612d0f565b6020604051808303815f875af1158015611fff573d5f803e3d5ffd5b505050506040513d601f19601f820116820180604052508101906120239190612c50565b6040516340c10f1960e01b81526001600160a01b03808316600483015260248201869052919250908516906340c10f19906044015f604051808303815f87803b15801561206e575f80fd5b505af1158015612080573d5f803e3d5ffd5b505050505f80826001600160a01b0316633d02b19c6040518163ffffffff1660e01b81526004016040805180830381865afa1580156120c1573d5f803e3d5ffd5b505050506040513d601f19601f820116820180604052508101906120e59190612d32565b915091506120f383856125d6565b601f5460405163a1054f6b60e01b815261212d9185916001600160a01b039091169063a1054f6b90610f4b908d908d908d90600401612d0f565b61216c836001600160a01b0316637df1f1b96040518163ffffffff1660e01b8152600401602060405180830381865afa15801561100f573d5f803e3d5ffd5b6121d5836001600160a01b0316635dab24206040518163ffffffff1660e01b8152600401602060405180830381865afa1580156121ab573d5f803e3d5ffd5b505050506040513d601f19601f820116820180604052508101906121cf9190612c50565b886125d6565b61223e836001600160a01b031663b69ef8a86040518163ffffffff1660e01b8152600401602060405180830381865afa158015612214573d5f803e3d5ffd5b505050506040513d601f19601f820116820180604052508101906122389190612d5e565b86612795565b6122e1836001600160a01b031663a4972b476040518163ffffffff1660e01b8152600401602060405180830381865afa15801561227d573d5f803e3d5ffd5b505050506040513d601f19601f820116820180604052508101906122a19190612c8c565b60405163df592f7d60e01b81526001600160a01b038a1660048201527340c57923924b5c5c5455c48d93317139addac8fb9063df592f7d90602401611141565b601f5460405163380c343160e01b8152612372916001600160a01b03169063380c343190612315908c908890600401612c72565b602060405180830381865afa158015612330573d5f803e3d5ffd5b505050506040513d601f19601f820116820180604052508101906123549190612c8c565b60405180606001604052806024815260200161515d6024913961284a565b61237c82876125d6565b6123868186612795565b5050505050505050565b6060601580548060200260200160405190810160405280929190818152602001828054801561083957602002820191905f5260205f209081546001600160a01b0316815260019091019060200180831161081b575050505050905090565b601f546040516301b9d11160e21b8152612422916001600160a01b0316906306e74444906103e49088908790600401612c72565b801561249157604051633b661b1b60e21b81526001600160a01b03831660048201527340c57923924b5c5c5455c48d93317139addac8fb9063ed986c6c906024015f604051808303815f87803b15801561247a575f80fd5b505af115801561248c573d5f803e3d5ffd5b505050505b82156125535760405163ca669fa760e01b81526001600160a01b03851660048201525f8051602061513d8339815191529063ca669fa7906024015f604051808303815f87803b1580156124e2575f80fd5b505af11580156124f4573d5f803e3d5ffd5b5050601f54604051630340c84d60e51b81526001600160a01b038681166004830152909116925063681909a091506024015f604051808303815f87803b15801561253c575f80fd5b505af115801561254e573d5f803e3d5ffd5b505050505b601f546040516301b9d11160e21b8152611d3a916001600160a01b0316906306e74444906125879088908790600401612c72565b602060405180830381865afa1580156125a2573d5f803e3d5ffd5b505050506040513d601f19601f820116820180604052508101906125c69190612c8c565b8280156125d1575084155b6126cc565b6040516328a9b0fb60e11b81525f8051602061513d8339815191529063515361f6906126089085908590600401612c72565b5f6040518083038186803b15801561261e575f80fd5b505afa158015612630573d5f803e3d5ffd5b505050505050565b6040515f8051602061513d8339815191529063b4d6c782907340c57923924b5c5c5455c48d93317139addac8fb90612672602082016128dc565b6020820181038252601f19601f820116604052506040518363ffffffff1660e01b81526004016126a3929190612d75565b5f604051808303815f87803b1580156126ba575f80fd5b505af1158015611d3a573d5f803e3d5ffd5b60405163f7fe347760e01b8152821515600482015281151560248201525f8051602061513d8339815191529063f7fe347790604401612608565b60405163a598288560e01b815281151560048201525f8051602061513d8339815191529063a5982885906024015b5f6040518083038186803b15801561274a575f80fd5b505afa15801561275c573d5f803e3d5ffd5b5050505050565b604051630c9fd58160e01b815281151560048201525f8051602061513d83398151915290630c9fd58190602401612734565b60405163260a5b1560e21b815260048101839052602481018290525f8051602061513d833981519152906398296c5490604401612608565b604051637c84c69b60e01b815260048101839052602481018290525f8051602061513d83398151915290637c84c69b90604401612608565b6107df828260405160240161281b929190612da0565b60408051601f198184030181529190526020810180516001600160e01b031663319af33360e01b17905261287c565b60405163a34edc0360e01b81525f8051602061513d8339815191529063a34edc03906126089085908590600401612dc9565b61288581612888565b50565b80516a636f6e736f6c652e6c6f67602083015f808483855afa5050505050565b61014580612de483390190565b610d7380612f2983390190565b610ddc80613c9c83390190565b6105b180614a7883390190565b6101148061502983390190565b602080825282518282018190525f9190848201906040850190845b818110156129295783516001600160a01b031683529284019291840191600101612904565b50909695505050505050565b5f81518084528060208401602086015e5f602082860101526020601f19601f83011685010191505092915050565b602080825282518282018190525f919060409081850190600581811b87018401888601875b84811015612a1157603f198a8403018652815180516001600160a01b03168452880151888401889052805188850181905290890190606081871b8601810191908601905f5b818110156129fb57605f198885030183526129e9848651612935565b948d01949350918c01916001016129cd565b5050509689019693505090870190600101612988565b50909998505050505050505050565b5f60208083018184528085518083526040925060408601915060408160051b8701018488015f5b83811015612ac357888303603f19018552815180516001600160a01b031684528701518784018790528051878501819052908801905f9060608601905b80831015612aae5783516001600160e01b0319168252928a019260019290920191908a0190612a84565b50968901969450505090860190600101612a47565b509098975050505050505050565b6001600160a01b0381168114612885575f80fd5b8015158114612885575f80fd5b5f805f805f60a08688031215612b06575f80fd5b8535612b1181612ad1565b94506020860135612b2181612ad1565b935060408601359250606086013591506080860135612b3f81612ae5565b809150509295509295909350565b5f60208083016020845280855180835260408601915060408160051b8701019250602087015f5b82811015612ba257603f19888603018452612b90858351612935565b94509285019290850190600101612b74565b5092979650505050505050565b5f805f60608486031215612bc1575f80fd5b8335612bcc81612ad1565b92506020840135612bdc81612ad1565b91506040840135612bec81612ad1565b809150509250925092565b5f805f8060808587031215612c0a575f80fd5b8435612c1581612ad1565b93506020850135612c2581612ae5565b92506040850135612c3581612ad1565b91506060850135612c4581612ae5565b939692955090935050565b5f60208284031215612c60575f80fd5b8151612c6b81612ad1565b9392505050565b6001600160a01b0392831681529116602082015260400190565b5f60208284031215612c9c575f80fd5b8151612c6b81612ae5565b600181811c90821680612cbb57607f821691505b602082108103612cd957634e487b7160e01b5f52602260045260245ffd5b50919050565b941515855292151560208501529015156040840152151560608301526001600160a01b0316608082015260a00190565b6001600160a01b0393841681529183166020830152909116604082015260600190565b5f8060408385031215612d43575f80fd5b8251612d4e81612ad1565b6020939093015192949293505050565b5f60208284031215612d6e575f80fd5b5051919050565b6001600160a01b03831681526040602082018190525f90612d9890830184612935565b949350505050565b604081525f612db26040830185612935565b905060018060a01b03831660208301529392505050565b8215158152604060208201525f612d98604083018461293556fe6080604052348015600e575f80fd5b506101298061001c5f395ff3fe608060405234801561000f575f80fd5b5060043610610034575f3560e01c80630453b29e146100385780634a58e49e14610072575b5f80fd5b6100706100463660046100c3565b6001600160a01b03919091165f908152602081905260409020805460ff1916911515919091179055565b005b6100946100803660046100fc565b5f6020819052908152604090205460ff1681565b604051901515815260200160405180910390f35b80356001600160a01b03811681146100be575f80fd5b919050565b5f80604083850312156100d4575f80fd5b6100dd836100a8565b9150602083013580151581146100f1575f80fd5b809150509250929050565b5f6020828403121561010c575f80fd5b610115826100a8565b939250505056fea164736f6c6343000819000a60c060405234801561000f575f80fd5b50604051610d73380380610d7383398101604081905261002e916100ab565b6001600160a01b0380831660a05281166080526100896040805160608101825260018082526020820181905291018190525f80546001600160a01b031990811683179091558154811682178255600280549091169091179055565b50506100dc565b80516001600160a01b03811681146100a6575f80fd5b919050565b5f80604083850312156100bc575f80fd5b6100c583610090565b91506100d360208401610090565b90509250929050565b60805160a051610c6f6101045f395f61016b01525f818161014401526103a50152610c6f5ff3fe608060405234801561000f575f80fd5b50600436106100a6575f3560e01c8063546355701161006e5780635463557014610166578063681909a01461018d57806395c09839146101a0578063a1054f6b146101b3578063b1d62668146101c6578063b8b453611461020f575f80fd5b806306e74444146100aa5780631cdf58b0146100d2578063380c3431146100fd578063490a86531461012a5780634973203d1461013f575b5f80fd5b6100bd6100b8366004610608565b610225565b60405190151581526020015b60405180910390f35b6100e56100e0366004610639565b610267565b6040516001600160a01b0390911681526020016100c9565b6100bd61010b366004610608565b600360209081525f928352604080842090915290825290205460ff1681565b61013d610138366004610679565b6102d7565b005b6100e57f000000000000000000000000000000000000000000000000000000000000000081565b6100e57f000000000000000000000000000000000000000000000000000000000000000081565b61013d61019b366004610679565b61032c565b6100bd6101ae366004610679565b610384565b6100e56101c1366004610639565b610416565b5f546001546002546101e5926001600160a01b03908116928116911683565b604080516001600160a01b03948516815292841660208401529216918101919091526060016100c9565b6102176105b3565b6040519081526020016100c9565b6001600160a01b038083165f90815260036020908152604080832093851683529290529081205460ff16158015610260575061026082610384565b9392505050565b604080515f858152602085905283835260608120919092525f60405180602001610290906105e0565b601f1982820381018352601f909101166040818152825160209384012060ff60a01b30175f52949092529281526055600b20929052506001600160a01b0316949350505050565b335f8181526003602090815260408083206001600160a01b0386168085529252808320805460ff19169055519092917f23bb3a3ab36fcdc5884abde2529508c7edd18ebea79d7213cd6632c71086216e91a350565b335f8181526003602090815260408083206001600160a01b0386168085529252808320805460ff19166001179055519092917ff7314dc6493fd11dd1939dc062aeea73f1c783016ddb31776a402712098e5db591a350565b60405163df592f7d60e01b81526001600160a01b0382811660048301525f917f00000000000000000000000000000000000000000000000000000000000000009091169063df592f7d90602401602060405180830381865afa1580156103ec573d5f803e3d5ffd5b505050506040513d601f19601f820116820180604052508101906104109190610692565b92915050565b5f610422848484610267565b9050806001600160a01b03163b5f036102605760408051606080820183526001600160a01b0387811680845287821660208086018290529288169486018590525f80546001600160a01b03199081169093178155600180548416909217909155600280549092169094179055835188845290879052858452912091526040516104aa906105e0565b8190604051809103905ff59050801580156104c7573d5f803e3d5ffd5b5050816001600160a01b0316836001600160a01b0316856001600160a01b03167f23e05aa548aba14c84d0a45e65bab80c7409d1a00129f53cfdf85bed0b5fbb2560405160405180910390a46001600160a01b038085165f81815260036020908152604080832094861680845294909152808220805460ff19166001179055517ff7314dc6493fd11dd1939dc062aeea73f1c783016ddb31776a402712098e5db59190a36102606040805160608101825260018082526020820181905291018190525f80546001600160a01b031990811683179091558154811682178255600280549091169091179055565b6040516105c2602082016105e0565b6020820181038252601f19601f820116604052508051906020012081565b6105b1806106b283390190565b80356001600160a01b0381168114610603575f80fd5b919050565b5f8060408385031215610619575f80fd5b610622836105ed565b9150610630602084016105ed565b90509250929050565b5f805f6060848603121561064b575f80fd5b610654846105ed565b9250610662602085016105ed565b9150610670604085016105ed565b90509250925092565b5f60208284031215610689575f80fd5b610260826105ed565b5f602082840312156106a2575f80fd5b81518015158114610260575f80fdfe610100604052348015610010575f80fd5b503360808190526040805163163ac4cd60e31b8152905163b1d62668916004808201926060929091908290030181865afa158015610050573d5f803e3d5ffd5b505050506040513d601f19601f8201168201806040525081019061007491906100ac565b6001600160a01b0390811660e05290811660c0521660a0526100ec565b80516001600160a01b03811681146100a7575f80fd5b919050565b5f805f606084860312156100be575f80fd5b6100c784610091565b92506100d560208501610091565b91506100e360408501610091565b90509250925092565b60805160a05160c05160e05161046a6101475f395f8181610173015281816101f4015261036a01525f818160af015281816101d301526102b801525f818160f8015261029001525f818161014d01526102e2015261046a5ff3fe608060405234801561000f575f80fd5b506004361061007a575f3560e01c80637df1f1b9116100585780637df1f1b9146100f3578063a4972b471461011a578063b69ef8a814610132578063f58c251c14610148575f80fd5b80633d02b19c1461007e5780635dab2420146100aa578063757a5543146100e9575b5f80fd5b61008661016f565b604080516001600160a01b0390931683526020830191909152015b60405180910390f35b6100d17f000000000000000000000000000000000000000000000000000000000000000081565b6040516001600160a01b0390911681526020016100a1565b6100f16101a2565b005b6100d17f000000000000000000000000000000000000000000000000000000000000000081565b610122610279565b60405190151581526020016100a1565b61013a610353565b6040519081526020016100a1565b6100d17f000000000000000000000000000000000000000000000000000000000000000081565b5f807f000000000000000000000000000000000000000000000000000000000000000061019a610353565b915091509091565b6101aa610279565b6101c6576040516268221d60e41b815260040160405180910390fd5b5f6101cf610353565b90507f00000000000000000000000000000000000000000000000000000000000000007f00000000000000000000000000000000000000000000000000000000000000006102276001600160a01b03821683856103e0565b806001600160a01b0316826001600160a01b03167fddb6c73499c01e62ac80461b3609b0aa26779cb2da76ed6eff1f3e11ebae23488560405161026c91815260200190565b60405180910390a3505050565b6040516301b9d11160e21b81526001600160a01b037f0000000000000000000000000000000000000000000000000000000000000000811660048301527f0000000000000000000000000000000000000000000000000000000000000000811660248301525f917f0000000000000000000000000000000000000000000000000000000000000000909116906306e7444490604401602060405180830381865afa158015610329573d5f803e3d5ffd5b505050506040513d601f19601f8201168201806040525081019061034d9190610420565b15905090565b6040516370a0823160e01b81523060048201525f907f00000000000000000000000000000000000000000000000000000000000000006001600160a01b0316906370a0823190602401602060405180830381865afa1580156103b7573d5f803e3d5ffd5b505050506040513d601f19601f820116820180604052508101906103db9190610446565b905090565b816014528060345263a9059cbb60601b5f5260205f604460105f875af13d1560015f51141716610417576390b8ec185f526004601cfd5b5f603452505050565b5f60208284031215610430575f80fd5b8151801515811461043f575f80fd5b9392505050565b5f60208284031215610456575f80fd5b505191905056fea164736f6c6343000819000aa164736f6c6343000819000a60e060405234801561000f575f80fd5b506040518060400160405280600981526020016804d6f636b45524332360bc1b815250604051806040016040528060048152602001634d45524360e01b8152506012825f908161005f91906101bc565b50600161006c83826101bc565b5060ff81166080524660a05261008061008c565b60c052506102ed915050565b5f7f8b73c3c69bb8fe3d512ecc4cf759cc79239f7b179b0ffacaa9a75d522b39400f5f6040516100bc919061027b565b6040805191829003822060208301939093528101919091527fc89efdaa54c0f20c7adf612882df0950f5a951637e0307cdcb4c672f298b8bc660608201524660808201523060a082015260c00160405160208183030381529060405280519060200120905090565b634e487b7160e01b5f52604160045260245ffd5b600181811c9082168061014c57607f821691505b60208210810361016a57634e487b7160e01b5f52602260045260245ffd5b50919050565b601f8211156101b757805f5260205f20601f840160051c810160208510156101955750805b601f840160051c820191505b818110156101b4575f81556001016101a1565b50505b505050565b81516001600160401b038111156101d5576101d5610124565b6101e9816101e38454610138565b84610170565b602080601f83116001811461021c575f84156102055750858301515b5f19600386901b1c1916600185901b178555610273565b5f85815260208120601f198616915b8281101561024a5788860151825594840194600190910190840161022b565b508582101561026757878501515f19600388901b60f8161c191681555b505060018460011b0185555b505050505050565b5f80835461028881610138565b600182811680156102a057600181146102b5576102e1565b60ff19841687528215158302870194506102e1565b875f526020805f205f5b858110156102d85781548a8201529084019082016102bf565b50505082870194505b50929695505050505050565b60805160a05160c051610ac56103175f395f61044201525f61040d01525f61013f0152610ac55ff3fe608060405234801561000f575f80fd5b50600436106100cb575f3560e01c806340c10f191161008857806395d89b411161006357806395d89b41146101ce578063a9059cbb146101d6578063d505accf146101e9578063dd62ed3e146101fc575f80fd5b806340c10f191461017b57806370a08231146101905780637ecebe00146101af575f80fd5b806306fdde03146100cf578063095ea7b3146100ed57806318160ddd1461011057806323b872dd14610127578063313ce5671461013a5780633644e51514610173575b5f80fd5b6100d7610226565b6040516100e49190610839565b60405180910390f35b6101006100fb366004610889565b6102b1565b60405190151581526020016100e4565b61011960025481565b6040519081526020016100e4565b6101006101353660046108b1565b61031d565b6101617f000000000000000000000000000000000000000000000000000000000000000081565b60405160ff90911681526020016100e4565b61011961040a565b61018e610189366004610889565b610464565b005b61011961019e3660046108ea565b60036020525f908152604090205481565b6101196101bd3660046108ea565b60056020525f908152604090205481565b6100d7610472565b6101006101e4366004610889565b61047f565b61018e6101f736600461090a565b6104f5565b61011961020a366004610977565b600460209081525f928352604080842090915290825290205481565b5f8054610232906109a8565b80601f016020809104026020016040519081016040528092919081815260200182805461025e906109a8565b80156102a95780601f10610280576101008083540402835291602001916102a9565b820191905f5260205f20905b81548152906001019060200180831161028c57829003601f168201915b505050505081565b335f8181526004602090815260408083206001600160a01b038716808552925280832085905551919290917f8c5be1e5ebec7d5bd14f71427d1e84f3dd0314c0f7b2291e5b200ac8c7c3b9259061030b9086815260200190565b60405180910390a35060015b92915050565b6001600160a01b0383165f9081526004602090815260408083203384529091528120545f1981146103765761035283826109f4565b6001600160a01b0386165f9081526004602090815260408083203384529091529020555b6001600160a01b0385165f908152600360205260408120805485929061039d9084906109f4565b90915550506001600160a01b038085165f81815260036020526040908190208054870190555190918716907fddf252ad1be2c89b69c2b068fc378daa952ba7f163c4a11628f55a4df523b3ef906103f79087815260200190565b60405180910390a3506001949350505050565b5f7f0000000000000000000000000000000000000000000000000000000000000000461461043f5761043a610738565b905090565b507f000000000000000000000000000000000000000000000000000000000000000090565b61046e82826107d0565b5050565b60018054610232906109a8565b335f9081526003602052604081208054839190839061049f9084906109f4565b90915550506001600160a01b0383165f81815260036020526040908190208054850190555133907fddf252ad1be2c89b69c2b068fc378daa952ba7f163c4a11628f55a4df523b3ef9061030b9086815260200190565b4284101561054a5760405162461bcd60e51b815260206004820152601760248201527f5045524d49545f444541444c494e455f4558504952454400000000000000000060448201526064015b60405180910390fd5b5f600161055561040a565b6001600160a01b038a81165f8181526005602090815260409182902080546001810190915582517f6e71edae12b1b97f4d1f60370fef10105fa2faae0126114a169c64845d6126c98184015280840194909452938d166060840152608083018c905260a083019390935260c08083018b90528151808403909101815260e08301909152805192019190912061190160f01b6101008301526101028201929092526101228101919091526101420160408051601f1981840301815282825280516020918201205f84529083018083525260ff871690820152606081018590526080810184905260a0016020604051602081039080840390855afa15801561065d573d5f803e3d5ffd5b5050604051601f1901519150506001600160a01b038116158015906106935750876001600160a01b0316816001600160a01b0316145b6106d05760405162461bcd60e51b815260206004820152600e60248201526d24a72b20a624a22fa9a4a3a722a960911b6044820152606401610541565b6001600160a01b039081165f9081526004602090815260408083208a8516808552908352928190208990555188815291928a16917f8c5be1e5ebec7d5bd14f71427d1e84f3dd0314c0f7b2291e5b200ac8c7c3b925910160405180910390a350505050505050565b5f7f8b73c3c69bb8fe3d512ecc4cf759cc79239f7b179b0ffacaa9a75d522b39400f5f6040516107689190610a07565b6040805191829003822060208301939093528101919091527fc89efdaa54c0f20c7adf612882df0950f5a951637e0307cdcb4c672f298b8bc660608201524660808201523060a082015260c00160405160208183030381529060405280519060200120905090565b8060025f8282546107e19190610aa5565b90915550506001600160a01b0382165f818152600360209081526040808320805486019055518481527fddf252ad1be2c89b69c2b068fc378daa952ba7f163c4a11628f55a4df523b3ef910160405180910390a35050565b602081525f82518060208401528060208501604085015e5f604082850101526040601f19601f83011684010191505092915050565b80356001600160a01b0381168114610884575f80fd5b919050565b5f806040838503121561089a575f80fd5b6108a38361086e565b946020939093013593505050565b5f805f606084860312156108c3575f80fd5b6108cc8461086e565b92506108da6020850161086e565b9150604084013590509250925092565b5f602082840312156108fa575f80fd5b6109038261086e565b9392505050565b5f805f805f805f60e0888a031215610920575f80fd5b6109298861086e565b96506109376020890161086e565b95506040880135945060608801359350608088013560ff8116811461095a575f80fd5b9699959850939692959460a0840135945060c09093013592915050565b5f8060408385031215610988575f80fd5b6109918361086e565b915061099f6020840161086e565b90509250929050565b600181811c908216806109bc57607f821691505b6020821081036109da57634e487b7160e01b5f52602260045260245ffd5b50919050565b634e487b7160e01b5f52601160045260245ffd5b81810381811115610317576103176109e0565b5f8083545f60018260011c91506001831680610a2457607f831692505b60208084108203610a4357634e487b7160e01b5f52602260045260245ffd5b818015610a575760018114610a6c57610a97565b60ff1986168952841515850289019650610a97565b5f8a8152602090205f5b86811015610a8f5781548b820152908501908301610a76565b505084890196505b509498975050505050505050565b80820180821115610317576103176109e056fea164736f6c6343000819000a610100604052348015610010575f80fd5b503360808190526040805163163ac4cd60e31b8152905163b1d62668916004808201926060929091908290030181865afa158015610050573d5f803e3d5ffd5b505050506040513d601f19601f8201168201806040525081019061007491906100ac565b6001600160a01b0390811660e05290811660c0521660a0526100ec565b80516001600160a01b03811681146100a7575f80fd5b919050565b5f805f606084860312156100be575f80fd5b6100c784610091565b92506100d560208501610091565b91506100e360408501610091565b90509250925092565b60805160a05160c05160e05161046a6101475f395f8181610173015281816101f4015261036a01525f818160af015281816101d301526102b801525f818160f8015261029001525f818161014d01526102e2015261046a5ff3fe608060405234801561000f575f80fd5b506004361061007a575f3560e01c80637df1f1b9116100585780637df1f1b9146100f3578063a4972b471461011a578063b69ef8a814610132578063f58c251c14610148575f80fd5b80633d02b19c1461007e5780635dab2420146100aa578063757a5543146100e9575b5f80fd5b61008661016f565b604080516001600160a01b0390931683526020830191909152015b60405180910390f35b6100d17f000000000000000000000000000000000000000000000000000000000000000081565b6040516001600160a01b0390911681526020016100a1565b6100f16101a2565b005b6100d17f000000000000000000000000000000000000000000000000000000000000000081565b610122610279565b60405190151581526020016100a1565b61013a610353565b6040519081526020016100a1565b6100d17f000000000000000000000000000000000000000000000000000000000000000081565b5f807f000000000000000000000000000000000000000000000000000000000000000061019a610353565b915091509091565b6101aa610279565b6101c6576040516268221d60e41b815260040160405180910390fd5b5f6101cf610353565b90507f00000000000000000000000000000000000000000000000000000000000000007f00000000000000000000000000000000000000000000000000000000000000006102276001600160a01b03821683856103e0565b806001600160a01b0316826001600160a01b03167fddb6c73499c01e62ac80461b3609b0aa26779cb2da76ed6eff1f3e11ebae23488560405161026c91815260200190565b60405180910390a3505050565b6040516301b9d11160e21b81526001600160a01b037f0000000000000000000000000000000000000000000000000000000000000000811660048301527f0000000000000000000000000000000000000000000000000000000000000000811660248301525f917f0000000000000000000000000000000000000000000000000000000000000000909116906306e7444490604401602060405180830381865afa158015610329573d5f803e3d5ffd5b505050506040513d601f19601f8201168201806040525081019061034d9190610420565b15905090565b6040516370a0823160e01b81523060048201525f907f00000000000000000000000000000000000000000000000000000000000000006001600160a01b0316906370a0823190602401602060405180830381865afa1580156103b7573d5f803e3d5ffd5b505050506040513d601f19601f820116820180604052508101906103db9190610446565b905090565b816014528060345263a9059cbb60601b5f5260205f604460105f875af13d1560015f51141716610417576390b8ec185f526004601cfd5b5f603452505050565b5f60208284031215610430575f80fd5b8151801515811461043f575f80fd5b9392505050565b5f60208284031215610456575f80fd5b505191905056fea164736f6c6343000819000a608060405234801561000f575f80fd5b506004361061003f575f3560e01c8063298eb83f14610043578063df592f7d14610073578063ed986c6c146100a9575b5f80fd5b6100716100513660046100da565b6001600160a01b03165f908152602081905260409020805460ff19169055565b005b6100956100813660046100da565b5f6020819052908152604090205460ff1681565b604051901515815260200160405180910390f35b6100716100b73660046100da565b6001600160a01b03165f908152602081905260409020805460ff19166001179055565b5f602082840312156100ea575f80fd5b81356001600160a01b0381168114610100575f80fd5b939250505056fea164736f6c6343000819000a0000000000000000000000007109709ecfa91a80626ff3989d68f67f5b1dd12d73616e6374696f6e206f76657272696465206e6f742073657420666f7220657363726f7753616e6374696f6e206f766572726964652073686f756c642062652073657420666f7220657363726f77a164736f6c6343000819000a","linkReferences":{}},"methodIdentifiers":{"excludeArtifacts()":"b5508aa9","excludeContracts()":"e20c9f71","excludeSenders()":"1ed7831c","failed()":"ba414fa6","setUp()":"0a9254e4","targetArtifactSelectors()":"66d9a9a0","targetArtifacts()":"85226c81","targetContracts()":"3f7286f4","targetInterfaces()":"2ade3880","targetSelectors()":"916a17c6","targetSenders()":"3e5e3c23","testArchController()":"08af0fb6","testChainalysisSanctionsList()":"54bb0d4c","testCreateEscrow()":"dd41cbd3","testCreateEscrowAddressValidation()":"dafd7a54","testFuzzCreateEscrow(address,address,bytes32,uint256,bool)":"7d6f99cd","testFuzzGetEscrowAddress(address,address,address)":"d10b06c8","testFuzzIsSanctioned(address,bool,address,bool)":"ef7594bf","testGetEscrowAddress()":"90132d4e","testIsSanctioned()":"86eb5424","testRemoveSanctionOverride()":"137d563d","testSanctionOverride()":"cc3754e5","testWildcatSanctionsEscrowInitcodeHash()":"b589ed4f"},"id":60}