{"abi":[{"type":"function","name":"toUint104","inputs":[{"name":"x","type":"uint256","internalType":"uint256"}],"outputs":[{"name":"y","type":"uint104","internalType":"uint104"}],"stateMutability":"pure"},{"type":"function","name":"toUint112","inputs":[{"name":"x","type":"uint256","internalType":"uint256"}],"outputs":[{"name":"y","type":"uint112","internalType":"uint112"}],"stateMutability":"pure"},{"type":"function","name":"toUint120","inputs":[{"name":"x","type":"uint256","internalType":"uint256"}],"outputs":[{"name":"y","type":"uint120","internalType":"uint120"}],"stateMutability":"pure"},{"type":"function","name":"toUint128","inputs":[{"name":"x","type":"uint256","internalType":"uint256"}],"outputs":[{"name":"y","type":"uint128","internalType":"uint128"}],"stateMutability":"pure"},{"type":"function","name":"toUint136","inputs":[{"name":"x","type":"uint256","internalType":"uint256"}],"outputs":[{"name":"y","type":"uint136","internalType":"uint136"}],"stateMutability":"pure"},{"type":"function","name":"toUint144","inputs":[{"name":"x","type":"uint256","internalType":"uint256"}],"outputs":[{"name":"y","type":"uint144","internalType":"uint144"}],"stateMutability":"pure"},{"type":"function","name":"toUint152","inputs":[{"name":"x","type":"uint256","internalType":"uint256"}],"outputs":[{"name":"y","type":"uint152","internalType":"uint152"}],"stateMutability":"pure"},{"type":"function","name":"toUint16","inputs":[{"name":"x","type":"uint256","internalType":"uint256"}],"outputs":[{"name":"y","type":"uint16","internalType":"uint16"}],"stateMutability":"pure"},{"type":"function","name":"toUint160","inputs":[{"name":"x","type":"uint256","internalType":"uint256"}],"outputs":[{"name":"y","type":"uint160","internalType":"uint160"}],"stateMutability":"pure"},{"type":"function","name":"toUint168","inputs":[{"name":"x","type":"uint256","internalType":"uint256"}],"outputs":[{"name":"y","type":"uint168","internalType":"uint168"}],"stateMutability":"pure"},{"type":"function","name":"toUint176","inputs":[{"name":"x","type":"uint256","internalType":"uint256"}],"outputs":[{"name":"y","type":"uint176","internalType":"uint176"}],"stateMutability":"pure"},{"type":"function","name":"toUint184","inputs":[{"name":"x","type":"uint256","internalType":"uint256"}],"outputs":[{"name":"y","type":"uint184","internalType":"uint184"}],"stateMutability":"pure"},{"type":"function","name":"toUint192","inputs":[{"name":"x","type":"uint256","internalType":"uint256"}],"outputs":[{"name":"y","type":"uint192","internalType":"uint192"}],"stateMutability":"pure"},{"type":"function","name":"toUint200","inputs":[{"name":"x","type":"uint256","internalType":"uint256"}],"outputs":[{"name":"y","type":"uint200","internalType":"uint200"}],"stateMutability":"pure"},{"type":"function","name":"toUint208","inputs":[{"name":"x","type":"uint256","internalType":"uint256"}],"outputs":[{"name":"y","type":"uint208","internalType":"uint208"}],"stateMutability":"pure"},{"type":"function","name":"toUint216","inputs":[{"name":"x","type":"uint256","internalType":"uint256"}],"outputs":[{"name":"y","type":"uint216","internalType":"uint216"}],"stateMutability":"pure"},{"type":"function","name":"toUint224","inputs":[{"name":"x","type":"uint256","internalType":"uint256"}],"outputs":[{"name":"y","type":"uint224","internalType":"uint224"}],"stateMutability":"pure"},{"type":"function","name":"toUint232","inputs":[{"name":"x","type":"uint256","internalType":"uint256"}],"outputs":[{"name":"y","type":"uint232","internalType":"uint232"}],"stateMutability":"pure"},{"type":"function","name":"toUint24","inputs":[{"name":"x","type":"uint256","internalType":"uint256"}],"outputs":[{"name":"y","type":"uint24","internalType":"uint24"}],"stateMutability":"pure"},{"type":"function","name":"toUint240","inputs":[{"name":"x","type":"uint256","internalType":"uint256"}],"outputs":[{"name":"y","type":"uint240","internalType":"uint240"}],"stateMutability":"pure"},{"type":"function","name":"toUint248","inputs":[{"name":"x","type":"uint256","internalType":"uint256"}],"outputs":[{"name":"y","type":"uint248","internalType":"uint248"}],"stateMutability":"pure"},{"type":"function","name":"toUint32","inputs":[{"name":"x","type":"uint256","internalType":"uint256"}],"outputs":[{"name":"y","type":"uint32","internalType":"uint32"}],"stateMutability":"pure"},{"type":"function","name":"toUint40","inputs":[{"name":"x","type":"uint256","internalType":"uint256"}],"outputs":[{"name":"y","type":"uint40","internalType":"uint40"}],"stateMutability":"pure"},{"type":"function","name":"toUint48","inputs":[{"name":"x","type":"uint256","internalType":"uint256"}],"outputs":[{"name":"y","type":"uint48","internalType":"uint48"}],"stateMutability":"pure"},{"type":"function","name":"toUint56","inputs":[{"name":"x","type":"uint256","internalType":"uint256"}],"outputs":[{"name":"y","type":"uint56","internalType":"uint56"}],"stateMutability":"pure"},{"type":"function","name":"toUint64","inputs":[{"name":"x","type":"uint256","internalType":"uint256"}],"outputs":[{"name":"y","type":"uint64","internalType":"uint64"}],"stateMutability":"pure"},{"type":"function","name":"toUint72","inputs":[{"name":"x","type":"uint256","internalType":"uint256"}],"outputs":[{"name":"y","type":"uint72","internalType":"uint72"}],"stateMutability":"pure"},{"type":"function","name":"toUint8","inputs":[{"name":"x","type":"uint256","internalType":"uint256"}],"outputs":[{"name":"y","type":"uint8","internalType":"uint8"}],"stateMutability":"pure"},{"type":"function","name":"toUint80","inputs":[{"name":"x","type":"uint256","internalType":"uint256"}],"outputs":[{"name":"y","type":"uint80","internalType":"uint80"}],"stateMutability":"pure"},{"type":"function","name":"toUint88","inputs":[{"name":"x","type":"uint256","internalType":"uint256"}],"outputs":[{"name":"y","type":"uint88","internalType":"uint88"}],"stateMutability":"pure"},{"type":"function","name":"toUint96","inputs":[{"name":"x","type":"uint256","internalType":"uint256"}],"outputs":[{"name":"y","type":"uint96","internalType":"uint96"}],"stateMutability":"pure"}],"bytecode":{"object":"0x6080604052348015600e575f80fd5b506117068061001c5f395ff3fe608060405234801561000f575f80fd5b50600436106101e3575f3560e01c80637ef90ce01161010d578063b012db6f116100a0578063c81932551161006f578063c8193255146106f7578063cbff595f14610727578063dfef6beb14610757578063fb7f3c7914610787576101e3565b8063b012db6f14610637578063b936bfb314610667578063bb33fe0814610697578063c4b4298c146106c7576101e3565b80638c48fc22116100dc5780638c48fc22146105775780639374068f146105a757806395cb3ec6146105d7578063ad4b458a14610607576101e3565b80637ef90ce0146104b7578063809fdd33146104e7578063839838381461051757806385bb6ae114610547576101e3565b80633b70309011610185578063564121c711610154578063564121c7146103f75780635bb7986014610427578063720ad67414610457578063785de9bf14610487576101e3565b80633b703090146103375780633fd726721461036757806341d2aa641461039757806354c23feb146103c7576101e3565b80631cf887fc116101c15780631cf887fc146102775780631e4e4bad146102a75780632665fad0146102d7578063316fcbbd14610307576101e3565b806305b13101146101e75780630cc4681e146102175780630d4a7bdb14610247575b5f80fd5b61020160048036038101906101fc9190610eb1565b6107b7565b60405161020e9190610f0c565b60405180910390f35b610231600480360381019061022c9190610eb1565b6107c8565b60405161023e9190610f40565b60405180910390f35b610261600480360381019061025c9190610eb1565b6107d9565b60405161026e9190610f90565b60405180910390f35b610291600480360381019061028c9190610eb1565b6107ea565b60405161029e9190610fcf565b60405180910390f35b6102c160048036038101906102bc9190610eb1565b6107fb565b6040516102ce9190611011565b60405180910390f35b6102f160048036038101906102ec9190610eb1565b61080c565b6040516102fe919061104c565b60405180910390f35b610321600480360381019061031c9190610eb1565b61081d565b60405161032e9190611088565b60405180910390f35b610351600480360381019061034c9190610eb1565b61082e565b60405161035e91906110d9565b60405180910390f35b610381600480360381019061037c9190610eb1565b61083f565b60405161038e919061112b565b60405180910390f35b6103b160048036038101906103ac9190610eb1565b610850565b6040516103be919061116c565b60405180910390f35b6103e160048036038101906103dc9190610eb1565b610861565b6040516103ee91906111b4565b60405180910390f35b610411600480360381019061040c9190610eb1565b610872565b60405161041e91906111fe565b60405180910390f35b610441600480360381019061043c9190610eb1565b610883565b60405161044e919061124d565b60405180910390f35b610471600480360381019061046c9190610eb1565b610894565b60405161047e9190611299565b60405180910390f35b6104a1600480360381019061049c9190610eb1565b6108a5565b6040516104ae91906112e4565b60405180910390f35b6104d160048036038101906104cc9190610eb1565b6108b6565b6040516104de9190611322565b60405180910390f35b61050160048036038101906104fc9190610eb1565b6108c7565b60405161050e9190611365565b60405180910390f35b610531600480360381019061052c9190610eb1565b6108d8565b60405161053e91906113a5565b60405180910390f35b610561600480360381019061055c9190610eb1565b6108e9565b60405161056e91906113f3565b60405180910390f35b610591600480360381019061058c9190610eb1565b6108fa565b60405161059e9190611439565b60405180910390f35b6105c160048036038101906105bc9190610eb1565b61090b565b6040516105ce919061146e565b60405180910390f35b6105f160048036038101906105ec9190610eb1565b61091c565b6040516105fe91906114a4565b60405180910390f35b610621600480360381019061061c9190610eb1565b61092d565b60405161062e91906114e8565b60405180910390f35b610651600480360381019061064c9190610eb1565b61093e565b60405161065e9190611521565b60405180910390f35b610681600480360381019061067c9190610eb1565b61094f565b60405161068e9190611566565b60405180910390f35b6106b160048036038101906106ac9190610eb1565b610960565b6040516106be91906115b3565b60405180910390f35b6106e160048036038101906106dc9190610eb1565b610971565b6040516106ee91906115ed565b60405180910390f35b610711600480360381019061070c9190610eb1565b610982565b60405161071e9190611624565b60405180910390f35b610741600480360381019061073c9190610eb1565b610993565b60405161074e9190611661565b60405180910390f35b610771600480360381019061076c9190610eb1565b6109a4565b60405161077e91906116a8565b60405180910390f35b6107a1600480360381019061079c9190610eb1565b6109b5565b6040516107ae91906116e0565b60405180910390f35b5f6107c1826109c6565b9050919050565b5f6107d2826109f2565b9050919050565b5f6107e382610a09565b9050919050565b5f6107f482610a3c565b9050919050565b5f61080582610a5e565b9050919050565b5f61081682610a83565b9050919050565b5f61082782610aa1565b9050919050565b5f61083882610ac0565b9050919050565b5f61084982610af4565b9050919050565b5f61085a82610b29565b9050919050565b5f61086b82610b4d565b9050919050565b5f61087c82610b78565b9050919050565b5f61088d82610ba5565b9050919050565b5f61089e82610bd7565b9050919050565b5f6108af82610c06565b9050919050565b5f6108c082610c34565b9050919050565b5f6108d182610c55565b9050919050565b5f6108e282610c7b565b9050919050565b5f6108f382610c9e565b9050919050565b5f61090482610ccf565b9050919050565b5f61091582610cf8565b9050919050565b5f61092682610d10565b9050919050565b5f61093782610d29565b9050919050565b5f61094882610d50565b9050919050565b5f61095982610d6c565b9050919050565b5f61096a82610d94565b9050919050565b5f61097b82610dc4565b9050919050565b5f61098c82610de1565b9050919050565b5f61099d82610dfb565b9050919050565b5f6109ae82610e1b565b9050919050565b5f6109bf82610e45565b9050919050565b5f6109ed8291508175ffffffffffffffffffffffffffffffffffffffffffff168314610e60565b919050565b5f610a048291508160ff168314610e60565b919050565b5f610a37829150817cffffffffffffffffffffffffffffffffffffffffffffffffffffffffff168314610e60565b919050565b5f610a59829150816bffffffffffffffffffffffff168314610e60565b919050565b5f610a7e829150816effffffffffffffffffffffffffffff168314610e60565b919050565b5f610a9c8291508167ffffffffffffffff168314610e60565b919050565b5f610abb8291508168ffffffffffffffffff168314610e60565b919050565b5f610aef829150817dffffffffffffffffffffffffffffffffffffffffffffffffffffffffffff168314610e60565b919050565b5f610b24829150817effffffffffffffffffffffffffffffffffffffffffffffffffffffffffffff168314610e60565b919050565b5f610b48829150816dffffffffffffffffffffffffffff168314610e60565b919050565b5f610b738291508174ffffffffffffffffffffffffffffffffffffffffff168314610e60565b919050565b5f610ba08291508176ffffffffffffffffffffffffffffffffffffffffffffff168314610e60565b919050565b5f610bd2829150817bffffffffffffffffffffffffffffffffffffffffffffffffffffffff168314610e60565b919050565b5f610c018291508178ffffffffffffffffffffffffffffffffffffffffffffffffff168314610e60565b919050565b5f610c2f8291508177ffffffffffffffffffffffffffffffffffffffffffffffff168314610e60565b919050565b5f610c50829150816affffffffffffffffffffff168314610e60565b919050565b5f610c76829150816fffffffffffffffffffffffffffffffff168314610e60565b919050565b5f610c99829150816cffffffffffffffffffffffffff168314610e60565b919050565b5f610cca829150817affffffffffffffffffffffffffffffffffffffffffffffffffffff168314610e60565b919050565b5f610cf38291508172ffffffffffffffffffffffffffffffffffffff168314610e60565b919050565b5f610d0b8291508161ffff168314610e60565b919050565b5f610d248291508162ffffff168314610e60565b919050565b5f610d4b8291508170ffffffffffffffffffffffffffffffffff168314610e60565b919050565b5f610d678291508165ffffffffffff168314610e60565b919050565b5f610d8f8291508171ffffffffffffffffffffffffffffffffffff168314610e60565b919050565b5f610dbf8291508179ffffffffffffffffffffffffffffffffffffffffffffffffffff168314610e60565b919050565b5f610ddc8291508166ffffffffffffff168314610e60565b919050565b5f610df68291508163ffffffff168314610e60565b919050565b5f610e168291508169ffffffffffffffffffff168314610e60565b919050565b5f610e408291508173ffffffffffffffffffffffffffffffffffffffff168314610e60565b919050565b5f610e5b8291508164ffffffffff168314610e60565b919050565b80610e7757634e487b715f5260116020526024601cfd5b50565b5f80fd5b5f819050919050565b610e9081610e7e565b8114610e9a575f80fd5b50565b5f81359050610eab81610e87565b92915050565b5f60208284031215610ec657610ec5610e7a565b5b5f610ed384828501610e9d565b91505092915050565b5f75ffffffffffffffffffffffffffffffffffffffffffff82169050919050565b610f0681610edc565b82525050565b5f602082019050610f1f5f830184610efd565b92915050565b5f60ff82169050919050565b610f3a81610f25565b82525050565b5f602082019050610f535f830184610f31565b92915050565b5f7cffffffffffffffffffffffffffffffffffffffffffffffffffffffffff82169050919050565b610f8a81610f59565b82525050565b5f602082019050610fa35f830184610f81565b92915050565b5f6bffffffffffffffffffffffff82169050919050565b610fc981610fa9565b82525050565b5f602082019050610fe25f830184610fc0565b92915050565b5f6effffffffffffffffffffffffffffff82169050919050565b61100b81610fe8565b82525050565b5f6020820190506110245f830184611002565b92915050565b5f67ffffffffffffffff82169050919050565b6110468161102a565b82525050565b5f60208201905061105f5f83018461103d565b92915050565b5f68ffffffffffffffffff82169050919050565b61108281611065565b82525050565b5f60208201905061109b5f830184611079565b92915050565b5f7dffffffffffffffffffffffffffffffffffffffffffffffffffffffffffff82169050919050565b6110d3816110a1565b82525050565b5f6020820190506110ec5f8301846110ca565b92915050565b5f7effffffffffffffffffffffffffffffffffffffffffffffffffffffffffffff82169050919050565b611125816110f2565b82525050565b5f60208201905061113e5f83018461111c565b92915050565b5f6dffffffffffffffffffffffffffff82169050919050565b61116681611144565b82525050565b5f60208201905061117f5f83018461115d565b92915050565b5f74ffffffffffffffffffffffffffffffffffffffffff82169050919050565b6111ae81611185565b82525050565b5f6020820190506111c75f8301846111a5565b92915050565b5f76ffffffffffffffffffffffffffffffffffffffffffffff82169050919050565b6111f8816111cd565b82525050565b5f6020820190506112115f8301846111ef565b92915050565b5f7bffffffffffffffffffffffffffffffffffffffffffffffffffffffff82169050919050565b61124781611217565b82525050565b5f6020820190506112605f83018461123e565b92915050565b5f78ffffffffffffffffffffffffffffffffffffffffffffffffff82169050919050565b61129381611266565b82525050565b5f6020820190506112ac5f83018461128a565b92915050565b5f77ffffffffffffffffffffffffffffffffffffffffffffffff82169050919050565b6112de816112b2565b82525050565b5f6020820190506112f75f8301846112d5565b92915050565b5f6affffffffffffffffffffff82169050919050565b61131c816112fd565b82525050565b5f6020820190506113355f830184611313565b92915050565b5f6fffffffffffffffffffffffffffffffff82169050919050565b61135f8161133b565b82525050565b5f6020820190506113785f830184611356565b92915050565b5f6cffffffffffffffffffffffffff82169050919050565b61139f8161137e565b82525050565b5f6020820190506113b85f830184611396565b92915050565b5f7affffffffffffffffffffffffffffffffffffffffffffffffffffff82169050919050565b6113ed816113be565b82525050565b5f6020820190506114065f8301846113e4565b92915050565b5f72ffffffffffffffffffffffffffffffffffffff82169050919050565b6114338161140c565b82525050565b5f60208201905061144c5f83018461142a565b92915050565b5f61ffff82169050919050565b61146881611452565b82525050565b5f6020820190506114815f83018461145f565b92915050565b5f62ffffff82169050919050565b61149e81611487565b82525050565b5f6020820190506114b75f830184611495565b92915050565b5f70ffffffffffffffffffffffffffffffffff82169050919050565b6114e2816114bd565b82525050565b5f6020820190506114fb5f8301846114d9565b92915050565b5f65ffffffffffff82169050919050565b61151b81611501565b82525050565b5f6020820190506115345f830184611512565b92915050565b5f71ffffffffffffffffffffffffffffffffffff82169050919050565b6115608161153a565b82525050565b5f6020820190506115795f830184611557565b92915050565b5f79ffffffffffffffffffffffffffffffffffffffffffffffffffff82169050919050565b6115ad8161157f565b82525050565b5f6020820190506115c65f8301846115a4565b92915050565b5f66ffffffffffffff82169050919050565b6115e7816115cc565b82525050565b5f6020820190506116005f8301846115de565b92915050565b5f63ffffffff82169050919050565b61161e81611606565b82525050565b5f6020820190506116375f830184611615565b92915050565b5f69ffffffffffffffffffff82169050919050565b61165b8161163d565b82525050565b5f6020820190506116745f830184611652565b92915050565b5f73ffffffffffffffffffffffffffffffffffffffff82169050919050565b6116a28161167a565b82525050565b5f6020820190506116bb5f830184611699565b92915050565b5f64ffffffffff82169050919050565b6116da816116c1565b82525050565b5f6020820190506116f35f8301846116d1565b9291505056fea164736f6c6343000819000a","linkReferences":{}},"methodIdentifiers":{"toUint104(uint256)":"83983838","toUint112(uint256)":"41d2aa64","toUint120(uint256)":"1e4e4bad","toUint128(uint256)":"809fdd33","toUint136(uint256)":"ad4b458a","toUint144(uint256)":"b936bfb3","toUint152(uint256)":"8c48fc22","toUint16(uint256)":"9374068f","toUint160(uint256)":"dfef6beb","toUint168(uint256)":"54c23feb","toUint176(uint256)":"05b13101","toUint184(uint256)":"564121c7","toUint192(uint256)":"785de9bf","toUint200(uint256)":"720ad674","toUint208(uint256)":"bb33fe08","toUint216(uint256)":"85bb6ae1","toUint224(uint256)":"5bb79860","toUint232(uint256)":"0d4a7bdb","toUint24(uint256)":"95cb3ec6","toUint240(uint256)":"3b703090","toUint248(uint256)":"3fd72672","toUint32(uint256)":"c8193255","toUint40(uint256)":"fb7f3c79","toUint48(uint256)":"b012db6f","toUint56(uint256)":"c4b4298c","toUint64(uint256)":"2665fad0","toUint72(uint256)":"316fcbbd","toUint8(uint256)":"0cc4681e","toUint80(uint256)":"cbff595f","toUint88(uint256)":"7ef90ce0","toUint96(uint256)":"1cf887fc"},"id":136}