{"abi":[{"type":"constructor","inputs":[{"name":"_archController","type":"address","internalType":"contract WildcatArchController"}],"stateMutability":"nonpayable"},{"type":"function","name":"addAllowedSenderOnChain","inputs":[{"name":"sender","type":"address","internalType":"address"}],"outputs":[],"stateMutability":"nonpayable"},{"type":"function","name":"sphereXValidatePost","inputs":[{"name":"num","type":"int256","internalType":"int256"},{"name":"gas","type":"uint256","internalType":"uint256"},{"name":"valuesBefore","type":"bytes32[]","internalType":"bytes32[]"},{"name":"valuesAfter","type":"bytes32[]","internalType":"bytes32[]"}],"outputs":[],"stateMutability":"nonpayable"},{"type":"function","name":"sphereXValidatePre","inputs":[{"name":"num","type":"int256","internalType":"int256"},{"name":"sender","type":"address","internalType":"address"},{"name":"data","type":"bytes","internalType":"bytes"}],"outputs":[{"name":"storageSlots","type":"bytes32[]","internalType":"bytes32[]"}],"stateMutability":"nonpayable"},{"type":"function","name":"supportsInterface","inputs":[{"name":"interfaceId","type":"bytes4","internalType":"bytes4"}],"outputs":[{"name":"","type":"bool","internalType":"bool"}],"stateMutability":"pure"},{"type":"event","name":"NewSenderOnEngine","inputs":[{"name":"sender","type":"address","indexed":false,"internalType":"address"}],"anonymous":false}],"bytecode":{"object":"0x6080604052348015600e575f80fd5b50604051610fb6380380610fb6833981016040819052602b91604e565b5f80546001600160a01b0319166001600160a01b03929092169190911790556079565b5f60208284031215605d575f80fd5b81516001600160a01b03811681146072575f80fd5b9392505050565b610f30806100865f395ff3fe608060405234801561000f575f80fd5b506004361061004a575f3560e01c806301ffc9a71461004e57806311ede2e6146100775780638925ca5a1461008c578063f0bd9468146100ac575b5f80fd5b61006261005c366004610c22565b50600190565b60405190151581526020015b60405180910390f35b61008a610085366004610c66565b6100bf565b005b61009f61009a366004610c7f565b610159565b60405161006e9190610cff565b61008a6100ba366004610d8a565b61043f565b6001600160a01b03811661011a5760405162461bcd60e51b815260206004820152601a60248201527f4d6f636b456e67696e653a2073656e646572206973207a65726f00000000000060448201526064015b60405180910390fd5b6040516001600160a01b03821681527f8ae442dc772a9633ae87e53b912b61c96ab137f198394a033a3641c76ba0915c9060200160405180910390a150565b60605f80516020610f048339815191525f1c6001600160a01b031663d1a5b36f6040518163ffffffff1660e01b81526004015f604051808303815f87803b1580156101a2575f80fd5b505af11580156101b4573d5f803e3d5ffd5b505050506101e460405180606001604052805f6001600160a01b0316815260200160608152602001606081525090565b338082526101f19061090f565b6020820181905280519092501561032a57815167ffffffffffffffff81111561021c5761021c610e07565b604051908082528060200260200182016040528015610245578160200160208202803683370190505b5060408201525f5b8251811015610328575f80516020610f048339815191525f1c6001600160a01b031663667f9d703385848151811061028757610287610e1b565b60200260200101516040518363ffffffff1660e01b81526004016102c09291906001600160a01b03929092168252602082015260400190565b602060405180830381865afa1580156102db573d5f803e3d5ffd5b505050506040513d601f19601f820116820180604052508101906102ff9190610e2f565b8260400151828151811061031557610315610e1b565b602090810291909101015260010161024d565b505b6001805480820182555f9190915281517fb10e2d527612073b26eecdfd717e6a320cf44b4afac2b0732d9fcbe2b7fa0cf6600390920291820180546001600160a01b0319166001600160a01b03909216919091178155602080840151805185946103ba937fb10e2d527612073b26eecdfd717e6a320cf44b4afac2b0732d9fcbe2b7fa0cf7909101920190610ba7565b50604082015180516103d6916002840191602090910190610ba7565b5050505f80516020610f048339815191525f1c6001600160a01b0316632bcd50e06040518163ffffffff1660e01b81526004015f604051808303815f87803b158015610420575f80fd5b505af1158015610432573d5f803e3d5ffd5b5050505050949350505050565b5f80516020610f048339815191525f1c6001600160a01b031663d1a5b36f6040518163ffffffff1660e01b81526004015f604051808303815f87803b158015610486575f80fd5b505af1158015610498573d5f803e3d5ffd5b50506001541515915061050190505760405162461bcd60e51b815260206004820152602960248201527f4d6f636b456e67696e653a20756e65787065637465642063616368656443616c6044820152680d8e640d8cadccee8d60bb1b6064820152608401610111565b600180545f9190610513908290610e5a565b8154811061052357610523610e1b565b5f91825260209182902060408051606081018252600390930290910180546001600160a01b0316835260018101805483518187028101870190945280845293949193858301939283018282801561059757602002820191905f5260205f20905b815481526020019060010190808311610583575b50505050508152602001600282018054806020026020016040519081016040528092919081815260200182805480156105ed57602002820191905f5260205f20905b8154815260200190600101908083116105d9575b5050509190925250505060208101518151919250906001600160a01b031633146106595760405162461bcd60e51b815260206004820152601d60248201527f4d6f636b456e67696e653a20756e65787065637465642073656e6465720000006044820152606401610111565b805185146106795760405162461bcd60e51b815260040161011190610e73565b805183146106995760405162461bcd60e51b815260040161011190610e73565b5f5b8151811015610856578686828181106106b6576106b6610e1b565b90506020020135836040015182815181106106d3576106d3610e1b565b6020026020010151146107345760405162461bcd60e51b815260206004820152602360248201527f4d6f636b456e67696e653a20756e65787065637465642076616c7565206265666044820152626f726560e81b6064820152608401610111565b84848281811061074657610746610e1b565b905060200201355f80516020610f048339815191525f1c6001600160a01b031663667f9d703385858151811061077e5761077e610e1b565b60200260200101516040518363ffffffff1660e01b81526004016107b79291906001600160a01b03929092168252602082015260400190565b602060405180830381865afa1580156107d2573d5f803e3d5ffd5b505050506040513d601f19601f820116820180604052508101906107f69190610e2f565b1461084e5760405162461bcd60e51b815260206004820152602260248201527f4d6f636b456e67696e653a20756e65787065637465642076616c75652061667460448201526132b960f11b6064820152608401610111565b60010161069b565b50600180548061086857610868610ebd565b5f8281526020812060035f199093019283020180546001600160a01b0319168155906108976001830182610bf0565b6108a4600283015f610bf0565b505090555f80516020610f048339815191525f1c6001600160a01b0316632bcd50e06040518163ffffffff1660e01b81526004015f604051808303815f87803b1580156108ef575f80fd5b505af1158015610901573d5f803e3d5ffd5b505050505050505050505050565b5f5460405163252c724f60e11b81526001600160a01b0383811660048301526060921690634a58e49e90602401602060405180830381865afa158015610957573d5f803e3d5ffd5b505050506040513d601f19601f8201168201806040525081019061097b9190610ed1565b156109db576040805160078082526101008201909252906020820160e0803683370190505090505f5b60078110156109d557805f1b8282815181106109c2576109c2610e1b565b60209081029190910101526001016109a4565b50919050565b5f5460405163466e59f360e11b81526001600160a01b03848116600483015290911690638cdcb3e690602401602060405180830381865afa158015610a22573d5f803e3d5ffd5b505050506040513d601f19601f82011682018060405250810190610a469190610ed1565b15610aa95760408051600680825260e08201909252906020820160c0803683370190505090505f5b60068110156109d557610a82816004610ef0565b5f1b828281518110610a9657610a96610e1b565b6020908102919091010152600101610a6e565b5f5460405163099882f760e41b81526001600160a01b038481166004830152909116906399882f7090602401602060405180830381865afa158015610af0573d5f803e3d5ffd5b505050506040513d601f19601f82011682018060405250810190610b149190610ed1565b15610ba2576040805160038082526080820190925290602082016060803683370190505090505f801b815f81518110610b4f57610b4f610e1b565b60200260200101818152505060015f1b81600181518110610b7257610b72610e1b565b60200260200101818152505060045f1b81600281518110610b9557610b95610e1b565b6020026020010181815250505b919050565b828054828255905f5260205f20908101928215610be0579160200282015b82811115610be0578251825591602001919060010190610bc5565b50610bec929150610c0e565b5090565b5080545f8255905f5260205f2090810190610c0b9190610c0e565b50565b5b80821115610bec575f8155600101610c0f565b5f60208284031215610c32575f80fd5b81356001600160e01b031981168114610c49575f80fd5b9392505050565b80356001600160a01b0381168114610ba2575f80fd5b5f60208284031215610c76575f80fd5b610c4982610c50565b5f805f8060608587031215610c92575f80fd5b84359350610ca260208601610c50565b9250604085013567ffffffffffffffff80821115610cbe575f80fd5b818701915087601f830112610cd1575f80fd5b813581811115610cdf575f80fd5b886020828501011115610cf0575f80fd5b95989497505060200194505050565b602080825282518282018190525f9190848201906040850190845b81811015610d3657835183529284019291840191600101610d1a565b50909695505050505050565b5f8083601f840112610d52575f80fd5b50813567ffffffffffffffff811115610d69575f80fd5b6020830191508360208260051b8501011115610d83575f80fd5b9250929050565b5f805f805f8060808789031215610d9f575f80fd5b8635955060208701359450604087013567ffffffffffffffff80821115610dc4575f80fd5b610dd08a838b01610d42565b90965094506060890135915080821115610de8575f80fd5b50610df589828a01610d42565b979a9699509497509295939492505050565b634e487b7160e01b5f52604160045260245ffd5b634e487b7160e01b5f52603260045260245ffd5b5f60208284031215610e3f575f80fd5b5051919050565b634e487b7160e01b5f52601160045260245ffd5b81810381811115610e6d57610e6d610e46565b92915050565b6020808252602a908201527f4d6f636b456e67696e653a20756e65787065637465642073746f72616765536c6040820152690dee8e640d8cadccee8d60b31b606082015260800190565b634e487b7160e01b5f52603160045260245ffd5b5f60208284031215610ee1575f80fd5b81518015158114610c49575f80fd5b80820180821115610e6d57610e6d610e4656fe885cb69240a935d632d79c317109709ecfa91a80626ff3989d68f67f5b1dd12da164736f6c6343000819000a","linkReferences":{}},"methodIdentifiers":{"addAllowedSenderOnChain(address)":"11ede2e6","sphereXValidatePost(int256,uint256,bytes32[],bytes32[])":"f0bd9468","sphereXValidatePre(int256,address,bytes)":"8925ca5a","supportsInterface(bytes4)":"01ffc9a7"},"id":95}