{"abi":[{"type":"constructor","inputs":[],"stateMutability":"nonpayable"},{"type":"function","name":"account","inputs":[],"outputs":[{"name":"","type":"address","internalType":"address"}],"stateMutability":"view"},{"type":"function","name":"balance","inputs":[],"outputs":[{"name":"","type":"uint256","internalType":"uint256"}],"stateMutability":"view"},{"type":"function","name":"borrower","inputs":[],"outputs":[{"name":"","type":"address","internalType":"address"}],"stateMutability":"view"},{"type":"function","name":"canReleaseEscrow","inputs":[],"outputs":[{"name":"","type":"bool","internalType":"bool"}],"stateMutability":"view"},{"type":"function","name":"escrowedAsset","inputs":[],"outputs":[{"name":"","type":"address","internalType":"address"},{"name":"","type":"uint256","internalType":"uint256"}],"stateMutability":"view"},{"type":"function","name":"releaseEscrow","inputs":[],"outputs":[],"stateMutability":"nonpayable"},{"type":"function","name":"sentinel","inputs":[],"outputs":[{"name":"","type":"address","internalType":"address"}],"stateMutability":"view"},{"type":"event","name":"EscrowReleased","inputs":[{"name":"account","type":"address","indexed":true,"internalType":"address"},{"name":"asset","type":"address","indexed":true,"internalType":"address"},{"name":"amount","type":"uint256","indexed":false,"internalType":"uint256"}],"anonymous":false},{"type":"error","name":"CanNotReleaseEscrow","inputs":[]}],"bytecode":{"object":"0x610100604052348015610010575f80fd5b503360808190526040805163163ac4cd60e31b8152905163b1d62668916004808201926060929091908290030181865afa158015610050573d5f803e3d5ffd5b505050506040513d601f19601f8201168201806040525081019061007491906100ac565b6001600160a01b0390811660e05290811660c0521660a0526100ec565b80516001600160a01b03811681146100a7575f80fd5b919050565b5f805f606084860312156100be575f80fd5b6100c784610091565b92506100d560208501610091565b91506100e360408501610091565b90509250925092565b60805160a05160c05160e05161046a6101475f395f8181610173015281816101f4015261036a01525f818160af015281816101d301526102b801525f818160f8015261029001525f818161014d01526102e2015261046a5ff3fe608060405234801561000f575f80fd5b506004361061007a575f3560e01c80637df1f1b9116100585780637df1f1b9146100f3578063a4972b471461011a578063b69ef8a814610132578063f58c251c14610148575f80fd5b80633d02b19c1461007e5780635dab2420146100aa578063757a5543146100e9575b5f80fd5b61008661016f565b604080516001600160a01b0390931683526020830191909152015b60405180910390f35b6100d17f000000000000000000000000000000000000000000000000000000000000000081565b6040516001600160a01b0390911681526020016100a1565b6100f16101a2565b005b6100d17f000000000000000000000000000000000000000000000000000000000000000081565b610122610279565b60405190151581526020016100a1565b61013a610353565b6040519081526020016100a1565b6100d17f000000000000000000000000000000000000000000000000000000000000000081565b5f807f000000000000000000000000000000000000000000000000000000000000000061019a610353565b915091509091565b6101aa610279565b6101c6576040516268221d60e41b815260040160405180910390fd5b5f6101cf610353565b90507f00000000000000000000000000000000000000000000000000000000000000007f00000000000000000000000000000000000000000000000000000000000000006102276001600160a01b03821683856103e0565b806001600160a01b0316826001600160a01b03167fddb6c73499c01e62ac80461b3609b0aa26779cb2da76ed6eff1f3e11ebae23488560405161026c91815260200190565b60405180910390a3505050565b6040516301b9d11160e21b81526001600160a01b037f0000000000000000000000000000000000000000000000000000000000000000811660048301527f0000000000000000000000000000000000000000000000000000000000000000811660248301525f917f0000000000000000000000000000000000000000000000000000000000000000909116906306e7444490604401602060405180830381865afa158015610329573d5f803e3d5ffd5b505050506040513d601f19601f8201168201806040525081019061034d9190610420565b15905090565b6040516370a0823160e01b81523060048201525f907f00000000000000000000000000000000000000000000000000000000000000006001600160a01b0316906370a0823190602401602060405180830381865afa1580156103b7573d5f803e3d5ffd5b505050506040513d601f19601f820116820180604052508101906103db9190610446565b905090565b816014528060345263a9059cbb60601b5f5260205f604460105f875af13d1560015f51141716610417576390b8ec185f526004601cfd5b5f603452505050565b5f60208284031215610430575f80fd5b8151801515811461043f575f80fd5b9392505050565b5f60208284031215610456575f80fd5b505191905056fea164736f6c6343000819000a","linkReferences":{}},"methodIdentifiers":{"account()":"5dab2420","balance()":"b69ef8a8","borrower()":"7df1f1b9","canReleaseEscrow()":"a4972b47","escrowedAsset()":"3d02b19c","releaseEscrow()":"757a5543","sentinel()":"f58c251c"},"id":28}