{"abi":[{"type":"function","name":"$borrowableAssets","inputs":[{"name":"state","type":"tuple","internalType":"struct MarketState","components":[{"name":"isClosed","type":"bool","internalType":"bool"},{"name":"maxTotalSupply","type":"uint128","internalType":"uint128"},{"name":"accruedProtocolFees","type":"uint128","internalType":"uint128"},{"name":"normalizedUnclaimedWithdrawals","type":"uint128","internalType":"uint128"},{"name":"scaledTotalSupply","type":"uint104","internalType":"uint104"},{"name":"scaledPendingWithdrawals","type":"uint104","internalType":"uint104"},{"name":"pendingWithdrawalExpiry","type":"uint32","internalType":"uint32"},{"name":"isDelinquent","type":"bool","internalType":"bool"},{"name":"timeDelinquent","type":"uint32","internalType":"uint32"},{"name":"protocolFeeBips","type":"uint16","internalType":"uint16"},{"name":"annualInterestBips","type":"uint16","internalType":"uint16"},{"name":"reserveRatioBips","type":"uint16","internalType":"uint16"},{"name":"scaleFactor","type":"uint112","internalType":"uint112"},{"name":"lastInterestAccruedTimestamp","type":"uint32","internalType":"uint32"}]},{"name":"totalAssets","type":"uint256","internalType":"uint256"}],"outputs":[{"name":"","type":"uint256","internalType":"uint256"}],"stateMutability":"pure"},{"type":"function","name":"$hasPendingExpiredBatch","inputs":[{"name":"state","type":"tuple","internalType":"struct MarketState","components":[{"name":"isClosed","type":"bool","internalType":"bool"},{"name":"maxTotalSupply","type":"uint128","internalType":"uint128"},{"name":"accruedProtocolFees","type":"uint128","internalType":"uint128"},{"name":"normalizedUnclaimedWithdrawals","type":"uint128","internalType":"uint128"},{"name":"scaledTotalSupply","type":"uint104","internalType":"uint104"},{"name":"scaledPendingWithdrawals","type":"uint104","internalType":"uint104"},{"name":"pendingWithdrawalExpiry","type":"uint32","internalType":"uint32"},{"name":"isDelinquent","type":"bool","internalType":"bool"},{"name":"timeDelinquent","type":"uint32","internalType":"uint32"},{"name":"protocolFeeBips","type":"uint16","internalType":"uint16"},{"name":"annualInterestBips","type":"uint16","internalType":"uint16"},{"name":"reserveRatioBips","type":"uint16","internalType":"uint16"},{"name":"scaleFactor","type":"uint112","internalType":"uint112"},{"name":"lastInterestAccruedTimestamp","type":"uint32","internalType":"uint32"}]}],"outputs":[{"name":"result","type":"bool","internalType":"bool"}],"stateMutability":"view"},{"type":"function","name":"$liquidityRequired","inputs":[{"name":"state","type":"tuple","internalType":"struct MarketState","components":[{"name":"isClosed","type":"bool","internalType":"bool"},{"name":"maxTotalSupply","type":"uint128","internalType":"uint128"},{"name":"accruedProtocolFees","type":"uint128","internalType":"uint128"},{"name":"normalizedUnclaimedWithdrawals","type":"uint128","internalType":"uint128"},{"name":"scaledTotalSupply","type":"uint104","internalType":"uint104"},{"name":"scaledPendingWithdrawals","type":"uint104","internalType":"uint104"},{"name":"pendingWithdrawalExpiry","type":"uint32","internalType":"uint32"},{"name":"isDelinquent","type":"bool","internalType":"bool"},{"name":"timeDelinquent","type":"uint32","internalType":"uint32"},{"name":"protocolFeeBips","type":"uint16","internalType":"uint16"},{"name":"annualInterestBips","type":"uint16","internalType":"uint16"},{"name":"reserveRatioBips","type":"uint16","internalType":"uint16"},{"name":"scaleFactor","type":"uint112","internalType":"uint112"},{"name":"lastInterestAccruedTimestamp","type":"uint32","internalType":"uint32"}]}],"outputs":[{"name":"_liquidityRequired","type":"uint256","internalType":"uint256"}],"stateMutability":"pure"},{"type":"function","name":"$maximumDeposit","inputs":[{"name":"state","type":"tuple","internalType":"struct MarketState","components":[{"name":"isClosed","type":"bool","internalType":"bool"},{"name":"maxTotalSupply","type":"uint128","internalType":"uint128"},{"name":"accruedProtocolFees","type":"uint128","internalType":"uint128"},{"name":"normalizedUnclaimedWithdrawals","type":"uint128","internalType":"uint128"},{"name":"scaledTotalSupply","type":"uint104","internalType":"uint104"},{"name":"scaledPendingWithdrawals","type":"uint104","internalType":"uint104"},{"name":"pendingWithdrawalExpiry","type":"uint32","internalType":"uint32"},{"name":"isDelinquent","type":"bool","internalType":"bool"},{"name":"timeDelinquent","type":"uint32","internalType":"uint32"},{"name":"protocolFeeBips","type":"uint16","internalType":"uint16"},{"name":"annualInterestBips","type":"uint16","internalType":"uint16"},{"name":"reserveRatioBips","type":"uint16","internalType":"uint16"},{"name":"scaleFactor","type":"uint112","internalType":"uint112"},{"name":"lastInterestAccruedTimestamp","type":"uint32","internalType":"uint32"}]}],"outputs":[{"name":"","type":"uint256","internalType":"uint256"}],"stateMutability":"pure"},{"type":"function","name":"$normalizeAmount","inputs":[{"name":"state","type":"tuple","internalType":"struct MarketState","components":[{"name":"isClosed","type":"bool","internalType":"bool"},{"name":"maxTotalSupply","type":"uint128","internalType":"uint128"},{"name":"accruedProtocolFees","type":"uint128","internalType":"uint128"},{"name":"normalizedUnclaimedWithdrawals","type":"uint128","internalType":"uint128"},{"name":"scaledTotalSupply","type":"uint104","internalType":"uint104"},{"name":"scaledPendingWithdrawals","type":"uint104","internalType":"uint104"},{"name":"pendingWithdrawalExpiry","type":"uint32","internalType":"uint32"},{"name":"isDelinquent","type":"bool","internalType":"bool"},{"name":"timeDelinquent","type":"uint32","internalType":"uint32"},{"name":"protocolFeeBips","type":"uint16","internalType":"uint16"},{"name":"annualInterestBips","type":"uint16","internalType":"uint16"},{"name":"reserveRatioBips","type":"uint16","internalType":"uint16"},{"name":"scaleFactor","type":"uint112","internalType":"uint112"},{"name":"lastInterestAccruedTimestamp","type":"uint32","internalType":"uint32"}]},{"name":"amount","type":"uint256","internalType":"uint256"}],"outputs":[{"name":"","type":"uint256","internalType":"uint256"}],"stateMutability":"pure"},{"type":"function","name":"$scaleAmount","inputs":[{"name":"state","type":"tuple","internalType":"struct MarketState","components":[{"name":"isClosed","type":"bool","internalType":"bool"},{"name":"maxTotalSupply","type":"uint128","internalType":"uint128"},{"name":"accruedProtocolFees","type":"uint128","internalType":"uint128"},{"name":"normalizedUnclaimedWithdrawals","type":"uint128","internalType":"uint128"},{"name":"scaledTotalSupply","type":"uint104","internalType":"uint104"},{"name":"scaledPendingWithdrawals","type":"uint104","internalType":"uint104"},{"name":"pendingWithdrawalExpiry","type":"uint32","internalType":"uint32"},{"name":"isDelinquent","type":"bool","internalType":"bool"},{"name":"timeDelinquent","type":"uint32","internalType":"uint32"},{"name":"protocolFeeBips","type":"uint16","internalType":"uint16"},{"name":"annualInterestBips","type":"uint16","internalType":"uint16"},{"name":"reserveRatioBips","type":"uint16","internalType":"uint16"},{"name":"scaleFactor","type":"uint112","internalType":"uint112"},{"name":"lastInterestAccruedTimestamp","type":"uint32","internalType":"uint32"}]},{"name":"amount","type":"uint256","internalType":"uint256"}],"outputs":[{"name":"","type":"uint256","internalType":"uint256"}],"stateMutability":"pure"},{"type":"function","name":"$totalSupply","inputs":[{"name":"state","type":"tuple","internalType":"struct MarketState","components":[{"name":"isClosed","type":"bool","internalType":"bool"},{"name":"maxTotalSupply","type":"uint128","internalType":"uint128"},{"name":"accruedProtocolFees","type":"uint128","internalType":"uint128"},{"name":"normalizedUnclaimedWithdrawals","type":"uint128","internalType":"uint128"},{"name":"scaledTotalSupply","type":"uint104","internalType":"uint104"},{"name":"scaledPendingWithdrawals","type":"uint104","internalType":"uint104"},{"name":"pendingWithdrawalExpiry","type":"uint32","internalType":"uint32"},{"name":"isDelinquent","type":"bool","internalType":"bool"},{"name":"timeDelinquent","type":"uint32","internalType":"uint32"},{"name":"protocolFeeBips","type":"uint16","internalType":"uint16"},{"name":"annualInterestBips","type":"uint16","internalType":"uint16"},{"name":"reserveRatioBips","type":"uint16","internalType":"uint16"},{"name":"scaleFactor","type":"uint112","internalType":"uint112"},{"name":"lastInterestAccruedTimestamp","type":"uint32","internalType":"uint32"}]}],"outputs":[{"name":"","type":"uint256","internalType":"uint256"}],"stateMutability":"pure"},{"type":"function","name":"$withdrawableProtocolFees","inputs":[{"name":"state","type":"tuple","internalType":"struct MarketState","components":[{"name":"isClosed","type":"bool","internalType":"bool"},{"name":"maxTotalSupply","type":"uint128","internalType":"uint128"},{"name":"accruedProtocolFees","type":"uint128","internalType":"uint128"},{"name":"normalizedUnclaimedWithdrawals","type":"uint128","internalType":"uint128"},{"name":"scaledTotalSupply","type":"uint104","internalType":"uint104"},{"name":"scaledPendingWithdrawals","type":"uint104","internalType":"uint104"},{"name":"pendingWithdrawalExpiry","type":"uint32","internalType":"uint32"},{"name":"isDelinquent","type":"bool","internalType":"bool"},{"name":"timeDelinquent","type":"uint32","internalType":"uint32"},{"name":"protocolFeeBips","type":"uint16","internalType":"uint16"},{"name":"annualInterestBips","type":"uint16","internalType":"uint16"},{"name":"reserveRatioBips","type":"uint16","internalType":"uint16"},{"name":"scaleFactor","type":"uint112","internalType":"uint112"},{"name":"lastInterestAccruedTimestamp","type":"uint32","internalType":"uint32"}]},{"name":"totalAssets","type":"uint256","internalType":"uint256"}],"outputs":[{"name":"","type":"uint256","internalType":"uint256"}],"stateMutability":"pure"}],"bytecode":{"object":"0x610ac661004d600b8282823980515f1a6073146041577f4e487b71000000000000000000000000000000000000000000000000000000005f525f60045260245ffd5b305f52607381538281f3fe7300000000000000000000000000000000000000003014608060405260043610610091575f3560e01c80637925773f116100645780637925773f14610155578063d0d9f3ef14610185578063ece72db9146101b5578063ee2a4587146101e557610091565b80631bf8a31014610095578063276f9820146100c5578063469eca2b146100f55780635add1fd714610125575b5f80fd5b6100af60048036038101906100aa9190610937565b610215565b6040516100bc919061097b565b60405180910390f35b6100df60048036038101906100da91906109be565b610226565b6040516100ec919061097b565b60405180910390f35b61010f600480360381019061010a91906109be565b610239565b60405161011c919061097b565b60405180910390f35b61013f600480360381019061013a91906109be565b61024c565b60405161014c919061097b565b60405180910390f35b61016f600480360381019061016a9190610937565b610271565b60405161017c919061097b565b60405180910390f35b61019f600480360381019061019a91906109be565b610282565b6040516101ac919061097b565b60405180910390f35b6101cf60048036038101906101ca9190610937565b610295565b6040516101dc919061097b565b60405180910390f35b6101ff60048036038101906101fa9190610937565b6102a6565b60405161020c9190610a0d565b60405180910390f35b5f61021f826102b7565b9050919050565b5f61023183836102e5565b905092915050565b5f6102448383610316565b905092915050565b5f610257838361033a565b6fffffffffffffffffffffffffffffffff16905092915050565b5f61027b82610389565b9050919050565b5f61028d8383610447565b905092915050565b5f61029f82610478565b9050919050565b5f6102b0826104b1565b9050919050565b5f6102de82608001516cffffffffffffffffffffffffff168361044790919063ffffffff16565b9050919050565b5f61030e8361018001516dffffffffffffffffffffffffffff16836104cf90919063ffffffff16565b905092915050565b5f61033261032384610389565b8361051f90919063ffffffff16565b905092915050565b5f8083606001516fffffffffffffffffffffffffffffffff168361035e9190610a53565b90506103808185604001516fffffffffffffffffffffffffffffffff1661052f565b91505092915050565b5f808260a001516cffffffffffffffffffffffffff1690505f816103dd85610160015161ffff168487608001516cffffffffffffffffffffffffff166103cf9190610a53565b61054590919063ffffffff16565b6103e79190610a86565b905083606001516fffffffffffffffffffffffffffffffff1684604001516fffffffffffffffffffffffffffffffff1661042a838761044790919063ffffffff16565b6104349190610a86565b61043e9190610a86565b92505050919050565b5f6104708361018001516dffffffffffffffffffffffffffff168361057d90919063ffffffff16565b905092915050565b5f6104aa610485836102b7565b83602001516fffffffffffffffffffffffffffffffff1661051f90919063ffffffff16565b9050919050565b5f808260c0015163ffffffff1690508042115f821116915050919050565b5f6b033b2e3c9fd0803ce8000000600283045f19030483118215171561050157634e487b715f5260116020526024601cfd5b81600283046b033b2e3c9fd0803ce800000085020104905092915050565b5f81830382841102905092915050565b5f61053d82841084846105d3565b905092915050565b5f816113885f19030483111582151761056a57634e487b715f5260116020526024601cfd5b6127106113888385020104905092915050565b5f816b019d971e4fe8401e740000005f1903048311158215176105ac57634e487b715f5260116020526024601cfd5b6b033b2e3c9fd0803ce80000006b019d971e4fe8401e740000008385020104905092915050565b5f8183038402820190509392505050565b5f604051905090565b5f80fd5b5f80fd5b5f601f19601f8301169050919050565b7f4e487b71000000000000000000000000000000000000000000000000000000005f52604160045260245ffd5b61063b826105f5565b810181811067ffffffffffffffff8211171561065a57610659610605565b5b80604052505050565b5f61066c6105e4565b90506106788282610632565b919050565b5f8115159050919050565b6106918161067d565b811461069b575f80fd5b50565b5f813590506106ac81610688565b92915050565b5f6fffffffffffffffffffffffffffffffff82169050919050565b6106d6816106b2565b81146106e0575f80fd5b50565b5f813590506106f1816106cd565b92915050565b5f6cffffffffffffffffffffffffff82169050919050565b610718816106f7565b8114610722575f80fd5b50565b5f813590506107338161070f565b92915050565b5f63ffffffff82169050919050565b61075181610739565b811461075b575f80fd5b50565b5f8135905061076c81610748565b92915050565b5f61ffff82169050919050565b61078881610772565b8114610792575f80fd5b50565b5f813590506107a38161077f565b92915050565b5f6dffffffffffffffffffffffffffff82169050919050565b6107cb816107a9565b81146107d5575f80fd5b50565b5f813590506107e6816107c2565b92915050565b5f6101c08284031215610802576108016105f1565b5b61080d6101c0610663565b90505f61081c8482850161069e565b5f83015250602061082f848285016106e3565b6020830152506040610843848285016106e3565b6040830152506060610857848285016106e3565b606083015250608061086b84828501610725565b60808301525060a061087f84828501610725565b60a08301525060c06108938482850161075e565b60c08301525060e06108a78482850161069e565b60e0830152506101006108bc8482850161075e565b610100830152506101206108d284828501610795565b610120830152506101406108e884828501610795565b610140830152506101606108fe84828501610795565b61016083015250610180610914848285016107d8565b610180830152506101a061092a8482850161075e565b6101a08301525092915050565b5f6101c0828403121561094d5761094c6105ed565b5b5f61095a848285016107ec565b91505092915050565b5f819050919050565b61097581610963565b82525050565b5f60208201905061098e5f83018461096c565b92915050565b61099d81610963565b81146109a7575f80fd5b50565b5f813590506109b881610994565b92915050565b5f806101e083850312156109d5576109d46105ed565b5b5f6109e2858286016107ec565b9250506101c06109f4858286016109aa565b9150509250929050565b610a078161067d565b82525050565b5f602082019050610a205f8301846109fe565b92915050565b7f4e487b71000000000000000000000000000000000000000000000000000000005f52601160045260245ffd5b5f610a5d82610963565b9150610a6883610963565b9250828203905081811115610a8057610a7f610a26565b5b92915050565b5f610a9082610963565b9150610a9b83610963565b9250828201905080821115610ab357610ab2610a26565b5b9291505056fea164736f6c6343000819000a","linkReferences":{}},"methodIdentifiers":{"$borrowableAssets(MarketState,uint256)":"469eca2b","$hasPendingExpiredBatch(MarketState)":"ee2a4587","$liquidityRequired(MarketState)":"7925773f","$maximumDeposit(MarketState)":"ece72db9","$normalizeAmount(MarketState,uint256)":"d0d9f3ef","$scaleAmount(MarketState,uint256)":"276f9820","$totalSupply(MarketState)":"1bf8a310","$withdrawableProtocolFees(MarketState,uint256)":"5add1fd7"},"id":134}