{"abi":[{"type":"constructor","inputs":[{"name":"_deployer","type":"address","internalType":"address"}],"stateMutability":"nonpayable"},{"type":"function","name":"MaximumLoanTerm","inputs":[],"outputs":[{"name":"","type":"uint32","internalType":"uint32"}],"stateMutability":"view"},{"type":"function","name":"addRoleProvider","inputs":[{"name":"providerAddress","type":"address","internalType":"address"},{"name":"timeToLive","type":"uint32","internalType":"uint32"}],"outputs":[],"stateMutability":"nonpayable"},{"type":"function","name":"blockFromDeposits","inputs":[{"name":"account","type":"address","internalType":"address"}],"outputs":[],"stateMutability":"nonpayable"},{"type":"function","name":"borrower","inputs":[],"outputs":[{"name":"","type":"address","internalType":"address"}],"stateMutability":"view"},{"type":"function","name":"config","inputs":[],"outputs":[{"name":"","type":"uint256","internalType":"HooksDeploymentConfig"}],"stateMutability":"view"},{"type":"function","name":"factory","inputs":[],"outputs":[{"name":"","type":"address","internalType":"address"}],"stateMutability":"view"},{"type":"function","name":"getHookedMarket","inputs":[{"name":"marketAddress","type":"address","internalType":"address"}],"outputs":[{"name":"","type":"tuple","internalType":"struct HookedMarket","components":[{"name":"isHooked","type":"bool","internalType":"bool"},{"name":"transferRequiresAccess","type":"bool","internalType":"bool"},{"name":"depositRequiresAccess","type":"bool","internalType":"bool"},{"name":"withdrawalRequiresAccess","type":"bool","internalType":"bool"},{"name":"minimumDeposit","type":"uint128","internalType":"uint128"},{"name":"fixedTermEndTime","type":"uint32","internalType":"uint32"}]}],"stateMutability":"view"},{"type":"function","name":"getLenderStatus","inputs":[{"name":"accountAddress","type":"address","internalType":"address"}],"outputs":[{"name":"status","type":"tuple","internalType":"struct LenderStatus","components":[{"name":"isBlockedFromDeposits","type":"bool","internalType":"bool"},{"name":"lastProvider","type":"address","internalType":"address"},{"name":"canRefresh","type":"bool","internalType":"bool"},{"name":"lastApprovalTimestamp","type":"uint32","internalType":"uint32"}]}],"stateMutability":"view"},{"type":"function","name":"getParameterConstraints","inputs":[],"outputs":[{"name":"constraints","type":"tuple","internalType":"struct MarketParameterConstraints","components":[{"name":"minimumDelinquencyGracePeriod","type":"uint32","internalType":"uint32"},{"name":"maximumDelinquencyGracePeriod","type":"uint32","internalType":"uint32"},{"name":"minimumReserveRatioBips","type":"uint16","internalType":"uint16"},{"name":"maximumReserveRatioBips","type":"uint16","internalType":"uint16"},{"name":"minimumDelinquencyFeeBips","type":"uint16","internalType":"uint16"},{"name":"maximumDelinquencyFeeBips","type":"uint16","internalType":"uint16"},{"name":"minimumWithdrawalBatchDuration","type":"uint32","internalType":"uint32"},{"name":"maximumWithdrawalBatchDuration","type":"uint32","internalType":"uint32"},{"name":"minimumAnnualInterestBips","type":"uint16","internalType":"uint16"},{"name":"maximumAnnualInterestBips","type":"uint16","internalType":"uint16"}]}],"stateMutability":"pure"},{"type":"function","name":"getPreviousLenderStatus","inputs":[{"name":"accountAddress","type":"address","internalType":"address"}],"outputs":[{"name":"status","type":"tuple","internalType":"struct LenderStatus","components":[{"name":"isBlockedFromDeposits","type":"bool","internalType":"bool"},{"name":"lastProvider","type":"address","internalType":"address"},{"name":"canRefresh","type":"bool","internalType":"bool"},{"name":"lastApprovalTimestamp","type":"uint32","internalType":"uint32"}]}],"stateMutability":"view"},{"type":"function","name":"getPullProviders","inputs":[],"outputs":[{"name":"","type":"uint256[]","internalType":"RoleProvider[]"}],"stateMutability":"view"},{"type":"function","name":"getRoleProvider","inputs":[{"name":"providerAddress","type":"address","internalType":"address"}],"outputs":[{"name":"","type":"uint256","internalType":"RoleProvider"}],"stateMutability":"view"},{"type":"function","name":"grantRole","inputs":[{"name":"account","type":"address","internalType":"address"},{"name":"roleGrantedTimestamp","type":"uint32","internalType":"uint32"}],"outputs":[],"stateMutability":"nonpayable"},{"type":"function","name":"grantRoles","inputs":[{"name":"accounts","type":"address[]","internalType":"address[]"},{"name":"roleGrantedTimestamps","type":"uint32[]","internalType":"uint32[]"}],"outputs":[],"stateMutability":"nonpayable"},{"type":"function","name":"isKnownLenderOnMarket","inputs":[{"name":"lender","type":"address","internalType":"address"},{"name":"market","type":"address","internalType":"address"}],"outputs":[{"name":"","type":"bool","internalType":"bool"}],"stateMutability":"view"},{"type":"function","name":"onBorrow","inputs":[{"name":"","type":"uint256","internalType":"uint256"},{"name":"","type":"tuple","internalType":"struct MarketState","components":[{"name":"isClosed","type":"bool","internalType":"bool"},{"name":"maxTotalSupply","type":"uint128","internalType":"uint128"},{"name":"accruedProtocolFees","type":"uint128","internalType":"uint128"},{"name":"normalizedUnclaimedWithdrawals","type":"uint128","internalType":"uint128"},{"name":"scaledTotalSupply","type":"uint104","internalType":"uint104"},{"name":"scaledPendingWithdrawals","type":"uint104","internalType":"uint104"},{"name":"pendingWithdrawalExpiry","type":"uint32","internalType":"uint32"},{"name":"isDelinquent","type":"bool","internalType":"bool"},{"name":"timeDelinquent","type":"uint32","internalType":"uint32"},{"name":"protocolFeeBips","type":"uint16","internalType":"uint16"},{"name":"annualInterestBips","type":"uint16","internalType":"uint16"},{"name":"reserveRatioBips","type":"uint16","internalType":"uint16"},{"name":"scaleFactor","type":"uint112","internalType":"uint112"},{"name":"lastInterestAccruedTimestamp","type":"uint32","internalType":"uint32"}]},{"name":"","type":"bytes","internalType":"bytes"}],"outputs":[],"stateMutability":"nonpayable"},{"type":"function","name":"onCloseMarket","inputs":[{"name":"","type":"tuple","internalType":"struct MarketState","components":[{"name":"isClosed","type":"bool","internalType":"bool"},{"name":"maxTotalSupply","type":"uint128","internalType":"uint128"},{"name":"accruedProtocolFees","type":"uint128","internalType":"uint128"},{"name":"normalizedUnclaimedWithdrawals","type":"uint128","internalType":"uint128"},{"name":"scaledTotalSupply","type":"uint104","internalType":"uint104"},{"name":"scaledPendingWithdrawals","type":"uint104","internalType":"uint104"},{"name":"pendingWithdrawalExpiry","type":"uint32","internalType":"uint32"},{"name":"isDelinquent","type":"bool","internalType":"bool"},{"name":"timeDelinquent","type":"uint32","internalType":"uint32"},{"name":"protocolFeeBips","type":"uint16","internalType":"uint16"},{"name":"annualInterestBips","type":"uint16","internalType":"uint16"},{"name":"reserveRatioBips","type":"uint16","internalType":"uint16"},{"name":"scaleFactor","type":"uint112","internalType":"uint112"},{"name":"lastInterestAccruedTimestamp","type":"uint32","internalType":"uint32"}]},{"name":"","type":"bytes","internalType":"bytes"}],"outputs":[],"stateMutability":"nonpayable"},{"type":"function","name":"onCreateMarket","inputs":[{"name":"deployer","type":"address","internalType":"address"},{"name":"marketAddress","type":"address","internalType":"address"},{"name":"parameters","type":"tuple","internalType":"struct DeployMarketInputs","components":[{"name":"asset","type":"address","internalType":"address"},{"name":"namePrefix","type":"string","internalType":"string"},{"name":"symbolPrefix","type":"string","internalType":"string"},{"name":"maxTotalSupply","type":"uint128","internalType":"uint128"},{"name":"annualInterestBips","type":"uint16","internalType":"uint16"},{"name":"delinquencyFeeBips","type":"uint16","internalType":"uint16"},{"name":"withdrawalBatchDuration","type":"uint32","internalType":"uint32"},{"name":"reserveRatioBips","type":"uint16","internalType":"uint16"},{"name":"delinquencyGracePeriod","type":"uint32","internalType":"uint32"},{"name":"hooks","type":"uint256","internalType":"HooksConfig"}]},{"name":"extraData","type":"bytes","internalType":"bytes"}],"outputs":[{"name":"","type":"uint256","internalType":"HooksConfig"}],"stateMutability":"nonpayable"},{"type":"function","name":"onDeposit","inputs":[{"name":"lender","type":"address","internalType":"address"},{"name":"scaledAmount","type":"uint256","internalType":"uint256"},{"name":"state","type":"tuple","internalType":"struct MarketState","components":[{"name":"isClosed","type":"bool","internalType":"bool"},{"name":"maxTotalSupply","type":"uint128","internalType":"uint128"},{"name":"accruedProtocolFees","type":"uint128","internalType":"uint128"},{"name":"normalizedUnclaimedWithdrawals","type":"uint128","internalType":"uint128"},{"name":"scaledTotalSupply","type":"uint104","internalType":"uint104"},{"name":"scaledPendingWithdrawals","type":"uint104","internalType":"uint104"},{"name":"pendingWithdrawalExpiry","type":"uint32","internalType":"uint32"},{"name":"isDelinquent","type":"bool","internalType":"bool"},{"name":"timeDelinquent","type":"uint32","internalType":"uint32"},{"name":"protocolFeeBips","type":"uint16","internalType":"uint16"},{"name":"annualInterestBips","type":"uint16","internalType":"uint16"},{"name":"reserveRatioBips","type":"uint16","internalType":"uint16"},{"name":"scaleFactor","type":"uint112","internalType":"uint112"},{"name":"lastInterestAccruedTimestamp","type":"uint32","internalType":"uint32"}]},{"name":"hooksData","type":"bytes","internalType":"bytes"}],"outputs":[],"stateMutability":"nonpayable"},{"type":"function","name":"onExecuteWithdrawal","inputs":[{"name":"lender","type":"address","internalType":"address"},{"name":"","type":"uint128","internalType":"uint128"},{"name":"","type":"tuple","internalType":"struct MarketState","components":[{"name":"isClosed","type":"bool","internalType":"bool"},{"name":"maxTotalSupply","type":"uint128","internalType":"uint128"},{"name":"accruedProtocolFees","type":"uint128","internalType":"uint128"},{"name":"normalizedUnclaimedWithdrawals","type":"uint128","internalType":"uint128"},{"name":"scaledTotalSupply","type":"uint104","internalType":"uint104"},{"name":"scaledPendingWithdrawals","type":"uint104","internalType":"uint104"},{"name":"pendingWithdrawalExpiry","type":"uint32","internalType":"uint32"},{"name":"isDelinquent","type":"bool","internalType":"bool"},{"name":"timeDelinquent","type":"uint32","internalType":"uint32"},{"name":"protocolFeeBips","type":"uint16","internalType":"uint16"},{"name":"annualInterestBips","type":"uint16","internalType":"uint16"},{"name":"reserveRatioBips","type":"uint16","internalType":"uint16"},{"name":"scaleFactor","type":"uint112","internalType":"uint112"},{"name":"lastInterestAccruedTimestamp","type":"uint32","internalType":"uint32"}]},{"name":"hooksData","type":"bytes","internalType":"bytes"}],"outputs":[],"stateMutability":"nonpayable"},{"type":"function","name":"onNukeFromOrbit","inputs":[{"name":"","type":"address","internalType":"address"},{"name":"","type":"tuple","internalType":"struct MarketState","components":[{"name":"isClosed","type":"bool","internalType":"bool"},{"name":"maxTotalSupply","type":"uint128","internalType":"uint128"},{"name":"accruedProtocolFees","type":"uint128","internalType":"uint128"},{"name":"normalizedUnclaimedWithdrawals","type":"uint128","internalType":"uint128"},{"name":"scaledTotalSupply","type":"uint104","internalType":"uint104"},{"name":"scaledPendingWithdrawals","type":"uint104","internalType":"uint104"},{"name":"pendingWithdrawalExpiry","type":"uint32","internalType":"uint32"},{"name":"isDelinquent","type":"bool","internalType":"bool"},{"name":"timeDelinquent","type":"uint32","internalType":"uint32"},{"name":"protocolFeeBips","type":"uint16","internalType":"uint16"},{"name":"annualInterestBips","type":"uint16","internalType":"uint16"},{"name":"reserveRatioBips","type":"uint16","internalType":"uint16"},{"name":"scaleFactor","type":"uint112","internalType":"uint112"},{"name":"lastInterestAccruedTimestamp","type":"uint32","internalType":"uint32"}]},{"name":"","type":"bytes","internalType":"bytes"}],"outputs":[],"stateMutability":"nonpayable"},{"type":"function","name":"onQueueWithdrawal","inputs":[{"name":"lender","type":"address","internalType":"address"},{"name":"","type":"uint32","internalType":"uint32"},{"name":"","type":"uint256","internalType":"uint256"},{"name":"","type":"tuple","internalType":"struct MarketState","components":[{"name":"isClosed","type":"bool","internalType":"bool"},{"name":"maxTotalSupply","type":"uint128","internalType":"uint128"},{"name":"accruedProtocolFees","type":"uint128","internalType":"uint128"},{"name":"normalizedUnclaimedWithdrawals","type":"uint128","internalType":"uint128"},{"name":"scaledTotalSupply","type":"uint104","internalType":"uint104"},{"name":"scaledPendingWithdrawals","type":"uint104","internalType":"uint104"},{"name":"pendingWithdrawalExpiry","type":"uint32","internalType":"uint32"},{"name":"isDelinquent","type":"bool","internalType":"bool"},{"name":"timeDelinquent","type":"uint32","internalType":"uint32"},{"name":"protocolFeeBips","type":"uint16","internalType":"uint16"},{"name":"annualInterestBips","type":"uint16","internalType":"uint16"},{"name":"reserveRatioBips","type":"uint16","internalType":"uint16"},{"name":"scaleFactor","type":"uint112","internalType":"uint112"},{"name":"lastInterestAccruedTimestamp","type":"uint32","internalType":"uint32"}]},{"name":"hooksData","type":"bytes","internalType":"bytes"}],"outputs":[],"stateMutability":"nonpayable"},{"type":"function","name":"onRepay","inputs":[{"name":"normalizedAmount","type":"uint256","internalType":"uint256"},{"name":"state","type":"tuple","internalType":"struct MarketState","components":[{"name":"isClosed","type":"bool","internalType":"bool"},{"name":"maxTotalSupply","type":"uint128","internalType":"uint128"},{"name":"accruedProtocolFees","type":"uint128","internalType":"uint128"},{"name":"normalizedUnclaimedWithdrawals","type":"uint128","internalType":"uint128"},{"name":"scaledTotalSupply","type":"uint104","internalType":"uint104"},{"name":"scaledPendingWithdrawals","type":"uint104","internalType":"uint104"},{"name":"pendingWithdrawalExpiry","type":"uint32","internalType":"uint32"},{"name":"isDelinquent","type":"bool","internalType":"bool"},{"name":"timeDelinquent","type":"uint32","internalType":"uint32"},{"name":"protocolFeeBips","type":"uint16","internalType":"uint16"},{"name":"annualInterestBips","type":"uint16","internalType":"uint16"},{"name":"reserveRatioBips","type":"uint16","internalType":"uint16"},{"name":"scaleFactor","type":"uint112","internalType":"uint112"},{"name":"lastInterestAccruedTimestamp","type":"uint32","internalType":"uint32"}]},{"name":"hooksData","type":"bytes","internalType":"bytes"}],"outputs":[],"stateMutability":"nonpayable"},{"type":"function","name":"onSetAnnualInterestAndReserveRatioBips","inputs":[{"name":"annualInterestBips","type":"uint16","internalType":"uint16"},{"name":"reserveRatioBips","type":"uint16","internalType":"uint16"},{"name":"intermediateState","type":"tuple","internalType":"struct MarketState","components":[{"name":"isClosed","type":"bool","internalType":"bool"},{"name":"maxTotalSupply","type":"uint128","internalType":"uint128"},{"name":"accruedProtocolFees","type":"uint128","internalType":"uint128"},{"name":"normalizedUnclaimedWithdrawals","type":"uint128","internalType":"uint128"},{"name":"scaledTotalSupply","type":"uint104","internalType":"uint104"},{"name":"scaledPendingWithdrawals","type":"uint104","internalType":"uint104"},{"name":"pendingWithdrawalExpiry","type":"uint32","internalType":"uint32"},{"name":"isDelinquent","type":"bool","internalType":"bool"},{"name":"timeDelinquent","type":"uint32","internalType":"uint32"},{"name":"protocolFeeBips","type":"uint16","internalType":"uint16"},{"name":"annualInterestBips","type":"uint16","internalType":"uint16"},{"name":"reserveRatioBips","type":"uint16","internalType":"uint16"},{"name":"scaleFactor","type":"uint112","internalType":"uint112"},{"name":"lastInterestAccruedTimestamp","type":"uint32","internalType":"uint32"}]},{"name":"hooksData","type":"bytes","internalType":"bytes"}],"outputs":[{"name":"updatedAnnualInterestBips","type":"uint16","internalType":"uint16"},{"name":"updatedReserveRatioBips","type":"uint16","internalType":"uint16"}],"stateMutability":"nonpayable"},{"type":"function","name":"onSetMaxTotalSupply","inputs":[{"name":"","type":"uint256","internalType":"uint256"},{"name":"","type":"tuple","internalType":"struct MarketState","components":[{"name":"isClosed","type":"bool","internalType":"bool"},{"name":"maxTotalSupply","type":"uint128","internalType":"uint128"},{"name":"accruedProtocolFees","type":"uint128","internalType":"uint128"},{"name":"normalizedUnclaimedWithdrawals","type":"uint128","internalType":"uint128"},{"name":"scaledTotalSupply","type":"uint104","internalType":"uint104"},{"name":"scaledPendingWithdrawals","type":"uint104","internalType":"uint104"},{"name":"pendingWithdrawalExpiry","type":"uint32","internalType":"uint32"},{"name":"isDelinquent","type":"bool","internalType":"bool"},{"name":"timeDelinquent","type":"uint32","internalType":"uint32"},{"name":"protocolFeeBips","type":"uint16","internalType":"uint16"},{"name":"annualInterestBips","type":"uint16","internalType":"uint16"},{"name":"reserveRatioBips","type":"uint16","internalType":"uint16"},{"name":"scaleFactor","type":"uint112","internalType":"uint112"},{"name":"lastInterestAccruedTimestamp","type":"uint32","internalType":"uint32"}]},{"name":"","type":"bytes","internalType":"bytes"}],"outputs":[],"stateMutability":"nonpayable"},{"type":"function","name":"onSetProtocolFeeBips","inputs":[{"name":"","type":"uint16","internalType":"uint16"},{"name":"","type":"tuple","internalType":"struct MarketState","components":[{"name":"isClosed","type":"bool","internalType":"bool"},{"name":"maxTotalSupply","type":"uint128","internalType":"uint128"},{"name":"accruedProtocolFees","type":"uint128","internalType":"uint128"},{"name":"normalizedUnclaimedWithdrawals","type":"uint128","internalType":"uint128"},{"name":"scaledTotalSupply","type":"uint104","internalType":"uint104"},{"name":"scaledPendingWithdrawals","type":"uint104","internalType":"uint104"},{"name":"pendingWithdrawalExpiry","type":"uint32","internalType":"uint32"},{"name":"isDelinquent","type":"bool","internalType":"bool"},{"name":"timeDelinquent","type":"uint32","internalType":"uint32"},{"name":"protocolFeeBips","type":"uint16","internalType":"uint16"},{"name":"annualInterestBips","type":"uint16","internalType":"uint16"},{"name":"reserveRatioBips","type":"uint16","internalType":"uint16"},{"name":"scaleFactor","type":"uint112","internalType":"uint112"},{"name":"lastInterestAccruedTimestamp","type":"uint32","internalType":"uint32"}]},{"name":"","type":"bytes","internalType":"bytes"}],"outputs":[],"stateMutability":"nonpayable"},{"type":"function","name":"onTransfer","inputs":[{"name":"","type":"address","internalType":"address"},{"name":"","type":"address","internalType":"address"},{"name":"to","type":"address","internalType":"address"},{"name":"","type":"uint256","internalType":"uint256"},{"name":"","type":"tuple","internalType":"struct MarketState","components":[{"name":"isClosed","type":"bool","internalType":"bool"},{"name":"maxTotalSupply","type":"uint128","internalType":"uint128"},{"name":"accruedProtocolFees","type":"uint128","internalType":"uint128"},{"name":"normalizedUnclaimedWithdrawals","type":"uint128","internalType":"uint128"},{"name":"scaledTotalSupply","type":"uint104","internalType":"uint104"},{"name":"scaledPendingWithdrawals","type":"uint104","internalType":"uint104"},{"name":"pendingWithdrawalExpiry","type":"uint32","internalType":"uint32"},{"name":"isDelinquent","type":"bool","internalType":"bool"},{"name":"timeDelinquent","type":"uint32","internalType":"uint32"},{"name":"protocolFeeBips","type":"uint16","internalType":"uint16"},{"name":"annualInterestBips","type":"uint16","internalType":"uint16"},{"name":"reserveRatioBips","type":"uint16","internalType":"uint16"},{"name":"scaleFactor","type":"uint112","internalType":"uint112"},{"name":"lastInterestAccruedTimestamp","type":"uint32","internalType":"uint32"}]},{"name":"extraData","type":"bytes","internalType":"bytes"}],"outputs":[],"stateMutability":"nonpayable"},{"type":"function","name":"removeRoleProvider","inputs":[{"name":"providerAddress","type":"address","internalType":"address"}],"outputs":[],"stateMutability":"nonpayable"},{"type":"function","name":"revokeRole","inputs":[{"name":"account","type":"address","internalType":"address"}],"outputs":[],"stateMutability":"nonpayable"},{"type":"function","name":"setFixedTermEndTime","inputs":[{"name":"market","type":"address","internalType":"address"},{"name":"newFixedTermEndTime","type":"uint32","internalType":"uint32"}],"outputs":[],"stateMutability":"nonpayable"},{"type":"function","name":"setIsKnownLender","inputs":[{"name":"accountAddress","type":"address","internalType":"address"},{"name":"marketAddress","type":"address","internalType":"address"},{"name":"isKnownLender","type":"bool","internalType":"bool"}],"outputs":[],"stateMutability":"nonpayable"},{"type":"function","name":"setMinimumDeposit","inputs":[{"name":"market","type":"address","internalType":"address"},{"name":"newMinimumDeposit","type":"uint128","internalType":"uint128"}],"outputs":[],"stateMutability":"nonpayable"},{"type":"function","name":"temporaryExcessReserveRatio","inputs":[{"name":"","type":"address","internalType":"address"}],"outputs":[{"name":"originalAnnualInterestBips","type":"uint16","internalType":"uint16"},{"name":"originalReserveRatioBips","type":"uint16","internalType":"uint16"},{"name":"expiry","type":"uint32","internalType":"uint32"}],"stateMutability":"view"},{"type":"function","name":"tryValidateAccess","inputs":[{"name":"accountAddress","type":"address","internalType":"address"},{"name":"hooksData","type":"bytes","internalType":"bytes"}],"outputs":[{"name":"hasValidCredential","type":"bool","internalType":"bool"},{"name":"wasUpdated","type":"bool","internalType":"bool"}],"stateMutability":"nonpayable"},{"type":"function","name":"unblockFromDeposits","inputs":[{"name":"account","type":"address","internalType":"address"}],"outputs":[],"stateMutability":"nonpayable"},{"type":"function","name":"version","inputs":[],"outputs":[{"name":"","type":"string","internalType":"string"}],"stateMutability":"pure"},{"type":"event","name":"AccountAccessGranted","inputs":[{"name":"providerAddress","type":"address","indexed":true,"internalType":"address"},{"name":"accountAddress","type":"address","indexed":true,"internalType":"address"},{"name":"credentialTimestamp","type":"uint32","indexed":false,"internalType":"uint32"}],"anonymous":false},{"type":"event","name":"AccountAccessRevoked","inputs":[{"name":"accountAddress","type":"address","indexed":true,"internalType":"address"}],"anonymous":false},{"type":"event","name":"AccountBlockedFromDeposits","inputs":[{"name":"accountAddress","type":"address","indexed":true,"internalType":"address"}],"anonymous":false},{"type":"event","name":"AccountMadeFirstDeposit","inputs":[{"name":"accountAddress","type":"address","indexed":true,"internalType":"address"}],"anonymous":false},{"type":"event","name":"AccountUnblockedFromDeposits","inputs":[{"name":"accountAddress","type":"address","indexed":true,"internalType":"address"}],"anonymous":false},{"type":"event","name":"FixedTermUpdated","inputs":[{"name":"market","type":"address","indexed":false,"internalType":"address"},{"name":"fixedTermEndTime","type":"uint32","indexed":false,"internalType":"uint32"}],"anonymous":false},{"type":"event","name":"MinimumDepositUpdated","inputs":[{"name":"market","type":"address","indexed":false,"internalType":"address"},{"name":"newMinimumDeposit","type":"uint128","indexed":false,"internalType":"uint128"}],"anonymous":false},{"type":"event","name":"RoleProviderAdded","inputs":[{"name":"providerAddress","type":"address","indexed":true,"internalType":"address"},{"name":"timeToLive","type":"uint32","indexed":false,"internalType":"uint32"},{"name":"pullProviderIndex","type":"uint24","indexed":false,"internalType":"uint24"}],"anonymous":false},{"type":"event","name":"RoleProviderRemoved","inputs":[{"name":"providerAddress","type":"address","indexed":true,"internalType":"address"},{"name":"pullProviderIndex","type":"uint24","indexed":false,"internalType":"uint24"}],"anonymous":false},{"type":"event","name":"RoleProviderUpdated","inputs":[{"name":"providerAddress","type":"address","indexed":true,"internalType":"address"},{"name":"timeToLive","type":"uint32","indexed":false,"internalType":"uint32"},{"name":"pullProviderIndex","type":"uint24","indexed":false,"internalType":"uint24"}],"anonymous":false},{"type":"event","name":"TemporaryExcessReserveRatioActivated","inputs":[{"name":"market","type":"address","indexed":true,"internalType":"address"},{"name":"originalReserveRatioBips","type":"uint256","indexed":false,"internalType":"uint256"},{"name":"temporaryReserveRatioBips","type":"uint256","indexed":false,"internalType":"uint256"},{"name":"temporaryReserveRatioExpiry","type":"uint256","indexed":false,"internalType":"uint256"}],"anonymous":false},{"type":"event","name":"TemporaryExcessReserveRatioCanceled","inputs":[{"name":"market","type":"address","indexed":true,"internalType":"address"}],"anonymous":false},{"type":"event","name":"TemporaryExcessReserveRatioExpired","inputs":[{"name":"market","type":"address","indexed":true,"internalType":"address"}],"anonymous":false},{"type":"event","name":"TemporaryExcessReserveRatioUpdated","inputs":[{"name":"market","type":"address","indexed":true,"internalType":"address"},{"name":"originalReserveRatioBips","type":"uint256","indexed":false,"internalType":"uint256"},{"name":"temporaryReserveRatioBips","type":"uint256","indexed":false,"internalType":"uint256"},{"name":"temporaryReserveRatioExpiry","type":"uint256","indexed":false,"internalType":"uint256"}],"anonymous":false},{"type":"error","name":"AnnualInterestBipsOutOfBounds","inputs":[]},{"type":"error","name":"CallerNotBorrower","inputs":[]},{"type":"error","name":"CallerNotFactory","inputs":[]},{"type":"error","name":"DelinquencyFeeBipsOutOfBounds","inputs":[]},{"type":"error","name":"DelinquencyGracePeriodOutOfBounds","inputs":[]},{"type":"error","name":"DepositBelowMinimum","inputs":[]},{"type":"error","name":"FixedTermNotProvided","inputs":[]},{"type":"error","name":"GrantedCredentialExpired","inputs":[]},{"type":"error","name":"IncreaseFixedTerm","inputs":[]},{"type":"error","name":"InvalidArrayLength","inputs":[]},{"type":"error","name":"InvalidCredentialReturned","inputs":[]},{"type":"error","name":"InvalidFixedTerm","inputs":[]},{"type":"error","name":"NotApprovedLender","inputs":[]},{"type":"error","name":"NotHookedMarket","inputs":[]},{"type":"error","name":"ProviderCanNotReplaceCredential","inputs":[]},{"type":"error","name":"ProviderCanNotRevokeCredential","inputs":[]},{"type":"error","name":"ProviderNotFound","inputs":[]},{"type":"error","name":"ReserveRatioBipsOutOfBounds","inputs":[]},{"type":"error","name":"WithdrawBeforeTermEnd","inputs":[]},{"type":"error","name":"WithdrawalBatchDurationOutOfBounds","inputs":[]}],"bytecode":{"object":"0x60e060405234801561000f575f80fd5b5060405161644638038061644683398181016040528101906100319190610280565b8060405180602001604052805f8152503373ffffffffffffffffffffffffffffffffffffffff1660808173ffffffffffffffffffffffffffffffffffffffff16815250508173ffffffffffffffffffffffffffffffffffffffff1660a08173ffffffffffffffffffffffffffffffffffffffff16815250506100c163ffffffff8362ffffff61016c60201b60201c565b60045f8473ffffffffffffffffffffffffffffffffffffffff1673ffffffffffffffffffffffffffffffffffffffff1681526020019081526020015f20819055505f61011f5f60015f8060015f805f805f805f61018460201b60201c565b90505f610149605e61013b60565f6101f360201b90919060201c565b6101f360201b90919060201c565b905061015b828261020260201b60201c565b60c0818152505050505050506102ab565b5f8160281b8360401b8560e01b171790509392505050565b5f8c60601b90508b605f1b811790508a605e1b8117905089605d1b8117905088605c1b8117905087605b1b8117905086605a1b811790508560591b811790508460581b811790508360571b811790508260561b811790508160551b811790509c9b505050505050505050505050565b5f6001821b8317905092915050565b5f8260501c61ffff168260401c63ffff0000168082179250505092915050565b5f80fd5b5f73ffffffffffffffffffffffffffffffffffffffff82169050919050565b5f61024f82610226565b9050919050565b61025f81610245565b8114610269575f80fd5b50565b5f8151905061027a81610256565b92915050565b5f6020828403121561029557610294610222565b5b5f6102a28482850161026c565b91505092915050565b60805160a05160c0516161326103145f395f8181611bb7015261331201525f81816106d6015281816108a001528181610bb801528181611bdb01528181611ea50152818161269101528181612b7201526130ab01525f8181610f3d0152612b3101526161325ff3fe608060405234801561000f575f80fd5b506004361061021a575f3560e01c80638adfe0f811610123578063b037096d116100ab578063c45a01551161007a578063c45a015514610619578063cc45264214610637578063ea5b13bd14610668578063f040ed9814610684578063feb368e2146106a25761021a565b8063b037096d14610581578063b1cfda0d146105b1578063be47fd61146105cd578063bfd269be146105e95761021a565b80639ecc64e6116100f25780639ecc64e6146104df578063a018f90e146104fb578063a11ef06714610517578063a9ff2dbf14610535578063aa948689146105655761021a565b80638adfe0f81461046d5780638b3ce9b3146104895780638f8ef419146104a55780639d2a76fe146104c35761021a565b806354fd4d50116101a657806379502c551161017557806379502c55146103dd5780637df1f1b9146103fb57806380e52e3f1461041957806383d9e1eb14610435578063849da129146104515761021a565b806354fd4d50146103565780635aeb713f146103745780636573fe74146103905780636b2b369b146103c15761021a565b806322a4a19f116101ed57806322a4a19f1461028e57806328fd0307146102be5780632970403d146102ee5780632ccf46671461030a5780633521cccc1461033a5761021a565b806302420e7f1461021e57806303473d8d1461023a578063064ed53b146102565780631c4b369414610272575b5f80fd5b61023860048036038101906102339190614c1f565b6106d4565b005b610254600480360381019061024f9190614fcb565b610898565b005b610270600480360381019061026b919061503e565b61089e565b005b61028c60048036038101906102879190615069565b610bb6565b005b6102a860048036038101906102a3919061503e565b610d39565b6040516102b59190615127565b60405180910390f35b6102d860048036038101906102d39190615163565b610f3a565b6040516102e59190615245565b60405180910390f35b6103086004803603810190610303919061527d565b610fd8565b005b610324600480360381019061031f919061503e565b610fdf565b604051610331919061538b565b60405180910390f35b610354600480360381019061034f91906153ce565b61110b565b005b61035e611488565b60405161036b91906154c6565b60405180910390f35b61038e600480360381019061038991906154e6565b6114c5565b005b6103aa60048036038101906103a5919061556c565b611858565b6040516103b89291906155d8565b60405180910390f35b6103db60048036038101906103d69190614c1f565b611b24565b005b6103e5611bb5565b6040516103f2919061560e565b60405180910390f35b610403611bd9565b6040516104109190615636565b60405180910390f35b610433600480360381019061042e919061503e565b611bfd565b005b61044f600480360381019061044a919061564f565b611e97565b005b61046b6004803603810190610466919061564f565b611e9d565b005b6104876004803603810190610482919061503e565b611ea3565b005b6104a3600480360381019061049e91906156c2565b612065565b005b6104ad61206b565b6040516104ba91906157ec565b60405180910390f35b6104dd60048036038101906104d8919061598c565b6120c1565b005b6104f960048036038101906104f49190615a02565b6121da565b005b61051560048036038101906105109190615a61565b6121df565b005b61051f612574565b60405161052c9190615be6565b60405180910390f35b61054f600480360381019061054a9190615c00565b612665565b60405161055c9190615c3e565b60405180910390f35b61057f600480360381019061057a919061503e565b61268f565b005b61059b6004803603810190610596919061503e565b61294b565b6040516105a89190615127565b60405180910390f35b6105cb60048036038101906105c6919061564f565b612a4f565b005b6105e760048036038101906105e29190615c57565b612a55565b005b61060360048036038101906105fe919061503e565b612ae9565b6040516106109190615cb6565b60405180910390f35b610621612b2f565b60405161062e9190615636565b60405180910390f35b610651600480360381019061064c9190615ccf565b612b53565b60405161065f929190615d64565b60405180910390f35b610682600480360381019061067d9190614c1f565b612b70565b005b61068c612e57565b6040516106999190615d9a565b60405180910390f35b6106bc60048036038101906106b7919061503e565b612e5f565b6040516106cb93929190615db3565b60405180910390f35b7f000000000000000000000000000000000000000000000000000000000000000073ffffffffffffffffffffffffffffffffffffffff163373ffffffffffffffffffffffffffffffffffffffff1614610759576040517f3c698d7900000000000000000000000000000000000000000000000000000000815260040160405180910390fd5b5f60055f8473ffffffffffffffffffffffffffffffffffffffff1673ffffffffffffffffffffffffffffffffffffffff1681526020019081526020015f209050805f015f9054906101000a900460ff166107df576040517fb217907b00000000000000000000000000000000000000000000000000000000815260040160405180910390fd5b805f0160149054906101000a900463ffffffff1663ffffffff168263ffffffff161115610838576040517f9b25ac5a00000000000000000000000000000000000000000000000000000000815260040160405180910390fd5b81815f0160146101000a81548163ffffffff021916908363ffffffff1602179055507f8fcb9a8dc61c986e7488a736bc8edc39e7f8b2bea37fdf7aa56cf142c5fe04b7838360405161088b929190615de8565b60405180910390a1505050565b50505050565b7f000000000000000000000000000000000000000000000000000000000000000073ffffffffffffffffffffffffffffffffffffffff163373ffffffffffffffffffffffffffffffffffffffff1614610923576040517f3c698d7900000000000000000000000000000000000000000000000000000000815260040160405180910390fd5b5f60015f8373ffffffffffffffffffffffffffffffffffffffff1673ffffffffffffffffffffffffffffffffffffffff1681526020019081526020015f206040518060800160405290815f82015f9054906101000a900460ff161515151581526020015f820160019054906101000a900473ffffffffffffffffffffffffffffffffffffffff1673ffffffffffffffffffffffffffffffffffffffff1673ffffffffffffffffffffffffffffffffffffffff1681526020015f820160159054906101000a900460ff161515151581526020015f820160169054906101000a900463ffffffff1663ffffffff1663ffffffff16815250509050610a2481612ead565b15610a7657610a3281612ec2565b8173ffffffffffffffffffffffffffffffffffffffff167f47695aa96e09db0d106b9bd402979d6aff7e51ada06ec6fe014e5eeadd8c1dc060405160405180910390a25b6001815f0190151590811515815250508060015f8473ffffffffffffffffffffffffffffffffffffffff1673ffffffffffffffffffffffffffffffffffffffff1681526020019081526020015f205f820151815f015f6101000a81548160ff0219169083151502179055506020820151815f0160016101000a81548173ffffffffffffffffffffffffffffffffffffffff021916908373ffffffffffffffffffffffffffffffffffffffff1602179055506040820151815f0160156101000a81548160ff0219169083151502179055506060820151815f0160166101000a81548163ffffffff021916908363ffffffff1602179055509050508173ffffffffffffffffffffffffffffffffffffffff167f25b0d1830e0d487402e2c828de3ccbc9d16bd911aaec75fbba1bffd32657fad460405160405180910390a25050565b7f000000000000000000000000000000000000000000000000000000000000000073ffffffffffffffffffffffffffffffffffffffff163373ffffffffffffffffffffffffffffffffffffffff1614610c3b576040517f3c698d7900000000000000000000000000000000000000000000000000000000815260040160405180910390fd5b5f60055f8473ffffffffffffffffffffffffffffffffffffffff1673ffffffffffffffffffffffffffffffffffffffff1681526020019081526020015f209050805f015f9054906101000a900460ff16610cc1576040517fb217907b00000000000000000000000000000000000000000000000000000000815260040160405180910390fd5b81815f0160046101000a8154816fffffffffffffffffffffffffffffffff02191690836fffffffffffffffffffffffffffffffff1602179055507f4e39f53293455dca8fe1725b2dfcbe6abd2f44d777b7f2a7279526e17d7ebede8383604051610d2c929190615e1e565b60405180910390a1505050565b610d41614a6e565b60015f8373ffffffffffffffffffffffffffffffffffffffff1673ffffffffffffffffffffffffffffffffffffffff1681526020019081526020015f206040518060800160405290815f82015f9054906101000a900460ff161515151581526020015f820160019054906101000a900473ffffffffffffffffffffffffffffffffffffffff1673ffffffffffffffffffffffffffffffffffffffff1673ffffffffffffffffffffffffffffffffffffffff1681526020015f820160159054906101000a900460ff161515151581526020015f820160169054906101000a900463ffffffff1663ffffffff1663ffffffff168152505090505f7fffffffffffffffffffffffffffffffffffffffffffffffffffffffffffffffff90505f826060015163ffffffff161115610f1d575f60045f846020015173ffffffffffffffffffffffffffffffffffffffff1673ffffffffffffffffffffffffffffffffffffffff1681526020019081526020015f20549050610ebc81612f25565b610f1257610ed38184612f2f90919063ffffffff16565b15610edf575050610f35565b826040015115610f1157610ef4838286612f58565b15610f00575050610f35565b610f098161301a565b62ffffff1691505b5b610f1b83612ec2565b505b610f28828483613029565b15610f335750610f35565b505b919050565b5f7f000000000000000000000000000000000000000000000000000000000000000073ffffffffffffffffffffffffffffffffffffffff163373ffffffffffffffffffffffffffffffffffffffff1614610fc0576040517fa84178ab00000000000000000000000000000000000000000000000000000000815260040160405180910390fd5b610fcd868686868661309a565b905095945050505050565b5050505050565b610fe7614ab2565b60055f8373ffffffffffffffffffffffffffffffffffffffff1673ffffffffffffffffffffffffffffffffffffffff1681526020019081526020015f206040518060c00160405290815f82015f9054906101000a900460ff161515151581526020015f820160019054906101000a900460ff161515151581526020015f820160029054906101000a900460ff161515151581526020015f820160039054906101000a900460ff161515151581526020015f820160049054906101000a90046fffffffffffffffffffffffffffffffff166fffffffffffffffffffffffffffffffff166fffffffffffffffffffffffffffffffff1681526020015f820160149054906101000a900463ffffffff1663ffffffff1663ffffffff16815250509050919050565b5f60055f3373ffffffffffffffffffffffffffffffffffffffff1673ffffffffffffffffffffffffffffffffffffffff1681526020019081526020015f206040518060c00160405290815f82015f9054906101000a900460ff161515151581526020015f820160019054906101000a900460ff161515151581526020015f820160029054906101000a900460ff161515151581526020015f820160039054906101000a900460ff161515151581526020015f820160049054906101000a90046fffffffffffffffffffffffffffffffff166fffffffffffffffffffffffffffffffff166fffffffffffffffffffffffffffffffff1681526020015f820160149054906101000a900463ffffffff1663ffffffff1663ffffffff16815250509050805f0151611265576040517fb217907b00000000000000000000000000000000000000000000000000000000815260040160405180910390fd5b428160a0015163ffffffff1611156112a9576040517ffb86850100000000000000000000000000000000000000000000000000000000815260040160405180910390fd5b5f60015f8973ffffffffffffffffffffffffffffffffffffffff1673ffffffffffffffffffffffffffffffffffffffff1681526020019081526020015f206040518060800160405290815f82015f9054906101000a900460ff161515151581526020015f820160019054906101000a900473ffffffffffffffffffffffffffffffffffffffff1673ffffffffffffffffffffffffffffffffffffffff1673ffffffffffffffffffffffffffffffffffffffff1681526020015f820160159054906101000a900460ff161515151581526020015f820160169054906101000a900463ffffffff1663ffffffff1663ffffffff1681525050905081606001511561147e5760025f8973ffffffffffffffffffffffffffffffffffffffff1673ffffffffffffffffffffffffffffffffffffffff1681526020019081526020015f205f3373ffffffffffffffffffffffffffffffffffffffff1673ffffffffffffffffffffffffffffffffffffffff1681526020019081526020015f205f9054906101000a900460ff1615801561144657506114448189868661346d565b155b1561147d576040517fe50a45ce00000000000000000000000000000000000000000000000000000000815260040160405180910390fd5b5b5050505050505050565b60606040518060400160405280601281526020017f46697865645465726d4c6f616e486f6f6b730000000000000000000000000000815250905090565b5f60055f3373ffffffffffffffffffffffffffffffffffffffff1673ffffffffffffffffffffffffffffffffffffffff1681526020019081526020015f206040518060c00160405290815f82015f9054906101000a900460ff161515151581526020015f820160019054906101000a900460ff161515151581526020015f820160029054906101000a900460ff161515151581526020015f820160039054906101000a900460ff161515151581526020015f820160049054906101000a90046fffffffffffffffffffffffffffffffff166fffffffffffffffffffffffffffffffff166fffffffffffffffffffffffffffffffff1681526020015f820160149054906101000a900463ffffffff1663ffffffff1663ffffffff16815250509050805f015161161f576040517fb217907b00000000000000000000000000000000000000000000000000000000815260040160405180910390fd5b5f60015f8873ffffffffffffffffffffffffffffffffffffffff1673ffffffffffffffffffffffffffffffffffffffff1681526020019081526020015f206040518060800160405290815f82015f9054906101000a900460ff161515151581526020015f820160019054906101000a900473ffffffffffffffffffffffffffffffffffffffff1673ffffffffffffffffffffffffffffffffffffffff1673ffffffffffffffffffffffffffffffffffffffff1681526020015f820160159054906101000a900460ff161515151581526020015f820160169054906101000a900463ffffffff1663ffffffff1663ffffffff16815250509050805f015115611752576040517fe50a45ce00000000000000000000000000000000000000000000000000000000815260040160405180910390fd5b5f6117898661018001602081019061176a9190615e45565b6dffffffffffffffffffffffffffff168861349990919063ffffffff16565b90508083608001516fffffffffffffffffffffffffffffffff1611156117db576040517fc24b1b6100000000000000000000000000000000000000000000000000000000815260040160405180910390fd5b5f806117e9848b89896134ef565b9150915061180782158660400151151561365490919063ffffffff16565b1561183e576040517fe50a45ce00000000000000000000000000000000000000000000000000000000815260040160405180910390fd5b61184c848b84846001613660565b50505050505050505050565b5f805f60015f8773ffffffffffffffffffffffffffffffffffffffff1673ffffffffffffffffffffffffffffffffffffffff1681526020019081526020015f206040518060800160405290815f82015f9054906101000a900460ff161515151581526020015f820160019054906101000a900473ffffffffffffffffffffffffffffffffffffffff1673ffffffffffffffffffffffffffffffffffffffff1673ffffffffffffffffffffffffffffffffffffffff1681526020015f820160159054906101000a900460ff161515151581526020015f820160169054906101000a900463ffffffff1663ffffffff1663ffffffff168152505090505f81602001519050611966828888886134ef565b80945081955050508215611b1a578160015f8973ffffffffffffffffffffffffffffffffffffffff1673ffffffffffffffffffffffffffffffffffffffff1681526020019081526020015f205f820151815f015f6101000a81548160ff0219169083151502179055506020820151815f0160016101000a81548173ffffffffffffffffffffffffffffffffffffffff021916908373ffffffffffffffffffffffffffffffffffffffff1602179055506040820151815f0160156101000a81548160ff0219169083151502179055506060820151815f0160166101000a81548163ffffffff021916908363ffffffff1602179055509050508315611ad5578673ffffffffffffffffffffffffffffffffffffffff16826020015173ffffffffffffffffffffffffffffffffffffffff167fa04eb478c9c6a13a6de14b7eb31b1b629511e804c3cfef31bd549accd4b155248460600151604051611ac89190615d9a565b60405180910390a3611b19565b8673ffffffffffffffffffffffffffffffffffffffff167f47695aa96e09db0d106b9bd402979d6aff7e51ada06ec6fe014e5eeadd8c1dc060405160405180910390a25b5b5050935093915050565b5f60045f3373ffffffffffffffffffffffffffffffffffffffff1673ffffffffffffffffffffffffffffffffffffffff1681526020019081526020015f20549050611b6e81612f25565b15611ba5576040517fb1cd090300000000000000000000000000000000000000000000000000000000815260040160405180910390fd5b611bb08184846139a1565b505050565b7f000000000000000000000000000000000000000000000000000000000000000081565b7f000000000000000000000000000000000000000000000000000000000000000081565b5f60015f8373ffffffffffffffffffffffffffffffffffffffff1673ffffffffffffffffffffffffffffffffffffffff1681526020019081526020015f206040518060800160405290815f82015f9054906101000a900460ff161515151581526020015f820160019054906101000a900473ffffffffffffffffffffffffffffffffffffffff1673ffffffffffffffffffffffffffffffffffffffff1673ffffffffffffffffffffffffffffffffffffffff1681526020015f820160159054906101000a900460ff161515151581526020015f820160169054906101000a900463ffffffff1663ffffffff1663ffffffff168152505090503373ffffffffffffffffffffffffffffffffffffffff16816020015173ffffffffffffffffffffffffffffffffffffffff1614611d5e576040517f3a364f3d00000000000000000000000000000000000000000000000000000000815260040160405180910390fd5b611d6781612ec2565b8060015f8473ffffffffffffffffffffffffffffffffffffffff1673ffffffffffffffffffffffffffffffffffffffff1681526020019081526020015f205f820151815f015f6101000a81548160ff0219169083151502179055506020820151815f0160016101000a81548173ffffffffffffffffffffffffffffffffffffffff021916908373ffffffffffffffffffffffffffffffffffffffff1602179055506040820151815f0160156101000a81548160ff0219169083151502179055506060820151815f0160166101000a81548163ffffffff021916908363ffffffff1602179055509050508173ffffffffffffffffffffffffffffffffffffffff167f47695aa96e09db0d106b9bd402979d6aff7e51ada06ec6fe014e5eeadd8c1dc060405160405180910390a25050565b50505050565b50505050565b7f000000000000000000000000000000000000000000000000000000000000000073ffffffffffffffffffffffffffffffffffffffff163373ffffffffffffffffffffffffffffffffffffffff1614611f28576040517f3c698d7900000000000000000000000000000000000000000000000000000000815260040160405180910390fd5b5f60045f8373ffffffffffffffffffffffffffffffffffffffff1673ffffffffffffffffffffffffffffffffffffffff1681526020019081526020015f20549050611f7281612f25565b15611fa9576040517fb1cd090300000000000000000000000000000000000000000000000000000000815260040160405180910390fd5b5f60045f8473ffffffffffffffffffffffffffffffffffffffff1673ffffffffffffffffffffffffffffffffffffffff1681526020019081526020015f20819055508173ffffffffffffffffffffffffffffffffffffffff167f096f563e3528747c50a40c54ef564a28b9321ffc1c310e29a97f067e06f59aad61202c8361301a565b6040516120399190615e8d565b60405180910390a261204a81613c05565b156120615761206061205b8261301a565b613c23565b5b5050565b50505050565b606060038054806020026020016040519081016040528092919081815260200182805480156120b757602002820191905f5260205f20905b8154815260200190600101908083116120a3575b5050505050905090565b5f60045f3373ffffffffffffffffffffffffffffffffffffffff1673ffffffffffffffffffffffffffffffffffffffff1681526020019081526020015f2054905061210b81612f25565b15612142576040517fb1cd090300000000000000000000000000000000000000000000000000000000815260040160405180910390fd5b815183511461217d576040517f9d89020a00000000000000000000000000000000000000000000000000000000815260040160405180910390fd5b5f5b83518110156121d4576121c78285838151811061219f5761219e615ea6565b5b60200260200101518584815181106121ba576121b9615ea6565b5b60200260200101516139a1565b808060010191505061217f565b50505050565b505050565b5f60055f3373ffffffffffffffffffffffffffffffffffffffff1673ffffffffffffffffffffffffffffffffffffffff1681526020019081526020015f206040518060c00160405290815f82015f9054906101000a900460ff161515151581526020015f820160019054906101000a900460ff161515151581526020015f820160029054906101000a900460ff161515151581526020015f820160039054906101000a900460ff161515151581526020015f820160049054906101000a90046fffffffffffffffffffffffffffffffff166fffffffffffffffffffffffffffffffff166fffffffffffffffffffffffffffffffff1681526020015f820160149054906101000a900463ffffffff1663ffffffff1663ffffffff16815250509050805f0151612339576040517fb217907b00000000000000000000000000000000000000000000000000000000815260040160405180910390fd5b60025f8773ffffffffffffffffffffffffffffffffffffffff1673ffffffffffffffffffffffffffffffffffffffff1681526020019081526020015f205f3373ffffffffffffffffffffffffffffffffffffffff1673ffffffffffffffffffffffffffffffffffffffff1681526020019081526020015f205f9054906101000a900460ff1661256a575f60015f8873ffffffffffffffffffffffffffffffffffffffff1673ffffffffffffffffffffffffffffffffffffffff1681526020019081526020015f206040518060800160405290815f82015f9054906101000a900460ff161515151581526020015f820160019054906101000a900473ffffffffffffffffffffffffffffffffffffffff1673ffffffffffffffffffffffffffffffffffffffff1673ffffffffffffffffffffffffffffffffffffffff1681526020015f820160159054906101000a900460ff161515151581526020015f820160169054906101000a900463ffffffff1663ffffffff1663ffffffff16815250509050805f0151156124f5576040517fe50a45ce00000000000000000000000000000000000000000000000000000000815260040160405180910390fd5b5f80612503838a88886134ef565b9150915061252182158560200151151561365490919063ffffffff16565b15612558576040517fe50a45ce00000000000000000000000000000000000000000000000000000000815260040160405180910390fd5b612566838a84846001613660565b5050505b5050505050505050565b61257c614b02565b5f815f019063ffffffff16908163ffffffff16815250506276a700816020019063ffffffff16908163ffffffff16815250505f816040019061ffff16908161ffff1681525050612710816060019061ffff16908161ffff16815250505f816080019061ffff16908161ffff16815250506127108160a0019061ffff16908161ffff16815250505f8160c0019063ffffffff16908163ffffffff16815250506301e133808160e0019063ffffffff16908163ffffffff16815250505f81610100019061ffff16908161ffff168152505061271081610120019061ffff16908161ffff168152505090565b6002602052815f5260405f20602052805f5260405f205f915091509054906101000a900460ff1681565b7f000000000000000000000000000000000000000000000000000000000000000073ffffffffffffffffffffffffffffffffffffffff163373ffffffffffffffffffffffffffffffffffffffff1614612714576040517f3c698d7900000000000000000000000000000000000000000000000000000000815260040160405180910390fd5b5f60015f8373ffffffffffffffffffffffffffffffffffffffff1673ffffffffffffffffffffffffffffffffffffffff1681526020019081526020015f206040518060800160405290815f82015f9054906101000a900460ff161515151581526020015f820160019054906101000a900473ffffffffffffffffffffffffffffffffffffffff1673ffffffffffffffffffffffffffffffffffffffff1673ffffffffffffffffffffffffffffffffffffffff1681526020015f820160159054906101000a900460ff161515151581526020015f820160169054906101000a900463ffffffff1663ffffffff1663ffffffff168152505090505f815f0190151590811515815250508060015f8473ffffffffffffffffffffffffffffffffffffffff1673ffffffffffffffffffffffffffffffffffffffff1681526020019081526020015f205f820151815f015f6101000a81548160ff0219169083151502179055506020820151815f0160016101000a81548173ffffffffffffffffffffffffffffffffffffffff021916908373ffffffffffffffffffffffffffffffffffffffff1602179055506040820151815f0160156101000a81548160ff0219169083151502179055506060820151815f0160166101000a81548163ffffffff021916908363ffffffff1602179055509050508173ffffffffffffffffffffffffffffffffffffffff167f7201a4017f7e2ac3b7164275daef1150d8fc64543b3f7196293722db50bc7fa060405160405180910390a25050565b612953614a6e565b60015f8373ffffffffffffffffffffffffffffffffffffffff1673ffffffffffffffffffffffffffffffffffffffff1681526020019081526020015f206040518060800160405290815f82015f9054906101000a900460ff161515151581526020015f820160019054906101000a900473ffffffffffffffffffffffffffffffffffffffff1673ffffffffffffffffffffffffffffffffffffffff1673ffffffffffffffffffffffffffffffffffffffff1681526020015f820160159054906101000a900460ff161515151581526020015f820160169054906101000a900463ffffffff1663ffffffff1663ffffffff16815250509050919050565b50505050565b8060025f8573ffffffffffffffffffffffffffffffffffffffff1673ffffffffffffffffffffffffffffffffffffffff1681526020019081526020015f205f8473ffffffffffffffffffffffffffffffffffffffff1673ffffffffffffffffffffffffffffffffffffffff1681526020019081526020015f205f6101000a81548160ff021916908315150217905550505050565b5f60045f8373ffffffffffffffffffffffffffffffffffffffff1673ffffffffffffffffffffffffffffffffffffffff1681526020019081526020015f20549050919050565b7f000000000000000000000000000000000000000000000000000000000000000081565b5f80612b628787878787613d99565b915091509550959350505050565b7f000000000000000000000000000000000000000000000000000000000000000073ffffffffffffffffffffffffffffffffffffffff163373ffffffffffffffffffffffffffffffffffffffff1614612bf5576040517f3c698d7900000000000000000000000000000000000000000000000000000000815260040160405180910390fd5b5f60045f8473ffffffffffffffffffffffffffffffffffffffff1673ffffffffffffffffffffffffffffffffffffffff1681526020019081526020015f20549050612c3f81612f25565b15612d60575f8373ffffffffffffffffffffffffffffffffffffffff1663256909f16040518163ffffffff1660e01b8152600401602060405180830381865afa158015612c8e573d5f803e3d5ffd5b505050506040513d601f19601f82011682018060405250810190612cb29190615ee7565b9050612cd3838583612cc75762ffffff612cce565b6003805490505b614299565b91508015612d0257600382908060018154018082558091505060019003905f5260205f20015f90919091909150555b8373ffffffffffffffffffffffffffffffffffffffff167fbe2909d8cc20d11ba19a80df9673ad2fd54f3d18592c03aa1413fc921e185b0b84612d448561301a565b604051612d52929190615f12565b60405180910390a250612e10565b612d7382826142b190919063ffffffff16565b90505f612d7f8261301a565b905062ffffff80168162ffffff1614612dbd578160038262ffffff1681548110612dac57612dab615ea6565b5b905f5260205f200181905550612dbe565b5b8373ffffffffffffffffffffffffffffffffffffffff167f0c641c0a4b692db5a80ac5db2cdc5d138e9878e3a42907e4ca46377d45e820f08483604051612e06929190615f12565b60405180910390a2505b8060045f8573ffffffffffffffffffffffffffffffffffffffff1673ffffffffffffffffffffffffffffffffffffffff1681526020019081526020015f2081905550505050565b6301e1338081565b5f602052805f5260405f205f91509050805f015f9054906101000a900461ffff1690805f0160029054906101000a900461ffff1690805f0160049054906101000a900463ffffffff16905083565b5f80826060015163ffffffff16119050919050565b5f8160400190151590811515815250505f816060019063ffffffff16908163ffffffff16815250505f816020019073ffffffffffffffffffffffffffffffffffffffff16908173ffffffffffffffffffffffffffffffffffffffff168152505050565b5f81159050919050565b5f42612f4e846060015163ffffffff16846142c690919063ffffffff16565b1015905092915050565b5f80612f63846142f8565b90505f8063ccdad14b60e01b60e01c63ffffffff169050805f528460205260205f6024601c865afa601f3d111615612fa05763ffffffff5f511691505b5f8263ffffffff161480612fb95750428263ffffffff16115b15612fc9575f9350505050613013565b42612fe38363ffffffff16886142c690919063ffffffff16565b1061300f57613003868363ffffffff16896143079092919063ffffffff16565b60019350505050613013565b5050505b9392505050565b5f8160c01b60e81c9050919050565b5f8060038054905090505f5b818110156130905783810315613083575f6003828154811061305a57613059615ea6565b5b905f5260205f2001549050613070878288612f58565b156130815760019350505050613093565b505b8080600101915050613035565b50505b9392505050565b5f6130a8868686868661437c565b507f000000000000000000000000000000000000000000000000000000000000000073ffffffffffffffffffffffffffffffffffffffff168673ffffffffffffffffffffffffffffffffffffffff161461312e576040517f3c698d7900000000000000000000000000000000000000000000000000000000815260040160405180910390fd5b602083839050101561316c576040517ff8fa12c000000000000000000000000000000000000000000000000000000000815260040160405180910390fd5b83610120013590505f83359050428163ffffffff1610806131a757506301e1338063ffffffff16428263ffffffff166131a59190615f66565b115b156131de576040517f90b0b2c300000000000000000000000000000000000000000000000000000000815260040160405180910390fd5b7f8fcb9a8dc61c986e7488a736bc8edc39e7f8b2bea37fdf7aa56cf142c5fe04b7868260405161320f929190615de8565b60405180910390a15f6040858590500361326457602085013590507f4e39f53293455dca8fe1725b2dfcbe6abd2f44d777b7f2a7279526e17d7ebede878260405161325b929190615e1e565b60405180910390a15b5f6040518060c00160405280600115158152602001613282866143ee565b151581526020016132928661440a565b151581526020016132a286614426565b151581526020016132b284614442565b6fffffffffffffffffffffffffffffffff1681526020018463ffffffff1681525090506132de84614426565b1561330d5761330a605f6132fc605c8761446890919063ffffffff16565b61446890919063ffffffff16565b93505b6133407f00000000000000000000000000000000000000000000000000000000000000008561447790919063ffffffff16565b93508060055f8a73ffffffffffffffffffffffffffffffffffffffff1673ffffffffffffffffffffffffffffffffffffffff1681526020019081526020015f205f820151815f015f6101000a81548160ff0219169083151502179055506020820151815f0160016101000a81548160ff0219169083151502179055506040820151815f0160026101000a81548160ff0219169083151502179055506060820151815f0160036101000a81548160ff0219169083151502179055506080820151815f0160046101000a8154816fffffffffffffffffffffffffffffffff02191690836fffffffffffffffffffffffffffffffff16021790555060a0820151815f0160146101000a81548163ffffffff021916908363ffffffff16021790555090505050505095945050505050565b5f8061347b868686866134ef565b8092508193505050613490868684845f613660565b50949350505050565b5f816b019d971e4fe8401e740000005f1903048311158215176134c857634e487b715f5260116020526024601cfd5b6b033b2e3c9fd0803ce80000006b019d971e4fe8401e740000008385020104905092915050565b5f805f6134fb87612ead565b613505575f613548565b60045f886020015173ffffffffffffffffffffffffffffffffffffffff1673ffffffffffffffffffffffffffffffffffffffff1681526020019081526020015f20545b905061355381612f25565b15801561356f575061356e8188612f2f90919063ffffffff16565b5b156135815760015f925092505061364b565b61358d878787876144a4565b1561359f57600180925092505061364b565b5f7fffffffffffffffffffffffffffffffffffffffffffffffffffffffffffffffff90506135cc82612f25565b1580156135da575087604001515b1561360e576135ea888389612f58565b156135fd5760018093509350505061364b565b6136068261301a565b62ffffff1690505b613619888883613029565b1561362c5760018093509350505061364b565b61363588612ead565b156136485761364388612ec2565b600192505b50505b94509492505050565b5f818316905092915050565b81156137235782156136de578373ffffffffffffffffffffffffffffffffffffffff16856020015173ffffffffffffffffffffffffffffffffffffffff167fa04eb478c9c6a13a6de14b7eb31b1b629511e804c3cfef31bd549accd4b1552487606001516040516136d19190615d9a565b60405180910390a3613722565b8373ffffffffffffffffffffffffffffffffffffffff167f47695aa96e09db0d106b9bd402979d6aff7e51ada06ec6fe014e5eeadd8c1dc060405160405180910390a25b5b6137d160025f8673ffffffffffffffffffffffffffffffffffffffff1673ffffffffffffffffffffffffffffffffffffffff1681526020019081526020015f205f3373ffffffffffffffffffffffffffffffffffffffff1673ffffffffffffffffffffffffffffffffffffffff1681526020019081526020015f205f9054906101000a900460ff16156137c18584151561365490919063ffffffff16565b151561365490919063ffffffff16565b156138aa57600160025f8673ffffffffffffffffffffffffffffffffffffffff1673ffffffffffffffffffffffffffffffffffffffff1681526020019081526020015f205f3373ffffffffffffffffffffffffffffffffffffffff1673ffffffffffffffffffffffffffffffffffffffff1681526020019081526020015f205f6101000a81548160ff0219169083151502179055508373ffffffffffffffffffffffffffffffffffffffff167f69da6af30334fddc87acb34f52a47c7548a48aeee9ec3b0a5eef11539c0dce0160405160405180910390a25b811561399a578460015f8673ffffffffffffffffffffffffffffffffffffffff1673ffffffffffffffffffffffffffffffffffffffff1681526020019081526020015f205f820151815f015f6101000a81548160ff0219169083151502179055506020820151815f0160016101000a81548173ffffffffffffffffffffffffffffffffffffffff021916908373ffffffffffffffffffffffffffffffffffffffff1602179055506040820151815f0160156101000a81548160ff0219169083151502179055506060820151815f0160166101000a81548163ffffffff021916908363ffffffff1602179055509050505b5050505050565b5f60015f8473ffffffffffffffffffffffffffffffffffffffff1673ffffffffffffffffffffffffffffffffffffffff1681526020019081526020015f206040518060800160405290815f82015f9054906101000a900460ff161515151581526020015f820160019054906101000a900473ffffffffffffffffffffffffffffffffffffffff1673ffffffffffffffffffffffffffffffffffffffff1673ffffffffffffffffffffffffffffffffffffffff1681526020015f820160159054906101000a900460ff161515151581526020015f820160169054906101000a900463ffffffff1663ffffffff1663ffffffff168152505090505f613ab38363ffffffff16866142c690919063ffffffff16565b905042811015613aef576040517f5a922a2f00000000000000000000000000000000000000000000000000000000815260040160405180910390fd5b613af882612ead565b15613bf2575f60045f846020015173ffffffffffffffffffffffffffffffffffffffff1673ffffffffffffffffffffffffffffffffffffffff1681526020019081526020015f20549050613b4b81612f25565b613bf0575f613b6d846060015163ffffffff16836142c690919063ffffffff16565b9050613bb88184113373ffffffffffffffffffffffffffffffffffffffff16866020015173ffffffffffffffffffffffffffffffffffffffff1614151561456290919063ffffffff16565b613bee576040517fc03faa5600000000000000000000000000000000000000000000000000000000815260040160405180910390fd5b505b505b613bfe8286868661456e565b5050505050565b5f62ffffff8016613c158361301a565b62ffffff1614159050919050565b5f6001600380549050613c369190615f66565b9050808262ffffff1603613c6f576003805480613c5657613c55615f99565b5b600190038181905f5260205f20015f9055905550613d96565b5f613c9f8360038481548110613c8857613c87615ea6565b5b905f5260205f2001546146e590919063ffffffff16565b90508060038462ffffff1681548110613cbb57613cba615ea6565b5b905f5260205f2001819055506003805480613cd957613cd8615f99565b5b600190038181905f5260205f20015f905590555f613cf6826142f8565b90508160045f8373ffffffffffffffffffffffffffffffffffffffff1673ffffffffffffffffffffffffffffffffffffffff1681526020019081526020015f20819055508073ffffffffffffffffffffffffffffffffffffffff167f0c641c0a4b692db5a80ac5db2cdc5d138e9878e3a42907e4ca46377d45e820f0613d7b84614716565b86604051613d8a929190615f12565b60405180910390a25050505b50565b5f808685610160016020810190613db09190615fc6565b80925081935050505f339050613ddd8861ffff165f61ffff1661271061ffff166374e6ce7660e01b614722565b5f805f8373ffffffffffffffffffffffffffffffffffffffff1673ffffffffffffffffffffffffffffffffffffffff1681526020019081526020015f206040518060600160405290815f82015f9054906101000a900461ffff1661ffff1661ffff1681526020015f820160029054906101000a900461ffff1661ffff1661ffff1681526020015f820160049054906101000a900463ffffffff1663ffffffff1663ffffffff168152505090505f816040015163ffffffff16111561402e575f613edc826040015163ffffffff1642101589610140016020810190613ec19190615fc6565b61ffff168c61ffff161015151561365490919063ffffffff16565b90505f825f015161ffff168b61ffff1610159050613f058183151561456290919063ffffffff16565b1561402b578115613f58578373ffffffffffffffffffffffffffffffffffffffff167f145c143a918203cecb36063a1d70980ebb42b5b00490c5510d79c9d7717b77bb60405160405180910390a2613f9c565b8373ffffffffffffffffffffffffffffffffffffffff167f2045c970b5c1a8f9b69dd33e70a1f9d07b9021e408716d5b8daeb83a776ea05f60405160405180910390a25b5f808573ffffffffffffffffffffffffffffffffffffffff1673ffffffffffffffffffffffffffffffffffffffff1681526020019081526020015f205f8082015f6101000a81549061ffff02191690555f820160026101000a81549061ffff02191690555f820160046101000a81549063ffffffff02191690555050858360200151955095505050505061428f565b50505b5f805f836040015163ffffffff161461404f57825f01518360200151614078565b886101400160208101906140639190615fc6565b896101600160208101906140779190615fc6565b5b915091508161ffff168b61ffff16101561428a575f6140a48c61ffff168461ffff168461ffff1661473c565b90505f62127500426140b69190615ff1565b90505f856040015163ffffffff1603614147578573ffffffffffffffffffffffffffffffffffffffff167f16f9a191ecd86fd97f0ddc3dbed8fdc4d1e0d0644b93db99f8a577f52b0dec4384848460405161411393929190616084565b60405180910390a283855f019061ffff16908161ffff168152505082856020019061ffff16908161ffff16815250506141c4565b8a61014001602081019061415b9190615fc6565b61ffff168d61ffff161061417157846040015190505b8573ffffffffffffffffffffffffffffffffffffffff167ff813e17e21ecee3918b028c4e02f15f1fdd045f9f63183b6ab4f42c23c97b3218484846040516141bb93929190616084565b60405180910390a25b80856040019063ffffffff16908163ffffffff1681525050845f808873ffffffffffffffffffffffffffffffffffffffff1673ffffffffffffffffffffffffffffffffffffffff1681526020019081526020015f205f820151815f015f6101000a81548161ffff021916908361ffff1602179055506020820151815f0160026101000a81548161ffff021916908361ffff1602179055506040820151815f0160046101000a81548163ffffffff021916908363ffffffff16021790555090505081965050505b505050505b9550959350505050565b5f8160281b8360401b8560e01b171790509392505050565b5f8160e01b8360201b60201c17905092915050565b5f6142f06142d384614716565b63ffffffff1663ffffffff80168461479a9092919063ffffffff16565b905092915050565b5f8160201b60601c9050919050565b80836060019063ffffffff16908163ffffffff1681525050614328826142f8565b836020019073ffffffffffffffffffffffffffffffffffffffff16908173ffffffffffffffffffffffffffffffffffffffff168152505061436882613c05565b836040019015159081151581525050505050565b5f6143e58460800160208101906143939190615fc6565b8560a00160208101906143a69190615fc6565b8660c00160208101906143b991906160b9565b8760e00160208101906143cc9190615fc6565b886101000160208101906143e091906160b9565b6147b6565b95945050505050565b5f614403605c8361487190919063ffffffff16565b9050919050565b5f61441f605f8361487190919063ffffffff16565b9050919050565b5f61443b605e8361487190919063ffffffff16565b9050919050565b5f614463829150816fffffffffffffffffffffffffffffffff168314614880565b919050565b5f6001821b8317905092915050565b5f8260601c60601b8360501c838460101c808284161761ffff168060501b85179550505050505092915050565b5f60148383905003614539575f6144bb848461489a565b90505f60045f8373ffffffffffffffffffffffffffffffffffffffff1673ffffffffffffffffffffffffffffffffffffffff1681526020019081526020015f2054905061450781612f25565b158015614519575061451881613c05565b5b1561453257614529878288612f58565b9250505061455a565b5050614559565b601483839050111561455857614551858585856148a8565b905061455a565b5b5b949350505050565b5f818317905092915050565b614589838263ffffffff16866143079092919063ffffffff16565b8360015f8473ffffffffffffffffffffffffffffffffffffffff1673ffffffffffffffffffffffffffffffffffffffff1681526020019081526020015f205f820151815f015f6101000a81548160ff0219169083151502179055506020820151815f0160016101000a81548173ffffffffffffffffffffffffffffffffffffffff021916908373ffffffffffffffffffffffffffffffffffffffff1602179055506040820151815f0160156101000a81548160ff0219169083151502179055506060820151815f0160166101000a81548163ffffffff021916908363ffffffff1602179055509050508173ffffffffffffffffffffffffffffffffffffffff16614692846142f8565b73ffffffffffffffffffffffffffffffffffffffff167fa04eb478c9c6a13a6de14b7eb31b1b629511e804c3cfef31bd549accd4b15524836040516146d79190615d9a565b60405180910390a350505050565b5f8160281b7fffffffffffffffffffffffffffffffffffffffffffffffff000000ffffffffff841617905092915050565b5f8160e01c9050919050565b818411838510171561473657805f5260045ffd5b50505050565b5f8061475661271086866147509190615f66565b86614a06565b90506109c4811161476957829150614792565b5f61478261271083600261477d91906160e4565b614a31565b905061478e8185614a47565b9250505b509392505050565b5f82840190506147ad8282108284614a5d565b90509392505050565b6147d78561ffff165f61ffff1661271061ffff166374e6ce7660e01b614722565b6147f88461ffff165f61ffff1661271061ffff1663cfd2223a60e01b614722565b6148218363ffffffff165f63ffffffff166301e1338063ffffffff1663772de36160e01b614722565b6148428261ffff165f61ffff1661271061ffff1663c7f3bbb960e01b614722565b61486a8163ffffffff165f63ffffffff166276a70063ffffffff16632136673760e01b614722565b5050505050565b5f600183831c16905092915050565b8061489757634e487b715f5260116020526024601cfd5b50565b5f823560601c905092915050565b5f806354560cb260e01b60e01c63ffffffff1690505f6148c8858561489a565b90505f60045f8373ffffffffffffffffffffffffffffffffffffffff1673ffffffffffffffffffffffffffffffffffffffff1681526020019081526020015f2054905061491481612f25565b15614924575f93505050506149fe565b5f8063c177c70060e01b60e01c63ffffffff169050601488016040518681528a6020820152604080820152601489038060608301528083608084013760205f60648301601c85015f8b5af11561499a5760203d106001811461498f5763ffffffff5f51169550614998565b845f526004601cfd5b505b5050505f8214806149aa57504282115b156149bc575f955050505050506149fe565b426149d083856142c690919063ffffffff16565b106149f8576149ea83838c6143079092919063ffffffff16565b6001955050505050506149fe565b50505050505b949350505050565b5f825f190484118302158202614a235763ad251c275f526004601cfd5b818385020490509392505050565b5f614a3f8284108484614a5d565b905092915050565b5f614a558284108385614a5d565b905092915050565b5f8183038402820190509392505050565b60405180608001604052805f151581526020015f73ffffffffffffffffffffffffffffffffffffffff1681526020015f151581526020015f63ffffffff1681525090565b6040518060c001604052805f151581526020015f151581526020015f151581526020015f151581526020015f6fffffffffffffffffffffffffffffffff1681526020015f63ffffffff1681525090565b6040518061014001604052805f63ffffffff1681526020015f63ffffffff1681526020015f61ffff1681526020015f61ffff1681526020015f61ffff1681526020015f61ffff1681526020015f63ffffffff1681526020015f63ffffffff1681526020015f61ffff1681526020015f61ffff1681525090565b5f604051905090565b5f80fd5b5f80fd5b5f73ffffffffffffffffffffffffffffffffffffffff82169050919050565b5f614bb582614b8c565b9050919050565b614bc581614bab565b8114614bcf575f80fd5b50565b5f81359050614be081614bbc565b92915050565b5f63ffffffff82169050919050565b614bfe81614be6565b8114614c08575f80fd5b50565b5f81359050614c1981614bf5565b92915050565b5f8060408385031215614c3557614c34614b84565b5b5f614c4285828601614bd2565b9250506020614c5385828601614c0b565b9150509250929050565b5f61ffff82169050919050565b614c7381614c5d565b8114614c7d575f80fd5b50565b5f81359050614c8e81614c6a565b92915050565b5f80fd5b5f601f19601f8301169050919050565b7f4e487b71000000000000000000000000000000000000000000000000000000005f52604160045260245ffd5b614cde82614c98565b810181811067ffffffffffffffff82111715614cfd57614cfc614ca8565b5b80604052505050565b5f614d0f614b7b565b9050614d1b8282614cd5565b919050565b5f8115159050919050565b614d3481614d20565b8114614d3e575f80fd5b50565b5f81359050614d4f81614d2b565b92915050565b5f6fffffffffffffffffffffffffffffffff82169050919050565b614d7981614d55565b8114614d83575f80fd5b50565b5f81359050614d9481614d70565b92915050565b5f6cffffffffffffffffffffffffff82169050919050565b614dbb81614d9a565b8114614dc5575f80fd5b50565b5f81359050614dd681614db2565b92915050565b5f6dffffffffffffffffffffffffffff82169050919050565b614dfe81614ddc565b8114614e08575f80fd5b50565b5f81359050614e1981614df5565b92915050565b5f6101c08284031215614e3557614e34614c94565b5b614e406101c0614d06565b90505f614e4f84828501614d41565b5f830152506020614e6284828501614d86565b6020830152506040614e7684828501614d86565b6040830152506060614e8a84828501614d86565b6060830152506080614e9e84828501614dc8565b60808301525060a0614eb284828501614dc8565b60a08301525060c0614ec684828501614c0b565b60c08301525060e0614eda84828501614d41565b60e083015250610100614eef84828501614c0b565b61010083015250610120614f0584828501614c80565b61012083015250610140614f1b84828501614c80565b61014083015250610160614f3184828501614c80565b61016083015250610180614f4784828501614e0b565b610180830152506101a0614f5d84828501614c0b565b6101a08301525092915050565b5f80fd5b5f80fd5b5f80fd5b5f8083601f840112614f8b57614f8a614f6a565b5b8235905067ffffffffffffffff811115614fa857614fa7614f6e565b5b602083019150836001820283011115614fc457614fc3614f72565b5b9250929050565b5f805f806102008587031215614fe457614fe3614b84565b5b5f614ff187828801614c80565b945050602061500287828801614e1f565b9350506101e085013567ffffffffffffffff81111561502457615023614b88565b5b61503087828801614f76565b925092505092959194509250565b5f6020828403121561505357615052614b84565b5b5f61506084828501614bd2565b91505092915050565b5f806040838503121561507f5761507e614b84565b5b5f61508c85828601614bd2565b925050602061509d85828601614d86565b9150509250929050565b6150b081614d20565b82525050565b6150bf81614bab565b82525050565b6150ce81614be6565b82525050565b608082015f8201516150e85f8501826150a7565b5060208201516150fb60208501826150b6565b50604082015161510e60408501826150a7565b50606082015161512160608501826150c5565b50505050565b5f60808201905061513a5f8301846150d4565b92915050565b5f80fd5b5f610140828403121561515a57615159615140565b5b81905092915050565b5f805f805f6080868803121561517c5761517b614b84565b5b5f61518988828901614bd2565b955050602061519a88828901614bd2565b945050604086013567ffffffffffffffff8111156151bb576151ba614b88565b5b6151c788828901615144565b935050606086013567ffffffffffffffff8111156151e8576151e7614b88565b5b6151f488828901614f76565b92509250509295509295909350565b5f819050919050565b5f819050919050565b5f61522f61522a61522584615203565b61520c565b615203565b9050919050565b61523f81615215565b82525050565b5f6020820190506152585f830184615236565b92915050565b5f6101c0828403121561527457615273615140565b5b81905092915050565b5f805f805f610220868803121561529757615296614b84565b5b5f6152a488828901614bd2565b95505060206152b588828901614d86565b94505060406152c68882890161525e565b93505061020086013567ffffffffffffffff8111156152e8576152e7614b88565b5b6152f488828901614f76565b92509250509295509295909350565b61530c81614d55565b82525050565b60c082015f8201516153265f8501826150a7565b50602082015161533960208501826150a7565b50604082015161534c60408501826150a7565b50606082015161535f60608501826150a7565b5060808201516153726080850182615303565b5060a082015161538560a08501826150c5565b50505050565b5f60c08201905061539e5f830184615312565b92915050565b6153ad81615203565b81146153b7575f80fd5b50565b5f813590506153c8816153a4565b92915050565b5f805f805f8061024087890312156153e9576153e8614b84565b5b5f6153f689828a01614bd2565b965050602061540789828a01614c0b565b955050604061541889828a016153ba565b945050606061542989828a0161525e565b93505061022087013567ffffffffffffffff81111561544b5761544a614b88565b5b61545789828a01614f76565b92509250509295509295509295565b5f81519050919050565b5f82825260208201905092915050565b8281835e5f83830152505050565b5f61549882615466565b6154a28185615470565b93506154b2818560208601615480565b6154bb81614c98565b840191505092915050565b5f6020820190508181035f8301526154de818461548e565b905092915050565b5f805f805f6102208688031215615500576154ff614b84565b5b5f61550d88828901614bd2565b955050602061551e888289016153ba565b945050604061552f8882890161525e565b93505061020086013567ffffffffffffffff81111561555157615550614b88565b5b61555d88828901614f76565b92509250509295509295909350565b5f805f6040848603121561558357615582614b84565b5b5f61559086828701614bd2565b935050602084013567ffffffffffffffff8111156155b1576155b0614b88565b5b6155bd86828701614f76565b92509250509250925092565b6155d281614d20565b82525050565b5f6040820190506155eb5f8301856155c9565b6155f860208301846155c9565b9392505050565b61560881615215565b82525050565b5f6020820190506156215f8301846155ff565b92915050565b61563081614bab565b82525050565b5f6020820190506156495f830184615627565b92915050565b5f805f80610200858703121561566857615667614b84565b5b5f615675878288016153ba565b94505060206156868782880161525e565b9350506101e085013567ffffffffffffffff8111156156a8576156a7614b88565b5b6156b487828801614f76565b925092505092959194509250565b5f805f8061020085870312156156db576156da614b84565b5b5f6156e887828801614bd2565b94505060206156f98782880161525e565b9350506101e085013567ffffffffffffffff81111561571b5761571a614b88565b5b61572787828801614f76565b925092505092959194509250565b5f81519050919050565b5f82825260208201905092915050565b5f819050602082019050919050565b61576781615215565b82525050565b5f615778838361575e565b60208301905092915050565b5f602082019050919050565b5f61579a82615735565b6157a4818561573f565b93506157af8361574f565b805f5b838110156157df5781516157c6888261576d565b97506157d183615784565b9250506001810190506157b2565b5085935050505092915050565b5f6020820190508181035f8301526158048184615790565b905092915050565b5f67ffffffffffffffff82111561582657615825614ca8565b5b602082029050602081019050919050565b5f6158496158448461580c565b614d06565b9050808382526020820190506020840283018581111561586c5761586b614f72565b5b835b8181101561589557806158818882614bd2565b84526020840193505060208101905061586e565b5050509392505050565b5f82601f8301126158b3576158b2614f6a565b5b81356158c3848260208601615837565b91505092915050565b5f67ffffffffffffffff8211156158e6576158e5614ca8565b5b602082029050602081019050919050565b5f615909615904846158cc565b614d06565b9050808382526020820190506020840283018581111561592c5761592b614f72565b5b835b8181101561595557806159418882614c0b565b84526020840193505060208101905061592e565b5050509392505050565b5f82601f83011261597357615972614f6a565b5b81356159838482602086016158f7565b91505092915050565b5f80604083850312156159a2576159a1614b84565b5b5f83013567ffffffffffffffff8111156159bf576159be614b88565b5b6159cb8582860161589f565b925050602083013567ffffffffffffffff8111156159ec576159eb614b88565b5b6159f88582860161595f565b9150509250929050565b5f805f6101e08486031215615a1a57615a19614b84565b5b5f615a278682870161525e565b9350506101c084013567ffffffffffffffff811115615a4957615a48614b88565b5b615a5586828701614f76565b92509250509250925092565b5f805f805f805f610260888a031215615a7d57615a7c614b84565b5b5f615a8a8a828b01614bd2565b9750506020615a9b8a828b01614bd2565b9650506040615aac8a828b01614bd2565b9550506060615abd8a828b016153ba565b9450506080615ace8a828b0161525e565b93505061024088013567ffffffffffffffff811115615af057615aef614b88565b5b615afc8a828b01614f76565b925092505092959891949750929550565b615b1681614c5d565b82525050565b61014082015f820151615b315f8501826150c5565b506020820151615b4460208501826150c5565b506040820151615b576040850182615b0d565b506060820151615b6a6060850182615b0d565b506080820151615b7d6080850182615b0d565b5060a0820151615b9060a0850182615b0d565b5060c0820151615ba360c08501826150c5565b5060e0820151615bb660e08501826150c5565b50610100820151615bcb610100850182615b0d565b50610120820151615be0610120850182615b0d565b50505050565b5f61014082019050615bfa5f830184615b1c565b92915050565b5f8060408385031215615c1657615c15614b84565b5b5f615c2385828601614bd2565b9250506020615c3485828601614bd2565b9150509250929050565b5f602082019050615c515f8301846155c9565b92915050565b5f805f60608486031215615c6e57615c6d614b84565b5b5f615c7b86828701614bd2565b9350506020615c8c86828701614bd2565b9250506040615c9d86828701614d41565b9150509250925092565b615cb081615215565b82525050565b5f602082019050615cc95f830184615ca7565b92915050565b5f805f805f6102208688031215615ce957615ce8614b84565b5b5f615cf688828901614c80565b9550506020615d0788828901614c80565b9450506040615d188882890161525e565b93505061020086013567ffffffffffffffff811115615d3a57615d39614b88565b5b615d4688828901614f76565b92509250509295509295909350565b615d5e81614c5d565b82525050565b5f604082019050615d775f830185615d55565b615d846020830184615d55565b9392505050565b615d9481614be6565b82525050565b5f602082019050615dad5f830184615d8b565b92915050565b5f606082019050615dc65f830186615d55565b615dd36020830185615d55565b615de06040830184615d8b565b949350505050565b5f604082019050615dfb5f830185615627565b615e086020830184615d8b565b9392505050565b615e1881614d55565b82525050565b5f604082019050615e315f830185615627565b615e3e6020830184615e0f565b9392505050565b5f60208284031215615e5a57615e59614b84565b5b5f615e6784828501614e0b565b91505092915050565b5f62ffffff82169050919050565b615e8781615e70565b82525050565b5f602082019050615ea05f830184615e7e565b92915050565b7f4e487b71000000000000000000000000000000000000000000000000000000005f52603260045260245ffd5b5f81519050615ee181614d2b565b92915050565b5f60208284031215615efc57615efb614b84565b5b5f615f0984828501615ed3565b91505092915050565b5f604082019050615f255f830185615d8b565b615f326020830184615e7e565b9392505050565b7f4e487b71000000000000000000000000000000000000000000000000000000005f52601160045260245ffd5b5f615f7082615203565b9150615f7b83615203565b9250828203905081811115615f9357615f92615f39565b5b92915050565b7f4e487b71000000000000000000000000000000000000000000000000000000005f52603160045260245ffd5b5f60208284031215615fdb57615fda614b84565b5b5f615fe884828501614c80565b91505092915050565b5f615ffb82615203565b915061600683615203565b925082820190508082111561601e5761601d615f39565b5b92915050565b5f61603e61603961603484614c5d565b61520c565b615203565b9050919050565b61604e81616024565b82525050565b5f61606e61606961606484614be6565b61520c565b615203565b9050919050565b61607e81616054565b82525050565b5f6060820190506160975f830186616045565b6160a46020830185616045565b6160b16040830184616075565b949350505050565b5f602082840312156160ce576160cd614b84565b5b5f6160db84828501614c0b565b91505092915050565b5f6160ee82615203565b91506160f983615203565b925082820261610781615203565b9150828204841483151761611e5761611d615f39565b5b509291505056fea164736f6c6343000819000a","linkReferences":{}},"methodIdentifiers":{"MaximumLoanTerm()":"f040ed98","addRoleProvider(address,uint32)":"ea5b13bd","blockFromDeposits(address)":"064ed53b","borrower()":"7df1f1b9","config()":"79502c55","factory()":"c45a0155","getHookedMarket(address)":"2ccf4667","getLenderStatus(address)":"22a4a19f","getParameterConstraints()":"a11ef067","getPreviousLenderStatus(address)":"b037096d","getPullProviders()":"8f8ef419","getRoleProvider(address)":"bfd269be","grantRole(address,uint32)":"6b2b369b","grantRoles(address[],uint32[])":"9d2a76fe","isKnownLenderOnMarket(address,address)":"a9ff2dbf","onBorrow(uint256,(bool,uint128,uint128,uint128,uint104,uint104,uint32,bool,uint32,uint16,uint16,uint16,uint112,uint32),bytes)":"b1cfda0d","onCloseMarket((bool,uint128,uint128,uint128,uint104,uint104,uint32,bool,uint32,uint16,uint16,uint16,uint112,uint32),bytes)":"9ecc64e6","onCreateMarket(address,address,(address,string,string,uint128,uint16,uint16,uint32,uint16,uint32,uint256),bytes)":"28fd0307","onDeposit(address,uint256,(bool,uint128,uint128,uint128,uint104,uint104,uint32,bool,uint32,uint16,uint16,uint16,uint112,uint32),bytes)":"5aeb713f","onExecuteWithdrawal(address,uint128,(bool,uint128,uint128,uint128,uint104,uint104,uint32,bool,uint32,uint16,uint16,uint16,uint112,uint32),bytes)":"2970403d","onNukeFromOrbit(address,(bool,uint128,uint128,uint128,uint104,uint104,uint32,bool,uint32,uint16,uint16,uint16,uint112,uint32),bytes)":"8b3ce9b3","onQueueWithdrawal(address,uint32,uint256,(bool,uint128,uint128,uint128,uint104,uint104,uint32,bool,uint32,uint16,uint16,uint16,uint112,uint32),bytes)":"3521cccc","onRepay(uint256,(bool,uint128,uint128,uint128,uint104,uint104,uint32,bool,uint32,uint16,uint16,uint16,uint112,uint32),bytes)":"83d9e1eb","onSetAnnualInterestAndReserveRatioBips(uint16,uint16,(bool,uint128,uint128,uint128,uint104,uint104,uint32,bool,uint32,uint16,uint16,uint16,uint112,uint32),bytes)":"cc452642","onSetMaxTotalSupply(uint256,(bool,uint128,uint128,uint128,uint104,uint104,uint32,bool,uint32,uint16,uint16,uint16,uint112,uint32),bytes)":"849da129","onSetProtocolFeeBips(uint16,(bool,uint128,uint128,uint128,uint104,uint104,uint32,bool,uint32,uint16,uint16,uint16,uint112,uint32),bytes)":"03473d8d","onTransfer(address,address,address,uint256,(bool,uint128,uint128,uint128,uint104,uint104,uint32,bool,uint32,uint16,uint16,uint16,uint112,uint32),bytes)":"a018f90e","removeRoleProvider(address)":"8adfe0f8","revokeRole(address)":"80e52e3f","setFixedTermEndTime(address,uint32)":"02420e7f","setIsKnownLender(address,address,bool)":"be47fd61","setMinimumDeposit(address,uint128)":"1c4b3694","temporaryExcessReserveRatio(address)":"feb368e2","tryValidateAccess(address,bytes)":"6573fe74","unblockFromDeposits(address)":"aa948689","version()":"54fd4d50"},"id":150}