{"abi":[{"type":"function","name":"accruedProtocolFees","inputs":[],"outputs":[{"name":"","type":"uint256","internalType":"uint256"}],"stateMutability":"view"},{"type":"function","name":"allowance","inputs":[{"name":"","type":"address","internalType":"address"},{"name":"","type":"address","internalType":"address"}],"outputs":[{"name":"","type":"uint256","internalType":"uint256"}],"stateMutability":"view"},{"type":"function","name":"approve","inputs":[{"name":"spender","type":"address","internalType":"address"},{"name":"amount","type":"uint256","internalType":"uint256"}],"outputs":[{"name":"","type":"bool","internalType":"bool"}],"stateMutability":"nonpayable"},{"type":"function","name":"archController","inputs":[],"outputs":[{"name":"","type":"address","internalType":"address"}],"stateMutability":"view"},{"type":"function","name":"asset","inputs":[],"outputs":[{"name":"","type":"address","internalType":"address"}],"stateMutability":"view"},{"type":"function","name":"balanceOf","inputs":[{"name":"account","type":"address","internalType":"address"}],"outputs":[{"name":"","type":"uint256","internalType":"uint256"}],"stateMutability":"view"},{"type":"function","name":"borrowableAssets","inputs":[],"outputs":[{"name":"","type":"uint256","internalType":"uint256"}],"stateMutability":"view"},{"type":"function","name":"borrower","inputs":[],"outputs":[{"name":"","type":"address","internalType":"address"}],"stateMutability":"view"},{"type":"function","name":"changeSphereXEngine","inputs":[{"name":"newSphereXEngine","type":"address","internalType":"address"}],"outputs":[],"stateMutability":"nonpayable"},{"type":"function","name":"coverageLiquidity","inputs":[],"outputs":[{"name":"","type":"uint256","internalType":"uint256"}],"stateMutability":"view"},{"type":"function","name":"currentState","inputs":[],"outputs":[{"name":"state","type":"tuple","internalType":"struct MarketState","components":[{"name":"isClosed","type":"bool","internalType":"bool"},{"name":"maxTotalSupply","type":"uint128","internalType":"uint128"},{"name":"accruedProtocolFees","type":"uint128","internalType":"uint128"},{"name":"normalizedUnclaimedWithdrawals","type":"uint128","internalType":"uint128"},{"name":"scaledTotalSupply","type":"uint104","internalType":"uint104"},{"name":"scaledPendingWithdrawals","type":"uint104","internalType":"uint104"},{"name":"pendingWithdrawalExpiry","type":"uint32","internalType":"uint32"},{"name":"isDelinquent","type":"bool","internalType":"bool"},{"name":"timeDelinquent","type":"uint32","internalType":"uint32"},{"name":"protocolFeeBips","type":"uint16","internalType":"uint16"},{"name":"annualInterestBips","type":"uint16","internalType":"uint16"},{"name":"reserveRatioBips","type":"uint16","internalType":"uint16"},{"name":"scaleFactor","type":"uint112","internalType":"uint112"},{"name":"lastInterestAccruedTimestamp","type":"uint32","internalType":"uint32"}]}],"stateMutability":"view"},{"type":"function","name":"decimals","inputs":[],"outputs":[{"name":"","type":"uint8","internalType":"uint8"}],"stateMutability":"view"},{"type":"function","name":"delinquencyFeeBips","inputs":[],"outputs":[{"name":"","type":"uint256","internalType":"uint256"}],"stateMutability":"view"},{"type":"function","name":"delinquencyGracePeriod","inputs":[],"outputs":[{"name":"","type":"uint256","internalType":"uint256"}],"stateMutability":"view"},{"type":"function","name":"factory","inputs":[],"outputs":[{"name":"","type":"address","internalType":"address"}],"stateMutability":"view"},{"type":"function","name":"feeRecipient","inputs":[],"outputs":[{"name":"","type":"address","internalType":"address"}],"stateMutability":"view"},{"type":"function","name":"hooks","inputs":[],"outputs":[{"name":"","type":"uint256","internalType":"HooksConfig"}],"stateMutability":"view"},{"type":"function","name":"name","inputs":[],"outputs":[{"name":"","type":"string","internalType":"string"}],"stateMutability":"view"},{"type":"function","name":"previousState","inputs":[],"outputs":[{"name":"","type":"tuple","internalType":"struct MarketState","components":[{"name":"isClosed","type":"bool","internalType":"bool"},{"name":"maxTotalSupply","type":"uint128","internalType":"uint128"},{"name":"accruedProtocolFees","type":"uint128","internalType":"uint128"},{"name":"normalizedUnclaimedWithdrawals","type":"uint128","internalType":"uint128"},{"name":"scaledTotalSupply","type":"uint104","internalType":"uint104"},{"name":"scaledPendingWithdrawals","type":"uint104","internalType":"uint104"},{"name":"pendingWithdrawalExpiry","type":"uint32","internalType":"uint32"},{"name":"isDelinquent","type":"bool","internalType":"bool"},{"name":"timeDelinquent","type":"uint32","internalType":"uint32"},{"name":"protocolFeeBips","type":"uint16","internalType":"uint16"},{"name":"annualInterestBips","type":"uint16","internalType":"uint16"},{"name":"reserveRatioBips","type":"uint16","internalType":"uint16"},{"name":"scaleFactor","type":"uint112","internalType":"uint112"},{"name":"lastInterestAccruedTimestamp","type":"uint32","internalType":"uint32"}]}],"stateMutability":"view"},{"type":"function","name":"scaleFactor","inputs":[],"outputs":[{"name":"","type":"uint256","internalType":"uint256"}],"stateMutability":"view"},{"type":"function","name":"scaledBalanceOf","inputs":[{"name":"account","type":"address","internalType":"address"}],"outputs":[{"name":"","type":"uint256","internalType":"uint256"}],"stateMutability":"view"},{"type":"function","name":"scaledTotalSupply","inputs":[],"outputs":[{"name":"","type":"uint256","internalType":"uint256"}],"stateMutability":"view"},{"type":"function","name":"sentinel","inputs":[],"outputs":[{"name":"","type":"address","internalType":"address"}],"stateMutability":"view"},{"type":"function","name":"sphereXEngine","inputs":[],"outputs":[{"name":"","type":"address","internalType":"address"}],"stateMutability":"view"},{"type":"function","name":"sphereXOperator","inputs":[],"outputs":[{"name":"","type":"address","internalType":"address"}],"stateMutability":"view"},{"type":"function","name":"symbol","inputs":[],"outputs":[{"name":"","type":"string","internalType":"string"}],"stateMutability":"view"},{"type":"function","name":"totalAssets","inputs":[],"outputs":[{"name":"","type":"uint256","internalType":"uint256"}],"stateMutability":"view"},{"type":"function","name":"totalDebts","inputs":[],"outputs":[{"name":"","type":"uint256","internalType":"uint256"}],"stateMutability":"view"},{"type":"function","name":"totalSupply","inputs":[],"outputs":[{"name":"","type":"uint256","internalType":"uint256"}],"stateMutability":"view"},{"type":"function","name":"transfer","inputs":[{"name":"to","type":"address","internalType":"address"},{"name":"amount","type":"uint256","internalType":"uint256"}],"outputs":[{"name":"","type":"bool","internalType":"bool"}],"stateMutability":"nonpayable"},{"type":"function","name":"transferFrom","inputs":[{"name":"from","type":"address","internalType":"address"},{"name":"to","type":"address","internalType":"address"},{"name":"amount","type":"uint256","internalType":"uint256"}],"outputs":[{"name":"","type":"bool","internalType":"bool"}],"stateMutability":"nonpayable"},{"type":"function","name":"version","inputs":[],"outputs":[{"name":"","type":"string","internalType":"string"}],"stateMutability":"pure"},{"type":"function","name":"withdrawableProtocolFees","inputs":[],"outputs":[{"name":"","type":"uint128","internalType":"uint128"}],"stateMutability":"view"},{"type":"function","name":"withdrawalBatchDuration","inputs":[],"outputs":[{"name":"","type":"uint256","internalType":"uint256"}],"stateMutability":"view"},{"type":"event","name":"AccountSanctioned","inputs":[{"name":"account","type":"address","indexed":true,"internalType":"address"}],"anonymous":false},{"type":"event","name":"AnnualInterestBipsUpdated","inputs":[{"name":"annualInterestBipsUpdated","type":"uint256","indexed":false,"internalType":"uint256"}],"anonymous":false},{"type":"event","name":"Approval","inputs":[{"name":"owner","type":"address","indexed":true,"internalType":"address"},{"name":"spender","type":"address","indexed":true,"internalType":"address"},{"name":"value","type":"uint256","indexed":false,"internalType":"uint256"}],"anonymous":false},{"type":"event","name":"Borrow","inputs":[{"name":"assetAmount","type":"uint256","indexed":false,"internalType":"uint256"}],"anonymous":false},{"type":"event","name":"ChangedSpherexEngineAddress","inputs":[{"name":"oldEngineAddress","type":"address","indexed":false,"internalType":"address"},{"name":"newEngineAddress","type":"address","indexed":false,"internalType":"address"}],"anonymous":false},{"type":"event","name":"ChangedSpherexOperator","inputs":[{"name":"oldSphereXAdmin","type":"address","indexed":false,"internalType":"address"},{"name":"newSphereXAdmin","type":"address","indexed":false,"internalType":"address"}],"anonymous":false},{"type":"event","name":"DebtRepaid","inputs":[{"name":"from","type":"address","indexed":true,"internalType":"address"},{"name":"assetAmount","type":"uint256","indexed":false,"internalType":"uint256"}],"anonymous":false},{"type":"event","name":"Deposit","inputs":[{"name":"account","type":"address","indexed":true,"internalType":"address"},{"name":"assetAmount","type":"uint256","indexed":false,"internalType":"uint256"},{"name":"scaledAmount","type":"uint256","indexed":false,"internalType":"uint256"}],"anonymous":false},{"type":"event","name":"FeesCollected","inputs":[{"name":"assets","type":"uint256","indexed":false,"internalType":"uint256"}],"anonymous":false},{"type":"event","name":"InterestAndFeesAccrued","inputs":[{"name":"fromTimestamp","type":"uint256","indexed":false,"internalType":"uint256"},{"name":"toTimestamp","type":"uint256","indexed":false,"internalType":"uint256"},{"name":"scaleFactor","type":"uint256","indexed":false,"internalType":"uint256"},{"name":"baseInterestRay","type":"uint256","indexed":false,"internalType":"uint256"},{"name":"delinquencyFeeRay","type":"uint256","indexed":false,"internalType":"uint256"},{"name":"protocolFees","type":"uint256","indexed":false,"internalType":"uint256"}],"anonymous":false},{"type":"event","name":"MarketClosed","inputs":[{"name":"timestamp","type":"uint256","indexed":false,"internalType":"uint256"}],"anonymous":false},{"type":"event","name":"MaxTotalSupplyUpdated","inputs":[{"name":"assets","type":"uint256","indexed":false,"internalType":"uint256"}],"anonymous":false},{"type":"event","name":"ProtocolFeeBipsUpdated","inputs":[{"name":"protocolFeeBips","type":"uint256","indexed":false,"internalType":"uint256"}],"anonymous":false},{"type":"event","name":"ReserveRatioBipsUpdated","inputs":[{"name":"reserveRatioBipsUpdated","type":"uint256","indexed":false,"internalType":"uint256"}],"anonymous":false},{"type":"event","name":"SanctionedAccountAssetsQueuedForWithdrawal","inputs":[{"name":"account","type":"address","indexed":true,"internalType":"address"},{"name":"expiry","type":"uint256","indexed":false,"internalType":"uint256"},{"name":"scaledAmount","type":"uint256","indexed":false,"internalType":"uint256"},{"name":"normalizedAmount","type":"uint256","indexed":false,"internalType":"uint256"}],"anonymous":false},{"type":"event","name":"SanctionedAccountAssetsSentToEscrow","inputs":[{"name":"account","type":"address","indexed":true,"internalType":"address"},{"name":"escrow","type":"address","indexed":false,"internalType":"address"},{"name":"amount","type":"uint256","indexed":false,"internalType":"uint256"}],"anonymous":false},{"type":"event","name":"SanctionedAccountWithdrawalSentToEscrow","inputs":[{"name":"account","type":"address","indexed":true,"internalType":"address"},{"name":"escrow","type":"address","indexed":false,"internalType":"address"},{"name":"expiry","type":"uint32","indexed":false,"internalType":"uint32"},{"name":"amount","type":"uint256","indexed":false,"internalType":"uint256"}],"anonymous":false},{"type":"event","name":"StateUpdated","inputs":[{"name":"scaleFactor","type":"uint256","indexed":false,"internalType":"uint256"},{"name":"isDelinquent","type":"bool","indexed":false,"internalType":"bool"}],"anonymous":false},{"type":"event","name":"Transfer","inputs":[{"name":"from","type":"address","indexed":true,"internalType":"address"},{"name":"to","type":"address","indexed":true,"internalType":"address"},{"name":"value","type":"uint256","indexed":false,"internalType":"uint256"}],"anonymous":false},{"type":"event","name":"WithdrawalBatchClosed","inputs":[{"name":"expiry","type":"uint256","indexed":true,"internalType":"uint256"}],"anonymous":false},{"type":"event","name":"WithdrawalBatchCreated","inputs":[{"name":"expiry","type":"uint256","indexed":true,"internalType":"uint256"}],"anonymous":false},{"type":"event","name":"WithdrawalBatchExpired","inputs":[{"name":"expiry","type":"uint256","indexed":true,"internalType":"uint256"},{"name":"scaledTotalAmount","type":"uint256","indexed":false,"internalType":"uint256"},{"name":"scaledAmountBurned","type":"uint256","indexed":false,"internalType":"uint256"},{"name":"normalizedAmountPaid","type":"uint256","indexed":false,"internalType":"uint256"}],"anonymous":false},{"type":"event","name":"WithdrawalBatchPayment","inputs":[{"name":"expiry","type":"uint256","indexed":true,"internalType":"uint256"},{"name":"scaledAmountBurned","type":"uint256","indexed":false,"internalType":"uint256"},{"name":"normalizedAmountPaid","type":"uint256","indexed":false,"internalType":"uint256"}],"anonymous":false},{"type":"event","name":"WithdrawalExecuted","inputs":[{"name":"expiry","type":"uint256","indexed":true,"internalType":"uint256"},{"name":"account","type":"address","indexed":true,"internalType":"address"},{"name":"normalizedAmount","type":"uint256","indexed":false,"internalType":"uint256"}],"anonymous":false},{"type":"event","name":"WithdrawalQueued","inputs":[{"name":"expiry","type":"uint256","indexed":true,"internalType":"uint256"},{"name":"account","type":"address","indexed":true,"internalType":"address"},{"name":"scaledAmount","type":"uint256","indexed":false,"internalType":"uint256"},{"name":"normalizedAmount","type":"uint256","indexed":false,"internalType":"uint256"}],"anonymous":false},{"type":"error","name":"AccountBlocked","inputs":[]},{"type":"error","name":"AnnualInterestBipsTooHigh","inputs":[]},{"type":"error","name":"AprChangeOnClosedMarket","inputs":[]},{"type":"error","name":"BadLaunchCode","inputs":[]},{"type":"error","name":"BadRescueAsset","inputs":[]},{"type":"error","name":"BorrowAmountTooHigh","inputs":[]},{"type":"error","name":"BorrowFromClosedMarket","inputs":[]},{"type":"error","name":"BorrowWhileSanctioned","inputs":[]},{"type":"error","name":"CapacityChangeOnClosedMarket","inputs":[]},{"type":"error","name":"CloseMarketWithUnpaidWithdrawals","inputs":[]},{"type":"error","name":"DepositToClosedMarket","inputs":[]},{"type":"error","name":"InsufficientReservesForFeeWithdrawal","inputs":[]},{"type":"error","name":"InsufficientReservesForNewLiquidityRatio","inputs":[]},{"type":"error","name":"InsufficientReservesForOldLiquidityRatio","inputs":[]},{"type":"error","name":"InvalidArrayLength","inputs":[]},{"type":"error","name":"MarketAlreadyClosed","inputs":[]},{"type":"error","name":"MaxSupplyExceeded","inputs":[]},{"type":"error","name":"NoReentrantCalls","inputs":[]},{"type":"error","name":"NotApprovedBorrower","inputs":[]},{"type":"error","name":"NotApprovedLender","inputs":[]},{"type":"error","name":"NotFactory","inputs":[]},{"type":"error","name":"NullBurnAmount","inputs":[]},{"type":"error","name":"NullFeeAmount","inputs":[]},{"type":"error","name":"NullMintAmount","inputs":[]},{"type":"error","name":"NullRepayAmount","inputs":[]},{"type":"error","name":"NullTransferAmount","inputs":[]},{"type":"error","name":"NullWithdrawalAmount","inputs":[]},{"type":"error","name":"ProtocolFeeChangeOnClosedMarket","inputs":[]},{"type":"error","name":"ProtocolFeeNotChanged","inputs":[]},{"type":"error","name":"ProtocolFeeTooHigh","inputs":[]},{"type":"error","name":"RepayToClosedMarket","inputs":[]},{"type":"error","name":"ReserveRatioBipsTooHigh","inputs":[]},{"type":"error","name":"SphereXOperatorRequired","inputs":[]},{"type":"error","name":"WithdrawalBatchNotExpired","inputs":[]}],"bytecode":{"object":"0x610260604052348015610010575f80fd5b5033610100525f6100326101e560201b610aac176001600160401b031660201c565b9050805f01516001600160a01b03166101c0816001600160a01b031681525050806020015160ff166101a08160ff168152505080604001516101e0818152505080606001516102008181525050806080015161022081815250508060a0015161024081815250505f8161012001516001600160801b031690505f826101c0015161ffff1690505f83610160015161ffff1690505f84610140015161ffff1690508360081b805f55508060201b8260301b178360401b6b033b2e3c9fd0803ce800000060501b4260c01b1717178060035f0155505050505080610240015160a081815250508061010001516001600160a01b031660c0816001600160a01b0316815250508060c001516001600160a01b031660e0816001600160a01b0316815250508060e001516001600160a01b0316610120816001600160a01b03168152505080610180015161ffff166101408181525050806101e0015163ffffffff166101608181525050806101a0015163ffffffff1661018081815250508061020001516001600160a01b03166080816001600160a01b0316815250506101df81610220015161021660201b60201c565b506102ed565b5f604051905061026081016040526304032dbb5f52610260816004601c335afa6102603d1416610213575f80fd5b90565b6102285f60805161026860201b60201c565b61025b61025660017f1777adabd324f814e2b0e28f6edf876dce01d7d66358c9acfe87b1b5f38338d66102c8565b829055565b6102655f82610298565b50565b815f52806020527f2ac55ae7ba47db34b5334622acafeb34a65daf143b47019273185d64c73a35a560405fa15050565b815f52806020527ff33499cccaa0611882086224cc48cd82ef54b66a4d2edf4ed67108dd516896d560405fa15050565b818103818111156102e757634e487b7160e01b5f52601160045260245ffd5b92915050565b60805160a05160c05160e05161010051610120516101405161016051610180516101a0516101c0516101e0516102005161022051610240516127d66103e95f395f610a2f01525f610a0b01525f6105a401525f61058001525f818161030d015261055001525f6102d401525f61046601525f81816103b7015281816111ed015281816112d8015281816114fa015261159401525f818161037b015281816111cc015281816112b7015281816114d9015261157301525f61035401525f6104a801525f8181610437015261205f01525f8181610520015261208301525f81816104cf0152610cac01525f81816103db01526108aa01526127d65ff3fe608060405234801561000f575f80fd5b50600436106101fd575f3560e01c8063514a4cd61161011457806395d89b41116100a9578063c45a015511610079578063c45a0155146104a3578063cd7033c4146104ca578063dd62ed3e146104f1578063e7e5db4f146103d9578063f58c251c1461051b575f80fd5b806395d89b41146104595780639e6f980214610461578063a9059cbb14610488578063b1bf962d1461049b575f80fd5b806370a08231116100e457806370a082311461040f578063739ccdd314610422578063766360171461042a5780637df1f1b914610432575f80fd5b8063514a4cd6146103b257806354635570146103d957806354fd4d50146103ff578063683dd19114610407575f80fd5b80631da24f3e1161019557806338d52e0f1161016557806338d52e0f146103085780633c23116614610347578063469048401461034f5780634be687c6146103765780634c6c848f1461039d575f80fd5b80631da24f3e146102895780631e3cef531461029c57806323b872dd146102bc578063313ce567146102cf575f80fd5b80630c3f6acf116101d05780630c3f6acf146102695780630cd1a5b61461027157806314a1c32d1461027957806318160ddd14610281575f80fd5b806301e1d1141461020157806306fdde031461021c578063095ea7b3146102315780630c1e3fea14610254575b5f80fd5b610209610542565b6040519081526020015b60405180910390f35b61022461057b565b60405161021391906124dd565b61024461023f366004612528565b6105da565b6040519015158152602001610213565b61025c610615565b6040516102139190612550565b61025c610713565b61020961073a565b610209610761565b61020961077d565b61020961029736600461267a565b610799565b6102a46107ca565b6040516001600160801b039091168152602001610213565b6102446102ca366004612693565b6107e7565b6102f67f000000000000000000000000000000000000000000000000000000000000000081565b60405160ff9091168152602001610213565b61032f7f000000000000000000000000000000000000000000000000000000000000000081565b6040516001600160a01b039091168152602001610213565b61032f61086c565b61032f7f000000000000000000000000000000000000000000000000000000000000000081565b6102097f000000000000000000000000000000000000000000000000000000000000000081565b6103b06103ab36600461267a565b61089f565b005b6102097f000000000000000000000000000000000000000000000000000000000000000081565b7f000000000000000000000000000000000000000000000000000000000000000061032f565b610224610949565b61020961095f565b61020961041d36600461267a565b610986565b6102096109c5565b6102096109e1565b61032f7f000000000000000000000000000000000000000000000000000000000000000081565b610224610a06565b6102097f000000000000000000000000000000000000000000000000000000000000000081565b610244610496366004612528565b610a65565b610209610a86565b61032f7f000000000000000000000000000000000000000000000000000000000000000081565b6102097f000000000000000000000000000000000000000000000000000000000000000081565b6102096104ff3660046126cc565b600960209081525f928352604080842090915290825290205481565b61032f7f000000000000000000000000000000000000000000000000000000000000000081565b5f6105766001600160a01b037f00000000000000000000000000000000000000000000000000000000000000001630610ada565b905090565b60605f7f000000000000000000000000000000000000000000000000000000000000000090505f7f0000000000000000000000000000000000000000000000000000000000000000905060205f525f60205281603f5280605f5260805ff35b5f6105e3610b0f565b5f6105ec610b33565b90506105f9338585610b44565b6001915061060681610b7b565b5061060f610b8a565b92915050565b61061d61246a565b604080516101c080820183525f5460ff808216151584526001600160801b03610100928390048116602086015260015480821696860196909652600160801b90950490941660608401526002546001600160681b038082166080860152600160681b82041660a085015263ffffffff600160d01b8204811660c0860152600160f01b909104909416151560e08401526003548085169184019190915261ffff64010000000082048116610120850152600160301b82048116610140850152600160401b8204166101608401526001600160701b03600160501b820416610180840152600160c01b90049092166101a08201529081f35b61071b61246a565b610723610b93565b610732610bad5b63ffffffff16565b90506101c081f35b5f610743610b93565b61074e610bad61072a565b604001516001600160801b031690505b90565b5f61076a610b93565b610576610778610bad61072a565b610bc1565b5f610786610b93565b610576610794610bad61072a565b610c12565b5f6107a2610b93565b506001600160a01b0381165f908152600460205260409020546001600160681b03165b919050565b5f6105766107d6610542565b6107e1610bad61072a565b90610c33565b5f6107f0610b0f565b5f6107f9610b33565b6001600160a01b0386165f9081526009602090815260408083203384529091529020549091505f198114610841575f6108328583612711565b905061083f873383610b44565b505b61084e8686866064610c6f565b600192505061085c81610b7b565b50610865610b8a565b9392505050565b5f61057661089b60017f1777adabd324f814e2b0e28f6edf876dce01d7d66358c9acfe87b1b5f38338d6612711565b5490565b336001600160a01b037f000000000000000000000000000000000000000000000000000000000000000016146108d7576108d7610dbb565b5f61090661089b60017f1777adabd324f814e2b0e28f6edf876dce01d7d66358c9acfe87b1b5f38338d6612711565b905061093b61093660017f1777adabd324f814e2b0e28f6edf876dce01d7d66358c9acfe87b1b5f38338d6612711565b839055565b6109458183610dc8565b5050565b60605f6040526101326041526020805260606020f35b5f610968610b93565b610973610bad61072a565b61018001516001600160701b0316905090565b5f61098f610b93565b6001600160a01b0382165f9081526004602052604090205461060f906001600160681b03166109bf610bad61072a565b90610df8565b5f6109ce610b93565b6105766109dc610bad61072a565b610e1a565b5f6109ea610b93565b6105766109f5610542565b610a00610bad61072a565b90610ea9565b60605f7f000000000000000000000000000000000000000000000000000000000000000090505f7f0000000000000000000000000000000000000000000000000000000000000000905060205f525f60205281603f5280605f5260805ff35b5f610a6e610b0f565b5f610a77610b33565b90506105f93385856044610c6f565b5f610a8f610b93565b610a9a610bad61072a565b608001516001600160681b0316905090565b5f604051905061026081016040526304032dbb5f52610260816004601c335afa6102603d141661075e575f80fd5b5f6370a082315f528160205260205f6024601c865afa601f3d1116610b0657634963f6d55f526004601cfd5b50505f51919050565b63929eee145c8015610b2857637fa8a9875f526004601cfd5b50600163929eee145d565b5f610576813560e01c610ec061072a565b6001600160a01b038084165f908152600960209081526040808320938616835292905220819055610b76838383610fc8565b505050565b610b8781610ff761072a565b50565b5f63929eee145d565b63929eee145c15610bab57637fa8a9875f526004601cfd5b565b5f610bb961107f61072a565b509092915050565b5f81604001516001600160801b031682606001516001600160801b0316610bfe84608001516001600160681b031685610df890919063ffffffff16565b610c089190612724565b61060f9190612724565b5f61060f82608001516001600160681b031683610df890919063ffffffff16565b5f8083606001516001600160801b031683610c4e9190612711565b9050610c678185604001516001600160801b031661139a565b949350505050565b5f610c786113a9565b90505f610c8d610c8883866116f0565b611712565b9050806001600160681b03165f03610ca757610ca7611727565b610cde7f000000000000000000000000000000000000000000000000000000000000000087876001600160681b0385168688611734565b5f610ce8876117c2565b905081815f01818151610cfb9190612737565b6001600160681b039081169091526001600160a01b0389165f908152600460205260408120845181546cffffffffffffffffffffffffff19169316929092179091559050610d48876117c2565b905082815f01818151610d5b919061275e565b6001600160681b039081169091526001600160a01b0389165f908152600460205260409020835181546cffffffffffffffffffffffffff1916921691909117905550610da684611811565b610db188888861196a565b5050505050505050565b634ee0b8f85f526004601cfd5b815f52806020527ff33499cccaa0611882086224cc48cd82ef54b66a4d2edf4ed67108dd516896d560405fa15050565b5f6108658361018001516001600160701b03168361199990919063ffffffff16565b5f808260a001516001600160681b031690505f81610e5a85610160015161ffff168487608001516001600160681b0316610e549190612711565b906119e9565b610e649190612724565b905083606001516001600160801b031684604001516001600160801b0316610e958387610df890919063ffffffff16565b610e9f9190612724565b610c679190612724565b5f610865610eb684610e1a565b8084039084110290565b610ef2604051806080016040528060608152602001606081526020015f81526020015f6001600160a01b031681525090565b80610efb61086c565b6001600160a01b03166060820181905215610fc2576060820151604051638925ca5a8152846020820152336040820152606080820152366080820152365f60a08301373660c40160405f82601c85015f875af160205f511416610f60573d5f803e3d5ffd5b5060205191508160051b91506003820260e0018101604052602082016020823e8084526020820181019050845f038152608060408201526080810160208501528160a001606082015250505a6040830152610fc2825f01518360200151611a24565b50919050565b805f5281837f8c5be1e5ebec7d5bd14f71427d1e84f3dd0314c0f7b2291e5b200ac8c7c3b92560205fa3505050565b606081015181906001600160a01b031661100f575050565b8151805190600682901b810160c0016110288282611a24565b6060850151600584901b830160200160c4600686901b015a60408901510380602084015250602082039150815163f0bd946883525f8083601c86015f885af1611073573d5f803e3d5ffd5b90915250505050505050565b61108761246a565b604080516060810182525f80825260208201819052918101829052604080516101c0810182525f5460ff80821615158352610100918290046001600160801b03908116602085015260015480821695850195909552600160801b90940490931660608301526002546001600160681b038082166080850152600160681b82041660a0840152600160d01b810463ffffffff90811660c08501819052600160f01b909204909416151560e084015260035480851692840192909252640100000000820461ffff908116610120850152600160301b83048116610140850152600160401b830416610160840152600160501b82046001600160701b0316610180840152600160c01b9091049092166101a08201529350428110901515161561129f578260c001519150826101a0015163ffffffff168263ffffffff161461121f5761121b837f00000000000000000000000000000000000000000000000000000000000000007f000000000000000000000000000000000000000000000000000000000000000063ffffffff80871690611a5a16565b5050505b5063ffffffff81165f908152600760209081526040808320815160608101835281546001600160681b038082168352600160681b9091041693810193909352600101546001600160801b031690820152906112848461127c610542565b849190611afe565b9050801561129757611297828583611b7b565b505f60c08401525b42836101a0015163ffffffff1614611301576112fd837f00000000000000000000000000000000000000000000000000000000000000007f000000000000000000000000000000000000000000000000000000000000000042611a5a565b5050505b60c083015163ffffffff161561139557505060c081015163ffffffff81165f90815260076020908152604091829020825160608101845281546001600160681b03808216808452600160681b909204169382018490526001909201546001600160801b0316938101939093521115611395575f6113808461127c610542565b9050801561139357611393828583611b7b565b505b909192565b5f818303828410028201610865565b6113b161246a565b50604080516101c0810182525f5460ff808216151583526001600160801b03610100928390048116602085015260015480821695850195909552600160801b90940490931660608301526002546001600160681b038082166080850152600160681b82041660a084015263ffffffff600160d01b8204811660c08501819052600160f01b909204909416151560e08401526003548085169284019290925261ffff64010000000083048116610120850152600160301b83048116610140850152600160401b8304166101608401526001600160701b03600160501b830416610180840152600160c01b9091049092166101a0820152908015154290911016156115575760c08101516101a082015163ffffffff918216918116821461154b575f808061151f867f00000000000000000000000000000000000000000000000000000000000000007f000000000000000000000000000000000000000000000000000000000000000088611a5a565b9250925092506115478463ffffffff16868861018001516001600160701b0316868686611cab565b5050505b61155483611cfd565b50505b6101a08101514263ffffffff8216146115e5575f80806115b9857f00000000000000000000000000000000000000000000000000000000000000007f000000000000000000000000000000000000000000000000000000000000000042611a5a565b9250925092506115e18463ffffffff16428761018001516001600160701b0316868686611cab565b5050505b60c082015163ffffffff16156116ec5760c082015163ffffffff81165f90815260076020908152604091829020825160608101845281546001600160681b03808216808452600160681b909204169382018490526001909201546001600160801b03169381019390935211156116e9575f6116628561127c610542565b905080156116e75761167682868584611e73565b505063ffffffff83165f9081526007602090815260409182902084518154928601516001600160681b03908116600160681b026001600160d01b031990941691161791909117815590830151600190910180546001600160801b039092166001600160801b03199092169190911790555b505b50505b5090565b5f6108658361018001516001600160701b031683611feb90919063ffffffff16565b806107c56001600160681b0382168214612036565b63ddee9b305f526004601cfd5b5f61173f8760601c90565b905063a018f90e61174f8861204d565b15610db157823603604051602081018382523381528960208201528860408201528760608201526101c087608083015e61026061024082015282610260820152828661028083013750816102840191505f8083601c84015f885af16117b6573d5f803e3d5ffd5b50505050505050505050565b60408051602080820183525f918290526001600160a01b03841682526004815290829020825191820190925290546001600160681b031681526118048261205b565b156107c5576107c56120e1565b5f61181a610542565b61182383610e1a565b1160e08301819052825160208085015160081b70ffffffffffffffffffffffffffffffff00169091175f5560408085015160608601516001600160801b03909116608091821b6001600160801b0319161760015585015160a086015160c0808801516001600160681b0390931660689290921b6cffffffffffffffffffffffffff60681b1660d09390931b63ffffffff60d01b1660f087901b1792909217176002556101008601516101208701516101408801516101608901516101808a01516101a08b015163ffffffff9095169390971b65ffff000000001660309290921b67ffff0000000000001691909117941b69ffff000000000000000016605086901b6dffffffffffffffffffffffffffff60501b169290931b63ffffffff60c01b1691909117919091179190911717600355909150610945906001600160701b0316826120ee565b805f5281837fddf252ad1be2c89b69c2b068fc378daa952ba7f163c4a11628f55a4df523b3ef60205fa3505050565b5f81156b019d971e4fe8401e7400000019839004841115176119c757634e487b715f5260116020526024601cfd5b506b033b2e3c9fd0803ce800000091026b019d971e4fe8401e74000000010490565b5f81156113881983900484111517611a0d57634e487b715f5260116020526024601cfd5b506127109102611388010490565b80821191030290565b815180825260208301602083018260051b810192505b82811015611a5357815154815260209182019101611a3a565b5050505050565b5f8080611a67878561211e565b61012088015190935061ffff1615611a8657611a838784612148565b90505b8515611a9b57611a98878588886121d6565b91505b6101808701516001600160701b03165f611abf611ab88587612724565b8390611999565b9050611ad3611ace8284612724565b612217565b6001600160701b03166101808a0152505063ffffffff9093166101a090960195909552949092509050565b5f80611b098561222c565b8460a00151611b189190612737565b6001600160681b031690505f84604001516001600160801b0316611b458387610df890919063ffffffff16565b86606001516001600160801b0316611b5d9190612724565b611b679190612724565b9050808403818511025b9695505050505050565b602083015183515f91611b8d91612737565b9050806001600160681b03165f03611ba55750505050565b5f611bb084846116f0565b90505f611bc9610c8883856001600160681b031661139a565b90505f611c02611bfd836001600160681b03168861018001516001600160701b03166b033b2e3c9fd0803ce800000061223e565b612262565b90508187602001818151611c16919061275e565b6001600160681b0316905250604087018051829190611c3690839061277e565b6001600160801b031690525060a086018051839190611c56908390612737565b6001600160681b0316905250606086018051829190611c7690839061277e565b6001600160801b0316905250608086018051839190611c96908390612737565b6001600160681b031690525050505050505050565b6040518681528560208201528460408201528360608201528260808201528160a08201527f18247a393d0531b65fbd94f5e78bc5639801a4efda62ae7b43533c4442116c3a60c082a150505050505050565b60c081015163ffffffff81165f90815260076020908152604091829020825160608101845281546001600160681b03808216808452600160681b909204169382018490526001909201546001600160801b0316938101939093521115611d83575f611d6a8461127c610542565b90508015611d8157611d7e82858584611e73565b50505b505b611dbb8263ffffffff16825f01516001600160681b031683602001516001600160681b031684604001516001600160801b0316612277565b805f01516001600160681b031681602001516001600160681b03161015611dec57611de76005836122b4565b611dfb565b611dfb8263ffffffff16612312565b5f60c090930183905263ffffffff9190911682526007602090815260409283902082518154928401516001600160681b03908116600160681b026001600160d01b0319909416911617919091178155910151600190910180546001600160801b039092166001600160801b0319909216919091179055565b5f805f8660200151875f0151611e899190612737565b9050806001600160681b03165f03611ea7575f809250925050611fe2565b5f611eb287866116f0565b9050611eca610c8882846001600160681b031661139a565b9350611efd611bfd856001600160681b03168961018001516001600160701b03166b033b2e3c9fd0803ce800000061223e565b92508388602001818151611f11919061275e565b6001600160681b0316905250604088018051849190611f3190839061277e565b6001600160801b031690525060a087018051859190611f51908390612737565b6001600160681b0316905250606087018051849190611f7190839061277e565b6001600160801b0316905250608087018051859190611f91908390612737565b6001600160681b0316905250611fbc30611fad5f805236155190565b856001600160801b031661196a565b611fdf8663ffffffff16856001600160681b0316856001600160801b031661233a565b50505b94509492505050565b5f81156b033b2e3c9fd0803ce80000006002840419048411171561201b57634e487b715f5260116020526024601cfd5b506b033b2e3c9fd0803ce80000009190910260028204010490565b80610b8757634e487b715f5260116020526024601cfd5b5f61060f82605c1c60011690565b5f807f000000000000000000000000000000000000000000000000000000000000000090505f7f000000000000000000000000000000000000000000000000000000000000000090506040516306e744445f52826020528460405260205f6044601c855afa60203d14166120d1573d5f803e3d5ffd5b5f51935080604052505050919050565b636bc671fd5f526004601cfd5b815f52806020527f9385f9ff65bcd2fb81cece54b27d4ec7376795fc4dcff686e370e347b0ed86c060405fa15050565b5f61086583610140015161ffff16846101a0015163ffffffff16846121439190612711565b61236c565b5f806121668385610120015161ffff166119e990919063ffffffff16565b90506121a061218c828661018001516001600160701b031661199990919063ffffffff16565b60808601516001600160681b031690611999565b91506121be8285604001516001600160801b0316611bfd9190612724565b6001600160801b031660409094019390935292915050565b5f806121f98684886101a0015163ffffffff16886121f49190612711565b612394565b9050801561220e5761220b848261236c565b91505b50949350505050565b806107c56001600160701b0382168214612036565b602081015181515f9161060f91612737565b5f825f19048411830215820261225b5763ad251c275f526004601cfd5b5091020490565b806107c56001600160801b0382168214612036565b604051835f528260205281604052847f9262dc39b47cad3a0512e4c08dda248cb345e7163058f300bc63f56bda288b6e60605fa260405250505050565b8154600160801b90046001600160801b03165f81815260018085016020526040909120805463ffffffff191663ffffffff85161790556122f590829061277e565b83546001600160801b03918216600160801b029116179092555050565b807fcbdf25bf6e096dd9030d89bb2ba2e3e7adb82d25a233c3ca3d92e9f098b74e555f80a250565b815f5280602052827f5272034725119f19d7236de4129fdb5093f0dcb80282ca5edbd587df91d2bd8960405fa2505050565b5f8061237784612427565b90505f612384848361279e565b6301e13380900495945050505050565b61010083015160e08401515f9163ffffffff1690156123ee576123bf6123ba8483612724565b612450565b63ffffffff9081166101008701525f906123dd9086908490611a1b16565b808511908503029250610865915050565b6123fd83820384831102612450565b63ffffffff9081166101008701525f9061241b9083908790611a1b16565b9050611b71818561139a565b69152d02c7e14af680000081810290810482146107c557634e487b715f5260116020526024601cfd5b806107c563ffffffff82168214612036565b610bab6127b5565b604080516101c0810182525f80825260208201819052918101829052606081018290526080810182905260a0810182905260c0810182905260e08101829052610100810182905261012081018290526101408101829052610160810182905261018081018290526101a081019190915290565b602081525f82518060208401528060208501604085015e5f604082850101526040601f19601f83011684010191505092915050565b80356001600160a01b03811681146107c5575f80fd5b5f8060408385031215612539575f80fd5b61254283612512565b946020939093013593505050565b8151151581526101c08101602083015161257560208401826001600160801b03169052565b50604083015161259060408401826001600160801b03169052565b5060608301516125ab60608401826001600160801b03169052565b5060808301516125c660808401826001600160681b03169052565b5060a08301516125e160a08401826001600160681b03169052565b5060c08301516125f960c084018263ffffffff169052565b5060e083015161260d60e084018215159052565b506101008381015163ffffffff908116918401919091526101208085015161ffff90811691850191909152610140808601518216908501526101608086015190911690840152610180808501516001600160701b0316908401526101a09384015116929091019190915290565b5f6020828403121561268a575f80fd5b61086582612512565b5f805f606084860312156126a5575f80fd5b6126ae84612512565b92506126bc60208501612512565b9150604084013590509250925092565b5f80604083850312156126dd575f80fd5b6126e683612512565b91506126f460208401612512565b90509250929050565b634e487b7160e01b5f52601160045260245ffd5b8181038181111561060f5761060f6126fd565b8082018082111561060f5761060f6126fd565b6001600160681b03828116828216039080821115612757576127576126fd565b5092915050565b6001600160681b03818116838216019080821115612757576127576126fd565b6001600160801b03818116838216019080821115612757576127576126fd565b808202811582820484141761060f5761060f6126fd565b634e487b7160e01b5f52605160045260245ffdfea164736f6c6343000819000a","linkReferences":{}},"methodIdentifiers":{"accruedProtocolFees()":"0cd1a5b6","allowance(address,address)":"dd62ed3e","approve(address,uint256)":"095ea7b3","archController()":"54635570","asset()":"38d52e0f","balanceOf(address)":"70a08231","borrowableAssets()":"76636017","borrower()":"7df1f1b9","changeSphereXEngine(address)":"4c6c848f","coverageLiquidity()":"739ccdd3","currentState()":"0c3f6acf","decimals()":"313ce567","delinquencyFeeBips()":"4be687c6","delinquencyGracePeriod()":"514a4cd6","factory()":"c45a0155","feeRecipient()":"46904840","hooks()":"cd7033c4","name()":"06fdde03","previousState()":"0c1e3fea","scaleFactor()":"683dd191","scaledBalanceOf(address)":"1da24f3e","scaledTotalSupply()":"b1bf962d","sentinel()":"f58c251c","sphereXEngine()":"3c231166","sphereXOperator()":"e7e5db4f","symbol()":"95d89b41","totalAssets()":"01e1d114","totalDebts()":"14a1c32d","totalSupply()":"18160ddd","transfer(address,uint256)":"a9059cbb","transferFrom(address,address,uint256)":"23b872dd","version()":"54fd4d50","withdrawableProtocolFees()":"1e3cef53","withdrawalBatchDuration()":"9e6f9802"},"id":60}