{"abi":[{"type":"constructor","inputs":[],"stateMutability":"nonpayable"},{"type":"function","name":"accruedProtocolFees","inputs":[],"outputs":[{"name":"","type":"uint256","internalType":"uint256"}],"stateMutability":"view"},{"type":"function","name":"archController","inputs":[],"outputs":[{"name":"","type":"address","internalType":"address"}],"stateMutability":"view"},{"type":"function","name":"asset","inputs":[],"outputs":[{"name":"","type":"address","internalType":"address"}],"stateMutability":"view"},{"type":"function","name":"borrowableAssets","inputs":[],"outputs":[{"name":"","type":"uint256","internalType":"uint256"}],"stateMutability":"view"},{"type":"function","name":"borrower","inputs":[],"outputs":[{"name":"","type":"address","internalType":"address"}],"stateMutability":"view"},{"type":"function","name":"changeSphereXEngine","inputs":[{"name":"newSphereXEngine","type":"address","internalType":"address"}],"outputs":[],"stateMutability":"nonpayable"},{"type":"function","name":"coverageLiquidity","inputs":[],"outputs":[{"name":"","type":"uint256","internalType":"uint256"}],"stateMutability":"view"},{"type":"function","name":"currentState","inputs":[],"outputs":[{"name":"state","type":"tuple","internalType":"struct MarketState","components":[{"name":"isClosed","type":"bool","internalType":"bool"},{"name":"maxTotalSupply","type":"uint128","internalType":"uint128"},{"name":"accruedProtocolFees","type":"uint128","internalType":"uint128"},{"name":"normalizedUnclaimedWithdrawals","type":"uint128","internalType":"uint128"},{"name":"scaledTotalSupply","type":"uint104","internalType":"uint104"},{"name":"scaledPendingWithdrawals","type":"uint104","internalType":"uint104"},{"name":"pendingWithdrawalExpiry","type":"uint32","internalType":"uint32"},{"name":"isDelinquent","type":"bool","internalType":"bool"},{"name":"timeDelinquent","type":"uint32","internalType":"uint32"},{"name":"protocolFeeBips","type":"uint16","internalType":"uint16"},{"name":"annualInterestBips","type":"uint16","internalType":"uint16"},{"name":"reserveRatioBips","type":"uint16","internalType":"uint16"},{"name":"scaleFactor","type":"uint112","internalType":"uint112"},{"name":"lastInterestAccruedTimestamp","type":"uint32","internalType":"uint32"}]}],"stateMutability":"view"},{"type":"function","name":"decimals","inputs":[],"outputs":[{"name":"","type":"uint8","internalType":"uint8"}],"stateMutability":"view"},{"type":"function","name":"delinquencyFeeBips","inputs":[],"outputs":[{"name":"","type":"uint256","internalType":"uint256"}],"stateMutability":"view"},{"type":"function","name":"delinquencyGracePeriod","inputs":[],"outputs":[{"name":"","type":"uint256","internalType":"uint256"}],"stateMutability":"view"},{"type":"function","name":"factory","inputs":[],"outputs":[{"name":"","type":"address","internalType":"address"}],"stateMutability":"view"},{"type":"function","name":"feeRecipient","inputs":[],"outputs":[{"name":"","type":"address","internalType":"address"}],"stateMutability":"view"},{"type":"function","name":"hooks","inputs":[],"outputs":[{"name":"","type":"uint256","internalType":"HooksConfig"}],"stateMutability":"view"},{"type":"function","name":"name","inputs":[],"outputs":[{"name":"","type":"string","internalType":"string"}],"stateMutability":"view"},{"type":"function","name":"previousState","inputs":[],"outputs":[{"name":"","type":"tuple","internalType":"struct MarketState","components":[{"name":"isClosed","type":"bool","internalType":"bool"},{"name":"maxTotalSupply","type":"uint128","internalType":"uint128"},{"name":"accruedProtocolFees","type":"uint128","internalType":"uint128"},{"name":"normalizedUnclaimedWithdrawals","type":"uint128","internalType":"uint128"},{"name":"scaledTotalSupply","type":"uint104","internalType":"uint104"},{"name":"scaledPendingWithdrawals","type":"uint104","internalType":"uint104"},{"name":"pendingWithdrawalExpiry","type":"uint32","internalType":"uint32"},{"name":"isDelinquent","type":"bool","internalType":"bool"},{"name":"timeDelinquent","type":"uint32","internalType":"uint32"},{"name":"protocolFeeBips","type":"uint16","internalType":"uint16"},{"name":"annualInterestBips","type":"uint16","internalType":"uint16"},{"name":"reserveRatioBips","type":"uint16","internalType":"uint16"},{"name":"scaleFactor","type":"uint112","internalType":"uint112"},{"name":"lastInterestAccruedTimestamp","type":"uint32","internalType":"uint32"}]}],"stateMutability":"view"},{"type":"function","name":"scaleFactor","inputs":[],"outputs":[{"name":"","type":"uint256","internalType":"uint256"}],"stateMutability":"view"},{"type":"function","name":"scaledBalanceOf","inputs":[{"name":"account","type":"address","internalType":"address"}],"outputs":[{"name":"","type":"uint256","internalType":"uint256"}],"stateMutability":"view"},{"type":"function","name":"scaledTotalSupply","inputs":[],"outputs":[{"name":"","type":"uint256","internalType":"uint256"}],"stateMutability":"view"},{"type":"function","name":"sentinel","inputs":[],"outputs":[{"name":"","type":"address","internalType":"address"}],"stateMutability":"view"},{"type":"function","name":"sphereXEngine","inputs":[],"outputs":[{"name":"","type":"address","internalType":"address"}],"stateMutability":"view"},{"type":"function","name":"sphereXOperator","inputs":[],"outputs":[{"name":"","type":"address","internalType":"address"}],"stateMutability":"view"},{"type":"function","name":"symbol","inputs":[],"outputs":[{"name":"","type":"string","internalType":"string"}],"stateMutability":"view"},{"type":"function","name":"totalAssets","inputs":[],"outputs":[{"name":"","type":"uint256","internalType":"uint256"}],"stateMutability":"view"},{"type":"function","name":"totalDebts","inputs":[],"outputs":[{"name":"","type":"uint256","internalType":"uint256"}],"stateMutability":"view"},{"type":"function","name":"version","inputs":[],"outputs":[{"name":"","type":"string","internalType":"string"}],"stateMutability":"pure"},{"type":"function","name":"withdrawableProtocolFees","inputs":[],"outputs":[{"name":"","type":"uint128","internalType":"uint128"}],"stateMutability":"view"},{"type":"function","name":"withdrawalBatchDuration","inputs":[],"outputs":[{"name":"","type":"uint256","internalType":"uint256"}],"stateMutability":"view"},{"type":"event","name":"AccountSanctioned","inputs":[{"name":"account","type":"address","indexed":true,"internalType":"address"}],"anonymous":false},{"type":"event","name":"AnnualInterestBipsUpdated","inputs":[{"name":"annualInterestBipsUpdated","type":"uint256","indexed":false,"internalType":"uint256"}],"anonymous":false},{"type":"event","name":"Approval","inputs":[{"name":"owner","type":"address","indexed":true,"internalType":"address"},{"name":"spender","type":"address","indexed":true,"internalType":"address"},{"name":"value","type":"uint256","indexed":false,"internalType":"uint256"}],"anonymous":false},{"type":"event","name":"Borrow","inputs":[{"name":"assetAmount","type":"uint256","indexed":false,"internalType":"uint256"}],"anonymous":false},{"type":"event","name":"ChangedSpherexEngineAddress","inputs":[{"name":"oldEngineAddress","type":"address","indexed":false,"internalType":"address"},{"name":"newEngineAddress","type":"address","indexed":false,"internalType":"address"}],"anonymous":false},{"type":"event","name":"ChangedSpherexOperator","inputs":[{"name":"oldSphereXAdmin","type":"address","indexed":false,"internalType":"address"},{"name":"newSphereXAdmin","type":"address","indexed":false,"internalType":"address"}],"anonymous":false},{"type":"event","name":"DebtRepaid","inputs":[{"name":"from","type":"address","indexed":true,"internalType":"address"},{"name":"assetAmount","type":"uint256","indexed":false,"internalType":"uint256"}],"anonymous":false},{"type":"event","name":"Deposit","inputs":[{"name":"account","type":"address","indexed":true,"internalType":"address"},{"name":"assetAmount","type":"uint256","indexed":false,"internalType":"uint256"},{"name":"scaledAmount","type":"uint256","indexed":false,"internalType":"uint256"}],"anonymous":false},{"type":"event","name":"FeesCollected","inputs":[{"name":"assets","type":"uint256","indexed":false,"internalType":"uint256"}],"anonymous":false},{"type":"event","name":"InterestAndFeesAccrued","inputs":[{"name":"fromTimestamp","type":"uint256","indexed":false,"internalType":"uint256"},{"name":"toTimestamp","type":"uint256","indexed":false,"internalType":"uint256"},{"name":"scaleFactor","type":"uint256","indexed":false,"internalType":"uint256"},{"name":"baseInterestRay","type":"uint256","indexed":false,"internalType":"uint256"},{"name":"delinquencyFeeRay","type":"uint256","indexed":false,"internalType":"uint256"},{"name":"protocolFees","type":"uint256","indexed":false,"internalType":"uint256"}],"anonymous":false},{"type":"event","name":"MarketClosed","inputs":[{"name":"timestamp","type":"uint256","indexed":false,"internalType":"uint256"}],"anonymous":false},{"type":"event","name":"MaxTotalSupplyUpdated","inputs":[{"name":"assets","type":"uint256","indexed":false,"internalType":"uint256"}],"anonymous":false},{"type":"event","name":"ProtocolFeeBipsUpdated","inputs":[{"name":"protocolFeeBips","type":"uint256","indexed":false,"internalType":"uint256"}],"anonymous":false},{"type":"event","name":"ReserveRatioBipsUpdated","inputs":[{"name":"reserveRatioBipsUpdated","type":"uint256","indexed":false,"internalType":"uint256"}],"anonymous":false},{"type":"event","name":"SanctionedAccountAssetsQueuedForWithdrawal","inputs":[{"name":"account","type":"address","indexed":true,"internalType":"address"},{"name":"expiry","type":"uint256","indexed":false,"internalType":"uint256"},{"name":"scaledAmount","type":"uint256","indexed":false,"internalType":"uint256"},{"name":"normalizedAmount","type":"uint256","indexed":false,"internalType":"uint256"}],"anonymous":false},{"type":"event","name":"SanctionedAccountAssetsSentToEscrow","inputs":[{"name":"account","type":"address","indexed":true,"internalType":"address"},{"name":"escrow","type":"address","indexed":false,"internalType":"address"},{"name":"amount","type":"uint256","indexed":false,"internalType":"uint256"}],"anonymous":false},{"type":"event","name":"SanctionedAccountWithdrawalSentToEscrow","inputs":[{"name":"account","type":"address","indexed":true,"internalType":"address"},{"name":"escrow","type":"address","indexed":false,"internalType":"address"},{"name":"expiry","type":"uint32","indexed":false,"internalType":"uint32"},{"name":"amount","type":"uint256","indexed":false,"internalType":"uint256"}],"anonymous":false},{"type":"event","name":"StateUpdated","inputs":[{"name":"scaleFactor","type":"uint256","indexed":false,"internalType":"uint256"},{"name":"isDelinquent","type":"bool","indexed":false,"internalType":"bool"}],"anonymous":false},{"type":"event","name":"Transfer","inputs":[{"name":"from","type":"address","indexed":true,"internalType":"address"},{"name":"to","type":"address","indexed":true,"internalType":"address"},{"name":"value","type":"uint256","indexed":false,"internalType":"uint256"}],"anonymous":false},{"type":"event","name":"WithdrawalBatchClosed","inputs":[{"name":"expiry","type":"uint256","indexed":true,"internalType":"uint256"}],"anonymous":false},{"type":"event","name":"WithdrawalBatchCreated","inputs":[{"name":"expiry","type":"uint256","indexed":true,"internalType":"uint256"}],"anonymous":false},{"type":"event","name":"WithdrawalBatchExpired","inputs":[{"name":"expiry","type":"uint256","indexed":true,"internalType":"uint256"},{"name":"scaledTotalAmount","type":"uint256","indexed":false,"internalType":"uint256"},{"name":"scaledAmountBurned","type":"uint256","indexed":false,"internalType":"uint256"},{"name":"normalizedAmountPaid","type":"uint256","indexed":false,"internalType":"uint256"}],"anonymous":false},{"type":"event","name":"WithdrawalBatchPayment","inputs":[{"name":"expiry","type":"uint256","indexed":true,"internalType":"uint256"},{"name":"scaledAmountBurned","type":"uint256","indexed":false,"internalType":"uint256"},{"name":"normalizedAmountPaid","type":"uint256","indexed":false,"internalType":"uint256"}],"anonymous":false},{"type":"event","name":"WithdrawalExecuted","inputs":[{"name":"expiry","type":"uint256","indexed":true,"internalType":"uint256"},{"name":"account","type":"address","indexed":true,"internalType":"address"},{"name":"normalizedAmount","type":"uint256","indexed":false,"internalType":"uint256"}],"anonymous":false},{"type":"event","name":"WithdrawalQueued","inputs":[{"name":"expiry","type":"uint256","indexed":true,"internalType":"uint256"},{"name":"account","type":"address","indexed":true,"internalType":"address"},{"name":"scaledAmount","type":"uint256","indexed":false,"internalType":"uint256"},{"name":"normalizedAmount","type":"uint256","indexed":false,"internalType":"uint256"}],"anonymous":false},{"type":"error","name":"AccountBlocked","inputs":[]},{"type":"error","name":"AnnualInterestBipsTooHigh","inputs":[]},{"type":"error","name":"AprChangeOnClosedMarket","inputs":[]},{"type":"error","name":"BadLaunchCode","inputs":[]},{"type":"error","name":"BadRescueAsset","inputs":[]},{"type":"error","name":"BorrowAmountTooHigh","inputs":[]},{"type":"error","name":"BorrowFromClosedMarket","inputs":[]},{"type":"error","name":"BorrowWhileSanctioned","inputs":[]},{"type":"error","name":"CapacityChangeOnClosedMarket","inputs":[]},{"type":"error","name":"CloseMarketWithUnpaidWithdrawals","inputs":[]},{"type":"error","name":"DepositToClosedMarket","inputs":[]},{"type":"error","name":"InsufficientReservesForFeeWithdrawal","inputs":[]},{"type":"error","name":"InsufficientReservesForNewLiquidityRatio","inputs":[]},{"type":"error","name":"InsufficientReservesForOldLiquidityRatio","inputs":[]},{"type":"error","name":"InvalidArrayLength","inputs":[]},{"type":"error","name":"MarketAlreadyClosed","inputs":[]},{"type":"error","name":"MaxSupplyExceeded","inputs":[]},{"type":"error","name":"NoReentrantCalls","inputs":[]},{"type":"error","name":"NotApprovedBorrower","inputs":[]},{"type":"error","name":"NotApprovedLender","inputs":[]},{"type":"error","name":"NotFactory","inputs":[]},{"type":"error","name":"NullBurnAmount","inputs":[]},{"type":"error","name":"NullFeeAmount","inputs":[]},{"type":"error","name":"NullMintAmount","inputs":[]},{"type":"error","name":"NullRepayAmount","inputs":[]},{"type":"error","name":"NullTransferAmount","inputs":[]},{"type":"error","name":"NullWithdrawalAmount","inputs":[]},{"type":"error","name":"ProtocolFeeChangeOnClosedMarket","inputs":[]},{"type":"error","name":"ProtocolFeeNotChanged","inputs":[]},{"type":"error","name":"ProtocolFeeTooHigh","inputs":[]},{"type":"error","name":"RepayToClosedMarket","inputs":[]},{"type":"error","name":"ReserveRatioBipsTooHigh","inputs":[]},{"type":"error","name":"SphereXOperatorRequired","inputs":[]},{"type":"error","name":"WithdrawalBatchNotExpired","inputs":[]}],"bytecode":{"object":"0x610260604052348015610010575f80fd5b5033610100525f6100326101e560201b6108a3176001600160401b031660201c565b9050805f01516001600160a01b03166101c0816001600160a01b031681525050806020015160ff166101a08160ff168152505080604001516101e0818152505080606001516102008181525050806080015161022081815250508060a0015161024081815250505f8161012001516001600160801b031690505f826101c0015161ffff1690505f83610160015161ffff1690505f84610140015161ffff1690508360081b805f55508060201b8260301b178360401b6b033b2e3c9fd0803ce800000060501b4260c01b1717178060035f0155505050505080610240015160a081815250508061010001516001600160a01b031660c0816001600160a01b0316815250508060c001516001600160a01b031660e0816001600160a01b0316815250508060e001516001600160a01b0316610120816001600160a01b03168152505080610180015161ffff166101408181525050806101e0015163ffffffff166101608181525050806101a0015163ffffffff1661018081815250508061020001516001600160a01b03166080816001600160a01b0316815250506101df81610220015161021660201b60201c565b506102ed565b5f604051905061026081016040526304032dbb5f52610260816004601c335afa6102603d1416610213575f80fd5b90565b6102285f60805161026860201b60201c565b61025b61025660017f1777adabd324f814e2b0e28f6edf876dce01d7d66358c9acfe87b1b5f38338d66102c8565b829055565b6102655f82610298565b50565b815f52806020527f2ac55ae7ba47db34b5334622acafeb34a65daf143b47019273185d64c73a35a560405fa15050565b815f52806020527ff33499cccaa0611882086224cc48cd82ef54b66a4d2edf4ed67108dd516896d560405fa15050565b818103818111156102e757634e487b7160e01b5f52601160045260245ffd5b92915050565b60805160a05160c05160e05161010051610120516101405161016051610180516101a0516101c0516101e0516102005161022051610240516116a56103b85f395f61084701525f61082301525f6104d401525f6104b001525f818161028d015261048001525f61025401525f6103d301525f818161033701528181610c220152610d0d01525f81816102fb01528181610c010152610cec01525f6102d401525f61040201525f6103a401525f61045001525f61042901525f818161035b015261070101526116a55ff3fe608060405234801561000f575f80fd5b50600436106101bb575f3560e01c8063514a4cd6116100f357806395d89b4111610093578063c45a01551161006e578063c45a0155146103fd578063cd7033c414610424578063e7e5db4f14610359578063f58c251c1461044b575f80fd5b806395d89b41146103c65780639e6f9802146103ce578063b1bf962d146103f5575f80fd5b8063683dd191116100ce578063683dd19114610387578063739ccdd31461038f57806376636017146103975780637df1f1b91461039f575f80fd5b8063514a4cd614610332578063546355701461035957806354fd4d501461037f575f80fd5b80631e3cef531161015e5780633c231166116101395780633c231166146102c757806346904840146102cf5780634be687c6146102f65780634c6c848f1461031d575f80fd5b80631e3cef531461022f578063313ce5671461024f57806338d52e0f14610288575f80fd5b80630c3f6acf116101995780630c3f6acf146102045780630cd1a5b61461020c57806314a1c32d146102145780631da24f3e1461021c575f80fd5b806301e1d114146101bf57806306fdde03146101da5780630c1e3fea146101ef575b5f80fd5b6101c7610472565b6040519081526020015b60405180910390f35b6101e26104ab565b6040516101d19190611447565b6101f761050a565b6040516101d1919061147c565b6101f761060b565b6101c7610632565b6101c7610659565b6101c761022a3660046115a6565b610675565b6102376106a6565b6040516001600160801b0390911681526020016101d1565b6102767f000000000000000000000000000000000000000000000000000000000000000081565b60405160ff90911681526020016101d1565b6102af7f000000000000000000000000000000000000000000000000000000000000000081565b6040516001600160a01b0390911681526020016101d1565b6102af6106c3565b6102af7f000000000000000000000000000000000000000000000000000000000000000081565b6101c77f000000000000000000000000000000000000000000000000000000000000000081565b61033061032b3660046115a6565b6106f6565b005b6101c77f000000000000000000000000000000000000000000000000000000000000000081565b7f00000000000000000000000000000000000000000000000000000000000000006102af565b6101e26107a0565b6101c76107b6565b6101c76107dd565b6101c76107f9565b6102af7f000000000000000000000000000000000000000000000000000000000000000081565b6101e261081e565b6101c77f000000000000000000000000000000000000000000000000000000000000000081565b6101c761087d565b6102af7f000000000000000000000000000000000000000000000000000000000000000081565b6101c77f000000000000000000000000000000000000000000000000000000000000000081565b6102af7f000000000000000000000000000000000000000000000000000000000000000081565b5f6104a66001600160a01b037f000000000000000000000000000000000000000000000000000000000000000016306108d1565b905090565b60605f7f000000000000000000000000000000000000000000000000000000000000000090505f7f0000000000000000000000000000000000000000000000000000000000000000905060205f525f60205281603f5280605f5260805ff35b6105126113d4565b604080516101c080820183525f5460ff808216151584526001600160801b03610100928390048116602086015260015480821696860196909652600160801b90950490941660608401526002546001600160681b038082166080860152600160681b82041660a085015263ffffffff600160d01b8204811660c0860152600160f01b909104909416151560e08401526003548085169184019190915261ffff64010000000082048116610120850152660100000000000082048116610140850152600160401b8204166101608401526001600160701b03600160501b820416610180840152600160c01b90049092166101a08201529081f35b6106136113d4565b61061b610906565b61062a6109205b63ffffffff16565b90506101c081f35b5f61063b610906565b610646610920610622565b604001516001600160801b031690505b90565b5f610662610906565b6104a6610670610920610622565b610934565b5f61067e610906565b506001600160a01b0381165f908152600460205260409020546001600160681b03165b919050565b5f6104a66106b2610472565b6106bd610920610622565b9061098b565b5f6104a66106f260017f1777adabd324f814e2b0e28f6edf876dce01d7d66358c9acfe87b1b5f38338d66115e0565b5490565b336001600160a01b037f0000000000000000000000000000000000000000000000000000000000000000161461072e5761072e6109c7565b5f61075d6106f260017f1777adabd324f814e2b0e28f6edf876dce01d7d66358c9acfe87b1b5f38338d66115e0565b905061079261078d60017f1777adabd324f814e2b0e28f6edf876dce01d7d66358c9acfe87b1b5f38338d66115e0565b839055565b61079c81836109d4565b5050565b60605f6040526101326041526020805260606020f35b5f6107bf610906565b6107ca610920610622565b61018001516001600160701b0316905090565b5f6107e6610906565b6104a66107f4610920610622565b610a04565b5f610802610906565b6104a661080d610472565b610818610920610622565b90610a93565b60605f7f000000000000000000000000000000000000000000000000000000000000000090505f7f0000000000000000000000000000000000000000000000000000000000000000905060205f525f60205281603f5280605f5260805ff35b5f610886610906565b610891610920610622565b608001516001600160681b0316905090565b5f604051905061026081016040526304032dbb5f52610260816004601c335afa6102603d1416610656575f80fd5b5f6370a082315f528160205260205f6024601c865afa601f3d11166108fd57634963f6d55f526004601cfd5b50505f51919050565b63929eee145c1561091e57637fa8a9875f526004601cfd5b565b5f61092c610ab1610622565b509092915050565b5f81604001516001600160801b031682606001516001600160801b031661097184608001516001600160681b031685610dcf90919063ffffffff16565b61097b91906115f3565b61098591906115f3565b92915050565b5f8083606001516001600160801b0316836109a691906115e0565b90506109bf8185604001516001600160801b0316610df1565b949350505050565b634ee0b8f85f526004601cfd5b815f52806020527ff33499cccaa0611882086224cc48cd82ef54b66a4d2edf4ed67108dd516896d560405fa15050565b5f808260a001516001600160681b031690505f81610a4485610160015161ffff168487608001516001600160681b0316610a3e91906115e0565b90610e00565b610a4e91906115f3565b905083606001516001600160801b031684604001516001600160801b0316610a7f8387610dcf90919063ffffffff16565b610a8991906115f3565b6109bf91906115f3565b5f610aaa610aa084610a04565b8084039084110290565b9392505050565b610ab96113d4565b604080516060810182525f80825260208201819052918101829052604080516101c0810182525f5460ff80821615158352610100918290046001600160801b03908116602085015260015480821695850195909552600160801b90940490931660608301526002546001600160681b038082166080850152600160681b82041660a0840152600160d01b810463ffffffff90811660c08501819052600160f01b909204909416151560e084015260035480851692840192909252640100000000820461ffff908116610120850152660100000000000083048116610140850152600160401b830416610160840152600160501b82046001600160701b0316610180840152600160c01b9091049092166101a082015293504281109015151615610cd4578260c001519150826101a0015163ffffffff168263ffffffff1614610c5457610c50837f00000000000000000000000000000000000000000000000000000000000000007f000000000000000000000000000000000000000000000000000000000000000063ffffffff80871690610e3b16565b5050505b5063ffffffff81165f908152600760209081526040808320815160608101835281546001600160681b038082168352600160681b9091041693810193909352600101546001600160801b03169082015290610cb984610cb1610472565b849190610edf565b90508015610ccc57610ccc828583610f5c565b505f60c08401525b42836101a0015163ffffffff1614610d3657610d32837f00000000000000000000000000000000000000000000000000000000000000007f000000000000000000000000000000000000000000000000000000000000000042610e3b565b5050505b60c083015163ffffffff1615610dca57505060c081015163ffffffff81165f90815260076020908152604091829020825160608101845281546001600160681b03808216808452600160681b909204169382018490526001909201546001600160801b0316938101939093521115610dca575f610db584610cb1610472565b90508015610dc857610dc8828583610f5c565b505b909192565b5f610aaa8361018001516001600160701b03168361109190919063ffffffff16565b5f818303828410028201610aaa565b5f81156113881983900484111517610e2457634e487b715f5260116020526024601cfd5b506127109102611388010490565b80821191030290565b5f8080610e4887856110e1565b61012088015190935061ffff1615610e6757610e64878461110b565b90505b8515610e7c57610e7987858888611199565b91505b6101808701516001600160701b03165f610ea0610e9985876115f3565b8390611091565b9050610eb4610eaf82846115f3565b6111da565b6001600160701b03166101808a0152505063ffffffff9093166101a090960195909552949092509050565b5f80610eea856111ef565b8460a00151610ef99190611606565b6001600160681b031690505f84604001516001600160801b0316610f268387610dcf90919063ffffffff16565b86606001516001600160801b0316610f3e91906115f3565b610f4891906115f3565b9050808403818511025b9695505050505050565b602083015183515f91610f6e91611606565b9050806001600160681b03165f03610f865750505050565b5f610f918484611201565b90505f610faf610faa83856001600160681b0316610df1565b611223565b90505f610fe8610fe3836001600160681b03168861018001516001600160701b03166b033b2e3c9fd0803ce8000000611238565b61125c565b90508187602001818151610ffc919061162d565b6001600160681b031690525060408701805182919061101c90839061164d565b6001600160801b031690525060a08601805183919061103c908390611606565b6001600160681b031690525060608601805182919061105c90839061164d565b6001600160801b031690525060808601805183919061107c908390611606565b6001600160681b031690525050505050505050565b5f81156b019d971e4fe8401e7400000019839004841115176110bf57634e487b715f5260116020526024601cfd5b506b033b2e3c9fd0803ce800000091026b019d971e4fe8401e74000000010490565b5f610aaa83610140015161ffff16846101a0015163ffffffff168461110691906115e0565b611271565b5f806111298385610120015161ffff16610e0090919063ffffffff16565b905061116361114f828661018001516001600160701b031661109190919063ffffffff16565b60808601516001600160681b031690611091565b91506111818285604001516001600160801b0316610fe391906115f3565b6001600160801b031660409094019390935292915050565b5f806111bc8684886101a0015163ffffffff16886111b791906115e0565b611299565b905080156111d1576111ce8482611271565b91505b50949350505050565b806106a16001600160701b038216821461132c565b602081015181515f9161098591611606565b5f610aaa8361018001516001600160701b03168361134690919063ffffffff16565b806106a16001600160681b038216821461132c565b5f825f1904841183021582026112555763ad251c275f526004601cfd5b5091020490565b806106a16001600160801b038216821461132c565b5f8061127c84611391565b90505f611289848361166d565b6301e13380900495945050505050565b61010083015160e08401515f9163ffffffff1690156112f3576112c46112bf84836115f3565b6113ba565b63ffffffff9081166101008701525f906112e29086908490610e3216565b808511908503029250610aaa915050565b611302838203848311026113ba565b63ffffffff9081166101008701525f906113209083908790610e3216565b9050610f528185610df1565b8061134357634e487b715f5260116020526024601cfd5b50565b5f81156b033b2e3c9fd0803ce80000006002840419048411171561137657634e487b715f5260116020526024601cfd5b506b033b2e3c9fd0803ce80000009190910260028204010490565b69152d02c7e14af680000081810290810482146106a157634e487b715f5260116020526024601cfd5b806106a163ffffffff8216821461132c565b61091e611684565b604080516101c0810182525f80825260208201819052918101829052606081018290526080810182905260a0810182905260c0810182905260e08101829052610100810182905261012081018290526101408101829052610160810182905261018081018290526101a081019190915290565b602081525f82518060208401528060208501604085015e5f604082850101526040601f19601f83011684010191505092915050565b8151151581526101c0810160208301516114a160208401826001600160801b03169052565b5060408301516114bc60408401826001600160801b03169052565b5060608301516114d760608401826001600160801b03169052565b5060808301516114f260808401826001600160681b03169052565b5060a083015161150d60a08401826001600160681b03169052565b5060c083015161152560c084018263ffffffff169052565b5060e083015161153960e084018215159052565b506101008381015163ffffffff908116918401919091526101208085015161ffff90811691850191909152610140808601518216908501526101608086015190911690840152610180808501516001600160701b0316908401526101a09384015116929091019190915290565b5f602082840312156115b6575f80fd5b81356001600160a01b0381168114610aaa575f80fd5b634e487b7160e01b5f52601160045260245ffd5b81810381811115610985576109856115cc565b80820180821115610985576109856115cc565b6001600160681b03828116828216039080821115611626576116266115cc565b5092915050565b6001600160681b03818116838216019080821115611626576116266115cc565b6001600160801b03818116838216019080821115611626576116266115cc565b8082028115828204841417610985576109856115cc565b634e487b7160e01b5f52605160045260245ffdfea164736f6c6343000819000a","linkReferences":{}},"methodIdentifiers":{"accruedProtocolFees()":"0cd1a5b6","archController()":"54635570","asset()":"38d52e0f","borrowableAssets()":"76636017","borrower()":"7df1f1b9","changeSphereXEngine(address)":"4c6c848f","coverageLiquidity()":"739ccdd3","currentState()":"0c3f6acf","decimals()":"313ce567","delinquencyFeeBips()":"4be687c6","delinquencyGracePeriod()":"514a4cd6","factory()":"c45a0155","feeRecipient()":"46904840","hooks()":"cd7033c4","name()":"06fdde03","previousState()":"0c1e3fea","scaleFactor()":"683dd191","scaledBalanceOf(address)":"1da24f3e","scaledTotalSupply()":"b1bf962d","sentinel()":"f58c251c","sphereXEngine()":"3c231166","sphereXOperator()":"e7e5db4f","symbol()":"95d89b41","totalAssets()":"01e1d114","totalDebts()":"14a1c32d","version()":"54fd4d50","withdrawableProtocolFees()":"1e3cef53","withdrawalBatchDuration()":"9e6f9802"},"id":58}