{"abi":[{"type":"constructor","inputs":[{"name":"_archController","type":"address","internalType":"address"}],"stateMutability":"nonpayable"},{"type":"function","name":"WildcatSanctionsEscrowInitcodeHash","inputs":[],"outputs":[{"name":"","type":"bytes32","internalType":"bytes32"}],"stateMutability":"view"},{"type":"function","name":"archController","inputs":[],"outputs":[{"name":"","type":"address","internalType":"address"}],"stateMutability":"view"},{"type":"function","name":"chainalysisSanctionsList","inputs":[],"outputs":[{"name":"","type":"address","internalType":"address"}],"stateMutability":"view"},{"type":"function","name":"createEscrow","inputs":[{"name":"borrower","type":"address","internalType":"address"},{"name":"account","type":"address","internalType":"address"},{"name":"asset","type":"address","internalType":"address"}],"outputs":[{"name":"escrowContract","type":"address","internalType":"address"}],"stateMutability":"nonpayable"},{"type":"function","name":"getEscrowAddress","inputs":[{"name":"borrower","type":"address","internalType":"address"},{"name":"account","type":"address","internalType":"address"},{"name":"asset","type":"address","internalType":"address"}],"outputs":[{"name":"escrowAddress","type":"address","internalType":"address"}],"stateMutability":"view"},{"type":"function","name":"isFlaggedByChainalysis","inputs":[{"name":"account","type":"address","internalType":"address"}],"outputs":[{"name":"","type":"bool","internalType":"bool"}],"stateMutability":"view"},{"type":"function","name":"isSanctioned","inputs":[{"name":"borrower","type":"address","internalType":"address"},{"name":"account","type":"address","internalType":"address"}],"outputs":[{"name":"","type":"bool","internalType":"bool"}],"stateMutability":"view"},{"type":"function","name":"overrideSanction","inputs":[{"name":"account","type":"address","internalType":"address"}],"outputs":[],"stateMutability":"nonpayable"},{"type":"function","name":"removeSanctionOverride","inputs":[{"name":"account","type":"address","internalType":"address"}],"outputs":[],"stateMutability":"nonpayable"},{"type":"function","name":"sanction","inputs":[{"name":"account","type":"address","internalType":"address"}],"outputs":[],"stateMutability":"nonpayable"},{"type":"function","name":"sanctionOverrides","inputs":[{"name":"borrower","type":"address","internalType":"address"},{"name":"account","type":"address","internalType":"address"}],"outputs":[{"name":"sanctionOverride","type":"bool","internalType":"bool"}],"stateMutability":"view"},{"type":"function","name":"tmpEscrowParams","inputs":[],"outputs":[{"name":"borrower","type":"address","internalType":"address"},{"name":"account","type":"address","internalType":"address"},{"name":"asset","type":"address","internalType":"address"}],"stateMutability":"view"},{"type":"event","name":"NewSanctionsEscrow","inputs":[{"name":"borrower","type":"address","indexed":true,"internalType":"address"},{"name":"account","type":"address","indexed":true,"internalType":"address"},{"name":"asset","type":"address","indexed":true,"internalType":"address"}],"anonymous":false},{"type":"event","name":"SanctionOverride","inputs":[{"name":"borrower","type":"address","indexed":true,"internalType":"address"},{"name":"account","type":"address","indexed":true,"internalType":"address"}],"anonymous":false},{"type":"event","name":"SanctionOverrideRemoved","inputs":[{"name":"borrower","type":"address","indexed":true,"internalType":"address"},{"name":"account","type":"address","indexed":true,"internalType":"address"}],"anonymous":false}],"bytecode":{"object":"0x60c060405234801561000f575f80fd5b50604051610e09380380610e0983398101604081905261002e916100a7565b6001600160a01b03811660a0527340c57923924b5c5c5455c48d93317139addac8fb6080819052819061009f6040805160608101825260018082526020820181905291018190525f80546001600160a01b031990811683179091558154811682178255600280549091169091179055565b5050506100d4565b5f602082840312156100b7575f80fd5b81516001600160a01b03811681146100cd575f80fd5b9392505050565b60805160a051610d066101035f395f61017601525f818161014f015281816103c3015261061d0152610d065ff3fe608060405234801561000f575f80fd5b50600436106100b1575f3560e01c8063681909a01161006e578063681909a01461019857806395c09839146101ab578063a1054f6b146101be578063b1d62668146101d1578063b8b453611461021a578063ed986c6c14610230575f80fd5b806306e74444146100b55780631cdf58b0146100dd578063380c343114610108578063490a8653146101355780634973203d1461014a5780635463557014610171575b5f80fd5b6100c86100c336600461069f565b610243565b60405190151581526020015b60405180910390f35b6100f06100eb3660046106d0565b610285565b6040516001600160a01b0390911681526020016100d4565b6100c861011636600461069f565b600360209081525f928352604080842090915290825290205460ff1681565b610148610143366004610710565b6102f5565b005b6100f07f000000000000000000000000000000000000000000000000000000000000000081565b6100f07f000000000000000000000000000000000000000000000000000000000000000081565b6101486101a6366004610710565b61034a565b6100c86101b9366004610710565b6103a2565b6100f06101cc3660046106d0565b610434565b5f546001546002546101f0926001600160a01b03908116928116911683565b604080516001600160a01b03948516815292841660208401529216918101919091526060016100d4565b6102226105d1565b6040519081526020016100d4565b61014861023e366004610710565b6105fe565b6001600160a01b038083165f90815260036020908152604080832093851683529290529081205460ff1615801561027e575061027e826103a2565b9392505050565b604080515f858152602085905283835260608120919092525f604051806020016102ae90610677565b601f1982820381018352601f909101166040818152825160209384012060ff60a01b30175f52949092529281526055600b20929052506001600160a01b0316949350505050565b335f8181526003602090815260408083206001600160a01b0386168085529252808320805460ff19169055519092917f23bb3a3ab36fcdc5884abde2529508c7edd18ebea79d7213cd6632c71086216e91a350565b335f8181526003602090815260408083206001600160a01b0386168085529252808320805460ff19166001179055519092917ff7314dc6493fd11dd1939dc062aeea73f1c783016ddb31776a402712098e5db591a350565b60405163df592f7d60e01b81526001600160a01b0382811660048301525f917f00000000000000000000000000000000000000000000000000000000000000009091169063df592f7d90602401602060405180830381865afa15801561040a573d5f803e3d5ffd5b505050506040513d601f19601f8201168201806040525081019061042e9190610729565b92915050565b5f610440848484610285565b9050806001600160a01b03163b5f0361027e5760408051606080820183526001600160a01b0387811680845287821660208086018290529288169486018590525f80546001600160a01b03199081169093178155600180548416909217909155600280549092169094179055835188845290879052858452912091526040516104c890610677565b8190604051809103905ff59050801580156104e5573d5f803e3d5ffd5b5050816001600160a01b0316836001600160a01b0316856001600160a01b03167f23e05aa548aba14c84d0a45e65bab80c7409d1a00129f53cfdf85bed0b5fbb2560405160405180910390a46001600160a01b038085165f81815260036020908152604080832094861680845294909152808220805460ff19166001179055517ff7314dc6493fd11dd1939dc062aeea73f1c783016ddb31776a402712098e5db59190a361027e6040805160608101825260018082526020820181905291018190525f80546001600160a01b031990811683179091558154811682178255600280549091169091179055565b6040516105e060208201610677565b6020820181038252601f19601f820116604052508051906020012081565b604051633b661b1b60e21b81526001600160a01b0382811660048301527f0000000000000000000000000000000000000000000000000000000000000000169063ed986c6c906024015f604051808303815f87803b15801561065e575f80fd5b505af1158015610670573d5f803e3d5ffd5b5050505050565b6105b18061074983390190565b80356001600160a01b038116811461069a575f80fd5b919050565b5f80604083850312156106b0575f80fd5b6106b983610684565b91506106c760208401610684565b90509250929050565b5f805f606084860312156106e2575f80fd5b6106eb84610684565b92506106f960208501610684565b915061070760408501610684565b90509250925092565b5f60208284031215610720575f80fd5b61027e82610684565b5f60208284031215610739575f80fd5b8151801515811461027e575f80fdfe610100604052348015610010575f80fd5b503360808190526040805163163ac4cd60e31b8152905163b1d62668916004808201926060929091908290030181865afa158015610050573d5f803e3d5ffd5b505050506040513d601f19601f8201168201806040525081019061007491906100ac565b6001600160a01b0390811660e05290811660c0521660a0526100ec565b80516001600160a01b03811681146100a7575f80fd5b919050565b5f805f606084860312156100be575f80fd5b6100c784610091565b92506100d560208501610091565b91506100e360408501610091565b90509250925092565b60805160a05160c05160e05161046a6101475f395f8181610173015281816101f4015261036a01525f818160af015281816101d301526102b801525f818160f8015261029001525f818161014d01526102e2015261046a5ff3fe608060405234801561000f575f80fd5b506004361061007a575f3560e01c80637df1f1b9116100585780637df1f1b9146100f3578063a4972b471461011a578063b69ef8a814610132578063f58c251c14610148575f80fd5b80633d02b19c1461007e5780635dab2420146100aa578063757a5543146100e9575b5f80fd5b61008661016f565b604080516001600160a01b0390931683526020830191909152015b60405180910390f35b6100d17f000000000000000000000000000000000000000000000000000000000000000081565b6040516001600160a01b0390911681526020016100a1565b6100f16101a2565b005b6100d17f000000000000000000000000000000000000000000000000000000000000000081565b610122610279565b60405190151581526020016100a1565b61013a610353565b6040519081526020016100a1565b6100d17f000000000000000000000000000000000000000000000000000000000000000081565b5f807f000000000000000000000000000000000000000000000000000000000000000061019a610353565b915091509091565b6101aa610279565b6101c6576040516268221d60e41b815260040160405180910390fd5b5f6101cf610353565b90507f00000000000000000000000000000000000000000000000000000000000000007f00000000000000000000000000000000000000000000000000000000000000006102276001600160a01b03821683856103e0565b806001600160a01b0316826001600160a01b03167fddb6c73499c01e62ac80461b3609b0aa26779cb2da76ed6eff1f3e11ebae23488560405161026c91815260200190565b60405180910390a3505050565b6040516301b9d11160e21b81526001600160a01b037f0000000000000000000000000000000000000000000000000000000000000000811660048301527f0000000000000000000000000000000000000000000000000000000000000000811660248301525f917f0000000000000000000000000000000000000000000000000000000000000000909116906306e7444490604401602060405180830381865afa158015610329573d5f803e3d5ffd5b505050506040513d601f19601f8201168201806040525081019061034d9190610420565b15905090565b6040516370a0823160e01b81523060048201525f907f00000000000000000000000000000000000000000000000000000000000000006001600160a01b0316906370a0823190602401602060405180830381865afa1580156103b7573d5f803e3d5ffd5b505050506040513d601f19601f820116820180604052508101906103db9190610446565b905090565b816014528060345263a9059cbb60601b5f5260205f604460105f875af13d1560015f51141716610417576390b8ec185f526004601cfd5b5f603452505050565b5f60208284031215610430575f80fd5b8151801515811461043f575f80fd5b9392505050565b5f60208284031215610456575f80fd5b505191905056fea164736f6c6343000819000aa164736f6c6343000819000a","linkReferences":{}},"methodIdentifiers":{"WildcatSanctionsEscrowInitcodeHash()":"b8b45361","archController()":"54635570","chainalysisSanctionsList()":"4973203d","createEscrow(address,address,address)":"a1054f6b","getEscrowAddress(address,address,address)":"1cdf58b0","isFlaggedByChainalysis(address)":"95c09839","isSanctioned(address,address)":"06e74444","overrideSanction(address)":"681909a0","removeSanctionOverride(address)":"490a8653","sanction(address)":"ed986c6c","sanctionOverrides(address,address)":"380c3431","tmpEscrowParams()":"b1d62668"},"id":98}