{"abi":[{"type":"function","name":"approveCredentialData","inputs":[{"name":"dataHash","type":"bytes32","internalType":"bytes32"},{"name":"timestamp","type":"uint32","internalType":"uint32"}],"outputs":[],"stateMutability":"nonpayable"},{"type":"function","name":"callShouldReturnCorruptedData","inputs":[],"outputs":[{"name":"","type":"bool","internalType":"bool"}],"stateMutability":"view"},{"type":"function","name":"callShouldRevert","inputs":[],"outputs":[{"name":"","type":"bool","internalType":"bool"}],"stateMutability":"view"},{"type":"function","name":"credentialsByAccount","inputs":[{"name":"","type":"address","internalType":"address"}],"outputs":[{"name":"","type":"uint32","internalType":"uint32"}],"stateMutability":"view"},{"type":"function","name":"credentialsByHash","inputs":[{"name":"","type":"bytes32","internalType":"bytes32"}],"outputs":[{"name":"","type":"uint32","internalType":"uint32"}],"stateMutability":"view"},{"type":"function","name":"getCredential","inputs":[{"name":"account","type":"address","internalType":"address"}],"outputs":[{"name":"timestamp","type":"uint32","internalType":"uint32"}],"stateMutability":"view"},{"type":"function","name":"isPullProvider","inputs":[],"outputs":[{"name":"","type":"bool","internalType":"bool"}],"stateMutability":"view"},{"type":"function","name":"requiredSigner","inputs":[],"outputs":[{"name":"","type":"address","internalType":"address"}],"stateMutability":"view"},{"type":"function","name":"setCallShouldReturnCorruptedData","inputs":[{"name":"value","type":"bool","internalType":"bool"}],"outputs":[],"stateMutability":"nonpayable"},{"type":"function","name":"setCallShouldRevert","inputs":[{"name":"value","type":"bool","internalType":"bool"}],"outputs":[],"stateMutability":"nonpayable"},{"type":"function","name":"setCredential","inputs":[{"name":"account","type":"address","internalType":"address"},{"name":"timestamp","type":"uint32","internalType":"uint32"}],"outputs":[],"stateMutability":"nonpayable"},{"type":"function","name":"setIsPullProvider","inputs":[{"name":"value","type":"bool","internalType":"bool"}],"outputs":[],"stateMutability":"nonpayable"},{"type":"function","name":"setRequiredSigner","inputs":[{"name":"signer","type":"address","internalType":"address"}],"outputs":[],"stateMutability":"nonpayable"},{"type":"function","name":"validateCredential","inputs":[{"name":"account","type":"address","internalType":"address"},{"name":"data","type":"bytes","internalType":"bytes"}],"outputs":[{"name":"","type":"uint32","internalType":"uint32"}],"stateMutability":"nonpayable"},{"type":"error","name":"BadCredential","inputs":[]}],"bytecode":{"object":"0x6080604052348015600e575f80fd5b5061073f8061001c5f395ff3fe608060405234801561000f575f80fd5b50600436106100e5575f3560e01c8063675f246411610088578063ccdad14b11610063578063ccdad14b14610261578063dbe4b10114610274578063de46641f14610299578063f109cd26146102d2575f80fd5b8063675f2464146101ff5780636e46695114610226578063706e468a1461024f575f80fd5b806340e698b4116100c357806340e698b414610152578063453d89601461019257806354560cb2146101cc57806361e27120146101df575f80fd5b806312e39aad146100e9578063256909f114610120578063281a5bac14610146575b5f80fd5b61011e6100f7366004610520565b5f91825260026020526040909120805463ffffffff191663ffffffff909216919091179055565b005b5f5461013190610100900460ff1681565b60405190151581526020015b60405180910390f35b5f546101319060ff1681565b61011e610160366004610560565b6001600160a01b03919091165f908152600160205260409020805463ffffffff191663ffffffff909216919091179055565b6101b76101a0366004610588565b60016020525f908152604090205463ffffffff1681565b60405163ffffffff909116815260200161013d565b6101b76101da3660046105a1565b610303565b61011e6101ed36600461061d565b5f805460ff1916911515919091179055565b61011e61020d36600461061d565b5f80549115156101000261ff0019909216919091179055565b61011e61023436600461061d565b5f8054911515620100000262ff000019909216919091179055565b5f546101319062010000900460ff1681565b6101b761026f366004610588565b61045f565b6101b761028236600461063c565b60026020525f908152604090205463ffffffff1681565b61011e6102a7366004610588565b5f80546001600160a01b039092166301000000026301000000600160b81b0319909216919091179055565b5f546102eb90630100000090046001600160a01b031681565b6040516001600160a01b03909116815260200161013d565b5f805460ff16156103265760405162e37a2360e51b815260040160405180910390fd5b5f5462010000900460ff161561033857005b5f54630100000090046001600160a01b031615610427575f8061035d84860186610667565b604080516001600160a01b038a1660208083019190915263ffffffff8516828401528251808303840181526060909201909252805191012091935091505f6103a582846104b5565b5f549091506001600160a01b038083166301000000909204161461041b5760405162461bcd60e51b815260206004820152602360248201527f4d6f636b526f6c6550726f76696465723a20696e76616c6964207369676e617460448201526275726560e81b606482015260840160405180910390fd5b83945050505050610458565b5f8383604051610438929190610723565b60408051918290039091205f9081526002602052205463ffffffff169150505b9392505050565b5f805460ff16156104825760405162e37a2360e51b815260040160405180910390fd5b5f5462010000900460ff161561049457005b506001600160a01b03165f9081526001602052604090205463ffffffff1690565b5f6040518251845f5260608401515f1a602052602084015160405260408401516060526020600160805f604185145afa519250503d6104fb57638baa579f5f526004601cfd5b5f60605260405292915050565b803563ffffffff8116811461051b575f80fd5b919050565b5f8060408385031215610531575f80fd5b8235915061054160208401610508565b90509250929050565b80356001600160a01b038116811461051b575f80fd5b5f8060408385031215610571575f80fd5b61057a8361054a565b915061054160208401610508565b5f60208284031215610598575f80fd5b6104588261054a565b5f805f604084860312156105b3575f80fd5b6105bc8461054a565b9250602084013567ffffffffffffffff808211156105d8575f80fd5b818601915086601f8301126105eb575f80fd5b8135818111156105f9575f80fd5b87602082850101111561060a575f80fd5b6020830194508093505050509250925092565b5f6020828403121561062d575f80fd5b81358015158114610458575f80fd5b5f6020828403121561064c575f80fd5b5035919050565b634e487b7160e01b5f52604160045260245ffd5b5f8060408385031215610678575f80fd5b61068183610508565b9150602083013567ffffffffffffffff8082111561069d575f80fd5b818501915085601f8301126106b0575f80fd5b8135818111156106c2576106c2610653565b604051601f8201601f19908116603f011681019083821181831017156106ea576106ea610653565b81604052828152886020848701011115610702575f80fd5b826020860160208301375f6020848301015280955050505050509250929050565b818382375f910190815291905056fea164736f6c6343000819000a","linkReferences":{}},"methodIdentifiers":{"approveCredentialData(bytes32,uint32)":"12e39aad","callShouldReturnCorruptedData()":"706e468a","callShouldRevert()":"281a5bac","credentialsByAccount(address)":"453d8960","credentialsByHash(bytes32)":"dbe4b101","getCredential(address)":"ccdad14b","isPullProvider()":"256909f1","requiredSigner()":"f109cd26","setCallShouldReturnCorruptedData(bool)":"6e466951","setCallShouldRevert(bool)":"61e27120","setCredential(address,uint32)":"40e698b4","setIsPullProvider(bool)":"675f2464","setRequiredSigner(address)":"de46641f","validateCredential(address,bytes)":"54560cb2"},"id":97}