{"abi":[{"type":"constructor","inputs":[{"name":"archController_","type":"address","internalType":"address"},{"name":"_sanctionsSentinel","type":"address","internalType":"address"},{"name":"_marketInitCodeStorage","type":"address","internalType":"address"},{"name":"_marketInitCodeHash","type":"uint256","internalType":"uint256"}],"stateMutability":"nonpayable"},{"type":"function","name":"addHooksTemplate","inputs":[{"name":"hooksTemplate","type":"address","internalType":"address"},{"name":"name","type":"string","internalType":"string"},{"name":"feeRecipient","type":"address","internalType":"address"},{"name":"originationFeeAsset","type":"address","internalType":"address"},{"name":"originationFeeAmount","type":"uint80","internalType":"uint80"},{"name":"protocolFeeBips","type":"uint16","internalType":"uint16"}],"outputs":[],"stateMutability":"nonpayable"},{"type":"function","name":"archController","inputs":[],"outputs":[{"name":"","type":"address","internalType":"address"}],"stateMutability":"view"},{"type":"function","name":"changeSphereXEngine","inputs":[{"name":"newSphereXEngine","type":"address","internalType":"address"}],"outputs":[],"stateMutability":"nonpayable"},{"type":"function","name":"computeMarketAddress","inputs":[{"name":"salt","type":"bytes32","internalType":"bytes32"}],"outputs":[{"name":"","type":"address","internalType":"address"}],"stateMutability":"view"},{"type":"function","name":"deployHooksInstance","inputs":[{"name":"hooksTemplate","type":"address","internalType":"address"},{"name":"constructorArgs","type":"bytes","internalType":"bytes"}],"outputs":[{"name":"hooksInstance","type":"address","internalType":"address"}],"stateMutability":"nonpayable"},{"type":"function","name":"deployMarket","inputs":[{"name":"parameters","type":"tuple","internalType":"struct DeployMarketInputs","components":[{"name":"asset","type":"address","internalType":"address"},{"name":"namePrefix","type":"string","internalType":"string"},{"name":"symbolPrefix","type":"string","internalType":"string"},{"name":"maxTotalSupply","type":"uint128","internalType":"uint128"},{"name":"annualInterestBips","type":"uint16","internalType":"uint16"},{"name":"delinquencyFeeBips","type":"uint16","internalType":"uint16"},{"name":"withdrawalBatchDuration","type":"uint32","internalType":"uint32"},{"name":"reserveRatioBips","type":"uint16","internalType":"uint16"},{"name":"delinquencyGracePeriod","type":"uint32","internalType":"uint32"},{"name":"hooks","type":"uint256","internalType":"HooksConfig"}]},{"name":"hooksData","type":"bytes","internalType":"bytes"},{"name":"salt","type":"bytes32","internalType":"bytes32"},{"name":"originationFeeAsset","type":"address","internalType":"address"},{"name":"originationFeeAmount","type":"uint256","internalType":"uint256"}],"outputs":[{"name":"market","type":"address","internalType":"address"}],"stateMutability":"nonpayable"},{"type":"function","name":"deployMarketAndHooks","inputs":[{"name":"hooksTemplate","type":"address","internalType":"address"},{"name":"hooksTemplateArgs","type":"bytes","internalType":"bytes"},{"name":"parameters","type":"tuple","internalType":"struct DeployMarketInputs","components":[{"name":"asset","type":"address","internalType":"address"},{"name":"namePrefix","type":"string","internalType":"string"},{"name":"symbolPrefix","type":"string","internalType":"string"},{"name":"maxTotalSupply","type":"uint128","internalType":"uint128"},{"name":"annualInterestBips","type":"uint16","internalType":"uint16"},{"name":"delinquencyFeeBips","type":"uint16","internalType":"uint16"},{"name":"withdrawalBatchDuration","type":"uint32","internalType":"uint32"},{"name":"reserveRatioBips","type":"uint16","internalType":"uint16"},{"name":"delinquencyGracePeriod","type":"uint32","internalType":"uint32"},{"name":"hooks","type":"uint256","internalType":"HooksConfig"}]},{"name":"hooksData","type":"bytes","internalType":"bytes"},{"name":"salt","type":"bytes32","internalType":"bytes32"},{"name":"originationFeeAsset","type":"address","internalType":"address"},{"name":"originationFeeAmount","type":"uint256","internalType":"uint256"}],"outputs":[{"name":"market","type":"address","internalType":"address"},{"name":"hooksInstance","type":"address","internalType":"address"}],"stateMutability":"nonpayable"},{"type":"function","name":"disableHooksTemplate","inputs":[{"name":"hooksTemplate","type":"address","internalType":"address"}],"outputs":[],"stateMutability":"nonpayable"},{"type":"function","name":"getHooksTemplateDetails","inputs":[{"name":"hooksTemplate","type":"address","internalType":"address"}],"outputs":[{"name":"","type":"tuple","internalType":"struct HooksTemplate","components":[{"name":"originationFeeAsset","type":"address","internalType":"address"},{"name":"originationFeeAmount","type":"uint80","internalType":"uint80"},{"name":"protocolFeeBips","type":"uint16","internalType":"uint16"},{"name":"exists","type":"bool","internalType":"bool"},{"name":"enabled","type":"bool","internalType":"bool"},{"name":"index","type":"uint24","internalType":"uint24"},{"name":"feeRecipient","type":"address","internalType":"address"},{"name":"name","type":"string","internalType":"string"}]}],"stateMutability":"view"},{"type":"function","name":"getHooksTemplateForInstance","inputs":[{"name":"hooksInstance","type":"address","internalType":"address"}],"outputs":[{"name":"hooksTemplate","type":"address","internalType":"address"}],"stateMutability":"view"},{"type":"function","name":"getHooksTemplates","inputs":[],"outputs":[{"name":"","type":"address[]","internalType":"address[]"}],"stateMutability":"view"},{"type":"function","name":"getHooksTemplates","inputs":[{"name":"start","type":"uint256","internalType":"uint256"},{"name":"end","type":"uint256","internalType":"uint256"}],"outputs":[{"name":"arr","type":"address[]","internalType":"address[]"}],"stateMutability":"view"},{"type":"function","name":"getHooksTemplatesCount","inputs":[],"outputs":[{"name":"","type":"uint256","internalType":"uint256"}],"stateMutability":"view"},{"type":"function","name":"getMarketParameters","inputs":[],"outputs":[{"name":"parameters","type":"tuple","internalType":"struct MarketParameters","components":[{"name":"asset","type":"address","internalType":"address"},{"name":"decimals","type":"uint8","internalType":"uint8"},{"name":"packedNameWord0","type":"bytes32","internalType":"bytes32"},{"name":"packedNameWord1","type":"bytes32","internalType":"bytes32"},{"name":"packedSymbolWord0","type":"bytes32","internalType":"bytes32"},{"name":"packedSymbolWord1","type":"bytes32","internalType":"bytes32"},{"name":"borrower","type":"address","internalType":"address"},{"name":"feeRecipient","type":"address","internalType":"address"},{"name":"sentinel","type":"address","internalType":"address"},{"name":"maxTotalSupply","type":"uint128","internalType":"uint128"},{"name":"protocolFeeBips","type":"uint16","internalType":"uint16"},{"name":"annualInterestBips","type":"uint16","internalType":"uint16"},{"name":"delinquencyFeeBips","type":"uint16","internalType":"uint16"},{"name":"withdrawalBatchDuration","type":"uint32","internalType":"uint32"},{"name":"reserveRatioBips","type":"uint16","internalType":"uint16"},{"name":"delinquencyGracePeriod","type":"uint32","internalType":"uint32"},{"name":"archController","type":"address","internalType":"address"},{"name":"sphereXEngine","type":"address","internalType":"address"},{"name":"hooks","type":"uint256","internalType":"HooksConfig"}]}],"stateMutability":"view"},{"type":"function","name":"getMarketsForHooksTemplate","inputs":[{"name":"hooksTemplate","type":"address","internalType":"address"}],"outputs":[{"name":"","type":"address[]","internalType":"address[]"}],"stateMutability":"view"},{"type":"function","name":"getMarketsForHooksTemplate","inputs":[{"name":"hooksTemplate","type":"address","internalType":"address"},{"name":"start","type":"uint256","internalType":"uint256"},{"name":"end","type":"uint256","internalType":"uint256"}],"outputs":[{"name":"arr","type":"address[]","internalType":"address[]"}],"stateMutability":"view"},{"type":"function","name":"getMarketsForHooksTemplateCount","inputs":[{"name":"hooksTemplate","type":"address","internalType":"address"}],"outputs":[{"name":"","type":"uint256","internalType":"uint256"}],"stateMutability":"view"},{"type":"function","name":"isHooksInstance","inputs":[{"name":"hooksInstance","type":"address","internalType":"address"}],"outputs":[{"name":"","type":"bool","internalType":"bool"}],"stateMutability":"view"},{"type":"function","name":"isHooksTemplate","inputs":[{"name":"hooksTemplate","type":"address","internalType":"address"}],"outputs":[{"name":"","type":"bool","internalType":"bool"}],"stateMutability":"view"},{"type":"function","name":"marketInitCodeHash","inputs":[],"outputs":[{"name":"","type":"uint256","internalType":"uint256"}],"stateMutability":"view"},{"type":"function","name":"marketInitCodeStorage","inputs":[],"outputs":[{"name":"","type":"address","internalType":"address"}],"stateMutability":"view"},{"type":"function","name":"pushProtocolFeeBipsUpdates","inputs":[{"name":"hooksTemplate","type":"address","internalType":"address"}],"outputs":[],"stateMutability":"nonpayable"},{"type":"function","name":"pushProtocolFeeBipsUpdates","inputs":[{"name":"hooksTemplate","type":"address","internalType":"address"},{"name":"marketStartIndex","type":"uint256","internalType":"uint256"},{"name":"marketEndIndex","type":"uint256","internalType":"uint256"}],"outputs":[],"stateMutability":"nonpayable"},{"type":"function","name":"registerWithArchController","inputs":[],"outputs":[],"stateMutability":"nonpayable"},{"type":"function","name":"sanctionsSentinel","inputs":[],"outputs":[{"name":"","type":"address","internalType":"address"}],"stateMutability":"view"},{"type":"function","name":"sphereXEngine","inputs":[],"outputs":[{"name":"","type":"address","internalType":"address"}],"stateMutability":"view"},{"type":"function","name":"sphereXOperator","inputs":[],"outputs":[{"name":"","type":"address","internalType":"address"}],"stateMutability":"view"},{"type":"function","name":"updateHooksTemplateFees","inputs":[{"name":"hooksTemplate","type":"address","internalType":"address"},{"name":"feeRecipient","type":"address","internalType":"address"},{"name":"originationFeeAsset","type":"address","internalType":"address"},{"name":"originationFeeAmount","type":"uint80","internalType":"uint80"},{"name":"protocolFeeBips","type":"uint16","internalType":"uint16"}],"outputs":[],"stateMutability":"nonpayable"},{"type":"event","name":"ChangedSpherexEngineAddress","inputs":[{"name":"oldEngineAddress","type":"address","indexed":false,"internalType":"address"},{"name":"newEngineAddress","type":"address","indexed":false,"internalType":"address"}],"anonymous":false},{"type":"event","name":"ChangedSpherexOperator","inputs":[{"name":"oldSphereXAdmin","type":"address","indexed":false,"internalType":"address"},{"name":"newSphereXAdmin","type":"address","indexed":false,"internalType":"address"}],"anonymous":false},{"type":"event","name":"HooksInstanceDeployed","inputs":[{"name":"hooksInstance","type":"address","indexed":false,"internalType":"address"},{"name":"hooksTemplate","type":"address","indexed":false,"internalType":"address"}],"anonymous":false},{"type":"event","name":"HooksTemplateAdded","inputs":[{"name":"hooksTemplate","type":"address","indexed":false,"internalType":"address"},{"name":"name","type":"string","indexed":false,"internalType":"string"},{"name":"feeRecipient","type":"address","indexed":false,"internalType":"address"},{"name":"originationFeeAsset","type":"address","indexed":false,"internalType":"address"},{"name":"originationFeeAmount","type":"uint80","indexed":false,"internalType":"uint80"},{"name":"protocolFeeBips","type":"uint16","indexed":false,"internalType":"uint16"}],"anonymous":false},{"type":"event","name":"HooksTemplateDisabled","inputs":[{"name":"hooksTemplate","type":"address","indexed":false,"internalType":"address"}],"anonymous":false},{"type":"event","name":"HooksTemplateFeesUpdated","inputs":[{"name":"hooksTemplate","type":"address","indexed":false,"internalType":"address"},{"name":"feeRecipient","type":"address","indexed":false,"internalType":"address"},{"name":"originationFeeAsset","type":"address","indexed":false,"internalType":"address"},{"name":"originationFeeAmount","type":"uint80","indexed":false,"internalType":"uint80"},{"name":"protocolFeeBips","type":"uint16","indexed":false,"internalType":"uint16"}],"anonymous":false},{"type":"event","name":"MarketDeployed","inputs":[{"name":"hooksTemplate","type":"address","indexed":true,"internalType":"address"},{"name":"market","type":"address","indexed":true,"internalType":"address"},{"name":"name","type":"string","indexed":false,"internalType":"string"},{"name":"symbol","type":"string","indexed":false,"internalType":"string"},{"name":"asset","type":"address","indexed":false,"internalType":"address"},{"name":"maxTotalSupply","type":"uint256","indexed":false,"internalType":"uint256"},{"name":"annualInterestBips","type":"uint256","indexed":false,"internalType":"uint256"},{"name":"delinquencyFeeBips","type":"uint256","indexed":false,"internalType":"uint256"},{"name":"withdrawalBatchDuration","type":"uint256","indexed":false,"internalType":"uint256"},{"name":"reserveRatioBips","type":"uint256","indexed":false,"internalType":"uint256"},{"name":"delinquencyGracePeriod","type":"uint256","indexed":false,"internalType":"uint256"},{"name":"hooks","type":"uint256","indexed":false,"internalType":"HooksConfig"}],"anonymous":false},{"type":"error","name":"AssetBlacklisted","inputs":[]},{"type":"error","name":"CallerNotArchControllerOwner","inputs":[]},{"type":"error","name":"DeploymentFailed","inputs":[]},{"type":"error","name":"FeeMismatch","inputs":[]},{"type":"error","name":"HooksInstanceNotFound","inputs":[]},{"type":"error","name":"HooksTemplateAlreadyExists","inputs":[]},{"type":"error","name":"HooksTemplateNotAvailable","inputs":[]},{"type":"error","name":"HooksTemplateNotFound","inputs":[]},{"type":"error","name":"InvalidFeeConfiguration","inputs":[]},{"type":"error","name":"MarketAlreadyExists","inputs":[]},{"type":"error","name":"NameOrSymbolTooLong","inputs":[]},{"type":"error","name":"NoReentrantCalls","inputs":[]},{"type":"error","name":"NotApprovedBorrower","inputs":[]},{"type":"error","name":"SaltDoesNotContainSender","inputs":[]},{"type":"error","name":"SetProtocolFeeBipsFailed","inputs":[]},{"type":"error","name":"SphereXOperatorRequired","inputs":[]}],"bytecode":{"object":"0x61012060405260ff60a01b301760a05234801561001a575f80fd5b506040516139a43803806139a483398101604081905261003991610197565b6001600160a01b0380831660c05260e082905284811660808190529084166101005260408051631e1188b360e11b815290516100c19291633c2311669160048083019260209291908290030181865afa158015610098573d5f803e3d5ffd5b505050506040513d601f19601f820116820180604052508101906100bc91906101df565b6100ca565b50505050610224565b6100dc5f60805161011c60201b60201c565b61010f61010a60017f1777adabd324f814e2b0e28f6edf876dce01d7d66358c9acfe87b1b5f38338d66101ff565b829055565b6101195f8261014c565b50565b815f52806020527f2ac55ae7ba47db34b5334622acafeb34a65daf143b47019273185d64c73a35a560405fa15050565b815f52806020527ff33499cccaa0611882086224cc48cd82ef54b66a4d2edf4ed67108dd516896d560405fa15050565b80516001600160a01b0381168114610192575f80fd5b919050565b5f805f80608085870312156101aa575f80fd5b6101b38561017c565b93506101c16020860161017c565b92506101cf6040860161017c565b6060959095015193969295505050565b5f602082840312156101ef575f80fd5b6101f88261017c565b9392505050565b8181038181111561021e57634e487b7160e01b5f52601160045260245ffd5b92915050565b60805160a05160c05160e051610100516136d36102d15f395f8181610312015261061901525f81816103d301528181611640015261201801525f818161029d015261229801525f81816116160152611ff001525f81816103490152818161071b01528181610b9001528181610efe01528181610f6a0152818161106a0152818161123c0152818161139f015281816116980152818161183d01528181611ea301526122dd01526136d35ff3fe608060405234801561000f575f80fd5b50600436106101bb575f3560e01c80636e50f960116100f3578063cdbb837411610093578063d9d580251161006e578063d9d5802514610491578063e7ca86e314610498578063e7e5db4f14610347578063eae6ff66146104ab575f80fd5b8063cdbb837414610429578063d19bd5711461043c578063d1a0745c14610469575f80fd5b8063ad78e45a116100ce578063ad78e45a1461039b578063aeefe08c146103ce578063c29a767714610403578063cd01e52a14610416575f80fd5b80636e50f9601461036d5780639c5cd31a146103755780639f2f94b314610388575f80fd5b8063356dd3521161015e57806341f259b81161013957806341f259b8146103055780634272711d1461030d5780634c6c848f146103345780635463557014610347575f80fd5b8063356dd352146102985780633c231166146102bf5780633fd83e1e146102c7575f80fd5b80632812d2de116101995780632812d2de146102125780632b07f2801461023257806333ee81f2146102725780633476b76d14610285575f80fd5b806304032dbb146101bf578063155733ef146101dd5780631caab59d146101f2575b5f80fd5b6101c76104be565b6040516101d49190612811565b60405180910390f35b6101f06101eb366004612977565b61077d565b005b610205610200366004612977565b61078c565b6040516101d49190612992565b610225610220366004612977565b6107ff565b6040516101d49190612a0c565b61025a610240366004612977565b60036020525f90815260409020546001600160a01b031681565b6040516001600160a01b0390911681526020016101d4565b6101f0610280366004612aa9565b610973565b6101f0610293366004612b4f565b610b8e565b61025a7f000000000000000000000000000000000000000000000000000000000000000081565b61025a610eb1565b6102f56102d5366004612977565b6001600160a01b03165f9081526002602052604090206001015460ff1690565b60405190151581526020016101d4565b6101f0610ee9565b61025a7f000000000000000000000000000000000000000000000000000000000000000081565b6101f0610342366004612977565b610f5f565b7f000000000000000000000000000000000000000000000000000000000000000061025a565b610205611009565b6101f0610383366004612be8565b611068565b6101f0610396366004612977565b61123a565b6103ae6103a9366004612e66565b611380565b604080516001600160a01b039384168152929091166020830152016101d4565b6103f57f000000000000000000000000000000000000000000000000000000000000000081565b6040519081526020016101d4565b61025a610411366004612f29565b611610565b61025a610424366004612f40565b61167a565b610205610437366004612f90565b611742565b6102f561044a366004612977565b6001600160a01b039081165f9081526003602052604090205416151590565b6103f5610477366004612977565b6001600160a01b03165f9081526001602052604090205490565b5f546103f5565b61025a6104a6366004612fb0565b61181f565b6102056104b9366004612aa9565b611a9c565b60408051610260810182525f80825260208201819052918101829052606081018290526080810182905260a0810182905260c0810182905260e08101829052610100810182905261012081018290526101408101829052610160810182905261018081018290526101a081018290526101c081018290526101e081018290526102008101829052610220810182905261024081018290529061055e611b93565b90508060200151825f01906001600160a01b031690816001600160a01b031681525050806101400151826040018181525050806101600151826060018181525050806101800151826080018181525050806101a001518260a0018181525050806101c00151826020019060ff16908160ff1681525050805f01518260c001906001600160a01b031690816001600160a01b03168152505080604001518260e001906001600160a01b031690816001600160a01b0316815250507f00000000000000000000000000000000000000000000000000000000000000008261010001906001600160a01b031690816001600160a01b03168152505080608001518261012001906001600160801b031690816001600160801b031681525050806060015182610140019061ffff16908161ffff16815250508060a0015182610160019061ffff16908161ffff16815250508060c0015182610180019061ffff16908161ffff16815250508060e00151826101a0019063ffffffff16908163ffffffff1681525050806101000151826101c0019061ffff16908161ffff1681525050806101200151826101e0019063ffffffff16908163ffffffff16815250507f00000000000000000000000000000000000000000000000000000000000000008261020001906001600160a01b031690816001600160a01b031681525050610760610eb1565b6001600160a01b03166102208301526101e0015161024082015290565b610789815f5f19610973565b50565b6001600160a01b0381165f908152600160209081526040918290208054835181840281018401909452808452606093928301828280156107f357602002820191905f5260205f20905b81546001600160a01b031681526001909101906020018083116107d5575b50505050509050919050565b60408051610100810182525f8082526020820181905291810182905260608082018390526080820183905260a0820183905260c082019290925260e08101919091526001600160a01b038281165f908152600260208181526040928390208351610100808201865282548088168352600160a01b81046001600160501b031694830194909452600160f01b90930461ffff1694810194909452600181015460ff808216151560608701529281049092161515608085015262010000820462ffffff1660a0850152600160281b90910490931660c08301528201805491929160e0840191906108ec90613041565b80601f016020809104026020016040519081016040528092919081815260200182805461091890613041565b80156109635780601f1061093a57610100808354040283529160200191610963565b820191905f5260205f20905b81548152906001019060200180831161094657829003601f168201915b5050505050815250509050919050565b61097b611c59565b6001600160a01b038381165f9081526002602081815260408084208151610100808201845282548089168352600160a01b81046001600160501b031695830195909552600160f01b90940461ffff1692810192909252600181015460ff808216151560608501529381049093161515608083015262010000830462ffffff1660a0830152600160281b90920490941660c0850152908101805492939260e084019190610a2690613041565b80601f0160208091040260200160405190810160405280929190818152602001828054610a5290613041565b8015610a9d5780601f10610a7457610100808354040283529160200191610a9d565b820191905f5260205f20905b815481529060010190602001808311610a8057829003601f168201915b50505050508152505090508060600151610aca57604051634659113f60e11b815260040160405180910390fd5b6001600160a01b0384165f9081526001602052604090208054610aee908490611c7d565b92505f610afb8585613087565b604080850151815180830190925263ae6ea191825260208201819052919250601c01905f5b83811015610b7b575f85610b34838b61309a565b81548110610b4457610b446130ad565b5f9182526020822001546001600160a01b031691508060248682855af1610b7257634484a4a95f526004601cfd5b50600101610b20565b505050505050610b89611c8c565b505050565b7f00000000000000000000000000000000000000000000000000000000000000006001600160a01b0316638da5cb5b6040518163ffffffff1660e01b8152600401602060405180830381865afa158015610bea573d5f803e3d5ffd5b505050506040513d601f19601f82011682018060405250810190610c0e91906130cc565b6001600160a01b0316336001600160a01b031614610c3f5760405163226bc1e360e11b815260040160405180910390fd5b6001600160a01b0387165f9081526002602052604090206001015460ff1615610c7b57604051633704fb4160e01b815260040160405180910390fd5b610c8784848484611c95565b604051806101000160405280846001600160a01b03168152602001836001600160501b031681526020018261ffff1681526020016001151581526020016001151581526020015f8054905062ffffff168152602001856001600160a01b0316815260200187878080601f0160208091040260200160405190810160405280939291908181526020018383808284375f9201829052509390945250506001600160a01b03808b1682526002602081815260409384902086518154928801519588015161ffff16600160f01b026001600160f01b036001600160501b03909716600160a01b026001600160f01b03199094169186169190911792909217949094161783556060850151600184018054608088015160a089015160c08a0151909616600160281b0265010000000000600160c81b031962ffffff90971662010000029690961662010000600160c81b03199115156101000261ff00199515159590951661ffff19909316929092179390931792909216919091179290921790915560e0840151919250820190610e1a9082613132565b50505f80546001810182559080527f290decd9548b62a8d60345a988386fc84ba6bc95484008f6362f93160ef3e5630180546001600160a01b0319166001600160a01b038a16179055506040517f7735fb05b8e8ddc6039fa70a50d11434f6ba73219f3cc820e8100b10dcaf89ed90610ea09089908990899089908990899089906131f1565b60405180910390a150505050505050565b5f610ee4610ee060017f1777adabd324f814e2b0e28f6edf876dce01d7d66358c9acfe87b1b5f38338d6613087565b5490565b905090565b604051636c8d746160e11b81523060048201527f00000000000000000000000000000000000000000000000000000000000000006001600160a01b03169063d91ae8c2906024015f604051808303815f87803b158015610f47575f80fd5b505af1158015610f59573d5f803e3d5ffd5b50505050565b336001600160a01b037f00000000000000000000000000000000000000000000000000000000000000001614610f9757610f97611d18565b5f610fc6610ee060017f1777adabd324f814e2b0e28f6edf876dce01d7d66358c9acfe87b1b5f38338d6613087565b9050610ffb610ff660017f1777adabd324f814e2b0e28f6edf876dce01d7d66358c9acfe87b1b5f38338d6613087565b839055565b6110058183611d25565b5050565b60605f80548060200260200160405190810160405280929190818152602001828054801561105e57602002820191905f5260205f20905b81546001600160a01b03168152600190910190602001808311611040575b5050505050905090565b7f00000000000000000000000000000000000000000000000000000000000000006001600160a01b0316638da5cb5b6040518163ffffffff1660e01b8152600401602060405180830381865afa1580156110c4573d5f803e3d5ffd5b505050506040513d601f19601f820116820180604052508101906110e891906130cc565b6001600160a01b0316336001600160a01b0316146111195760405163226bc1e360e11b815260040160405180910390fd5b6001600160a01b0385165f9081526002602052604090206001015460ff1661115457604051634659113f60e11b815260040160405180910390fd5b61116084848484611c95565b6001600160a01b038581165f818152600260209081526040918290206001810180548a8716600160281b810265010000000000600160c81b031990921691909117909155815461ffff8816600160f01b81026001600160f01b036001600160501b038c16600160a01b81026001600160f01b03199095169a8e169a8b17949094171617845585519687529386019190915292840194909452606083019190915260808201527fba32e46aec30b4be89696b127e3fc9923645feaf4184109ba3627ac28e4de3b59060a00160405180910390a1505050505050565b7f00000000000000000000000000000000000000000000000000000000000000006001600160a01b0316638da5cb5b6040518163ffffffff1660e01b8152600401602060405180830381865afa158015611296573d5f803e3d5ffd5b505050506040513d601f19601f820116820180604052508101906112ba91906130cc565b6001600160a01b0316336001600160a01b0316146112eb5760405163226bc1e360e11b815260040160405180910390fd5b6001600160a01b0381165f9081526002602052604090206001015460ff1661132657604051634659113f60e11b815260040160405180910390fd5b6001600160a01b0381165f81815260026020908152604091829020600101805461ff001916905590519182527ff53ee7e14e8211031e94d3dbef2a1d525daa5842da39bffef5aa54c2cb76214a910160405180910390a150565b5f8061138a611c59565b6040516303c3e0ff60e11b81523360048201527f00000000000000000000000000000000000000000000000000000000000000006001600160a01b031690630787c1fe90602401602060405180830381865afa1580156113ec573d5f803e3d5ffd5b505050506040513d601f19601f820116820180604052508101906114109190613260565b61142d5760405163010b8f3560e11b815260040160405180910390fd5b6001600160a01b038b81165f9081526002602081815260408084208151610100808201845282548089168352600160a01b81046001600160501b031695830195909552600160f01b90940461ffff1692810192909252600181015460ff808216151560608501529381049093161515608083015262010000830462ffffff1660a0830152600160281b90920490941660c0850152908101805492939260e0840191906114d890613041565b80601f016020809104026020016040519081016040528092919081815260200182805461150490613041565b801561154f5780601f106115265761010080835404028352916020019161154f565b820191905f5260205f20905b81548152906001019060200180831161153257829003601f168201915b5050505050815250509050806060015161157c57604051634659113f60e11b815260040160405180910390fd5b6115878c8c8c611d55565b6101208a01519092506001600160a01b0316606083901b176101208a0152604080516020601f8a018190048102820181019092528881526115f7918b91908b908b90819084018382808284375f81840152601f19601f820116905080830192505050505050508e848a8a8a611e80565b925050611602611c8c565b995099975050505050505050565b604080517f00000000000000000000000000000000000000000000000000000000000000005f90815260208490527f000000000000000000000000000000000000000000000000000000000000000083526055600b20919092526001600160a01b03165b92915050565b5f611683611c59565b6040516303c3e0ff60e11b81523360048201527f00000000000000000000000000000000000000000000000000000000000000006001600160a01b031690630787c1fe90602401602060405180830381865afa1580156116e5573d5f803e3d5ffd5b505050506040513d601f19601f820116820180604052508101906117099190613260565b6117265760405163010b8f3560e11b815260040160405180910390fd5b611731848484611d55565b905061173b611c8c565b9392505050565b5f546060906117518382611c7d565b92505f61175e8585613087565b9050806001600160401b0381111561177857611778612c53565b6040519080825280602002602001820160405280156117a1578160200160208202803683370190505b5092505f5b81811015611816575f6117b9828861309a565b815481106117c9576117c96130ad565b905f5260205f20015f9054906101000a90046001600160a01b03168482815181106117f6576117f66130ad565b6001600160a01b03909216602092830291909101909101526001016117a6565b50505092915050565b5f611828611c59565b6040516303c3e0ff60e11b81523360048201527f00000000000000000000000000000000000000000000000000000000000000006001600160a01b031690630787c1fe90602401602060405180830381865afa15801561188a573d5f803e3d5ffd5b505050506040513d601f19601f820116820180604052508101906118ae9190613260565b6118cb5760405163010b8f3560e11b815260040160405180910390fd5b61012087013560601c5f818152600360205260409020546001600160a01b031680611909576040516340b7f7d160e11b815260040160405180910390fd5b6001600160a01b038181165f9081526002602081815260408084208151610100808201845282548089168352600160a01b81046001600160501b031695830195909552600160f01b90940461ffff1692810192909252600181015460ff808216151560608501529381049093161515608083015262010000830462ffffff1660a0830152600160281b90920490941660c0850152908101805492939260e0840191906119b490613041565b80601f01602080910402602001604051908101604052809291908181526020018280546119e090613041565b8015611a2b5780601f10611a0257610100808354040283529160200191611a2b565b820191905f5260205f20905b815481529060010190602001808311611a0e57829003601f168201915b5050505050815250509050611a858a611a439061327f565b8a8a8080601f0160208091040260200160405190810160405280939291908181526020018383808284375f920191909152508792508691508c90508b8b611e80565b9350505050611a92611c8c565b9695505050505050565b6001600160a01b0383165f908152600160205260409020805460609190611ac38482611c7d565b93505f611ad08686613087565b9050806001600160401b03811115611aea57611aea612c53565b604051908082528060200260200182016040528015611b13578160200160208202803683370190505b5093505f5b81811015611b885783611b2b828961309a565b81548110611b3b57611b3b6130ad565b905f5260205f20015f9054906101000a90046001600160a01b0316858281518110611b6857611b686130ad565b6001600160a01b0390921660209283029190910190910152600101611b18565b505050509392505050565b60408051610200810182525f80825260208201819052918101829052606081018290526080810182905260a0810182905260c0810182905260e08101829052610100810182905261012081018290526101408101829052610160810182905261018081018290526101a081018290526101c081018290526101e0810191909152611c46611c4160017f78cf023adbf9fec5dbd8e980a6a3526d1d11c66c894ab342ade9ace71f561905613087565b612428565b806020019051810190610ee491906132bb565b63929eee145c8015611c7257637fa8a9875f526004601cfd5b50600163929eee145d565b5f81830382841002820161173b565b5f63929eee145d565b6001600160501b03821615156001600160a01b03858116159085161561ffff841615801590611cc15750815b80611cd15750828015611cd15750815b80611ce15750828015611ce15750805b80611cf157506103e88461ffff16115b15611d0f5760405163369276d760e11b815260040160405180910390fd5b50505050505050565b634ee0b8f85f526004601cfd5b815f52806020527ff33499cccaa0611882086224cc48cd82ef54b66a4d2edf4ed67108dd516896d560405fa15050565b6001600160a01b0383165f908152600260205260408120600181015460ff16611d9157604051634659113f60e11b815260040160405180910390fd5b6001810154610100900460ff16611dbb57604051630e8dc67760e01b815260040160405180910390fd5b6040516001863b0380600183893c80820133815260406020820152858060408301528088606084013791909101606001905080825ff09350505081611e075763301164255f526004601cfd5b604080516001600160a01b038085168252871660208201527fa1d2f67e073e80e6ec12790c669d64ea9a5dbe85ed539a27549f7e447c480dfe910160405180910390a1506001600160a01b038082165f9081526003602052604090208054919095166001600160a01b0319909116179093555090919050565b86516040516305800c6360e51b81526001600160a01b0391821660048201525f917f0000000000000000000000000000000000000000000000000000000000000000169063b0018c6090602401602060405180830381865afa158015611ee8573d5f803e3d5ffd5b505050506040513d601f19601f82011682018060405250810190611f0c9190613260565b15611f2a57604051634742664560e01b815260040160405180910390fd5b5f611f3a89610120015160601c90565b9050606085901c331480611f5b57506bffffffffffffffffffffffff198516155b611f785760405163861f5c0b60e01b815260040160405180910390fd5b85516001600160a01b038581169116141580611fa1575085602001516001600160501b03168314155b15611fbf576040516336a9d01160e01b815260040160405180910390fd5b6001600160a01b03841615611fea5760c0860151611fea906001600160a01b03861690339086612446565b604080517f00000000000000000000000000000000000000000000000000000000000000005f5260208790527f000000000000000000000000000000000000000000000000000000000000000082526055600b2091526001600160a01b03166040516328fd030760e01b81529092506001600160a01b038216906328fd03079061207e90339086908e908e906004016133cc565b6020604051808303815f875af115801561209a573d5f803e3d5ffd5b505050506040513d601f19601f820116820180604052508101906120be91906134d2565b6101208a015288515f906120da906001600160a01b0316612495565b90505f8a602001516120f78c5f01516001600160a01b03166124cb565b604051602001612108929190613500565b60405160208183030381529060405290505f8b604001516121348d5f01516001600160a01b03166124e0565b604051602001612145929190613500565b60405160208183030381529060405290505f604051806102000160405280336001600160a01b031681526020018e5f01516001600160a01b031681526020018b60c001516001600160a01b031681526020018b6040015161ffff1681526020018e606001516001600160801b031681526020018e6080015161ffff1681526020018e60a0015161ffff1681526020018e60c0015163ffffffff1681526020018e60e0015161ffff1681526020018e610100015163ffffffff1681526020015f801b81526020015f801b81526020015f801b81526020015f801b81526020018560ff1681526020018e61012001518152509050612240836124f5565b610160830152610140820152612255826124f5565b6101a083015261018082015261226a81612529565b6001600160a01b0386163b1561229357604051630313b28560e01b815260040160405180910390fd5b6122bd7f00000000000000000000000000000000000000000000000000000000000000008a61257e565b5060405163a79b9ec960e01b81526001600160a01b0387811660048301527f0000000000000000000000000000000000000000000000000000000000000000169063a79b9ec9906024015f604051808303815f87803b15801561231e575f80fd5b505af1158015612330573d5f803e3d5ffd5b5061236a92506123659150600190507f78cf023adbf9fec5dbd8e980a6a3526d1d11c66c894ab342ade9ace71f561905613087565b61258a565b6001600160a01b038b81165f8181526001602081815260408084208054938401815584529281902090910180546001600160a01b031916948b169485179055840151608085015160a086015160c087015160e08801516101008901516101208a01516101e08b015197517f6f8c7c94fc16393d1ebec38de9899ba8c6bd860a025aa60063b7cf4c40a16c0998612410988f988f9891979096919590949193909290613514565b60405180910390a35050505050979650505050505050565b6040515f808252819061243b8483612590565b604052509092915050565b60405181606052826040528360601b602c526323b872dd60601b600c5260205f6064601c5f895af13d1560015f5114171661248857637939f4245f526004601cfd5b5f60605260405250505050565b5f63313ce5675f5260205f6004601c855afa6101005f511060203d1416166124c457633394d1705f526004601cfd5b50505f5190565b6060611674826306fdde03632ed09f5461263b565b6060611674826395d89b41633ddcc60a61263b565b5f808251603f81111561250f576319a65cb65f526004601cfd5b50601f8301519150601f835111603f840151029050915091565b6107898160405160200161253d919061359d565b60408051601f1981840301815291905261257860017f78cf023adbf9fec5dbd8e980a6a3526d1d11c66c894ab342ade9ace71f561905613087565b906126e7565b5f61173b83835f61274d565b5f815d50565b5f6125cc565b6002810460018216806125aa57607f821691505b6020821081036125c657634e487b715f5260226020526024601cfd5b50919050565b825c6125d781612596565b8084526020909301926001821680156125f7576001811461260957611816565b60ff1983168552602085019350611816565b855f5260205f205f5b8381101561262e57815c87820152600190910190602001612612565b9095019695505050505050565b60605f835f525f806004601c885afa60203d149150605f3d1182171581151715612688578061267b573d15612672573d5f803e3d5ffd5b835f526004601cfd5b634cb9c0005f526004601cfd5b5080156126a9575f60205f803e505f516126a181612777565b9250506126df565b604051915063ffffffe060013d031680830160405260203d036020843e6020013d81146126dd57634cb9c0005f526004601cfd5b505b509392505050565b805160209182019181108015612704576001811461273a57610f59565b81600202600101845d835f5260205f205f5b838110156127335780850151825d60019190910190602001612716565b5050610f59565b816002028351818117865d505050505050565b5f6040516001853b0380600183883c84818386f5925050508061173b5763301164255f526004601cfd5b60605f806127e7847e1f0d1e100c1d070f090b19131c1706010e11080a1a141802121b150316040581196001018216911560081b6001600160801b03831160071b1782811c6001600160401b031060061b1782811c63ffffffff1060051b1791821c63d76453e004601f161a1790565b60ff0390506008600782010491505060405191506040820160405280825282602083015250919050565b81516001600160a01b0316815261026081016020830151612837602084018260ff169052565b5060408301516040830152606083015160608301526080830151608083015260a083015160a083015260c083015161287a60c08401826001600160a01b03169052565b5060e083015161289560e08401826001600160a01b03169052565b50610100838101516001600160a01b0390811691840191909152610120808501516001600160801b0316908401526101408085015161ffff9081169185019190915261016080860151821690850152610180808601518216908501526101a08086015163ffffffff908116918601919091526101c080870151909216918501919091526101e0808601519091169084015261020080850151821690840152610220808501519091169083015261024092830151929091019190915290565b6001600160a01b0381168114610789575f80fd5b803561297281612953565b919050565b5f60208284031215612987575f80fd5b813561173b81612953565b602080825282518282018190525f9190848201906040850190845b818110156129d25783516001600160a01b0316835292840192918401916001016129ad565b50909695505050505050565b5f81518084528060208401602086015e5f602082860101526020601f19601f83011685010191505092915050565b602080825282516001600160a01b0316828201528201516001600160501b031660408083019190915282015161ffff811660608301525f90506060830151801515608084015250608083015180151560a08401525060a083015162ffffff811660c08401525060c08301516001600160a01b03811660e08401525060e083015161010083810152612aa16101208401826129de565b949350505050565b5f805f60608486031215612abb575f80fd5b8335612ac681612953565b95602085013595506040909401359392505050565b5f8083601f840112612aeb575f80fd5b5081356001600160401b03811115612b01575f80fd5b602083019150836020828501011115612b18575f80fd5b9250929050565b80356001600160501b0381168114612972575f80fd5b61ffff81168114610789575f80fd5b803561297281612b35565b5f805f805f805f60c0888a031215612b65575f80fd5b8735612b7081612953565b965060208801356001600160401b03811115612b8a575f80fd5b612b968a828b01612adb565b9097509550506040880135612baa81612953565b93506060880135612bba81612953565b9250612bc860808901612b1f565b915060a0880135612bd881612b35565b8091505092959891949750929550565b5f805f805f60a08688031215612bfc575f80fd5b8535612c0781612953565b94506020860135612c1781612953565b93506040860135612c2781612953565b9250612c3560608701612b1f565b91506080860135612c4581612b35565b809150509295509295909350565b634e487b7160e01b5f52604160045260245ffd5b60405161014081016001600160401b0381118282101715612c8a57612c8a612c53565b60405290565b60405161020081016001600160401b0381118282101715612c8a57612c8a612c53565b5f82601f830112612cc2575f80fd5b81356001600160401b0380821115612cdc57612cdc612c53565b604051601f8301601f19908116603f01168101908282118183101715612d0457612d04612c53565b81604052838152866020858801011115612d1c575f80fd5b836020870160208301375f602085830101528094505050505092915050565b6001600160801b0381168114610789575f80fd5b803561297281612d3b565b63ffffffff81168114610789575f80fd5b803561297281612d5a565b5f6101408284031215612d87575f80fd5b612d8f612c67565b9050612d9a82612967565b815260208201356001600160401b0380821115612db5575f80fd5b612dc185838601612cb3565b60208401526040840135915080821115612dd9575f80fd5b50612de684828501612cb3565b604083015250612df860608301612d4f565b6060820152612e0960808301612b44565b6080820152612e1a60a08301612b44565b60a0820152612e2b60c08301612d6b565b60c0820152612e3c60e08301612b44565b60e0820152610100612e4f818401612d6b565b818301525061012080830135818301525092915050565b5f805f805f805f805f60e08a8c031215612e7e575f80fd5b8935612e8981612953565b985060208a01356001600160401b0380821115612ea4575f80fd5b612eb08d838e01612adb565b909a50985060408c0135915080821115612ec8575f80fd5b612ed48d838e01612d76565b975060608c0135915080821115612ee9575f80fd5b50612ef68c828d01612adb565b90965094505060808a0135925060a08a0135612f1181612953565b8092505060c08a013590509295985092959850929598565b5f60208284031215612f39575f80fd5b5035919050565b5f805f60408486031215612f52575f80fd5b8335612f5d81612953565b925060208401356001600160401b03811115612f77575f80fd5b612f8386828701612adb565b9497909650939450505050565b5f8060408385031215612fa1575f80fd5b50508035926020909101359150565b5f805f805f8060a08789031215612fc5575f80fd5b86356001600160401b0380821115612fdb575f80fd5b90880190610140828b031215612fef575f80fd5b90965060208801359080821115613004575f80fd5b5061301189828a01612adb565b90965094505060408701359250606087013561302c81612953565b80925050608087013590509295509295509295565b600181811c9082168061305557607f821691505b6020821081036125c657634e487b7160e01b5f52602260045260245ffd5b634e487b7160e01b5f52601160045260245ffd5b8181038181111561167457611674613073565b8082018082111561167457611674613073565b634e487b7160e01b5f52603260045260245ffd5b805161297281612953565b5f602082840312156130dc575f80fd5b815161173b81612953565b601f821115610b8957805f5260205f20601f840160051c8101602085101561310c5750805b601f840160051c820191505b8181101561312b575f8155600101613118565b5050505050565b81516001600160401b0381111561314b5761314b612c53565b61315f816131598454613041565b846130e7565b602080601f831160018114613192575f841561317b5750858301515b5f19600386901b1c1916600185901b1785556131e9565b5f85815260208120601f198616915b828110156131c0578886015182559484019460019091019084016131a1565b50858210156131dd57878501515f19600388901b60f8161c191681555b505060018460011b0185555b505050505050565b6001600160a01b03888116825260c06020830181905282018790525f90878960e08501375f60e089850181019190915296811660408401529490941660608201526001600160501b0392909216608083015261ffff1660a0820152601f909301601f1916909201019392505050565b5f60208284031215613270575f80fd5b8151801515811461173b575f80fd5b5f6116743683612d76565b805161297281612b35565b805161297281612d3b565b805161297281612d5a565b805160ff81168114612972575f80fd5b5f61020082840312156132cc575f80fd5b6132d4612c90565b6132dd836130c1565b81526132eb602084016130c1565b60208201526132fc604084016130c1565b604082015261330d6060840161328a565b606082015261331e60808401613295565b608082015261332f60a0840161328a565b60a082015261334060c0840161328a565b60c082015261335160e084016132a0565b60e082015261010061336481850161328a565b908201526101206133768482016132a0565b908201526101408381015190820152610160808401519082015261018080840151908201526101a080840151908201526101c06133b48185016132ab565b908201526101e0928301519281019290925250919050565b6001600160a01b03858116825284811660208301526080604083018190528451909116908201525f60208401516101408060a08501526134106101c08501836129de565b91506040860151607f198584030160c086015261342d83826129de565b925050606086015161344a60e08601826001600160801b03169052565b5060808601516101006134628187018361ffff169052565b60a0880151915061012061347b8188018461ffff169052565b60c089015163ffffffff9081169488019490945260e089015161ffff1661016088015290880151909216610180860152508501516101a084015282810360608401526134c781856129de565b979650505050505050565b5f602082840312156134e2575f80fd5b5051919050565b5f81518060208401855e5f93019283525090919050565b5f612aa161350e83866134e9565b846134e9565b5f6101408083526135278184018e6129de565b9050828103602084015261353b818d6129de565b6001600160a01b039b909b16604084015250506001600160801b0397909716606088015261ffff958616608088015293851660a087015263ffffffff92831660c0870152931660e0850152919091166101008301526101209091015292915050565b81516001600160a01b03168152610200810160208301516135c960208401826001600160a01b03169052565b5060408301516135e460408401826001600160a01b03169052565b5060608301516135fa606084018261ffff169052565b50608083015161361560808401826001600160801b03169052565b5060a083015161362b60a084018261ffff169052565b5060c083015161364160c084018261ffff169052565b5060e083015161365960e084018263ffffffff169052565b506101008381015161ffff16908301526101208084015163ffffffff16908301526101408084015190830152610160808401519083015261018080840151908301526101a080840151908301526101c08084015160ff16908301526101e09283015192909101919091529056fea164736f6c6343000819000a","linkReferences":{}},"methodIdentifiers":{"addHooksTemplate(address,string,address,address,uint80,uint16)":"3476b76d","archController()":"54635570","changeSphereXEngine(address)":"4c6c848f","computeMarketAddress(bytes32)":"c29a7677","deployHooksInstance(address,bytes)":"cd01e52a","deployMarket((address,string,string,uint128,uint16,uint16,uint32,uint16,uint32,uint256),bytes,bytes32,address,uint256)":"e7ca86e3","deployMarketAndHooks(address,bytes,(address,string,string,uint128,uint16,uint16,uint32,uint16,uint32,uint256),bytes,bytes32,address,uint256)":"ad78e45a","disableHooksTemplate(address)":"9f2f94b3","getHooksTemplateDetails(address)":"2812d2de","getHooksTemplateForInstance(address)":"2b07f280","getHooksTemplates()":"6e50f960","getHooksTemplates(uint256,uint256)":"cdbb8374","getHooksTemplatesCount()":"d9d58025","getMarketParameters()":"04032dbb","getMarketsForHooksTemplate(address)":"1caab59d","getMarketsForHooksTemplate(address,uint256,uint256)":"eae6ff66","getMarketsForHooksTemplateCount(address)":"d1a0745c","isHooksInstance(address)":"d19bd571","isHooksTemplate(address)":"3fd83e1e","marketInitCodeHash()":"aeefe08c","marketInitCodeStorage()":"356dd352","pushProtocolFeeBipsUpdates(address)":"155733ef","pushProtocolFeeBipsUpdates(address,uint256,uint256)":"33ee81f2","registerWithArchController()":"41f259b8","sanctionsSentinel()":"4272711d","sphereXEngine()":"3c231166","sphereXOperator()":"e7e5db4f","updateHooksTemplateFees(address,address,address,uint80,uint16)":"9c5cd31a"},"id":29}