{"abi":[{"type":"function","name":"borrow","inputs":[{"name":"normalizedAmount","type":"uint256","internalType":"uint256"}],"outputs":[],"stateMutability":"nonpayable"},{"type":"function","name":"closeMarket","inputs":[],"outputs":[],"stateMutability":"nonpayable"},{"type":"function","name":"deposit","inputs":[{"name":"scaledAmount","type":"uint256","internalType":"uint256"}],"outputs":[],"stateMutability":"nonpayable"},{"type":"function","name":"executeWithdrawal","inputs":[{"name":"lender","type":"address","internalType":"address"},{"name":"normalizedAmountWithdrawn","type":"uint128","internalType":"uint128"}],"outputs":[],"stateMutability":"nonpayable"},{"type":"function","name":"nukeFromOrbit","inputs":[{"name":"lender","type":"address","internalType":"address"}],"outputs":[],"stateMutability":"nonpayable"},{"type":"function","name":"queueWithdrawal","inputs":[{"name":"expiry","type":"uint32","internalType":"uint32"},{"name":"scaledAmount","type":"uint256","internalType":"uint256"}],"outputs":[],"stateMutability":"nonpayable"},{"type":"function","name":"repay","inputs":[{"name":"normalizedAmount","type":"uint256","internalType":"uint256"}],"outputs":[],"stateMutability":"nonpayable"},{"type":"function","name":"setAnnualInterestAndReserveRatioBips","inputs":[{"name":"annualInterestBips","type":"uint16","internalType":"uint16"},{"name":"reserveRatioBips","type":"uint16","internalType":"uint16"}],"outputs":[{"name":"newAnnualInterestBips","type":"uint16","internalType":"uint16"},{"name":"newReserveRatioBips","type":"uint16","internalType":"uint16"}],"stateMutability":"nonpayable"},{"type":"function","name":"setConfig","inputs":[{"name":"_hooks","type":"uint256","internalType":"HooksConfig"}],"outputs":[],"stateMutability":"nonpayable"},{"type":"function","name":"setMaxTotalSupply","inputs":[{"name":"maxTotalSupply","type":"uint256","internalType":"uint256"}],"outputs":[],"stateMutability":"nonpayable"},{"type":"function","name":"setProtocolFeeBips","inputs":[{"name":"protocolFeeBips","type":"uint16","internalType":"uint16"}],"outputs":[],"stateMutability":"nonpayable"},{"type":"function","name":"setState","inputs":[{"name":"_state","type":"tuple","internalType":"struct MarketState","components":[{"name":"isClosed","type":"bool","internalType":"bool"},{"name":"maxTotalSupply","type":"uint128","internalType":"uint128"},{"name":"accruedProtocolFees","type":"uint128","internalType":"uint128"},{"name":"normalizedUnclaimedWithdrawals","type":"uint128","internalType":"uint128"},{"name":"scaledTotalSupply","type":"uint104","internalType":"uint104"},{"name":"scaledPendingWithdrawals","type":"uint104","internalType":"uint104"},{"name":"pendingWithdrawalExpiry","type":"uint32","internalType":"uint32"},{"name":"isDelinquent","type":"bool","internalType":"bool"},{"name":"timeDelinquent","type":"uint32","internalType":"uint32"},{"name":"protocolFeeBips","type":"uint16","internalType":"uint16"},{"name":"annualInterestBips","type":"uint16","internalType":"uint16"},{"name":"reserveRatioBips","type":"uint16","internalType":"uint16"},{"name":"scaleFactor","type":"uint112","internalType":"uint112"},{"name":"lastInterestAccruedTimestamp","type":"uint32","internalType":"uint32"}]}],"outputs":[],"stateMutability":"nonpayable"},{"type":"function","name":"transfer","inputs":[{"name":"to","type":"address","internalType":"address"},{"name":"scaledAmount","type":"uint256","internalType":"uint256"}],"outputs":[],"stateMutability":"nonpayable"},{"type":"function","name":"transferFrom","inputs":[{"name":"from","type":"address","internalType":"address"},{"name":"to","type":"address","internalType":"address"},{"name":"scaledAmount","type":"uint256","internalType":"uint256"}],"outputs":[],"stateMutability":"nonpayable"},{"type":"event","name":"Entered","inputs":[],"anonymous":false}],"bytecode":{"object":"0x6080604052348015600e575f80fd5b506134c58061001c5f395ff3fe608060405234801561000f575f80fd5b50600436106100e8575f3560e01c8063ae6ea1911161008a578063c5ebeaec11610064578063c5ebeaec146101f2578063d474a2541461020e578063dcd549d41461022a578063e5adc63514610246576100e8565b8063ae6ea191146101b0578063b6b55f25146101cc578063c511ed5e146101e8576100e8565b80634bb728cd116100c65780634bb728cd14610140578063688152b11461015c578063893bcfbe14610178578063a9059cbb14610194576100e8565b806323b872dd146100ec578063371fd8e6146101085780633f3e4c1114610124575b5f80fd5b61010660048036038101906101019190612ef2565b610277565b005b610122600480360381019061011d9190612f42565b61054c565b005b61013e60048036038101906101399190612f42565b61081b565b005b61015a600480360381019061015591906132b3565b610ae7565b005b610176600480360381019061017191906132df565b610d77565b005b610192600480360381019061018d9190613347565b61104b565b005b6101ae60048036038101906101a99190613372565b611054565b005b6101ca60048036038101906101c591906133b0565b611328565b005b6101e660048036038101906101e19190612f42565b6115f8565b005b6101f06118c6565b005b61020c60048036038101906102079190612f42565b611bbb565b005b610228600480360381019061022391906133db565b611e87565b005b610244600480360381019061023f9190613419565b61216b565b005b610260600480360381019061025b9190613444565b612437565b60405161026e929190613491565b60405180910390f35b6105478383836001604051806101c00160405290815f82015f9054906101000a900460ff161515151581526020015f820160019054906101000a90046fffffffffffffffffffffffffffffffff166fffffffffffffffffffffffffffffffff166fffffffffffffffffffffffffffffffff168152602001600182015f9054906101000a90046fffffffffffffffffffffffffffffffff166fffffffffffffffffffffffffffffffff166fffffffffffffffffffffffffffffffff1681526020016001820160109054906101000a90046fffffffffffffffffffffffffffffffff166fffffffffffffffffffffffffffffffff166fffffffffffffffffffffffffffffffff168152602001600282015f9054906101000a90046cffffffffffffffffffffffffff166cffffffffffffffffffffffffff166cffffffffffffffffffffffffff16815260200160028201600d9054906101000a90046cffffffffffffffffffffffffff166cffffffffffffffffffffffffff166cffffffffffffffffffffffffff16815260200160028201601a9054906101000a900463ffffffff1663ffffffff1663ffffffff16815260200160028201601e9054906101000a900460ff16151515158152602001600382015f9054906101000a900463ffffffff1663ffffffff1663ffffffff1681526020016003820160049054906101000a900461ffff1661ffff1661ffff1681526020016003820160069054906101000a900461ffff1661ffff1661ffff1681526020016003820160089054906101000a900461ffff1661ffff1661ffff16815260200160038201600a9054906101000a90046dffffffffffffffffffffffffffff166dffffffffffffffffffffffffffff166dffffffffffffffffffffffffffff1681526020016003820160189054906101000a900463ffffffff1663ffffffff1663ffffffff168152505060645f5461270f9095949392919063ffffffff16565b505050565b610818816001604051806101c00160405290815f82015f9054906101000a900460ff161515151581526020015f820160019054906101000a90046fffffffffffffffffffffffffffffffff166fffffffffffffffffffffffffffffffff166fffffffffffffffffffffffffffffffff168152602001600182015f9054906101000a90046fffffffffffffffffffffffffffffffff166fffffffffffffffffffffffffffffffff166fffffffffffffffffffffffffffffffff1681526020016001820160109054906101000a90046fffffffffffffffffffffffffffffffff166fffffffffffffffffffffffffffffffff166fffffffffffffffffffffffffffffffff168152602001600282015f9054906101000a90046cffffffffffffffffffffffffff166cffffffffffffffffffffffffff166cffffffffffffffffffffffffff16815260200160028201600d9054906101000a90046cffffffffffffffffffffffffff166cffffffffffffffffffffffffff166cffffffffffffffffffffffffff16815260200160028201601a9054906101000a900463ffffffff1663ffffffff1663ffffffff16815260200160028201601e9054906101000a900460ff16151515158152602001600382015f9054906101000a900463ffffffff1663ffffffff1663ffffffff1681526020016003820160049054906101000a900461ffff1661ffff1661ffff1681526020016003820160069054906101000a900461ffff1661ffff1661ffff1681526020016003820160089054906101000a900461ffff1661ffff1661ffff16815260200160038201600a9054906101000a90046dffffffffffffffffffffffffffff166dffffffffffffffffffffffffffff166dffffffffffffffffffffffffffff1681526020016003820160189054906101000a900463ffffffff1663ffffffff1663ffffffff168152505060245f546127a5909392919063ffffffff16565b50565b610ae4816001604051806101c00160405290815f82015f9054906101000a900460ff161515151581526020015f820160019054906101000a90046fffffffffffffffffffffffffffffffff166fffffffffffffffffffffffffffffffff166fffffffffffffffffffffffffffffffff168152602001600182015f9054906101000a90046fffffffffffffffffffffffffffffffff166fffffffffffffffffffffffffffffffff166fffffffffffffffffffffffffffffffff1681526020016001820160109054906101000a90046fffffffffffffffffffffffffffffffff166fffffffffffffffffffffffffffffffff166fffffffffffffffffffffffffffffffff168152602001600282015f9054906101000a90046cffffffffffffffffffffffffff166cffffffffffffffffffffffffff166cffffffffffffffffffffffffff16815260200160028201600d9054906101000a90046cffffffffffffffffffffffffff166cffffffffffffffffffffffffff166cffffffffffffffffffffffffff16815260200160028201601a9054906101000a900463ffffffff1663ffffffff1663ffffffff16815260200160028201601e9054906101000a900460ff16151515158152602001600382015f9054906101000a900463ffffffff1663ffffffff1663ffffffff1681526020016003820160049054906101000a900461ffff1661ffff1661ffff1681526020016003820160069054906101000a900461ffff1661ffff1661ffff1681526020016003820160089054906101000a900461ffff1661ffff1661ffff16815260200160038201600a9054906101000a90046dffffffffffffffffffffffffffff166dffffffffffffffffffffffffffff166dffffffffffffffffffffffffffff1681526020016003820160189054906101000a900463ffffffff1663ffffffff1663ffffffff16815250505f546128279092919063ffffffff16565b50565b8060015f820151815f015f6101000a81548160ff0219169083151502179055506020820151815f0160016101000a8154816fffffffffffffffffffffffffffffffff02191690836fffffffffffffffffffffffffffffffff1602179055506040820151816001015f6101000a8154816fffffffffffffffffffffffffffffffff02191690836fffffffffffffffffffffffffffffffff16021790555060608201518160010160106101000a8154816fffffffffffffffffffffffffffffffff02191690836fffffffffffffffffffffffffffffffff1602179055506080820151816002015f6101000a8154816cffffffffffffffffffffffffff02191690836cffffffffffffffffffffffffff16021790555060a082015181600201600d6101000a8154816cffffffffffffffffffffffffff02191690836cffffffffffffffffffffffffff16021790555060c082015181600201601a6101000a81548163ffffffff021916908363ffffffff16021790555060e082015181600201601e6101000a81548160ff021916908315150217905550610100820151816003015f6101000a81548163ffffffff021916908363ffffffff1602179055506101208201518160030160046101000a81548161ffff021916908361ffff1602179055506101408201518160030160066101000a81548161ffff021916908361ffff1602179055506101608201518160030160086101000a81548161ffff021916908361ffff16021790555061018082015181600301600a6101000a8154816dffffffffffffffffffffffffffff02191690836dffffffffffffffffffffffffffff1602179055506101a08201518160030160186101000a81548163ffffffff021916908363ffffffff16021790555090505050565b6110473383836001604051806101c00160405290815f82015f9054906101000a900460ff161515151581526020015f820160019054906101000a90046fffffffffffffffffffffffffffffffff166fffffffffffffffffffffffffffffffff166fffffffffffffffffffffffffffffffff168152602001600182015f9054906101000a90046fffffffffffffffffffffffffffffffff166fffffffffffffffffffffffffffffffff166fffffffffffffffffffffffffffffffff1681526020016001820160109054906101000a90046fffffffffffffffffffffffffffffffff166fffffffffffffffffffffffffffffffff166fffffffffffffffffffffffffffffffff168152602001600282015f9054906101000a90046cffffffffffffffffffffffffff166cffffffffffffffffffffffffff166cffffffffffffffffffffffffff16815260200160028201600d9054906101000a90046cffffffffffffffffffffffffff166cffffffffffffffffffffffffff166cffffffffffffffffffffffffff16815260200160028201601a9054906101000a900463ffffffff1663ffffffff1663ffffffff16815260200160028201601e9054906101000a900460ff16151515158152602001600382015f9054906101000a900463ffffffff1663ffffffff1663ffffffff1681526020016003820160049054906101000a900461ffff1661ffff1661ffff1681526020016003820160069054906101000a900461ffff1661ffff1661ffff1681526020016003820160089054906101000a900461ffff1661ffff1661ffff16815260200160038201600a9054906101000a90046dffffffffffffffffffffffffffff166dffffffffffffffffffffffffffff166dffffffffffffffffffffffffffff1681526020016003820160189054906101000a900463ffffffff1663ffffffff1663ffffffff168152505060445f546128aa9095949392919063ffffffff16565b5050565b805f8190555050565b6113243383836001604051806101c00160405290815f82015f9054906101000a900460ff161515151581526020015f820160019054906101000a90046fffffffffffffffffffffffffffffffff166fffffffffffffffffffffffffffffffff166fffffffffffffffffffffffffffffffff168152602001600182015f9054906101000a90046fffffffffffffffffffffffffffffffff166fffffffffffffffffffffffffffffffff166fffffffffffffffffffffffffffffffff1681526020016001820160109054906101000a90046fffffffffffffffffffffffffffffffff166fffffffffffffffffffffffffffffffff166fffffffffffffffffffffffffffffffff168152602001600282015f9054906101000a90046cffffffffffffffffffffffffff166cffffffffffffffffffffffffff166cffffffffffffffffffffffffff16815260200160028201600d9054906101000a90046cffffffffffffffffffffffffff166cffffffffffffffffffffffffff166cffffffffffffffffffffffffff16815260200160028201601a9054906101000a900463ffffffff1663ffffffff1663ffffffff16815260200160028201601e9054906101000a900460ff16151515158152602001600382015f9054906101000a900463ffffffff1663ffffffff1663ffffffff1681526020016003820160049054906101000a900461ffff1661ffff1661ffff1681526020016003820160069054906101000a900461ffff1661ffff1661ffff1681526020016003820160089054906101000a900461ffff1661ffff1661ffff16815260200160038201600a9054906101000a90046dffffffffffffffffffffffffffff166dffffffffffffffffffffffffffff166dffffffffffffffffffffffffffff1681526020016003820160189054906101000a900463ffffffff1663ffffffff1663ffffffff168152505060445f5461270f9095949392919063ffffffff16565b5050565b6115f58161ffff166001604051806101c00160405290815f82015f9054906101000a900460ff161515151581526020015f820160019054906101000a90046fffffffffffffffffffffffffffffffff166fffffffffffffffffffffffffffffffff166fffffffffffffffffffffffffffffffff168152602001600182015f9054906101000a90046fffffffffffffffffffffffffffffffff166fffffffffffffffffffffffffffffffff166fffffffffffffffffffffffffffffffff1681526020016001820160109054906101000a90046fffffffffffffffffffffffffffffffff166fffffffffffffffffffffffffffffffff166fffffffffffffffffffffffffffffffff168152602001600282015f9054906101000a90046cffffffffffffffffffffffffff166cffffffffffffffffffffffffff166cffffffffffffffffffffffffff16815260200160028201600d9054906101000a90046cffffffffffffffffffffffffff166cffffffffffffffffffffffffff166cffffffffffffffffffffffffff16815260200160028201601a9054906101000a900463ffffffff1663ffffffff1663ffffffff16815260200160028201601e9054906101000a900460ff16151515158152602001600382015f9054906101000a900463ffffffff1663ffffffff1663ffffffff1681526020016003820160049054906101000a900461ffff1661ffff1661ffff1681526020016003820160069054906101000a900461ffff1661ffff1661ffff1681526020016003820160089054906101000a900461ffff1661ffff1661ffff16815260200160038201600a9054906101000a90046dffffffffffffffffffffffffffff166dffffffffffffffffffffffffffff166dffffffffffffffffffffffffffff1681526020016003820160189054906101000a900463ffffffff1663ffffffff1663ffffffff16815250505f5461293a9092919063ffffffff16565b50565b6118c333826001604051806101c00160405290815f82015f9054906101000a900460ff161515151581526020015f820160019054906101000a90046fffffffffffffffffffffffffffffffff166fffffffffffffffffffffffffffffffff166fffffffffffffffffffffffffffffffff168152602001600182015f9054906101000a90046fffffffffffffffffffffffffffffffff166fffffffffffffffffffffffffffffffff166fffffffffffffffffffffffffffffffff1681526020016001820160109054906101000a90046fffffffffffffffffffffffffffffffff166fffffffffffffffffffffffffffffffff166fffffffffffffffffffffffffffffffff168152602001600282015f9054906101000a90046cffffffffffffffffffffffffff166cffffffffffffffffffffffffff166cffffffffffffffffffffffffff16815260200160028201600d9054906101000a90046cffffffffffffffffffffffffff166cffffffffffffffffffffffffff166cffffffffffffffffffffffffff16815260200160028201601a9054906101000a900463ffffffff1663ffffffff1663ffffffff16815260200160028201601e9054906101000a900460ff16151515158152602001600382015f9054906101000a900463ffffffff1663ffffffff1663ffffffff1681526020016003820160049054906101000a900461ffff1661ffff1661ffff1681526020016003820160069054906101000a900461ffff1661ffff1661ffff1681526020016003820160089054906101000a900461ffff1661ffff1661ffff16815260200160038201600a9054906101000a90046dffffffffffffffffffffffffffff166dffffffffffffffffffffffffffff166dffffffffffffffffffffffffffff1681526020016003820160189054906101000a900463ffffffff1663ffffffff1663ffffffff16815250505f546129bd909392919063ffffffff16565b50565b7fe65736102981c7fa63ab802bf8d8f373e8778d191151e97794748b417eb3436260405160405180910390a1611bb96001604051806101c00160405290815f82015f9054906101000a900460ff161515151581526020015f820160019054906101000a90046fffffffffffffffffffffffffffffffff166fffffffffffffffffffffffffffffffff166fffffffffffffffffffffffffffffffff168152602001600182015f9054906101000a90046fffffffffffffffffffffffffffffffff166fffffffffffffffffffffffffffffffff166fffffffffffffffffffffffffffffffff1681526020016001820160109054906101000a90046fffffffffffffffffffffffffffffffff166fffffffffffffffffffffffffffffffff166fffffffffffffffffffffffffffffffff168152602001600282015f9054906101000a90046cffffffffffffffffffffffffff166cffffffffffffffffffffffffff166cffffffffffffffffffffffffff16815260200160028201600d9054906101000a90046cffffffffffffffffffffffffff166cffffffffffffffffffffffffff166cffffffffffffffffffffffffff16815260200160028201601a9054906101000a900463ffffffff1663ffffffff1663ffffffff16815260200160028201601e9054906101000a900460ff16151515158152602001600382015f9054906101000a900463ffffffff1663ffffffff1663ffffffff1681526020016003820160049054906101000a900461ffff1661ffff1661ffff1681526020016003820160069054906101000a900461ffff1661ffff1661ffff1681526020016003820160089054906101000a900461ffff1661ffff1661ffff16815260200160038201600a9054906101000a90046dffffffffffffffffffffffffffff166dffffffffffffffffffffffffffff166dffffffffffffffffffffffffffff1681526020016003820160189054906101000a900463ffffffff1663ffffffff1663ffffffff16815250505f54612a4790919063ffffffff16565b565b611e84816001604051806101c00160405290815f82015f9054906101000a900460ff161515151581526020015f820160019054906101000a90046fffffffffffffffffffffffffffffffff166fffffffffffffffffffffffffffffffff166fffffffffffffffffffffffffffffffff168152602001600182015f9054906101000a90046fffffffffffffffffffffffffffffffff166fffffffffffffffffffffffffffffffff166fffffffffffffffffffffffffffffffff1681526020016001820160109054906101000a90046fffffffffffffffffffffffffffffffff166fffffffffffffffffffffffffffffffff166fffffffffffffffffffffffffffffffff168152602001600282015f9054906101000a90046cffffffffffffffffffffffffff166cffffffffffffffffffffffffff166cffffffffffffffffffffffffff16815260200160028201600d9054906101000a90046cffffffffffffffffffffffffff166cffffffffffffffffffffffffff166cffffffffffffffffffffffffff16815260200160028201601a9054906101000a900463ffffffff1663ffffffff1663ffffffff16815260200160028201601e9054906101000a900460ff16151515158152602001600382015f9054906101000a900463ffffffff1663ffffffff1663ffffffff1681526020016003820160049054906101000a900461ffff1661ffff1661ffff1681526020016003820160069054906101000a900461ffff1661ffff1661ffff1681526020016003820160089054906101000a900461ffff1661ffff1661ffff16815260200160038201600a9054906101000a90046dffffffffffffffffffffffffffff166dffffffffffffffffffffffffffff166dffffffffffffffffffffffffffff1681526020016003820160189054906101000a900463ffffffff1663ffffffff1663ffffffff16815250505f54612ac39092919063ffffffff16565b50565b61216782826fffffffffffffffffffffffffffffffff166001604051806101c00160405290815f82015f9054906101000a900460ff161515151581526020015f820160019054906101000a90046fffffffffffffffffffffffffffffffff166fffffffffffffffffffffffffffffffff166fffffffffffffffffffffffffffffffff168152602001600182015f9054906101000a90046fffffffffffffffffffffffffffffffff166fffffffffffffffffffffffffffffffff166fffffffffffffffffffffffffffffffff1681526020016001820160109054906101000a90046fffffffffffffffffffffffffffffffff166fffffffffffffffffffffffffffffffff166fffffffffffffffffffffffffffffffff168152602001600282015f9054906101000a90046cffffffffffffffffffffffffff166cffffffffffffffffffffffffff166cffffffffffffffffffffffffff16815260200160028201600d9054906101000a90046cffffffffffffffffffffffffff166cffffffffffffffffffffffffff166cffffffffffffffffffffffffff16815260200160028201601a9054906101000a900463ffffffff1663ffffffff1663ffffffff16815260200160028201601e9054906101000a900460ff16151515158152602001600382015f9054906101000a900463ffffffff1663ffffffff1663ffffffff1681526020016003820160049054906101000a900461ffff1661ffff1661ffff1681526020016003820160069054906101000a900461ffff1661ffff1661ffff1681526020016003820160089054906101000a900461ffff1661ffff1661ffff16815260200160038201600a9054906101000a90046dffffffffffffffffffffffffffff166dffffffffffffffffffffffffffff166dffffffffffffffffffffffffffff1681526020016003820160189054906101000a900463ffffffff1663ffffffff1663ffffffff168152505060445f54612b4690949392919063ffffffff16565b5050565b612434816001604051806101c00160405290815f82015f9054906101000a900460ff161515151581526020015f820160019054906101000a90046fffffffffffffffffffffffffffffffff166fffffffffffffffffffffffffffffffff166fffffffffffffffffffffffffffffffff168152602001600182015f9054906101000a90046fffffffffffffffffffffffffffffffff166fffffffffffffffffffffffffffffffff166fffffffffffffffffffffffffffffffff1681526020016001820160109054906101000a90046fffffffffffffffffffffffffffffffff166fffffffffffffffffffffffffffffffff166fffffffffffffffffffffffffffffffff168152602001600282015f9054906101000a90046cffffffffffffffffffffffffff166cffffffffffffffffffffffffff166cffffffffffffffffffffffffff16815260200160028201600d9054906101000a90046cffffffffffffffffffffffffff166cffffffffffffffffffffffffff166cffffffffffffffffffffffffff16815260200160028201601a9054906101000a900463ffffffff1663ffffffff1663ffffffff16815260200160028201601e9054906101000a900460ff16151515158152602001600382015f9054906101000a900463ffffffff1663ffffffff1663ffffffff1681526020016003820160049054906101000a900461ffff1661ffff1661ffff1681526020016003820160069054906101000a900461ffff1661ffff1661ffff1681526020016003820160089054906101000a900461ffff1661ffff1661ffff16815260200160038201600a9054906101000a90046dffffffffffffffffffffffffffff166dffffffffffffffffffffffffffff166dffffffffffffffffffffffffffff1681526020016003820160189054906101000a900463ffffffff1663ffffffff1663ffffffff16815250505f54612bcf9092919063ffffffff16565b50565b5f8061270484846001604051806101c00160405290815f82015f9054906101000a900460ff161515151581526020015f820160019054906101000a90046fffffffffffffffffffffffffffffffff166fffffffffffffffffffffffffffffffff166fffffffffffffffffffffffffffffffff168152602001600182015f9054906101000a90046fffffffffffffffffffffffffffffffff166fffffffffffffffffffffffffffffffff166fffffffffffffffffffffffffffffffff1681526020016001820160109054906101000a90046fffffffffffffffffffffffffffffffff166fffffffffffffffffffffffffffffffff166fffffffffffffffffffffffffffffffff168152602001600282015f9054906101000a90046cffffffffffffffffffffffffff166cffffffffffffffffffffffffff166cffffffffffffffffffffffffff16815260200160028201600d9054906101000a90046cffffffffffffffffffffffffff166cffffffffffffffffffffffffff166cffffffffffffffffffffffffff16815260200160028201601a9054906101000a900463ffffffff1663ffffffff1663ffffffff16815260200160028201601e9054906101000a900460ff16151515158152602001600382015f9054906101000a900463ffffffff1663ffffffff1663ffffffff1681526020016003820160049054906101000a900461ffff1661ffff1661ffff1681526020016003820160069054906101000a900461ffff1661ffff1661ffff1681526020016003820160089054906101000a900461ffff1661ffff1661ffff16815260200160038201600a9054906101000a90046dffffffffffffffffffffffffffff166dffffffffffffffffffffffffffff166dffffffffffffffffffffffffffff1681526020016003820160189054906101000a900463ffffffff1663ffffffff1663ffffffff16815250505f54612c52909392919063ffffffff16565b915091509250929050565b5f61271987612d09565b90505f63a018f90e60e01b60e01c905061273288612d15565b1561279b57823603604051602081018382523381528960208201528860408201528760608201526101c087608083015e61026061024082015282610260820152828661028083013782610284015f8082601c86015f8a5af1612796573d5f803e3d5ffd5b505050505b5050505050505050565b5f6127af85612d09565b90505f6383d9e1eb60e01b60e01c90506127c886612d31565b1561281f57823603604051602081018382528781526101c087602083015e6102006101e082015282610200820152828661022083013782610224015f8082601c86015f8a5af161281a573d5f803e3d5ffd5b505050505b505050505050565b5f61283184612d09565b90505f63849da12960e01b60e01c905061284a85612d4d565b156128a35760243603604051602081018382528681526101c086602083015e6102006101e08201528261020082015282602461022083013782610224015f8082601c86015f8a5af161289e573d5f803e3d5ffd5b505050505b5050505050565b5f6128b487612d09565b90505f633521cccc60e01b60e01c90506128cd88612d69565b1561293057823603604051602081018382528981528860208201528760408201526101c087606083015e61024061022082015282610240820152828661026083013782610264015f8082601c86015f8a5af161292b573d5f803e3d5ffd5b505050505b5050505050505050565b5f61294484612d09565b90505f6303473d8d60e01b60e01c905061295d85612d85565b156129b65760243603604051602081018382528681526101c086602083015e6102006101e08201528261020082015282602461022083013782610224015f8082601c86015f8a5af16129b1573d5f803e3d5ffd5b505050505b5050505050565b5f6129c785612d09565b90505f635aeb713f60e01b60e01c90506129e086612da1565b15612a3f5760243603604051602081018382528781528660208201526101c086604083015e6102206102008201528261022082015282602461024083013782610244015f8082601c86015f8a5af1612a3a573d5f803e3d5ffd5b505050505b505050505050565b5f612a5183612d09565b90505f639ecc64e660e01b60e01c9050612a6a84612dbd565b15612abd5760043603604051602081018382526101c086825e6101e06101c0820152826101e082015282600461020083013782610204015f8082601c86015f8a5af1612ab8573d5f803e3d5ffd5b505050505b50505050565b5f612acd84612d09565b90505f63b1cfda0d60e01b60e01c9050612ae685612dd9565b15612b3f5760243603604051602081018382528681526101c086602083015e6102006101e08201528261020082015282602461022083013782610224015f8082601c86015f8a5af1612b3a573d5f803e3d5ffd5b505050505b5050505050565b5f612b5086612d09565b90505f632970403d60e01b60e01c9050612b6987612df5565b15612bc657823603604051602081018382528881528760208201526101c087604083015e61022061020082015282610220820152828661024083013782610244015f8082601c86015f8a5af1612bc1573d5f803e3d5ffd5b505050505b50505050505050565b5f612bd984612d09565b90505f638b3ce9b360e01b60e01c9050612bf285612e11565b15612c4b5760243603604051602081018382528681526101c086602083015e6102006101e08201528261020082015282602461022083013782610224015f8082601c86015f8a5af1612c46573d5f803e3d5ffd5b505050505b5050505050565b5f805f612c5e87612d09565b90505f63cc45264260e01b60e01c9050612c7788612e2d565b15612cf35760443603604051602081018382528981528860208201526101c088604083015e61022061020082015282610220820152826044610240830137826102440160405f82601c86015f8a5af11560403d101715612cd9573d5f803e3d5ffd5b61ffff5f5116975061ffff60205116965050505050612cfe565b868680945081955050505b505094509492505050565b5f8160601c9050919050565b5f612d2a605c83612e4990919063ffffffff16565b9050919050565b5f612d46605a83612e4990919063ffffffff16565b9050919050565b5f612d62605783612e4990919063ffffffff16565b9050919050565b5f612d7e605e83612e4990919063ffffffff16565b9050919050565b5f612d9a605583612e4990919063ffffffff16565b9050919050565b5f612db6605f83612e4990919063ffffffff16565b9050919050565b5f612dd2605983612e4990919063ffffffff16565b9050919050565b5f612dee605b83612e4990919063ffffffff16565b9050919050565b5f612e0a605d83612e4990919063ffffffff16565b9050919050565b5f612e26605883612e4990919063ffffffff16565b9050919050565b5f612e42605683612e4990919063ffffffff16565b9050919050565b5f600183831c16905092915050565b5f604051905090565b5f80fd5b5f73ffffffffffffffffffffffffffffffffffffffff82169050919050565b5f612e8e82612e65565b9050919050565b612e9e81612e84565b8114612ea8575f80fd5b50565b5f81359050612eb981612e95565b92915050565b5f819050919050565b612ed181612ebf565b8114612edb575f80fd5b50565b5f81359050612eec81612ec8565b92915050565b5f805f60608486031215612f0957612f08612e61565b5b5f612f1686828701612eab565b9350506020612f2786828701612eab565b9250506040612f3886828701612ede565b9150509250925092565b5f60208284031215612f5757612f56612e61565b5b5f612f6484828501612ede565b91505092915050565b5f80fd5b5f601f19601f8301169050919050565b7f4e487b71000000000000000000000000000000000000000000000000000000005f52604160045260245ffd5b612fb782612f71565b810181811067ffffffffffffffff82111715612fd657612fd5612f81565b5b80604052505050565b5f612fe8612e58565b9050612ff48282612fae565b919050565b5f8115159050919050565b61300d81612ff9565b8114613017575f80fd5b50565b5f8135905061302881613004565b92915050565b5f6fffffffffffffffffffffffffffffffff82169050919050565b6130528161302e565b811461305c575f80fd5b50565b5f8135905061306d81613049565b92915050565b5f6cffffffffffffffffffffffffff82169050919050565b61309481613073565b811461309e575f80fd5b50565b5f813590506130af8161308b565b92915050565b5f63ffffffff82169050919050565b6130cd816130b5565b81146130d7575f80fd5b50565b5f813590506130e8816130c4565b92915050565b5f61ffff82169050919050565b613104816130ee565b811461310e575f80fd5b50565b5f8135905061311f816130fb565b92915050565b5f6dffffffffffffffffffffffffffff82169050919050565b61314781613125565b8114613151575f80fd5b50565b5f813590506131628161313e565b92915050565b5f6101c0828403121561317e5761317d612f6d565b5b6131896101c0612fdf565b90505f6131988482850161301a565b5f8301525060206131ab8482850161305f565b60208301525060406131bf8482850161305f565b60408301525060606131d38482850161305f565b60608301525060806131e7848285016130a1565b60808301525060a06131fb848285016130a1565b60a08301525060c061320f848285016130da565b60c08301525060e06132238482850161301a565b60e083015250610100613238848285016130da565b6101008301525061012061324e84828501613111565b6101208301525061014061326484828501613111565b6101408301525061016061327a84828501613111565b6101608301525061018061329084828501613154565b610180830152506101a06132a6848285016130da565b6101a08301525092915050565b5f6101c082840312156132c9576132c8612e61565b5b5f6132d684828501613168565b91505092915050565b5f80604083850312156132f5576132f4612e61565b5b5f613302858286016130da565b925050602061331385828601612ede565b9150509250929050565b61332681612ebf565b8114613330575f80fd5b50565b5f813590506133418161331d565b92915050565b5f6020828403121561335c5761335b612e61565b5b5f61336984828501613333565b91505092915050565b5f806040838503121561338857613387612e61565b5b5f61339585828601612eab565b92505060206133a685828601612ede565b9150509250929050565b5f602082840312156133c5576133c4612e61565b5b5f6133d284828501613111565b91505092915050565b5f80604083850312156133f1576133f0612e61565b5b5f6133fe85828601612eab565b925050602061340f8582860161305f565b9150509250929050565b5f6020828403121561342e5761342d612e61565b5b5f61343b84828501612eab565b91505092915050565b5f806040838503121561345a57613459612e61565b5b5f61346785828601613111565b925050602061347885828601613111565b9150509250929050565b61348b816130ee565b82525050565b5f6040820190506134a45f830185613482565b6134b16020830184613482565b939250505056fea164736f6c6343000819000a","linkReferences":{}},"methodIdentifiers":{"borrow(uint256)":"c5ebeaec","closeMarket()":"c511ed5e","deposit(uint256)":"b6b55f25","executeWithdrawal(address,uint128)":"d474a254","nukeFromOrbit(address)":"dcd549d4","queueWithdrawal(uint32,uint256)":"688152b1","repay(uint256)":"371fd8e6","setAnnualInterestAndReserveRatioBips(uint16,uint16)":"e5adc635","setConfig(uint256)":"893bcfbe","setMaxTotalSupply(uint256)":"3f3e4c11","setProtocolFeeBips(uint16)":"ae6ea191","setState((bool,uint128,uint128,uint128,uint104,uint104,uint32,bool,uint32,uint16,uint16,uint16,uint112,uint32))":"4bb728cd","transfer(address,uint256)":"a9059cbb","transferFrom(address,address,uint256)":"23b872dd"},"id":151}