{"abi":[{"type":"constructor","inputs":[{"name":"_deployer","type":"address","internalType":"address"},{"name":"","type":"bytes","internalType":"bytes"}],"stateMutability":"nonpayable"},{"type":"function","name":"MaximumLoanTerm","inputs":[],"outputs":[{"name":"","type":"uint32","internalType":"uint32"}],"stateMutability":"view"},{"type":"function","name":"addRoleProvider","inputs":[{"name":"providerAddress","type":"address","internalType":"address"},{"name":"timeToLive","type":"uint32","internalType":"uint32"}],"outputs":[],"stateMutability":"nonpayable"},{"type":"function","name":"blockFromDeposits","inputs":[{"name":"account","type":"address","internalType":"address"}],"outputs":[],"stateMutability":"nonpayable"},{"type":"function","name":"borrower","inputs":[],"outputs":[{"name":"","type":"address","internalType":"address"}],"stateMutability":"view"},{"type":"function","name":"config","inputs":[],"outputs":[{"name":"","type":"uint256","internalType":"HooksDeploymentConfig"}],"stateMutability":"view"},{"type":"function","name":"factory","inputs":[],"outputs":[{"name":"","type":"address","internalType":"address"}],"stateMutability":"view"},{"type":"function","name":"getHookedMarket","inputs":[{"name":"marketAddress","type":"address","internalType":"address"}],"outputs":[{"name":"","type":"tuple","internalType":"struct HookedMarket","components":[{"name":"isHooked","type":"bool","internalType":"bool"},{"name":"transferRequiresAccess","type":"bool","internalType":"bool"},{"name":"depositRequiresAccess","type":"bool","internalType":"bool"},{"name":"withdrawalRequiresAccess","type":"bool","internalType":"bool"},{"name":"minimumDeposit","type":"uint128","internalType":"uint128"},{"name":"fixedTermEndTime","type":"uint32","internalType":"uint32"}]}],"stateMutability":"view"},{"type":"function","name":"getLenderStatus","inputs":[{"name":"accountAddress","type":"address","internalType":"address"}],"outputs":[{"name":"status","type":"tuple","internalType":"struct LenderStatus","components":[{"name":"isBlockedFromDeposits","type":"bool","internalType":"bool"},{"name":"lastProvider","type":"address","internalType":"address"},{"name":"canRefresh","type":"bool","internalType":"bool"},{"name":"lastApprovalTimestamp","type":"uint32","internalType":"uint32"}]}],"stateMutability":"view"},{"type":"function","name":"getParameterConstraints","inputs":[],"outputs":[{"name":"constraints","type":"tuple","internalType":"struct MarketParameterConstraints","components":[{"name":"minimumDelinquencyGracePeriod","type":"uint32","internalType":"uint32"},{"name":"maximumDelinquencyGracePeriod","type":"uint32","internalType":"uint32"},{"name":"minimumReserveRatioBips","type":"uint16","internalType":"uint16"},{"name":"maximumReserveRatioBips","type":"uint16","internalType":"uint16"},{"name":"minimumDelinquencyFeeBips","type":"uint16","internalType":"uint16"},{"name":"maximumDelinquencyFeeBips","type":"uint16","internalType":"uint16"},{"name":"minimumWithdrawalBatchDuration","type":"uint32","internalType":"uint32"},{"name":"maximumWithdrawalBatchDuration","type":"uint32","internalType":"uint32"},{"name":"minimumAnnualInterestBips","type":"uint16","internalType":"uint16"},{"name":"maximumAnnualInterestBips","type":"uint16","internalType":"uint16"}]}],"stateMutability":"pure"},{"type":"function","name":"getPreviousLenderStatus","inputs":[{"name":"accountAddress","type":"address","internalType":"address"}],"outputs":[{"name":"status","type":"tuple","internalType":"struct LenderStatus","components":[{"name":"isBlockedFromDeposits","type":"bool","internalType":"bool"},{"name":"lastProvider","type":"address","internalType":"address"},{"name":"canRefresh","type":"bool","internalType":"bool"},{"name":"lastApprovalTimestamp","type":"uint32","internalType":"uint32"}]}],"stateMutability":"view"},{"type":"function","name":"getPullProviders","inputs":[],"outputs":[{"name":"","type":"uint256[]","internalType":"RoleProvider[]"}],"stateMutability":"view"},{"type":"function","name":"getRoleProvider","inputs":[{"name":"providerAddress","type":"address","internalType":"address"}],"outputs":[{"name":"","type":"uint256","internalType":"RoleProvider"}],"stateMutability":"view"},{"type":"function","name":"grantRole","inputs":[{"name":"account","type":"address","internalType":"address"},{"name":"roleGrantedTimestamp","type":"uint32","internalType":"uint32"}],"outputs":[],"stateMutability":"nonpayable"},{"type":"function","name":"grantRoles","inputs":[{"name":"accounts","type":"address[]","internalType":"address[]"},{"name":"roleGrantedTimestamps","type":"uint32[]","internalType":"uint32[]"}],"outputs":[],"stateMutability":"nonpayable"},{"type":"function","name":"isKnownLenderOnMarket","inputs":[{"name":"lender","type":"address","internalType":"address"},{"name":"market","type":"address","internalType":"address"}],"outputs":[{"name":"","type":"bool","internalType":"bool"}],"stateMutability":"view"},{"type":"function","name":"onBorrow","inputs":[{"name":"","type":"uint256","internalType":"uint256"},{"name":"","type":"tuple","internalType":"struct MarketState","components":[{"name":"isClosed","type":"bool","internalType":"bool"},{"name":"maxTotalSupply","type":"uint128","internalType":"uint128"},{"name":"accruedProtocolFees","type":"uint128","internalType":"uint128"},{"name":"normalizedUnclaimedWithdrawals","type":"uint128","internalType":"uint128"},{"name":"scaledTotalSupply","type":"uint104","internalType":"uint104"},{"name":"scaledPendingWithdrawals","type":"uint104","internalType":"uint104"},{"name":"pendingWithdrawalExpiry","type":"uint32","internalType":"uint32"},{"name":"isDelinquent","type":"bool","internalType":"bool"},{"name":"timeDelinquent","type":"uint32","internalType":"uint32"},{"name":"protocolFeeBips","type":"uint16","internalType":"uint16"},{"name":"annualInterestBips","type":"uint16","internalType":"uint16"},{"name":"reserveRatioBips","type":"uint16","internalType":"uint16"},{"name":"scaleFactor","type":"uint112","internalType":"uint112"},{"name":"lastInterestAccruedTimestamp","type":"uint32","internalType":"uint32"}]},{"name":"","type":"bytes","internalType":"bytes"}],"outputs":[],"stateMutability":"nonpayable"},{"type":"function","name":"onCloseMarket","inputs":[{"name":"","type":"tuple","internalType":"struct MarketState","components":[{"name":"isClosed","type":"bool","internalType":"bool"},{"name":"maxTotalSupply","type":"uint128","internalType":"uint128"},{"name":"accruedProtocolFees","type":"uint128","internalType":"uint128"},{"name":"normalizedUnclaimedWithdrawals","type":"uint128","internalType":"uint128"},{"name":"scaledTotalSupply","type":"uint104","internalType":"uint104"},{"name":"scaledPendingWithdrawals","type":"uint104","internalType":"uint104"},{"name":"pendingWithdrawalExpiry","type":"uint32","internalType":"uint32"},{"name":"isDelinquent","type":"bool","internalType":"bool"},{"name":"timeDelinquent","type":"uint32","internalType":"uint32"},{"name":"protocolFeeBips","type":"uint16","internalType":"uint16"},{"name":"annualInterestBips","type":"uint16","internalType":"uint16"},{"name":"reserveRatioBips","type":"uint16","internalType":"uint16"},{"name":"scaleFactor","type":"uint112","internalType":"uint112"},{"name":"lastInterestAccruedTimestamp","type":"uint32","internalType":"uint32"}]},{"name":"","type":"bytes","internalType":"bytes"}],"outputs":[],"stateMutability":"nonpayable"},{"type":"function","name":"onCreateMarket","inputs":[{"name":"deployer","type":"address","internalType":"address"},{"name":"marketAddress","type":"address","internalType":"address"},{"name":"parameters","type":"tuple","internalType":"struct DeployMarketInputs","components":[{"name":"asset","type":"address","internalType":"address"},{"name":"namePrefix","type":"string","internalType":"string"},{"name":"symbolPrefix","type":"string","internalType":"string"},{"name":"maxTotalSupply","type":"uint128","internalType":"uint128"},{"name":"annualInterestBips","type":"uint16","internalType":"uint16"},{"name":"delinquencyFeeBips","type":"uint16","internalType":"uint16"},{"name":"withdrawalBatchDuration","type":"uint32","internalType":"uint32"},{"name":"reserveRatioBips","type":"uint16","internalType":"uint16"},{"name":"delinquencyGracePeriod","type":"uint32","internalType":"uint32"},{"name":"hooks","type":"uint256","internalType":"HooksConfig"}]},{"name":"extraData","type":"bytes","internalType":"bytes"}],"outputs":[{"name":"","type":"uint256","internalType":"HooksConfig"}],"stateMutability":"nonpayable"},{"type":"function","name":"onDeposit","inputs":[{"name":"lender","type":"address","internalType":"address"},{"name":"scaledAmount","type":"uint256","internalType":"uint256"},{"name":"state","type":"tuple","internalType":"struct MarketState","components":[{"name":"isClosed","type":"bool","internalType":"bool"},{"name":"maxTotalSupply","type":"uint128","internalType":"uint128"},{"name":"accruedProtocolFees","type":"uint128","internalType":"uint128"},{"name":"normalizedUnclaimedWithdrawals","type":"uint128","internalType":"uint128"},{"name":"scaledTotalSupply","type":"uint104","internalType":"uint104"},{"name":"scaledPendingWithdrawals","type":"uint104","internalType":"uint104"},{"name":"pendingWithdrawalExpiry","type":"uint32","internalType":"uint32"},{"name":"isDelinquent","type":"bool","internalType":"bool"},{"name":"timeDelinquent","type":"uint32","internalType":"uint32"},{"name":"protocolFeeBips","type":"uint16","internalType":"uint16"},{"name":"annualInterestBips","type":"uint16","internalType":"uint16"},{"name":"reserveRatioBips","type":"uint16","internalType":"uint16"},{"name":"scaleFactor","type":"uint112","internalType":"uint112"},{"name":"lastInterestAccruedTimestamp","type":"uint32","internalType":"uint32"}]},{"name":"hooksData","type":"bytes","internalType":"bytes"}],"outputs":[],"stateMutability":"nonpayable"},{"type":"function","name":"onExecuteWithdrawal","inputs":[{"name":"lender","type":"address","internalType":"address"},{"name":"","type":"uint128","internalType":"uint128"},{"name":"","type":"tuple","internalType":"struct MarketState","components":[{"name":"isClosed","type":"bool","internalType":"bool"},{"name":"maxTotalSupply","type":"uint128","internalType":"uint128"},{"name":"accruedProtocolFees","type":"uint128","internalType":"uint128"},{"name":"normalizedUnclaimedWithdrawals","type":"uint128","internalType":"uint128"},{"name":"scaledTotalSupply","type":"uint104","internalType":"uint104"},{"name":"scaledPendingWithdrawals","type":"uint104","internalType":"uint104"},{"name":"pendingWithdrawalExpiry","type":"uint32","internalType":"uint32"},{"name":"isDelinquent","type":"bool","internalType":"bool"},{"name":"timeDelinquent","type":"uint32","internalType":"uint32"},{"name":"protocolFeeBips","type":"uint16","internalType":"uint16"},{"name":"annualInterestBips","type":"uint16","internalType":"uint16"},{"name":"reserveRatioBips","type":"uint16","internalType":"uint16"},{"name":"scaleFactor","type":"uint112","internalType":"uint112"},{"name":"lastInterestAccruedTimestamp","type":"uint32","internalType":"uint32"}]},{"name":"hooksData","type":"bytes","internalType":"bytes"}],"outputs":[],"stateMutability":"nonpayable"},{"type":"function","name":"onNukeFromOrbit","inputs":[{"name":"","type":"address","internalType":"address"},{"name":"","type":"tuple","internalType":"struct MarketState","components":[{"name":"isClosed","type":"bool","internalType":"bool"},{"name":"maxTotalSupply","type":"uint128","internalType":"uint128"},{"name":"accruedProtocolFees","type":"uint128","internalType":"uint128"},{"name":"normalizedUnclaimedWithdrawals","type":"uint128","internalType":"uint128"},{"name":"scaledTotalSupply","type":"uint104","internalType":"uint104"},{"name":"scaledPendingWithdrawals","type":"uint104","internalType":"uint104"},{"name":"pendingWithdrawalExpiry","type":"uint32","internalType":"uint32"},{"name":"isDelinquent","type":"bool","internalType":"bool"},{"name":"timeDelinquent","type":"uint32","internalType":"uint32"},{"name":"protocolFeeBips","type":"uint16","internalType":"uint16"},{"name":"annualInterestBips","type":"uint16","internalType":"uint16"},{"name":"reserveRatioBips","type":"uint16","internalType":"uint16"},{"name":"scaleFactor","type":"uint112","internalType":"uint112"},{"name":"lastInterestAccruedTimestamp","type":"uint32","internalType":"uint32"}]},{"name":"","type":"bytes","internalType":"bytes"}],"outputs":[],"stateMutability":"nonpayable"},{"type":"function","name":"onQueueWithdrawal","inputs":[{"name":"lender","type":"address","internalType":"address"},{"name":"","type":"uint32","internalType":"uint32"},{"name":"","type":"uint256","internalType":"uint256"},{"name":"","type":"tuple","internalType":"struct MarketState","components":[{"name":"isClosed","type":"bool","internalType":"bool"},{"name":"maxTotalSupply","type":"uint128","internalType":"uint128"},{"name":"accruedProtocolFees","type":"uint128","internalType":"uint128"},{"name":"normalizedUnclaimedWithdrawals","type":"uint128","internalType":"uint128"},{"name":"scaledTotalSupply","type":"uint104","internalType":"uint104"},{"name":"scaledPendingWithdrawals","type":"uint104","internalType":"uint104"},{"name":"pendingWithdrawalExpiry","type":"uint32","internalType":"uint32"},{"name":"isDelinquent","type":"bool","internalType":"bool"},{"name":"timeDelinquent","type":"uint32","internalType":"uint32"},{"name":"protocolFeeBips","type":"uint16","internalType":"uint16"},{"name":"annualInterestBips","type":"uint16","internalType":"uint16"},{"name":"reserveRatioBips","type":"uint16","internalType":"uint16"},{"name":"scaleFactor","type":"uint112","internalType":"uint112"},{"name":"lastInterestAccruedTimestamp","type":"uint32","internalType":"uint32"}]},{"name":"hooksData","type":"bytes","internalType":"bytes"}],"outputs":[],"stateMutability":"nonpayable"},{"type":"function","name":"onRepay","inputs":[{"name":"normalizedAmount","type":"uint256","internalType":"uint256"},{"name":"state","type":"tuple","internalType":"struct MarketState","components":[{"name":"isClosed","type":"bool","internalType":"bool"},{"name":"maxTotalSupply","type":"uint128","internalType":"uint128"},{"name":"accruedProtocolFees","type":"uint128","internalType":"uint128"},{"name":"normalizedUnclaimedWithdrawals","type":"uint128","internalType":"uint128"},{"name":"scaledTotalSupply","type":"uint104","internalType":"uint104"},{"name":"scaledPendingWithdrawals","type":"uint104","internalType":"uint104"},{"name":"pendingWithdrawalExpiry","type":"uint32","internalType":"uint32"},{"name":"isDelinquent","type":"bool","internalType":"bool"},{"name":"timeDelinquent","type":"uint32","internalType":"uint32"},{"name":"protocolFeeBips","type":"uint16","internalType":"uint16"},{"name":"annualInterestBips","type":"uint16","internalType":"uint16"},{"name":"reserveRatioBips","type":"uint16","internalType":"uint16"},{"name":"scaleFactor","type":"uint112","internalType":"uint112"},{"name":"lastInterestAccruedTimestamp","type":"uint32","internalType":"uint32"}]},{"name":"hooksData","type":"bytes","internalType":"bytes"}],"outputs":[],"stateMutability":"nonpayable"},{"type":"function","name":"onSetAnnualInterestAndReserveRatioBips","inputs":[{"name":"annualInterestBips","type":"uint16","internalType":"uint16"},{"name":"reserveRatioBips","type":"uint16","internalType":"uint16"},{"name":"intermediateState","type":"tuple","internalType":"struct MarketState","components":[{"name":"isClosed","type":"bool","internalType":"bool"},{"name":"maxTotalSupply","type":"uint128","internalType":"uint128"},{"name":"accruedProtocolFees","type":"uint128","internalType":"uint128"},{"name":"normalizedUnclaimedWithdrawals","type":"uint128","internalType":"uint128"},{"name":"scaledTotalSupply","type":"uint104","internalType":"uint104"},{"name":"scaledPendingWithdrawals","type":"uint104","internalType":"uint104"},{"name":"pendingWithdrawalExpiry","type":"uint32","internalType":"uint32"},{"name":"isDelinquent","type":"bool","internalType":"bool"},{"name":"timeDelinquent","type":"uint32","internalType":"uint32"},{"name":"protocolFeeBips","type":"uint16","internalType":"uint16"},{"name":"annualInterestBips","type":"uint16","internalType":"uint16"},{"name":"reserveRatioBips","type":"uint16","internalType":"uint16"},{"name":"scaleFactor","type":"uint112","internalType":"uint112"},{"name":"lastInterestAccruedTimestamp","type":"uint32","internalType":"uint32"}]},{"name":"hooksData","type":"bytes","internalType":"bytes"}],"outputs":[{"name":"updatedAnnualInterestBips","type":"uint16","internalType":"uint16"},{"name":"updatedReserveRatioBips","type":"uint16","internalType":"uint16"}],"stateMutability":"nonpayable"},{"type":"function","name":"onSetMaxTotalSupply","inputs":[{"name":"","type":"uint256","internalType":"uint256"},{"name":"","type":"tuple","internalType":"struct MarketState","components":[{"name":"isClosed","type":"bool","internalType":"bool"},{"name":"maxTotalSupply","type":"uint128","internalType":"uint128"},{"name":"accruedProtocolFees","type":"uint128","internalType":"uint128"},{"name":"normalizedUnclaimedWithdrawals","type":"uint128","internalType":"uint128"},{"name":"scaledTotalSupply","type":"uint104","internalType":"uint104"},{"name":"scaledPendingWithdrawals","type":"uint104","internalType":"uint104"},{"name":"pendingWithdrawalExpiry","type":"uint32","internalType":"uint32"},{"name":"isDelinquent","type":"bool","internalType":"bool"},{"name":"timeDelinquent","type":"uint32","internalType":"uint32"},{"name":"protocolFeeBips","type":"uint16","internalType":"uint16"},{"name":"annualInterestBips","type":"uint16","internalType":"uint16"},{"name":"reserveRatioBips","type":"uint16","internalType":"uint16"},{"name":"scaleFactor","type":"uint112","internalType":"uint112"},{"name":"lastInterestAccruedTimestamp","type":"uint32","internalType":"uint32"}]},{"name":"","type":"bytes","internalType":"bytes"}],"outputs":[],"stateMutability":"nonpayable"},{"type":"function","name":"onSetProtocolFeeBips","inputs":[{"name":"","type":"uint16","internalType":"uint16"},{"name":"","type":"tuple","internalType":"struct MarketState","components":[{"name":"isClosed","type":"bool","internalType":"bool"},{"name":"maxTotalSupply","type":"uint128","internalType":"uint128"},{"name":"accruedProtocolFees","type":"uint128","internalType":"uint128"},{"name":"normalizedUnclaimedWithdrawals","type":"uint128","internalType":"uint128"},{"name":"scaledTotalSupply","type":"uint104","internalType":"uint104"},{"name":"scaledPendingWithdrawals","type":"uint104","internalType":"uint104"},{"name":"pendingWithdrawalExpiry","type":"uint32","internalType":"uint32"},{"name":"isDelinquent","type":"bool","internalType":"bool"},{"name":"timeDelinquent","type":"uint32","internalType":"uint32"},{"name":"protocolFeeBips","type":"uint16","internalType":"uint16"},{"name":"annualInterestBips","type":"uint16","internalType":"uint16"},{"name":"reserveRatioBips","type":"uint16","internalType":"uint16"},{"name":"scaleFactor","type":"uint112","internalType":"uint112"},{"name":"lastInterestAccruedTimestamp","type":"uint32","internalType":"uint32"}]},{"name":"","type":"bytes","internalType":"bytes"}],"outputs":[],"stateMutability":"nonpayable"},{"type":"function","name":"onTransfer","inputs":[{"name":"","type":"address","internalType":"address"},{"name":"","type":"address","internalType":"address"},{"name":"to","type":"address","internalType":"address"},{"name":"","type":"uint256","internalType":"uint256"},{"name":"","type":"tuple","internalType":"struct MarketState","components":[{"name":"isClosed","type":"bool","internalType":"bool"},{"name":"maxTotalSupply","type":"uint128","internalType":"uint128"},{"name":"accruedProtocolFees","type":"uint128","internalType":"uint128"},{"name":"normalizedUnclaimedWithdrawals","type":"uint128","internalType":"uint128"},{"name":"scaledTotalSupply","type":"uint104","internalType":"uint104"},{"name":"scaledPendingWithdrawals","type":"uint104","internalType":"uint104"},{"name":"pendingWithdrawalExpiry","type":"uint32","internalType":"uint32"},{"name":"isDelinquent","type":"bool","internalType":"bool"},{"name":"timeDelinquent","type":"uint32","internalType":"uint32"},{"name":"protocolFeeBips","type":"uint16","internalType":"uint16"},{"name":"annualInterestBips","type":"uint16","internalType":"uint16"},{"name":"reserveRatioBips","type":"uint16","internalType":"uint16"},{"name":"scaleFactor","type":"uint112","internalType":"uint112"},{"name":"lastInterestAccruedTimestamp","type":"uint32","internalType":"uint32"}]},{"name":"extraData","type":"bytes","internalType":"bytes"}],"outputs":[],"stateMutability":"nonpayable"},{"type":"function","name":"removeRoleProvider","inputs":[{"name":"providerAddress","type":"address","internalType":"address"}],"outputs":[],"stateMutability":"nonpayable"},{"type":"function","name":"revokeRole","inputs":[{"name":"account","type":"address","internalType":"address"}],"outputs":[],"stateMutability":"nonpayable"},{"type":"function","name":"setFixedTermEndTime","inputs":[{"name":"market","type":"address","internalType":"address"},{"name":"newFixedTermEndTime","type":"uint32","internalType":"uint32"}],"outputs":[],"stateMutability":"nonpayable"},{"type":"function","name":"setMinimumDeposit","inputs":[{"name":"market","type":"address","internalType":"address"},{"name":"newMinimumDeposit","type":"uint128","internalType":"uint128"}],"outputs":[],"stateMutability":"nonpayable"},{"type":"function","name":"temporaryExcessReserveRatio","inputs":[{"name":"","type":"address","internalType":"address"}],"outputs":[{"name":"originalAnnualInterestBips","type":"uint16","internalType":"uint16"},{"name":"originalReserveRatioBips","type":"uint16","internalType":"uint16"},{"name":"expiry","type":"uint32","internalType":"uint32"}],"stateMutability":"view"},{"type":"function","name":"unblockFromDeposits","inputs":[{"name":"account","type":"address","internalType":"address"}],"outputs":[],"stateMutability":"nonpayable"},{"type":"function","name":"version","inputs":[],"outputs":[{"name":"","type":"string","internalType":"string"}],"stateMutability":"pure"},{"type":"event","name":"AccountAccessGranted","inputs":[{"name":"providerAddress","type":"address","indexed":true,"internalType":"address"},{"name":"accountAddress","type":"address","indexed":true,"internalType":"address"},{"name":"credentialTimestamp","type":"uint32","indexed":false,"internalType":"uint32"}],"anonymous":false},{"type":"event","name":"AccountAccessRevoked","inputs":[{"name":"accountAddress","type":"address","indexed":true,"internalType":"address"}],"anonymous":false},{"type":"event","name":"AccountBlockedFromDeposits","inputs":[{"name":"accountAddress","type":"address","indexed":true,"internalType":"address"}],"anonymous":false},{"type":"event","name":"AccountMadeFirstDeposit","inputs":[{"name":"accountAddress","type":"address","indexed":true,"internalType":"address"}],"anonymous":false},{"type":"event","name":"AccountUnblockedFromDeposits","inputs":[{"name":"accountAddress","type":"address","indexed":true,"internalType":"address"}],"anonymous":false},{"type":"event","name":"FixedTermUpdated","inputs":[{"name":"market","type":"address","indexed":false,"internalType":"address"},{"name":"fixedTermEndTime","type":"uint32","indexed":false,"internalType":"uint32"}],"anonymous":false},{"type":"event","name":"MinimumDepositUpdated","inputs":[{"name":"market","type":"address","indexed":false,"internalType":"address"},{"name":"newMinimumDeposit","type":"uint128","indexed":false,"internalType":"uint128"}],"anonymous":false},{"type":"event","name":"RoleProviderAdded","inputs":[{"name":"providerAddress","type":"address","indexed":true,"internalType":"address"},{"name":"timeToLive","type":"uint32","indexed":false,"internalType":"uint32"},{"name":"pullProviderIndex","type":"uint24","indexed":false,"internalType":"uint24"}],"anonymous":false},{"type":"event","name":"RoleProviderRemoved","inputs":[{"name":"providerAddress","type":"address","indexed":true,"internalType":"address"},{"name":"pullProviderIndex","type":"uint24","indexed":false,"internalType":"uint24"}],"anonymous":false},{"type":"event","name":"RoleProviderUpdated","inputs":[{"name":"providerAddress","type":"address","indexed":true,"internalType":"address"},{"name":"timeToLive","type":"uint32","indexed":false,"internalType":"uint32"},{"name":"pullProviderIndex","type":"uint24","indexed":false,"internalType":"uint24"}],"anonymous":false},{"type":"event","name":"TemporaryExcessReserveRatioActivated","inputs":[{"name":"market","type":"address","indexed":true,"internalType":"address"},{"name":"originalReserveRatioBips","type":"uint256","indexed":false,"internalType":"uint256"},{"name":"temporaryReserveRatioBips","type":"uint256","indexed":false,"internalType":"uint256"},{"name":"temporaryReserveRatioExpiry","type":"uint256","indexed":false,"internalType":"uint256"}],"anonymous":false},{"type":"event","name":"TemporaryExcessReserveRatioCanceled","inputs":[{"name":"market","type":"address","indexed":true,"internalType":"address"}],"anonymous":false},{"type":"event","name":"TemporaryExcessReserveRatioExpired","inputs":[{"name":"market","type":"address","indexed":true,"internalType":"address"}],"anonymous":false},{"type":"event","name":"TemporaryExcessReserveRatioUpdated","inputs":[{"name":"market","type":"address","indexed":true,"internalType":"address"},{"name":"originalReserveRatioBips","type":"uint256","indexed":false,"internalType":"uint256"},{"name":"temporaryReserveRatioBips","type":"uint256","indexed":false,"internalType":"uint256"},{"name":"temporaryReserveRatioExpiry","type":"uint256","indexed":false,"internalType":"uint256"}],"anonymous":false},{"type":"error","name":"AnnualInterestBipsOutOfBounds","inputs":[]},{"type":"error","name":"CallerNotBorrower","inputs":[]},{"type":"error","name":"CallerNotFactory","inputs":[]},{"type":"error","name":"DelinquencyFeeBipsOutOfBounds","inputs":[]},{"type":"error","name":"DelinquencyGracePeriodOutOfBounds","inputs":[]},{"type":"error","name":"DepositBelowMinimum","inputs":[]},{"type":"error","name":"FixedTermNotProvided","inputs":[]},{"type":"error","name":"GrantedCredentialExpired","inputs":[]},{"type":"error","name":"IncreaseFixedTerm","inputs":[]},{"type":"error","name":"InvalidArrayLength","inputs":[]},{"type":"error","name":"InvalidCredentialReturned","inputs":[]},{"type":"error","name":"InvalidFixedTerm","inputs":[]},{"type":"error","name":"NotApprovedLender","inputs":[]},{"type":"error","name":"NotHookedMarket","inputs":[]},{"type":"error","name":"ProviderCanNotReplaceCredential","inputs":[]},{"type":"error","name":"ProviderCanNotRevokeCredential","inputs":[]},{"type":"error","name":"ProviderNotFound","inputs":[]},{"type":"error","name":"ReserveRatioBipsOutOfBounds","inputs":[]},{"type":"error","name":"WithdrawBeforeTermEnd","inputs":[]},{"type":"error","name":"WithdrawalBatchDurationOutOfBounds","inputs":[]}],"bytecode":{"object":"0x60e060405234801561000f575f80fd5b5060405161376f38038061376f83398101604081905261002e91610099565b50336080526001600160a01b03811660a08190525f908152600460205260409081902091901b7fffffffff0000000000000000000000000000000000000000ffffff0000000000179055634040900060c052610162565b634e487b7160e01b5f52604160045260245ffd5b5f80604083850312156100aa575f80fd5b82516001600160a01b03811681146100c0575f80fd5b60208401519092506001600160401b03808211156100dc575f80fd5b818501915085601f8301126100ef575f80fd5b81518181111561010157610101610085565b604051601f8201601f19908116603f0116810190838211818310171561012957610129610085565b81604052828152886020848701011115610141575f80fd5b8260208601602083015e5f6020848301015280955050505050509250929050565b60805160a05160c0516135a46101cb5f395f81816104860152611c8201525f81816104ad015281816107dd015281816108fc01528181610ab501528181611214015281816115a7015281816116fb0152611a8d01525f81816106eb0152610ccb01526135a45ff3fe608060405234801561000f575f80fd5b50600436106101fd575f3560e01c80638adfe0f811610114578063aa948689116100a9578063c45a015511610079578063c45a0155146106e6578063cc4526421461070d578063ea5b13bd1461073b578063f040ed981461074e578063feb368e21461076e575f80fd5b8063aa94868914610613578063b037096d14610626578063b1cfda0d146104fa578063bfd269be146106be575f80fd5b80639ecc64e6116100e45780639ecc64e614610551578063a018f90e14610564578063a11ef06714610577578063a9ff2dbf146105d6575f80fd5b80638adfe0f8146105085780638b3ce9b31461051b5780638f8ef419146105295780639d2a76fe1461053e575f80fd5b80633521cccc1161019557806379502c551161016557806379502c55146104815780637df1f1b9146104a857806380e52e3f146104e757806383d9e1eb146104fa578063849da129146104fa575f80fd5b80633521cccc1461041457806354fd4d50146104275780635aeb713f1461045b5780636b2b369b1461046e575f80fd5b806322a4a19f116101d057806322a4a19f1461025057806328fd0307146102b25780632970403d146102d35780632ccf4667146102e8575f80fd5b806302420e7f1461020157806303473d8d14610216578063064ed53b1461022a5780631c4b36941461023d575b5f80fd5b61021461020f366004612bc8565b6107d2565b005b610214610224366004612d1e565b50505050565b610214610238366004612e86565b6108f1565b61021461024b366004612e9f565b610aaa565b61026361025e366004612e86565b610b9d565b6040516102a991908151151581526020808301516001600160a01b03169082015260408083015115159082015260609182015163ffffffff169181019190915260800190565b60405180910390f35b6102c56102c0366004612ec7565b610cbf565b6040519081526020016102a9565b6102146102e1366004612f66565b5050505050565b6103b26102f6366004612e86565b6040805160c0810182525f80825260208201819052918101829052606081018290526080810182905260a0810191909152506001600160a01b03165f90815260056020908152604091829020825160c081018452905460ff808216151583526101008204811615159383019390935262010000810483161515938201939093526301000000830490911615156060820152600160201b82046001600160801b03166080820152600160a01b90910463ffffffff1660a082015290565b6040516102a991905f60c0820190508251151582526020830151151560208301526040830151151560408301526060830151151560608301526001600160801b03608084015116608083015263ffffffff60a08401511660a083015292915050565b610214610422366004612fc9565b610d22565b604080518082018252601281527146697865645465726d4c6f616e486f6f6b7360701b602082015290516102a99190613046565b61021461046936600461307b565b610ebd565b61021461047c366004612bc8565b611087565b6102c57f000000000000000000000000000000000000000000000000000000000000000081565b6104cf7f000000000000000000000000000000000000000000000000000000000000000081565b6040516001600160a01b0390911681526020016102a9565b6102146104f5366004612e86565b6110bf565b6102146102243660046130af565b610214610516366004612e86565b611209565b6102146102243660046130f0565b610531611308565b6040516102a9919061311c565b61021461054c3660046131f5565b61135e565b61021461055f3660046132af565b505050565b610214610572366004613301565b6113fd565b60408051610140810182525f8082528183018190526080820181905260c082018190526101008201526276a70060208201526127106060820181905260a082018190526301e1338060e083015261012082015290516102a9919061338e565b6106036105e4366004613464565b600260209081525f928352604080842090915290825290205460ff1681565b60405190151581526020016102a9565b610214610621366004612e86565b61159c565b610263610634366004612e86565b604080516080810182525f808252602082018190529181018290526060810191909152506001600160a01b039081165f908152600160209081526040918290208251608081018452905460ff80821615158352610100820490951692820192909252600160a81b8204909316151591830191909152600160b01b900463ffffffff16606082015290565b6102c56106cc366004612e86565b6001600160a01b03165f9081526004602052604090205490565b6104cf7f000000000000000000000000000000000000000000000000000000000000000081565b61072061071b36600461348c565b6116d2565b6040805161ffff9384168152929091166020830152016102a9565b610214610749366004612bc8565b6116f0565b6107596301e1338081565b60405163ffffffff90911681526020016102a9565b6107ab61077c366004612e86565b5f6020819052908152604090205461ffff8082169162010000810490911690600160201b900463ffffffff1683565b6040805161ffff948516815293909216602084015263ffffffff16908201526060016102a9565b336001600160a01b037f0000000000000000000000000000000000000000000000000000000000000000161461081b57604051633c698d7960e01b815260040160405180910390fd5b6001600160a01b0382165f908152600560205260409020805460ff166108545760405163b217907b60e01b815260040160405180910390fd5b805463ffffffff600160a01b9091048116908316111561088757604051634d92d62d60e11b815260040160405180910390fd5b805463ffffffff60a01b1916600160a01b63ffffffff8416908102919091178255604080516001600160a01b038616815260208101929092527f8fcb9a8dc61c986e7488a736bc8edc39e7f8b2bea37fdf7aa56cf142c5fe04b791015b60405180910390a1505050565b336001600160a01b037f0000000000000000000000000000000000000000000000000000000000000000161461093a57604051633c698d7960e01b815260040160405180910390fd5b6001600160a01b038181165f908152600160209081526040918290208251608081018452905460ff80821615158352610100820490951692820192909252600160a81b8204909316151591830191909152600160b01b900463ffffffff1660608201819052156109ec575f604082018190526060820181905260208201526040516001600160a01b038316907f47695aa96e09db0d106b9bd402979d6aff7e51ada06ec6fe014e5eeadd8c1dc0905f90a25b60018082526001600160a01b038084165f8181526020938452604080822086518154968801518389015160608a015163ffffffff16600160b01b0263ffffffff60b01b19911515600160a81b029190911664ffffffffff60a81b199290981661010002610100600160a81b0319931515939093166001600160a81b0319909916989098179190911716949094179490941790925591517f25b0d1830e0d487402e2c828de3ccbc9d16bd911aaec75fbba1bffd32657fad49190a25050565b336001600160a01b037f00000000000000000000000000000000000000000000000000000000000000001614610af357604051633c698d7960e01b815260040160405180910390fd5b6001600160a01b0382165f908152600560205260409020805460ff16610b2c5760405163b217907b60e01b815260040160405180910390fd5b805473ffffffffffffffffffffffffffffffff000000001916600160201b6001600160801b038416908102919091178255604080516001600160a01b038616815260208101929092527f4e39f53293455dca8fe1725b2dfcbe6abd2f44d777b7f2a7279526e17d7ebede91016108e4565b60408051608080820183525f808352602080840182905283850182905260609384018290526001600160a01b0386811683526001825291859020855193840186525460ff80821615158552610100820490931691840191909152600160a81b8104909116151593820193909352600160b01b90920463ffffffff169082018190525f199015610ca3576020828101516001600160a01b03165f908152600490915260409020548015610c8d57610c538382611943565b15610c5f575050919050565b826040015115610c8d57610c7483828661196d565b15610c80575050919050565b62ffffff602882901c1691505b5f60408401819052606084018190526020840152505b610cae828483611a18565b15610cb95750919050565b50919050565b5f336001600160a01b037f00000000000000000000000000000000000000000000000000000000000000001614610d095760405163a84178ab60e01b815260040160405180910390fd5b610d168686868686611a7c565b90505b95945050505050565b335f90815260056020908152604091829020825160c081018452905460ff80821615158084526101008304821615159484019490945262010000820481161515948301949094526301000000810490931615156060820152600160201b83046001600160801b03166080820152600160a01b90920463ffffffff1660a0830152610dbf5760405163b217907b60e01b815260040160405180910390fd5b428160a0015163ffffffff161115610dea5760405163fb86850160e01b815260040160405180910390fd5b6001600160a01b038781165f908152600160209081526040918290208251608081018452905460ff80821615158352610100820490951692820192909252600160a81b8204909316151591830191909152600160b01b900463ffffffff1660608083019190915282015115610eb3576001600160a01b0388165f90815260026020908152604080832033845290915290205460ff16158015610e955750610e9381898686611d8d565b155b15610eb35760405163728522e760e11b815260040160405180910390fd5b5050505050505050565b335f90815260056020908152604091829020825160c081018452905460ff80821615158084526101008304821615159484019490945262010000820481161515948301949094526301000000810490931615156060820152600160201b83046001600160801b03166080820152600160a01b90920463ffffffff1660a0830152610f5a5760405163b217907b60e01b815260040160405180910390fd5b6001600160a01b038681165f908152600160209081526040918290208251608081018452905460ff8082161580158452610100830490961693830193909352600160a81b8104909216151592810192909252600160b01b900463ffffffff16606082015290610fdc5760405163728522e760e11b815260040160405180910390fd5b5f611002610ff26101a0880161018089016134b8565b88906001600160701b0316611db6565b90508083608001516001600160801b031611156110325760405163c24b1b6160e01b815260040160405180910390fd5b5f80611040848b8989611e06565b6040870151919350915015158215161561106d5760405163728522e760e11b815260040160405180910390fd5b61107b848b84846001611f1e565b50505050505050505050565b335f90815260046020526040902054806110b45760405163b1cd090360e01b815260040160405180910390fd5b61055f8184846120ed565b6001600160a01b038181165f908152600160209081526040918290208251608081018452905460ff808216151583526101008204909516928201839052600160a81b8104909416151592810192909252600160b01b90920463ffffffff16606082015290331461114257604051633a364f3d60e01b815260040160405180910390fd5b5f60408281018281526060840183815260208086018581526001600160a01b038881168088526001909352858720885181549351965195516001600160a81b0319909416901515610100600160a81b0319161761010096909216959095021764ffffffffff60a81b1916600160a81b9315159390930263ffffffff60b01b191692909217600160b01b63ffffffff9093169290920291909117909155905190917f47695aa96e09db0d106b9bd402979d6aff7e51ada06ec6fe014e5eeadd8c1dc091a25050565b336001600160a01b037f0000000000000000000000000000000000000000000000000000000000000000161461125257604051633c698d7960e01b815260040160405180910390fd5b6001600160a01b0381165f90815260046020526040902054806112885760405163b1cd090360e01b815260040160405180910390fd5b6001600160a01b0382165f818152600460205260408120557f096f563e3528747c50a40c54ef564a28b9321ffc1c310e29a97f067e06f59aad602883901c62ffffff1660405162ffffff909116815260200160405180910390a262ffffff602882901c81161461130457611304602882901c62ffffff1661221d565b5050565b6060600380548060200260200160405190810160405280929190818152602001828054801561135457602002820191905f5260205f20905b815481526020019060010190808311611340575b5050505050905090565b335f908152600460205260409020548061138b5760405163b1cd090360e01b815260040160405180910390fd5b81518351146113ad57604051634ec4810560e11b815260040160405180910390fd5b5f5b8351811015610224576113f5828583815181106113ce576113ce6134d1565b60200260200101518584815181106113e8576113e86134d1565b60200260200101516120ed565b6001016113af565b335f90815260056020908152604091829020825160c081018452905460ff80821615158084526101008304821615159484019490945262010000820481161515948301949094526301000000810490931615156060820152600160201b83046001600160801b03166080820152600160a01b90920463ffffffff1660a083015261149a5760405163b217907b60e01b815260040160405180910390fd5b6001600160a01b0386165f90815260026020908152604080832033845290915290205460ff16610eb3576001600160a01b038681165f908152600160209081526040918290208251608081018452905460ff8082161580158452610100830490961693830193909352600160a81b8104909216151592810192909252600160b01b900463ffffffff166060820152906115465760405163728522e760e11b815260040160405180910390fd5b5f80611554838a8888611e06565b602086015191935091501515821516156115815760405163728522e760e11b815260040160405180910390fd5b61158f838a84846001611f1e565b5050505050505050505050565b336001600160a01b037f000000000000000000000000000000000000000000000000000000000000000016146115e557604051633c698d7960e01b815260040160405180910390fd5b6001600160a01b038181165f818152600160208181526040808420815160808101835281546101008082048a1683870190815260ff600160a81b808504919091161515858801908152600160b01b80860463ffffffff908116606089019081528d89528e8e529b909a528651935191519a516001600160a81b0319909616931515610100600160a81b031916939093179c169092029a909a1764ffffffffff60a81b19169615150263ffffffff60b01b1916959095179490931690960292909217909455517f7201a4017f7e2ac3b7164275daef1150d8fc64543b3f7196293722db50bc7fa09190a25050565b5f806116e18787878787612364565b915091505b9550959350505050565b336001600160a01b037f0000000000000000000000000000000000000000000000000000000000000000161461173957604051633c698d7960e01b815260040160405180910390fd5b6001600160a01b0382165f908152600460205260409020548061188b575f836001600160a01b031663256909f16040518163ffffffff1660e01b8152600401602060405180830381865afa158015611793573d5f803e3d5ffd5b505050506040513d601f19601f820116820180604052508101906117b791906134e5565b90506117f78385836117dd5760e09190911b60409190911b1767ffffff00000000001790565b60035460e09290921b60409190911b1760289190911b1790565b9150801561183457600380546001810182555f919091527fc2575a0e9e593c00f959f8c92f12db2869c3395a3b0502d05e2516446f71f85b018290555b6040805163ffffffff8516815262ffffff602885901c16602082015281516001600160a01b038716927fbe2909d8cc20d11ba19a80df9673ad2fd54f3d18592c03aa1413fc921e185b0b928290030190a250611924565b6001600160e01b03811660e083901b17905062ffffff602882901c81169081146118d4578160038262ffffff16815481106118c8576118c86134d1565b5f918252602090912001555b6040805163ffffffff8516815262ffffff831660208201526001600160a01b038616917f0c641c0a4b692db5a80ac5db2cdc5d138e9878e3a42907e4ca46377d45e820f0910160405180910390a2505b6001600160a01b039092165f9081526004602052604090209190915550565b5f42611962846060015163ffffffff16846126d790919063ffffffff16565b101590505b92915050565b5f80604084901c6001600160a01b031663ccdad14b5f818152602086815292935091826024601c865afa601f3d1116156119ac5763ffffffff5f511691505b63ffffffff821615806119c45750428263ffffffff16115b156119d4575f9350505050611a11565b426119e88763ffffffff808616906126d716565b10611a0d57611a01878763ffffffff808616906126f716565b60019350505050611a11565b5050505b9392505050565b6003545f90815b81811015611a7357808414611a6b575f60038281548110611a4257611a426134d1565b905f5260205f2001549050611a5887828861196d565b15611a695760019350505050611a11565b505b600101611a1f565b50509392505050565b5f611a8a868686868661272a565b507f00000000000000000000000000000000000000000000000000000000000000006001600160a01b0316866001600160a01b031614611add57604051633c698d7960e01b815260040160405180910390fd5b6020821015611aff576040516303e3e84b60e61b815260040160405180910390fd5b5061012083013582354263ffffffff82161080611b2e57506301e13380611b2c4263ffffffff8416613514565b115b15611b4c576040516390b0b2c360e01b815260040160405180910390fd5b604080516001600160a01b038816815263ffffffff831660208201527f8fcb9a8dc61c986e7488a736bc8edc39e7f8b2bea37fdf7aa56cf142c5fe04b7910160405180910390a15f6040849003611bf05750604080516001600160a01b03881681526001600160801b0360208781013591821690830152917f4e39f53293455dca8fe1725b2dfcbe6abd2f44d777b7f2a7279526e17d7ebede910160405180910390a15b5f6040518060c00160405280600115158152602001611c0e86612786565b15158152602001611c1e86612794565b15158152602001611c2e866127a2565b15158152602001611c3e846127b0565b6001600160801b031681526020018463ffffffff168152509050611c61846127a2565b15611c70576009605c1b841793505b6bffffffffffffffffffffffff1984167f0000000000000000000000000000000000000000000000000000000000000000601081901c605087811c90921617901b61ffff60501b16176001600160a01b039098165f908152600560209081526040918290208351815492850151938501516060860151608087015160a09097015163ffffffff16600160a01b0263ffffffff60a01b196001600160801b03909816600160201b0297909716640100000000600160c01b031991151563010000000263ff0000001993151562010000029390931663ffff0000199715156101000261ff00199515159590951661ffff199097169690961793909317959095169390931792909217929092161791909117905550949695505050505050565b5f80611d9b86868686611e06565b9092509050611dad868684845f611f1e565b50949350505050565b5f81156b019d971e4fe8401e740000001983900484111517611de457634e487b715f5260116020526024601cfd5b506b033b2e3c9fd0803ce800000091026b019d971e4fe8401e74000000010490565b5f805f611e1c876060015163ffffffff16151590565b611e26575f611e44565b6020808801516001600160a01b03165f908152600490915260409020545b90508015158015611e5a5750611e5a8782611943565b15611e6c5760015f9250925050611f15565b611e78878787876127ca565b15611e8a576001809250925050611f15565b5f198115158015611e9c575087604001515b15611ecb57611eac88838961196d565b15611ebf57600180935093505050611f15565b5062ffffff602882901c165b611ed6888883611a18565b15611ee957600180935093505050611f15565b606088015163ffffffff1615611f12575f60408901819052606089018190526020890152600192505b50505b94509492505050565b8115611fc2578215611f8e57836001600160a01b031685602001516001600160a01b03167fa04eb478c9c6a13a6de14b7eb31b1b629511e804c3cfef31bd549accd4b155248760600151604051611f81919063ffffffff91909116815260200190565b60405180910390a3611fc2565b6040516001600160a01b038516907f47695aa96e09db0d106b9bd402979d6aff7e51ada06ec6fe014e5eeadd8c1dc0905f90a25b6001600160a01b0384165f908152600260209081526040808320338452909152902054611ff89060ff1615821515851615151690565b15612051576001600160a01b0384165f818152600260209081526040808320338452909152808220805460ff19166001179055517f69da6af30334fddc87acb34f52a47c7548a48aeee9ec3b0a5eef11539c0dce019190a25b81156102e1575050506001600160a01b039081165f908152600160209081526040918290208451815492860151938601516060909601516001600160a81b0319909316901515610100600160a81b0319161761010093909416929092029290921764ffffffffff60a81b1916600160a81b9315159390930263ffffffff60b01b191692909217600160b01b63ffffffff90921691909102179055565b6001600160a01b038083165f9081526001602090815260408083208151608081018352905460ff80821615158352610100820490961693820193909352600160a81b830490941615159084015263ffffffff600160b01b9091048116606084015261215e908690858116906126d716565b90504281101561218157604051635a922a2f60e01b815260040160405180910390fd5b606082015163ffffffff1615612211576020828101516001600160a01b03165f90815260049091526040902054801561220f575f6121d2846060015163ffffffff16836126d790919063ffffffff16565b60208501519091506121f0906001600160a01b031633148285111790565b61220d5760405163601fd52b60e11b815260040160405180910390fd5b505b505b6102e18286868661283f565b6003545f9061222e90600190613514565b9050808262ffffff160361226457600380548061224d5761224d613527565b600190038181905f5260205f20015f905590555050565b5f612293836003848154811061227c5761227c6134d1565b905f5260205f20015461293590919063ffffffff16565b90508060038462ffffff16815481106122ae576122ae6134d1565b5f9182526020909120015560038054806122ca576122ca613527565b600190038181905f5260205f20015f905590555f6122f4826001600160a01b0360409190911c1690565b6001600160a01b0381165f8181526004602052604090208490559091507f0c641c0a4b692db5a80ac5db2cdc5d138e9878e3a42907e4ca46377d45e820f061233c8460e01c90565b6040805163ffffffff909216825262ffffff881660208301520160405180910390a250505050565b5f80866123796101808701610160880161353b565b90925090503361239861ffff89165f612710633a73673b60e11b61294a565b6001600160a01b0381165f90815260208181526040918290208251606081018452905461ffff80821683526201000082041692820192909252600160201b90910463ffffffff1691810182905290156124e25760408101515f906124209063ffffffff164210156124116101608b016101408c0161353b565b61ffff908116908d1610151690565b825190915061ffff908116908b1610158115158117156124df578115612478576040516001600160a01b038516907f145c143a918203cecb36063a1d70980ebb42b5b00490c5510d79c9d7717b77bb905f90a26124ac565b6040516001600160a01b038516907f2045c970b5c1a8f9b69dd33e70a1f9d07b9021e408716d5b8daeb83a776ea05f905f90a25b50506001600160a01b039091165f90815260208181526040909120805467ffffffffffffffff19169055015190506116e6565b50505b5f80826040015163ffffffff165f146125015782516020840151612525565b6125136101608a016101408b0161353b565b6125256101808b016101608c0161353b565b915091508161ffff168b61ffff1610156126c9575f6125518c61ffff168461ffff168461ffff1661295e565b90505f6125614262127500613554565b9050846040015163ffffffff165f036125de576040805161ffff85811682528416602082015263ffffffff83168183015290516001600160a01b038816917f16f9a191ecd86fd97f0ddc3dbed8fdc4d1e0d0644b93db99f8a577f52b0dec43919081900360600190a261ffff80851686528316602086015261265c565b6125f06101608c016101408d0161353b565b61ffff168d61ffff1610612605575060408401515b6040805161ffff85811682528416602082015263ffffffff83168183015290516001600160a01b038816917ff813e17e21ecee3918b028c4e02f15f1fdd045f9f63183b6ab4f42c23c97b321919081900360600190a25b63ffffffff90811660408087019182526001600160a01b0388165f908152602081815291902087518154928901519351909416600160201b0267ffffffff000000001961ffff948516620100000263ffffffff199094169490951693909317919091179290921617905594505b505050509550959350505050565b5f611a116126e58460e01c90565b839063ffffffff908116906129b88116565b63ffffffff166060830152604081811c6001600160a01b0316602084015262ffffff60289290921c821690911415910152565b5f610d1961273e60a086016080870161353b565b61274e60c0870160a0880161353b565b61275e60e0880160c08901613567565b61276f610100890160e08a0161353b565b6127816101208a016101008b01613567565b6129c6565b5f61196782605c1c60011690565b5f61196782605f1c60011690565b5f61196782605e1c60011690565b806127c56001600160801b0382168214612a4a565b919050565b5f601482900361281f57823560601c5f8181526004602052604090205480158015906127ff575062ffffff602882901c811614155b156128185761280f87828861196d565b92505050612837565b5050612837565b60148211156128375761283485858585612a64565b90505b949350505050565b612853848463ffffffff808516906126f716565b6001600160a01b038281165f8181526001602090815260409182902088518154928a01518a85015160608c01516001600160a81b0319909516921515610100600160a81b03191692909217610100918816919091021764ffffffffff60a81b1916600160a81b9115159190910263ffffffff60b01b191617600160b01b63ffffffff9093169290920291909117905590919085901c1660405163ffffffff841681526001600160a01b0391909116907fa04eb478c9c6a13a6de14b7eb31b1b629511e804c3cfef31bd549accd4b155249060200160405180910390a350505050565b60281b67ffffff000000000019919091161790565b818411838510171561022457805f5260045ffd5b5f806129766127106129708787613514565b86612b5d565b90506109c48111612989578291506129b0565b5f6129a061271061299b846002613580565b612b81565b90506129ac8185612b90565b9250505b509392505050565b910181811090829003020190565b6129df61ffff86165f612710633a73673b60e11b61294a565b6129f861ffff85165f6127106367e9111d60e11b61294a565b612a1563ffffffff84165f6301e1338063772de36160e01b61294a565b612a2e61ffff83165f61271063c7f3bbb960e01b61294a565b6102e163ffffffff82165f6276a700632136673760e01b61294a565b80612a6157634e487b715f5260116020526024601cfd5b50565b813560601c5f8181526004602052604081205490916354560cb29180612a8f575f9350505050612837565b5f8063c177c70060e01b60e01c63ffffffff169050601488016040518681528a6020820152604080820152601489038060608301528083608084013760205f60648301601c85015f8b5af115612b055760203d1060018114612afa5763ffffffff5f51169550612b03565b845f526004601cfd5b505b505050815f1480612b1557504282115b15612b27575f95505050505050612837565b42612b3284846126d7565b10612b5057612b428a84846126f7565b600195505050505050612837565b5050505050949350505050565b5f825f190484118302158202612b7a5763ad251c275f526004601cfd5b5091020490565b5f818303828410028201611a11565b5f828203828410028301611a11565b80356001600160a01b03811681146127c5575f80fd5b803563ffffffff811681146127c5575f80fd5b5f8060408385031215612bd9575f80fd5b612be283612b9f565b9150612bf060208401612bb5565b90509250929050565b803561ffff811681146127c5575f80fd5b634e487b7160e01b5f52604160045260245ffd5b6040516101c0810167ffffffffffffffff81118282101715612c4257612c42612c0a565b60405290565b604051601f8201601f1916810167ffffffffffffffff81118282101715612c7157612c71612c0a565b604052919050565b8015158114612a61575f80fd5b80356127c581612c79565b80356001600160801b03811681146127c5575f80fd5b80356cffffffffffffffffffffffffff811681146127c5575f80fd5b80356001600160701b03811681146127c5575f80fd5b5f8083601f840112612ce9575f80fd5b50813567ffffffffffffffff811115612d00575f80fd5b602083019150836020828501011115612d17575f80fd5b9250929050565b5f805f80848603610200811215612d33575f80fd5b612d3c86612bf9565b94506101c080601f1983011215612d51575f80fd5b612d59612c1e565b9150612d6760208801612c86565b8252612d7560408801612c91565b6020830152612d8660608801612c91565b6040830152612d9760808801612c91565b6060830152612da860a08801612ca7565b6080830152612db960c08801612ca7565b60a0830152612dca60e08801612bb5565b60c0830152610100612ddd818901612c86565b60e0840152610120612df0818a01612bb5565b828501526101409150612e04828a01612bf9565b90840152610160612e16898201612bf9565b828501526101809150612e2a828a01612bf9565b908401526101a0612e3c898201612cc3565b82850152612e4b838a01612bb5565b9084015250909350506101e085013567ffffffffffffffff811115612e6e575f80fd5b612e7a87828801612cd9565b95989497509550505050565b5f60208284031215612e96575f80fd5b611a1182612b9f565b5f8060408385031215612eb0575f80fd5b612eb983612b9f565b9150612bf060208401612c91565b5f805f805f60808688031215612edb575f80fd5b612ee486612b9f565b9450612ef260208701612b9f565b9350604086013567ffffffffffffffff80821115612f0e575f80fd5b90870190610140828a031215612f22575f80fd5b90935060608701359080821115612f37575f80fd5b50612f4488828901612cd9565b969995985093965092949392505050565b5f6101c08284031215610cb9575f80fd5b5f805f805f6102208688031215612f7b575f80fd5b612f8486612b9f565b9450612f9260208701612c91565b9350612fa18760408801612f55565b925061020086013567ffffffffffffffff811115612fbd575f80fd5b612f4488828901612cd9565b5f805f805f806102408789031215612fdf575f80fd5b612fe887612b9f565b9550612ff660208801612bb5565b94506040870135935061300c8860608901612f55565b925061022087013567ffffffffffffffff811115613028575f80fd5b61303489828a01612cd9565b979a9699509497509295939492505050565b602081525f82518060208401528060208501604085015e5f604082850101526040601f19601f83011684010191505092915050565b5f805f805f6102208688031215613090575f80fd5b61309986612b9f565b945060208601359350612fa18760408801612f55565b5f805f8061020085870312156130c3575f80fd5b843593506130d48660208701612f55565b92506101e085013567ffffffffffffffff811115612e6e575f80fd5b5f805f806102008587031215613104575f80fd5b61310d85612b9f565b93506130d48660208701612f55565b602080825282518282018190525f9190848201906040850190845b8181101561315357835183529284019291840191600101613137565b50909695505050505050565b5f67ffffffffffffffff82111561317857613178612c0a565b5060051b60200190565b5f82601f830112613191575f80fd5b813560206131a66131a18361315f565b612c48565b8083825260208201915060208460051b8701019350868411156131c7575f80fd5b602086015b848110156131ea576131dd81612bb5565b83529183019183016131cc565b509695505050505050565b5f8060408385031215613206575f80fd5b823567ffffffffffffffff8082111561321d575f80fd5b818501915085601f830112613230575f80fd5b813560206132406131a18361315f565b82815260059290921b8401810191818101908984111561325e575f80fd5b948201945b838610156132835761327486612b9f565b82529482019490820190613263565b96505086013592505080821115613298575f80fd5b506132a585828601613182565b9150509250929050565b5f805f6101e084860312156132c2575f80fd5b6132cc8585612f55565b92506101c084013567ffffffffffffffff8111156132e8575f80fd5b6132f486828701612cd9565b9497909650939450505050565b5f805f805f805f610260888a031215613318575f80fd5b61332188612b9f565b965061332f60208901612b9f565b955061333d60408901612b9f565b9450606088013593506133538960808a01612f55565b925061024088013567ffffffffffffffff81111561336f575f80fd5b61337b8a828b01612cd9565b989b979a50959850939692959293505050565b815163ffffffff168152610140810160208301516133b4602084018263ffffffff169052565b5060408301516133ca604084018261ffff169052565b5060608301516133e0606084018261ffff169052565b5060808301516133f6608084018261ffff169052565b5060a083015161340c60a084018261ffff169052565b5060c083015161342460c084018263ffffffff169052565b5060e083015161343c60e084018263ffffffff169052565b506101008381015161ffff908116918401919091526101209384015116929091019190915290565b5f8060408385031215613475575f80fd5b61347e83612b9f565b9150612bf060208401612b9f565b5f805f805f61022086880312156134a1575f80fd5b6134aa86612bf9565b9450612f9260208701612bf9565b5f602082840312156134c8575f80fd5b611a1182612cc3565b634e487b7160e01b5f52603260045260245ffd5b5f602082840312156134f5575f80fd5b8151611a1181612c79565b634e487b7160e01b5f52601160045260245ffd5b8181038181111561196757611967613500565b634e487b7160e01b5f52603160045260245ffd5b5f6020828403121561354b575f80fd5b611a1182612bf9565b8082018082111561196757611967613500565b5f60208284031215613577575f80fd5b611a1182612bb5565b80820281158282048414176119675761196761350056fea164736f6c6343000819000a","linkReferences":{}},"methodIdentifiers":{"MaximumLoanTerm()":"f040ed98","addRoleProvider(address,uint32)":"ea5b13bd","blockFromDeposits(address)":"064ed53b","borrower()":"7df1f1b9","config()":"79502c55","factory()":"c45a0155","getHookedMarket(address)":"2ccf4667","getLenderStatus(address)":"22a4a19f","getParameterConstraints()":"a11ef067","getPreviousLenderStatus(address)":"b037096d","getPullProviders()":"8f8ef419","getRoleProvider(address)":"bfd269be","grantRole(address,uint32)":"6b2b369b","grantRoles(address[],uint32[])":"9d2a76fe","isKnownLenderOnMarket(address,address)":"a9ff2dbf","onBorrow(uint256,(bool,uint128,uint128,uint128,uint104,uint104,uint32,bool,uint32,uint16,uint16,uint16,uint112,uint32),bytes)":"b1cfda0d","onCloseMarket((bool,uint128,uint128,uint128,uint104,uint104,uint32,bool,uint32,uint16,uint16,uint16,uint112,uint32),bytes)":"9ecc64e6","onCreateMarket(address,address,(address,string,string,uint128,uint16,uint16,uint32,uint16,uint32,uint256),bytes)":"28fd0307","onDeposit(address,uint256,(bool,uint128,uint128,uint128,uint104,uint104,uint32,bool,uint32,uint16,uint16,uint16,uint112,uint32),bytes)":"5aeb713f","onExecuteWithdrawal(address,uint128,(bool,uint128,uint128,uint128,uint104,uint104,uint32,bool,uint32,uint16,uint16,uint16,uint112,uint32),bytes)":"2970403d","onNukeFromOrbit(address,(bool,uint128,uint128,uint128,uint104,uint104,uint32,bool,uint32,uint16,uint16,uint16,uint112,uint32),bytes)":"8b3ce9b3","onQueueWithdrawal(address,uint32,uint256,(bool,uint128,uint128,uint128,uint104,uint104,uint32,bool,uint32,uint16,uint16,uint16,uint112,uint32),bytes)":"3521cccc","onRepay(uint256,(bool,uint128,uint128,uint128,uint104,uint104,uint32,bool,uint32,uint16,uint16,uint16,uint112,uint32),bytes)":"83d9e1eb","onSetAnnualInterestAndReserveRatioBips(uint16,uint16,(bool,uint128,uint128,uint128,uint104,uint104,uint32,bool,uint32,uint16,uint16,uint16,uint112,uint32),bytes)":"cc452642","onSetMaxTotalSupply(uint256,(bool,uint128,uint128,uint128,uint104,uint104,uint32,bool,uint32,uint16,uint16,uint16,uint112,uint32),bytes)":"849da129","onSetProtocolFeeBips(uint16,(bool,uint128,uint128,uint128,uint104,uint104,uint32,bool,uint32,uint16,uint16,uint16,uint112,uint32),bytes)":"03473d8d","onTransfer(address,address,address,uint256,(bool,uint128,uint128,uint128,uint104,uint104,uint32,bool,uint32,uint16,uint16,uint16,uint112,uint32),bytes)":"a018f90e","removeRoleProvider(address)":"8adfe0f8","revokeRole(address)":"80e52e3f","setFixedTermEndTime(address,uint32)":"02420e7f","setMinimumDeposit(address,uint128)":"1c4b3694","temporaryExcessReserveRatio(address)":"feb368e2","unblockFromDeposits(address)":"aa948689","version()":"54fd4d50"},"id":31}