{"abi":[{"type":"function","name":"bipDiv","inputs":[{"name":"a","type":"uint256","internalType":"uint256"},{"name":"b","type":"uint256","internalType":"uint256"}],"outputs":[{"name":"c","type":"uint256","internalType":"uint256"}],"stateMutability":"pure"},{"type":"function","name":"bipMul","inputs":[{"name":"a","type":"uint256","internalType":"uint256"},{"name":"b","type":"uint256","internalType":"uint256"}],"outputs":[{"name":"c","type":"uint256","internalType":"uint256"}],"stateMutability":"pure"},{"type":"function","name":"bipToRay","inputs":[{"name":"a","type":"uint256","internalType":"uint256"}],"outputs":[{"name":"b","type":"uint256","internalType":"uint256"}],"stateMutability":"pure"},{"type":"function","name":"calculateLinearInterestFromBips","inputs":[{"name":"rateBip","type":"uint256","internalType":"uint256"},{"name":"timeDelta","type":"uint256","internalType":"uint256"}],"outputs":[{"name":"result","type":"uint256","internalType":"uint256"}],"stateMutability":"pure"},{"type":"function","name":"max","inputs":[{"name":"a","type":"uint256","internalType":"uint256"},{"name":"b","type":"uint256","internalType":"uint256"}],"outputs":[{"name":"c","type":"uint256","internalType":"uint256"}],"stateMutability":"pure"},{"type":"function","name":"min","inputs":[{"name":"a","type":"uint256","internalType":"uint256"},{"name":"b","type":"uint256","internalType":"uint256"}],"outputs":[{"name":"c","type":"uint256","internalType":"uint256"}],"stateMutability":"pure"},{"type":"function","name":"mulDiv","inputs":[{"name":"x","type":"uint256","internalType":"uint256"},{"name":"y","type":"uint256","internalType":"uint256"},{"name":"d","type":"uint256","internalType":"uint256"}],"outputs":[{"name":"z","type":"uint256","internalType":"uint256"}],"stateMutability":"pure"},{"type":"function","name":"mulDivUp","inputs":[{"name":"x","type":"uint256","internalType":"uint256"},{"name":"y","type":"uint256","internalType":"uint256"},{"name":"d","type":"uint256","internalType":"uint256"}],"outputs":[{"name":"z","type":"uint256","internalType":"uint256"}],"stateMutability":"pure"},{"type":"function","name":"rayDiv","inputs":[{"name":"a","type":"uint256","internalType":"uint256"},{"name":"b","type":"uint256","internalType":"uint256"}],"outputs":[{"name":"c","type":"uint256","internalType":"uint256"}],"stateMutability":"pure"},{"type":"function","name":"rayMul","inputs":[{"name":"a","type":"uint256","internalType":"uint256"},{"name":"b","type":"uint256","internalType":"uint256"}],"outputs":[{"name":"c","type":"uint256","internalType":"uint256"}],"stateMutability":"pure"},{"type":"function","name":"satSub","inputs":[{"name":"a","type":"uint256","internalType":"uint256"},{"name":"b","type":"uint256","internalType":"uint256"}],"outputs":[{"name":"c","type":"uint256","internalType":"uint256"}],"stateMutability":"pure"},{"type":"function","name":"ternary","inputs":[{"name":"condition","type":"bool","internalType":"bool"},{"name":"valueIfTrue","type":"uint256","internalType":"uint256"},{"name":"valueIfFalse","type":"uint256","internalType":"uint256"}],"outputs":[{"name":"c","type":"uint256","internalType":"uint256"}],"stateMutability":"pure"},{"type":"error","name":"MulDivFailed","inputs":[]}],"bytecode":{"object":"0x61086861004d600b8282823980515f1a6073146041577f4e487b71000000000000000000000000000000000000000000000000000000005f525f60045260245ffd5b305f52607381538281f3fe73000000000000000000000000000000000000000030146080604052600436106100bd575f3560e01c80638a5f132b1161007a5780638a5f132b146101e15780639c34d88014610211578063aa9a091214610241578063d2e3058514610271578063f8978cd9146102a1578063ff48617e146102d1576100bd565b80630cf73470146100c157806310cb844b146100f157806312bd6ac01461012157806357645a7b146101515780636d5433e6146101815780637ae2b5c7146101b1575b5f80fd5b6100db60048036038101906100d6919061065a565b610301565b6040516100e891906106a7565b60405180910390f35b61010b6004803603810190610106919061065a565b610314565b60405161011891906106a7565b60405180910390f35b61013b600480360381019061013691906106c0565b610327565b60405161014891906106a7565b60405180910390f35b61016b60048036038101906101669190610710565b61033c565b60405161017891906106a7565b60405180910390f35b61019b6004803603810190610196919061065a565b61034d565b6040516101a891906106a7565b60405180910390f35b6101cb60048036038101906101c6919061065a565b610360565b6040516101d891906106a7565b60405180910390f35b6101fb60048036038101906101f69190610770565b610373565b60405161020891906106a7565b60405180910390f35b61022b6004803603810190610226919061065a565b610388565b60405161023891906106a7565b60405180910390f35b61025b600480360381019061025691906106c0565b61039b565b60405161026891906106a7565b60405180910390f35b61028b6004803603810190610286919061065a565b6103b0565b60405161029891906106a7565b60405180910390f35b6102bb60048036038101906102b6919061065a565b6103c3565b6040516102c891906106a7565b60405180910390f35b6102eb60048036038101906102e6919061065a565b6103d6565b6040516102f891906106a7565b60405180910390f35b5f61030c83836103e9565b905092915050565b5f61031f83836103f9565b905092915050565b5f610333848484610435565b90509392505050565b5f61034682610468565b9050919050565b5f61035883836104a2565b905092915050565b5f61036b83836104b8565b905092915050565b5f61037f8484846104ce565b90509392505050565b5f61039383836104df565b905092915050565b5f6103a784848461052f565b90509392505050565b5f6103bb838361055a565b905092915050565b5f6103ce83836105b0565b905092915050565b5f6103e183836105eb565b905092915050565b5f81830382841102905092915050565b5f612710600283045f19030483118215171561042157634e487b715f5260116020526024601cfd5b816002830461271085020104905092915050565b5f825f1904841183021582026104525763ad251c275f526004601cfd5b8183850204828486020615150190509392505050565b5f69152d02c7e14af6800000820290508169152d02c7e14af680000082041461049d57634e487b715f5260116020526024601cfd5b919050565b5f6104b082841083856104ce565b905092915050565b5f6104c682841084846104ce565b905092915050565b5f8183038402820190509392505050565b5f6b033b2e3c9fd0803ce8000000600283045f19030483118215171561051157634e487b715f5260116020526024601cfd5b81600283046b033b2e3c9fd0803ce800000085020104905092915050565b5f825f19048411830215820261054c5763ad251c275f526004601cfd5b818385020490509392505050565b5f816b019d971e4fe8401e740000005f19030483111582151761058957634e487b715f5260116020526024601cfd5b6b033b2e3c9fd0803ce80000006b019d971e4fe8401e740000008385020104905092915050565b5f806105bb84610468565b90505f83826105ca91906107ed565b90506301e1338081816105e0576105df61082e565b5b049250505092915050565b5f816113885f19030483111582151761061057634e487b715f5260116020526024601cfd5b6127106113888385020104905092915050565b5f80fd5b5f819050919050565b61063981610627565b8114610643575f80fd5b50565b5f8135905061065481610630565b92915050565b5f80604083850312156106705761066f610623565b5b5f61067d85828601610646565b925050602061068e85828601610646565b9150509250929050565b6106a181610627565b82525050565b5f6020820190506106ba5f830184610698565b92915050565b5f805f606084860312156106d7576106d6610623565b5b5f6106e486828701610646565b93505060206106f586828701610646565b925050604061070686828701610646565b9150509250925092565b5f6020828403121561072557610724610623565b5b5f61073284828501610646565b91505092915050565b5f8115159050919050565b61074f8161073b565b8114610759575f80fd5b50565b5f8135905061076a81610746565b92915050565b5f805f6060848603121561078757610786610623565b5b5f6107948682870161075c565b93505060206107a586828701610646565b92505060406107b686828701610646565b9150509250925092565b7f4e487b71000000000000000000000000000000000000000000000000000000005f52601160045260245ffd5b5f6107f782610627565b915061080283610627565b925082820261081081610627565b91508282048414831517610827576108266107c0565b5b5092915050565b7f4e487b71000000000000000000000000000000000000000000000000000000005f52601260045260245ffdfea164736f6c6343000819000a","linkReferences":{}},"methodIdentifiers":{"bipDiv(uint256,uint256)":"10cb844b","bipMul(uint256,uint256)":"ff48617e","bipToRay(uint256)":"57645a7b","calculateLinearInterestFromBips(uint256,uint256)":"f8978cd9","max(uint256,uint256)":"6d5433e6","min(uint256,uint256)":"7ae2b5c7","mulDiv(uint256,uint256,uint256)":"aa9a0912","mulDivUp(uint256,uint256,uint256)":"12bd6ac0","rayDiv(uint256,uint256)":"9c34d880","rayMul(uint256,uint256)":"d2e30585","satSub(uint256,uint256)":"0cf73470","ternary(bool,uint256,uint256)":"8a5f132b"},"id":135}