{"abi":[{"type":"function","name":"excludeArtifacts","inputs":[],"outputs":[{"name":"excludedArtifacts_","type":"string[]","internalType":"string[]"}],"stateMutability":"view"},{"type":"function","name":"excludeContracts","inputs":[],"outputs":[{"name":"excludedContracts_","type":"address[]","internalType":"address[]"}],"stateMutability":"view"},{"type":"function","name":"excludeSenders","inputs":[],"outputs":[{"name":"excludedSenders_","type":"address[]","internalType":"address[]"}],"stateMutability":"view"},{"type":"function","name":"failed","inputs":[],"outputs":[{"name":"","type":"bool","internalType":"bool"}],"stateMutability":"view"},{"type":"function","name":"targetArtifactSelectors","inputs":[],"outputs":[{"name":"targetedArtifactSelectors_","type":"tuple[]","internalType":"struct StdInvariant.FuzzSelector[]","components":[{"name":"addr","type":"address","internalType":"address"},{"name":"selectors","type":"bytes4[]","internalType":"bytes4[]"}]}],"stateMutability":"view"},{"type":"function","name":"targetArtifacts","inputs":[],"outputs":[{"name":"targetedArtifacts_","type":"string[]","internalType":"string[]"}],"stateMutability":"view"},{"type":"function","name":"targetContracts","inputs":[],"outputs":[{"name":"targetedContracts_","type":"address[]","internalType":"address[]"}],"stateMutability":"view"},{"type":"function","name":"targetInterfaces","inputs":[],"outputs":[{"name":"targetedInterfaces_","type":"tuple[]","internalType":"struct StdInvariant.FuzzInterface[]","components":[{"name":"addr","type":"address","internalType":"address"},{"name":"artifacts","type":"string[]","internalType":"string[]"}]}],"stateMutability":"view"},{"type":"function","name":"targetSelectors","inputs":[],"outputs":[{"name":"targetedSelectors_","type":"tuple[]","internalType":"struct StdInvariant.FuzzSelector[]","components":[{"name":"addr","type":"address","internalType":"address"},{"name":"selectors","type":"bytes4[]","internalType":"bytes4[]"}]}],"stateMutability":"view"},{"type":"function","name":"targetSenders","inputs":[],"outputs":[{"name":"targetedSenders_","type":"address[]","internalType":"address[]"}],"stateMutability":"view"},{"type":"function","name":"testLog","inputs":[],"outputs":[],"stateMutability":"nonpayable"},{"type":"event","name":"log","inputs":[{"name":"","type":"string","indexed":false,"internalType":"string"}],"anonymous":false},{"type":"event","name":"log_address","inputs":[{"name":"","type":"address","indexed":false,"internalType":"address"}],"anonymous":false},{"type":"event","name":"log_array","inputs":[{"name":"val","type":"uint256[]","indexed":false,"internalType":"uint256[]"}],"anonymous":false},{"type":"event","name":"log_array","inputs":[{"name":"val","type":"int256[]","indexed":false,"internalType":"int256[]"}],"anonymous":false},{"type":"event","name":"log_array","inputs":[{"name":"val","type":"address[]","indexed":false,"internalType":"address[]"}],"anonymous":false},{"type":"event","name":"log_bytes","inputs":[{"name":"","type":"bytes","indexed":false,"internalType":"bytes"}],"anonymous":false},{"type":"event","name":"log_bytes32","inputs":[{"name":"","type":"bytes32","indexed":false,"internalType":"bytes32"}],"anonymous":false},{"type":"event","name":"log_int","inputs":[{"name":"","type":"int256","indexed":false,"internalType":"int256"}],"anonymous":false},{"type":"event","name":"log_named_address","inputs":[{"name":"key","type":"string","indexed":false,"internalType":"string"},{"name":"val","type":"address","indexed":false,"internalType":"address"}],"anonymous":false},{"type":"event","name":"log_named_array","inputs":[{"name":"key","type":"string","indexed":false,"internalType":"string"},{"name":"val","type":"uint256[]","indexed":false,"internalType":"uint256[]"}],"anonymous":false},{"type":"event","name":"log_named_array","inputs":[{"name":"key","type":"string","indexed":false,"internalType":"string"},{"name":"val","type":"int256[]","indexed":false,"internalType":"int256[]"}],"anonymous":false},{"type":"event","name":"log_named_array","inputs":[{"name":"key","type":"string","indexed":false,"internalType":"string"},{"name":"val","type":"address[]","indexed":false,"internalType":"address[]"}],"anonymous":false},{"type":"event","name":"log_named_bytes","inputs":[{"name":"key","type":"string","indexed":false,"internalType":"string"},{"name":"val","type":"bytes","indexed":false,"internalType":"bytes"}],"anonymous":false},{"type":"event","name":"log_named_bytes32","inputs":[{"name":"key","type":"string","indexed":false,"internalType":"string"},{"name":"val","type":"bytes32","indexed":false,"internalType":"bytes32"}],"anonymous":false},{"type":"event","name":"log_named_decimal_int","inputs":[{"name":"key","type":"string","indexed":false,"internalType":"string"},{"name":"val","type":"int256","indexed":false,"internalType":"int256"},{"name":"decimals","type":"uint256","indexed":false,"internalType":"uint256"}],"anonymous":false},{"type":"event","name":"log_named_decimal_uint","inputs":[{"name":"key","type":"string","indexed":false,"internalType":"string"},{"name":"val","type":"uint256","indexed":false,"internalType":"uint256"},{"name":"decimals","type":"uint256","indexed":false,"internalType":"uint256"}],"anonymous":false},{"type":"event","name":"log_named_int","inputs":[{"name":"key","type":"string","indexed":false,"internalType":"string"},{"name":"val","type":"int256","indexed":false,"internalType":"int256"}],"anonymous":false},{"type":"event","name":"log_named_string","inputs":[{"name":"key","type":"string","indexed":false,"internalType":"string"},{"name":"val","type":"string","indexed":false,"internalType":"string"}],"anonymous":false},{"type":"event","name":"log_named_uint","inputs":[{"name":"key","type":"string","indexed":false,"internalType":"string"},{"name":"val","type":"uint256","indexed":false,"internalType":"uint256"}],"anonymous":false},{"type":"event","name":"log_string","inputs":[{"name":"","type":"string","indexed":false,"internalType":"string"}],"anonymous":false},{"type":"event","name":"log_uint","inputs":[{"name":"","type":"uint256","indexed":false,"internalType":"uint256"}],"anonymous":false},{"type":"event","name":"logs","inputs":[{"name":"","type":"bytes","indexed":false,"internalType":"bytes"}],"anonymous":false}],"bytecode":{"object":"0x60806040526001600c5f6101000a81548160ff0219169083151502179055503480156028575f80fd5b50611ccc806100365f395ff3fe608060405234801561000f575f80fd5b50600436106100a7575f3560e01c806366d9a9a01161006f57806366d9a9a01461012d57806385226c811461014b578063916a17c614610169578063b5508aa914610187578063ba414fa6146101a5578063e20c9f71146101c3576100a7565b80631ed7831c146100ab57806329372d21146100c95780632ade3880146100d35780633e5e3c23146100f15780633f7286f41461010f575b5f80fd5b6100b36101e1565b6040516100c09190611183565b60405180910390f35b6100d161026c565b005b6100db6103ca565b6040516100e891906113c3565b60405180910390f35b6100f961054e565b6040516101069190611183565b60405180910390f35b6101176105d9565b6040516101249190611183565b60405180910390f35b610135610664565b60405161014291906115ba565b60405180910390f35b6101536107ab565b604051610160919061165d565b60405180910390f35b61017161087f565b60405161017e91906115ba565b60405180910390f35b61018f6109c6565b60405161019c919061165d565b60405180910390f35b6101ad610a9a565b6040516101ba9190611697565b60405180910390f35b6101cb610bae565b6040516101d89190611183565b60405180910390f35b6060601680548060200260200160405190810160405280929190818152602001828054801561026257602002820191905f5260205f20905b815f9054906101000a900473ffffffffffffffffffffffffffffffffffffffff1673ffffffffffffffffffffffffffffffffffffffff1681526020019060010190808311610219575b5050505050905090565b5f6040518060400160405280600381526020017f0a5b0a000000000000000000000000000000000000000000000000000000000081525090505f600a90505b6064811015610319575f6064670de0b6b3a7640000836102cb91906116e6565b6102d59190611754565b9050826102e2825f610c39565b6040516020016102f39291906117e4565b604051602081830303815290604052925050600f816103129190611816565b90506102ab565b505f5b6064811161039b575f60016003836103349190611984565b61033e9190611816565b9050670de0b6b3a76400008161035491906116e6565b9050826103648260648514610c39565b6040516020016103759291906117e4565b6040516020818303038152906040529250506014816103949190611816565b905061031c565b50806040516020016103ad91906119f4565b60405160208183030381529060405290506103c781610ca6565b50565b6060601d805480602002602001604051908101604052809291908181526020015f905b82821015610545578382905f5260205f2090600202016040518060400160405290815f82015f9054906101000a900473ffffffffffffffffffffffffffffffffffffffff1673ffffffffffffffffffffffffffffffffffffffff1673ffffffffffffffffffffffffffffffffffffffff16815260200160018201805480602002602001604051908101604052809291908181526020015f905b8282101561052e578382905f5260205f200180546104a390611a46565b80601f01602080910402602001604051908101604052809291908181526020018280546104cf90611a46565b801561051a5780601f106104f15761010080835404028352916020019161051a565b820191905f5260205f20905b8154815290600101906020018083116104fd57829003601f168201915b505050505081526020019060010190610486565b5050505081525050815260200190600101906103ed565b50505050905090565b606060188054806020026020016040519081016040528092919081815260200182805480156105cf57602002820191905f5260205f20905b815f9054906101000a900473ffffffffffffffffffffffffffffffffffffffff1673ffffffffffffffffffffffffffffffffffffffff1681526020019060010190808311610586575b5050505050905090565b6060601780548060200260200160405190810160405280929190818152602001828054801561065a57602002820191905f5260205f20905b815f9054906101000a900473ffffffffffffffffffffffffffffffffffffffff1673ffffffffffffffffffffffffffffffffffffffff1681526020019060010190808311610611575b5050505050905090565b6060601b805480602002602001604051908101604052809291908181526020015f905b828210156107a2578382905f5260205f2090600202016040518060400160405290815f82015f9054906101000a900473ffffffffffffffffffffffffffffffffffffffff1673ffffffffffffffffffffffffffffffffffffffff1673ffffffffffffffffffffffffffffffffffffffff1681526020016001820180548060200260200160405190810160405280929190818152602001828054801561078a57602002820191905f5260205f20905f905b82829054906101000a900460e01b7bffffffffffffffffffffffffffffffffffffffffffffffffffffffff1916815260200190600401906020826003010492830192600103820291508084116107375790505b50505050508152505081526020019060010190610687565b50505050905090565b6060601a805480602002602001604051908101604052809291908181526020015f905b82821015610876578382905f5260205f200180546107eb90611a46565b80601f016020809104026020016040519081016040528092919081815260200182805461081790611a46565b80156108625780601f1061083957610100808354040283529160200191610862565b820191905f5260205f20905b81548152906001019060200180831161084557829003601f168201915b5050505050815260200190600101906107ce565b50505050905090565b6060601c805480602002602001604051908101604052809291908181526020015f905b828210156109bd578382905f5260205f2090600202016040518060400160405290815f82015f9054906101000a900473ffffffffffffffffffffffffffffffffffffffff1673ffffffffffffffffffffffffffffffffffffffff1673ffffffffffffffffffffffffffffffffffffffff168152602001600182018054806020026020016040519081016040528092919081815260200182805480156109a557602002820191905f5260205f20905f905b82829054906101000a900460e01b7bffffffffffffffffffffffffffffffffffffffffffffffffffffffff1916815260200190600401906020826003010492830192600103820291508084116109525790505b505050505081525050815260200190600101906108a2565b50505050905090565b60606019805480602002602001604051908101604052809291908181526020015f905b82821015610a91578382905f5260205f20018054610a0690611a46565b80601f0160208091040260200160405190810160405280929190818152602001828054610a3290611a46565b8015610a7d5780601f10610a5457610100808354040283529160200191610a7d565b820191905f5260205f20905b815481529060010190602001808311610a6057829003601f168201915b5050505050815260200190600101906109e9565b50505050905090565b5f60085f9054906101000a900460ff1615610ac55760085f9054906101000a900460ff169050610bab565b5f801b7f885cb69240a935d632d79c317109709ecfa91a80626ff3989d68f67f5b1dd12d5f1c73ffffffffffffffffffffffffffffffffffffffff1663667f9d707f885cb69240a935d632d79c317109709ecfa91a80626ff3989d68f67f5b1dd12d5f1c7f6661696c656400000000000000000000000000000000000000000000000000006040518363ffffffff1660e01b8152600401610b67929190611a9d565b602060405180830381865afa158015610b82573d5f803e3d5ffd5b505050506040513d601f19601f82011682018060405250810190610ba69190611af2565b141590505b90565b60606015805480602002602001604051908101604052809291908181526020018280548015610c2f57602002820191905f5260205f20905b815f9054906101000a900473ffffffffffffffffffffffffffffffffffffffff1673ffffffffffffffffffffffffffffffffffffffff1681526020019060010190808311610be6575b5050505050905090565b6060610c4483610d3f565b610c55610c5085610d8e565b611008565b604051602001610c66929190611b8f565b60405160208183030381529060405290508115610ca05780604051602001610c8e9190611c05565b60405160208183030381529060405290505b92915050565b610d3c81604051602401610cba9190611c72565b6040516020818303038152906040527f41304fac000000000000000000000000000000000000000000000000000000007bffffffffffffffffffffffffffffffffffffffffffffffffffffffff19166020820180517bffffffffffffffffffffffffffffffffffffffffffffffffffffffff8381831617835250505050611047565b50565b60606080604051019050602081016040525f8152805f19835b600115610d79578184019350600a81066030018453600a8104905080610d58575b50828203602084039350808452505050919050565b5f808213610da357631615e6385f526004601cfd5b5f826fffffffffffffffffffffffffffffffff1060071b905082811c67ffffffffffffffff1060061b8117905082811c63ffffffff1060051b8117905082811c61ffff1060041b8117905082811c60ff1060031b8117905082811c600f1060021b8117905060607d01010202020203030303030303030000000000000000000000000000000084831c1a8217039050609f81609f0384901b901c92505f6c29508e458543d8aa4df2abee78840190506d0139601a2efabe717e604cbb48946060858302901d0190506d02247f7a7b6594320649aa03aba16060858302901d0190506c8c3f38e95a6b1ff2ab1c3b34376060858302901d0390506d02384773bdf1ac5676facced60916060858302901d0390506cb9a025d814b29c212b8b1a07ce6060858302901d039050780a09507084cc699bb0e71ea86a0000000000000000000000008482020390505f6c465772b2bbbb5f824b15207a30850190506d0388eaa27412d5aca026815d636e6060868302901d0190506d0df99ac502031bf953eff472fdcc6060868302901d0190506d13cdffb29d51d99322bdff5f22116060868302901d0190506d0a0f742023def783a307a986912e6060868302901d0190506d01920d8043ca89b5239253284e426060868302901d0190506c0b7a86d7375468fac667a0a5276060868302901d0190508082059350711340daa0d5f769dba1915cef59f0815a550684029350827d0267a36c0c95b3975ab3ee5b203a7614a3f75373f047d803ae7b6687f2b302840193507d57115e47018c7177eebf7cd370a3356a1b7863008a5ae8028c72b88642848401935060ae84901d9350505050919050565b60605f82126110215761101a82610d3f565b9050611042565b61102c825f03610d3f565b90508051602d8252600182039150600181018252505b919050565b61105e81611056611061611087565b63ffffffff16565b50565b5f815190505f6a636f6e736f6c652e6c6f679050602083015f808483855afa5050505050565b611092819050919050565b61109a611c92565b565b5f81519050919050565b5f82825260208201905092915050565b5f819050602082019050919050565b5f73ffffffffffffffffffffffffffffffffffffffff82169050919050565b5f6110ee826110c5565b9050919050565b6110fe816110e4565b82525050565b5f61110f83836110f5565b60208301905092915050565b5f602082019050919050565b5f6111318261109c565b61113b81856110a6565b9350611146836110b6565b805f5b8381101561117657815161115d8882611104565b97506111688361111b565b925050600181019050611149565b5085935050505092915050565b5f6020820190508181035f83015261119b8184611127565b905092915050565b5f81519050919050565b5f82825260208201905092915050565b5f819050602082019050919050565b5f81519050919050565b5f82825260208201905092915050565b5f819050602082019050919050565b5f81519050919050565b5f82825260208201905092915050565b8281835e5f83830152505050565b5f601f19601f8301169050919050565b5f611237826111f5565b61124181856111ff565b935061125181856020860161120f565b61125a8161121d565b840191505092915050565b5f611270838361122d565b905092915050565b5f602082019050919050565b5f61128e826111cc565b61129881856111d6565b9350836020820285016112aa856111e6565b805f5b858110156112e557848403895281516112c68582611265565b94506112d183611278565b925060208a019950506001810190506112ad565b50829750879550505050505092915050565b5f604083015f83015161130c5f8601826110f5565b50602083015184820360208601526113248282611284565b9150508091505092915050565b5f61133c83836112f7565b905092915050565b5f602082019050919050565b5f61135a826111a3565b61136481856111ad565b935083602082028501611376856111bd565b805f5b858110156113b157848403895281516113928582611331565b945061139d83611344565b925060208a01995050600181019050611379565b50829750879550505050505092915050565b5f6020820190508181035f8301526113db8184611350565b905092915050565b5f81519050919050565b5f82825260208201905092915050565b5f819050602082019050919050565b5f81519050919050565b5f82825260208201905092915050565b5f819050602082019050919050565b5f7fffffffff0000000000000000000000000000000000000000000000000000000082169050919050565b61146981611435565b82525050565b5f61147a8383611460565b60208301905092915050565b5f602082019050919050565b5f61149c8261140c565b6114a68185611416565b93506114b183611426565b805f5b838110156114e15781516114c8888261146f565b97506114d383611486565b9250506001810190506114b4565b5085935050505092915050565b5f604083015f8301516115035f8601826110f5565b506020830151848203602086015261151b8282611492565b9150508091505092915050565b5f61153383836114ee565b905092915050565b5f602082019050919050565b5f611551826113e3565b61155b81856113ed565b93508360208202850161156d856113fd565b805f5b858110156115a857848403895281516115898582611528565b94506115948361153b565b925060208a01995050600181019050611570565b50829750879550505050505092915050565b5f6020820190508181035f8301526115d28184611547565b905092915050565b5f82825260208201905092915050565b5f6115f4826111cc565b6115fe81856115da565b935083602082028501611610856111e6565b805f5b8581101561164b578484038952815161162c8582611265565b945061163783611278565b925060208a01995050600181019050611613565b50829750879550505050505092915050565b5f6020820190508181035f83015261167581846115ea565b905092915050565b5f8115159050919050565b6116918161167d565b82525050565b5f6020820190506116aa5f830184611688565b92915050565b5f819050919050565b7f4e487b71000000000000000000000000000000000000000000000000000000005f52601160045260245ffd5b5f6116f0826116b0565b91506116fb836116b0565b9250828202611709816116b0565b915082820484148315176117205761171f6116b9565b5b5092915050565b7f4e487b71000000000000000000000000000000000000000000000000000000005f52601260045260245ffd5b5f61175e826116b0565b9150611769836116b0565b92508261177957611778611727565b5b828204905092915050565b5f81905092915050565b5f611798826111f5565b6117a28185611784565b93506117b281856020860161120f565b80840191505092915050565b7f0a00000000000000000000000000000000000000000000000000000000000000815250565b5f6117ef828561178e565b91506117fb828461178e565b9150611806826117be565b6001820191508190509392505050565b5f611820826116b0565b915061182b836116b0565b9250828201905080821115611843576118426116b9565b5b92915050565b5f8160011c9050919050565b5f808291508390505b600185111561189e5780860481111561187a576118796116b9565b5b60018516156118895780820291505b808102905061189785611849565b945061185e565b94509492505050565b5f826118b65760019050611971565b816118c3575f9050611971565b81600181146118d957600281146118e357611912565b6001915050611971565b60ff8411156118f5576118f46116b9565b5b8360020a91508482111561190c5761190b6116b9565b5b50611971565b5060208310610133831016604e8410600b84101617156119475782820a905083811115611942576119416116b9565b5b611971565b6119548484846001611855565b9250905081840481111561196b5761196a6116b9565b5b81810290505b9392505050565b5f60ff82169050919050565b5f61198e826116b0565b915061199983611978565b92506119c67fffffffffffffffffffffffffffffffffffffffffffffffffffffffffffffffff84846118a7565b905092915050565b7f5d0a000000000000000000000000000000000000000000000000000000000000815250565b5f6119ff828461178e565b9150611a0a826119ce565b60028201915081905092915050565b7f4e487b71000000000000000000000000000000000000000000000000000000005f52602260045260245ffd5b5f6002820490506001821680611a5d57607f821691505b602082108103611a7057611a6f611a19565b5b50919050565b611a7f816110e4565b82525050565b5f819050919050565b611a9781611a85565b82525050565b5f604082019050611ab05f830185611a76565b611abd6020830184611a8e565b9392505050565b5f80fd5b611ad181611a85565b8114611adb575f80fd5b50565b5f81519050611aec81611ac8565b92915050565b5f60208284031215611b0757611b06611ac4565b5b5f611b1484828501611ade565b91505092915050565b7f7b226e223a200000000000000000000000000000000000000000000000000000815250565b7f6e2c2022726573756c74223a2000000000000000000000000000000000000000815250565b7f6e7d000000000000000000000000000000000000000000000000000000000000815250565b5f611b9982611b1d565b600682019150611ba9828561178e565b9150611bb482611b43565b600d82019150611bc4828461178e565b9150611bcf82611b69565b6002820191508190509392505050565b7f2c00000000000000000000000000000000000000000000000000000000000000815250565b5f611c10828461178e565b9150611c1b82611bdf565b60018201915081905092915050565b5f82825260208201905092915050565b5f611c44826111f5565b611c4e8185611c2a565b9350611c5e81856020860161120f565b611c678161121d565b840191505092915050565b5f6020820190508181035f830152611c8a8184611c3a565b905092915050565b7f4e487b71000000000000000000000000000000000000000000000000000000005f52605160045260245ffdfea164736f6c6343000819000a","linkReferences":{}},"methodIdentifiers":{"excludeArtifacts()":"b5508aa9","excludeContracts()":"e20c9f71","excludeSenders()":"1ed7831c","failed()":"ba414fa6","targetArtifactSelectors()":"66d9a9a0","targetArtifacts()":"85226c81","targetContracts()":"3f7286f4","targetInterfaces()":"2ade3880","targetSelectors()":"916a17c6","targetSenders()":"3e5e3c23","testLog()":"29372d21"},"id":101}